:1000000070C000000C9443150C947C1589C000004E
:1000100087C0000085C0000083C0000081C00000D0
:100020007FC000007DC000007BC0000079C00000E0
:1000300077C0000075C0000073C0000071C00000F0
:100040006FC000006DC0000074C2000069C00000F5
:1000500067C0000065C0000063C0000061C0000010
:100060005FC000005DC000005BC0000059C0000020
:1000700057C0000055C0000053C0000051C0000030
:100080004FC000004DC000004BC00000084AD73BE5
:100090003BCE016E84BCBFFDC12F3D6C74319ABD57
:1000A00056833DDA3D00C77F11BED9E4BB4C3E917B
:1000B0006BAAAABE000000803F072C7AA5BA6CC5C7
:1000C00090DA3B9365FC8BBC53F810FD3C56928351
:1000D0004DBD879D3AB63DCBC9BF5BBE73DA0FC934
:1000E0003F0011241FBECFEFD0E4DEBFCDBF11E033
:1000F000A0E0B1E0E6ECF0E500E00BBF02C0079045
:100100000D92AC33B107D9F729E0ACE3B1E001C0FF
:100110001D92AA36B207E1F70E9400240C946128D0
:100120006FCF86E081B984E082B980EA84B981E545
:100130008CBD08958EBD0DB407FEFDCF8EB58093A6
:1001400042010895CF93DF93C62FD72F12B8F2DF65
:1001500084E082B98AE18A95F1F700C012B88D2F48
:10016000E9DF84E082B98AE18A95F1F700C012B82C
:100170008C2FE0DF84E082B98AE18A95F1F700C034
:10018000DF91CF91089580E18AB952D01092C500D5
:100190001092C40088E18093C10086E08093C20081
:1001A0000895E0ECF0E0908195FFFDCF8093C600CC
:1001B0000895CF92EF92FF920F931F93CF93DF9307
:1001C000C82FD62F142FF22E35D0E0ECF0E080812E
:1001D00080838FEFE6DF8FEFE4DF8C2FE2DF87E0B5
:1001E000E0DF8D2FDEDF812FDCDF8F2DDADF802F48
:1001F000D8DF8E2DD6DF8C2DD4DFF89487E08C0DE0
:10020000E80E0E0DF00E1F0DD10F8D2F8C0F809567
:10021000C8DFE0ECF0E0808186FFFDCF09D0789464
:10022000DF91CF911F910F91FF90EF90CF900895A4
:100230001BB8089580E18BB9089585B5846085BDAC
:1002400016BCEEE6F0E080818160808378941092A5
:10025000690908958634910509F4ACC0C4F48E315F
:10026000910509F45BC03CF48A30910589F144970B
:1002700009F441C008958233910509F475C08C33A7
:10028000910509F484C0889709F02BC15AC0883CB5
:10029000910509F4DBC06CF48A35910509F4B0C00E
:1002A0008436910509F4BFC08035910509F019C164
:1002B00094C0803921E0920709F4EEC0843F21E028
:1002C000920709F4FCC08C32914009F00AC1D1C0F8
:1002D0008AE090E090932C0180932B0182E090E0E3
:1002E000909327018093260181E790E09093250168
:1002F00080932401089584E190E090932C018093F1
:100300002B0184E090E0909327018093260182EEF8
:1003100090E0909325018093240108958EE190E070
:1003200090932C0180932B0187E090E0909327011C
:100330008093260183E590E090932501809324012A
:10034000089588E290E090932C0180932B0189E03E
:1003500090E0909327018093260184EC90E09093A5
:10036000250180932401089582E390E090932C016D
:1003700080932B018CE090E09093270180932601DD
:1003800085E390E0909325018093240108958CE308
:1003900090E090932C0180932B018EE090E090935D
:1003A00027018093260186EA90E0909325018093AF
:1003B0002401089586E490E090932C0180932B0112
:1003C00081E190E0909327018093260187E190E0FE
:1003D0009093250180932401089580E590E0909307
:1003E0002C0180932B0183E190E09093270180936F
:1003F000260188E890E090932501809324010895D8
:100400008AE590E090932C0180932B0185E190E0A8
:10041000909327018093260189EF90E09093250126
:1004200080932401089584E690E090932C018093BA
:100430002B0188E190E090932701809326018AE6C2
:1004400090E09093250180932401089588EC90E03A
:1004500090932C0180932B0180E390E090932701EF
:100460008093260184ED90E09093250180932401F0
:1004700008958CE291E090932C0180932B0189E404
:1004800090E090932701809326018EE390E0909373
:10049000250180932401089580E991E090932C0137
:1004A00080932B0181E690E09093270180932601B1
:1004B00088EA90E09093250180932401089584EFC9
:1004C00091E090932C0180932B018AE790E0909328
:1004D00027018093260182E190E09093250180938B
:1004E000240108959B01AC01A8EEB3E00E942028EE
:1004F00020912B0130912C01A901440F551F240F8D
:10050000351F220F331F442737FD4095542F0E947B
:100510000428223031054105510534F0A0912D0108
:10052000B0912E010C942A2862E070E080E090E007
:1005300008951F920F920FB60F9211248F938091FE
:1005400069098F5F809369098F910F900FBE0F909B
:100550001F9018954F925F926F927F928F929F9209
:10056000AF92BF92CF92DF92EF92FF920F931F93C1
:10057000CF93DF93EC01680179014D3281E0580798
:1005800061057105E0F5AFEFB3E09A01AB010E94A0
:1005900020282CE231E040E050E00E94042849018C
:1005A0005A019924AA24BB24432E512C82E7C81651
:1005B000D104E104F104A4F4AFEFB3E0A701960184
:1005C0000E94202822E730E040E050E00E9404280A
:1005D00079018A01FF2400271127432F50E006C02C
:1005E00040E050E0BA01E12CF12C87016A01820160
:1005F00094014EE150E063E070E0CE01DADDDF917E
:10060000CF911F910F91FF90EF90DF90CF90BF900F
:10061000AF909F908F907F906F905F904F900895D4
:100620004F925F926F927F928F929F92AF92BF9202
:10063000CF92DF92EF92FF920F931F93CF93DF93AE
:10064000CDB7DEB760970FB6F894DEBF0FBECDBF53
:100650002B013C0149015A01E982FA820B831C8378
:10066000860190580E9486256D877E878F87988B9C
:1006700029813A814B815C81CA01B9010E944727D7
:100680006B017C01A3019201C301B2010E944727C3
:100690002B013C01A5019401C501B4010E9447272B
:1006A0009B01AC01C301B2010E9413252B013C0147
:1006B0000E94AE2720E030E048E452E40E94122578
:1006C0004B015C019B01AC010E9447276D837E8337
:1006D0008F8398879B01AC01C701B6010E94132547
:1006E00069877A878B879C870E94AE279B01AC0124
:1006F00069817A818B819C8190580E94D9250E94C2
:10070000042569837A838B839C8320E030E048E46E
:1007100052E4C301B2010E9412250E94AE279B0140
:10072000AC01C501B4010E9447279B01AC01C70180
:10073000B6010E9413250E94AE272B013C0120E048
:1007400038E44CE855E469857A858B859C850E9460
:10075000132520E038E044E856E40E9412254B01BE
:100760005C01A3019201C301B2010E94132520E0A4
:1007700030E046E852E40E9447279B01AC01C501E6
:10078000B4010E94D9250E9404252B013C01A70138
:10079000960160E07AE187EA96E40E9412252D81B5
:1007A0003E814F8158850E94122520E038E148E8BB
:1007B00056E40E94D9250E9404254B015C01680182
:1007C000EE24D7FCE094FE2C20E030E044E353E438
:1007D0006D857E858F8598890E94472728ED3FE0AB
:1007E00049E450E40E94D9250E944126AB01BC0196
:1007F00047595F4F6F4F7F4F9701860182E090E02E
:10080000A9DEA301920169817A818B819C810E947A
:10081000132524EE3EE245E652E40E9447270E945B
:100820004126AB01BC01455B5F4F6F4F7F4F970186
:10083000860184E090E08EDE20E030E044E353E483
:10084000C501B4010E94472728ED3FE049E450E488
:100850000E94D9250E944126AB01BC014F5F5F4F2A
:100860006F4F7F4F9701860186E090E073DE6096C0
:100870000FB6F894DEBF0FBECDBFDF91CF911F91B1
:100880000F91FF90EF90DF90CF90BF90AF909F902F
:100890008F907F906F905F904F9008954F925F92EE
:1008A0006F927F928F929F92AF92BF92CF92DF9280
:1008B000EF92FF920F931F93CF93DF93CDB7DEB7E5
:1008C00060970FB6F894DEBF0FBECDBF2B013C0181
:1008D00049015A01E982FA820B831C8386019058F0
:1008E0000E9486256D877E878F87988B29813A8124
:1008F0004B815C81CA01B9010E9447276B017C01D1
:10090000A3019201C301B2010E9447272B013C01C0
:10091000A5019401C501B4010E9447279B01AC01C8
:10092000C301B2010E9413252B013C010E94AE2796
:1009300020E030E048E452E40E9412254B015C01C3
:100940009B01AC010E9447276D837E838F8398872C
:100950009B01AC01C701B6010E94132569877A8704
:100960008B879C870E94AE279B01AC0169817A81AD
:100970008B819C8190580E94D9250E94042569830F
:100980007A838B839C8320E030E048E452E4C30107
:10099000B2010E9412250E94AE279B01AC01C50145
:1009A000B4010E9447279B01AC01C701B6010E9418
:1009B00013250E94AE272B013C0120E038E44CE8CF
:1009C00055E469857A858B859C850E94132520E0F6
:1009D00038E044E856E40E9412254B015C01A30173
:1009E0009201C301B2010E94132520E030E046E8E5
:1009F00052E40E9447279B01AC01C501B4010E944B
:100A0000D9250E9404252B013C01A701960160E035
:100A10007AE187EA96E40E9412252D813E814F817A
:100A200058850E94122520E038E148E856E40E94EB
:100A3000D9250E9404254B015C016801EE24D7FCF6
:100A4000E094FE2C20E030E044E353E46D857E85A5
:100A50008F8598890E94472728ED3FE049E450E4BC
:100A60000E94D9250E944126AB01BC014F535F4F24
:100A70006F4F7F4F9701860188E090E06BDDA30107
:100A8000920169817A818B819C810E94132524EED9
:100A90003EE245E652E40E9447270E944126AB0110
:100AA000BC01455B5F4F6F4F7F4F970186018AE026
:100AB00090E050DD20E030E044E353E4C501B401B0
:100AC0000E94472728ED3FE049E450E40E94D925E1
:100AD0000E944126AB01BC014D5F5F4F6F4F7F4FBE
:100AE000970186018CE090E035DD60960FB6F894B2
:100AF000DEBF0FBECDBFDF91CF911F910F91FF9051
:100B0000EF90DF90CF90BF90AF909F908F907F90AD
:100B10006F905F904F9008954F925F926F927F9287
:100B20008F929F92AF92BF92CF92DF92EF92FF92FD
:100B30000F931F93CF93DF93CDB7DEB760970FB6B8
:100B4000F894DEBF0FBECDBF2B013C0149015A0115
:100B5000E982FA820B831C83860150580E94862505
:100B60006D877E878F87988B29813A814B815C8145
:100B7000CA01B9010E9447276B017C01A3019201C0
:100B8000C301B2010E9447272B013C01A50194013A
:100B9000C501B4010E9447279B01AC01C301B2010A
:100BA0000E9413252B013C010E94AE2720E030E07B
:100BB00048E452E40E9412254B015C019B01AC0108
:100BC0000E9447276D837E838F8398879B01AC01AA
:100BD000C701B6010E94132569877A878B879C8796
:100BE0000E94AE279B01AC0169817A818B819C8137
:100BF00090580E94D9250E94042569837A838B83AB
:100C00009C8320E030E048E452E4C301B2010E943A
:100C100012250E94AE279B01AC01C501B4010E94C0
:100C200047279B01AC01C701B6010E9413250E9412
:100C3000AE272B013C0120E038E44CE855E46985FF
:100C40007A858B859C850E94132520E038E044E856
:100C500056E40E9412254B015C01A3019201C301DD
:100C6000B2010E94132520E030E046E852E40E94E1
:100C700047279B01AC01C501B4010E94D9250E9400
:100C800004252B013C01A701960160E07AE187EA87
:100C900096E40E9412252D813E814F8158850E9445
:100CA000122520E038E148E856E40E94D9250E9448
:100CB00004254B015C016801EE24D7FCE094FE2C76
:100CC00020E030E044E353E46D857E858F8598898C
:100CD0000E94472728ED3FE049E450E40E94D925CF
:100CE0000E944126AB01BC014D535F4F6F4F7F4FB8
:100CF0009701860181E090E02DDCA30192016981DA
:100D00007A818B819C810E94132524EE3EE245E688
:100D100052E40E9447270E9441260F2EF1EE4F2EEB
:100D2000512C612C712CF02D93018201061B170BA5
:100D3000280B390BB901A8019701860183E090E0E7
:100D400009DC20E030E044E353E4C501B4010E9433
:100D5000472728ED3FE049E450E40E94D9250E944E
:100D600041260F2EFCE28F2E99249394A12CB12CB6
:100D7000F02D95018401061B170B280B390BB901C7
:100D8000A8019701860185E090E0E4DB60960FB64C
:100D9000F894DEBF0FBECDBFDF91CF911F910F91B1
:100DA000FF90EF90DF90CF90BF90AF909F908F908B
:100DB0007F906F905F904F9008954F925F926F92E7
:100DC0007F928F929F92AF92BF92CF92DF92EF92DB
:100DD000FF920F931F93CF93DF93CDB7DEB760974A
:100DE0000FB6F894DEBF0FBECDBF2B013C01490109
:100DF0005A01E982FA820B831C83860150580E94B3
:100E000086256D877E878F87988B29813A814B81D4
:100E10005C81CA01B9010E9447276B017C01A301D3
:100E20009201C301B2010E9447272B013C01A50199
:100E30009401C501B4010E9447279B01AC01C30185
:100E4000B2010E9413252B013C010E94AE2720E035
:100E500030E048E452E40E9412254B015C019B0102
:100E6000AC010E9447276D837E838F8398879B0107
:100E7000AC01C701B6010E94132569877A878B8769
:100E80009C870E94AE279B01AC0169817A818B818E
:100E90009C8190580E94D9250E94042569837A83F9
:100EA0008B839C8320E030E048E452E4C301B2012C
:100EB0000E9412250E94AE279B01AC01C501B4011E
:100EC0000E9447279B01AC01C701B6010E94132570
:100ED0000E94AE272B013C0120E038E44CE855E4A9
:100EE00069857A858B859C850E94132520E038E0F2
:100EF00044E856E40E9412254B015C01A3019201D3
:100F0000C301B2010E94132520E030E046E852E41C
:100F10000E9447279B01AC01C501B4010E94D9255D
:100F20000E9404252B013C01A701960160E07AE1B3
:100F300087EA96E40E9412252D813E814F815885D3
:100F40000E94122520E038E148E856E40E94D925A5
:100F50000E9404254B015C016801EE24D7FCE0945B
:100F6000FE2C20E030E044E353E46D857E858F85E0
:100F700098890E94472728ED3FE049E450E40E9409
:100F8000D9250E944126AB01BC0147595F4F6F4FE5
:100F90007F4F9701860187E090E0DCDAA3019201A0
:100FA00069817A818B819C810E94132524EE3EE227
:100FB00045E652E40E9447270E9441260F2EF1EE9B
:100FC0004F2E512C612C712CF02D93018201061BA8
:100FD000170B280B390BB901A8019701860189E08D
:100FE00090E0B8DA20E030E044E353E4C501B40116
:100FF0000E94472728ED3FE049E450E40E94D925AC
:101000000E9441260F2EFCE28F2E99249394A12C4E
:10101000B12CF02D95018401061B170B280B390B01
:10102000B901A801970186018BE090E093DA609600
:101030000FB6F894DEBF0FBECDBFDF91CF911F91E9
:101040000F91FF90EF90DF90CF90BF90AF909F9067
:101050008F907F906F905F904F9008954F925F9226
:101060006F927F928F929F92AF92BF92CF92DF92B8
:10107000EF92FF920F931F93C0902801D090290107
:101080006091330170913401882777FD8095982F06
:101090000E9474262B013C0160913501709136014C
:1010A000882777FD8095982F0E9474264B015C015C
:1010B00060913701709138017195619571098827A8
:1010C00077FD8095982F0E94742683017201A501F7
:1010D0009401A6DAC0902801D090290160913301D3
:1010E00070913401882777FD8095982F0E9474268F
:1010F0002B013C016091350170913601882777FD05
:101100008095982F0E9474264B015C0160913701F5
:1011100070913801882777FD8095982F0E9474265A
:1011200083017201A5019401B9DBC0902801D09020
:1011300029016091330170913401882777FD8095F2
:10114000982F0E9474262B013C016091350170910B
:101150003601719561957109882777FD8095982FE3
:101160000E9474264B015C01609137017091380137
:10117000719561957109882777FD8095982F0E9458
:10118000742683017201A5019401C6DCC090280178
:10119000D09029016091330170913401882777FD47
:1011A0008095982F0E9474262B013C016091350197
:1011B00070913601719561957109882777FD809549
:1011C000982F0E9474264B015C0160913701709149
:1011D0003801882777FD8095982F0E947426830117
:1011E0007201A5019401E9DD1F910F91FF90EF902D
:1011F000DF90CF90BF90AF909F908F907F906F9037
:101200005F904F90089580913E0190913F01209111
:10121000200130912101821793075CF010923F0169
:1012200010923E0181E090E090932301809322018F
:101230000895AC014F5F5F4F50933F0140933E01D3
:10124000421753072CF010922301109222010895A7
:101250000296909323018093220108952F923F924A
:101260004F925F926F927F928F929F92AF92BF92B6
:10127000CF92DF92EF92FF920F931F93CF93DF9362
:10128000CDB7DEB7E8970FB6F894DEBF0FBECDBF7F
:1012900029833A834B835C836D837E838F83988716
:1012A000170161964CAC5DAC6EAC7FAC6197298147
:1012B0003A81388F2F8B4B815C815E8B4D8B8D807B
:1012C0009E80EF80F884C9010197029788F4D7FACD
:1012D000D094D7F8D09469968CAD9DADAEADBFAD2E
:1012E0006997B05869968CAF9DAFAEAFBFAF6997A5
:1012F0008F89988D0397029788F477FA709477F81E
:1013000070946D962CAD3DAD4EAD5FAD6D97505860
:101310006D962CAF3DAF4EAF5FAF6D97B80188278C
:1013200077FD8095982F0E94742669877A878B872E
:101330009C87A601950169966CAD7DAD8EAD9FAD84
:1013400069970E94122529853A854B855C850E9404
:10135000D9256DA77EA78FA798ABA30192016D96A3
:101360006CAD7DAD8EAD9FAD6D970E941225298528
:101370003A854B855C850E94D92569AB7AAB8BABEE
:101380009CAB65962CAD3DAD4EAD5FAD6597A1961E
:101390006CAD7DAD8EAD9FADA1970E9412252985C4
:1013A0003A854B855C850E94D9256DAB7EAB8FABB2
:1013B00098AFA101400F511F5CA74BA7241635061B
:1013C0000CF0E3C224E1AD89BE892A9FC0012B9FA6
:1013D000900D1124820D931D880F991F880F991F5E
:1013E000FC01E75AFA4FFCA3EBA3289DC001299DFD
:1013F000900D1124820D931D880F991F880F991F3E
:10140000AC01475A5A4F5AA349A32E9DC0012F9DA4
:10141000900D1124820D931D880F991F880F991F1D
:10142000DC01A75ABA4FBEA3ADA38101000F111F63
:10143000000F111F0D561E4F3E8A2D8A1801A986D6
:10144000BA86CB86DC864D865E866F86788A2DA529
:101450003EA54FA558A969857A858B859C850E94F4
:10146000132569877A878B879C8729A93AA94BA975
:101470005CA96D857E858F8598890E9413256D876F
:101480007E878F87988B2DA93EA94FA958AD659669
:101490006CAD7DAD8EAD9FAD65970E9413256596B1
:1014A0006CAF7DAF8EAF9FAF65972D853E854F8525
:1014B000588969857A858B859C850E94862520E0E0
:1014C00030E044E353E40E94472728ED3FE049E43D
:1014D00050E40E94D9250E9441266FA378A789A7CE
:1014E0009AA765962CAD3DAD4EAD5FAD6597CA012F
:1014F000B9010E944727698B7A8B8B8B9C8B29853E
:101500003A854B855C85CA01B9010E9447276B016A
:101510007C012D853E854F855889CA01B9010E94FD
:1015200047279B01AC01C701B6010E941325698FB3
:101530007A8F8B8F9C8F0E94AE2720E030E048E4AA
:1015400052E40E9412256B017C019B01AC010E94B8
:1015500047276D8F7E8F8F8F98A39B01AC01698980
:101560007A898B899C890E9413254B015C010E941A
:10157000AE279B01AC0165966CAD7DAD8EAD9FAD88
:10158000659790580E94D9250E9404252B013C01A3
:1015900020E030E048E452E4698D7A8D8B8D9C8D9B
:1015A0000E9412250E94AE279B01AC01C701B60123
:1015B0000E9447279B01AC0169897A898B899C89A4
:1015C0000E9413250E94AE276B017C0120E038E4C5
:1015D0004CE855E4C501B4010E94132520E038E031
:1015E00044E856E40E9412254B015C01A7019601D4
:1015F000C701B6010E94132520E030E046E852E41E
:101600000E9447279B01AC01C501B4010E94D92566
:101610000E9404259B01AC01C301B2010E94132565
:1016200024EE3EE245E652E40E9447270E9441260E
:101630006B017C0129893A894B895C8960E07AE1F8
:1016400087EA96E40E9412252D8D3E8D4F8D58A17C
:101650000E94122520E038E148E856E40E94D9258E
:101660000E94042520E030E044E353E40E94472731
:1016700028ED3FE049E450E40E94D9250E9441262C
:10168000EF89F88DE230F10509F45FC01CF4319761
:1016900061F05CC12F89388D2330310509F4A7C072
:1016A0002430310509F4FBC051C10FA118A529A5AB
:1016B0003AA507591F4F2F4F3F4FABA1BCA10D9328
:1016C0001D932D933C931397BBE4CB0ED11CE11CCF
:1016D000F11CE9A1FAA1C082D182E282F382DC018D
:1016E000CB010196A11DB11DEDA1FEA180839183C7
:1016F000A283B38369857A858B859C850E94412668
:10170000D1016D937D938D939C9313978101005B21
:101710001F4F6D857E858F8598890E944126F8012F
:101720006083718382839383005B1F4F65966CADEA
:101730007DAD8EAD9FAD65970E944126D8016D931A
:101740007D938D939C93139701C10FA118A529A593
:101750003AA50F531F4F2F4F3F4FEBA1FCA1008322
:10176000118322833383FBE4CF0ED11CE11CF11CD7
:10177000A9A1BAA1CD92DD92ED92FC921397DC0162
:10178000CB010396A11DB11DEDA1FEA18083918324
:10179000A283B383810100511F4F69857A858B85B0
:1017A0009C850E944126D8016D937D938D939C93D7
:1017B0001397005B1F4F6D857E858F8598890E94EA
:1017C0004126F8016083718382839383005B1F4FFE
:1017D00065966CAD7DAD8EAD9FAD65970E9441263F
:1017E000D8016D937D938D939C931397AFC00FA1F8
:1017F00018A529A53AA50D531F4F2F4F3F4FEBA119
:10180000FCA1008311832283338301EE10E020E0EA
:1018100030E00C191D092E093F09A9A1BAA10D93A9
:101820001D932D933C9313972CE231E040E050E060
:10183000261B370B480B590BEDA1FEA120833183EA
:1018400042835383810100521E4F69857A858B85BF
:101850009C850E944126D8016D937D938D939C9326
:101860001397005B1F4F6D857E858F8598890E9439
:101870004126F8016083718382839383005B1F4F4D
:1018800065966CAD7DAD8EAD9FAD65970E9441268E
:10189000D8016D937D938D939C93139757C00FA19F
:1018A00018A529A53AA507591F4F2F4F3F4FEBA168
:1018B000FCA1008311832283338301EE10E020E03A
:1018C00030E00C191D092E093F09A9A1BAA10D93F9
:1018D0001D932D933C9313972CE231E040E050E0B0
:1018E000261B370B480B590BEDA1FEA1208331833A
:1018F00042835383810100531D4F69857A858B850F
:101900009C850E944126D8016D937D938D939C9375
:101910001397005B1F4F6D857E858F8598890E9488
:101920004126F8016083718382839383005B1F4F9C
:1019300065966CAD7DAD8EAD9FAD65970E944126DD
:10194000D8016D937D938D939C931397ED89FE89B8
:101950003196FE8BED8B2BA13CA12C5F3F4F3CA31E
:101960002BA349A15AA14C5F5F4F5AA349A38DA154
:101970009EA104969EA38DA394E0290E311CABA5D5
:10198000BCA5EA17FB0709F062CDE8960FB6F894FC
:10199000DEBF0FBECDBFDF91CF911F910F91FF90A2
:1019A000EF90DF90CF90BF90AF909F908F907F90FF
:1019B0006F905F904F903F902F9008952F923F929D
:1019C0004F925F926F927F928F929F92AF92BF924F
:1019D000CF92DF92EF92FF920F931F93CF93DF93FB
:1019E000CDB7DEB7CE54D1090FB6F894DEBF0FBE27
:1019F000CDBF29833A834B835C836D837E838F8342
:101A0000988729961FAF0EAF2997F8AEEFAAAB962D
:101A10004CAC5DAC6EAC7FACAB9729803A802B812F
:101A20003C812B963FAF2EAF2B974D815E812D963B
:101A30005FAF4EAF2D978F8198852F969FAF8EAF5A
:101A40002F97112314F40F5F1F4F15950795AFA91A
:101A5000B8ADA00FB11FBEA7ADA71197BEAFADAF78
:101A6000C1010197029788F4D7FAD094D7F8D0949F
:101A7000AF962CAD3DAD4EAD5FADAF975058AF9624
:101A80002CAF3DAF4EAF5FAFAF97C1010397029749
:101A9000D0F4A7968CAD9DADAEADBFADA797B058B5
:101AA000A7968CAF9DAFAEAFBFAFA797E3962CAD17
:101AB0003DAD4EAD5FADE3975058E3962CAF3DAFD3
:101AC0004EAF5FAFE39729964EAD5FAD2997BA0150
:101AD000882777FD8095982F0E94742669877A87DA
:101AE0008B879C87A6019501AF966CAD7DAD8EADC1
:101AF0009FADAF970E94122529853A854B855C855D
:101B00000E94D9256FA778AB89AB9AABA7962CAD6D
:101B10003DAD4EAD5FADA797E3966CAD7DAD8EAD9F
:101B20009FADE3970E94122529853A854B855C85F8
:101B30000E94D9256BAB7CAB8DAB9EAB6091310124
:101B400070913201882777FD8095982F0E94742626
:101B500069877A878B879C87B801882777FD80956E
:101B6000982F0E9474266D877E878F87988BE796C3
:101B70002CAD3DAD4EAD5FADE79769857A858B8520
:101B80009C850E941325A30192010E9412252D8598
:101B90003E854F8558890E94D92523966CAF7DAF2D
:101BA0008EAF9FAF2397A3019201E7966CAD7DADF9
:101BB0008EAD9FADE7970E94122529853A854B850A
:101BC0005C850E9412252D853E854F8558890E948F
:101BD000D92527966CAF7DAF8EAF9FAF27978FA982
:101BE00098ADADADBEADA817B9070CF4FFC224E1A6
:101BF0002B96EEADFFAD2B972E9FC0012F9F900D22
:101C000011244FA958AD840F951F880F991F880F75
:101C1000991FDC01A75ABA4FBEA3ADA32D96EEAD16
:101C2000FFAD2D972E9FC0012F9F900D1124840F83
:101C3000951F880F991F880F991FAC01475A5A4F5B
:101C400058A74FA32F96AEADBFAD2F972A9FC001C7
:101C50002B9F900D1124EFA9F8AD8E0F9F1F880FB9
:101C6000991F880F991F9C01275A3A4F3AA729A715
:101C70008F01000F111F000F111F0D561E4FFE8BFD
:101C8000ED8B3A8E298E1801A986BA86CB86DC8622
:101C90004D865E866F86788A2FA538A949A95AA9EC
:101CA00069857A858B859C850E94132569877A874B
:101CB0008B879C872BA93CA94DA95EA9A7966CADE3
:101CC0007DAD8EAD9FADA7970E941325A7966CAFF3
:101CD0007DAF8EAF9FAFA79723962CAD3DAD4EAD98
:101CE0005FAD23976D857E858F8598890E9413252A
:101CF0006D877E878F87988BA7962CAD3DAD4EADB7
:101D00005FADA79769857A858B859C850E9486251E
:101D100020E030E044E353E40E94472728ED3FE011
:101D200049E450E40E94D9250E94412669AF7AAF68
:101D30008BAF9CAF2D853E854F855889CA01B9016F
:101D40000E944727698B7A8B8B8B9C8B29853A85E0
:101D50004B855C85CA01B9010E9447276B017C0154
:101D6000A7962CAD3DAD4EAD5FADA797CA01B901A9
:101D70000E9447279B01AC01C701B6010E941325B1
:101D80006D8F7E8F8F8F98A30E94AE2720E030E06A
:101D900048E452E40E9412256B017C019B01AC01D6
:101DA0000E94472769A37AA38BA39CA39B01AC0144
:101DB00069897A898B899C890E9413254B015C0172
:101DC0000E94AE279B01AC016D857E858F85988929
:101DD00090580E94D9250E9404252B013C0120E047
:101DE00030E048E452E46D8D7E8D8F8D98A10E9485
:101DF00012250E94AE279B01AC01C701B6010E94CB
:101E000047279B01AC0169897A898B899C890E944B
:101E100013250E94AE276B017C0120E038E44CE8DA
:101E200055E4C501B4010E94132520E038E044E8E0
:101E300056E40E9412254B015C01A7019601C701DF
:101E4000B6010E94132520E030E046E852E40E94EB
:101E500047279B01AC01C501B4010E94D9250E940E
:101E600004259B01AC01C301B2010E94132524EE9D
:101E70003EE245E652E40E9447270E9441266B015C
:101E80007C0129893A894B895C8960E07AE187EA9B
:101E900096E40E94122529A13AA14BA15CA10E94BF
:101EA000122520E038E148E856E40E94D9250E9436
:101EB000042520E030E044E353E40E94472728ED66
:101EC0003FE049E450E40E94D9250E944126498D13
:101ED0005A8D4230510509F45FC024F44130510558
:101EE00059F05BC1A98DBA8DA330B10509F4A6C024
:101EF000149709F4FBC051C109AD1AAD2BAD3CAD2F
:101F000007591F4F2F4F3F4FEDA1FEA100831183B3
:101F100022833383FBE4CF0ED11CE11CF11CAFA163
:101F2000B8A5CD92DD92ED92FC921397DC01CB0126
:101F30000196A11DB11DE9A5FAA580839183A28315
:101F4000B38369857A858B859C850E944126D10162
:101F50006D937D938D939C9313978101005B1F4F2D
:101F6000A7966CAD7DAD8EAD9FADA7970E94412623
:101F7000F8016083718382839383005B1F4F6D85BB
:101F80007E858F8598890E944126D8016D937D9327
:101F90008D939C93139701C109AD1AAD2BAD3CAD48
:101FA0000F531F4F2F4F3F4FEDA1FEA10083118311
:101FB00022833383FBE4CF0ED11CE11CF11CAFA1C3
:101FC000B8A5CD92DD92ED92FC921397DC01CB0186
:101FD0000396A11DB11DE9A5FAA580839183A28373
:101FE000B383810100511F4F69857A858B859C855C
:101FF0000E944126D8016D937D938D939C931397F6
:10200000005B1F4FA7966CAD7DAD8EAD9FADA797C2
:102010000E944126F8016083718382839383005B71
:102020001F4F6D857E858F8598890E944126D80136
:102030006D937D938D939C931397AFC009AD1AADAB
:102040002BAD3CAD0D531F4F2F4F3F4FEDA1FEA1C8
:10205000008311832283338301EE10E020E030E01F
:102060000C191D092E093F09AFA1B8A50D931D93A9
:102070002D933C9313972CE231E040E050E0261B77
:10208000370B480B590BE9A5FAA52083318342830E
:102090005383810100521E4F69857A858B859C850B
:1020A0000E944126D8016D937D938D939C93139745
:1020B000005B1F4FA7966CAD7DAD8EAD9FADA79712
:1020C0000E944126F8016083718382839383005BC1
:1020D0001F4F6D857E858F8598890E944126D80186
:1020E0006D937D938D939C93139757C009AD1AAD53
:1020F0002BAD3CAD07591F4F2F4F3F4FEDA1FEA118
:10210000008311832283338301EE10E020E030E06E
:102110000C191D092E093F09AFA1B8A50D931D93F8
:102120002D933C9313972CE231E040E050E0261BC6
:10213000370B480B590BE9A5FAA52083318342835D
:102140005383810100531D4F69857A858B859C855A
:102150000E944126D8016D937D938D939C93139794
:10216000005B1F4FA7966CAD7DAD8EAD9FADA79761
:102170000E944126F8016083718382839383005B10
:102180001F4F6D857E858F8598890E944126D801D5
:102190006D937D938D939C931397ED89FE89319672
:1021A000FE8BED8B2DA13EA12C5F3F4F3EA32DA3B7
:1021B0004FA158A54C5F5F4F58A74FA389A59AA57B
:1021C00004969AA789A794E0290E311CADADBEAD47
:1021D000AE17BF070CF060CD298C3A8CA984BA8465
:1021E000CB84DC844D845E846F847888EFA9F8AD5D
:1021F00029962EAD3FAD2997E20FF31FF8AFEFAB55
:102200004DA55EA54E175F070CF0F3C224E12B9697
:10221000AEADBFAD2B972A9FC0012B9F900D11240F
:10222000840F951F880F991F880F991FFC01E75A8B
:10223000FA4F4F012D964EAD5FAD2D97249FC001F3
:10224000259F900D1124ADA5BEA58A0F9B1F880F59
:10225000991F880F991FFC01E75AFA4FFAA3E9A3C7
:102260002F964EAD5FAD2F97249FC001259F900DF7
:1022700011248A0F9B1F880F991F880F991FDC015B
:10228000A75ABA4FBEA3ADA30DA51EA5000F111FDF
:10229000000F111F0D561E4F3E8E2D8E180198A651
:1022A0008FA2A986BA86CB86DC864D865E866F862F
:1022B000788A2FA538A949A95AA969857A858B8575
:1022C0009C850E94132569877A878B879C872BA919
:1022D0003CA94DA95EA9A7966CAD7DAD8EAD9FAD15
:1022E000A7970E941325A7966CAF7DAF8EAF9FAFC7
:1022F000A79727962CAD3DAD4EAD5FAD27976D8569
:102300007E858F8598890E9413256D877E878F87AC
:10231000988BA7962CAD3DAD4EAD5FADA797698567
:102320007A858B859C850E94862520E030E044E3F9
:1023300053E40E94472728ED3FE049E450E40E941F
:10234000D9250E94412669A77AA78BA79CA72D852E
:102350003E854F855889CA01B9010E944727698B7C
:102360007A8B8B8B9C8B29853A854B855C85CA0142
:10237000B9010E9447276B017C01A7962CAD3DADAA
:102380004EAD5FADA797CA01B9010E9447279B01D7
:10239000AC01C701B6010E9413256D8B7E8B8F8B1C
:1023A000988F0E94AE2720E030E048E452E40E947B
:1023B00012256B017C019B01AC010E944727698FAC
:1023C0007A8F8B8F9C8F9B01AC0169897A898B896D
:1023D0009C890E9413254B015C010E94AE279B0142
:1023E000AC016D857E858F85988990580E94D9258E
:1023F0000E9404252B013C0120E030E048E452E437
:102400006D897E898F89988D0E9412250E94AE2742
:102410009B01AC01C701B6010E9447279B01AC019B
:1024200069897A898B899C890E9413250E94AE272D
:102430006B017C0120E038E44CE855E4C501B401AF
:102440000E94132520E038E044E856E40E9412255B
:102450004B015C01A7019601C701B6010E9413253B
:1024600020E030E046E852E40E9447279B01AC019F
:10247000C501B4010E94D9250E9404259B01AC012D
:10248000C301B2010E94132524EE3EE245E652E468
:102490000E9447270E9441266B017C0129893A89C5
:1024A0004B895C8960E07AE187EA96E40E94122514
:1024B000298D3A8D4B8D5C8D0E94122520E038E1EC
:1024C00048E856E40E94D9250E94042520E030E027
:1024D00044E353E40E94472728ED3FE049E450E4F9
:1024E0000E94D9250E944126ED8DFE8DE230F10536
:1024F00009F45FC01CF4319761F05CC12D8D3E8DF5
:102500002330310509F4A7C02430310509F4FBC09C
:1025100051C109A51AA52BA53CA507591F4F2F4F3F
:102520003F4FAFA1B8A50D931D932D933C931397E7
:10253000BBE4CB0ED11CE11CF11CE9A1FAA1C082C5
:10254000D182E282F382DC01CB010196A11DB11D93
:10255000EDA1FEA180839183A283B38369857A85EF
:102560008B859C850E944126D1016D937D938D932F
:102570009C9313978101005B1F4FA7966CAD7DADB7
:102580008EAD9FADA7970E944126F80160837183AD
:1025900082839383005B1F4F6D857E858F8598892D
:1025A0000E944126D8016D937D938D939C93139740
:1025B00001C109A51AA52BA53CA50F531F4F2F4FED
:1025C0003F4FEFA1F8A50083118322833383FBE4FF
:1025D000CF0ED11CE11CF11CA9A1BAA1CD92DD92B4
:1025E000ED92FC921397DC01CB010396A11DB11D66
:1025F000EDA1FEA180839183A283B3838101005169
:102600001F4F69857A858B859C850E944126D8015C
:102610006D937D938D939C931397005B1F4FA796AB
:102620006CAD7DAD8EAD9FADA7970E944126F801A0
:102630006083718382839383005B1F4F6D857E85EA
:102640008F8598890E944126D8016D937D938D9343
:102650009C931397AFC009A51AA52BA53CA50D53B4
:102660001F4F2F4F3F4FEFA1F8A500831183228307
:10267000338301EE10E020E030E00C191D092E0933
:102680003F09A9A1BAA10D931D932D933C931397D4
:102690002CE231E040E050E0261B370B480B590B91
:1026A000EDA1FEA120833183428353838101005237
:1026B0001E4F69857A858B859C850E944126D801AD
:1026C0006D937D938D939C931397005B1F4FA796FB
:1026D0006CAD7DAD8EAD9FADA7970E944126F801F0
:1026E0006083718382839383005B1F4F6D857E853A
:1026F0008F8598890E944126D8016D937D938D9393
:102700009C93139757C009A51AA52BA53CA507595B
:102710001F4F2F4F3F4FEFA1F8A500831183228356
:10272000338301EE10E020E030E00C191D092E0982
:102730003F09A9A1BAA10D931D932D933C93139723
:102740002CE231E040E050E0261B370B480B590BE0
:10275000EDA1FEA120833183428353838101005385
:102760001D4F69857A858B859C850E944126D801FD
:102770006D937D938D939C931397005B1F4FA7964A
:102780006CAD7DAD8EAD9FADA7970E944126F8013F
:102790006083718382839383005B1F4F6D857E8589
:1027A0008F8598890E944126D8016D937D938D93E2
:1027B0009C931397EDA5FEA53196FEA7EDA72FA13B
:1027C00038A52C5F3F4F38A72FA349A15AA14C5FD2
:1027D0005F4F5AA349A38DA19EA104969EA38DA3EA
:1027E00094E0290E311CAFA9B8ADEA17FB0709F038
:1027F00060CDC25BDF4F0FB6F894DEBF0FBECDBF1A
:10280000DF91CF911F910F91FF90EF90DF90CF90CC
:10281000BF90AF909F908F907F906F905F904F9000
:102820003F902F9008954F925F926F927F928F9278
:102830009F92AF92BF92CF92DF92EF92FF920F934F
:102840001F93CF93DF93CDB7DEB728970FB6F894D9
:10285000DEBF0FBECDBF4B835C836D837E838F83D2
:102860009887EB80FC808D809E80AF80B88424E1C7
:102870002E9DC0012F9D900D1124E0912201F09119
:102880002301E80FF91FEE0FFF1FEE0FFF1FE75A9E
:10289000FA4F4080518062807380E0913E01F09158
:1028A0003F018E0F9F1FFC01EE0FFF1FEE0FFF1F5A
:1028B000E75AFA4F8081918184199509BC0122F46D
:1028C00066277727681B790B882777FD8095982FD7
:1028D0000E9472028B019C01B301A201C7010E94F8
:1028E000AA0224E1289DC001299D900D1124E091A8
:1028F0002201F0912301E80FF91FEE0FFF1FEE0FE9
:10290000FF1FE75AFA4FC080D180E280F380E09148
:102910003E01F0913F018E0F9F1FFC01EE0FFF1F44
:10292000EE0FFF1FE75AFA4F808191818C199D09A4
:10293000BC0122F466277727681B790B882777FD6F
:102940008095982F0E9472028B019C01B701A6010D
:10295000C4010E94AA0224E12A9DC0012B9D900D72
:102960001124E0912201F0912301E80FF91FEE0FED
:10297000FF1FEE0FFF1FE75AFA4FC080D180E280A1
:10298000F380E0913E01F0913F018E0F9F1FFC010B
:10299000EE0FFF1FEE0FFF1FE75AFA4F8081918164
:1029A0008C199D09BC0122F466277727681B790BD7
:1029B000882777FD8095982F0E9472028B019C01D9
:1029C000B701A601C5010E94AA0228960FB6F89485
:1029D000DEBF0FBECDBFDF91CF911F910F91FF9052
:1029E000EF90DF90CF90BF90AF909F908F907F90AF
:1029F0006F905F904F9008952091180130911901C8
:102A000040911A0150911B0160911C0170911D01B0
:102A100080911E0190911F0106DF209110013091DD
:102A200011014091120150911301609114017091B4
:102A300015018091160190911701F5DE2091080192
:102A40003091090140910A0150910B0160910C01F4
:102A500070910D0180910E0190910F01E4DE2091A3
:102A600000013091010140910201509103016091F8
:102A70000401709105018091060190910701D3DE58
:102A80000C94030908951F920F920FB60F92112410
:102A90000BB60F922F933F934F935F936F937F9358
:102AA0008F939F93AF93BF93EF93FF9312B884E4F8
:102AB0000E949A0084E082B98091420190E0909354
:102AC00041018093400181E090E090933D0180932B
:102AD0003C01FF91EF91BF91AF919F918F917F91B9
:102AE0006F915F914F913F912F910F900BBE0F907F
:102AF0000FBE0F901F9018951F920F920FB60F9256
:102B000011248F939F9381E090E090933D018093F7
:102B10003C0180912A01823069F018F4813031F053
:102B200014C0833059F0843069F00FC082E0809384
:102B30002A010BC083E080932A0107C084E08093C0
:102B40002A0103C081E080932A019F918F910F9009
:102B50000FBE0F901F9018951092540510925305B8
:102B6000109256051092550510925805109257056F
:102B700008952F923F924F925F926F927F928F9221
:102B80009F92AF92BF92CF92DF92EF92FF920F93FC
:102B90001F93CF93DF9300D000D0CDB7DEB79C0159
:102BA000992314F42F5F3F4FA901559547955C83F6
:102BB0004B8301979093210180932001CDDF809179
:102BC0005305909154052091390130913A0140907C
:102BD000550550905605420E531E60905705709053
:102BE0005805620E731E10923D0110923C01209117
:102BF0002A01223009F497C320F4213059F00C94B3
:102C0000E923233009F416C7243011F40C948920E9
:102C10000C94E9239201552014F42F5F3F4F2901B2
:102C20005594479400913501109136014C01992338
:102C30001CF45FEF851A950A9594879420903701CC
:102C4000309038016091330170913401882777FD0D
:102C50008095982F0E94742669837A83E82EF92E36
:102C6000662777276219730968197909882777FD1C
:102C70008095982F0E9474265B016C01FF92EF9261
:102C80008A818F9399819F93B201600F711F88276A
:102C900077FD8095982F0E9474269F938F937F9342
:102CA0006F93B40162197309882777FD8095982F77
:102CB0000E9474269F938F937F936F93FF92EF925E
:102CC000EA81EF93F981FF93B801641975098827A8
:102CD00077FD8095982F0E9474269F938F937F9302
:102CE0006F93E12CF12C0B811C8120911801309104
:102CF000190140911A0150911B0160911C017091C2
:102D00001D0180911E0190911F010E94DE0C2090F8
:102D100035013090360100913701109138016091F2
:102D2000330170913401882777FD8095982F0E9498
:102D3000742669837A83E82EF92EB401601B710B27
:102D4000882777FD8095982F0E9474265B016C017F
:102D5000FF92EF922A812F9339813F93B101641939
:102D60007509882777FD8095982F0E9474269F9378
:102D70008F937F936F9366277727601B710B68197A
:102D80007909882777FD8095982F0E9474269F9354
:102D90008F937F936F93FF92EF924A814F93598164
:102DA0005F93B201620D731D882777FD8095982F80
:102DB0000E9474269F938F937F936F93EB80FC8088
:102DC0008701209118013091190140911A01509109
:102DD0001B0160911C0170911D0180911E01909159
:102DE0001F010E942E09C3010FB6F894DEBF0FBE6B
:102DF000CDBF99230CF401963C0175946794209003
:102E00003501309036010091370110913801609101
:102E1000330170913401882777FD8095982F0E94A7
:102E2000742669837A83E82EF92EB8016819790926
:102E3000882777FD8095982F0E9474265B016C018E
:102E4000FF92EF92FA81FF9329812F93B3016219C8
:102E50007309882777FD8095982F0E9474269F9389
:102E60008F937F936F93080D191DB801882777FD05
:102E70008095982F0E9474269F938F937F936F93D2
:102E8000FF92EF923A813F9349814F9366277727CC
:102E90006219730966197709882777FD8095982F3D
:102EA0000E9474269F938F937F936F93E12CF12C54
:102EB0000B811C81209100013091010140910201A0
:102EC0005091030160910401709105018091060108
:102ED000909107010E94DE0C209035013090360160
:102EE00000913701109138016091330170913401E4
:102EF000882777FD8095982F0E94742669837A83AE
:102F0000E82EF92EB401600F711F882777FD809598
:102F1000982F0E9474265B016C01FF92EF925A81F8
:102F20005F9389818F9366277727621973096619E2
:102F30007709882777FD8095982F0E9474269F93A4
:102F40008F937F936F9308191909B801882777FD2C
:102F50008095982F0E9474269F938F937F936F93F1
:102F6000FF92EF929A819F93E981EF93B3016219E7
:102F70007309882777FD8095982F0E9474269F9368
:102F80008F937F936F93EB80FC80870120910001EA
:102F900030910101409102015091030160910401BF
:102FA0007091050180910601909107010E942E0900
:102FB0002090350130903601009137011091380191
:102FC0006091330170913401882777FD8095982FA7
:102FD0000E94742669837A83E82EF92E0FB6F8943E
:102FE000DEBF0FBECDBFB401601B710B882777FD1C
:102FF0008095982F0E9474265B016C01FF92EF92DE
:103000003A813F9349814F93662777276219730965
:1030100064197509882777FD8095982F0E9474267A
:103020009F938F937F936F9366277727601B710B16
:1030300068197909882777FD8095982F0E94742652
:103040009F938F937F936F93FF92EF925A815F9339
:1030500089818F93B20162197309882777FD809562
:10306000982F0E9474269F938F937F936F93E12CE8
:10307000F12C0B811C8120910801309109014091B4
:103080000A0150910B0160910C0170910D0180912A
:103090000E0190910F010E942E0920903501309071
:1030A0003601009137011091380160913301709120
:1030B0003401882777FD8095982F0E9474266983B4
:1030C0007A83E82EF92E66277727601B710B681923
:1030D0007909882777FD8095982F0E9474265B01D7
:1030E0006C01FF92EF929A819F93E981EF93B20175
:1030F00062197309882777FD8095982F0E9474269E
:103100009F938F937F936F93B401601B710B8827FC
:1031100077FD8095982F0E9474269F938F937F93BD
:103120006F93FF92EF92FA81FF9329812F93662785
:1031300077276219730964197509882777FD8095C7
:10314000982F0E9474269F938F937F936F93EB80A9
:10315000FC808701209108013091090140910A010A
:1031600050910B0160910C0170910D0180910E0145
:1031700090910F010E94DE0C409035015090360175
:103180000091370110913801609133017091340141
:10319000882777FD8095982F0E947426262E372E3B
:1031A000F82EE92E0FB6F894DEBF0FBECDBFB401E6
:1031B000600F711F882777FD8095982F0E947426D5
:1031C0005B016C01EF92FF923F922F92B201661960
:1031D0007709882777FD8095982F0E9474269F9302
:1031E0008F937F936F93B80168197909882777FDCA
:1031F0008095982F0E9474269F938F937F936F934F
:10320000EF92FF923F922F92B301640D751D8827B4
:1032100077FD8095982F0E9474269F938F937F93BC
:103220006F93E12CF12C0B811C81209110013091C6
:10323000110140911201509113016091140170919C
:10324000150180911601909117010E942E0940905E
:10325000350150903601009137011091380160918D
:10326000330170913401882777FD8095982F0E9453
:103270007426262E372EF82EE92EB8016819790902
:10328000882777FD8095982F0E9474265B016C013A
:10329000EF92FF923F922F92B301640D751D882724
:1032A00077FD8095982F0E9474269F938F937F932C
:1032B0006F93B401600F711F882777FD8095982F59
:1032C0000E9474269F938F937F936F93EF92FF9248
:1032D0003F922F92B20166197709882777FD809572
:1032E000982F0E9474269F938F937F936F93EB8008
:1032F000FC80870120911001309111014091120151
:103300005091130160911401709115018091160183
:10331000909117010E94DE0C0FB6F894DEBF0FBE2D
:10332000CDBF0C94E92320903501309036014C013B
:1033300099231CF4EFEF8E1A9E0A95948794C2018C
:1033400099230CF401962C01559447940091370170
:10335000109138016091330170913401882777FD15
:103360008095982F0E94742669837A83E82EF92E1F
:1033700066277727601B710B64197509882777FD0D
:103380008095982F0E9474265B016C01FF92EF924A
:10339000FA81FF9329812F93B10168197909882750
:1033A00077FD8095982F0E9474269F938F937F932B
:1033B0006F93B201601B710B882777FD8095982F62
:1033C0000E9474269F938F937F936F93FF92EF9247
:1033D0003A813F9349814F93B101680D791D882748
:1033E00077FD8095982F0E9474269F938F937F93EB
:1033F0006F93E12CF12C0B811C81209118013091ED
:10340000190140911A0150911B0160911C017091AA
:103410001D0180911E0190911F010E94DE0C2090E1
:1034200035013090360100913701109138016091DB
:10343000330170913401882777FD8095982F0E9481
:10344000742669837A83E82EF92EB201601B710B12
:10345000882777FD8095982F0E9474265B016C0168
:10346000FF92EF925A815F9389818F93B401620D2D
:10347000731D882777FD8095982F0E9474269F934F
:103480008F937F936F9366277727601B710B641967
:103490007509882777FD8095982F0E9474269F9341
:1034A0008F937F936F93FF92EF929A819F93E9811D
:1034B000EF93B10168197909882777FD8095982FD6
:1034C0000E9474269F938F937F936F93EB80FC8071
:1034D0008701209118013091190140911A015091F2
:1034E0001B0160911C0170911D0180911E01909142
:1034F0001F010E942E092090350130903601C30132
:103500000FB6F894DEBF0FBECDBF99230CF4019621
:103510003C017594679400913701109138016091D6
:10352000330170913401882777FD8095982F0E9490
:10353000742669837A83E82EF92EB8016619770913
:10354000882777FD8095982F0E9474265B016C0177
:10355000FF92EF923A813F9349814F9366277727F5
:103560006219730968197909882777FD8095982F62
:103570000E9474269F938F937F936F93060D171D60
:10358000B801882777FD8095982F0E9474269F9315
:103590008F937F936F93FF92EF925A815F9389810C
:1035A0008F93B40162197309882777FD8095982F4E
:1035B0000E9474269F938F937F936F93E12CF12C3D
:1035C0000B811C8120910001309101014091020189
:1035D00050910301609104017091050180910601F1
:1035E000909107010E94DE0C209035013090360149
:1035F00000913701109138016091330170913401CD
:10360000882777FD8095982F0E94742669837A8396
:10361000E82EF92EB301600F711F882777FD809582
:10362000982F0E9474265B016C01FF92EF929A81A1
:103630009F93E981EF93B40162197309882777FD9D
:103640008095982F0E9474269F938F937F936F93FA
:1036500006191709B801882777FD8095982F0E94D1
:1036600074269F938F937F936F93FF92EF92FA81CB
:10367000FF9329812F9366277727621973096819A9
:103680007909882777FD8095982F0E9474269F934B
:103690008F937F936F93EB80FC80870120910001D3
:1036A00030910101409102015091030160910401A8
:1036B0007091050180910601909107010E942E09E9
:1036C000209035013090360100913701109138017A
:1036D0006091330170913401882777FD8095982F90
:1036E0000E94742669837A83E82EF92E0FB6F89427
:1036F000DEBF0FBECDBFB301601B710B882777FD06
:103700008095982F0E9474265B016C01FF92EF92C6
:103710005A815F9389818F93B40162197309882755
:1037200077FD8095982F0E9474269F938F937F93A7
:103730006F9366277727601B710B661977098827B7
:1037400077FD8095982F0E9474269F938F937F9387
:103750006F93FF92EF929A819F93E981EF9366278F
:1037600077276219730968197909882777FD809589
:10377000982F0E9474269F938F937F936F93E12CD1
:10378000F12C0B811C81209108013091090140919D
:103790000A0150910B0160910C0170910D01809113
:1037A0000E0190910F010E942E092090350130905A
:1037B0003601009137011091380160913301709109
:1037C0003401882777FD8095982F0E94742669839D
:1037D0007A83E82EF92E66277727601B710B66190E
:1037E0007709882777FD8095982F0E9474265B01C2
:1037F0006C01FF92EF92FA81FF9329812F93662744
:1038000077276219730968197909882777FD8095E8
:10381000982F0E9474269F938F937F936F93B30189
:10382000601B710B882777FD8095982F0E94742666
:103830009F938F937F936F93FF92EF923A813F9381
:1038400049814F93B40162197309882777FD8095E8
:10385000982F0E9474269F938F937F936F93EB8092
:10386000FC808701209108013091090140910A01F3
:1038700050910B0160910C0170910D0180910E012E
:1038800090910F010E94DE0C60903501709036011E
:10389000009137011091380160913301709134012A
:1038A000882777FD8095982F0E947426262E372E24
:1038B000F82EE92E0FB6F894DEBF0FBECDBFB201D1
:1038C000600F711F882777FD8095982F0E947426BE
:1038D0005B016C01EF92FF923F922F92B401660D53
:1038E000771D882777FD8095982F0E9474269F93D7
:1038F0008F937F936F93B80164197509882777FDBB
:103900008095982F0E9474269F938F937F936F9337
:10391000EF92FF923F922F92B3016819790988279D
:1039200077FD8095982F0E9474269F938F937F93A5
:103930006F93E12CF12C0B811C81209110013091AF
:103940001101409112015091130160911401709185
:10395000150180911601909117010E942E09609027
:103960003501709036010091370110913801609156
:10397000330170913401882777FD8095982F0E943C
:103980007426262E372EF82EE92EB80164197509F3
:10399000882777FD8095982F0E9474265B016C0123
:1039A000EF92FF923F922F92B3016819790988270D
:1039B00077FD8095982F0E9474269F938F937F9315
:1039C0006F93B201600F711F882777FD8095982F44
:1039D0000E9474269F938F937F936F93EF92FF9231
:1039E0003F922F92B401660D771D882777FD809551
:1039F000982F0E9474269F938F937F936F93EB80F1
:103A0000FC80870120911001309111014091120139
:103A1000509113016091140170911501809116016C
:103A2000909117010E94DE0C0FB6F894DEBF0FBE16
:103A3000CDBFCFC62090350130903601930177205D
:103A400014F42F5F3F4F390175946794009137014B
:103A5000109138014C0199231CF4FFEF8F1A9F0A33
:103A6000959487946091330170913401882777FD94
:103A70008095982F0E94742669837A83E82EF92E08
:103A8000B401601B710B882777FD8095982F0E94E9
:103A900074265B016C01FF92EF922A812F9339818A
:103AA0003F93B10166197709882777FD8095982F94
:103AB0000E9474269F938F937F936F936627772737
:103AC000601B710B68197909882777FD8095982FFD
:103AD0000E9474269F938F937F936F93FF92EF9230
:103AE0004A814F9359815F93B101660D771D8827F5
:103AF00077FD8095982F0E9474269F938F937F93D4
:103B00006F93E12CF12C0B811C81209118013091D5
:103B1000190140911A0150911B0160911C01709193
:103B20001D0180911E0190911F010E94DE0C2090CA
:103B300035013090360100913701109138016091C4
:103B4000330170913401882777FD8095982F0E946A
:103B5000742669837A83E82EF92E66277727601BFF
:103B6000710B68197909882777FD8095982F0E9435
:103B700074265B016C01FF92EF928A818F93998189
:103B80009F93B301620D731D882777FD8095982F51
:103B90000E9474269F938F937F936F93B401601B51
:103BA000710B882777FD8095982F0E9474269F932C
:103BB0008F937F936F93FF92EF92EA81EF93F98156
:103BC000FF93B10166197709882777FD8095982FB3
:103BD0000E9474269F938F937F936F93EB80FC805A
:103BE0008701209118013091190140911A015091DB
:103BF0001B0160911C0170911D0180911E0190912B
:103C00001F010E942E092090350130903601C2011B
:103C10000FB6F894DEBF0FBECDBF99230CF401960A
:103C20002C0155944794009137011091380160910F
:103C3000330170913401882777FD8095982F0E9479
:103C4000742669837A83E82EF92EB401600F711F00
:103C5000882777FD8095982F0E9474265B016C0160
:103C6000FF92EF923A813F9349814F9366277727DE
:103C70006219730964197509882777FD8095982F53
:103C80000E9474269F938F937F936F93081919094D
:103C9000B801882777FD8095982F0E9474269F93FE
:103CA0008F937F936F93FF92EF925A815F938981F5
:103CB0008F93B20162197309882777FD8095982F39
:103CC0000E9474269F938F937F936F93E12CF12C26
:103CD0000B811C8120910001309101014091020172
:103CE00050910301609104017091050180910601DA
:103CF000909107010E94DE0C209035013090360132
:103D000000913701109138016091330170913401B5
:103D1000882777FD8095982FE7D769837A83E82EE7
:103D2000F92EB80168197909882777FD8095982FB1
:103D3000DBD75B016C01FF92EF929A819F93E9813F
:103D4000EF93B20162197309882777FD8095982F48
:103D5000CBD79F938F937F936F93080D191DB80155
:103D6000882777FD8095982FBFD79F938F937F9358
:103D70006F93FF92EF92FA81FF9329812F93662729
:103D800077276219730964197509882777FD80956B
:103D9000982FAAD79F938F937F936F93EB80FC808C
:103DA0008701209100013091010140910201509161
:103DB00003016091040170910501809106019091C9
:103DC00007010E942E0920903501309036010091A4
:103DD00037011091380160913301709134018827C7
:103DE00077FD8095982F80D769837A83E82EF92E06
:103DF0000FB6F894DEBF0FBECDBF66277727601BD6
:103E0000710B68197909882777FD8095982F6CD7F1
:103E10005B016C01FF92EF925A815F9389818F93CE
:103E2000B30162197309882777FD8095982F5CD7B5
:103E30009F938F937F936F93B401601B710B8827BF
:103E400077FD8095982F50D79F938F937F936F9393
:103E5000FF92EF929A819F93E981EF9366277727EC
:103E60006219730966197709882777FD8095982F5D
:103E70003BD79F938F937F936F93E12CF12C0B8112
:103E80001C81209108013091090140910A01509153
:103E90000B0160910C0170910D0180910E019091C8
:103EA0000F010E942E0920903501309036010091BB
:103EB00037011091380160913301709134018827E6
:103EC00077FD8095982F10D769837A83E82EF92E95
:103ED000B401601B710B882777FD8095982F04D75C
:103EE0005B016C01FF92EF92FA81FF9329812F937E
:103EF000662777276219730966197709882777FD7E
:103F00008095982FF1D69F938F937F936F93662719
:103F10007727601B710B68197909882777FD8095D1
:103F2000982FE2D69F938F937F936F93FF92EF9298
:103F30003A813F9349814F93B301621973098827EE
:103F400077FD8095982FD0D69F938F937F936F9313
:103F5000EB80FC808701209108013091090140919C
:103F60000A0150910B0160910C0170910D0180913B
:103F70000E0190910F010E94DE0C6090350170904F
:103F80003601009137011091380160913301709131
:103F90003401882777FD8095982FA6D6262E372EB8
:103FA000F82EE92E0FB6F894DEBF0FBECDBFB801D4
:103FB00068197909882777FD8095982F95D65B0138
:103FC0006C01EF92FF923F922F92B201660D771D26
:103FD000882777FD8095982F87D69F938F937F931F
:103FE0006F93B401600F711F882777FD8095982F1C
:103FF0007BD69F938F937F936F93EF92FF923F9225
:104000002F92B30164197509882777FD8095982F41
:104010006BD69F938F937F936F93E12CF12C0B8141
:104020001C81209110013091110140911201509199
:104030001301609114017091150180911601909106
:1040400017010E942E096090350170903601009191
:104050003701109138016091330170913401882744
:1040600077FD8095982F40D6262E372EF82EE92EF4
:10407000B401600F711F882777FD8095982F34D683
:104080005B016C01EF92FF923F922F92B301641992
:104090007509882777FD8095982F26D69F938F9353
:1040A0007F936F93B80168197909882777FD809508
:1040B000982F1AD69F938F937F936F93EF92FF92CF
:1040C0003F922F92B201660D771D882777FD80956C
:1040D000982F0AD69F938F937F936F93EB80FC80EA
:1040E00087012091100130911101409112015091EE
:1040F0001301609114017091150180911601909146
:1041000017010E94DE0C0FB6F894DEBF0FBECDBFC4
:1041100060C34C0199231CF4FFEF8F1A9F0A9594FA
:104120008794E0903501F0903601009137011091AD
:104130003801130177201CF42FEF221A320A35942C
:1041400027946091330170913401882777FD809521
:10415000982FCAD569837A83682E792EB101601BA6
:10416000710B882777FD8095982FBED55B016C0178
:104170007F926F923A813F9349814F93B4016E0DC4
:104180007F1D882777FD8095982FAED59F938F93BD
:104190007F936F9366277727601B710B62197309F2
:1041A000882777FD8095982F9FD59F938F937F9336
:1041B0006F937F926F925A815F9389818F93B7013A
:1041C00068197909882777FD8095982F8DD59F9359
:1041D0008F937F936F93E12CF12C0B811C812091A5
:1041E00018013091190140911A0150911B01609101
:1041F0001C0170911D0180911E0190911F010E9470
:10420000DE0CE0903501F0903601009137011091FD
:1042100038016091330170913401882777FD8095D2
:10422000982F62D569837A83682E792E662777273F
:10423000601B710B62197309882777FD8095982F91
:1042400053D55B016C017F926F929A819F93E981B4
:10425000EF93B70168197909882777FD8095982F22
:1042600043D59F938F937F936F93B101601B710B25
:10427000882777FD8095982F37D59F938F937F93CD
:104280006F937F926F92FA81FF9329812F93B401EC
:104290006E0D7F1D882777FD8095982F25D59F93DC
:1042A0008F937F936F93EB80FC808701209118019F
:1042B0003091190140911A0150911B0160911C012C
:1042C00070911D0180911E0190911F010E942E0985
:1042D000E0903501F09036010091370110913801DE
:1042E00032010FB6F894DEBF0FBECDBF55201CF4CF
:1042F0005FEF651A750A7594679460913301709148
:104300003401882777FD8095982FEED469837A83CE
:10431000482E592EB801660D771D882777FD8095A8
:10432000982FE2D45B016C015F924F928A818F9348
:1043300099819F93B4016E197F09882777FD809535
:10434000982FD2D49F938F937F936F930619170959
:10435000B801882777FD8095982FC6D49F938F93B7
:104360007F936F935F924F92EA81EF93F981FF936E
:10437000662777276E197F0968197909882777FDDD
:104380008095982FB1D49F938F937F936F93E12C57
:10439000F12C0B811C812091000130910101409191
:1043A0000201509103016091040170910501809117
:1043B0000601909107010E94DE0CE0903501F0901B
:1043C00036010091370110913801609133017091ED
:1043D0003401882777FD8095982F86D469837A8366
:1043E000482E592EB80166197709882777FD8095E0
:1043F000982F7AD45B016C015F924F922A812F93A0
:1044000039813F93662777276E197F0968197909E3
:10441000882777FD8095982F67D49F938F937F93FC
:104420006F93060D171DB801882777FD8095982F8B
:104430005BD49F938F937F936F935F924F924A8148
:104440004F9359815F93B4016E197F09882777FDD7
:104450008095982F49D49F938F937F936F93EB8090
:10446000FC808701209100013091010140910201FF
:104470005091030160910401709105018091060142
:10448000909107010E942E09E0903501F0903601CD
:10449000009137011091380160913301709134011E
:1044A000882777FD8095982F1FD469837A83482EBB
:1044B000592E0FB6F894DEBF0FBECDBF6627772703
:1044C000601B710B66197709882777FD8095982FF7
:1044D0000BD45B016C015F924F929A819F93E981AB
:1044E000EF93662777276E197F096819790988275E
:1044F00077FD8095982FF8D39F938F937F936F9339
:10450000B301601B710B882777FD8095982FECD342
:104510009F938F937F936F935F924F92FA81FF9354
:1045200029812F93B4016E197F09882777FD809523
:10453000982FDAD39F938F937F936F93E12CF12C75
:104540000B811C81209108013091090140910A01E1
:1045500050910B0160910C0170910D0180910E0141
:1045600090910F010E942E09E0903501F0903601E4
:10457000009137011091380160913301709134013D
:10458000882777FD8095982FAFD369837A83482E4B
:10459000592EB301601B710B882777FD8095982FEA
:1045A000A3D35B016C015F924F923A813F934981A3
:1045B0004F93B4016E197F09882777FD8095982F56
:1045C00093D39F938F937F936F9366277727601B77
:1045D000710B66197709882777FD8095982F84D30A
:1045E0009F938F937F936F935F924F925A815F93C4
:1045F00089818F93662777276E197F096819790952
:10460000882777FD8095982F6FD39F938F937F9303
:104610006F93EB80FC8087012091080130910901A4
:1046200040910A0150910B0160910C0170910D01B4
:1046300080910E0190910F010E94DE0CE0903501F7
:10464000F0903601009137011091380160913301EB
:1046500070913401882777FD8095982F45D3462E99
:10466000572E782E692E0FB6F894DEBF0FBECDBF41
:10467000B80162197309882777FD8095982F34D384
:104680005B016C016F927F925F924F92B701681944
:104690007909882777FD8095982F26D39F938F934C
:1046A0007F936F93B101600F711F882777FD80950D
:1046B000982F1AD39F938F937F936F936F927F92CC
:1046C0005F924F92B4016E0D7F1D882777FD809514
:1046D000982F0AD39F938F937F936F93E12CF12CA4
:1046E0000B811C8120911001309111014091120128
:1046F0005091130160911401709115018091160180
:10470000909117010E942E09E0903501F09036013A
:10471000009137011091380160913301709134019B
:10472000882777FD8095982FDFD2462E572E782E3A
:10473000692EB101600F711F882777FD8095982F32
:10474000D3D25B016C016F927F925F924F92B40162
:104750006E0D7F1D882777FD8095982FC5D29F937A
:104760008F937F936F93B80162197309882777FD40
:104770008095982FB9D29F938F937F936F936F9269
:104780007F925F924F92B70168197909882777FD68
:104790008095982FA9D29F938F937F936F93EB80EF
:1047A000FC8087012091100130911101409112018C
:1047B00050911301609114017091150180911601BF
:1047C000909117010E94DE0C0FB6F894DEBF0FBE69
:1047D000CDBF0F900F900F900F90DF91CF911F9151
:1047E0000F91FF90EF90DF90CF90BF90AF909F9090
:1047F0008F907F906F905F904F903F902F90089593
:104800000E94C3000E9491008FE0809369008DB3E5
:1048100083608DBB789410923F0110923E0181E03D
:1048200090E090932301809322010E941D018091CA
:104830002F01909130010E94B9150E942E0880919D
:104840002B0190912C010E942A0180912F019091BF
:10485000300199230CF40396959587959595879546
:10486000EC012197C12CD12C01E010E0EC2CFD2CA7
:104870006894882481F80F2EF3E09F2EF02D689421
:10488000AA24A2F8BB24B3942091690930E0809156
:104890002601909127012817390774F026B530E0DA
:1048A0008091240190912501281739072CF00E944E
:1048B000FC1416BC10926909802F912F20913E01A3
:1048C00030913F012C173D0711F08E2D9F2D209127
:1048D0003C0130913D0182239323892BA9F28091E1
:1048E0004001909141018230910559F11CF40197EA
:1048F00049F083C08330910509F442C0049709F45C
:104900005EC07BC0B0922A016FE670E08AEC90E056
:104910000E94A20064E670E080ED90E00E94A20098
:1049200064E670E088ED90E00E94A20064E670E02A
:1049300080EE90E00E94A200C0923C01D0923D0126
:104940005CC080922A0164E670E08AEC90E00E94EC
:10495000A2006FE670E080ED90E00E94A20064E6A5
:1049600070E088ED90E00E94A20064E670E080EEC6
:1049700090E00E94A200C0923C01D0923D013DC057
:1049800090922A0164E670E08AEC90E00E94A20016
:1049900064E670E080ED90E00E94A2006FE670E0B7
:1049A00088ED90E00E94A20064E670E080EE90E066
:1049B0000E94A200C0923C01D0923D011EC0A09274
:1049C0002A0164E670E08AEC90E00E94A20064E6AE
:1049D00070E080ED90E00E94A20064E670E088ED57
:1049E00090E00E94A2006FE670E080EE90E00E94EE
:1049F000A200C0923C01D0923D0180912F01909184
:104A000030010E94B91540CF9F939F77A8D10F9096
:104A100000203AF49058A2EA2AED3FE049E450E43D
:104A200013D0F4C15058BB27AA270ED0EFC1E0D154
:104A300030F0E5D120F031F49F3F11F41EF4B0C105
:104A40000EF4E095E7FBA6C1E92FF1D180F3BA1788
:104A5000620773078407950718F071F49EF509C281
:104A60000EF4E0950B2EBA2FA02D0B01B901900189
:104A70000C01CA01A0011124FF27591B99F0593FCD
:104A800050F4503E68F11A16F040A22F232F342F15
:104A90004427585FF3CF469537952795A795F04063
:104AA0005395C9F77EF41F16BA0B620B730B840B78
:104AB000BAF09150A1F0FF0FBB1F661F771F881F30
:104AC000C2F70EC0BA0F621F731F841F48F4879588
:104AD00077956795B795F7959E3F08F0B3CF939577
:104AE000880F08F09927EE0F97958795089580D144
:104AF00058F080E891E009F49EEF81D128F040E879
:104B000051E059F45EEF09C04BC1B3C1E92FE07821
:104B10008ED168F3092E052AC1F3261737074807F7
:104B2000590738F00E2E07F8E02569F0E025E0641B
:104B30000AC0EF6307F8009407FADB01B9019D0191
:104B4000DC01CA01AD01EF9343D060D10AD05F917F
:104B5000552331F02BED3FE049E450FD49EC63CFA4
:104B60000895DF93DD27B92FBF7740E85FE316167E
:104B7000170648075B0710F4D92F82D19F938F93B4
:104B80007F936F9329D2ECE8F0E00DD13FD12F91C4
:104B90003F914F915F9187D1DD2349F09058A2EA70
:104BA0002AED3FE049EC5FE3D0785D274DDFDF91F0
:104BB0002DC10CD02BC123D140F01AD130F021F4FB
:104BC0005F3F19F0E7C0511155C1EAC030D198F3E9
:104BD0009923C9F35523B1F3951B550BBB27AA277E
:104BE00062177307840738F09F5F5F4F220F331FF0
:104BF000441FAA1FA9F333D00E2E3AF0E0E830D0BC
:104C000091505040E695001CCAF729D0FE2F27D0BE
:104C1000660F771F881FBB1F261737074807AB078C
:104C2000B0E809F0BB0B802DBF01FF2793585F4F01
:104C30002AF09E3F510568F0ADC01CC15F3FECF308
:104C4000983EDCF3869577956795B795F7959F5FC6
:104C5000C9F7880F911D9695879597F90895E1E01A
:104C6000660F771F881FBB1F621773078407BA0779
:104C700020F0621B730B840BBA0BEE1F88F7E095D4
:104C8000089504D06894B111F5C00895D8D088F083
:104C90009F5790F0B92F9927B751A0F0D1F0660F28
:104CA000771F881F991F1AF0BA95C9F712C0B13043
:104CB00081F0DFD0B1E00895DCC0672F782F88271E
:104CC000B85F39F0B93FCCF3869577956795B39582
:104CD000D9F73EF490958095709561957F4F8F4FF1
:104CE0009F4F0895E89409C097FB3EF490958095F6
:104CF000709561957F4F8F4F9F4F9923A9F0F92FA2
:104D000096E9BB279395F695879577956795B7951F
:104D1000F111F8CFFAF4BB0F11F460FF1BC06F5F05
:104D20007F4F8F4F9F4F16C0882311F096E911C017
:104D3000772321F09EE8872F762F05C0662371F038
:104D400096E8862F70E060E02AF09A95660F771F4C
:104D5000881FDAF7880F9695879597F90895DF935E
:104D6000CF931F930F938B01EC01E9EBF0E01BD085
:104D70004DD09801AE018B01EC0160E070E080E85D
:104D80009FE350DEEBD09801AE010F911F91CF91C0
:104D9000DF9189C097F99F6780E870E060E008952F
:104DA0009FEF80EC0895DF93CF931F930F93FF92B3
:104DB000EF92DF927B018C01689405C0DA2EEF013F
:104DC00072D0FE01E894A5912591359145915591B8
:104DD000AEF3EF0139DEFE019701A801DA9479F70D
:104DE000DF90EF90FF900F911F91CF91DF91089589
:104DF00000240A94161617061806090608950024BA
:104E00000A9412161306140605060895092E039433
:104E1000000C11F4882352F0BB0F40F4BF2B11F4A7
:104E200060FF04C06F5F7F4F8F4F9F4F089557FD06
:104E30009058440F551F59F05F3F71F04795880F08
:104E400097FB991F61F09F3F79F08795089512169F
:104E500013061406551FF2CF4695F1DF08C016164B
:104E600017061806991FF1CF8695710561050894FC
:104E70000895E894BB2766277727CB0197F9089513
:104E80009B01AC0160E070E080E89FE392CE0BD024
:104E9000BDCFAEDF28F0B3DF18F0952309F07ACF4D
:104EA0007FCF1124E7CFC3DFA0F3959FD1F3950FF8
:104EB00050E0551F629FF001729FBB27F00DB11D9E
:104EC000639FAA27F00DB11DAA1F649F6627B00D2E
:104ED000A11D661F829F2227B00DA11D621F739F17
:104EE000B00DA11D621F839FA00D611D221F749F25
:104EF0003327A00D611D231F849F600D211D822F6C
:104F0000762F6A2F11249F5750408AF0E1F08823B2
:104F10004AF0EE0FFF1FBB1F661F771F881F9150BF
:104F20005040A9F79E3F510570F034CFA3CF5F3FAB
:104F3000ECF3983EDCF3869577956795B795F795F2
:104F4000E7959F5FC1F7FE2B880F911D969587957A
:104F500097F9089511F40EF423CF41C070DFD0F318
:104F60009923D9F3CEF39F57550B87FF46D00024E2
:104F7000A0E640EA900180585695979528F4805C09
:104F8000660F771F881F20F026173707480730F471
:104F9000621B730B840B202931294A2BA695179489
:104FA0000794202531254A2758F7660F771F881F59
:104FB00020F026173707480730F4620B730B840B79
:104FC000200D311D411DA09581F7B901842F915805
:104FD000880F9695879508959B01AC0158CF9F3F08
:104FE00031F0915020F4879577956795B795880FA4
:104FF000911D9695879597F9089591505040660FA9
:10500000771F881FD2F70895052E97FB16F400949A
:105010000FD057FD05D024D007FC02D046F408C0BD
:1050200050954095309521953F4F4F4F5F4F0895D4
:1050300090958095709561957F4F8F4F9F4F089504
:1050400031D0A59F900DB49F900DA49F800D911D10
:1050500011240895B7FFF4CFF3DF821B930B08955B
:10506000A1E21A2EAA1BBB1BFD010DC0AA1FBB1F6C
:10507000EE1FFF1FA217B307E407F50720F0A21BDE
:10508000B30BE40BF50B661F771F881F991F1A944B
:1050900069F760957095809590959B01AC01BD0175
:1050A000CF010895A29FB001B39FC001A39F700DCF
:1050B000811D1124911DB29F700D811D1124911D20
:0650C0000895F894FFCFF3
:1050C6000400070009000B000300010003000500AF
:1050D600020008000A000C0001000200040006009D
:1050E600010001003E004900140001280001000CE7
:0C50F60000280088FF640064003C0000FB
:00000001FF
