:1000000089C000000C947D1B0C94E11BA2C0000071
:10001000A0C000009EC000009CC000009AC000006C
:1000200098C0000096C0000094C000000C9419080D
:1000300090C000008EC000008CC000008AC000008C
:1000400088C0000086C00000E3C7000082C0000036
:1000500080C000007EC000007CC000007AC00000AC
:1000600078C0000076C0000074C0000072C00000BC
:1000700070C000006EC000006CC000006AC00000CC
:1000800068C0000066C0000064C00000824DEE4CF5
:10009000364DD74D124DFE4C224DD74D5C4D6D4D1A
:1000A000474DFD4DF54D0D4E054E1D4E154E2D4E39
:1000B000254E3D4E354E4D4E454E5D4E554E084AF1
:1000C000D73B3BCE016E84BCBFFDC12F3D6C74316C
:1000D0009ABD56833DDA3D00C77F11BED9E4BB4CC3
:1000E0003E916BAAAABE000000803F072C7AA5BAF9
:1000F0006CC590DA3B9365FC8BBC53F810FD3C5605
:1001000092834DBD879D3AB63DCBC9BF5BBE73DAC6
:100110000FC93F0011241FBECFEFD0E4DEBFCDBF1B
:1001200011E0A0E0B1E0ECE3F7EA00E00BBF02C0B1
:1001300007900D92A436B107D9F724E1A4E6B1E007
:1001400001C01D92A636B207E1F70E94364F0C940B
:100150009C5356CFFC0122853385220F331F220F7B
:10016000331F220F331F84859585880F991F880FB1
:10017000991F822B932B20893189822B932B2685E3
:100180003785220F331F822B932B20853185A901C0
:100190004370552742955295507F5427407F5427EE
:1001A000842B952B24703327322F2227822B932BDD
:1001B000428153814F715527542F4427550F842B6B
:1001C000952B08958091A101811109C080912C0C7B
:1001D00090912D0C90936B0180936A011EC0813029
:1001E00049F480912E0C90912F0C90936B01809389
:1001F0006A0113C0823049F48091300C9091310C27
:1002000090936B0180936A0108C08091320C9091A9
:10021000330C90936B0180936A0180912C0C909128
:100220002D0C813E91403CF081E090E090930101E3
:100230008093000104C0109201011092000180918E
:100240002E0C90912F0C813E91403CF081E090E08B
:1002500090937B0180937A0104C010927B011092ED
:100260007A018091300C9091310C813E91403CF0AC
:1002700081E090E0909379018093780104C010921E
:100280007901109278018091320C9091330C813E6B
:1002900091403CF081E090E090937701809376016B
:1002A00008951092770110927601089580912A0C9A
:1002B00090912B0C019779F48091740190917501C4
:1002C0008230910579F001969093750180937401C5
:1002D00080E090E00895109275011092740180E022
:1002E00090E0089581E090E00895E0DF0197B9F58E
:1002F00080917C0190917D0126E1289FF001299F4A
:10030000F00D1124E654FE4F22893389232B39F551
:1003100026E1289FF001299FF00D1124E654FE4F9D
:10032000208131812250310922303105C0F02091E5
:100330007001309171012F5F3F4F30937101209315
:10034000700146E1489FF001499FF00D1124E654E9
:10035000FE4F81E090E0938B828B358B248B089548
:1003600080916E0190916F01892B09F46CC02091EE
:100370007C0130917D0186E1829FF001839FF00D29
:100380001124E654FE4F8081918182309105F1F471
:10039000209100013091010180917A0190917B01BF
:1003A000280F391F8091780190917901280F391F0A
:1003B0008091760190917701280F391F81E090E0BC
:1003C0002330310509F44DC080E008950397F1F51D
:1003D00086E1829FF001839FF00D1124E654FE4FC9
:1003E000848195810297A9F5409100015091010106
:1003F00080917A0190917B01840F951F4091780143
:1004000050917901840F951F4091760150917701A9
:10041000840F951F039701F186E1829FF001839F6E
:10042000F00D1124E654FE4F828193810197B9F4B7
:1004300081E090E02091A2013091A30125303105A7
:1004400081F080E0089581E090E0089581E090E0FF
:10045000089581E090E0089581E090E0089580E0C3
:1004600090E008952091AC013091AD0180910001A0
:10047000909101012817390741F52091AE01309183
:10048000AF0180917A0190917B0128173907E9F437
:100490002091B0013091B101809178019091790162
:1004A0002817390791F42091B2013091B30180915E
:1004B0007601909177012817390739F4109273016A
:1004C0001092720180E090E0089580917201909105
:1004D00073018130910541F00196909373018093EF
:1004E000720180E090E0089581E090E008958091AD
:1004F0007C0190917D0126E1289FF001299FF00D5C
:100500001124E654FE4F808191818D7F019749F53A
:100510002091A101211108C08091300C9091310CE3
:1005200088309240ACF438C0213041F48091320CD4
:100530009091330C88309240A4F431C0223041F4C1
:1005400080912C0C90912D0C8830924054F42AC04C
:10055000233039F480912E0C90912F0C88309240EA
:1005600024F180DF8130910539F420916A013091C6
:100570006B01213E3140F4F475DF0197C9F431E09D
:1005800020E080916A0190916B018C3291400CF0D7
:1005900030E0832F922F089580E090E0089580E06E
:1005A00090E0089580E090E0089580E090E0089564
:1005B00080E090E008954091000150910101209168
:1005C00078013091790180917A0190917B01840FBB
:1005D000951F820F931F6091760170917701860FAE
:1005E000971F8330910509F443C08230910549F487
:1005F00071E060E04217530709F470E0872F962FEF
:100600000895019769F540917C0150917D01141680
:100610001506BCF486E1849FF001859FF00D11243E
:10062000E454FE4FCA01208131812130310529F483
:100630002281338122303105B1F0019776970097FE
:1006400091F786E1849FF001859FF00D1124E65417
:10065000FE4F80819181029749F485E090E00895F2
:1006600084E090E0089585E090E0089582E090E0D5
:100670000895BF92CF92DF92EF92FF920F931F9354
:10068000CF93DF93039709F087C0A0916E01B091DB
:100690006F01109761F481E090E090936F01809377
:1006A0006E0190936D0180936C0190E07AC080910F
:1006B0007C0190917D0126E1289FF001299FF00D9A
:1006C0001124E654FE4F808191818230910509F416
:1006D00066C0039709F04EC01A161B060CF05BC0EB
:1006E000C0910C0CD0910D0CBD016150710906EF49
:1006F0001BE00F2EF7E7EF2EF02DF12C0F2EF6E179
:10070000DF2EF02D0F2EF8E7BF2EF02DC12C2AC0C2
:100710002081318124173507C1F402C08B2D9C2D17
:10072000D89EF001D99EF00D1124E654FE4F84812D
:100730009581029711F411970DC01197B0936F0135
:10074000A0936E018A2F9B2F2CC001977697813042
:100750009105F1F66150710928F4B0936F01A093EF
:100760006E0119C0AB01C617D707C1F2F8018E2D73
:100770009F2DCECF20916C0130916D012F5F3F4FA7
:1007800030936D0120936C0130936F0120936E01C3
:10079000822F932F06C005C080E090E002C08A2F10
:1007A0009B2FDF91CF911F910F91FF90EF90DF90E2
:1007B000CF90BF9008950397F1F480917C019091C0
:1007C0007D0118161906D4F4ECEBF1E026E1289F20
:1007D000A001299F500D112444545E4F80E090E009
:1007E000208131816217730709F401967696E41728
:1007F000F507B1F7089580E090E0089580E090E07B
:100800000895CF93DF93D7DEC2EAD1E0998388833E
:1008100030DF9093A5018093A401BC018881998168
:10082000CADF9093A7018093A6018091A10190E077
:100830009093A9018093A80184E090E09093AB018C
:100840008093AA0180910001909101019093AD01E4
:100850008093AC0180917A0190917B019093AF01DC
:100860008093AE0180917801909179019093B101CC
:100870008093B00180917601909177019093B301BC
:100880008093B2011092B5011092B4011092B70199
:100890001092B601DF91CF91089580917C019091E3
:1008A0007D0126E1289FF001299FF00D1124E654D7
:1008B000FE4F8091A2019091A3019183808380914A
:1008C000A4019091A501938382838091A6019091C8
:1008D000A701958384838091A8019091A9019783B2
:1008E00086838091AA019091AB0191878087809146
:1008F000AC019091AD01938782878091AE01909178
:10090000AF01958784878091B0019091B10197875D
:1009100086878091B2019091B301918B808B8091F9
:10092000B4019091B501938B828B8091B601909127
:10093000B701958B848B0895CF92DF92EF92FF924F
:100940000F931F93CF93DF934091680150916901FA
:10095000EAEBF1E060E27CE0C0E0D0E090E0C12CA6
:10096000D12C04E010E00F2EF2E0EF2EF1E0FF2E8C
:10097000F02D2081318123303105B1F5248135817D
:100980002115310561F49E01220F331F2E5F3E4F6A
:1009900040855185D9014D935C93219622C0213029
:1009A000310559F49E01220F331F20503F4F4085DF
:1009B0005185D9014D935C9314C02230310589F4DF
:1009C000228133812130310521F4D7010D931C930D
:1009D00008C0DE01AA0FBB1FAE5FBE4F0D931C9374
:1009E00021974C2D5D2D11C022893389213031058D
:1009F00061F4248935892817390729F4509369014E
:100A0000409368010BC04F5F5F4F7696E617F7077C
:100A100009F0AFCF5093690140936801DF91CF9106
:100A20001F910F91FF90EF90DF90CF9008958091EC
:100A3000AE019091AF0181309105A1F08091AC01A0
:100A40009091AD01019749F08091B2019091B3016D
:100A5000019731F483E090E0089580E090E00895FC
:100A600082E090E008958091B0019091B1010197EA
:100A700081F08091AE019091AF018130910571F0CC
:100A80008091AC019091AD01019731F480E090E04C
:100A9000089582E090E0089583E090E008958091C9
:100AA000B2019091B301019789F08091B0019091CA
:100AB000B101019771F081E090E02091AE01309199
:100AC000AF012130310539F080E0089583E090E0F6
:100AD000089582E090E008958091AC019091AD017D
:100AE000019779F08091B2019091B301019761F083
:100AF0008091B0019091B101019749F482E090E0BA
:100B0000089580E090E0089583E090E0089581E00A
:100B100090E008958091A2019091A301892B21F486
:100B20002091A10130E01BC08091A101811104C07E
:100B30007EDF9C01332713C0813021F494DF9C01B8
:100B400033270DC0823021F4AADF9C01332707C070
:100B5000833021F4C1DF9C01332701C00895822F27
:100B6000932F089586E090E09093BB018093BA01A3
:100B70001092BD011092BC011092BF011092BE01F3
:100B80001092C1011092C0011092C3011092C201D3
:100B900081E090E09093C5018093C4011092C70159
:100BA0001092C6011092C9011092C8011092CB0197
:100BB0001092CA011092CD011092CC011092CF0177
:100BC0001092CE0108958091A001823009F4AEC048
:100BD000833009F44EC0813009F00DC1F3DA85DBB2
:100BE00086DC019759F50DDE81E090E09093350C9D
:100BF0008093340C8FDF8093360CB2DB019709F5BC
:100C000080917C0190917D01019690937D0180936C
:100C10007C0143DE80917C0190917D0126E1289F3B
:100C2000F001299FF00D1124E654FE4F8091360CFF
:100C300090E09187808781E090E005C080E090E0BF
:100C400002C080E090E020917C0130917D0146E17E
:100C5000429FF001439FF00D1124E654FE4F208186
:100C600031812530310509F0D7C023E02093A00160
:100C700008958091B8019091B901823E910529F1C2
:100C80003CF4803E910559F0813E910599F03DC0BC
:100C9000833E910529F1843E910569F136C081E0DA
:100CA00090E0909365018093640146DE82E080933A
:100CB000A0012BC082E090E09093650180936401D5
:100CC0003BDE82E08093A00120C083E090E090931F
:100CD00065018093640130DE82E08093A00115C03D
:100CE00084E090E0909365018093640125DE82E0CA
:100CF0008093A0010AC085E090E090936501809305
:100D000064011ADE82E08093A0018091A101843009
:100D100009F474C081E090E09093350C8093340C1A
:100D200084E08093360C80E090E008954BDADFDBBE
:100D3000019741F566DD8091A2019091A30103978F
:100D4000C1F481E090E09093350C8093340C809155
:100D5000660190916701FC01EE0FFF1FEE5FFE4FF1
:100D600020812093360C0196909367018093660151
:100D700009C0D0DE8093360C81E090E09093350C72
:100D80008093340CE0916601F0916701EE0FFF1F34
:100D9000EE5FFE4F80819181049799F587DA019784
:100DA00099F58091B4019091B501892B81F581E08D
:100DB00090E09093B5018093B40180916801909187
:100DC0006901009781F48091A101843019F181E0DB
:100DD00090E09093350C8093340C84E08093360C33
:100DE00080E090E0089501979093690180936801F5
:100DF00080E090E0089580E090E0089580E090E049
:100E0000089580E090E0089580E090E0089580E00B
:100E100090E0089580E090E0089585B5846085BDF8
:100E200016BCEEE6F0E080818160808310923A0C7F
:100E30000895E1EBF0E08081866080831092B2003B
:100E4000E0E7F0E08081816080831092390C0895A2
:100E50006634710509F453C0B4F46E317105D9F1EB
:100E600044F46A30710509F472C06431710571F19E
:100E700028C062337105C9F16C337105D9F168324C
:100E80007105F9F42DC0683C710509F44CC05CF49F
:100E90006A357105F1F16436710509F43FC06035BA
:100EA000710579F431C0603921E0720709F445C059
:100EB000643F21E0720709F445C06C3221E07207FB
:100EC000B9F142E350E024E630E045C044E050E0B0
:100ED00022EE30E040C047E050E023E530E03BC088
:100EE00049E050E024EC30E036C04CE050E025E32F
:100EF00030E031C04EE050E026EA30E02CC041E165
:100F000050E027E130E027C043E150E028E830E03E
:100F100022C045E150E029EF30E01DC048E150E03B
:100F20002AE630E018C040E350E024ED30E013C082
:100F300049E450E02EE330E00EC041E650E028EAFC
:100F400030E009C04AE750E022E130E004C042E06E
:100F500050E021E730E0009719F0029771F0089512
:100F600070933C0C60933B0C50931D0140931C010B
:100F700030931B0120931A0108957093380C6093ED
:100F8000370C5093190140931801309317012093A7
:100F90001601089520913A0C30E080911C01909147
:100FA0001D01281739076CF046B550E081E090E04C
:100FB00020911A0130911B014217530724F480E05D
:100FC000089580E090E008952091390C30E0809100
:100FD0001801909119012817390774F04091B20057
:100FE00050E081E090E02091160130911701421706
:100FF000530724F480E0089580E090E0089516BC43
:1010000010923A0C08951092B2001092390C089583
:101010001F920F920FB60F9211248F9380913A0C6A
:101020008F5F80933A0C8F910F900FBE0F901F909F
:1010300018951F920F920FB60F9211248F938091E3
:10104000390C8F5F8093390C8F910F900FBE0F90EA
:101050001F90189586E081B984E082B980EA84B94E
:1010600081E58CBD0895F89494E092B98EBD0DB4DD
:1010700007FEFDCF8EB580933D0C86E082B9789453
:101080000895F89492E092B98EBD0DB407FEFDCF9D
:101090008EB580933D0C86E082B978940895CF9305
:1010A000DF93C62FD72FF894ECDF8AE18A95F1F70A
:1010B00000C08D2FE6DF8AE18A95F1F700C08C2F02
:1010C000E0DF8AE18A95F1F700C07894DF91CF9153
:1010D0000895CF93C8DF8AE18A95F1F700C088EBC5
:1010E000C2DFC0913D0C8AE18A95F1F700C088EB20
:1010F000BADF20913D0C8C2F90E0982F8827820F2B
:10110000911DCF91089580E18AB91BB81092C50056
:101110001092C40088E18093C10086E08093C200F1
:101120000895E0ECF0E0908195FFFDCF8093C6003C
:101130000895CF92EF92FF920F931F93CF93DF9377
:10114000C82FD62F142FF22E80E18BB9E0ECF0E0FF
:10115000808180838FEFE5DF8FEFE3DF8C2FE1DF8E
:1011600087E0DFDF8D2FDDDF812FDBDF8F2DD9DF04
:10117000802FD7DF8E2DD5DF8C2DD3DFF89487E03D
:101180008C0DE80E0E0DF00E1F0DD10F8D2F8C0F54
:101190008095C7DFE0ECF0E0808186FFFDCF1BB8D3
:1011A0007894DF91CF911F910F91FF90EF90CF90A6
:1011B000089560913B0C70913C0C80E890E06FDFEB
:1011C000609160017091610180E590E068DF60915D
:1011D00058017091590188E490E061DF60915E01EF
:1011E00070915F0180E490E05ADF60915A01709144
:1011F0005B0171956195710988E390E050DF20E013
:1012000030E048EC52E460914401709145018091D6
:101210004601909147010E945B520E942D5180E34C
:1012200090E03DDF20E030E048EC52E4609148017E
:101230007091490180914A0190914B010E945B524B
:101240000E942D5188E290E02ACF08959B01AC01C5
:10125000A8EEB3E00E944D5320913B0C30913C0C22
:10126000A901440F551F240F351F220F331F442798
:1012700037FD4095542F0E942B53223031054105F4
:1012800051052CF462E070E080E090E00895622F58
:10129000732F842F952F08954F925F926F927F92B4
:1012A0008F929F92AF92BF92CF92DF92EF92FF9276
:1012B0000F931F93CF93DF93EC01680179014D32B7
:1012C00081E0580761057105E0F5AFEFB3E09A01E1
:1012D000AB010E944D532CE231E040E050E00E940F
:1012E0002B5349015A019924AA24BB24432E512C83
:1012F00082E7C816D104E104F104A4F4AFEFB3E02F
:10130000A70196010E944D5322E730E040E050E0F3
:101310000E942B5379018A01FF2400271127432FB4
:1013200050E006C040E050E0BA01E12CF12C87010A
:101330006A01820194014EE150E063E070E0CE0169
:10134000F8DEDF91CF911F910F91FF90EF90DF902A
:10135000CF90BF90AF909F908F907F906F905F9055
:101360004F9008954F925F926F927F928F929F92CB
:10137000AF92BF92CF92DF92EF92FF920F931F93A3
:10138000CF93DF93CDB7DEB760970FB6F894DEBF8B
:101390000FBECDBF2B013C0149015A01E982FA82FF
:1013A0000B831C83860190580E946E506D877E8748
:1013B0008F87988B29813A814B815C81CA01B90161
:1013C0000E945B526B017C01A3019201C301B20137
:1013D0000E945B522B013C01A5019401C501B4019F
:1013E0000E945B529B01AC01C301B2010E94FB4F02
:1013F0002B013C010E94C25220E030E048E452E45C
:101400000E94FA4F4B015C019B01AC010E945B52B0
:101410006D837E838F8398879B01AC01C701B601E2
:101420000E94FB4F69877A878B879C870E94C252F4
:101430009B01AC0169817A818B819C8190580E94CB
:10144000C5500E94EC4F69837A838B839C8320E094
:1014500030E048E452E4C301B2010E94FA4F0E9416
:10146000C2529B01AC01C501B4010E945B529B01B9
:10147000AC01C701B6010E94FB4F0E94C2522B0172
:101480003C0120E038E44CE855E469857A858B8599
:101490009C850E94FB4F20E038E044E856E40E941F
:1014A000FA4F4B015C01A3019201C301B2010E94FA
:1014B000FB4F20E030E046E852E40E945B529B0183
:1014C000AC01C501B4010E94C5500E94EC4F2B0134
:1014D0003C01A701960160E07AE187EA96E40E9468
:1014E000FA4F2D813E814F8158850E94FA4F20E0AE
:1014F00038E148E856E40E94C5500E94EC4F4B0189
:101500005C016801EE24D7FCE094FE2C20E030E082
:1015100044E353E46D857E858F8598890E945B52F4
:1015200028ED3FE049E450E40E94C5500E942D514F
:10153000AB01BC0147595F4F6F4F7F4F9701860149
:1015400080913E0190913F01A7DEA3019201698144
:101550007A818B819C810E94FB4F24EE3EE245E61E
:1015600052E40E945B520E942D51AB01BC01455BCD
:101570005F4F6F4F7F4F970186018091400190919F
:1015800041018ADE20E030E044E353E4C501B401C8
:101590000E945B5228ED3FE049E450E40E94C550B0
:1015A0000E942D51AB01BC014F5F5F4F6F4F7F4FCA
:1015B0009701860180914201909143016DDE609612
:1015C0000FB6F894DEBF0FBECDBFDF91CF911F9154
:1015D0000F91FF90EF90DF90CF90BF90AF909F90D2
:1015E0008F907F906F905F904F9008954F925F9291
:1015F0006F927F928F929F92AF92BF92CF92DF9223
:10160000EF92FF920F931F93CF93DF93CDB7DEB787
:1016100060970FB6F894DEBF0FBECDBF2B013C0123
:1016200049015A01E982FA820B831C838601905892
:101630000E946E506D877E878F87988B29813A81B3
:101640004B815C81CA01B9010E945B526B017C0134
:10165000A3019201C301B2010E945B522B013C0124
:10166000A5019401C501B4010E945B529B01AC012C
:10167000C301B2010E94FB4F2B013C010E94C252E8
:1016800020E030E048E452E40E94FA4F4B015C0154
:101690009B01AC010E945B526D837E838F83988790
:1016A0009B01AC01C701B6010E94FB4F69877A8795
:1016B0008B879C870E94C2529B01AC0169817A8111
:1016C0008B819C8190580E94C5500E94EC4F698389
:1016D0007A838B839C8320E030E048E452E4C301AA
:1016E000B2010E94FA4F0E94C2529B01AC01C50197
:1016F000B4010E945B529B01AC01C701B6010E947C
:10170000FB4F0E94C2522B013C0120E038E44CE820
:1017100055E469857A858B859C850E94FB4F20E086
:1017200038E044E856E40E94FA4F4B015C01A30103
:101730009201C301B2010E94FB4F20E030E046E875
:1017400052E40E945B529B01AC01C501B4010E94AE
:10175000C5500E94EC4F2B013C01A701960160E0AF
:101760007AE187EA96E40E94FA4F2D813E814F810B
:1017700058850E94FA4F20E038E148E856E40E947C
:10178000C5500E94EC4F4B015C016801EE24D7FC70
:10179000E094FE2C20E030E044E353E46D857E8548
:1017A0008F8598890E945B5228ED3FE049E450E420
:1017B0000E94C5500E942D51AB01BC014F535F4F99
:1017C0006F4F7F4F970186018091360190913701CD
:1017D00063DDA301920169817A818B819C810E94E2
:1017E000FB4F24EE3EE245E652E40E945B520E942B
:1017F0002D51AB01BC01455B5F4F6F4F7F4F970190
:101800008601809138019091390146DD20E030E079
:1018100044E353E4C501B4010E945B5228ED3FE06C
:1018200049E450E40E94C5500E942D51AB01BC0117
:101830004D5F5F4F6F4F7F4F9701860180913A0157
:1018400090913B0129DD60960FB6F894DEBF0FBE84
:10185000CDBFDF91CF911F910F91FF90EF90DF905F
:10186000CF90BF90AF909F908F907F906F905F9040
:101870004F9008954F925F926F927F928F929F92B6
:10188000AF92BF92CF92DF92EF92FF920F931F938E
:10189000CF93DF93CDB7DEB760970FB6F894DEBF76
:1018A0000FBECDBF2B013C0149015A01E982FA82EA
:1018B0000B831C83860150580E946E506D877E8773
:1018C0008F87988B29813A814B815C81CA01B9014C
:1018D0000E945B526B017C01A3019201C301B20122
:1018E0000E945B522B013C01A5019401C501B4018A
:1018F0000E945B529B01AC01C301B2010E94FB4FED
:101900002B013C010E94C25220E030E048E452E446
:101910000E94FA4F4B015C019B01AC010E945B529B
:101920006D837E838F8398879B01AC01C701B601CD
:101930000E94FB4F69877A878B879C870E94C252DF
:101940009B01AC0169817A818B819C8190580E94B6
:10195000C5500E94EC4F69837A838B839C8320E07F
:1019600030E048E452E4C301B2010E94FA4F0E9401
:10197000C2529B01AC01C501B4010E945B529B01A4
:10198000AC01C701B6010E94FB4F0E94C2522B015D
:101990003C0120E038E44CE855E469857A858B8584
:1019A0009C850E94FB4F20E038E044E856E40E940A
:1019B000FA4F4B015C01A3019201C301B2010E94E5
:1019C000FB4F20E030E046E852E40E945B529B016E
:1019D000AC01C501B4010E94C5500E94EC4F2B011F
:1019E0003C01A701960160E07AE187EA96E40E9453
:1019F000FA4F2D813E814F8158850E94FA4F20E099
:101A000038E148E856E40E94C5500E94EC4F4B0173
:101A10005C016801EE24D7FCE094FE2C20E030E06D
:101A200044E353E46D857E858F8598890E945B52DF
:101A300028ED3FE049E450E40E94C5500E942D513A
:101A4000AB01BC014D535F4F6F4F7F4F9701860134
:101A500080912E0190912F011FDCA30192016981D9
:101A60007A818B819C810E94FB4F24EE3EE245E609
:101A700052E40E945B520E942D510F2EF1EE4F2E28
:101A8000512C612C712CF02D93018201061B170B38
:101A9000280B390BB901A80197018601809130010B
:101AA00090913101F9DB20E030E044E353E4C501DB
:101AB000B4010E945B5228ED3FE049E450E40E94EB
:101AC000C5500E942D510F2EFCE28F2E9924939425
:101AD000A12CB12CF02D95018401061B170B280BAE
:101AE000390BB901A80197018601809132019091CB
:101AF0003301D2DB60960FB6F894DEBF0FBECDBFC8
:101B0000DF91CF911F910F91FF90EF90DF90CF90D9
:101B1000BF90AF909F908F907F906F905F904F900D
:101B200008954F925F926F927F928F929F92AF92A1
:101B3000BF92CF92DF92EF92FF920F931F93CF93BA
:101B4000DF93CDB7DEB760970FB6F894DEBF0FBE58
:101B5000CDBF2B013C0149015A01E982FA820B8376
:101B60001C83860150580E946E506D877E878F8738
:101B7000988B29813A814B815C81CA01B9010E940D
:101B80005B526B017C01A3019201C301B2010E946F
:101B90005B522B013C01A5019401C501B4010E94D7
:101BA0005B529B01AC01C301B2010E94FB4F2B01B0
:101BB0003C010E94C25220E030E048E452E40E941E
:101BC000FA4F4B015C019B01AC010E945B526D839B
:101BD0007E838F8398879B01AC01C701B6010E9469
:101BE000FB4F69877A878B879C870E94C2529B0133
:101BF000AC0169817A818B819C8190580E94C5508B
:101C00000E94EC4F69837A838B839C8320E030E0D1
:101C100048E452E4C301B2010E94FA4F0E94C2524A
:101C20009B01AC01C501B4010E945B529B01AC0158
:101C3000C701B6010E94FB4F0E94C2522B013C011A
:101C400020E038E44CE855E469857A858B859C85ED
:101C50000E94FB4F20E038E044E856E40E94FA4F2F
:101C60004B015C01A3019201C301B2010E94FB4F31
:101C700020E030E046E852E40E945B529B01AC0158
:101C8000C501B4010E94C5500E94EC4F2B013C01DC
:101C9000A701960160E07AE187EA96E40E94FA4F94
:101CA0002D813E814F8158850E94FA4F20E038E116
:101CB00048E856E40E94C5500E94EC4F4B015C017D
:101CC0006801EE24D7FCE094FE2C20E030E044E3F1
:101CD00053E46D857E858F8598890E945B5228ED3F
:101CE0003FE049E450E40E94C5500E942D51AB01F1
:101CF000BC0147595F4F6F4F7F4F9701860180911D
:101D0000260190912701C8DAA301920169817A81A5
:101D10008B819C810E94FB4F24EE3EE245E652E41B
:101D20000E945B520E942D510F2EF1EE4F2E512C2E
:101D3000612C712CF02D93018201061B170B280BCF
:101D4000390BB901A8019701860180912801909172
:101D50002901A2DA20E030E044E353E4C501B401F4
:101D60000E945B5228ED3FE049E450E40E94C550D8
:101D70000E942D510F2EFCE28F2E99249394A12CBA
:101D8000B12CF02D95018401061B170B280B390B84
:101D9000B901A8019701860180912A0190912B0138
:101DA0007BDA60960FB6F894DEBF0FBECDBFDF9131
:101DB000CF911F910F91FF90EF90DF90CF90BF9048
:101DC000AF909F908F907F906F905F904F9008950D
:101DD0004F925F926F927F928F929F92AF92BF923B
:101DE000CF92DF92EF92FF920F931F93C090220148
:101DF000D090230160915A0170915B01882777FD93
:101E00008095982F0E9460512B013C0160915C01EC
:101E100070915D01882777FD8095982F0E94605111
:101E20004B015C0160915E0170915F01719561955C
:101E30007109882777FD8095982F0E946051830152
:101E40007201A50194018EDAC0902201D090230185
:101E500060915A0170915B01882777FD8095982FDA
:101E60000E9460512B013C0160915C0170915D0109
:101E7000882777FD8095982F0E9460514B015C0167
:101E800060915E0170915F01882777FD8095982FA2
:101E90000E94605183017201A5019401A7DBC090EB
:101EA0002201D090230160915A0170915B01882733
:101EB00077FD8095982F0E9460512B013C01609125
:101EC0005C0170915D01719561957109882777FDBD
:101ED0008095982F0E9460514B015C0160915E01DA
:101EE00070915F01719561957109882777FD8095E3
:101EF000982F0E94605183017201A5019401BADC00
:101F0000C0902201D090230160915A0170915B0131
:101F1000882777FD8095982F0E9460512B013C0106
:101F200060915C0170915D017195619571098827DF
:101F300077FD8095982F0E9460514B015C01609164
:101F40005E0170915F01882777FD8095982F0E9430
:101F5000605183017201A5019401E3DD1F910F918E
:101F6000FF90EF90DF90CF90BF90AF909F908F90B9
:101F70007F906F905F904F90089580918301909132
:101F8000840120911E0130911F01821793075CF09C
:101F9000109284011092830181E090E090932101DE
:101FA000809320010895AC014F5F5F4F50938401EF
:101FB00040938301421753072CF010922101109295
:101FC00020010895029690932101809320010895A5
:101FD0002F923F924F925F926F927F928F929F9239
:101FE000AF92BF92CF92DF92EF92FF920F931F9327
:101FF000CF93DF93CDB7DEB7E6970FB6F894DEBF89
:102000000FBECDBF29833A834B835C836D837E8370
:102010008F83988717012F964CAC5DAC6EAC7FAC6C
:102020002F9729813A813E8B2D8B4B815C81588F74
:102030004F8B8D809E80EF80F884C90101970297B5
:1020400088F4D7FAD094D7F8D09467968CAD9DAD2C
:10205000AEADBFAD6797B05867968CAF9DAFAEAFD2
:10206000BFAF67978D899E890397029788F477FAA7
:10207000709477F870946B962CAD3DAD4EAD5FAD1E
:102080006B9750586B962CAF3DAF4EAF5FAF6B97D1
:10209000B801882777FD8095982F0E946051698745
:1020A0007A878B879C87A601950167966CAD7DAD7D
:1020B0008EAD9FAD67970E94FA4F29853A854B8573
:1020C0005C850E94C5506BA77CA78DA79EA7A30126
:1020D00092016B966CAD7DAD8EAD9FAD6B970E94FE
:1020E000FA4F29853A854B855C850E94C5506FA7BC
:1020F00078AB89AB9AAB63962CAD3DAD4EAD5FAD81
:1021000063976F966CAD7DAD8EAD9FAD6F970E945E
:10211000FA4F29853A854B855C850E94C5506BAB8B
:102120007CAB8DAB9EABA101400F511F5AA749A7B5
:10213000241635060CF0B8C224E1AF89B88D2A9F69
:10214000C0012B9F900D1124820D931D880F991FA4
:10215000880F991FFC01EC5AFF4EFAA3E9A3289DB2
:10216000C001299D900D1124820D931D880F991F88
:10217000880F991FAC014C5A5F4E58A34F8F2E9D6C
:10218000C0012F9D900D1124820D931D880F991F62
:10219000880F991FDC01AC5ABF4EBCA3ABA38101D1
:1021A000000F111F000F111F0257134FA986BA8687
:1021B000CB86DC864D865E866F86788A2BA53CA50D
:1021C0004DA55EA569857A858B859C850E94FB4F10
:1021D00069877A878B879C872FA538A949A95AA92F
:1021E0006D857E858F8598890E94FB4F6D877E87E0
:1021F0008F87988B2BA93CA94DA95EA963966CADDE
:102200007DAD8EAD9FAD63970E94FB4F63966CAF23
:102210007DAF8EAF9FAF63972D853E854F855889E3
:1022200069857A858B859C850E946E5020E030E020
:1022300044E353E40E945B5228ED3FE049E450E45C
:102240000E94C5500E942D516DA37EA38FA398A715
:1022500063962CAD3DAD4EAD5FAD6397CA01B9013C
:102260000E945B52698B7A8B8B8B9C8B29853A857C
:102270004B855C85CA01B9010E945B526B017C01F0
:102280002D853E854F855889CA01B9010E945B5250
:102290009B01AC01C701B6010E94FB4F6F8B788F89
:1022A000898F9A8F0E94C25220E030E048E452E4C5
:1022B0000E94FA4F6B017C019B01AC010E945B52B2
:1022C0006B8F7C8F8D8F9E8F9B01AC0169897A8982
:1022D0008B899C890E94FB4F4B015C010E94C2527A
:1022E0009B01AC0163966CAD7DAD8EAD9FAD6397E8
:1022F00090580E94C5500E94EC4F2B013C0120E0F9
:1023000030E048E452E46F89788D898D9A8D0E947F
:10231000FA4F0E94C2529B01AC01C701B6010E9454
:102320005B529B01AC0169897A898B899C890E94E7
:10233000FB4F0E94C2526B017C0120E038E44CE864
:1023400055E4C501B4010E94FB4F20E038E044E8A9
:1023500056E40E94FA4F4B015C01A7019601C701A8
:10236000B6010E94FB4F20E030E046E852E40E94B4
:102370005B529B01AC01C501B4010E94C5500E9493
:10238000EC4F9B01AC01C301B2010E94FB4F24EE54
:102390003EE245E652E40E945B520E942D516B01E1
:1023A0007C0129893A894B895C8960E07AE187EA76
:1023B00096E40E94FA4F2B8D3C8D4D8D5E8D0E94D0
:1023C000FA4F20E038E148E856E40E94C5500E94E8
:1023D000EC4F20E030E044E353E40E945B5228EDF0
:1023E0003FE049E450E40E94C5500E942D51ED8920
:1023F000FE89E230F10509F457C01CF4319761F011
:1024000038C12D893E892330310509F496C0243026
:10241000310509F4E1C02DC18DA09EA0AFA0B8A4E4
:1024200039E6830E911CA11CB11CA9A1BAA18D9201
:102430009D92AD92BC921397BBE4CB0ED11CE11CD4
:10244000F11CEF8DF8A1C082D182E282F382DC011F
:10245000CB010196A11DB11DEBA1FCA1808391834D
:10246000A283B38329853A854B855C85D8012D935A
:102470003D934D935C931397F801E05BFF4F2D85DF
:102480003E854F8558892083318342835383E05BA7
:10249000FF4F63968CAD9DADAEADBFAD63978083AE
:1024A0009183A283B383E5C08DA09EA0AFA0B8A402
:1024B000A1EC8A0E911CA11CB11CE9A1FAA1808299
:1024C0009182A282B382FBE4CF0ED11CE11CF11CED
:1024D000AF8DB8A1CD92DD92ED92FC921397DC0105
:1024E000CB010396A11DB11DEBA1FCA180839183BB
:1024F000A283B383F801E051FF4F89859A85AB85AC
:10250000BC85B05880839183A283B383E05BFF4F87
:102510002D853E854F85588920833183428353839F
:10252000E05BFF4F63968CAD9DADAEADBFAD6397E5
:1025300080839183A283B3839CC08DA09EA0AFA013
:10254000B8A4A3EC8A0E911CA11CB11CE9A1FAA1AC
:1025500080829182A282B38221EE30E040E050E09E
:102560002C193D094E095F09AF8DB8A12D933D93FC
:102570004D935C9313972CE231E040E050E0261B32
:10258000370B480B590BEBA1FCA12083318342830D
:102590005383F801E052FE4F89859A85AB85BC854F
:1025A000B05880839183A283B383E05BFF4F2D8576
:1025B0003E854F8558892083318342835383E05B76
:1025C000FF4F63968CAD9DADAEADBFAD639780837D
:1025D0009183A283B3834DC08DA09EA0AFA0B8A469
:1025E000A9E68A0E911CA11CB11CE9A1FAA1808266
:1025F0009182A282B38221EE30E040E050E02C19BB
:102600003D094E095F09AF8DB8A12D933D934D93C0
:102610005C9313972CE231E040E050E0261B370B2F
:10262000480B590BEBA1FCA12083318342835383D8
:10263000F801E053FD4F29853A854B855C85208361
:10264000318342835383E05BFF4F8D859E85AF8549
:10265000B88980839183A283B383E05BFF4F639645
:102660002CAD3DAD4EAD5FAD63972083318342838A
:1026700053833FEF231A330A49A15AA14C5F5F4F9E
:102680005AA349A38F8D98A1049698A38F8FABA1CD
:10269000BCA11496BCA3ABA30C5F1F4FE9A5FAA580
:1026A0002E163F0609F08ACDE6960FB6F894DEBFE7
:1026B0000FBECDBFDF91CF911F910F91FF90EF9093
:1026C000DF90CF90BF90AF909F908F907F906F9052
:1026D0005F904F903F902F9008952F923F924F928E
:1026E0005F926F927F928F929F92AF92BF92CF92A2
:1026F000DF92EF92FF920F931F93CF93DF93CDB7AB
:10270000DEB7CA54D1090FB6F894DEBF0FBECDBFF5
:1027100029833A834B835C836D837E838F83988781
:1027200025961FAF0EAF2597FCAAEBAAA7964CAC37
:102730005DAC6EAC7FACA79729803A802B813C8141
:1027400027963FAF2EAF27974D815E8129965FAFC9
:102750004EAF29978F8198852B969FAF8EAF2B9781
:10276000112314F40F5F1F4F15950795ABA9BCA952
:10277000A00FB11FBAA7A9A71197BAAFA9AFC101FE
:102780000197029788F4D7FAD094D7F8D094AB96F3
:102790002CAD3DAD4EAD5FADAB975058AB962CAF69
:1027A0003DAF4EAF5FAFAB97C10103970297D0F437
:1027B000A3968CAD9DADAEADBFADA397B058A3961B
:1027C0008CAF9DAFAEAFBFAFA397AF962CAD3DAD75
:1027D0004EAD5FADAF975058AF962CAF3DAF4EAFFB
:1027E0005FAFAF9725964EAD5FAD2597BA018827AD
:1027F00077FD8095982F0E94605169877A878B8733
:102800009C87A6019501AB966CAD7DAD8EAD9FAD5D
:10281000AB970E94FA4F29853A854B855C850E94CB
:10282000C5506BA77CA78DA79EA7A3962CAD3DADE9
:102830004EAD5FADA397AF966CAD7DAD8EAD9FAD48
:10284000AF970E94FA4F29853A854B855C850E9497
:10285000C5506FA778AB89AB9AAB60915801709166
:102860005901882777FD8095982F0E9460516987CC
:102870007A878B879C87B801882777FD8095982F6A
:102880000E9460516D877E878F87988BE3962CAD71
:102890003DAD4EAD5FADE39769857A858B859C85AF
:1028A0000E94FB4FA30192010E94FA4F2D853E85A5
:1028B0004F8558890E94C5506BAF7CAF8DAF9EAFDE
:1028C000A3019201E3966CAD7DAD8EAD9FADE39714
:1028D0000E94FA4F29853A854B855C850E94FA4F04
:1028E0002D853E854F8558890E94C55023966CAF33
:1028F0007DAF8EAF9FAF23978BA99CA9A9ADBAAD31
:10290000A817B9070CF4D3C224E12796EEADFFADAA
:1029100027972E9FC0012F9F900D11244BA95CA9D2
:10292000840F951F880F991F880F991FDC01AC5ADF
:10293000BF4EBAA3A9A32996EEADFFAD29972E9F4E
:10294000C0012F9F900D1124840F951F880F991F90
:10295000880F991FAC014C5A5F4E5CA34BA32B967A
:10296000AEADBFAD2B972A9FC0012B9F900D1124B8
:10297000EBA9FCA98E0F9F1F880F991F880F991F25
:102980009C012C5A3F4E8F01000F111F000F111F89
:102990000257134F3E8A2D8A1F013EA32DA3A986FD
:1029A000BA86CB86DC864D865E866F86788A2BA5B6
:1029B0003CA54DA55EA569857A858B859C850E9481
:1029C000FB4F69877A878B879C872FA538A949A9F0
:1029D0005AA9A3966CAD7DAD8EAD9FADA3970E9415
:1029E000FB4FA3966CAF7DAF8EAF9FAFA3972BAD80
:1029F0003CAD4DAD5EAD6D857E858F8598890E941D
:102A0000FB4F6D877E878F87988BA3962CAD3DAD4E
:102A10004EAD5FADA39769857A858B859C850E94B5
:102A20006E5020E030E044E353E40E945B5228ED16
:102A30003FE049E450E40E94C5500E942D516DAB27
:102A40007EAB8FAB98AF2D853E854F855889CA01E7
:102A5000B9010E945B52698B7A8B8B8B9C8B298589
:102A60003A854B855C85CA01B9010E945B526B01B6
:102A70007C01A3962CAD3DAD4EAD5FADA397CA01D1
:102A8000B9010E945B529B01AC01C701B6010E94D3
:102A9000FB4F698F7A8F8B8F9C8F0E94C25220E0F0
:102AA00030E048E452E40E94FA4F6B017C019B0144
:102AB000AC010E945B526D8F7E8F8F8F98A39B011C
:102AC000AC0169897A898B899C890E94FB4F4B01F3
:102AD0005C010E94C2529B01AC016D857E858F8591
:102AE000988990580E94C5500E94EC4F2B013C01E0
:102AF00020E030E048E452E4698D7A8D8B8D9C8D26
:102B00000E94FA4F0E94C2529B01AC01C701B6015C
:102B10000E945B529B01AC0169897A898B899C89EF
:102B20000E94FB4F0E94C2526B017C0120E038E4FE
:102B30004CE855E4C501B4010E94FB4F20E038E0A9
:102B400044E856E40E94FA4F4B015C01A70196014C
:102B5000C701B6010E94FB4F20E030E046E852E496
:102B60000E945B529B01AC01C501B4010E94C5509B
:102B70000E94EC4F9B01AC01C301B2010E94FB4FCC
:102B800024EE3EE245E652E40E945B520E942D5143
:102B90006B017C0129893A894B895C8960E07AE183
:102BA00087EA96E40E94FA4F2D8D3E8D4F8D58A1F5
:102BB0000E94FA4F20E038E148E856E40E94C550F0
:102BC0000E94EC4F20E030E044E353E40E945B526B
:102BD00028ED3FE049E450E40E94C5500E942D5189
:102BE0004D895E894230510509F457C024F44130C3
:102BF000510559F037C1AD89BE89A330B10509F43B
:102C000095C0149709F4E1C02DC18DA89EA8AFA866
:102C1000B8ACB9E68B0E911CA11CB11CE9A1FAA1BC
:102C200080829182A282B382FBE4CF0ED11CE11C90
:102C3000F11CABA1BCA1CD92DD92ED92FC92139759
:102C4000DC01CB010196A11DB11DEDA1FEA1808388
:102C50009183A283B38329853A854B855C85D8010E
:102C60002D933D934D935C931397F801E05BFF4FD9
:102C7000A3962CAD3DAD4EAD5FADA39720833183C0
:102C800042835383E05BFF4F8D859E85AF85B88976
:102C900080839183A283B383E5C08DA89EA8AFA84B
:102CA000B8ACA1EC8A0E911CA11CB11CE9A1FAA13F
:102CB00080829182A282B382FBE4CF0ED11CE11C00
:102CC000F11CABA1BCA1CD92DD92ED92FC921397C9
:102CD000DC01CB010396A11DB11DEDA1FEA18083F6
:102CE0009183A283B383F801E051FF4F89859A85D0
:102CF000AB85BC85B05880839183A283B383E05BAE
:102D0000FF4FA3962CAD3DAD4EAD5FADA397208395
:102D1000318342835383E05BFF4F8D859E85AF8572
:102D2000B88980839183A283B3839CC08DA89EA819
:102D3000AFA8B8ACA3EC8A0E911CA11CB11CE9A1F0
:102D4000FAA180829182A282B38221EE30E040E03B
:102D500050E02C193D094E095F09ABA1BCA12D9390
:102D60003D934D935C9313972CE231E040E050E0AB
:102D7000261B370B480B590BEDA1FEA12083318395
:102D800042835383F801E052FE4F89859A85AB85D3
:102D9000BC85B05880839183A283B383E05BFF4FEF
:102DA000A3962CAD3DAD4EAD5FADA397208331838F
:102DB00042835383E05BFF4F8D859E85AF85B88945
:102DC00080839183A283B3834DC08DA89EA8AFA8B2
:102DD000B8ACA9E68A0E911CA11CB11CE9A1FAA10C
:102DE00080829182A282B38221EE30E040E050E006
:102DF0002C193D094E095F09ABA1BCA12D933D9350
:102E00004D935C9313972CE231E040E050E0261B99
:102E1000370B480B590BEDA1FEA120833183428370
:102E20005383F801E053FD4F29853A854B855C8536
:102E30002083318342835383E05BFF4FA3968CADA5
:102E40009DADAEADBFADA39780839183A283B383C5
:102E5000E05BFF4F2D853E854F8558892083318368
:102E6000428353833FEF231A330A49A15AA14C5F8F
:102E70005F4F5AA349A38BA19CA104969CA38BA34B
:102E8000ADA1BEA11496BEA3ADA30C5F1F4FE9ADCB
:102E9000FAADE215F3050CF08ACD2D883E88A984A1
:102EA000BA84CB84DC844D845E846F8478882BA9BB
:102EB0003CA925964EAD5FAD2597240F351F3CAB41
:102EC0002BAB89A59AA5821793070CF0CCC224E1FD
:102ED0002796AEADBFAD27972A9FC0012B9F900DBF
:102EE0001124E9A5FAA58E0F9F1F880F991F880F3F
:102EF000991FAC014C5A5F4E7A012996AEADBFAD19
:102F000029972A9FC0012B9F900D11248E0F9F1F80
:102F1000880F991F880F991FFC01EC5AFF4EFE8FF6
:102F2000ED8F2B964EAD5FAD2B97249FC001259F53
:102F3000900D1124A9A5BAA58A0F9B1F880F991F70
:102F4000880F991FFC01EC5AFF4EFAA3E9A38D01EB
:102F5000000F111F000F111F0257134FFCA2EBA20D
:102F6000A986BA86CB86DC864D865E866F86788A91
:102F70002BA53CA54DA55EA569857A858B859C858D
:102F80000E94FB4F69877A878B879C872FA538A97A
:102F900049A95AA9A3966CAD7DAD8EAD9FADA397FF
:102FA0000E94FB4FA3966CAF7DAF8EAF9FAFA397F0
:102FB00023962CAD3DAD4EAD5FAD23976D857E85DF
:102FC0008F8598890E94FB4F6D877E878F87988BAE
:102FD000A3962CAD3DAD4EAD5FADA39769857A85C7
:102FE0008B859C850E946E5020E030E044E353E4E2
:102FF0000E945B5228ED3FE049E450E40E94C55036
:103000000E942D516DA37EA38FA398A72D853E8589
:103010004F855889CA01B9010E945B52698B7A8B2E
:103020008B8B9C8B29853A854B855C85CA01B901C0
:103030000E945B526B017C01A3962CAD3DAD4EAD61
:103040005FADA397CA01B9010E945B529B01AC011D
:10305000C701B6010E94FB4F6D8B7E8B8F8B988FC3
:103060000E94C25220E030E048E452E40E94FA4F4D
:103070006B017C019B01AC010E945B52698F7A8FCE
:103080008B8F9C8F9B01AC0169897A898B899C8984
:103090000E94FB4F4B015C010E94C2529B01AC019C
:1030A0006D857E858F85988990580E94C5500E94B5
:1030B000EC4F2B013C0120E030E048E452E46D8904
:1030C0007E898F89988D0E94FA4F0E94C2529B017F
:1030D000AC01C701B6010E945B529B01AC0169893A
:1030E0007A898B899C890E94FB4F0E94C2526B0196
:1030F0007C0120E038E44CE855E4C501B4010E94AD
:10310000FB4F20E038E044E856E40E94FA4F4B01C0
:103110005C01A7019601C701B6010E94FB4F20E0A8
:1031200030E046E852E40E945B529B01AC01C501CD
:10313000B4010E94C5500E94EC4F9B01AC01C30139
:10314000B2010E94FB4F24EE3EE245E652E40E94AB
:103150005B520E942D516B017C0129893A894B8970
:103160005C8960E07AE187EA96E40E94FA4F298D53
:103170003A8D4B8D5C8D0E94FA4F20E038E148E893
:1031800056E40E94C5500E94EC4F20E030E044E33A
:1031900053E40E945B5228ED3FE049E450E40E9472
:1031A000C5500E942D51F2E02F16310409F459C088
:1031B0002CF431E02316310461F038C143E02416C9
:1031C000310409F497C054E02516310409F4E1C034
:1031D0002DC18DA09EA0AFA0B8A4A9E68A0E911C17
:1031E000A11CB11CEBA1FCA180829182A282B382BE
:1031F000FBE4CF0ED11CE11CF11CAD8DBE8DCD9238
:10320000DD92ED92FC921397DC01CB010196A11D9A
:10321000B11DE9A1FAA180839183A283B38329859B
:103220003A854B855C85D8012D933D934D935C93F6
:103230001397F801E05BFF4FA3962CAD3DAD4EAD6B
:103240005FADA3972083318342835383E05BFF4FBD
:103250008D859E85AF85B88980839183A283B38352
:10326000E5C08DA09EA0AFA0B8A4A1EC8A0E911CD1
:10327000A11CB11CEBA1FCA180829182A282B3822D
:10328000FBE4CF0ED11CE11CF11CAD8DBE8DCD92A7
:10329000DD92ED92FC921397DC01CB010396A11D08
:1032A000B11DE9A1FAA180839183A283B383F801C0
:1032B000E051FF4F89859A85AB85BC85B0588083E6
:1032C0009183A283B383E05BFF4FA3962CAD3DAD0A
:1032D0004EAD5FADA3972083318342835383E05B80
:1032E000FF4F8D859E85AF85B88980839183A283AA
:1032F000B3839CC08DA09EA0AFA0B8A4A3EC8A0EFF
:10330000911CA11CB11CEBA1FCA180829182A28224
:10331000B38221EE30E040E050E02C193D094E0927
:103320005F09AD8DBE8D2D933D934D935C931397A7
:103330002CE231E040E050E0261B370B480B590BE4
:10334000E9A1FAA12083318342835383F801E0523B
:10335000FE4F89859A85AB85BC85B0588083918363
:10336000A283B383E05BFF4FA3962CAD3DAD4EAD82
:103370005FADA3972083318342835383E05BFF4F8C
:103380008D859E85AF85B88980839183A283B38321
:103390004DC08DA09EA0AFA0B8A4A9E68A0E911C36
:1033A000A11CB11CEBA1FCA180829182A282B382FC
:1033B00021EE30E040E050E02C193D094E095F0954
:1033C000AD8DBE8D2D933D934D935C9313972CE261
:1033D00031E040E050E0261B370B480B590BE9A1C8
:1033E000FAA12083318342835383F801E053FD4FD8
:1033F00029853A854B855C852083318342835383BD
:10340000E05BFF4FA3968CAD9DADAEADBFADA39776
:1034100080839183A283B383E05BFF4F2D853E853C
:103420004F855889208331834283538349A55AA508
:103430004F5F5F4F5AA749A78BA19CA104969CA3FD
:103440008BA3AD8DBE8D1496BE8FAD8FE9A1FAA171
:103450003496FAA3E9A30C5F1F4F2BA93CA942178E
:10346000530709F085CDC65BDF4F0FB6F894DEBF7A
:103470000FBECDBFDF91CF911F910F91FF90EF90C5
:10348000DF90CF90BF90AF909F908F907F906F9084
:103490005F904F903F902F9008954F925F926F9260
:1034A0007F928F929F92AF92BF92CF92DF92EF92D4
:1034B000FF920F931F93CF93DF93CDB7DEB728977B
:1034C0000FB6F894DEBF0FBECDBF4B835C836D8318
:1034D0007E838F839887EB80FC808D809E80AF8079
:1034E000B88424E12E9DC0012F9D900D1124E09100
:1034F0002001F0912101E80FF91FEE0FFF1FEE0FE1
:10350000FF1FEC5AFF4E4080518062807380E09133
:103510008301F09184018E0F9F1FFC01EE0FFF1FAE
:10352000EE0FFF1FEC5AFF4E80819181841995099F
:10353000BC0122F466277727681B790B882777FD63
:103540008095982F0E9426098B019C01B301A2014E
:10355000C7010E944C0924E1289DC001299D900DBE
:103560001124E0912001F0912101E80FF91FEE0FE5
:10357000FF1FEE0FFF1FEC5AFF4EC080D180E2808C
:10358000F380E0918301F09184018E0F9F1FFC0175
:10359000EE0FFF1FEE0FFF1FEC5AFF4E808191814F
:1035A0008C199D09BC0122F466277727681B790BCB
:1035B000882777FD8095982F0E9426098B019C0112
:1035C000B701A601C4010E944C0924E12A9DC00153
:1035D0002B9D900D1124E0912001F0912101E80F25
:1035E000F91FEE0FFF1FEE0FFF1FEC5AFF4EC080BA
:1035F000D180E280F380E0918301F09184018E0F0D
:103600009F1FFC01EE0FFF1FEE0FFF1FEC5AFF4E36
:10361000808191818C199D09BC0122F4662777274E
:10362000681B790B882777FD8095982F0E942609C3
:103630008B019C01B701A601C5010E944C09289687
:103640000FB6F894DEBF0FBECDBFDF91CF911F91B3
:103650000F91FF90EF90DF90CF90BF90AF909F9031
:103660008F907F906F905F904F90089520913C01D4
:1036700030913D0140913E0150913F0160914001E8
:1036800070914101809142019091430106DF2091A8
:1036900034013091350140913601509137016091EC
:1036A00038017091390180913A0190913B01F5DE2A
:1036B00020912C0130912D0140912E0150912F012C
:1036C000609130017091310180913201909133010C
:1036D000E4DE209124013091250140912601509192
:1036E0002701609128017091290180912A01909110
:1036F0002B01D3DE0C94BD0F08951F920F920FB6CD
:103700000F9211240BB60F922F933F934F935F9319
:103710006F937F938F939F93AF93BF93EF93FF9399
:1037200088EB0E94410880913D0C982F907CE1F439
:10373000282F2F7030E030939D0120939C01807FD3
:1037400090E095958795959587959595879595950D
:10375000879590939B0180939A0181E090E09093EC
:10376000350C8093340C1AC0903861F421E030E0BD
:10377000309399012093980190E09093B901809340
:10378000B8010CC0903C51F4883C31F0803D31F4DC
:1037900081E08093A00102C01092A001FF91EF91FF
:1037A000BF91AF919F918F917F916F915F914F9159
:1037B0003F912F910F900BBE0F900FBE0F901F9057
:1037C00018951F920F920FB60F9211248F939F930B
:1037D0008091810190918201892B69F01092A00162
:1037E00081E090E09093800180937F0110928201AC
:1037F0001092810109C081E08093A00181E090E0F6
:1038000090938201809381019F918F910F900FBEC1
:103810000F901F90189560912C0C70912D0C8AECD4
:1038200090E00E944F0860912E0C70912F0C80ED5B
:1038300090E00E944F086091300C7091310C88ED3F
:1038400090E00E944F086091320C7091330C80EE32
:1038500090E00E944F086091200C7091210C88EE3E
:1038600090E00E944F086091220C7091230C80EF31
:1038700090E00E944F086091240C7091250C88EF15
:1038800090E00E944F086091260C7091270C88E808
:1038900090E00E944F0888E990E00E946908BC010E
:1038A00088E990E00E944F0880E990E00E94690852
:1038B000BC0180E990E00C944F0808958AEC90E0F8
:1038C0000E94690890932D0C80932C0C80ED90E061
:1038D0000E94690890932F0C80932E0C88ED90E045
:1038E0000E9469089093310C8093300C80EE90E038
:1038F0000E9469089093330C8093320C089580E9FC
:1039000090E00E9469089093290C8093280C0895F8
:10391000CF92DF92EF92FF92CF93DF939B01909132
:10392000A101913079F138F0923009F452C093300E
:1039300009F476C09CC0813019F0833091F09AC0B0
:1039400060912E0C70912F0C80914E0190914F013F
:10395000680F791F8091620190916301681B790B58
:1039600094C04091320C5091330C80914E01909153
:103970004F01840F951F6091620170916301681B74
:10398000790B83C08823A1F0823009F076C0609162
:10399000300C7091310C80914E0190914F01680F65
:1039A000791F8091620190916301681B790B6DC052
:1039B00040912C0C50912D0C80914E0190914F0113
:1039C000840F951F6091620170916301681B790BF0
:1039D0005CC08130A1F0833009F052C06091320C9C
:1039E0007091330C80914E0190914F01680F791FB7
:1039F0008091620190916301681B790B46C04091F0
:103A00002E0C50912F0C80914E0190914F01840FFC
:103A1000951F6091620170916301681B790B35C03D
:103A2000882319F0823091F02EC060912C0C709197
:103A30002D0C80914E0190914F01680F791F80915C
:103A4000620190916301681B790B1FC04091300C9B
:103A50005091310C80914E0190914F01840F951F30
:103A60006091620170916301681B790B0EC060E088
:103A700070E00BC060E070E008C060E070E005C07E
:103A800060E070E002C060E070E0232B29F0C0919C
:103A9000280CD091290C02C0C0E0D0E0882777FD27
:103AA0008095982F0E9460512091480130914901E2
:103AB00040914A0150914B010E945B520E942D514E
:103AC0006B017C01BE01882777FD8095982F0E94AD
:103AD000605120914401309145014091460150913F
:103AE00047010E945B5220E030E040E05FE30E942B
:103AF0005B520E942D5196012D33310514F02CE3B9
:103B000030E0CB016D33710514F08CE390E0843C20
:103B10004FEF940714F484EC9FEF243C4FEF3407ED
:103B200014F424EC3FEF30934F1020934E109093F9
:103B3000511080935010909353108093521081E055
:103B400090E09093510180935001DF91CF91FF90CD
:103B5000EF90DF90CF9008954091AC015091AD016E
:103B60008091AE019091AF012091B0013091B101EF
:103B70006091B2017091B301E091A101E13061F077
:103B800028F0E23079F0E33099F018C0892BC1F0C9
:103B9000672BC1F084E023C0232BB1F0452BB1F09B
:103BA00084E01DC0892BA1F0672BA1F084E017C031
:103BB000452B91F0232B91F084E011C084E00FC0DD
:103BC00081E00DC083E00BC082E009C080E007C047
:103BD00081E005C083E003C080E001C082E090E0A6
:103BE000089580917E018130D1F480919601909169
:103BF00097010196909397018093960120919401EB
:103C0000309195018217930754F08091360C809380
:103C1000A10110927E01109297011092960180915D
:103C20007E01823059F5E091A101F0E0EE0FFF1F17
:103C3000E45DF34F809160019091610199230CF450
:103C40000196959587952091620130916301280F27
:103C5000391F81E090E0408151814217530714F0F1
:103C600080E090E090939F0180939E01892B31F03A
:103C700010927E018091360C8093A10108952F92BD
:103C80003F924F925F926F927F928F929F92AF92EC
:103C9000BF92CF92DF92EF92FF920F931F93CF9339
:103CA000DF93CDB7DEB7CC54D1090FB6F894DEBFA1
:103CB0000FBECDBF8BE090E090931F0180931E015B
:103CC0009093651480936414209183013091840152
:103CD000220F331F220F331F225C334FFE01319618
:103CE000AE014B5C5F4FB9019F01FB018081918167
:103CF000A281B381F90181939193A193B1939F0123
:103D0000605B7F4FE417F50781F7F9852696FFAFD3
:103D100026972A8527962FAF27973B8528963FAF72
:103D200028974C8529964FAF29978D819E81AF8129
:103D3000B8859C01AD01505821962CAF3DAF4EAFD8
:103D40005FAF219760915A0170915B01882777FDE1
:103D50008095982F0E9460519F938F937F936F93CC
:103D600029963FAD29973F9328964FAD28974F93BB
:103D700027965FAD27975F9326968FAD26978F93F3
:103D800021969FAD21979F93EFADEF93FEADFF93EB
:103D90002DAD2F9388898F938F858F938E858F93E9
:103DA0008D858F933F934F935F9326963FAD2697D4
:103DB0003F932196ACACBDACCEACDFAC2197E12CEF
:103DC000F12C04E010E020913C0130913D01409144
:103DD0003E0150913F0160914001709141018091FD
:103DE0004201909143010E94E80F2D883E888F8800
:103DF000988C498922964FAF22975A8923965FAFB4
:103E000023978B8924968FAF24979C8925969FAF03
:103E1000259760915A0170915B01882777FD809505
:103E2000982F0E9460519F938F937F936F939F92DF
:103E30008F923F922F922596EFAD2597EF93249680
:103E4000FFAD2497FF9323962FAD23972F932296B0
:103E50003FAD22973F938C8D8F938B8D8F938A8D5F
:103E60008F93898D8F939F928F923F922F9222965C
:103E70003FAD229723962FAD239724969FAD24978D
:103E800025968FAD2597A32EB22EC92ED82E209120
:103E900034013091350140913601509137016091E4
:103EA00038017091390180913A0190913B010E9453
:103EB000E80F89A19AA1ABA1BCA19C01AD0150580A
:103EC0002DAB3EAB4FAB58AF4D8C5E8C6F8C78A05A
:103ED00077FA709477F870940FB6F894DEBF0FBE3F
:103EE000CDBF60915A0170915B01882777FD809565
:103EF000982F0E9460519F938F937F936F9358AD3B
:103F00005F938FA98F939EA99F93EDA9EF937F92C3
:103F10006F925F924F9288A58F938FA18F938EA1FE
:103F20008F938DA18F935F93FFA9FF939F93EF933F
:103F30006301520120912C0130912D0140912E01FD
:103F400050912F01609130017091310180913201C7
:103F5000909133010E94E80F8DA59EA5AFA5B8A949
:103F60009C01AD01505829AF3AAF4BAF5CAF39A5BA
:103F70002A963FAF2A974AA52B964FAF2B975BA562
:103F80002C965FAF2C978CA52D968FAF2D976091B7
:103F90005A0170915B01882777FD8095982F0E94C8
:103FA00060519F938F937F936F939CAD9F93EBADE5
:103FB000EF93FAADFF9329AD2F932D963FAD2D973B
:103FC0003F932C964FAD2C974F932B965FAD2B972D
:103FD0005F932A968FAD2A978F938CA98F938BA985
:103FE0008F938AA98F9389A98F939F93EF93FF93C0
:103FF0002F932A963FAD2A972B962FAD2B972C9671
:104000009FAD2C972D968FAD2D97A32EB22EC92E36
:10401000D82E209124013091250140912601509104
:104020002701609128017091290180912A019091C6
:104030002B010E94E80F60915A0170915B01882763
:1040400077FD8095982F0E946051162F072FF82E2C
:10405000E92E0FB6F894DEBF0FBECDBF9F938F93AE
:104060007F936F9360915C0170915D01882777FD6C
:104070008095982F0E9460519F938F937F936F93A9
:1040800060915E0170915F0171956195710988275A
:1040900077FD8095982F0E9460519F938F937F9317
:1040A0006F93EF92FF920F931F932996FFAD29977D
:1040B000FF9328962FAD28972F9327963FAD2797EC
:1040C0003F9326964FAD26974F932196ACACBDAC4F
:1040D000CEACDFAC21976894EE24E2F8F12C04E03A
:1040E00010E020913C0130913D0140913E01509102
:1040F0003F01609140017091410180914201909196
:1041000043010E946D1360915A0170915B018827F1
:1041100077FD8095982F0E9460519F938F937F9396
:104120006F939F928F923F922F9225965FAD259726
:104130005F932496EFAD2497EF932396FFAD2397DB
:10414000FF9322962FAD22972F939F938F937F9368
:104150006F939F928F923F922F9222963FAD22971C
:1041600023962FAD239724969FAD249725968FAD48
:104170002597A32EB22EC92ED82E2091340130912E
:1041800035014091360150913701609138017091AD
:10419000390180913A0190913B010E94E80F6091B2
:1041A0005A0170915B01882777FD8095982F0E94B6
:1041B00060510FB6F894DEBF0FBECDBF9F938F93B3
:1041C0007F936F9358AD5F93EFA9EF93FEA9FF9391
:1041D0002DA92F937F926F925F924F929F938F930F
:1041E0007F936F935F93EF93FF932F93630152013C
:1041F00020912C0130912D0140912E0150912F01E1
:1042000060913001709131018091320190913301C0
:104210000E94E80F60915A0170915B01882777FD39
:104220008095982F0E946051162F072FF82EE92EA7
:104230009F938F937F936F9360915C0170915D0169
:10424000719561957109882777FD8095982F0E9457
:1042500060519F938F937F936F9360915E017091F4
:104260005F01882777FD8095982F0E9460519F936A
:104270008F937F936F93EF92FF920F931F933CADB9
:104280003F934BAD4F935AAD5F9389AD8F932A9671
:104290003FAD2A972B962FAD2B972C969FAD2C9741
:1042A0002D968FAD2D97A32EB22EC92ED82E6894A1
:1042B000EE24E2F8F12C04E010E02091240130918A
:1042C00025014091260150912701609128017091AC
:1042D000290180912A0190912B010E946D13609118
:1042E0005A0170915B01882777FD8095982F0E9475
:1042F0006051162F072FF82EE92E60915C01709106
:104300005D01882777FD8095982F0E946051D62EF9
:10431000C72EB82EA92E60915E0170915F01719534
:1043200061957109882777FD8095982F0E946051CB
:104330000FB6F894DEBF0FBECDBFEF92FF920F9382
:104340001F93AF92BF92CF92DF929F938F937F93F1
:104350006F93EF92FF920F931F93AF92BF92CF9202
:10436000DF92A62EB72EC82ED92E6894EE24E3F83D
:10437000F12C04E010E020913C0130913D0140918E
:104380003E0150913F016091400170914101809147
:104390004201909143010E94E80F60915A0170918F
:1043A0005B01882777FD8095982F0E946051D62E5B
:1043B000C72EB82EA92E9F938F937F936F936091F2
:1043C0005C0170915D01882777FD8095982F0E9490
:1043D00060519F938F937F936F9360915E01709173
:1043E0005F01882777FD8095982F0E9460519F93E9
:1043F0008F937F936F93AF92BF92CF92DF929F92F2
:104400008F923F922F9222963FAD229723962FAD07
:10441000239724969FAD249725968FAD2597A32E9D
:10442000B22EC92ED82E2091340130913501409101
:1044300036015091370160913801709139018091B6
:104440003A0190913B010E946D1360915A01709165
:104450005B01882777FD8095982F0E946051D62EAA
:10446000C72EB82EA92E0FB6F894DEBF0FBECDBF53
:104470009F938F937F936F9360915C0170915D0127
:10448000719561957109882777FD8095982F0E9415
:1044900060519F938F937F936F9360915E017091B2
:1044A0005F01719561957109882777FD8095982F37
:1044B0000E9460519F938F937F936F93AF92BF92AF
:1044C000CF92DF9238AD3F934FA94F935EA95F9390
:1044D0008DA98F936301520120912C0130912D0100
:1044E00040912E0150912F01609130017091310166
:1044F00080913201909133010E946D1360915A01B5
:1045000070915B01882777FD8095982F0E946051FC
:10451000162F072FF82EE92E60915C0170915D0136
:10452000719561957109882777FD8095982F0E9474
:104530006051D62EC72EB82EA92E60915E017091C3
:104540005F01882777FD8095982F0E946051EF9238
:10455000FF920F931F93AF92BF92CF92DF929F93E0
:104560008F937F936F93EF92FF920F931F93AF926E
:10457000BF92CF92DF92A62EB72EC82ED92E689466
:10458000EE24E3F8F12C04E010E0209124013091B6
:1045900025014091260150912701609128017091D9
:1045A000290180912A0190912B010E94E80F10921D
:1045B00084011092830181E090E090932101809327
:1045C00020010FB6F894DEBF0FBECDBFC45BDF4F36
:1045D0000FB6F894DEBF0FBECDBFDF91CF911F9114
:1045E0000F91FF90EF90DF90CF90BF90AF909F9092
:1045F0008F907F906F905F904F903F902F90089595
:104600008F929F92AF92BF92CF92DF92EF92FF92E2
:104610000F931F93CF93DF93809156019091570191
:10462000EC0199230CF42396D595C795D595C7959C
:10463000019790931F0180931E01CE0101979093E3
:1046400065148093641400915A0110915B0160918C
:104650005C0170915D01882777FD8095982F0E94FD
:104660006051B62EA72E982E892E60915E01709112
:104670005F01719561957109882777FD8095982F65
:104680000E946051C62ED72EE82EF92E6091580157
:1046900070915901600F711F882777FD8095982FC1
:1046A0000E9460519F938F937F936F938F929F92FD
:1046B000AF92BF92FF92EF92DF92CF92B80188271C
:1046C00077FD8095982F0E9460519F938F937F93E1
:1046D0006F938F929F92AF92BF92AC2CBD2CCE2C39
:1046E000DF2CE12CF12C8E0120913C0130913D0119
:1046F00040913E0150913F01609140017091410114
:1047000080914201909143010E94E80F60915A010B
:1047100070915B01882777FD8095982F0E946051EA
:10472000162F072FF82EE92E60915C0170915D0124
:10473000882777FD8095982F0E946051D62EC72E2E
:10474000B82EA92E60915E0170915F01882777FDD8
:104750008095982F0E946051EF92FF920F931F93C4
:10476000AF92BF92CF92DF929F938F937F936F937D
:10477000EF92FF920F931F93AF92BF92CF92DF926F
:10478000A62EB72EC82ED92EE12CF12C8E01209109
:1047900034013091350140913601509137016091DB
:1047A00038017091390180913A0190913B010E944A
:1047B000E80F60915A0170915B01882777FD809521
:1047C000982F0E946051162F072FF82EE92E609126
:1047D0005C0170915D01719561957109882777FD84
:1047E0008095982F0E946051D62EC72EB82EA92EE4
:1047F00020915E0130915F0166277727621B730B62
:10480000882777FD8095982F0E9460512DB73EB77D
:10481000285D3F4F0FB6F8943EBF0FBE2DBFEF92FD
:10482000FF920F931F93AF92BF92CF92DF929F930D
:104830008F937F936F93EF92FF920F931F93AF929B
:10484000BF92CF92DF92A62EB72EC82ED92EE12C82
:10485000F12C8E0120912C0130912D0140912E01DF
:1048600050912F016091300170913101809132019E
:10487000909133010E94E80FC0905A01D0905B01E3
:1048800060915C0170915D01719561957109882756
:1048900077FD8095982F0E946051F62EE72E982E76
:1048A000892E60915E0170915F01882777FD809568
:1048B000982F0E946051062F172FA82EB92E6091B5
:1048C0005801709159016C0D7D1D882777FD8095E9
:1048D000982F0E9460519F938F937F936F938F9235
:1048E0009F92EF92FF92BF92AF921F930F93B601E8
:1048F000882777FD8095982F0E9460519F938F9312
:104900007F936F938F929F92EF92FF929A2D8B2DB0
:10491000A02EB12EC92ED82EE12CF12C8E01209183
:104920002401309125014091260150912701609189
:1049300028017091290180912A0190912B010E94F8
:10494000E80F109284011092830181E090E090932F
:104950002101809320018DB79EB788960FB6F894F9
:104960009EBF0FBE8DBFDF91CF911F910F91FF9022
:10497000EF90DF90CF90BF90AF909F908F90089571
:104980002F923F924F925F926F927F928F929F925F
:10499000AF92BF92CF92DF92EF92FF920F931F934D
:1049A000CF93DF93CDB7DEB72E970FB6F894DEBF67
:1049B0000FBECDBF9C01992314F42D5F3F4FA90179
:1049C00055954795559547955E874D8701979093E7
:1049D0001F0180931E01909365148093641440908E
:1049E000600150906101C20166E070E00E941853BE
:1049F000CB01AA2797FDA095BA2F88879987AA8708
:104A0000BB87C20199230CF401962C01559447945D
:104A1000662457FC6094762C8091A101813009F4C2
:104A20005FC450F0823011F40C940E2E833011F4D8
:104A30000C9461320C94FD3680905C0190905D0185
:104A4000919481949108AA2497FCA094BA2C609127
:104A50005A0170915B01882777FD8095982F0E94FD
:104A60006051F62EE72ED82EC92E60915E0170910E
:104A70005F01882777FD8095982F0E946051362E20
:104A8000272E182F092FCF92DF92EF92FF92C501A8
:104A9000B401640D751D861D971D0E9460519F9382
:104AA0008F937F936F930F931F932F923F92CF9289
:104AB000DF92EF92FF92C501B4016419750986096E
:104AC00097090E9460519F938F937F936F93A32CBC
:104AD000B22CC12ED02EE12CF12C0D851E852091FB
:104AE00024013091250140912601509127016091C8
:104AF00028017091290180912A0190912B010E9437
:104B00006D13C0905C01D0905D01D194C194D10827
:104B1000EE24D7FCE094FE2C60915A0170915B0169
:104B2000882777FD8095982F0E946051A62EB72E7A
:104B3000082F192F60915E0170915F01882777FD22
:104B40008095982F0E94605169837D838E839F8317
:104B50008D849E84880C991C2D843E84280C391CDD
:104B60001F930F93BF92AF92C701B60164197509E5
:104B7000860997090E9460519F938F937F936F934B
:104B80009F819F93AE81AF93BD81BF93E981EF93E6
:104B90001F930F93BF92AF92C301B2016C0D7D1DA5
:104BA0008E1D9F1D0E9460519F938F937F936F93E3
:104BB00039812D819E818F81A32EB22EC92ED82EB0
:104BC000ED84FE84810120912401309125014091E2
:104BD000260150912701609128017091290180914F
:104BE0002A0190912B010E94E80FC0905C01D090A7
:104BF0005D01EE24D7FCE094FE2C60915A01709187
:104C00005B01882777FD8095982F0E946051A62E22
:104C1000B72E082F192F60915E0170915F018827D0
:104C200077FD8095982F0E94605169837D838E83E4
:104C30009F830FB6F894DEBF0FBECDBF1F930F93B7
:104C4000BF92AF92C701B601641975098609970929
:104C50000E9460519F938F937F936F933F813F9307
:104C60004E814F935D815F9389818F931F930F9343
:104C7000BF92AF92C701B601288539854A855B8509
:104C8000621B730B840B950B0E9460519F938F9353
:104C90007F936F9339812D819E818F81A32EB22EB8
:104CA000C92ED82EE12CF12C0D851E8520913401C2
:104CB00030913501409136015091370160913801B2
:104CC0007091390180913A0190913B010E94E80F67
:104CD000C0905C01D0905D01EE24D7FCE094FE2CE6
:104CE00060915A0170915B01882777FD8095982F1C
:104CF0000E946051A62EB72E082F192F60915E01D9
:104D000070915F01882777FD8095982F0E946051F0
:104D100069837D838E839F831F930F93BF92AF928E
:104D2000C701B601640D751D861D971D0E94605157
:104D30009F938F937F936F933F813F934E814F93C8
:104D40005D815F9389818F931F930F93BF92AF9281
:104D5000C701B60164197509860997090E94605157
:104D60009F938F937F936F9339812D819E818F8144
:104D7000A32EB22EC92ED82EED84FE848701209159
:104D800034013091350140913601509137016091E5
:104D900038017091390180913A0190913B010E9454
:104DA0006D13C0905C01D0905D01EE24D7FCE094BF
:104DB000FE2C60915A0170915B01882777FD8095E8
:104DC000982F0E946051A62EB72E082F192F6091A0
:104DD0005E0170915F01882777FD8095982F0E9472
:104DE000605169837D838E839F830FB6F894DEBF05
:104DF0000FBECDBF1F930F93BF92AF92C701B601F5
:104E0000288539854A855B85621B730B840B950B5E
:104E10000E9460519F938F937F936F933F813F9345
:104E20004E814F935D815F9389818F931F930F9381
:104E3000BF92AF92C301B2016C0D7D1D8E1D9F1DEF
:104E40000E9460519F938F937F936F9339812D813F
:104E50009E818F81A32EB22EC92ED82E740184017B
:104E60002091340130913501409136015091370144
:104E7000609138017091390180913A0190913B0124
:104E80000E94E80FC0905C01D0905D01D194C19464
:104E9000D108EE24D7FCE094FE2C60915A01709169
:104EA0005B01882777FD8095982F0E946051A62E80
:104EB000B72E082F192F60915E0170915F017195D7
:104EC00061957109882777FD8095982F0E94605120
:104ED00069837D838E839F831F930F93BF92AF92CD
:104EE000C701B60164197509860997090E946051C6
:104EF0009F938F937F936F939F819F93AE81AF9387
:104F0000BD81BF93E981EF931F930F93BF92AF923F
:104F1000688579858A859B856C0D7D1D8E1D9F1DFD
:104F20000E9460519F938F937F936F9339812D815E
:104F30009E818F81A32EB22EC92ED82EE12CF12C6A
:104F4000840120912C0130912D0140912E0150912E
:104F50002F01609130017091310180913201909167
:104F600033010E94E80FC0905C01D0905D01D194A4
:104F7000C194D108EE24D7FCE094FE2C60915A0134
:104F800070915B01882777FD8095982F0E94605172
:104F9000A62EB72E082F192F60915E0170915F0128
:104FA000719561957109882777FD8095982F0E94EA
:104FB000605169837D838E839F830FB6F894DEBF33
:104FC0000FBECDBF1F930F93BF92AF92C701B60123
:104FD000640D751D861D971D0E9460519F938F93D0
:104FE0007F936F933F813F934E814F935D815F939A
:104FF00089818F931F930F93BF92AF92C701B60120
:1050000064197509860997090E9460519F938F93CF
:105010007F936F9339812D819E818F81A32EB22E34
:10502000C92ED82E74010D851E8520912C0130913A
:105030002D0140912E0150912F016091300170910E
:10504000310180913201909133010E946D13C09023
:105050005C01D0905D01D194C194D108EE24D7FCBD
:10506000E094FE2C60915A0170915B01882777FDD6
:105070008095982F0E946051A62EB72E182F092FC9
:1050800060915E0170915F0171956195710988274A
:1050900077FD8095982F0E946051962E872E8983E8
:1050A0009D830F931F93BF92AF92688579858A8500
:1050B0009B856C0D7D1D8E1D9F1D0E9460519F93D1
:1050C0008F937F936F939D819F93A981AF938F92CD
:1050D0009F920F931F93BF92AF92C301B2016C0DC9
:1050E0007D1D8E1D9F1D0E9460519F938F937F9306
:1050F0006F9399818D81A92CB82CC92ED82E71015E
:105100000D851E8520912C0130912D0140912E019D
:1051100050912F01609130017091310180913201E5
:10512000909133010E94E80FC0905C01D0905D0126
:10513000EE24D7FCE094FE2C60915A0170915B0143
:10514000882777FD8095982F0E946051B62EA72E54
:10515000982E892E60915E0170915F017195619525
:105160007109882777FD8095982F0E946051062F3E
:10517000172F888799830FB6F894DEBF0FBECDBF77
:105180008F929F92AF92BF92C701B60164197509C1
:10519000860997090E9460519F938F937F936F9325
:1051A000F981FF9328852F931F930F938F929F92DE
:1051B000AF92BF92C301B2016C0D7D1D8E1D9F1D6C
:1051C0000E9460519F938F937F936F9398858981FD
:1051D000A02EB12EC92ED82EE12CF12C81012091C8
:1051E0003C0130913D0140913E0150913F01609161
:1051F00040017091410180914201909143010E94D0
:10520000E80FC0905C01D0905D01EE24D7FCE094E3
:10521000FE2C60915A0170915B01882777FD809583
:10522000982F0E946051B62EA72E982E892E60913D
:105230005E0170915F01719561957109882777FD15
:105240008095982F0E946051062F172F8887998389
:105250008F929F92AF92BF92C701B601640D751DE8
:10526000861D971D0E9460519F938F937F936F932C
:1052700039813F9348854F931F930F938F929F924D
:10528000AF92BF92C701B6016419750986099709E3
:105290000E9460519F938F937F936F93988589812C
:1052A000A02EB12EC92ED82E71010D851E852091FC
:1052B0003C0130913D0140913E0150913F01609190
:1052C00040017091410180914201909143010E94FF
:1052D0006D130FB6F894DEBF0FBECDBF0C94FD3634
:1052E00080915E0190915F019195819591099C015A
:1052F000442737FD4095542F29833A834B835C83A1
:1053000060915A0170915B01882777FD8095982FF5
:105310000E946051E62E172F082FF92E60915C0134
:1053200070915D01719561957109882777FD809570
:10533000982F0E946051262E372E882E992E698133
:105340007A818B819C8164197509860997090E946D
:1053500060515B016C01FF920F931F93EF929F923C
:105360008F923F922F9269817A818B819C81640D0B
:10537000751D861D971D0E9460519F938F937F938B
:105380006F93FF920F931F93EF929F928F923F9292
:105390002F92E12CF12C0D851E8520912C0130914E
:1053A0002D0140912E0150912F016091300170919B
:1053B000310180913201909133010E946D138091EF
:1053C0005E0190915F019195819591099C0144271F
:1053D00037FD4095542F29833A834B835C8360913A
:1053E0005A0170915B01882777FD8095982F0E9464
:1053F0006051E62EF72E082F192F60915C017091F5
:105400005D01719561957109882777FD8095982FC9
:105410000E9460516D837E838F839C878D849E84E0
:10542000880C991C2D843E84280C391C69817A8152
:105430008B819C81640D751D861D971D0E94605196
:105440005B016C011F930F93FF92EF923C853F939A
:105450004F814F935E815F938D818F9369817A81B4
:105460008B819C8164197509860997090E94605196
:105470009F938F937F936F931F930F93FF92EF925E
:105480009C859F93AF81AF93BE81BF93ED81EF93D6
:10549000ED84FE84810120912C0130912D014091F9
:1054A0002E0150912F016091300170913101809156
:1054B0003201909133010E94E80F80915E0190913A
:1054C0005F019C01442737FD4095542F29833A837F
:1054D0004B835C8360915A0170915B01882777FD53
:1054E0008095982F0E946051E62EF72E082F192FD5
:1054F00060915C0170915D017195619571098827DA
:1055000077FD8095982F0E9460516D837E838F83F5
:105510009C870FB6F894DEBF0FBECDBF69817A813C
:105520008B819C81288539854A855B85621B730B3D
:10553000840B950B0E9460515B016C011F930F93CC
:10554000FF92EF923C853F934F814F935E815F9333
:105550008D818F9369817A818B819C816419750912
:10556000860997090E9460519F938F937F936F9351
:105570001F930F93FF92EF929C859F93AF81AF9300
:10558000BE81BF93ED81EF93E12CF12C0D851E853B
:10559000209124013091250140912601509127014D
:1055A000609128017091290180912A0190912B012D
:1055B0000E94E80F80915E0190915F019C01442759
:1055C00037FD4095542F29833A834B835C83609148
:1055D0005A0170915B01882777FD8095982F0E9472
:1055E0006051E62EF72E082F192F60915C01709103
:1055F0005D01719561957109882777FD8095982FD8
:105600000E9460516D837E838F839C8769817A813C
:105610008B819C8164197509860997090E946051E4
:105620005B016C011F930F93FF92EF923C853F93B8
:105630004F814F935E815F938D818F9369817A81D2
:105640008B819C81640D751D861D971D0E94605184
:105650009F938F937F936F931F930F93FF92EF927C
:105660009C859F93AF81AF93BE81BF93ED81EF93F4
:10567000ED84FE8487012091240130912501409121
:105680002601509127016091280170912901809194
:105690002A0190912B010E946D1380915E019091DF
:1056A0005F019C01442737FD4095542F29833A839D
:1056B0004B835C8360915A0170915B01882777FD71
:1056C0008095982F0E946051E62EF72E082F192FF3
:1056D00060915C0170915D017195619571098827F8
:1056E00077FD8095982F0E9460516D837E838F8314
:1056F0009C870FB6F894DEBF0FBECDBF69817A815B
:105700008B819C81640D751D861D971D0E946051C3
:105710005B016C011F930F93FF92EF925C855F9387
:105720008F818F939E819F93AD81AF9369817A81A1
:105730008B819C81288539854A855B85621B730B2B
:10574000840B950B0E9460519F938F937F936F936F
:105750001F930F93FF92EF923C853F934F814F939E
:105760005E815F938D818F93740184012091240168
:105770003091250140912601509127016091280127
:105780007091290180912A0190912B010E94E80FCC
:1057900080915E0190915F019195819591099C01A5
:1057A000442737FD4095542F29833A834B835C83EC
:1057B00060915A0170915B01882777FD8095982F41
:1057C0000E946051E62EF72E082F192F60915C0180
:1057D00070915D01882777FD8095982F0E94605118
:1057E0006D837E838F839C87688579858A859B8579
:1057F00029813A814B815C81620F731F841F951F41
:105800000E9460515B016C011F930F93FF92EF9216
:105810003C853F934F814F935E815F938D818F9342
:1058200069817A818B819C81641975098609970940
:105830000E9460519F938F937F936F931F930F9359
:10584000FF92EF929C859F93AF81AF93BE81BF93F0
:10585000ED81EF93E12CF12C840120913C013091FA
:105860003D0140913E0150913F0160914001709196
:10587000410180914201909143010E94E80F809183
:105880005E0190915F019195819591099C0144275A
:1058900037FD4095542F29833A834B835C83609175
:1058A0005A0170915B01882777FD8095982F0E949F
:1058B0006051E62EF72E082F192F60915C01709130
:1058C0005D01882777FD8095982F0E9460516D8338
:1058D0007E838F839C870FB6F894DEBF0FBECDBF4B
:1058E00069817A818B819C81641975098609970980
:1058F0000E9460515B016C011F930F93FF92EF9226
:105900005C855F938F818F939E819F93AD81AF93D1
:1059100069817A818B819C81640D751D861D971D1F
:105920000E9460519F938F937F936F931F930F9368
:10593000FF92EF92BC85BF93EF81EF93FE81FF93BF
:105940002D812F9374010D851E8520913C0130918E
:105950003D0140913E0150913F01609140017091A5
:10596000410180914201909143010E946D13809109
:105970005E0190915F019195819591099C01442769
:1059800037FD4095542F29833A834B835C83609184
:105990005A0170915B01882777FD8095982F0E94AE
:1059A0006051E62EF72E082F192F60915C0170913F
:1059B0005D01882777FD8095982F0E9460516D8347
:1059C0007E83882E992E69817A818B819C81640DDA
:1059D000751D861D971D0E9460515B016C011F9310
:1059E0000F93FF92EF929F928F923E813F934D8152
:1059F0004F9369817A818B819C81288539854A857D
:105A00005B85620F731F841F951F0E9460519F93D7
:105A10008F937F936F931F930F93FF92EF929F92B9
:105A20008F923E813F934D814F9371010D851E856D
:105A300020913C0130913D0140913E0150913F0148
:105A40006091400170914101809142019091430128
:105A50000E94E80F80915E0190915F019C014427B4
:105A600037FD4095542F288739874A875B87609197
:105A70005A0170915B01882777FD8095982F0E94CD
:105A80006051E62EF72E182F092F60915C0170915E
:105A90005D01882777FD8095982F0E94605169836A
:105AA0007D83882E992E0FB6F894DEBF0FBECDBF32
:105AB000688579858A859B85640D751D861D971D72
:105AC0000E9460515B016C010F931F93FF92EF9254
:105AD0009F928F925D815F9389818F93688579858D
