S0150000546573745F736572766F5F76312E73726563DB
S113000070C000008DC000000C94611389C0000012
S113001087C0000085C0000083C0000081C00000CC
S11300207FC000007DC000007BC0000079C00000DC
S113003077C0000075C0000073C0000071C00000EC
S11300406FC000006DC000006CC1000069C00000FA
S113005067C0000065C0000063C0000061C000000C
S11300605FC000005DC000005BC0000059C000001C
S113007057C0000055C0000053C0000051C000002C
S11300804FC000004DC000004BC00000084AD73BE1
S11300903BCE016E84BCBFFDC12F3D6C74319ABD53
S11300A056833DDA3D00C77F11BED9E4BB4C3E9177
S11300B06BAAAABE000000803F072C7AA5BA6CC5C3
S11300C090DA3B9365FC8BBC53F810FD3C5692834D
S11300D04DBD879D3AB63DCBC9BF5BBE73DA0FC930
S11300E03F0011241FBECFEFD0E4DEBFCDBF11E02F
S11300F0A0E0B1E0E6EAFAE400E00BBF02C007903A
S11301000D92AA33B107D9F728E0AAE3B1E001C000
S11301101D92AD3BB207E1F70E94B1210C94512529
S11301206FCF85B5846085BD16BCEEE6F0E08081B6
S11301308160808378941092BC0808958634910578
S113014009F487C0BCF48E31910509F44EC034F42F
S11301508A30910581F14497D9F10895823391054C
S113016009F45DC08C33910509F466C0889709F0E1
S1130170D7C048C0883C910509F49FC06CF48A3507
S1130180910509F480C08436910509F489C080354D
S1130190910509F0C5C06AC0803921E0920709F4CD
S11301A0A6C0843F21E0920709F4AEC08C3291408E
S11301B009F0B6C08FC082E090E09093270180934D
S11301C0260181E790E0909325018093240108950E
S11301D084E090E0909327018093260182EE90E0E2
S11301E09093250180932401089587E090E09093F3
S11301F027018093260183E590E090932501809365
S11302002401089589E090E09093270180932601CA
S113021084EC90E0909325018093240108958CE070
S113022090E0909327018093260185E390E09093DA
S113023025018093240108958EE090E09093270196
S11302408093260186EA90E090932501809324010F
S1130250089581E190E0909327018093260187E13E
S113026090E09093250180932401089583E190E028
S1130270909327018093260188E890E090932501CC
S113028080932401089585E190E090932701809361
S1130290260189EF90E0909325018093240108952D
S11302A088E190E090932701809326018AE690E00C
S11302B09093250180932401089580E390E0909326
S11302C027018093260184ED90E09093250180938B
S11302D02401089589E490E09093270180932601F6
S11302E08EE390E09093250180932401089581E6A4
S11302F090E0909327018093260188EA90E0909300
S113030025018093240108958AE790E090932701C2
S11303108093260182E190E090932501809324014B
S113032008951F920F920FB60F9211248F9380910C
S1130330BC088F5F8093BC088F910F900FBE0F9005
S11303401F90189584E08AB91BB81092C5001092CA
S1130350C40088E18093C10086E08093C2000895C0
S1130360E0ECF0E0908195FFFDCF8093C600089506
S1130370CF92EF92FF920F931F93CF93DF93C82FE7
S1130380D62F142FF22E84E08BB9E0ECF0E08081BC
S113039080838FEFE5DF8FEFE3DF8C2FE1DF87E0F2
S11303A0DFDF8D2FDDDF812FDBDF8F2DD9DF802F86
S11303B0D7DF8E2DD5DF8C2DD3DFF89487E08C0D1D
S11303C0E80E0E0DF00E1F0DD10F8D2F8C0F8095A2
S11303D0C7DFE0ECF0E0808186FFFDCF1BB87894A6
S11303E0DF91CF911F910F91FF90EF90CF900895DF
S11303F0E0ECF0E080818823ECF78091C60008955A
S1130400FF920F931F93CF93DF93F2DFF1DFF0DFBF
S1130410EFDFF82EEDDF82E08F15A8F4C0E0D0E026
S113042000E010E0E5DF282F30E00C2E02C0220FA0
S1130430331F0A94E2F7020F131FFA94289682E0FE
S1130440F812F0CF02C000E010E0D2DFC801DF9163
S1130450CF911F910F91FF9008954F925F926F92E9
S11304607F928F929F92AF92BF92CF92DF92EF9240
S1130470FF920F931F93CF93DF93EC0168017901EF
S11304804D3281E058076105710508F03DC0AFEFBA
S1130490B3E09A01AB010E9416252CE231E040E062
S11304A050E00E94FA2449015A019924AA24BB2449
S11304B0432E512C82E7C816D104E104F104A4F4BC
S11304C0AFEFB3E0A70196010E94162522E730E0C2
S11304D040E050E00E94FA2479018A01FF240027B9
S11304E01127432F50E006C040E050E0BA01E12C50
S11304F0F12C87016A01820194014EE150E063E02E
S113050070E0CE0135DF7CDFDF91CF911F910F9139
S1130510FF90EF90DF90CF90BF90AF909F908F901F
S11305207F906F905F904F9008954F925F926F927B
S11305307F928F929F92AF92BF92CF92DF92EF926F
S1130540FF920F931F93CF93DF93CDB7DEB76097DE
S11305500FB6F894DEBF0FBECDBF2B013C0149019D
S11305605A01E982FA820B831C83860190580E9407
S11305707C226D877E878F87988B29813A814B8176
S11305805C81CA01B9010E943D246B017C01A30175
S11305909201C301B2010E943D242B013C01A5013B
S11305A09401C501B4010E943D249B01AC01C30127
S11305B0B2010E9409222B013C010E94A42420E0E4
S11305C030E048E452E40E9408224B015C019B01A4
S11305D0AC010E943D246D837E838F8398879B01A9
S11305E0AC01C701B6010E94092269877A878B870B
S11305F09C870E94A4249B01AC0169817A818B8130
S11306009C8190580E94CF220E94FA2169837A83A8
S11306108B839C8320E030E048E452E4C301B201C0
S11306200E9408220E94A4249B01AC01C501B401CC
S11306300E943D249B01AC01C701B6010E9409221E
S11306400E94A4242B013C0120E038E44CE855E44A
S113065069857A858B859C850E94092220E038E093
S113066044E856E40E9408224B015C01A301920174
S1130670C301B2010E94092220E030E046E852E4BE
S11306800E943D249B01AC01C501B4010E94CF220C
S11306900E94FA212B013C01A701960160E07AE156
S11306A087EA96E40E9408222D813E814F81588575
S11306B00E94082220E038E148E856E40E94CF2254
S11306C00E94FA214B015C016801EE24D7FCE094FE
S11306D0FE2C20E030E044E353E46D857E858F8575
S11306E098890E943D2428ED3FE049E450E40E94AB
S11306F0CF220E943723AB01BC0147595F4F6F4F94
S11307007F4F9701860182E090E0A7DEA30192016A
S113071069817A818B819C810E94092224EE3EE2C8
S113072045E652E40E943D240E943723AB01BC01FC
S1130730455B5F4F6F4F7F4F9701860184E090E0E8
S11307408CDE20E030E044E353E4C501B4010E94B0
S11307503D2428ED3FE049E450E40E94CF220E946A
S11307603723AB01BC014F5F5F4F6F4F7F4F970142
S1130770860186E090E071DE60960FB6F894DEBFE5
S11307800FBECDBFDF91CF911F910F91FF90EF90DE
S1130790DF90CF90BF90AF909F908F907F906F909D
S11307A05F904F9008954F925F926F927F928F92D5
S11307B09F92AF92BF92CF92DF92EF92FF920F93EC
S11307C01F93CF93DF93CDB7DEB760970FB6F8943E
S11307D0DEBF0FBECDBF2B013C0149015A01E982A6
S11307E0FA820B831C83860190580E947C226D87B9
S11307F07E878F87988B29813A814B815C81CA01DE
S1130800B9010E943D246B017C01A3019201C30143
S1130810B2010E943D242B013C01A5019401C501B4
S1130820B4010E943D249B01AC01C301B2010E94AA
S113083009222B013C010E94A42420E030E048E47A
S113084052E40E9408224B015C019B01AC010E940E
S11308503D246D837E838F8398879B01AC01C70100
S1130860B6010E94092269877A878B879C870E9438
S1130870A4249B01AC0169817A818B819C8190586D
S11308800E94CF220E94FA2169837A838B839C83FE
S113089020E030E048E452E4C301B2010E9408229F
S11308A00E94A4249B01AC01C501B4010E943D2413
S11308B09B01AC01C701B6010E9409220E94A42435
S11308C02B013C0120E038E44CE855E469857A8545
S11308D08B859C850E94092220E038E044E856E498
S11308E00E9408224B015C01A3019201C301B201E1
S11308F00E94092220E030E046E852E40E943D24B0
S11309009B01AC01C501B4010E94CF220E94FA21CF
S11309102B013C01A701960160E07AE187EA96E4A5
S11309200E9408222D813E814F8158850E94082211
S113093020E038E148E856E40E94CF220E94FA21E0
S11309404B015C016801EE24D7FCE094FE2C20E00E
S113095030E044E353E46D857E858F8598890E9459
S11309603D2428ED3FE049E450E40E94CF220E9458
S11309703723AB01BC014F535F4F6F4F7F4F97013C
S1130980860188E090E069DDA301920169817A81A2
S11309908B819C810E94092224EE3EE245E652E4CA
S11309A00E943D240E943723AB01BC01455B5F4F8D
S11309B06F4F7F4F970186018AE090E04EDD20E083
S11309C030E044E353E4C501B4010E943D2428ED22
S11309D03FE049E450E40E94CF220E943723AB0158
S11309E0BC014D5F5F4F6F4F7F4F970186018CE0D5
S11309F090E033DD60960FB6F894DEBF0FBECDBF36
S1130A00DF91CF911F910F91FF90EF90DF90CF90E6
S1130A10BF90AF909F908F907F906F905F904F901A
S1130A2008954F925F926F927F928F929F92AF92AE
S1130A30BF92CF92DF92EF92FF920F931F93CF93C7
S1130A40DF93CDB7DEB760970FB6F894DEBF0FBE65
S1130A50CDBF2B013C0149015A01E982FA820B8383
S1130A601C83860150580E947C226D877E878F8765
S1130A70988B29813A814B815C81CA01B9010E941A
S1130A803D246B017C01A3019201C301B2010E94C8
S1130A903D242B013C01A5019401C501B4010E9430
S1130AA03D249B01AC01C301B2010E9409222B0128
S1130AB03C010E94A42420E030E048E452E40E9477
S1130AC008224B015C019B01AC010E943D246D8313
S1130AD07E838F8398879B01AC01C701B6010E9476
S1130AE0092269877A878B879C870E94A4249B01AB
S1130AF0AC0169817A818B819C8190580E94CF22BC
S1130B000E94FA2169837A838B839C8320E030E0FE
S1130B1048E452E4C301B2010E9408220E94A424C2
S1130B209B01AC01C501B4010E943D249B01AC01B1
S1130B30C701B6010E9409220E94A4242B013C0192
S1130B4020E038E44CE855E469857A858B859C85FA
S1130B500E94092220E038E044E856E40E9408227A
S1130B604B015C01A3019201C301B2010E9409225D
S1130B7020E030E046E852E40E943D249B01AC01B1
S1130B80C501B4010E94CF220E94FA212B013C012D
S1130B90A701960160E07AE187EA96E40E940822C0
S1130BA02D813E814F8158850E94082220E038E142
S1130BB048E856E40E94CF220E94FA214B015C01CE
S1130BC06801EE24D7FCE094FE2C20E030E044E3FE
S1130BD053E46D857E858F8598890E943D2428ED98
S1130BE03FE049E450E40E94CF220E943723AB0146
S1130BF0BC014D535F4F6F4F7F4F9701860181E0DA
S1130C0090E02BDCA301920169817A818B819C8124
S1130C100E94092224EE3EE245E652E40E943D246D
S1130C200E9437230F2EF1EE4F2E512C612C712C84
S1130C30F02D93018201061B170B280B390BB90108
S1130C40A8019701860183E090E007DC20E030E012
S1130C5044E353E4C501B4010E943D2428ED3FE080
S1130C6049E450E40E94CF220E9437230F2EFCE275
S1130C708F2E99249394A12CB12CF02D95018401ED
S1130C80061B170B280B390BB901A8019701860124
S1130C9085E090E0E2DB60960FB6F894DEBF0FBE0D
S1130CA0CDBFDF91CF911F910F91FF90EF90DF9017
S1130CB0CF90BF90AF909F908F907F906F905F90F8
S1130CC04F9008954F925F926F927F928F929F926E
S1130CD0AF92BF92CF92DF92EF92FF920F931F9346
S1130CE0CF93DF93CDB7DEB760970FB6F894DEBF2E
S1130CF00FBECDBF2B013C0149015A01E982FA82A2
S1130D000B831C83860150580E947C226D877E874A
S1130D108F87988B29813A814B815C81CA01B90103
S1130D200E943D246B017C01A3019201C301B20125
S1130D300E943D242B013C01A5019401C501B4018D
S1130D400E943D249B01AC01C301B2010E9409220F
S1130D502B013C010E94A42420E030E048E452E44A
S1130D600E9408224B015C019B01AC010E943D24BE
S1130D706D837E838F8398879B01AC01C701B60185
S1130D800E94092269877A878B879C870E94A42402
S1130D909B01AC0169817A818B819C8190580E946E
S1130DA0CF220E94FA2169837A838B839C8320E07B
S1130DB030E048E452E4C301B2010E9408220E94D8
S1130DC0A4249B01AC01C501B4010E943D249B01F4
S1130DD0AC01C701B6010E9409220E94A4242B0180
S1130DE03C0120E038E44CE855E469857A858B853C
S1130DF09C850E94092220E038E044E856E40E94E1
S1130E0008224B015C01A3019201C301B2010E94BB
S1130E10092220E030E046E852E40E943D249B0190
S1130E20AC01C501B4010E94CF220E94FA212B011A
S1130E303C01A701960160E07AE187EA96E40E940A
S1130E4008222D813E814F8158850E94082220E08E
S1130E5038E148E856E40E94CF220E94FA214B016F
S1130E605C016801EE24D7FCE094FE2C20E030E025
S1130E7044E353E46D857E858F8598890E943D24E3
S1130E8028ED3FE049E450E40E94CF220E9437233A
S1130E90AB01BC0147595F4F6F4F7F4F97018601EC
S1130EA087E090E0DADAA301920169817A818B818B
S1130EB09C810E94092224EE3EE245E652E40E940F
S1130EC03D240E9437230F2EF1EE4F2E512C612C1E
S1130ED0712CF02D93018201061B170B280B390B83
S1130EE0B901A8019701860189E090E0B6DA20E013
S1130EF030E044E353E4C501B4010E943D2428EDED
S1130F003FE049E450E40E94CF220E9437230F2E91
S1130F10FCE28F2E99249394A12CB12CF02D9501F1
S1130F208401061B170B280B390BB901A801970183
S1130F3086018BE090E091DA60960FB6F894DEBFFC
S1130F400FBECDBFDF91CF911F910F91FF90EF9016
S1130F50DF90CF90BF90AF909F908F907F906F90D5
S1130F605F904F9008954F925F926F927F928F920D
S1130F709F92AF92BF92CF92DF92EF92FF920F9324
S1130F801F93C0902801D090290160913201709183
S1130F903301882777FD8095982F0E946A232B01BF
S1130FA03C016091340170913501882777FD80956B
S1130FB0982F0E946A234B015C0160913601709165
S1130FC03701719561957109882777FD8095982F70
S1130FD00E946A2383017201A5019401A6DAC090DC
S1130FE02801D09029016091320170913301882742
S1130FF077FD8095982F0E946A232B013C01609114
S1131000340170913501882777FD8095982F0E94CF
S11310106A234B015C016091360170913701882786
S113102077FD8095982F0E946A2383017201A501A0
S11310309401B9DBC0902801D0902901609132015C
S113104070913301882777FD8095982F0E946A2339
S11310502B013C01609134017091350171956195CA
S11310607109882777FD8095982F0E946A234B0188
S11310705C01609136017091370171956195710938
S1131080882777FD8095982F0E946A238301720137
S1131090A5019401C6DCC0902801D090290160917B
S11310A0320170913301882777FD8095982F0E9433
S11310B06A232B013C0160913401709135017195D3
S11310C061957109882777FD8095982F0E946A237E
S11310D04B015C016091360170913701882777FDDF
S11310E08095982F0E946A2383017201A5019401BF
S11310F0E9DD1F910F91FF90EF90DF90CF90BF90AB
S1131100AF909F908F907F906F905F904F900895D5
S11311102F923F924F925F926F927F928F929F9203
S1131120AF92BF92CF92DF92EF92FF920F931F93F1
S1131130CF93DF93CDB7DEB7E8970FB6F894DEBF51
S11311400FBECDBF29833A834B835C836D837E833B
S11311508F839887170161964CAC5DAC6EAC7FAC05
S1131160619729813A81388F2F8B4B815C815E8B0B
S11311704D8B8D809E80EF80F884C9010197029782
S113118088F4D7FAD094D7F8D09469968CAD9DADF5
S1131190AEADBFAD6997B05869968CAF9DAFAEAF99
S11311A0BFAF69978F89988D0397029788F477FA70
S11311B0709477F870946D962CAD3DAD4EAD5FADE7
S11311C06D9750586D962CAF3DAF4EAF5FAF6D9796
S11311D0B801882777FD8095982F0E946A23698734
S11311E07A878B879C87A601950169966CAD7DAD46
S11311F08EAD9FAD69970E94082229853A854B855B
S11312005C850E94CF226DA77EA78FA798ABA30110
S113121092016D966CAD7DAD8EAD9FAD6D970E94C4
S1131220082229853A854B855C850E94CF2269ABCB
S11312307AAB8BAB9CAB65962CAD3DAD4EAD5FAD43
S11312406597A1966CAD7DAD8EAD9FADA1970E94C3
S1131250082229853A854B855C850E94CF226DAB97
S11312607EAB8FAB98AFA101400F511F5CA74BA77A
S1131270241635060CF0D7C224E1AD89BE892A9F15
S1131280C0012B9F900D1124820D931D880F991F6F
S1131290880F991FFC01E450FB4FFCA3EBA3289D8E
S11312A0C001299D900D1124820D931D880F991F53
S11312B0880F991FAC0144505B4F5AA349A32E9D3C
S11312C0C0012F9D900D1124820D931D880F991F2D
S11312D0880F991FDC01A450BB4FBEA3ADA38101AD
S11312E0000F111F000F111F04571E4F3E8A2D8A35
S11312F01801A986BA86CB86DC864D865E866F8603
S1131300788A2DA53EA54FA558A969857A858B8530
S11313109C850E94092269877A878B879C8729A9E3
S11313203AA94BA95CA96D857E858F8598890E9411
S113133009226D877E878F87988B2DA93EA94FA997
S113134058AD65966CAD7DAD8EAD9FAD65970E9431
S1131350092265966CAF7DAF8EAF9FAF65972D85E3
S11313603E854F85588969857A858B859C850E9441
S11313707C2220E030E044E353E40E943D2428ED45
S11313803FE049E450E40E94CF220E9437236FA338
S113139078A789A79AA765962CAD3DAD4EAD5FADF4
S11313A06597CA01B9010E943D24698B7A8B8B8BA6
S11313B09C8B29853A854B855C85CA01B9010E94BD
S11313C03D246B017C012D853E854F855889CA01DA
S11313D0B9010E943D249B01AC01C701B6010E94E2
S11313E00922698F7A8F8B8F9C8F0E94A42420E01E
S11313F030E048E452E40E9408226B017C019B0126
S1131400AC010E943D246D8F7E8F8F8F98A39B012A
S1131410AC0169897A898B899C890E9409224B01D4
S11314205C010E94A4249B01AC0165966CAD7DAD6A
S11314308EAD9FAD659790580E94CF220E94FA21ED
S11314402B013C0120E030E048E452E4698D7A8DC0
S11314508B8D9C8D0E9408220E94A4249B01AC01C8
S1131460C701B6010E943D249B01AC0169897A89B8
S11314708B899C890E9409220E94A4246B017C010F
S113148020E038E44CE855E4C501B4010E94092287
S113149020E038E044E856E40E9408224B015C0155
S11314A0A7019601C701B6010E94092220E030E09D
S11314B046E852E40E943D249B01AC01C501B401FD
S11314C00E94CF220E94FA219B01AC01C301B20108
S11314D00E94092224EE3EE245E652E40E943D24A5
S11314E00E9437236B017C0129893A894B895C89E5
S11314F060E07AE187EA96E40E9408222D8D3E8D11
S11315004F8D58A10E94082220E038E148E856E4B3
S11315100E94CF220E94FA2120E030E044E353E409
S11315200E943D2428ED3FE049E450E40E94CF228C
S11315300E943723EF89F88DE230F10509F45FC08A
S11315401CF4319761F050C12F89388D2330310557
S113155009F49BC02430310509F4EFC045C10FA143
S113156018A529A53AA507591F4F2F4F3F4FABA1E7
S1131570BCA10D931D932D933C931397BBE4CB0E09
S1131580D11CE11CF11CE9A1FAA1C082D182E28242
S1131590F382DC01CB010196A11DB11DEDA1FEA1D9
S11315A080839183A283B38369857A858B859C85A7
S11315B00E943723D1016D937D938D939C93139750
S11315C08101005B1F4F6D857E858F8598890E9400
S11315D03723F8016083718382839383005B1F4FF9
S11315E065966CAD7DAD8EAD9FAD65970E9437233A
S11315F0D8016D937D938D939C931397F5C08FA120
S113160098A5A9A5BAA58F539F4FAF4FBF4FEBA184
S1131610FCA180839183A283B383FBE4CF0ED11C0E
S1131620E11CF11CA9A1BAA1CD92DD92ED92FC922C
S11316301397810100511F4F69857A858B859C859D
S11316400E943723F8016083718382839383005B54
S11316501F4F6D857E858F8598890E943723D80119
S11316606D937D938D939C931397005B1F4F6596A9
S11316706CAD7DAD8EAD9FAD65970E943723F801AB
S11316806083718382839383AFC00FA118A529A5BA
S11316903AA50D531F4F2F4F3F4FABA1BCA10D9344
S11316A01D932D933C93139701EE10E020E030E05E
S11316B00C191D092E093F09E9A1FAA10083118320
S11316C0228333832CE231E040E050E0261B370BC9
S11316D0480B590BEDA1FEA1208331834283538330
S11316E0810100521E4F69857A858B859C850E94F5
S11316F03723D8016D937D938D939C931397005B4F
S11317001F4F6D857E858F8598890E943723F80148
S11317106083718382839383005B1F4F65966CADF6
S11317207DAD8EAD9FAD65970E943723D8016D9333
S11317307D938D939C93139757C00FA118A529A54A
S11317403AA507591F4F2F4F3F4FEBA1FCA1008330
S113175011832283338301EE10E020E030E00C1982
S11317601D092E093F09A9A1BAA10D931D932D931B
S11317703C9313972CE231E040E050E0261B370BFA
S1131780480B590BEDA1FEA120833183428353837F
S1131790810100531D4F69857A858B859C850E9444
S11317A03723D8016D937D938D939C931397005B9E
S11317B01F4F6D857E858F8598890E943723F80198
S11317C06083718382839383005B1F4F65966CAD46
S11317D07DAD8EAD9FAD65970E943723D8016D9383
S11317E07D938D939C931397ED89FE893196FE8B9F
S11317F0ED8B2BA13CA12C5F3F4F3CA32BA349A114
S11318005AA14C5F5F4F5AA349A38DA19EA1049690
S11318109EA38DA394E0290E311CABA5BCA5EA17A9
S1131820FB0709F06ECDE8960FB6F894DEBF0FBE45
S1131830CDBFDF91CF911F910F91FF90EF90DF907B
S1131840CF90BF90AF909F908F907F906F905F905C
S11318504F903F902F9008952F923F924F925F9216
S11318606F927F928F929F92AF92BF92CF92DF92AC
S1131870EF92FF920F931F93CF93DF93CDB7DEB711
S1131880CE54D1090FB6F894DEBF0FBECDBF298365
S11318903A834B835C836D837E838F8398872996F9
S11318A01FAF0EAF2997F8AEEFAAAB964CAC5DAC68
S11318B06EAC7FACAB9729803A802B813C812B9610
S11318C03FAF2EAF2B974D815E812D965FAF4EAF0C
S11318D02D978F8198852F969FAF8EAF2F971123C9
S11318E014F40F5F1F4F15950795AFA9B8ADA00F5E
S11318F0B11FBEA7ADA71197BEAFADAFC101019790
S1131900029788F4D7FAD094D7F8D094AF962CAD38
S11319103DAD4EAD5FADAF975058AF962CAF3DAFD8
S11319204EAF5FAFAF97C10103970297D0F4A7966C
S11319308CAD9DADAEADBFADA797B058A7968CAF9B
S11319409DAFAEAFBFAFA797E3962CAD3DAD4EAD07
S11319505FADE3975058E3962CAF3DAF4EAF5FAF0A
S1131960E39729964EAD5FAD2997BA01882777FD95
S11319708095982F0E946A2369877A878B879C8732
S1131980A6019501AF966CAD7DAD8EAD9FADAF97C1
S11319900E94082229853A854B855C850E94CF22C6
S11319A06FA778AB89AB9AABA7962CAD3DAD4EAD86
S11319B05FADA797E3966CAD7DAD8EAD9FADE3971C
S11319C00E94082229853A854B855C850E94CF2296
S11319D06BAB7CAB8DAB9EAB6091300170913101F0
S11319E0882777FD8095982F0E946A2369877A87D4
S11319F08B879C87B801882777FD8095982F0E9454
S1131A006A236D877E878F87988BE7962CAD3DADD3
S1131A104EAD5FADE79769857A858B859C850E947D
S1131A200922A30192010E9408222D853E854F853B
S1131A3058890E94CF2223966CAF7DAF8EAF9FAFA3
S1131A402397A3019201E7966CAD7DAD8EAD9FAD5A
S1131A50E7970E94082229853A854B855C850E9478
S1131A6008222D853E854F8558890E94CF222796CE
S1131A706CAF7DAF8EAF9FAF27978FA998ADADADFB
S1131A80BEADA817B9070CF4FFC224E12B96EEAD46
S1131A90FFAD2B972E9FC0012F9F900D11244FA9AE
S1131AA058AD840F951F880F991F880F991FDC016B
S1131AB0A450BB4FBEA3ADA32D96EEADFFAD2D97A5
S1131AC02E9FC0012F9F900D1124840F951F880F06
S1131AD0991F880F991FAC0144505B4F58A74FA31F
S1131AE02F96AEADBFAD2F972A9FC0012B9F900DAF
S1131AF01124EFA9F8AD8E0F9F1F880F991F880F2F
S1131B00991F9C0124503B4F3AA729A78F01000F2E
S1131B10111F000F111F04571E4FFE8BED8B3A8EC1
S1131B20298E1801A986BA86CB86DC864D865E8608
S1131B306F86788A2FA538A949A95AA969857A8513
S1131B408B859C850E94092269877A878B879C876D
S1131B502BA93CA94DA95EA9A7966CAD7DAD8EAD10
S1131B609FADA7970E940922A7966CAF7DAF8EAF59
S1131B709FAFA79723962CAD3DAD4EAD5FAD239798
S1131B806D857E858F8598890E9409226D877E8761
S1131B908F87988BA7962CAD3DAD4EAD5FADA797C3
S1131BA069857A858B859C850E947C2220E030E0C3
S1131BB044E353E40E943D2428ED3FE049E450E42B
S1131BC00E94CF220E94372369AF7AAF8BAF9CAFBC
S1131BD02D853E854F855889CA01B9010E943D244F
S1131BE0698B7A8B8B8B9C8B29853A854B855C859D
S1131BF0CA01B9010E943D246B017C01A7962CAD5A
S1131C003DAD4EAD5FADA797CA01B9010E943D2419
S1131C109B01AC01C701B6010E9409226D8F7E8F22
S1131C208F8F98A30E94A42420E030E048E452E47B
S1131C300E9408226B017C019B01AC010E943D249F
S1131C4069A37AA38BA39CA39B01AC0169897A89BC
S1131C508B899C890E9409224B015C010E94A42467
S1131C609B01AC016D857E858F85988990580E9473
S1131C70CF220E94FA212B013C0120E030E048E40D
S1131C8052E46D8D7E8D8F8D98A10E9408220E9452
S1131C90A4249B01AC01C701B6010E943D249B0111
S1131CA0AC0169897A898B899C890E9409220E94E6
S1131CB0A4246B017C0120E038E44CE855E4C50120
S1131CC0B4010E94092220E038E044E856E40E946E
S1131CD008224B015C01A7019601C701B6010E94CD
S1131CE0092220E030E046E852E40E943D249B01B2
S1131CF0AC01C501B4010E94CF220E94FA219B01CC
S1131D00AC01C301B2010E94092224EE3EE245E681
S1131D1052E40E943D240E9437236B017C012989EF
S1131D203A894B895C8960E07AE187EA96E40E940B
S1131D30082229A13AA14BA15CA10E94082220E01B
S1131D4038E148E856E40E94CF220E94FA2120E0BC
S1131D5030E044E353E40E943D2428ED3FE049E4AD
S1131D6050E40E94CF220E943723498D5A8D42307D
S1131D70510509F45FC024F44130510559F05BC1A9
S1131D80A98DBA8DA330B10509F4A6C0149709F43E
S1131D90FBC051C109AD1AAD2BAD3CAD07591F4F66
S1131DA02F4F3F4FEDA1FEA1008311832283338384
S1131DB0FBE4CF0ED11CE11CF11CAFA1B8A5CD9260
S1131DC0DD92ED92FC921397DC01CB010196A11DEB
S1131DD0B11DE9A5FAA580839183A283B3836985A4
S1131DE07A858B859C850E943723D1016D937D93E1
S1131DF08D939C9313978101005B1F4FA7966CAD45
S1131E007DAD8EAD9FADA7970E943723F801608307
S1131E10718382839383005B1F4F6D857E858F85DD
S1131E2098890E943723D8016D937D938D939C9359
S1131E30139701C109AD1AAD2BAD3CAD0F531F4F24
S1131E402F4F3F4FEDA1FEA10083118322833383E3
S1131E50FBE4CF0ED11CE11CF11CAFA1B8A5CD92BF
S1131E60DD92ED92FC921397DC01CB010396A11D48
S1131E70B11DE9A5FAA580839183A283B38381016F
S1131E8000511F4F69857A858B859C850E94372375
S1131E90D8016D937D938D939C931397005B1F4F93
S1131EA0A7966CAD7DAD8EAD9FADA7970E943723ED
S1131EB0F8016083718382839383005B1F4F6D8578
S1131EC07E858F8598890E943723D8016D937D93F1
S1131ED08D939C931397AFC009AD1AAD2BAD3CAD58
S1131EE00D531F4F2F4F3F4FEDA1FEA100831183D0
S1131EF02283338301EE10E020E030E00C191D0949
S1131F002E093F09AFA1B8A50D931D932D933C93C2
S1131F1013972CE231E040E050E0261B370B480BCE
S1131F20590BE9A5FAA520833183428353838101A8
S1131F3000521E4F69857A858B859C850E943723C4
S1131F40D8016D937D938D939C931397005B1F4FE2
S1131F50A7966CAD7DAD8EAD9FADA7970E9437233C
S1131F60F8016083718382839383005B1F4F6D85C7
S1131F707E858F8598890E943723D8016D937D9340
S1131F808D939C93139757C009AD1AAD2BAD3CADFF
S1131F9007591F4F2F4F3F4FEDA1FEA1008311831F
S1131FA02283338301EE10E020E030E00C191D0998
S1131FB02E093F09AFA1B8A50D931D932D933C9312
S1131FC013972CE231E040E050E0261B370B480B1E
S1131FD0590BE9A5FAA520833183428353838101F8
S1131FE000531D4F69857A858B859C850E94372314
S1131FF0D8016D937D938D939C931397005B1F4F32
S1132000A7966CAD7DAD8EAD9FADA7970E9437238B
S1132010F8016083718382839383005B1F4F6D8516
S11320207E858F8598890E943723D8016D937D938F
S11320308D939C931397ED89FE893196FE8BED8BDE
S11320402DA13EA12C5F3F4F3EA32DA34FA158A528
S11320504C5F5F4F58A74FA389A59AA504969AA7EA
S113206089A794E0290E311CADADBEADAE17BF07F4
S11320700CF060CD298C3A8CA984BA84CB84DC849E
S11320804D845E846F847888EFA9F8AD29962EADCF
S11320903FAD2997E20FF31FF8AFEFAB4DA55EA557
S11320A04E175F070CF0F3C224E12B96AEADBFAD23
S11320B02B972A9FC0012B9F900D1124840F951FED
S11320C0880F991F880F991FFC01E450FB4F4F01A3
S11320D02D964EAD5FAD2D97249FC001259F900D89
S11320E01124ADA5BEA58A0F9B1F880F991F880FC9
S11320F0991FFC01E450FB4FFAA3E9A32F964EADC0
S11321005FAD2F97249FC001259F900D11248A0F46
S11321109B1F880F991F880F991FDC01A450BB4F88
S1132120BEA3ADA30DA51EA5000F111F000F111F07
S113213004571E4F3E8E2D8E180198A68FA2A98695
S1132140BA86CB86DC864D865E866F86788A2FA516
S113215038A949A95AA969857A858B859C850E94E5
S1132160092269877A878B879C872BA93CA94DA96B
S11321705EA9A7966CAD7DAD8EAD9FADA7970E946D
S11321800922A7966CAF7DAF8EAF9FAFA797279616
S11321902CAD3DAD4EAD5FAD27976D857E858F85AA
S11321A098890E9409226D877E878F87988BA796CE
S11321B02CAD3DAD4EAD5FADA79769857A858B8516
S11321C09C850E947C2220E030E044E353E40E949A
S11321D03D2428ED3FE049E450E40E94CF220E94D0
S11321E0372369A77AA78BA79CA72D853E854F85A2
S11321F05889CA01B9010E943D24698B7A8B8B8B63
S11322009C8B29853A854B855C85CA01B9010E945E
S11322103D246B017C01A7962CAD3DAD4EAD5FAD69
S1132220A797CA01B9010E943D249B01AC01C701D3
S1132230B6010E9409226D8B7E8B8F8B988F0E9432
S1132240A42420E030E048E452E40E9408226B0118
S11322507C019B01AC010E943D24698F7A8F8B8F96
S11322609C8F9B01AC0169897A898B899C890E9426
S113227009224B015C010E94A4249B01AC016D85E1
S11322807E858F85988990580E94CF220E94FA21DA
S11322902B013C0120E030E048E452E46D897E8962
S11322A08F89988D0E9408220E94A4249B01AC016E
S11322B0C701B6010E943D249B01AC0169897A895A
S11322C08B899C890E9409220E94A4246B017C01B1
S11322D020E038E44CE855E4C501B4010E94092229
S11322E020E038E044E856E40E9408224B015C01F7
S11322F0A7019601C701B6010E94092220E030E03F
S113230046E852E40E943D249B01AC01C501B4019E
S11323100E94CF220E94FA219B01AC01C301B201A9
S11323200E94092224EE3EE245E652E40E943D2446
S11323300E9437236B017C0129893A894B895C8986
S113234060E07AE187EA96E40E940822298D3A8DBA
S11323504B8D5C8D0E94082220E038E148E856E469
S11323600E94CF220E94FA2120E030E044E353E4AB
S11323700E943D2428ED3FE049E450E40E94CF222E
S11323800E943723ED8DFE8DE230F10509F45FC024
S11323901CF4319761F05CC12D8D3E8D23303105E5
S11323A009F4A7C02430310509F4FBC051C109A5C3
S11323B01AA52BA53CA507591F4F2F4F3F4FAFA17F
S11323C0B8A50D931D932D933C931397BBE4CB0EAB
S11323D0D11CE11CF11CE9A1FAA1C082D182E282E4
S11323E0F382DC01CB010196A11DB11DEDA1FEA17B
S11323F080839183A283B38369857A858B859C8549
S11324000E943723D1016D937D938D939C931397F1
S11324108101005B1F4FA7966CAD7DAD8EAD9FAD66
S1132420A7970E943723F801608371838283938383
S1132430005B1F4F6D857E858F8598890E943723A9
S1132440D8016D937D938D939C93139701C109A536
S11324501AA52BA53CA50F531F4F2F4F3F4FEFA19C
S1132460F8A50083118322833383FBE4CF0ED11CB0
S1132470E11CF11CA9A1BAA1CD92DD92ED92FC92CE
S11324801397DC01CB010396A11DB11DEDA1FEA1A3
S113249080839183A283B383810100511F4F698597
S11324A07A858B859C850E943723D8016D937D9313
S11324B08D939C931397005B1F4FA7966CAD7DADD6
S11324C08EAD9FADA7970E943723F8016083718377
S11324D082839383005B1F4F6D857E858F859889EA
S11324E00E943723D8016D937D938D939C9313970A
S11324F0AFC009A51AA52BA53CA50D531F4F2F4FFF
S11325003F4FEFA1F8A5008311832283338301EEAB
S113251010E020E030E00C191D092E093F09A9A1A3
S1132520BAA10D931D932D933C9313972CE231E0A4
S113253040E050E0261B370B480B590BEDA1FEA1E0
S11325402083318342835383810100521E4F698566
S11325507A858B859C850E943723D8016D937D9362
S11325608D939C931397005B1F4FA7966CAD7DAD25
S11325708EAD9FADA7970E943723F80160837183C6
S113258082839383005B1F4F6D857E858F85988939
S11325900E943723D8016D937D938D939C93139759
S11325A057C009A51AA52BA53CA507591F4F2F4FA6
S11325B03F4FEFA1F8A5008311832283338301EEFB
S11325C010E020E030E00C191D092E093F09A9A1F3
S11325D0BAA10D931D932D933C9313972CE231E0F4
S11325E040E050E0261B370B480B590BEDA1FEA130
S11325F02083318342835383810100531D4F6985B6
S11326007A858B859C850E943723D8016D937D93B1
S11326108D939C931397005B1F4FA7966CAD7DAD74
S11326208EAD9FADA7970E943723F8016083718315
S113263082839383005B1F4F6D857E858F85988988
S11326400E943723D8016D937D938D939C931397A8
S1132650EDA5FEA53196FEA7EDA72FA138A52C5F09
S11326603F4F38A72FA349A15AA14C5F5F4F5AA3EC
S113267049A38DA19EA104969EA38DA394E0290E47
S1132680311CAFA9B8ADEA17FB0709F060CDC25BF6
S1132690DF4F0FB6F894DEBF0FBECDBFDF91CF91F1
S11326A01F910F91FF90EF90DF90CF90BF90AF906C
S11326B09F908F907F906F905F904F903F902F905E
S11326C008951F920F920FB60F9211248F93809149
S11326D03801823069F018F4813031F014C083304D
S11326E059F0843069F00FC082E0809338010BC048
S11326F083E08093380107C084E08093380103C0ED
S113270081E0809338018F910F900FBE0F901F903E
S113271018952F923F924F925F926F927F928F9271
S11327209F92AF92BF92CF92DF92EF92FF920F935C
S11327301F93CF93DF93EC0199230CF42196D59545
S1132740C7950197909321018093200180913801CE
S1132750823009F48DC320F4813059F00C949E2109
S1132760833009F416C7843011F40C942E1E0C9493
S11327709E2100912A0110912B01112314F40F5F63
S11327801F4F15950795E0903401F0903501609145
S1132790320170913301882777FD8095982F0E942C
S11327A06A23962E872E782E692E609136017091B9
S11327B03701719561957109882777FD8095982F68
S11327C00E946A23A62EB72EC82ED92E6F927F920E
S11327D08F929F92B8016E0D7F1D882777FD80959B
S11327E0982F0E946A239F938F937F936F93DF9216
S11327F0CF92BF92AF926F927F928F929F92B701C6
S1132800601B710B882777FD8095982F0E946A239F
S11328109F938F937F936F93E12CF12C8E012091E2
S113282018013091190140911A0150911B016091D6
S11328301C0170911D0180911E0190911F010CD803
S1132840E0903401F090350100912A0110912B01A0
S11328508DB79EB744960FB6F8949EBF0FBE8DBF3A
S1132860112314F40F5F1F4F1595079560913201E2
S113287070913301882777FD8095982F0E946A23F1
S1132880962E872E782E692E60913601709137012D
S1132890719561957109882777FD8095982F0E941D
S11328A06A23A62EB72EC82ED92E6F927F928F92AE
S11328B09F92B701601B710B882777FD8095982F35
S11328C00E946A239F938F937F936F93DF92CF929B
S11328D0BF92AF926F927F928F929F92B701600FD7
S11328E0711F882777FD8095982F0E946A239F93F4
S11328F08F937F936F937E018E0120911801309105
S1132900190140911A0150911B0160911C017091B1
S11329101D0180911E0190911F010E948808009161
S11329202A0110912B018DB79EB744960FB6F894E7
S11329309EBF0FBE8DBF112314F40F5F1F4F15955B
S11329400795E0903401F090350160913201709167
S11329503301882777FD8095982F0E946A23962E4D
S1132960872E782E692E6091360170913701882761
S113297077FD8095982F0E946A23A62EB72EC82E25
S1132980D92E6F927F928F929F92B8016E197F0910
S1132990882777FD8095982F0E946A239F938F93B1
S11329A07F936F93DF92CF92BF92AF926F927F9299
S11329B08F929F92662777276E197F09601B710B90
S11329C0882777FD8095982F0E946A239F938F9381
S11329D07F936F93E12CF12C8E01209100013091B3
S11329E00101409102015091030160910401709131
S11329F0050180910601909107010E942C0C009121
S1132A00340110913501E0902A01F0902B018DB72B
S1132A109EB744960FB6F8949EBF0FBE8DBFFF209D
S1132A201CF49FEFE91AF90AF594E79460913201D6
S1132A3070913301882777FD8095982F0E946A232F
S1132A40962E872E782E692E60913601709137016B
S1132A50882777FD8095982F0E946A23A62EB72E8B
S1132A60C82ED92E6F927F928F929F9266277727D6
S1132A70601B710B6E197F09882777FD8095982F4D
S1132A800E946A239F938F937F936F93DF92CF92D9
S1132A90BF92AF926F927F928F929F92B701601B09
S1132AA0710B882777FD8095982F0E946A239F9346
S1132AB08F937F936F937E018E012091000130915B
S1132AC00101409102015091030160910401709150
S1132AD0050180910601909107010E9488080091E8
S1132AE0340110913501E0902A01F0902B018DB74B
S1132AF09EB744960FB6F8949EBF0FBE8DBFFF20BD
S1132B001CF49FEFE91AF90AF594E79460913201F5
S1132B1070913301882777FD8095982F0E946A234E
S1132B20962E872E782E692E60913601709137018A
S1132B30719561957109882777FD8095982F0E947A
S1132B406A23A62EB72EC82ED92E6F927F928F920B
S1132B509F9266277727601B710B6E197F09882760
S1132B6077FD8095982F0E946A239F938F937F937C
S1132B706F93DF92CF92BF92AF926F927F928F92B8
S1132B809F92B701601B710B882777FD8095982F62
S1132B900E946A239F938F937F936F93E12CF12C70
S1132BA08E01209108013091090140910A01509150
S1132BB00B0160910C0170910D0180910E019091B7
S1132BC00F010E94880800912A0110912B018DB7F2
S1132BD09EB744960FB6F8949EBF0FBE8DBF1123C7
S1132BE014F40F5F1F4F15950795E0903401F09092
S1132BF035016091320170913301882777FD80950A
S1132C00982F0E946A23962E872E782E692E609123
S1132C10360170913701719561957109882777FDA7
S1132C208095982F0E946A23A62EB72EC82ED92EDF
S1132C306F927F928F929F92B8016E197F098827B5
S1132C4077FD8095982F0E946A239F938F937F939B
S1132C506F93DF92CF92BF92AF926F927F928F92D7
S1132C609F92662777276E197F09601B710B88274F
S1132C7077FD8095982F0E946A239F938F937F936B
S1132C806F937E018E0120910801309109014091DA
S1132C900A0150910B0160910C0170910D0180911A
S1132CA00E0190910F010E942C0CE0903401F090E1
S1132CB0350100912A0110912B018DB79EB74496DE
S1132CC00FB6F8949EBF0FBE8DBF112314F40F5F8F
S1132CD01F4F159507956091320170913301882734
S1132CE077FD8095982F0E946A23962E872E782E42
S1132CF0692E6091360170913701882777FD8095A0
S1132D00982F0E946A23A62EB72EC82ED92E6F9212
S1132D107F928F929F92B701601B710B882777FD7A
S1132D208095982F0E946A239F938F937F936F932C
S1132D30DF92CF92BF92AF926F927F928F929F92C7
S1132D40B701600F711F882777FD8095982F0E9427
S1132D506A239F938F937F936F93E12CF12C8E01C1
S1132D6020911001309111014091120150911301F1
S1132D7060911401709115018091160190911701D1
S1132D800E94880800912A0110912B018DB79EB7EB
S1132D9044960FB6F8949EBF0FBE8DBF112314F452
S1132DA00F5F1F4F15950795E0903401F0903501A2
S1132DB06091320170913301882777FD8095982FB7
S1132DC00E946A23962E872E782E692E60913601F2
S1132DD070913701882777FD8095982F0E946A2388
S1132DE0A62EB72EC82ED92E6F927F928F929F92C5
S1132DF0B8016E0D7F1D882777FD8095982F0E945E
S1132E006A239F938F937F936F93DF92CF92BF92A6
S1132E10AF926F927F928F929F92B701601B710B5A
S1132E20882777FD8095982F0E946A239F938F931C
S1132E307F936F937E018E012091100130911101D7
S1132E404091120150911301609114017091150188
S1132E5080911601909117010E942C0C8DB79EB79A
S1132E6044960FB6F8949EBF0FBE8DBF0C949E215E
S1132E70E0902A01F0902B01FF201CF49FEFE91A47
S1132E80F90AF594E79400913601109137016091A5
S1132E90320170913301882777FD8095982F0E9425
S1132EA06A23562E472E382E292E609134017091B4
S1132EB03501882777FD8095982F0E946A23962EE6
S1132EC0872E782E692E66277727601B710B6E1963
S1132ED07F09882777FD8095982F0E946A235B01DC
S1132EE06C012F923F924F925F926F927F928F92DA
S1132EF09F92B701601B710B882777FD8095982FEF
S1132F000E946A239F938F937F936F932F923F9294
S1132F104F925F926F927F928F929F92E12CF12C4D
S1132F208E01209118013091190140911A0150919C
S1132F301B0160911C0170911D0180911E019091F3
S1132F401F010E942C0CE0903601F0903701009193
S1132F502A0110912B018DB79EB744960FB6F894B1
S1132F609EBF0FBE8DBF112314F40F5F1F4F159525
S1132F7007956091320170913301882777FD809520
S1132F80982F0E946A23662E572E482E392E609160
S1132F90340170913501882777FD8095982F0E9420
S1132FA06A23262E972E882E792EB8016E197F0952
S1132FB0882777FD8095982F0E946A235B016C0116
S1132FC03F924F925F926F927F928F929F922F9235
S1132FD0662777276E197F09601B710B882777FD99
S1132FE08095982F0E946A239F938F937F936F936A
S1132FF03F924F925F926F927F928F929F922F9205
S11330007E018E01209118013091190140911A011D
S113301050911B0160911C0170911D0180911E0152
S113302090911F010E948808E0902A01F0902B01E2
S11330308DB79EB744960FB6F8949EBF0FBE8DBF52
S1133040FF201CF49FEFE91AF90AF594E794009124
S11330503601109137016091320170913301882754
S113306077FD8095982F0E946A23562E472E382E7E
S1133070292E609134017091350171956195710922
S1133080882777FD8095982F0E946A23962E872E95
S1133090782E692EB8016E197F09882777FD8095EF
S11330A0982F0E946A235B016C012F923F924F92EA
S11330B05F926F927F928F929F92B701600F711F00
S11330C0882777FD8095982F0E946A239F938F937A
S11330D07F936F932F923F924F925F926F927F9262
S11330E08F929F92E12CF12C8E012091000130915E
S11330F0010140910201509103016091040170911A
S1133100050180910601909107010E942C0CE0902A
S11331103601F090370100912A0110912B018DB7EF
S11331209EB744960FB6F8949EBF0FBE8DBF112371
S113313014F40F5F1F4F159507956091320170913C
S11331403301882777FD8095982F0E946A23562E95
S1133150472E382E292E60913401709135017195D6
S113316061957109882777FD8095982F0E946A23BD
S1133170962E872E782E692EB701600F711F88272F
S113318077FD8095982F0E946A235B016C012F9232
S11331903F924F925F926F927F928F929F92B7016C
S11331A0601B710B882777FD8095982F0E946A23F6
S11331B09F938F937F936F932F923F924F925F923F
S11331C06F927F928F929F927E018E0120910001D7
S11331D03091010140910201509103016091040179
S11331E07091050180910601909107010E94880861
S11331F0E0903601F090370100912A0110912B01E3
S11332008DB79EB744960FB6F8949EBF0FBE8DBF80
S1133210112314F40F5F1F4F159507956091320128
S113322070913301882777FD8095982F0E946A2337
S1133230662E572E482E392E609134017091350137
S1133240719561957109882777FD8095982F0E9463
S11332506A23262E972E882E792EB8016E197F099F
S1133260882777FD8095982F0E946A235B016C0163
S11332703F924F925F926F927F928F929F922F9282
S1133280662777276E197F09601B710B882777FDE6
S11332908095982F0E946A239F938F937F936F93B7
S11332A03F924F925F926F927F928F929F922F9252
S11332B0E12CF12C8E0120910801309109014091FB
S11332C00A0150910B0160910C0170910D018091E4
S11332D00E0190910F010E948808E0902A01F0905D
S11332E02B018DB79EB744960FB6F8949EBF0FBEC0
S11332F08DBFFF201CF49FEFE91AF90AF594E794B7
S113330000913601109137016091320170913301BF
S1133310882777FD8095982F0E946A23562E472E82
S1133320382E292E60913401709135017195619583
S11333307109882777FD8095982F0E946A23962E1D
S1133340872E782E692E66277727601B710B6E19DE
S11333507F09882777FD8095982F0E946A235B0157
S11333606C012F923F924F925F926F927F928F9255
S11333709F92B701601B710B882777FD8095982F6A
S11333800E946A239F938F937F936F932F923F9210
S11333904F925F926F927F928F929F927E018E01E5
S11333A0209108013091090140910A0150910B01CB
S11333B060910C0170910D0180910E0190910F01AB
S11333C00E942C0CE0903601F090370100912A0104
S11333D010912B018DB79EB744960FB6F8949EBFFB
S11333E00FBE8DBF112314F40F5F1F4F1595079562
S11333F06091320170913301882777FD8095982F71
S11334000E946A23562E472E382E292E60913401AD
S113341070913501882777FD8095982F0E946A2343
S1133420962E872E782E692EB701600F711F88277C
S113343077FD8095982F0E946A235B016C012F927F
S11334403F924F925F926F927F928F929F92B701B9
S1133450601B710B882777FD8095982F0E946A2343
S11334609F938F937F936F932F923F924F925F928C
S11334706F927F928F929F92E12CF12C8E0120917A
S1133480100130911101409112015091130160918A
S113349014017091150180911601909117010E94F9
S11334A08808E0902A01F0902B018DB79EB74496CE
S11334B00FB6F8949EBF0FBE8DBFFF201CF49FEF84
S11334C0E91AF90AF594E79400913601109137014D
S11334D06091320170913301882777FD8095982F90
S11334E00E946A23562E472E382E292E60913401CD
S11334F070913501882777FD8095982F0E946A2363
S1133500962E872E782E692EB8016E197F0988278A
S113351077FD8095982F0E946A235B016C012F929E
S11335203F924F925F926F927F928F929F92B701D8
S1133530600F711F882777FD8095982F0E946A235A
S11335409F938F937F936F932F923F924F925F92AB
S11335506F927F928F929F927E018E012091100133
S113356030911101409112015091130160911401A5
S11335707091150180911601909117010E942C0CF5
S11335808DB79EB744960FB6F8949EBF0FBE8DBFFD
S1133590D5C6E0903401F090350100912A011091D4
S11335A02B01112314F40F5F1F4F1595079560919C
S11335B0320170913301882777FD8095982F0E94FE
S11335C06A23962E872E782E692E6091360170918B
S11335D03701719561957109882777FD8095982F3A
S11335E00E946A23A62EB72EC82ED92E6F927F92E0
S11335F08F929F92B701601B710B882777FD80958E
S1133600982F0E946A239F938F937F936F93DF92E7
S1133610CF92BF92AF926F927F928F929F92B70197
S1133620600F711F882777FD8095982F0E946A2369
S11336309F938F937F936F93E12CF12C8E012091B4
S113364018013091190140911A0150911B016091A8
S11336501C0170911D0180911E0190911F010E9417
S11336602C0C00912A0110912B018DB79EB7449622
S11336700FB6F8949EBF0FBE8DBF112314F40F5FD5
S11336801F4F15950795E0903401F0903501609136
S1133690320170913301882777FD8095982F0E941D
S11336A06A23962E872E782E692E609136017091AA
S11336B03701719561957109882777FD8095982F59
S11336C00E946A23A62EB72EC82ED92E6F927F92FF
S11336D08F929F92B8016E0D7F1D882777FD80958C
S11336E0982FF8D79F938F937F936F93DF92CF9206
S11336F0BF92AF926F927F928F929F92B701601B9D
S1133700710B882777FD8095982FE4D79F938F932B
S11337107F936F937E018E012091180130911901DE
S113372040911A0150911B0160911C0170911D017F
S113373080911E0190911F010E948808009134011C
S113374010913501E0902A01F0902B018DB79EB7BE
S113375044960FB6F8949EBF0FBE8DBFFF201CF495
S11337609FEFE91AF90AF594E79460913201709198
S11337703301882777FD8095982FACD7962E872E16
S1133780782E692E6091360170913701882777FD74
S11337908095982F9FD7A62EB72EC82ED92E6F921C
S11337A07F928F929F9266277727601B710B6E1909
S11337B07F09882777FD8095982F8CD79F938F93C7
S11337C07F936F93DF92CF92BF92AF926F927F926B
S11337D08F929F92B701601B710B882777FD8095AC
S11337E0982F78D79F938F937F936F93E12CF12C2D
S11337F08E0120910001309101014091020150910C
S1133800030160910401709105018091060190917A
S113381007010E942C0C00912A0110912B018DB7F5
S11338209EB744960FB6F8949EBF0FBE8DBF11236A
S113383014F40F5F1F4F15950795E0903401F09035
S113384035016091320170913301882777FD8095AD
S1133850982F40D7962E872E782E692E60913601A8
S113386070913701882777FD8095982F33D7A62E3E
S1133870B72EC82ED92E6F927F928F929F92B80145
S11338806E197F09882777FD8095982F23D79F93FA
S11338908F937F936F93DF92CF92BF92AF926F9289
S11338A07F928F929F92662777276E197F09601BFC
S11338B0710B882777FD8095982F0CD79F938F9352
S11338C07F936F937E018E0120910001309101015D
S11338D0409102015091030160910401709105012E
S11338E080910601909107010E94880800912A01A5
S11338F010912B018DB79EB744960FB6F8949EBFD6
S11339000FBE8DBF112314F40F5F1F4F159507953C
S1133910E0903401F09035016091320170913301EF
S1133920882777FD8095982FD5D6962E872E782ECA
S1133930692E609136017091370171956195710915
S1133940882777FD8095982FC5D6A62EB72EC82E2A
S1133950D92E6F927F928F929F92B8016E197F0930
S1133960882777FD8095982FB5D69F938F937F9363
S11339706F93DF92CF92BF92AF926F927F928F92AA
S11339809F92662777276E197F09601B710B882722
S113399077FD8095982F9ED69F938F937F936F93F7
S11339A0E12CF12C8E012091080130910901409104
S11339B00A0150910B0160910C0170910D018091ED
S11339C00E0190910F010E9488080091340110911A
S11339D03501E0902A01F0902B018DB79EB74496F3
S11339E00FB6F8949EBF0FBE8DBFFF201CF49FEF4F
S11339F0E91AF90AF594E794609132017091330160
S1133A00882777FD8095982F65D6962E872E782E59
S1133A10692E609136017091370171956195710934
S1133A20882777FD8095982F55D6A62EB72EC82EB9
S1133A30D92E6F927F928F929F9266277727601B71
S1133A40710B6E197F09882777FD8095982F42D6D0
S1133A509F938F937F936F93DF92CF92BF92AF9296
S1133A606F927F928F929F92B701601B710B882790
S1133A7077FD8095982F2ED69F938F937F936F9386
S1133A807E018E01209108013091090140910A01C3
S1133A9050910B0160910C0170910D0180910E0108
S1133AA090910F010E942C0C00912A0110912B017E
S1133AB08DB79EB744960FB6F8949EBF0FBE8DBFC8
S1133AC0112314F40F5F1F4F15950795E0903401EF
S1133AD0F09035016091320170913301882777FDB0
S1133AE08095982FF7D5962E872E782E692E609183
S1133AF0360170913701882777FD8095982FEAD594
S1133B00A62EB72EC82ED92E6F927F928F929F9297
S1133B10B8016E0D7F1D882777FD8095982FDAD523
S1133B209F938F937F936F93DF92CF92BF92AF92C5
S1133B306F927F928F929F92B701601B710B8827BF
S1133B4077FD8095982FC6D59F938F937F936F931E
S1133B50E12CF12C8E012091100130911101409142
S1133B60120150911301609114017091150180911B
S1133B701601909117010E948808E0903401F0909A
S1133B80350100912A0110912B018DB79EB74496FF
S1133B900FB6F8949EBF0FBE8DBF112314F40F5FB0
S1133BA01F4F159507956091320170913301882755
S1133BB077FD8095982F8ED5962E872E782E692E98
S1133BC06091360170913701882777FD8095982F91
S1133BD081D5A62EB72EC82ED92E6F927F928F92A2
S1133BE09F92B701601B710B882777FD8095982FF2
S1133BF071D59F938F937F936F93DF92CF92BF92F0
S1133C00AF926F927F928F929F92B701600F711F54
S1133C10882777FD8095982F5DD59F938F937F9309
S1133C206F937E018E01209110013091110140911A
S1133C30120150911301609114017091150180914A
S1133C401601909117010E942C0C8DB79EB74496D3
S1133C500FB6F8949EBF0FBE8DBF70C3E0903601BF
S1133C60F090370100912A0110912B01112314F4D3
S1133C700F5F1F4F159507956091320170913301C5
S1133C80882777FD8095982F25D5662E572E482EA8
S1133C90392E6091340170913501882777FD809524
S1133CA0982F18D5262E972E882E792EB8016E19A6
S1133CB07F09882777FD8095982F0CD55B016C01CF
S1133CC03F924F925F926F927F928F929F922F9228
S1133CD0662777276E197F09601B710B882777FD8C
S1133CE08095982FF7D49F938F937F936F933F92F0
S1133CF04F925F926F927F928F929F922F92E12CBC
S1133D00F12C8E01209118013091190140911A0172
S1133D1050911B0160911C0170911D0180911E0145
S1133D2090911F010E942C0CE0902A01F0902B012D
S1133D308DB79EB744960FB6F8949EBF0FBE8DBF45
S1133D40FF201CF49FEFE91AF90AF594E794009117
S1133D503601109137016091320170913301882747
S1133D6077FD8095982FB6D4562E472E382E292EBF
S1133D706091340170913501882777FD8095982FE3
S1133D80A9D4962E872E782E692E66277727601B56
S1133D90710B6E197F09882777FD8095982F9AD427
S1133DA05B016C012F923F924F925F926F927F92D0
S1133DB08F929F92B701601B710B882777FD8095C6
S1133DC0982F88D49F938F937F936F932F923F92D2
S1133DD04F925F926F927F928F929F927E018E019B
S1133DE0209118013091190140911A0150911B0141
S1133DF060911C0170911D0180911E0190911F0121
S1133E000E948808E0903601F090370100912A0161
S1133E1010912B018DB79EB744960FB6F8949EBFB0
S1133E200FBE8DBF112314F40F5F1F4F1595079517
S1133E306091320170913301882777FD8095982F26
S1133E4049D4562E472E382E292E60913401709174
S1133E503501719561957109882777FD8095982FB3
S1133E6039D4962E872E782E692EB701600F711FD4
S1133E70882777FD8095982F2DD45B016C012F92B4
S1133E803F924F925F926F927F928F929F92B7016F
S1133E90601B710B882777FD8095982F1BD49F9307
S1133EA08F937F936F932F923F924F925F926F9273
S1133EB07F928F929F92E12CF12C8E012091000130
S1133EC0309101014091020150910301609104017C
S1133ED07091050180910601909107010E942C0CBC
S1133EE0E0902A01F0902B018DB79EB744960FB64F
S1133EF0F8949EBF0FBE8DBFFF201CF49FEFE91AFC
S1133F00F90AF594E7940091360110913701609114
S1133F10320170913301882777FD8095982FDAD389
S1133F20562E472E382E292E60913401709135017A
S1133F30719561957109882777FD8095982FCAD36B
S1133F40962E872E782E692EB8016E197F09882740
S1133F5077FD8095982FBED35B016C012F923F9221
S1133F604F925F926F927F928F929F92B701600FF0
S1133F70711F882777FD8095982FACD39F938F93DB
S1133F807F936F932F923F924F925F926F927F92A3
S1133F908F929F927E018E01209100013091010148
S1133FA04091020150910301609104017091050157
S1133FB080910601909107010E948808E0902A01EF
S1133FC0F0902B018DB79EB744960FB6F8949EBF20
S1133FD00FBE8DBFFF201CF49FEFE91AF90AF59478
S1133FE0E79400913601109137016091320170918C
S1133FF03301882777FD8095982F6CD3562E472E52
S1134000382E292E60913401709135017195619596
S11340107109882777FD8095982F5CD3962E872E7B
S1134020782E692E66277727601B710B6E197F091E
S1134030882777FD8095982F4DD35B016C012F92D3
S11340403F924F925F926F927F928F929F92B701AD
S1134050601B710B882777FD8095982F3BD39F9326
S11340608F937F936F932F923F924F925F926F92B1
S11340707F928F929F92E12CF12C8E012091080166
S11340803091090140910A0150910B0160910C019A
S113409070910D0180910E0190910F010E9488088A
S11340A0E0903601F090370100912A0110912B0124
S11340B08DB79EB744960FB6F8949EBF0FBE8DBFC2
S11340C0112314F40F5F1F4F15950795609132016A
S11340D070913301882777FD8095982FFBD2662E47
S11340E0572E482E392E6091340170913501719507
S11340F061957109882777FD8095982FEBD2262E3C
S1134100972E882E792EB8016E197F09882777FD9E
S11341108095982FDFD25B016C013F924F925F92A2
S11341206F927F928F929F922F92662777276E19B4
S11341307F09601B710B882777FD8095982FCAD261
S11341409F938F937F936F933F924F925F926F925F
S11341507F928F929F922F927E018E01209108016F
S11341603091090140910A0150910B0160910C01B9
S113417070910D0180910E0190910F010E942C0C01
S1134180E0902A01F0902B018DB79EB744960FB6AC
S1134190F8949EBF0FBE8DBFFF201CF49FEFE91A59
S11341A0F90AF594E7940091360110913701609172
S11341B0320170913301882777FD8095982F8AD238
S11341C0562E472E382E292E6091340170913501D8
S11341D0882777FD8095982F7DD2962E872E782E6E
S11341E0692EB8016E197F09882777FD8095982F6D
S11341F071D25B016C012F923F924F925F926F924A
S11342007F928F929F92B701600F711F882777FD6D
S11342108095982F5FD29F938F937F936F932F9264
S11342203F924F925F926F927F928F929F92E12C76
S1134230F12C8E0120911001309111014091120155
S11342405091130160911401709115018091160130
S1134250909117010E948808E0903601F090370190
S113426000912A0110912B018DB79EB744960FB689
S1134270F8949EBF0FBE8DBF112314F40F5F1F4F20
S1134280159507956091320170913301882777FD68
S11342908095982F1FD2562E472E382E292E6091A6
S11342A0340170913501882777FD8095982F12D2BB
S11342B0962E872E782E692EB701600F711F8827DE
S11342C077FD8095982F06D25B016C012F923F9267
S11342D04F925F926F927F928F929F92B701601B71
S11342E0710B882777FD8095982FF4D19F938F9336
S11342F07F936F932F923F924F925F926F927F9230
S11343008F929F927E018E012091100130911101B4
S113431040911201509113016091140170911501A3
S113432080911601909117010E942C0C8DB79EB7B5
S113433044960FB6F8949EBF0FBE8DBFDF91CF9108
S11343401F910F91FF90EF90DF90CF90BF90AF90AF
S11343509F908F907F906F905F904F903F902F90A1
S113436008950E94A201F8948CE080936900E99A70
S113437011B8789485E090E090933B0180933A01E2
S113438086E090E090932301809322010E949100A3
S113439080912E0190912F010E9489130E94B307EE
S11343A080912C0190912D010E949E0080912E01FC
S11343B090912F0199230CF40396959587959595E3
S11343C08795EC012197D0933B01C0933A01209744
S11343D081F080912E0190912F0199230CF4019684
S11343E0959587950E948913D0933B01C0933A0118
S11343F0F0CFFFCF9F939F77A8D10F9000203AF47E
S11344009058A2EA2AED3FE049E450E413D0F4C105
S11344105058BB27AA270ED0EFC1E0D130F0E5D128
S113442020F031F49F3F11F41EF4B0C10EF4E09576
S1134430E7FBA6C1E92FF1D180F3BA17620773072E
S11344408407950718F071F49EF509C20EF4E095FF
S11344500B2EBA2FA02D0B01B90190010C01CA013A
S1134460A0011124FF27591B99F0593F50F4503EE5
S113447068F11A16F040A22F232F342F4427585FD7
S1134480F3CF469537952795A795F0405395C9F7EF
S11344907EF41F16BA0B620B730B840BBAF09150A7
S11344A0A1F0FF0FBB1F661F771F881FC2F70EC046
S11344B0BA0F621F731F841F48F487957795679519
S11344C0B795F7959E3F08F0B3CF9395880F08F002
S11344D09927EE0F97958795089580D158F080E835
S11344E091E009F49EEF81D128F040E851E059F4BD
S11344F05EEF09C04BC1B3C1E92FE0788ED168F3F8
S1134500092E052AC1F3261737074807590738F03B
S11345100E2E07F8E02569F0E025E0640AC0EF6399
S113452007F8009407FADB01B9019D01DC01CA0117
S1134530AD01EF9343D060D10AD05F91552331F0A0
S11345402BED3FE049E450FD49EC63CF0895DF9340
S1134550DD27B92FBF7740E85FE316161706480733
S11345605B0710F4D92F82D19F938F937F936F931E
S113457029D2ECE8F0E00DD13FD12F913F914F913A
S11345805F9187D1DD2349F09058A2EA2AED3FE0FC
S113459049EC5FE3D0785D274DDFDF912DC10CD06E
S11345A02BC123D140F01AD130F021F45F3F19F030
S11345B0E7C0511155C1EAC030D198F39923C9F32A
S11345C05523B1F3951B550BBB27AA276217730715
S11345D0840738F09F5F5F4F220F331F441FAA1FC9
S11345E0A9F333D00E2E3AF0E0E830D09150504089
S11345F0E695001CCAF729D0FE2F27D0660F771F37
S1134600881FBB1F261737074807AB07B0E809F018
S1134610BB0B802DBF01FF2793585F4F2AF09E3FAD
S1134620510568F0ADC01CC15F3FECF3983EDCF36C
S1134630869577956795B795F7959F5FC9F7880F26
S1134640911D9695879597F90895E1E0660F771F78
S1134650881FBB1F621773078407BA0720F0621B09
S1134660730B840BBA0BEE1F88F7E095089504D002
S11346706894B111F5C00895D8D088F09F5790F090
S1134680B92F9927B751A0F0D1F0660F771F881F73
S1134690991F1AF0BA95C9F712C0B13081F0DFD072
S11346A0B1E00895DCC0672F782F8827B85F39F010
S11346B0B93FCCF3869577956795B395D9F73EF4D2
S11346C090958095709561957F4F8F4F9F4F08957A
S11346D0E89409C097FB3EF4909580957095619598
S11346E07F4F8F4F9F4F9923A9F0F92F96E9BB274E
S11346F09395F695879577956795B795F111F8CFCA
S1134700FAF4BB0F11F460FF1BC06F5F7F4F8F4F34
S11347109F4F16C0882311F096E911C0772321F02A
S11347209EE8872F762F05C0662371F096E8862FC2
S113473070E060E02AF09A95660F771F881FDAF719
S1134740880F9695879597F90895DF93CF931F93D4
S11347500F938B01EC01E9EBF0E01BD04DD09801F5
S1134760AE018B01EC0160E070E080E89FE350DE75
S1134770EBD09801AE010F911F91CF91DF9189C0C9
S113478097F99F6780E870E060E008959FEF80EC00
S11347900895DF93CF931F930F93FF92EF92DF92CD
S11347A07B018C01689405C0DA2EEF0172D0FE0102
S11347B0E894A5912591359145915591AEF3EF017A
S11347C039DEFE019701A801DA9479F7DF90EF90C2
S11347D0FF900F911F91CF91DF91089500240A94C7
S11347E01616170618060906089500240A941216C8
S11347F01306140605060895092E0394000C11F4FB
S1134800882352F0BB0F40F4BF2B11F460FF04C0A7
S11348106F5F7F4F8F4F9F4F089557FD9058440F00
S1134820551F59F05F3F71F04795880F97FB991F0B
S113483061F09F3F79F087950895121613061406C8
S1134840551FF2CF4695F1DF08C016161706180655
S1134850991FF1CF86957105610508940895E89430
S1134860BB2766277727CB0197F908959B01AC01F5
S113487060E070E080E89FE392CE0BD0BDCFAEDF66
S113488028F0B3DF18F0952309F07ACF7FCF1124F5
S1134890E7CFC3DFA0F3959FD1F3950F50E0551FE9
S11348A0629FF001729FBB27F00DB11D639FAA2781
S11348B0F00DB11DAA1F649F6627B00DA11D661FD0
S11348C0829F2227B00DA11D621F739FB00DA11DF1
S11348D0621F839FA00D611D221F749F3327A00DAB
S11348E0611D231F849F600D211D822F762F6A2F47
S11348F011249F5750408AF0E1F088234AF0EE0FCC
S1134900FF1FBB1F661F771F881F91505040A9F7D8
S11349109E3F510570F034CFA3CF5F3FECF3983E38
S1134920DCF3869577956795B795F795E7959F5F3F
S1134930C1F7FE2B880F911D9695879597F90895D9
S113494011F40EF423CF41C070DFD0F39923D9F3CF
S1134950CEF39F57550B87FF46D00024A0E640EACC
S1134960900180585695979528F4805C660F771FC0
S1134970881F20F026173707480730F4621B730B93
S1134980840B202931294A2BA695179407942025B6
S113499031254A2758F7660F771F881F20F02617FE
S11349A03707480730F4620B730B840B200D311D5D
S11349B0411DA09581F7B901842F9158880F9695D0
S11349C0879508959B01AC0158CF9F3F31F09150DA
S11349D020F4879577956795B795880F911D9695DF
S11349E0879597F9089591505040660F771F881F57
S11349F0D2F70895052E97FB16F400940FD057FDB7
S1134A0005D01ED007FC02D046F408C0509540954E
S1134A10309521953F4F4F4F5F4F08959095809566
S1134A20709561957F4F8F4F9F4F08952BD0A59F11
S1134A30900DB49F900DA49F800D911D1124089595
S1134A40A1E21A2EAA1BBB1BFD010DC0AA1FBB1F8E
S1134A50EE1FFF1FA217B307E407F50720F0A21B00
S1134A60B30BE40BF50B661F771F881F991F1A946D
S1134A7069F760957095809590959B01AC01BD0197
S1134A80CF010895A29FB001B39FC001A39F700DF1
S1134A90811D1124911DB29F700D811D1124911D42
S1094AA00895F894FFCF15
S1134AA60400070009000B000300010003000500D1
S1134AB6020008000A000C000100020004000600BF
S1134AC6010001003E004900140064005A00080079
S10D4AD63C0056FF3C003C000100C8
S9030000FC
