S0150000546573745F736572766F5F76312E73726563DB
S11300007BC000000C9428150C94711594C000005A
S113001092C0000090C000008EC000008CC00000A0
S11300208AC0000088C0000086C0000084C00000B0
S113003082C0000080C000007EC000007CC00000C0
S11300407AC0000078C0000059C2000074C00000EB
S113005072C0000070C000006EC000006CC00000E0
S11300606AC0000068C0000066C0000064C00000F0
S113007062C0000060C000005EC000005CC0000000
S11300805AC0000058C0000056C00000BC2B5C2BB6
S11300908C2BC52B742B662B7E2BC52BA42BAE2B44
S11300A0962B084AD73B3BCE016E84BCBFFDC12FC3
S11300B03D6C74319ABD56833DDA3D00C77F11BE55
S11300C0D9E4BB4C3E916BAAAABE000000803F0756
S11300D02C7AA5BA6CC590DA3B9365FC8BBC53F8BB
S11300E010FD3C5692834DBD879D3AB63DCBC9BFAA
S11300F05BBE73DA0FC93F0011241FBECFEFD0E4FB
S1130100DEBFCDBF11E0A0E0B1E0E4EAFEE500E02F
S11301100BBF02C007900D92AC33B107D9F729E0A9
S1130120ACE3B1E001C01D92AD38B207E1F70E9423
S1130130962A0C94502F64CF86E081B984E082B96A
S113014080EA84B981E58CBD08958EBD0DB407FEA7
S1130150FDCF8EB580934501089580E18AB91BB81F
S11301601092C5001092C40088E18093C10086E01B
S11301708093C2000895E0ECF0E0908195FFFDCFFC
S11301808093C6000895CF92EF92FF920F931F932E
S1130190CF93DF93C82FD62F142FF22E80E18BB983
S11301A0E0ECF0E0808180838FEFE5DF8FEFE3DF29
S11301B08C2FE1DF87E0DFDF8D2FDDDF812FDBDFB9
S11301C08F2DD9DF802FD7DF8E2DD5DF8C2DD3DF78
S11301D0F89487E08C0DE80E0E0DF00E1F0DD10F74
S11301E08D2F8C0F8095C7DFE0ECF0E0808186FFD7
S11301F0FDCF1BB87894DF91CF911F910F91FF90A1
S1130200EF90CF90089585B5846085BD16BCEEE669
S1130210F0E0808181608083789410928C09089545
S11302208634910509F4ACC0C4F48E31910509F407
S11302305BC03CF48A30910589F1449709F441C0CC
S113024008958233910509F475C08C33910509F43E
S113025084C0889709F02BC15AC0883C910509F4E1
S1130260DBC06CF48A35910509F4B0C0843691057D
S113027009F4BFC08035910509F019C194C08039D3
S113028021E0920709F4EEC0843F21E0920709F4CB
S1130290FCC08C32914009F00AC1D1C08AE090E0E0
S11302A090932C0180932B0182E090E0909327019E
S11302B08093260181E790E09093250180932401A7
S11302C0089584E190E090932C0180932B0184E0C5
S11302D090E0909327018093260182EE90E0909322
S11302E025018093240108958EE190E090932C01E0
S11302F080932B0187E090E090932701809326015F
S113030083E590E09093250180932401089588E289
S113031090E090932C0180932B0189E090E09093DE
S113032027018093260184EC90E09093250180932B
S11303302401089582E390E090932C0180932B0193
S11303408CE090E0909327018093260185E390E070
S1130350909325018093240108958CE390E0909379
S11303602C0180932B018EE090E0909327018093E1
S1130370260186EA90E09093250180932401089554
S113038086E490E090932C0180932B0181E190E02E
S1130390909327018093260187E190E090932501B3
S11303A080932401089580E590E090932C0180933C
S11303B02B0183E190E0909327018093260188E844
S11303C090E0909325018093240108958AE590E0BC
S11303D090932C0180932B0185E190E09093270169
S11303E08093260189EF90E0909325018093240166
S11303F0089584E690E090932C0180932B0188E18A
S113040090E090932701809326018AE690E09093F0
S1130410250180932401089588EC90E090932C01A9
S113042080932B0180E390E0909327018093260131
S113043084ED90E0909325018093240108958CE24B
S113044091E090932C0180932B0189E490E09093A8
S11304502701809326018EE390E0909325018093F9
S11304602401089580E991E090932C0180932B015D
S113047081E690E0909327018093260188EA90E03A
S11304809093250180932401089584EF91E0909343
S11304902C0180932B018AE790E0909327018093AD
S11304A0260182E190E09093250180932401089530
S11304B09B01AC01A8EEB3E00E94012F20912B0117
S11304C030912C01A901440F551F240F351F220F11
S11304D0331F442737FD4095542F0E94DF2E2230CE
S11304E03105410551052CF462E070E080E090E0B4
S11304F00895622F732F842F952F08951F920F92C2
S11305000FB60F9211248F9380918C098F5F809383
S11305108C098F910F900FBE0F901F9018954F92DA
S11305205F926F927F928F929F92AF92BF92CF927F
S1130530DF92EF92FF920F931F93CF93DF93EC011F
S1130540680179014D3281E0580761057105E0F5D4
S1130550AFEFB3E09A01AB010E94012F2CE231E02E
S113056040E050E00E94DF2E49015A019924AA2458
S1130570BB24432E512C82E7C816D104E104F104B4
S1130580A4F4AFEFB3E0A70196010E94012F22E784
S113059030E040E050E00E94DF2E79018A01FF2420
S11305A000271127432F50E006C040E050E0BA0175
S11305B0E12CF12C87016A01820194014EE150E0A3
S11305C063E070E0CE01DFDDDF91CF911F910F91E9
S11305D0FF90EF90DF90CF90BF90AF909F908F905F
S11305E07F906F905F904F9008954F925F926F92BB
S11305F07F928F929F92AF92BF92CF92DF92EF92AF
S1130600FF920F931F93CF93DF93CDB7DEB760971D
S11306100FB6F894DEBF0FBECDBF2B013C014901DC
S11306205A01E982FA820B831C83860190580E9446
S11306304E2C6D877E878F87988B29813A814B81D9
S11306405C81CA01B9010E940F2E6B017C01A301D8
S11306509201C301B2010E940F2E2B013C01A5019E
S11306609401C501B4010E940F2E9B01AC01C3018A
S1130670B2010E94DB2B2B013C010E94762E20E06C
S113068030E048E452E40E94DA2B4B015C019B0108
S1130690AC010E940F2E6D837E838F8398879B010C
S11306A0AC01C701B6010E94DB2B69877A878B876F
S11306B09C870E94762E9B01AC0169817A818B8193
S11306C09C8190580E94A12C0E94CC2B69837A8330
S11306D08B839C8320E030E048E452E4C301B20100
S11306E00E94DA2B0E94762E9B01AC01C501B40155
S11306F00E940F2E9B01AC01C701B6010E94DB2BA7
S11307000E94762E2B013C0120E038E44CE855E4AD
S113071069857A858B859C850E94DB2B20E038E0F7
S113072044E856E40E94DA2B4B015C01A3019201D8
S1130730C301B2010E94DB2B20E030E046E852E422
S11307400E940F2E9B01AC01C501B4010E94A12C93
S11307500E94CC2B2B013C01A701960160E07AE1B9
S113076087EA96E40E94DA2B2D813E814F815885D9
S11307700E94DA2B20E038E148E856E40E94A12CDC
S11307800E94CC2B4B015C016801EE24D7FCE09461
S1130790FE2C20E030E044E353E46D857E858F85B4
S11307A098890E940F2E28ED3FE049E450E40E940E
S11307B0A12C0E94092DAB01BC0147595F4F6F4F1B
S11307C07F4F9701860182E090E0A9DEA3019201A8
S11307D069817A818B819C810E94DB2B24EE3EE22D
S11307E045E652E40E940F2E0E94092DAB01BC0184
S11307F0455B5F4F6F4F7F4F9701860184E090E028
S11308008EDE20E030E044E353E4C501B4010E94ED
S11308100F2E28ED3FE049E450E40E94A12C0E94F1
S1130820092DAB01BC014F5F5F4F6F4F7F4F9701A5
S1130830860186E090E073DE60960FB6F894DEBF22
S11308400FBECDBFDF91CF911F910F91FF90EF901D
S1130850DF90CF90BF90AF909F908F907F906F90DC
S11308605F904F9008954F925F926F927F928F9214
S11308709F92AF92BF92CF92DF92EF92FF920F932B
S11308801F93CF93DF93CDB7DEB760970FB6F8947D
S1130890DEBF0FBECDBF2B013C0149015A01E982E5
S11308A0FA820B831C83860190580E944E2C6D871C
S11308B07E878F87988B29813A814B815C81CA011D
S11308C0B9010E940F2E6B017C01A3019201C301A7
S11308D0B2010E940F2E2B013C01A5019401C50118
S11308E0B4010E940F2E9B01AC01C301B2010E940E
S11308F0DB2B2B013C010E94762E20E030E048E403
S113090052E40E94DA2B4B015C019B01AC010E9472
S11309100F2E6D837E838F8398879B01AC01C70163
S1130920B6010E94DB2B69877A878B879C870E949C
S1130930762E9B01AC0169817A818B819C819058D0
S11309400E94A12C0E94CC2B69837A838B839C8385
S113095020E030E048E452E4C301B2010E94DA2B03
S11309600E94762E9B01AC01C501B4010E940F2E9A
S11309709B01AC01C701B6010E94DB2B0E94762EBD
S11309802B013C0120E038E44CE855E469857A8584
S11309908B859C850E94DB2B20E038E044E856E4FC
S11309A00E94DA2B4B015C01A3019201C301B20145
S11309B00E94DB2B20E030E046E852E40E940F2E38
S11309C09B01AC01C501B4010E94A12C0E94CC2B57
S11309D02B013C01A701960160E07AE187EA96E4E5
S11309E00E94DA2B2D813E814F8158850E94DA2B9B
S11309F020E038E148E856E40E94A12C0E94CC2B68
S1130A004B015C016801EE24D7FCE094FE2C20E04D
S1130A1030E044E353E46D857E858F8598890E9498
S1130A200F2E28ED3FE049E450E40E94A12C0E94DF
S1130A30092DAB01BC014F535F4F6F4F7F4F97019F
S1130A40860188E090E06BDDA301920169817A81DF
S1130A508B819C810E94DB2B24EE3EE245E652E42E
S1130A600E940F2E0E94092DAB01BC01455B5F4F14
S1130A706F4F7F4F970186018AE090E050DD20E0C0
S1130A8030E044E353E4C501B4010E940F2E28ED85
S1130A903FE049E450E40E94A12C0E94092DAB01DF
S1130AA0BC014D5F5F4F6F4F7F4F970186018CE014
S1130AB090E035DD60960FB6F894DEBF0FBECDBF73
S1130AC0DF91CF911F910F91FF90EF90DF90CF9026
S1130AD0BF90AF909F908F907F906F905F904F905A
S1130AE008954F925F926F927F928F929F92AF92EE
S1130AF0BF92CF92DF92EF92FF920F931F93CF9307
S1130B00DF93CDB7DEB760970FB6F894DEBF0FBEA4
S1130B10CDBF2B013C0149015A01E982FA820B83C2
S1130B201C83860150580E944E2C6D877E878F87C8
S1130B30988B29813A814B815C81CA01B9010E9459
S1130B400F2E6B017C01A3019201C301B2010E942B
S1130B500F2E2B013C01A5019401C501B4010E9493
S1130B600F2E9B01AC01C301B2010E94DB2B2B01B0
S1130B703C010E94762E20E030E048E452E40E94DA
S1130B80DA2B4B015C019B01AC010E940F2E6D839B
S1130B907E838F8398879B01AC01C701B6010E94B5
S1130BA0DB2B69877A878B879C870E94762E9B0133
S1130BB0AC0169817A818B819C8190580E94A12C1F
S1130BC00E94CC2B69837A838B839C8320E030E062
S1130BD048E452E4C301B2010E94DA2B0E94762E4B
S1130BE09B01AC01C501B4010E940F2E9B01AC0115
S1130BF0C701B6010E94DB2B0E94762E2B013C011B
S1130C0020E038E44CE855E469857A858B859C8539
S1130C100E94DB2B20E038E044E856E40E94DA2B03
S1130C204B015C01A3019201C301B2010E94DB2BC1
S1130C3020E030E046E852E40E940F2E9B01AC0114
S1130C40C501B4010E94A12C0E94CC2B2B013C01B4
S1130C50A701960160E07AE187EA96E40E94DA2B24
S1130C602D813E814F8158850E94DA2B20E038E1A6
S1130C7048E856E40E94A12C0E94CC2B4B015C0155
S1130C806801EE24D7FCE094FE2C20E030E044E33D
S1130C9053E46D857E858F8598890E940F2E28EDFB
S1130CA03FE049E450E40E94A12C0E94092DAB01CD
S1130CB0BC014D535F4F6F4F7F4F9701860181E019
S1130CC090E02DDCA301920169817A818B819C8162
S1130CD00E94DB2B24EE3EE245E652E40E940F2EF6
S1130CE00E94092D0F2EF1EE4F2E512C612C712CE8
S1130CF0F02D93018201061B170B280B390BB90148
S1130D00A8019701860183E090E009DC20E030E04F
S1130D1044E353E4C501B4010E940F2E28ED3FE0E3
S1130D2049E450E40E94A12C0E94092D0F2EFCE2FC
S1130D308F2E99249394A12CB12CF02D950184012C
S1130D40061B170B280B390BB901A8019701860163
S1130D5085E090E0E4DB60960FB6F894DEBF0FBE4A
S1130D60CDBFDF91CF911F910F91FF90EF90DF9056
S1130D70CF90BF90AF909F908F907F906F905F9037
S1130D804F9008954F925F926F927F928F929F92AD
S1130D90AF92BF92CF92DF92EF92FF920F931F9385
S1130DA0CF93DF93CDB7DEB760970FB6F894DEBF6D
S1130DB00FBECDBF2B013C0149015A01E982FA82E1
S1130DC00B831C83860150580E944E2C6D877E87AE
S1130DD08F87988B29813A814B815C81CA01B90143
S1130DE00E940F2E6B017C01A3019201C301B20189
S1130DF00E940F2E2B013C01A5019401C501B401F1
S1130E000E940F2E9B01AC01C301B2010E94DB2B97
S1130E102B013C010E94762E20E030E048E452E4AD
S1130E200E94DA2B4B015C019B01AC010E940F2E46
S1130E306D837E838F8398879B01AC01C701B601C4
S1130E400E94DB2B69877A878B879C870E94762E8A
S1130E509B01AC0169817A818B819C8190580E94AD
S1130E60A12C0E94CC2B69837A838B839C8320E002
S1130E7030E048E452E4C301B2010E94DA2B0E943C
S1130E80762E9B01AC01C501B4010E940F2E9B017B
S1130E90AC01C701B6010E94DB2B0E94762E2B0108
S1130EA03C0120E038E44CE855E469857A858B857B
S1130EB09C850E94DB2B20E038E044E856E40E9445
S1130EC0DA2B4B015C01A3019201C301B2010E9420
S1130ED0DB2B20E030E046E852E40E940F2E9B0119
S1130EE0AC01C501B4010E94A12C0E94CC2B2B01A2
S1130EF03C01A701960160E07AE187EA96E40E944A
S1130F00DA2B2D813E814F8158850E94DA2B20E017
S1130F1038E148E856E40E94A12C0E94CC2B4B01F6
S1130F205C016801EE24D7FCE094FE2C20E030E064
S1130F3044E353E46D857E858F8598890E940F2E46
S1130F4028ED3FE049E450E40E94A12C0E94092DC1
S1130F50AB01BC0147595F4F6F4F7F4F970186012B
S1130F6087E090E0DCDAA301920169817A818B81C8
S1130F709C810E94DB2B24EE3EE245E652E40E9473
S1130F800F2E0E94092D0F2EF1EE4F2E512C612CA5
S1130F90712CF02D93018201061B170B280B390BC2
S1130FA0B901A8019701860189E090E0B8DA20E050
S1130FB030E044E353E4C501B4010E940F2E28ED50
S1130FC03FE049E450E40E94A12C0E94092D0F2E19
S1130FD0FCE28F2E99249394A12CB12CF02D950131
S1130FE08401061B170B280B390BB901A8019701C3
S1130FF086018BE090E093DA60960FB6F894DEBF3A
S11310000FBECDBFDF91CF911F910F91FF90EF9055
S1131010DF90CF90BF90AF909F908F907F906F9014
S11310205F904F9008954F925F926F927F928F924C
S11310309F92AF92BF92CF92DF92EF92FF920F9363
S11310401F93C0902801D0902901609133017091C1
S11310503401882777FD8095982F0E943C2D2B0121
S11310603C016091350170913601882777FD8095A8
S1131070982F0E943C2D4B015C01609137017091C7
S11310803801719561957109882777FD8095982FAE
S11310900E943C2D83017201A5019401A6DAC0903F
S11310A02801D0902901609133017091340188277F
S11310B077FD8095982F0E943C2D2B013C01609177
S11310C0350170913601882777FD8095982F0E940D
S11310D03C2D4B015C0160913701709138018827E8
S11310E077FD8095982F0E943C2D83017201A50104
S11310F09401B9DBC0902801D0902901609133019B
S113110070913401882777FD8095982F0E943C2D9B
S11311102B013C0160913501709136017195619507
S11311207109882777FD8095982F0E943C2D4B01EB
S11311305C01609137017091380171956195710975
S1131140882777FD8095982F0E943C2D830172019A
S1131150A5019401C6DCC0902801D09029016091BA
S1131160330170913401882777FD8095982F0E9470
S11311703C2D2B013C016091350170913601719534
S113118061957109882777FD8095982F0E943C2DE1
S11311904B015C016091370170913801882777FD1C
S11311A08095982F0E943C2D83017201A501940122
S11311B0E9DD1F910F91FF90EF90DF90CF90BF90EA
S11311C0AF909F908F907F906F905F904F90089515
S11311D080913E0190913F012091200130912101A5
S11311E0821793075CF010923F0110923E0181E058
S11311F090E090932301809322010895AC014F5F06
S11312005F4F50933F0140933E01421753072CF028
S113121010922301109222010895029690932301C3
S11312208093220108952F923F924F925F926F9282
S11312307F928F929F92AF92BF92CF92DF92EF9262
S1131240FF920F931F93CF93DF93CDB7DEB7E89749
S11312500FB6F894DEBF0FBECDBF29833A834B830C
S11312605C836D837E838F839887170161964CAC72
S11312705DAC6EAC7FAC619729813A81388F2F8B3E
S11312804B815C815E8B4D8B8D809E80EF80F884DA
S1131290C9010197029788F4D7FAD094D7F8D0946B
S11312A069968CAD9DADAEADBFAD6997B0586996EA
S11312B08CAF9DAFAEAFBFAF69978F89988D039701
S11312C0029788F477FA709477F870946D962CAD41
S11312D03DAD4EAD5FAD6D9750586D962CAF3DAFA3
S11312E04EAF5FAF6D97B801882777FD8095982F33
S11312F00E943C2D69877A878B879C87A60195017C
S113130069966CAD7DAD8EAD9FAD69970E94DA2B69
S113131029853A854B855C850E94A12C6DA77EA703
S11313208FA798ABA30192016D966CAD7DAD8EAD88
S11313309FAD6D970E94DA2B29853A854B855C8594
S11313400E94A12C69AB7AAB8BAB9CAB65962CADA0
S11313503DAD4EAD5FAD6597A1966CAD7DAD8EADE7
S11313609FADA1970E94DA2B29853A854B855C8530
S11313700E94A12C6DAB7EAB8FAB98AFA101400F47
S1131380511F5CA74BA7241635060CF0E3C224E1D9
S1131390AD89BE892A9FC0012B9F900D1124820D17
S11313A0931D880F991F880F991FFC01E459FA4F68
S11313B0FCA3EBA3289DC001299D900D1124820D4F
S11313C0931D880F991F880F991FAC0144595A4FD8
S11313D05AA349A32E9DC0012F9D900D1124820D67
S11313E0931D880F991F880F991FDC01A459BA4FC8
S11313F0BEA3ADA38101000F111F000F111F0A56D8
S11314001E4F3E8A2D8A1801A986BA86CB86DC86B1
S11314104D865E866F86788A2DA53EA54FA558A970
S113142069857A858B859C850E94DB2B69877A8701
S11314308B879C8729A93AA94BA95CA96D857E85D0
S11314408F8598890E94DB2B6D877E878F87988B89
S11314502DA93EA94FA958AD65966CAD7DAD8EAD55
S11314609FAD65970E94DB2B65966CAF7DAF8EAF09
S11314709FAF65972D853E854F85588969857A8507
S11314808B859C850E944E2C20E030E044E353E49D
S11314900E940F2E28ED3FE049E450E40E94A12C65
S11314A00E94092D6FA378A789A79AA765962CADEA
S11314B03DAD4EAD5FAD6597CA01B9010E940F2ED7
S11314C0698B7A8B8B8B9C8B29853A854B855C85C4
S11314D0CA01B9010E940F2E6B017C012D853E8546
S11314E04F855889CA01B9010E940F2E9B01AC0196
S11314F0C701B6010E94DB2B698F7A8F8B8F9C8F7B
S11315000E94762E20E030E048E452E40E94DA2B78
S11315106B017C019B01AC010E940F2E6D8F7E8FAD
S11315208F8F98A39B01AC0169897A898B899C89E7
S11315300E94DB2B4B015C010E94762E9B01AC01C7
S113154065966CAD7DAD8EAD9FAD659790580E944C
S1131550A12C0E94CC2B2B013C0120E030E048E47C
S113156052E4698D7A8D8B8D9C8D0E94DA2B0E94BA
S1131570762E9B01AC01C701B6010E940F2E9B0180
S1131580AC0169897A898B899C890E94DB2B0E9432
S1131590762E6B017C0120E038E44CE855E4C5016B
S11315A0B4010E94DB2B20E038E044E856E40E94BA
S11315B0DA2B4B015C01A7019601C701B6010E9419
S11315C0DB2B20E030E046E852E40E940F2E9B0122
S11315D0AC01C501B4010E94A12C0E94CC2B9B013B
S11315E0AC01C301B2010E94DB2B24EE3EE245E6CE
S11315F052E40E940F2E0E94092D6B017C0129895F
S11316003A894B895C8960E07AE187EA96E40E9432
S1131610DA2B2D8D3E8D4F8D58A10E94DA2B20E0C0
S113162038E148E856E40E94A12C0E94CC2B20E02B
S113163030E044E353E40E940F2E28ED3FE049E4F8
S113164050E40E94A12C0E94092DEF89F88DE2300C
S1131650F10509F45FC01CF4319761F05CC12F8976
S1131660388D2330310509F4A7C02430310509F43D
S1131670FBC051C10FA118A529A53AA507591F4FB1
S11316802F4F3F4FABA1BCA10D931D932D933C93C2
S11316901397BBE4CB0ED11CE11CF11CE9A1FAA108
S11316A0C082D182E282F382DC01CB010196A11DCA
S11316B0B11DEDA1FEA180839183A283B3836985CB
S11316C07A858B859C850E94092DD1016D937D932C
S11316D08D939C9313978101005B1F4F6D857E85CD
S11316E08F8598890E94092DF80160837183828314
S11316F09383005B1F4F65966CAD7DAD8EAD9FAD42
S113170065970E94092DD8016D937D938D939C93C9
S1131710139701C10FA118A529A53AA50F531F4F6F
S11317202F4F3F4FEBA1FCA100831183228333830E
S1131730FBE4CF0ED11CE11CF11CA9A1BAA1CD92EE
S1131740DD92ED92FC921397DC01CB010396A11D6F
S1131750B11DEDA1FEA180839183A283B383810196
S113176000511F4F69857A858B859C850E94092DC0
S1131770D8016D937D938D939C931397005B1F4FBA
S11317806D857E858F8598890E94092DF801608377
S1131790718382839383005B1F4F65966CAD7DAD2F
S11317A08EAD9FAD65970E94092DD8016D937D93F1
S11317B08D939C931397AFC00FA118A529A53AA5A3
S11317C00D531F4F2F4F3F4FEBA1FCA100831183FB
S11317D02283338301EE10E020E030E00C191D0970
S11317E02E093F09A9A1BAA10D931D932D933C93F2
S11317F013972CE231E040E050E0261B370B480BF6
S1131800590BEDA1FEA120833183428353838101CF
S113181000521E4F69857A858B859C850E94092D0F
S1131820D8016D937D938D939C931397005B1F4F09
S11318306D857E858F8598890E94092DF8016083C6
S1131840718382839383005B1F4F65966CAD7DAD7E
S11318508EAD9FAD65970E94092DD8016D937D9340
S11318608D939C93139757C00FA118A529A53AA54A
S113187007591F4F2F4F3F4FEBA1FCA1008311834A
S11318802283338301EE10E020E030E00C191D09BF
S11318902E093F09A9A1BAA10D931D932D933C9341
S11318A013972CE231E040E050E0261B370B480B45
S11318B0590BEDA1FEA1208331834283538381011F
S11318C000531D4F69857A858B859C850E94092D5F
S11318D0D8016D937D938D939C931397005B1F4F59
S11318E06D857E858F8598890E94092DF801608316
S11318F0718382839383005B1F4F65966CAD7DADCE
S11319008EAD9FAD65970E94092DD8016D937D938F
S11319108D939C931397ED89FE893196FE8BED8B05
S11319202BA13CA12C5F3F4F3CA32BA349A15AA15F
S11319304C5F5F4F5AA349A38DA19EA104969EA319
S11319408DA394E0290E311CABA5BCA5EA17FB07B7
S113195009F062CDE8960FB6F894DEBF0FBECDBF96
S1131960DF91CF911F910F91FF90EF90DF90CF9077
S1131970BF90AF909F908F907F906F905F904F90AB
S11319803F902F9008952F923F924F925F926F92C3
S11319907F928F929F92AF92BF92CF92DF92EF92FB
S11319A0FF920F931F93CF93DF93CDB7DEB7CE543F
S11319B0D1090FB6F894DEBF0FBECDBF29833A8399
S11319C04B835C836D837E838F83988729961FAFB7
S11319D00EAF2997F8AEEFAAAB964CAC5DAC6EACEB
S11319E07FACAB9729803A802B813C812B963FAF0B
S11319F02EAF2B974D815E812D965FAF4EAF2D9705
S1131A008F8198852F969FAF8EAF2F97112314F453
S1131A100F5F1F4F15950795AFA9B8ADA00FB11F64
S1131A20BEA7ADA71197BEAFADAFC1010197029795
S1131A3088F4D7FAD094D7F8D094AF962CAD3DADB6
S1131A404EAD5FADAF975058AF962CAF3DAF4EAF94
S1131A505FAFAF97C10103970297D0F4A7968CADFF
S1131A609DADAEADBFADA797B058A7968CAF9DAF57
S1131A70AEAFBFAFA797E3962CAD3DAD4EAD5FAD16
S1131A80E3975058E3962CAF3DAF4EAF5FAFE3976B
S1131A9029964EAD5FAD2997BA01882777FD8095C9
S1131AA0982F0E943C2D69877A878B879C87A60193
S1131AB09501AF966CAD7DAD8EAD9FADAF970E9495
S1131AC0DA2B29853A854B855C850E94A12C6FA76A
S1131AD078AB89AB9AABA7962CAD3DAD4EAD5FAD5F
S1131AE0A797E3966CAD7DAD8EAD9FADE3970E9455
S1131AF0DA2B29853A854B855C850E94A12C6BAB3A
S1131B007CAB8DAB9EAB6091310170913201882723
S1131B1077FD8095982F0E943C2D69877A878B8763
S1131B209C87B801882777FD8095982F0E943C2DCB
S1131B306D877E878F87988BE7962CAD3DAD4EAD34
S1131B405FADE79769857A858B859C850E94DB2B41
S1131B50A30192010E94DA2B2D853E854F85588979
S1131B600E94A12C23966CAF7DAF8EAF9FAF2397BD
S1131B70A3019201E7966CAD7DAD8EAD9FADE79765
S1131B800E94DA2B29853A854B855C850E94DA2BE5
S1131B902D853E854F8558890E94A12C27966CAFD0
S1131BA07DAF8EAF9FAF27978FA998ADADADBEAD7A
S1131BB0A817B9070CF4FFC224E12B96EEADFFADD4
S1131BC02B972E9FC0012F9F900D11244FA958AD24
S1131BD0840F951F880F991F880F991FDC01A45942
S1131BE0BA4FBEA3ADA32D96EEADFFAD2D972E9F9C
S1131BF0C0012F9F900D1124840F951F880F991FEA
S1131C00880F991FAC0144595A4F58A74FA32F96D8
S1131C10AEADBFAD2F972A9FC0012B9F900D11240D
S1131C20EFA9F8AD8E0F9F1F880F991F880F991F7A
S1131C309C0124593A4F3AA729A78F01000F111F7D
S1131C40000F111F0A561E4FFE8BED8B3A8E298E04
S1131C501801A986BA86CB86DC864D865E866F8699
S1131C60788A2FA538A949A95AA969857A858B85C7
S1131C709C850E94DB2B69877A878B879C872BA99D
S1131C803CA94DA95EA9A7966CAD7DAD8EAD9FAD67
S1131C90A7970E94DB2BA7966CAF7DAF8EAF9FAF4B
S1131CA0A79723962CAD3DAD4EAD5FAD23976D85C3
S1131CB07E858F8598890E94DB2B6D877E878F8731
S1131CC0988BA7962CAD3DAD4EAD5FADA7976985BA
S1131CD07A858B859C850E944E2C20E030E044E37D
S1131CE053E40E940F2E28ED3FE049E450E40E94A3
S1131CF0A12C0E94092D69AF7AAF8BAF9CAF2D85C3
S1131D003E854F855889CA01B9010E940F2E698BFF
S1131D107A8B8B8B9C8B29853A854B855C85CA0194
S1131D20B9010E940F2E6B017C01A7962CAD3DAD2D
S1131D304EAD5FADA797CA01B9010E940F2E9B015A
S1131D40AC01C701B6010E94DB2B6D8F7E8F8F8F94
S1131D5098A30E94762E20E030E048E452E40E94EA
S1131D60DA2B6B017C019B01AC010E940F2E69A34D
S1131D707AA38BA39CA39B01AC0169897A898B8983
S1131D809C890E94DB2B4B015C010E94762E9B01F7
S1131D90AC016D857E858F85988990580E94A12C11
S1131DA00E94CC2B2B013C0120E030E048E452E4BB
S1131DB06D8D7E8D8F8D98A10E94DA2B0E94762ED8
S1131DC09B01AC01C701B6010E940F2E9B01AC011F
S1131DD069897A898B899C890E94DB2B0E94762EE3
S1131DE06B017C0120E038E44CE855E4C501B40102
S1131DF00E94DB2B20E038E044E856E40E94DA2B12
S1131E004B015C01A7019601C701B6010E94DB2BBF
S1131E1020E030E046E852E40E940F2E9B01AC0122
S1131E20C501B4010E94A12C0E94CC2B9B01AC01E2
S1131E30C301B2010E94DB2B24EE3EE245E652E4EC
S1131E400E940F2E0E94092D6B017C0129893A8979
S1131E504B895C8960E07AE187EA96E40E94DA2B98
S1131E6029A13AA14BA15CA10E94DA2B20E038E120
S1131E7048E856E40E94A12C0E94CC2B20E030E0DC
S1131E8044E353E40E940F2E28ED3FE049E450E47C
S1131E900E94A12C0E94092D498D5A8D4230510572
S1131EA009F45FC024F44130510559F05BC1A98D98
S1131EB0BA8DA330B10509F4A6C0149709F4FBC088
S1131EC051C109AD1AAD2BAD3CAD07591F4F2F4F72
S1131ED03F4FEDA1FEA10083118322833383FBE4F2
S1131EE0CF0ED11CE11CF11CAFA1B8A5CD92DD929F
S1131EF0ED92FC921397DC01CB010196A11DB11D5B
S1131F00E9A5FAA580839183A283B38369857A8541
S1131F108B859C850E94092DD1016D937D938D93B2
S1131F209C9313978101005B1F4FA7966CAD7DAD09
S1131F308EAD9FADA7970E94092DF8016083718330
S1131F4082839383005B1F4F6D857E858F8598897F
S1131F500E94092DD8016D937D938D939C931397C3
S1131F6001C109AD1AAD2BAD3CAD0F531F4F2F4F1F
S1131F703F4FEDA1FEA10083118322833383FBE451
S1131F80CF0ED11CE11CF11CAFA1B8A5CD92DD92FE
S1131F90ED92FC921397DC01CB010396A11DB11DB8
S1131FA0E9A5FAA580839183A283B38381010051BB
S1131FB01F4F69857A858B859C850E94092DD801E0
S1131FC06D937D938D939C931397005B1F4FA796FE
S1131FD06CAD7DAD8EAD9FADA7970E94092DF80124
S1131FE06083718382839383005B1F4F6D857E853D
S1131FF08F8598890E94092DD8016D937D938D93C7
S11320009C931397AFC009AD1AAD2BAD3CAD0D53E6
S11320101F4F2F4F3F4FEDA1FEA100831183228359
S1132020338301EE10E020E030E00C191D092E0985
S11320303F09AFA1B8A50D931D932D933C9313971E
S11320402CE231E040E050E0261B370B480B590BE3
S1132050E9A5FAA520833183428353838101005289
S11320601E4F69857A858B859C850E94092DD80130
S11320706D937D938D939C931397005B1F4FA7964D
S11320806CAD7DAD8EAD9FADA7970E94092DF80173
S11320906083718382839383005B1F4F6D857E858C
S11320A08F8598890E94092DD8016D937D938D9316
S11320B09C93139757C009AD1AAD2BAD3CAD07598E
S11320C01F4F2F4F3F4FEDA1FEA1008311832283A9
S11320D0338301EE10E020E030E00C191D092E09D5
S11320E03F09AFA1B8A50D931D932D933C9313976E
S11320F02CE231E040E050E0261B370B480B590B33
S1132100E9A5FAA5208331834283538381010053D7
S11321101D4F69857A858B859C850E94092DD80180
S11321206D937D938D939C931397005B1F4FA7969C
S11321306CAD7DAD8EAD9FADA7970E94092DF801C2
S11321406083718382839383005B1F4F6D857E85DB
S11321508F8598890E94092DD8016D937D938D9365
S11321609C931397ED89FE893196FE8BED8B2DA1FF
S11321703EA12C5F3F4F3EA32DA34FA158A54C5F1A
S11321805F4F58A74FA389A59AA504969AA789A734
S113219094E0290E311CADADBEADAE17BF070CF0F7
S11321A060CD298C3A8CA984BA84CB84DC844D8498
S11321B05E846F847888EFA9F8AD29962EAD3FAD83
S11321C02997E20FF31FF8AFEFAB4DA55EA54E17AD
S11321D05F070CF0F3C224E12B96AEADBFAD2B9795
S11321E02A9FC0012B9F900D1124840F951F880FE7
S11321F0991F880F991FFC01E459FA4F4F012D963E
S11322004EAD5FAD2D97249FC001259F900D1124E5
S1132210ADA5BEA58A0F9B1F880F991F880F991F14
S1132220FC01E459FA4FFAA3E9A32F964EAD5FAD32
S11322302F97249FC001259F900D11248A0F9B1F67
S1132240880F991F880F991FDC01A459BA4FBEA3A8
S1132250ADA30DA51EA5000F111F000F111F0A56D7
S11322601E4F3E8E2D8E180198A68FA2A986BA867F
S1132270CB86DC864D865E866F86788A2FA538A944
S113228049A95AA969857A858B859C850E94DB2B8F
S113229069877A878B879C872BA93CA94DA95EA95E
S11322A0A7966CAD7DAD8EAD9FADA7970E94DB2B3D
S11322B0A7966CAF7DAF8EAF9FAFA79727962CAD37
S11322C03DAD4EAD5FAD27976D857E858F85988931
S11322D00E94DB2B6D877E878F87988BA7962CAD0A
S11322E03DAD4EAD5FADA79769857A858B859C859D
S11322F00E944E2C20E030E044E353E40E940F2E71
S113230028ED3FE049E450E40E94A12C0E94092DED
S113231069A77AA78BA79CA72D853E854F855889E9
S1132320CA01B9010E940F2E698B7A8B8B8B9C8B0F
S113233029853A854B855C85CA01B9010E940F2E17
S11323406B017C01A7962CAD3DAD4EAD5FADA7975B
S1132350CA01B9010E940F2E9B01AC01C701B6014D
S11323600E94DB2B6D8B7E8B8F8B988F0E94762E39
S113237020E030E048E452E40E94DA2B6B017C0157
S11323809B01AC010E940F2E698F7A8F8B8F9C8FDB
S11323909B01AC0169897A898B899C890E94DB2B1A
S11323A04B015C010E94762E9B01AC016D857E85FC
S11323B08F85988990580E94A12C0E94CC2B2B01C8
S11323C03C0120E030E048E452E46D897E898F8945
S11323D0988D0E94DA2B0E94762E9B01AC01C701D6
S11323E0B6010E940F2E9B01AC0169897A898B8901
S11323F09C890E94DB2B0E94762E6B017C0120E0DD
S113240038E44CE855E4C501B4010E94DB2B20E01C
S113241038E044E856E40E94DA2B4B015C01A70142
S11324209601C701B6010E94DB2B20E030E046E8AC
S113243052E40E940F2E9B01AC01C501B4010E941D
S1132440A12C0E94CC2B9B01AC01C301B2010E94C0
S1132450DB2B24EE3EE245E652E40E940F2E0E945E
S1132460092D6B017C0129893A894B895C8960E0DB
S11324707AE187EA96E40E94DA2B298D3A8D4B8D16
S11324805C8D0E94DA2B20E038E148E856E40E9493
S1132490A12C0E94CC2B20E030E044E353E40E94C2
S11324A00F2E28ED3FE049E450E40E94A12C0E9445
S11324B0092DED8DFE8DE230F10509F45FC01CF4A9
S11324C0319761F05CC12D8D3E8D2330310509F4C7
S11324D0A7C02430310509F4FBC051C109A51AA5D0
S11324E02BA53CA507591F4F2F4F3F4FAFA1B8A5B0
S11324F00D931D932D933C931397BBE4CB0ED11CEA
S1132500E11CF11CE9A1FAA1C082D182E282F3822A
S1132510DC01CB010196A11DB11DEDA1FEA18083BB
S11325209183A283B38369857A858B859C850E9478
S1132530092DD1016D937D938D939C931397810104
S1132540005B1F4FA7966CAD7DAD8EAD9FADA79779
S11325500E94092DF8016083718382839383005B59
S11325601F4F6D857E858F8598890E94092DD8011E
S11325706D937D938D939C93139701C109A51AA51F
S11325802BA53CA50F531F4F2F4F3F4FEFA1F8A58D
S11325900083118322833383FBE4CF0ED11CE11C1F
S11325A0F11CA9A1BAA1CD92DD92ED92FC921397F0
S11325B0DC01CB010396A11DB11DEDA1FEA1808319
S11325C09183A283B383810100511F4F69857A856A
S11325D08B859C850E94092DD8016D937D938D93E5
S11325E09C931397005B1F4FA7966CAD7DAD8EAD8A
S11325F09FADA7970E94092DF801608371838283A0
S11326009383005B1F4F6D857E858F8598890E941B
S1132610092DD8016D937D938D939C931397AFC02F
S113262009A51AA52BA53CA50D531F4F2F4F3F4FAE
S1132630EFA1F8A5008311832283338301EE10E018
S113264020E030E00C191D092E093F09A9A1BAA107
S11326500D931D932D933C9313972CE231E040E0AE
S113266050E0261B370B480B590BEDA1FEA120832C
S1132670318342835383810100521E4F69857A85D9
S11326808B859C850E94092DD8016D937D938D9334
S11326909C931397005B1F4FA7966CAD7DAD8EADD9
S11326A09FADA7970E94092DF801608371838283EF
S11326B09383005B1F4F6D857E858F8598890E946B
S11326C0092DD8016D937D938D939C93139757C0D7
S11326D009A51AA52BA53CA507591F4F2F4F3F4FFE
S11326E0EFA1F8A5008311832283338301EE10E068
S11326F020E030E00C191D092E093F09A9A1BAA157
S11327000D931D932D933C9313972CE231E040E0FD
S113271050E0261B370B480B590BEDA1FEA120837B
S1132720318342835383810100531D4F69857A8528
S11327308B859C850E94092DD8016D937D938D9383
S11327409C931397005B1F4FA7966CAD7DAD8EAD28
S11327509FADA7970E94092DF8016083718382833E
S11327609383005B1F4F6D857E858F8598890E94BA
S1132770092DD8016D937D938D939C931397EDA5AB
S1132780FEA53196FEA7EDA72FA138A52C5F3F4FDC
S113279038A72FA349A15AA14C5F5F4F5AA349A35D
S11327A08DA19EA104969EA38DA394E0290E311CB5
S11327B0AFA9B8ADEA17FB0709F060CDC25BDF4FE4
S11327C00FB6F894DEBF0FBECDBFDF91CF911F913E
S11327D00F91FF90EF90DF90CF90BF90AF909F90BC
S11327E08F907F906F905F904F903F902F900895BF
S11327F04F925F926F927F928F929F92AF92BF920D
S1132800CF92DF92EF92FF920F931F93CF93DF93B8
S1132810CDB7DEB728970FB6F894DEBF0FBECDBF95
S11328204B835C836D837E838F839887EB80FC80EE
S11328308D809E80AF80B88424E12E9DC0012F9DA1
S1132840900D1124E0912201F0912301E80FF91F6A
S1132850EE0FFF1FEE0FFF1FE459FA4F4080518027
S113286062807380E0913E01F0913F018E0F9F1FC3
S1132870FC01EE0FFF1FEE0FFF1FE459FA4F80819A
S1132880918184199509BC0122F466277727681B76
S1132890790B882777FD8095982F0E9458028B0129
S11328A09C01B301A201C7010E948F0224E1289D6B
S11328B0C001299D900D1124E0912201F091230182
S11328C0E80FF91FEE0FFF1FEE0FFF1FE459FA4F39
S11328D0C080D180E280F380E0913E01F0913F011D
S11328E08E0F9F1FFC01EE0FFF1FEE0FFF1FE45919
S11328F0FA4F808191818C199D09BC0122F46627CD
S11329007727681B790B882777FD8095982F0E947D
S113291058028B019C01B701A601C4010E948F02D9
S113292024E12A9DC0012B9D900D1124E0912201E8
S1132930F0912301E80FF91FEE0FFF1FEE0FFF1FA9
S1132940E459FA4FC080D180E280F380E0913E01E7
S1132950F0913F018E0F9F1FFC01EE0FFF1FEE0F42
S1132960FF1FE459FA4F808191818C199D09BC01A4
S113297022F466277727681B790B882777FD8095D3
S1132980982F0E9458028B019C01B701A601C50132
S11329900E948F0228960FB6F894DEBF0FBECDBFFB
S11329A0DF91CF911F910F91FF90EF90DF90CF9027
S11329B0BF90AF909F908F907F906F905F904F905B
S11329C00895209118013091190140911A015091F4
S11329D01B0160911C0170911D0180911E01909159
S11329E01F0106DF20911001309111014091120165
S11329F05091130160911401709115018091160199
S1132A0090911701F5DE2091080130910901409160
S1132A100A0150910B0160910C0170910D0180919C
S1132A200E0190910F01E4DE20910001309101012B
S1132A3040910201509103016091040170910501DC
S1132A408091060190910701D3DE0C94E808089563
S1132A501F920F920FB60F9211240BB60F922F9361
S1132A603F934F935F936F937F938F939F93AF9312
S1132A70BF93EF93FF9312B884E40E94A50084E00F
S1132A8082B980914501282F2F7030E030934401A2
S1132A9020934301807F90E0959587959595879540
S1132AA095958795959587959093420180934101DB
S1132AB081E090E090933D0180933C01FF91EF9180
S1132AC0BF91AF919F918F917F916F915F914F9142
S1132AD03F912F910F900BBE0F900FBE0F901F9040
S1132AE018951F920F920FB60F9211248F939F93F4
S1132AF081E090E090933D0180933C0180912A0114
S1132B00823069F018F4813031F014C0833059F008
S1132B10843069F00FC082E080932A010BC083E007
S1132B2080932A0107C084E080932A0103C081E0D6
S1132B3080932A019F918F910F900FBE0F901F9049
S1132B401895109259051092580510925B05109231
S1132B505A05109257051092560508952F923F92E8
S1132B604F925F926F927F928F929F92AF92BF9299
S1132B70CF92DF92EF92FF920F931F93CF93DF9345
S1132B80CDB7DEB72C970FB6F894DEBF0FBECDBF1E
S1132B909C01992314F42F5F3F4FA9015595479544
S1132BA05A83498301979093210180932001809156
S1132BB04001813009F4C5DFC0905605D090570517
S1132BC0209158053091590540905A0550905B0565
S1132BD02090390130903A014101820E931E240C59
S1132BE0351C809131019091320160912F017091D7
S1132BF03001009133011091340110923D01109283
S1132C003C0140912A01423009F4CBC640F44423EC
S1132C1011F40C946927413061F00C947D2A4330FF
S1132C2011F40C946120443011F40C94F2230C94AC
S1132C307D2A880F991F880F991F0E94CC2E600F40
S1132C40711F882777FD8095982F0E943C2D462E72
S1132C50572E8B839B87C40199230CF401964C0156
S1132C6095948794609135017091360168197909BA
S1132C70882777FD8095982F0E943C2DE62EB72E4D
S1132C80A82E9987C60199230CF401963C017594EA
S1132C9067948091370190913801919581959109BC
S1132CA086199709BC01882777FD8095982F0E9483
S1132CB03C2DC62ED72EF82E9C835B855F938B818B
S1132CC08F935F924F9299859F93AF92BF92EF92A9
S1132CD0EC81EF93FF92DF92CF92B801882777FDC2
S1132CE08095982F0E943C2D9F938F937F936F9391
S1132CF0F985FF93AF92BF92EF928C81AC2CBD2CDF
S1132D00CF2CD82EE12CF12C01E010E020911801F9
S1132D103091190140911A0150911B0160911C01DD
S1132D2070911D0180911E0190911F010E94130951
S1132D300091350110913601E0903701F09038018F
S1132D4029813A81225031093A872987882799278E
S1132D508E199F0986199709BC01882777FD8095EC
S1132D60982F0E943C2D5B016C013B853F934B8166
S1132D704F935F924F92C401800F911FBC0188272B
S1132D8077FD8095982F0E943C2D9F938F937F937E
S1132D906F93C3018E199F09BC01882777FD809525
S1132DA0982F0E943C2D9F938F937F936F935B8505
S1132DB05F938B818F935F924F9208191909B80121
S1132DC0882777FD8095982F0E943C2D9F938F93A1
S1132DD07F936F93EE24E394F12C09851A85209157
S1132DE018013091190140911A0150911B01609111
S1132DF01C0170911D0180911E0190911F010E9480
S1132E00C30C6091350170913601680D791D8827D6
S1132E1077FD8095982F0E943C2DE62ED72EC82E44
S1132E20B92E8091370190913801F301E81BF90B19
S1132E30BF01882777FD8095982F0E943C2DF62EA0
S1132E40072F182FA92E29813A81215031093D835A
S1132E502C830FB6F894DEBF0FBECDBF2091330193
S1132E6030913401B901882777FD8095982F0E940D
S1132E703C2D9F938F937F936F93BF92CF92DF925A
S1132E80EF92AF921F930F93FF925B855F938B81B9
S1132E908F935F924F92BF92CF92DF92EF928A2DDF
S1132EA0AF2CB02EC12ED82EEC80FD8001E010E0B6
S1132EB0209118013091190140911A0150911B0180
S1132EC060911C0170911D0180911E0190911F0160
S1132ED00E941309E0903501F0903601E09137012A
S1132EE0F0913801FF83EE83809133019091340196
S1132EF0BC01882777FD8095982F0E943C2D6C8714
S1132F00172F082F9887C3012E813F81821B930BB3
S1132F10BC01882777FD8095982F0E943C2D5B018A
S1132F206C0138853F930F931F934C854F93C701D2
S1132F3088199909BC01882777FD8095982F0E94EC
S1132F403C2D9F938F937F936F932E813F81319577
S1132F502195310926193709B901882777FD80950C
S1132F60982F0E943C2D9F938F937F936F93588546
S1132F705F930F931F938C858F93C4018E0D9F1DB8
S1132F80BC01882777FD8095982F0E943C2D9F9344
S1132F908F937F936F93E980FA80870120911801C2
S1132FA03091190140911A0150911B0160911C014B
S1132FB070911D0180911E0190911F010E941309BF
S1132FC0C1010FB6F894DEBF0FBECDBF99230CF438
S1132FD001961C0135942794609135017091360156
S1132FE071956195710962197309882777FD809538
S1132FF0982F0E943C2DE62ED72EC82EB92E8091F4
S113300037019091380186199709BC01882777FD0B
S11330108095982F0E943C2DF62E072F182FA92E4D
S1133020FB85FF932B812F935F924F92BF92CF9298
S1133030DF92EF929F938F937F936F93209133014D
S113304030913401B901882777FD8095982F0E942B
S11330503C2D9F938F937F936F93BF92CF92DF9278
S1133060EF928A2DAF2CB02EC12ED82EE12CF12C4C
S113307001E010E020910001309101014091020132
S11330805091030160910401709105018091060142
S1133090909107010E9413090091350110913601A6
S11330A0E0903701F0903801C70186199709BC01F7
S11330B0882777FD8095982F0E943C2D5B016C0139
S11330C03B853F934B814F935F924F92C101801B8D
S11330D0910BBC01882777FD8095982F0E943C2D89
S11330E09F938F937F936F93E60CF71CB701882708
S11330F077FD8095982F0E943C2D9F938F937F930B
S11331006F935B855F938B818F935F924F92119541
S11331100195110902191309B801882777FD8095D3
S1133120982F0E943C2D9F938F937F936F93EE244F
S1133130E394F12C09851A85209100013091010155
S113314040910201509103016091040170910501C5
S113315080910601909107010E94C30C8091350172
S113316090913601B101681B790B882777FD809512
S1133170982F0E943C2DE62ED72EC82EB92E809172
S1133180370190913801860D971DBC01882777FD82
S11331908095982F0E943C2DF62E072F182FA92ECC
S11331A00FB6F894DEBF0FBECDBF2091330130912E
S11331B03401B901882777FD8095982F0E943C2D12
S11331C09F938F937F936F93BF92CF92DF92EF92EF
S11331D0AF921F930F93FF92FB85FF932B812F9345
S11331E05F924F92BF92CF92DF92EF928A2DAF2CD3
S11331F0B02EC12ED82EEC80FD8001E010E020918D
S1133200000130910101409102015091030160914C
S113321004017091050180910601909107010E94BB
S113322013090091350110913601E0903701F090B7
S113323038018091330190913401BC01882777FDD6
S11332408095982F0E943C2D6C877C838E83988771
S1133250C3018E0D9F1DBC01882777FD8095982F93
S11332600E943C2D5B016C0138853F934E814F9346
S11332705C815F938C858F9322273327201B310B2E
S113328022193309B901882777FD8095982F0E9468
S11332903C2D9F938F937F936F93E618F708B701A4
S11332A0882777FD8095982F0E943C2D9F938F93BC
S11332B07F936F9398859F93EE81EF93FC81FF93A7
S11332C02C852F93C101801B910BBC01882777FDAE
S11332D08095982F0E943C2D9F938F937F936F939B
S11332E0E980FA8087012091000130910101409129
S11332F002015091030160910401709105018091D4
S11333000601909107010E94130900913501109163
S11333103601E0903701F0903801809133019091AB
S11333203401BC01882777FD8095982F0E943C2D9D
S11333306C877C838E8398870FB6F894DEBF0FBEAC
S1133340CDBFC3018E199F09BC01882777FD8095E5
S1133350982F0E943C2D5B016C0158855F938E81F0
S11333608F939C819F93EC85EF9322273327201B17
S1133370310B28193909B901882777FD8095982FD1
S11333800E943C2D9F938F937F936F93F194E194CC
S1133390F108E618F708B701882777FD8095982F7C
S11333A00E943C2D9F938F937F936F93F885FF9397
S11333B02E812F933C813F934C854F93C401801BF6
S11333C0910BBC01882777FD8095982F0E943C2D96
S11333D09F938F937F936F93E12CF12C09811A8132
S11333E0209108013091090140910A0150910B018B
S11333F060910C0170910D0180910E0190910F016B
S11334000E9413096091350170913601719561959F
S1133410710968197909882777FD8095982F0E948A
S11334203C2DE62ED72EC82EB92E809137019091CF
S1133430380191958195910986199709BC018827CE
S113344077FD8095982F0E943C2DF62E072F182F7C
S1133450A92E5B855F938B818F935F924F92BF926E
S1133460CF92DF92EF92AF921F930F93FF9220912E
S1133470330130913401B901882777FD8095982F65
S11334800E943C2D9F938F937F936F93BF92CF9213
S1133490DF92EF928A2DAF2CB02EC12ED82EE98068
S11334A0FA8001E010E02091080130910901409177
S11334B00A0150910B0160910C0170910D018091F2
S11334C00E0190910F010E94130900913501109192
S11334D03601E0903701F0903801E981FA813196A4
S11334E0FD83EC830FB6F894DEBF0FBECDBF8827F3
S11334F099278E199F0986199709BC01882777FD9A
S11335008095982F0E943C2D5B016C013B853F9375
S11335104B814F935F924F92C401801B910BBC016E
S1133520882777FD8095982F0E943C2D9F938F9339
S11335307F936F93C3018E199F09BC01882777FD80
S11335408095982F0E943C2D9F938F937F936F9328
S11335505B855F938B818F935F924F921195019559
S1133560110908191909B801882777FD8095982F42
S11335700E943C2D9F938F937F936F93EC80FD80EB
S113358009851A85209108013091090140910A01A9
S113359050910B0160910C0170910D0180910E010D
S11335A090910F010E94C30C8091350190913601D6
S11335B0B401681B790B882777FD8095982F0E94AA
S11335C03C2DE62ED72EC82EB92E8091370190912E
S11335D03801F301E81BF90BBF01882777FD8095BB
S11335E0982F0E943C2DF62E072F182FA92E2981E3
S11335F03A81220F331FA901415051095F834E8341
S11336002091330130913401B901882777FD8095E9
S1133610982F0E943C2D9F938F937F936F93BF921B
S1133620CF92DF92EF92AF921F930F93FF925B853D
S11336305F938B818F935F924F92BF92CF92DF9271
S1133640EF928A2DAF2CB02EC12ED82EEE80FF80A3
S113365001E010E0209108013091090140910A0134
S113366050910B0160910C0170910D0180910E013C
S113367090910F010E941309E0903501F0903601FA
S113368080903701909038018091330190913401FA
S1133690BC01882777FD8095982F0E943C2D6C876C
S11336A0172F082F98870FB6F894DEBF0FBECDBF33
S11336B0C301880D991DBC01882777FD8095982F3B
S11336C00E943C2D5B016C01F885FF930F931F93BF
S11336D02C852F93970122193309B901882777FD87
S11336E08095982F0E943C2D9F938F937F936F9387
S11336F0940126193709B901882777FD8095982FF9
S11337000E943C2D9F938F937F936F9338853F93B3
S11337100F931F934C854F93C1018E0D9F1DBC01C8
S1133720882777FD8095982F0E943C2D9F938F9337
S11337307F936F93E12CF12C09811A812091100160
S113374030911101409112015091130160911401C3
S11337507091150180911601909117010E9413092F
S1133760609135017091360162197309882777FDDC
S11337708095982F0E943C2DE62ED72EC82EB92E68
S1133780809137019091380186199709BC018827E7
S113379077FD8095982F0E943C2DF62E072F182F29
S11337A0A92E5B855F938B818F935F924F92BF921B
S11337B0CF92DF92EF92AF921F930F93FF922091DB
S11337C0330130913401B901882777FD8095982F12
S11337D00E943C2D9F938F937F936F93BF92CF92C0
S11337E0DF92EF928A2DAF2CB02EC12ED82EE98015
S11337F0FA8001E010E02091100130911101409114
S1133800120150911301609114017091150180917E
S11338101601909117010E9413090091350110912E
S11338203601E0903701F09038010FB6F894DEBF0E
S11338300FBECDBFC70186199709BC01882777FD44
S11338408095982F0E943C2D5B016C01FB85FF93B2
S11338502B812F935F924F92C101800F911FBC0166
S1133860882777FD8095982F0E943C2D9F938F93F6
S11338707F936F93E60CF71CB701882777FD80953B
S1133880982F0E943C2D9F938F937F936F933B853A
S11338903F934B814F935F924F9202191309B801E2
S11338A0882777FD8095982F0E943C2D9F938F93B6
S11338B07F936F93EC80FD8009851A852091100118
S11338C03091110140911201509113016091140142
S11338D07091150180911601909117010E94C30CFB
S11338E06091350170913601620D731D882777FD53
S11338F08095982F0E943C2DA62E172F082FF92E65
S11339006091370170913801660D771D882777FD26
S11339108095982F0E943C2DB62EC72ED82EE92EC6
S11339206091330170913401882777FD8095982F39
S11339300E943C2D9F938F937F936F93FF920F93DD
S11339401F93AF92EF92DF92CF92BF925B855F930A
S11339508B818F935F924F92FF920F931F93AF923D
S1133960AB2CBC2CCD2CDE2CEE80FF8001E010E0D3
S113397020911001309111014091120150911301D5
S113398060911401709115018091160190911701B5
S11339900E9413090FB6F894DEBF0FBECDBF0C947E
S11339A07D2AE0903501F0903601C60199230CF48C
S11339B001969C01359527953D832C83C401992359
S11339C00CF401964C0195948794409037015090E3
S11339D03801B801882777FD8095982F0E943C2DE7
S11339E0162F072F782E692E6627772764197509F5
S11339F068197909882777FD8095982F0E943C2DB6
S1133A005B016C016F927F920F931F9397014C811E
S1133A105D81241B350BB901882777FD8095982F8C
S1133A200E943C2D9F938F937F936F93C4018419BD
S1133A309509BC01882777FD8095982F0E943C2D1D
S1133A409F938F937F936F936F927F920F931F93A4
S1133A506C817D816E0D7F1D882777FD8095982F61
S1133A600E943C2D9F938F937F936F93E12CF12CB5
S1133A7009811A81209118013091190140911A018C
S1133A8050911B0160911C0170911D0180911E01D8
S1133A9090911F010E94C30C0091350110913601D1
S1133AA0E0903701F0903801609133017091340156
S1133AB0882777FD8095982F0E943C2D762E672EBF
S1133AC0582E492EB4016E197F09882777FD8095F9
S1133AD0982F0E943C2D5B016C014F925F926F9274
S1133AE07F922C813D81200F311FB901882777FDFA
S1133AF08095982F0E943C2D9F938F937F936F9373
S1133B00F194E194F108E818F908B701882777FDE2
S1133B108095982F0E943C2D9F938F937F936F9352
S1133B204F925F926F927F92B8018C819D81681B46
S1133B30790B882777FD8095982F0E943C2D9F93C1
S1133B408F937F936F93E980FA8087012091180106
S1133B503091190140911A0150911B0160911C018F
S1133B6070911D0180911E0190911F010E94130903
S1133B70E0903501F090360131010FB6F894DEBFC4
S1133B800FBECDBF33201CF4FFEF6F1A7F0A75946C
S1133B90679400913701109138016091330170915D
S1133BA03401882777FD8095982F0E943C2D262E7E
S1133BB0372E582E492EB80166197709882777FDC4
S1133BC08095982F0E943C2D5B016C014F925F926F
S1133BD03F922F92222733272E193F094C815D8172
S1133BE0241B350BB901882777FD8095982F0E94F7
S1133BF03C2D9F938F937F936F93060D171DB801F0
S1133C00882777FD8095982F0E943C2D9F938F9352
S1133C107F936F934F925F923F922F926C817D813D
S1133C206E197F09882777FD8095982F0E943C2D77
S1133C309F938F937F936F93E12CF12C09811A81C9
S1133C402091000130910101409102015091030142
S1133C506091040170910501809106019091070122
S1133C600E94C30CE0903501F090360100913701B9
S1133C70109138016091330170913401882777FDE8
S1133C808095982F0E943C2D262E372E582E492E93
S1133C90B301600F711F882777FD8095982F0E94CC
S1133CA03C2D5B016C014F925F923F922F922C81CD
S1133CB03D812E193F09B901882777FD8095982FFA
S1133CC00E943C2D9F938F937F936F93061917093E
S1133CD0B801882777FD8095982F0E943C2D9F93EB
S1133CE08F937F936F934F925F923F922F926627A9
S1133CF077276E197F098C819D81681B790B882732
S1133D0077FD8095982F0E943C2D9F938F937F93EE
S1133D106F93E980FA8087012091000130910101BD
S1133D2040910201509103016091040170910501D9
S1133D3080910601909107010E941309E0903501DA
S1133D40F0903601009137011091380160913301F0
S1133D5070913401882777FD8095982F0E943C2D1F
S1133D60262E372E582E492E0FB6F894DEBF0FBEDE
S1133D70CDBFB301601B710B882777FD8095982F09
S1133D800E943C2D5B016C014F925F923F922F92F7
S1133D902C813D812E193F09B901882777FD809533
S1133DA0982F0E943C2D9F938F937F936F9311952F
S1133DB00195110906191709B801882777FD80951F
S1133DC0982F0E943C2D9F938F937F936F934F92D4
S1133DD05F923F922F92662777276E197F092C8175
S1133DE03D81621B730B882777FD8095982F0E9475
S1133DF03C2D9F938F937F936F93E12CF12C09813A
S1133E001A81209108013091090140910A015091D1
S1133E100B0160910C0170910D0180910E01909144
S1133E200F010E941309E0903501F09036010091D2
S1133E303701109138016091330170913401882762
S1133E4077FD8095982F0E943C2D262E372E582ED4
S1133E50492E66277727601B710B66197709882717
S1133E6077FD8095982F0E943C2D5B016C014F9249
S1133E705F923F922F92222733272E193F094C81BC
S1133E805D81241B350BB901882777FD8095982F18
S1133E900E943C2D9F938F937F936F93B301601B7C
S1133EA0710B882777FD8095982F0E943C2D9F9356
S1133EB08F937F936F934F925F923F922F926C8177
S1133EC07D816E197F09882777FD8095982F0E9440
S1133ED03C2D9F938F937F936F93E980FA808701A2
S1133EE0209108013091090140910A0150910B0180
S1133EF060910C0170910D0180910E0190910F0160
S1133F000E94C30C0091350110913601E0903701F5
S1133F10F09038016091330170913401882777FD66
S1133F208095982F0E943C2D762E672E582E492E70
S1133F300FB6F894DEBF0FBECDBFB4016E0D7F1D6A
S1133F40882777FD8095982F0E943C2D5B016C019A
S1133F504F925F926F927F922C813D81200F311F8F
S1133F60B901882777FD8095982F0E943C2D9F9357
S1133F708F937F936F93B70168197909882777FD29
S1133F808095982F0E943C2D9F938F937F936F93DE
S1133F904F925F926F927F92B801EC81FD816E1B0C
S1133FA07F0B882777FD8095982F0E943C2D9F9347
S1133FB08F937F936F93E12CF12C09811A812091C7
S1133FC0100130911101409112015091130160913F
S1133FD014017091150180911601909117010E94AE
S1133FE013090091350110913601E0903701F090EA
S1133FF038016091330170913401882777FD8095F1
S1134000982F0E943C2D762E672E582E492EB701EC
S113401068197909882777FD8095982F0E943C2D8F
S11340205B016C014F925F926F927F9298014C8179
S11340305D81241B350BB901882777FD8095982F66
S11340400E943C2D9F938F937F936F93B4016E0DC9
S11340507F1D882777FD8095982F0E943C2D9F9384
S11340608F937F936F934F925F926F927F926C8145
S11340707D81600F711F882777FD8095982F0E949E
S11340803C2D9F938F937F936F93E980FA808701F0
S113409020911001309111014091120150911301AE
S11340A0609114017091150180911601909117018E
S11340B00E94C30C0FB6F894DEBF0FBECDBF0C94A4
S11340C07D2A4090350150903601310133201CF493
S11340D09FEF691A790A75946794E0903701F0901C
S11340E03801C60199230CF40196FC01F595E79576
S11340F0FD83EC83B801882777FD8095982F0E9473
S11341003C2D262E372E182F092F6C817D816E1998
S11341107F09882777FD8095982F0E943C2D5B01AD
S11341206C010F931F933F922F9292012619370926
S1134130B901882777FD8095982F0E943C2D9F9385
S11341408F937F936F93F194E194F1082C813D81D7
S1134150E21AF30AB701882777FD8095982F0E9409
S11341603C2D9F938F937F936F930F931F933F9255
S11341702F92B201660D771D882777FD8095982FC1
S11341800E943C2D9F938F937F936F93E12CF12C8E
S113419009811A81209118013091190140911A0165
S11341A050911B0160911C0170911D0180911E01B1
S11341B090911F010E94C30CE0903501F0903601EC
S11341C000913701109138016091330170913401ED
S11341D0882777FD8095982F0E943C2D262E372E18
S11341E0582E492E66277727601B710B4C815D8101
S11341F0641B750B882777FD8095982F0E943C2DB2
S11342005B016C014F925F923F922F9293012E0DAE
S11342103F1DB901882777FD8095982F0E943C2D7A
S11342209F938F937F936F938C819D81801B910BC0
S1134230BC01882777FD8095982F0E943C2D9F9381
S11342408F937F936F934F925F923F922F92B70118
S113425066197709882777FD8095982F0E943C2D51
S11342609F938F937F936F93E980FA8087012091C6
S113427018013091190140911A0150911B0160916C
S11342801C0170911D0180911E0190911F010E94DB
S11342901309E0903501F0903601C4010FB6F8948B
S11342A0DEBF0FBECDBF99230CF401964C0195944B
S11342B08794009137011091380160913301709116
S11342C03401882777FD8095982F0E943C2D262E57
S11342D0372E582E492E6C817D81600F711F8827DF
S11342E077FD8095982F0E943C2D5B016C014F92C5
S11342F05F923F922F92222733272E193F092819C4
S11343003909B901882777FD8095982F0E943C2DA3
S11343109F938F937F936F932C813D81021B130B8B
S1134320B801882777FD8095982F0E943C2D9F9394
S11343308F937F936F934F925F923F922F92B4012A
S11343406E197F09882777FD8095982F0E943C2D50
S11343509F938F937F936F93E12CF12C09811A81A2
S1134360209100013091010140910201509103011B
S113437060910401709105018091060190910701FB
S11343800E94C30CE0903501F09036010091370192
S1134390109138016091330170913401882777FDC1
S11343A08095982F0E943C2D262E372E582E492E6C
S11343B0B8014C815D81641B750B882777FD80955E
S11343C0982F0E943C2D5B016C014F925F923F92AB
S11343D02F9294012E193F09B901882777FD809502
S11343E0982F0E943C2D9F938F937F936F938C8182
S11343F09D81080F191FB801882777FD8095982F94
S11344000E943C2D9F938F937F936F934F925F9263
S11344103F922F92662777276E197F0968197909C9
S1134420882777FD8095982F0E943C2D9F938F932A
S11344307F936F93E980FA80870120910001309186
S113444001014091020150910301609104017091B6
S1134450050180910601909107010E941309E090E3
S11344603501F090360100913701109138016091C7
S1134470330170913401882777FD8095982F0E942D
S11344803C2D262E372E582E492E0FB6F894DEBF1B
S11344900FBECDBF66277727601B710B2C813D8132
S11344A0621B730B882777FD8095982F0E943C2D03
S11344B05B016C014F925F923F922F9293012E19F0
S11344C03F09B901882777FD8095982F0E943C2DDC
S11344D09F938F937F936F938C819D81801B910B0E
S11344E0BC01882777FD8095982F0E943C2D9F93CF
S11344F08F937F936F934F925F923F922F92662791
S113450077276E197F0966197709882777FD8095C3
S1134510982F0E943C2D9F938F937F936F93E12C50
S1134520F12C09811A8120910801309109014091EF
S11345300A0150910B0160910C0170910D01809161
S11345400E0190910F010E941309E0903501F09043
S11345503601009137011091380160913301709157
S11345603401882777FD8095982F0E943C2D262EB4
S1134570372E582E492E6C817D81601B710B882744
S113458077FD8095982F0E943C2D5B016C014F9222
S11345905F923F922F92222733272E193F09261923
S11345A03709B901882777FD8095982F0E943C2D03
S11345B09F938F937F936F931195019511094C816C
S11345C05D81041B150BB801882777FD8095982F12
S11345D00E943C2D9F938F937F936F934F925F9292
S11345E03F922F92B3016E197F09882777FD80953A
S11345F0982F0E943C2D9F938F937F936F93E98014
S1134600FA808701209108013091090140910A0143
S113461050910B0160910C0170910D0180910E017C
S113462090910F010E94C30C009135011091360145
S1134630E0903701F09038016091330170913401BA
S1134640882777FD8095982F0E943C2D762E672E23
S1134650582E492E0FB6F894DEBF0FBECDBFB7015A
S1134660EC81FD816E1B7F0B882777FD8095982F49
S11346700E943C2D5B016C014F925F926F927F927E
S11346809401200F311FB901882777FD8095982F59
S11346900E943C2D9F938F937F936F936C817D81B8
S11346A06E0D7F1D882777FD8095982F0E943C2DE5
S11346B09F938F937F936F934F925F926F927F92AA
S11346C0B80168197909882777FD8095982F0E9489
S11346D03C2D9F938F937F936F93E12CF12C098151
S11346E01A812091100130911101409112015091D1
S11346F0130160911401709115018091160190913C
S113470017010E9413090091350110913601E090C0
S11347103701F0903801609133017091340188279A
S113472077FD8095982F0E943C2D762E672E582E6B
S1134730492E6C817D816E0D7F1D882777FD8095C4
S1134740982F0E943C2D5B016C014F925F926F92F7
S11347507F92980128193909B901882777FD809536
S1134760982F0E943C2D9F938F937F936F93B70153
S11347702C813D81621B730B882777FD8095982FD0
S11347800E943C2D9F938F937F936F934F925F92E0
S11347906F927F92B401600F711F882777FD809517
S11347A0982F0E943C2D9F938F937F936F93E98062
S11347B0FA8087012091100130911101409112017A
S11347C050911301609114017091150180911601AB
S11347D0909117010E94C30C0FB6F894DEBF0FBE70
S11347E0CDBF8BC6C60199230CF40196FC01F59547
S11347F0E795FD83EC834090350150903601E090BD
S11348003701F0903801310133201CF4FFEF6F1AA7
S11348107F0A75946794B801882777FD8095982F4F
S11348200E943C2D262E372E182F092FB3016E1906
S11348307F09882777FD8095982F0E943C2D5B0186
S11348406C010F931F933F922F922C813D81240D75
S1134850351DB901882777FD8095982F0E943C2D3E
S11348609F938F937F936F93F194E194F108E618EB
S1134870F708B701882777FD8095982F0E943C2D73
S11348809F938F937F936F930F931F933F922F92D6
S1134890B2012C813D81621B730B882777FD8095C3
S11348A0982F0E943C2D9F938F937F936F93E12CBD
S11348B0F12C09811A81209118013091190140913C
S11348C01A0150911B0160911C0170911D0180918E
S11348D01E0190911F010E94C30CE0903501F090DD
S11348E036010091370110913801609133017091C4
S11348F03401882777FD8095982F0E943C2D262E21
S1134900372E582E492E66277727601B710B6619A0
S11349107709882777FD8095982F0E943C2D5B01AD
S11349206C014F925F923F922F9297014C815D816F
S1134930241B350BB901882777FD8095982F0E9499
S11349403C2D9F938F937F936F93C301801B910B97
S1134950BC01882777FD8095982F0E943C2D9F935A
S11349608F937F936F934F925F923F922F926C81BC
S11349707D816E0D7F1D882777FD8095982F0E947D
S11349803C2D9F938F937F936F93E980FA808701E7
S1134990209118013091190140911A0150911B0185
S11349A060911C0170911D0180911E0190911F0165
S11349B00E941309E0903501F0903601009137010F
S11349C010913801C4010FB6F894DEBF0FBECDBFFD
S11349D099230CF401964C019594879460913301CA
S11349E070913401882777FD8095982F0E943C2D83
S11349F0262E372E582E492EB801680D791D88278A
S1134A0077FD8095982F0E943C2D5B016C014F929D
S1134A105F923F922F922C813D812E193F09B9015B
S1134A20882777FD8095982F0E943C2D9F938F9324
S1134A307F936F9308191909B801882777FD80952A
S1134A40982F0E943C2D9F938F937F936F934F9247
S1134A505F923F922F92662777276E197F092C81E8
S1134A603D81621B730B882777FD8095982F0E94E8
S1134A703C2D9F938F937F936F93E12CF12C0981AD
S1134A801A8120910001309101014091020150915D
S1134A9003016091040170910501809106019091D8
S1134AA007010E94C30CE0903501F090360100919B
S1134AB037011091380160913301709134018827D6
S1134AC077FD8095982FD8D7262E372E582E492E2D
S1134AD0B80168197909882777FD8095982FCCD774
S1134AE05B016C014F925F923F922F9222273327F2
S1134AF02E193F094C815D81241B350BB901882790
S1134B0077FD8095982FB8D79F938F937F936F935A
S1134B10080D191DB801882777FD8095982FACD70B
S1134B209F938F937F936F934F925F923F922F92B5
S1134B306C817D816E197F09882777FD8095982F78
S1134B409BD79F938F937F936F93E980FA8087011C
S1134B502091000130910101409102015091030123
S1134B606091040170910501809106019091070103
S1134B700E941309E0903501F0903601009137014D
S1134B80109138016091330170913401882777FDC9
S1134B908095982F71D7262E372E582E492E0FB672
S1134BA0F894DEBF0FBECDBF66277727601B710B5D
S1134BB068197909882777FD8095982F5DD75B015F
S1134BC06C014F925F923F922F92222733272E1926
S1134BD03F09EC81FD812E1B3F0BB901882777FD2E
S1134BE08095982F49D79F938F937F936F93C40198
S1134BF0801B910BBC01882777FD8095982F3CD7AB
S1134C009F938F937F936F934F925F923F922F92D4
S1134C106C817D816E197F09882777FD8095982F97
S1134C202BD79F938F937F936F93E12CF12C098162
S1134C301A81209108013091090140910A01509193
S1134C400B0160910C0170910D0180910E01909106
S1134C500F010E941309E0903501F0903601009194
S1134C603701109138016091330170913401882724
S1134C7077FD8095982F00D7262E372E582E492E53
S1134C80B401601B710B882777FD8095982FF4D6AB
S1134C905B016C014F925F923F922F922C813D8178
S1134CA02E193F09B901882777FD8095982FE4D6FE
S1134CB09F938F937F936F93119501951109B80179
S1134CC068197909882777FD8095982FD5D69F9301
S1134CD08F937F936F934F925F923F922F926627A9
S1134CE077276E197F092C813D81621B730B8827FE
S1134CF077FD8095982FC0D69F938F937F936F9362
S1134D00E980FA80870120910801309109014091DE
S1134D100A0150910B0160910C0170910D01809179
S1134D200E0190910F010E94C30C00913501109166
S1134D303601E0903701F0903801609133017091B1
S1134D403401882777FD8095982F96D6962E872E46
S1134D50582E492E0FB6F894DEBF0FBECDBFB70153
S1134D6066197709882777FD8095982F85D65B018A
S1134D706C014F925F928F929F9298018C819D81DA
S1134D80281B390BB901882777FD8095982F74D695
S1134D909F938F937F936F93B3016E0D7F1D88272D
S1134DA077FD8095982F68D69F938F937F936F9309
S1134DB04F925F928F929F926C817D81600F711FE1
S1134DC0882777FD8095982F57D69F938F937F934D
S1134DD06F93E12CF12C09811A81209110013091FB
S1134DE011014091120150911301609114017091CD
S1134DF0150180911601909117010E9413090091E9
S1134E00350110913601E0903701F090380160913E
S1134E10330170913401882777FD8095982F2CD623
S1134E20962E872E582E492EB3016E0D7F1D88278E
S1134E3077FD8095982F20D65B016C014F925F928D
S1134E408F929F922C813D81200F311FB9018827B9
S1134E5077FD8095982F10D69F938F937F936F93B0
S1134E60B70166197709882777FD8095982F04D6AE
S1134E709F938F937F936F934F925F928F929F92A2
S1134E80B801EC81FD816E1B7F0B882777FD80952F
S1134E90982FF2D59F938F937F936F93E980FA8035
S1134EA0870120911001309111014091120150911C
S1134EB01301609114017091150180911601909174
S1134EC017010E94C30C0FB6F894DEBF0FBECDBF0E
S1134ED014C3490133231CF44FEF841A940A9594A4
S1134EE08794E0903501F0903601B801882777FD6A
S1134EF08095982FC1D5B62EA72E782E692E609155
S1134F00370170913801719561957109882777FD92
S1134F108095982FB1D5C62ED72E082F192F6F92B2
S1134F207F92AF92BF92B4016E0D7F1D882777FDEB
S1134F308095982FA1D59F938F937F936F931F9301
S1134F400F93DF92CF926F927F92AF92BF92B7018D
S1134F5068197909882777FD8095982F8DD59F93B7
S1134F608F937F936F93AC2CBD2CC02ED12EE12C4C
S1134F70F12C09811A812091180130911901409175
S1134F801A0150911B0160911C0170911D018091C7
S1134F901E0190911F010E94C30C009135011091D4
S1134FA036016091330170913401882777FD809533
S1134FB0982F62D5B62EA72E782E692E60913701D0
S1134FC070913801719561957109882777FD8095F5
S1134FD0982F52D5C62ED72EE82EF92E6F927F9297
S1134FE0AF92BF92B80168197909882777FD809537
S1134FF0982F42D59F938F937F936F93FF92EF9255
S1135000DF92CF926F927F92AF92BF92B401600F02
S1135010711F882777FD8095982F2ED59F938F93A6
S11350207F936F93AC2CBD2CCE2CDF2CE980FA80BF
S11350308701209118013091190140911A01509172
S11350401B0160911C0170911D0180911E019091C2
S11350501F010E941309C2010FB6F894DEBF0FBEF0
S1135060CDBF99230CF401962C01559447940091DB
S11350703501109136016091330170913401882714
S113508077FD8095982FF8D4B62EA72E782E692E0A
S11350906091370170913801882777FD8095982FAA
S11350A0EBD4C62ED72EE82EF92E6F927F92AF92B4
S11350B0BF92B201601B710B882777FD8095982FF2
S11350C0DBD49F938F937F936F93FF92EF92DF9242
S11350D0CF926F927F92AF92BF9266277727601B21
S11350E0710B64197509882777FD8095982FC4D4AE
S11350F09F938F937F936F93AC2CBD2CCE2CDF2C7E
S1135100E12CF12C09811A812091000130910101D7
S113511040910201509103016091040170910501D5
S113512080910601909107010E94C30C0091350102
S1135130109136016091330170913401882777FD15
S11351408095982F99D4B62EA72E782E692E60912B
S1135150370170913801882777FD8095982F8CD47A
S1135160C62ED72EE82EF92E6F927F92AF92BF9261
S113517066277727601B710B64197509882777FDEB
S11351808095982F79D49F938F937F936F93FF92F9
S1135190EF92DF92CF926F927F92AF92BF92B20161
S11351A0601B710B882777FD8095982F65D49F939A
S11351B08F937F936F93AC2CBD2CCE2CDF2CE98086
S11351C0FA80870120910001309101014091020190
S11351D050910301609104017091050180910601D1
S11351E0909107010E941309009135011091360135
S11351F06091330170913401882777FD8095982F51
S11352003BD4B62EA72E782E692E6091370170916B
S11352103801719561957109882777FD8095982FDC
S11352202BD4C62ED72EE82EF92E0FB6F894DEBF57
S11352300FBECDBF6F927F92AF92BF926627772742
S1135240601B710B68197909882777FD8095982F61
S113525013D49F938F937F936F93FF92EF92DF9278
S1135260CF926F927F92AF92BF92B401601B710B89
S1135270882777FD8095982FFFD39F938F937F93F3
S11352806F93AC2CBD2CCE2CDF2CE12CF12C09819E
S11352901A81209108013091090140910A0150912D
S11352A00B0160910C0170910D0180910E019091A0
S11352B00F010E941309009135011091360160918C
S11352C0330170913401882777FD8095982FD4D3CA
S11352D0B62EA72E782E692E609137017091380171
S11352E0719561957109882777FD8095982FC4D3AE
S11352F0C62ED72EE82EF92E6F927F92AF92BF92D0
S1135300B401601B710B882777FD8095982FB4D367
S11353109F938F937F936F93FF92EF92DF92CF923D
S11353206F927F92AF92BF9266277727601B710BB3
S113533068197909882777FD8095982F9DD39F93C5
S11353408F937F936F93AC2CBD2CCE2CDF2CE980F4
S1135350FA808701209108013091090140910A01E6
S113536050910B0160910C0170910D0180910E011F
S113537090910F010E94C30C0091350110913601E8
S11353806091330170913401882777FD8095982FBF
S113539073D3B62EA72E982E892E60913701709163
S11353A03801882777FD8095982F66D3C62ED72E8F
S11353B0E82EF92E0FB6F894DEBF0FBECDBF8F9244
S11353C09F92AF92BF92B80164197509882777FD3F
S11353D08095982F51D39F938F937F936F93FF92D0
S11353E0EF92DF92CF928F929F92AF92BF92B201CF
S11353F0600F711F882777FD8095982F3DD39F9369
S11354008F937F936F93AC2CBD2CCE2CDF2CE12C8F
S1135410F12C09811A8120911001309111014091E0
S11354201201509113016091140170911501809142
S11354301601909117010E941309009135011091F2
S113544036016091330170913401882777FD80958E
S1135450982F12D3B62EA72E982E892E609137013D
S113546070913801882777FD8095982F05D3C62E33
S1135470D72EE82EF92E8F929F92AF92BF92B2014F
S1135480600F711F882777FD8095982FF5D29F9321
S11354908F937F936F93FF92EF92DF92CF928F92CD
S11354A09F92AF92BF92B80164197509882777FD5E
S11354B08095982FE1D29F938F937F936F93AC2C19
S11354C0BD2CCE2CDF2CE980FA80870120911001BD
S11354D03091110140911201509113016091140116
S11354E07091150180911601909117010E94C30CCF
S11354F00FB6F894DEBF0FBECDBF2C960FB6F8944E
S1135500DEBF0FBECDBFDF91CF911F910F91FF90F2
S1135510EF90DF90CF90BF90AF909F908F907F904F
S11355206F905F904F903F902F9008950E94AD0030
S11355300E949C008FE0809369008DB383608DBBD3
S1135540789410923F0110923E0181E090E0909394
S11355502301809322010E94030180912F019091E5
S113556030010E94AE150E94130880912B01909186
S11355702C010E94100180912F01909130019923F8
S11355800CF403969595879595958795EC0121974D
S1135590612C712CAA24A394B12C862C972C0F2E49
S11355A0F8E5CF2EF5E0DF2EF02D0F2EFAE5EF2EE5
S11355B0F5E0FF2EF02D06E515E06894222422F88C
S11355C00F2EF3E03F2EF02D6894442441F8552427
S11355D0539420918C0930E0809126019091270109
S11355E02817390774F026B530E080912401909192
S11355F02501281739072CF00E94E11416BC1092DB
S11356008C098A2D9B2D20913E0130913F012C174E
S11356103D0711F0882D992D20913C0130913D01D9
S113562082239323892BA9F2809141019091420115
S11356308130910531F082309105A9F0892B81F5F3
S113564025C080912D0190912E01F60191838083D4
S1135650919581959109F7019183808360923C0132
S113566070923D011DC080912D0190912E01222741
S11356703327281B390BF60131832083F7019183EB
S1135680808360923C0170923D010AC0F601118250
S11356901082F7011182108260923C0170923D01E8
S11356A080914301909144018B30910508F06DC0C5
S11356B0FC01EA5BFF4F9FC350922A01F80111825B
S11356C0108260923C0170923D015FC050922A01A9
S11356D08091390190913A01F8019183808360921D
S11356E03C0170923D0151C040922A01F80111829F
S11356F0108260923C0170923D0147C040922A01A1
S11357008091390190913A01F801918380836092EC
S11357103C0170923D0139C030922A01F801118296
S1135720108260923C0170923D012FC030922A0198
S11357308091390190913A01F801918380836092BC
S11357403C0170923D0121C020922A01F80111828E
S1135750108260923C0170923D0117C020922A0190
S11357608091390190913A01F8019183808360928C
S11357703C0170923D0109C010922A01F801118286
S1135780108260923C0170923D0180912F019091B2
S113579030010E94AE151DCF9F939F77A8D10F9023
S11357A000203AF49058A2EA2AED3FE049E450E49C
S11357B013D0F4C15058BB27AA270ED0EFC1E0D1B3
S11357C030F0E5D120F031F49F3F11F41EF4B0C164
S11357D00EF4E095E7FBA6C1E92FF1D180F3BA17E7
S11357E0620773078407950718F071F49EF509C2E0
S11357F00EF4E0950B2EBA2FA02D0B01B9019001E8
S11358000C01CA01A0011124FF27591B99F0593F2B
S113581050F4503E68F11A16F040A22F232F342F73
S11358204427585FF3CF469537952795A795F040C1
S11358305395C9F77EF41F16BA0B620B730B840BD6
S1135840BAF09150A1F0FF0FBB1F661F771F881F8E
S1135850C2F70EC0BA0F621F731F841F48F48795E6
S113586077956795B795F7959E3F08F0B3CF9395D5
S1135870880F08F09927EE0F97958795089580D1A2
S113588058F080E891E009F49EEF81D128F040E8D7
S113589051E059F45EEF09C04BC1B3C1E92FE07880
S11358A08ED168F3092E052AC1F326173707480756
S11358B0590738F00E2E07F8E02569F0E025E0647A
S11358C00AC0EF6307F8009407FADB01B9019D01F0
S11358D0DC01CA01AD01EF9343D060D10AD05F91DE
S11358E0552331F02BED3FE049E450FD49EC63CF03
S11358F00895DF93DD27B92FBF7740E85FE31616DD
S1135900170648075B0710F4D92F82D19F938F9312
S11359107F936F9329D2E2EAF0E00DD13FD12F912A
S11359203F914F915F9187D1DD2349F09058A2EACE
S11359302AED3FE049EC5FE3D0785D274DDFDF914E
S11359402DC10CD02BC123D140F01AD130F021F459
S11359505F3F19F0E7C0511155C1EAC030D198F347
S11359609923C9F35523B1F3951B550BBB27AA27DC
S113597062177307840738F09F5F5F4F220F331F4E
S1135980441FAA1FA9F333D00E2E3AF0E0E830D01A
S113599091505040E695001CCAF729D0FE2F27D01D
S11359A0660F771F881FBB1F261737074807AB07EB
S11359B0B0E809F0BB0B802DBF01FF2793585F4F60
S11359C02AF09E3F510568F0ADC01CC15F3FECF367
S11359D0983EDCF3869577956795B795F7959F5F25
S11359E0C9F7880F911D9695879597F90895E1E079
S11359F0660F771F881FBB1F621773078407BA07D8
S1135A0020F0621B730B840BBA0BEE1F88F7E09532
S1135A10089504D06894B111F5C00895D8D088F0E1
S1135A209F5790F0B92F9927B751A0F0D1F0660F86
S1135A30771F881F991F1AF0BA95C9F712C0B130A1
S1135A4081F0DFD0B1E00895DCC0672F782F88277C
S1135A50B85F39F0B93FCCF3869577956795B395E0
S1135A60D9F73EF490958095709561957F4F8F4F4F
S1135A709F4F0895E89409C097FB3EF49095809554
S1135A80709561957F4F8F4F9F4F9923A9F0F92F00
S1135A9096E9BB279395F695879577956795B7957E
S1135AA0F111F8CFFAF4BB0F11F460FF1BC06F5F64
S1135AB07F4F8F4F9F4F16C0882311F096E911C076
S1135AC0772321F09EE8872F762F05C0662371F097
S1135AD096E8862F70E060E02AF09A95660F771FAB
S1135AE0881FDAF7880F9695879597F90895DF93BD
S1135AF0CF931F930F938B01EC01EFECF0E01BD0DD
S1135B004DD09801AE018B01EC0160E070E080E8BB
S1135B109FE350DEEBD09801AE010F911F91CF911E
S1135B20DF9189C097F99F6780E870E060E008958D
S1135B309FEF80EC0895DF93CF931F930F93FF9211
S1135B40EF92DF927B018C01689405C0DA2EEF019D
S1135B5072D0FE01E894A591259135914591559116
S1135B60AEF3EF0139DEFE019701A801DA9479F76B
S1135B70DF90EF90FF900F911F91CF91DF910895E7
S1135B8000240A9416161706180609060895002418
S1135B900A9412161306140605060895092E039492
S1135BA0000C11F4882352F0BB0F40F4BF2B11F406
S1135BB060FF04C06F5F7F4F8F4F9F4F089557FD65
S1135BC09058440F551F59F05F3F71F04795880F67
S1135BD097FB991F61F09F3F79F0879508951216FE
S1135BE013061406551FF2CF4695F1DF08C01616AA
S1135BF017061806991FF1CF86957105610508945B
S1135C000895E894BB2766277727CB0197F9089571
S1135C109B01AC0160E070E080E89FE392CE0BD082
S1135C20BDCFAEDF28F0B3DF18F0952309F07ACFAB
S1135C307FCF1124E7CFC3DFA0F3959FD1F3950F56
S1135C4050E0551F629FF001729FBB27F00DB11DFC
S1135C50639FAA27F00DB11DAA1F649F6627B00D8C
S1135C60A11D661F829F2227B00DA11D621F739F75
S1135C70B00DA11D621F839FA00D611D221F749F83
S1135C803327A00D611D231F849F600D211D822FCA
S1135C90762F6A2F11249F5750408AF0E1F0882311
S1135CA04AF0EE0FFF1FBB1F661F771F881F91501E
S1135CB05040A9F79E3F510570F034CFA3CF5F3F0A
S1135CC0ECF3983EDCF3869577956795B795F79551
S1135CD0E7959F5FC1F7FE2B880F911D96958795D9
S1135CE097F9089511F40EF423CF41C070DFD0F377
