S0150000546573745F736572766F5F76312E73726563DB
S113000085C000000C94AF140C9403159EC000002E
S11300109CC000009AC0000098C0000096C0000078
S113002094C0000092C0000090C000009BC100007A
S11300308CC000008AC0000088C0000086C0000098
S113004084C0000082C000007CC100007EC00000AB
S11300507CC000007AC0000078C0000076C00000B8
S113006074C0000072C0000070C000006EC00000C8
S11300706CC000006AC0000068C0000066C00000D8
S113008064C0000062C0000060C000008C31F83021
S113009040319D311C3108312C319D31663177312D
S11300A05131B531B331B931B731BD31BB31C13162
S11300B0BF31C531C331084AD73B3BCE016E84BC46
S11300C0BFFDC12F3D6C74319ABD56833DDA3D00AE
S11300D0C77F11BED9E4BB4C3E916BAAAABE0000F7
S11300E000803F072C7AA5BA6CC590DA3B9365FC77
S11300F08BBC53F810FD3C5692834DBD879D3AB698
S11301003DCBC9BF5BBE73DA0FC93F0011241FBECC
S1130110CFEFD0E4DEBFCDBF11E0A0E0B1E0E2EE6E
S1130120FAE600E00BBF02C007900D92A434B107B9
S1130130D9F729E0A4E4B1E001C01D92A139B207C6
S1130140E1F70E94C7310C946F355ACF85B58460AE
S113015085BD16BCEEE6F0E080818160808310925C
S113016055010895E1EBF0E0808186608083109270
S1130170B200E0E7F0E08081816080831092540156
S113018008956634710509F453C0B4F46E317105F1
S1130190D9F144F46A30710509F472C0643171050F
S11301A071F128C062337105C9F16C337105D9F15D
S11301B068327105F9F42DC0683C710509F44CC02E
S11301C05CF46A357105F1F16436710509F43FC0D8
S11301D06035710579F431C0603921E0720709F4A2
S11301E045C0643F21E0720709F445C06C3221E048
S11301F07207B9F142E350E024E630E045C044E040
S113020050E022EE30E040C047E050E023E530E02B
S11302103BC049E050E024EC30E036C04CE050E014
S113022025E330E031C04EE050E026EA30E02CC057
S113023041E150E027E130E027C043E150E028E805
S113024030E022C045E150E029EF30E01DC048E134
S113025050E02AE630E018C040E350E024ED30E0FE
S113026013C049E450E02EE330E00EC041E650E014
S113027028EA30E009C04AE750E022E130E004C057
S113028042E050E021E730E0009719F0029771F066
S1130290089570935701609356015093070140935A
S11302A006013093050120930401089570935301CE
S11302B06093520150930301409302013093010172
S11302C02093000108952091550130E080910601AA
S11302D090910701281739076CF046B550E081E08A
S11302E090E020910401309105014217530724F452
S11302F080E0089580E090E008952091540130E07A
S113030080910201909103012817390774F04091FC
S1130310B20050E081E090E02091000130910101B1
S11303204217530724F480E0089580E090E0089594
S113033016BC1092550108951092B2001092540107
S113034008951F920F920FB60F9211248F938091EC
S113035055018F5F809355018F910F900FBE0F90C1
S11303601F9018951F920F920FB60F9211248F931E
S1130370809154018F5F809354018F910F900FBE31
S11303800F901F90189586E081B984E082B980EAC5
S113039084B981E58CBD0895F89494E092B98EBD3A
S11303A00DB407FEFDCF8EB58093580186E082B967
S11303B078940895F89492E092B98EBD0DB407FE36
S11303C0FDCF8EB58093580186E082B97894089564
S11303D0CF93DF93C62FD72FEDDF8AE18A95F1F70C
S11303E000C08D2FE7DF8AE18A95F1F700C08C2FDA
S11303F0E1DF8AE18A95F1F700C0DF91CF9108959A
S1130400CF93CADF8AE18A95F1F700C088EBC4DF95
S1130410C09158018AE18A95F1F700C088EBBCDFEE
S1130420209158018C2F90E0982F8827820F911DDE
S1130430CF91089580E18AB91BB81092C50010923B
S1130440C40088E18093C10086E08093C2000895CF
S1130450E0ECF0E0908195FFFDCF8093C600089515
S1130460CF92EF92FF920F931F93CF93DF93C82FF6
S1130470D62F142FF22E80E18BB9E0ECF0E08081CE
S113048080838FEFE5DF8FEFE3DF8C2FE1DF87E001
S1130490DFDF8D2FDDDF812FDBDF8F2DD9DF802F95
S11304A0D7DF8E2DD5DF8C2DD3DFF89487E08C0D2C
S11304B0E80E0E0DF00E1F0DD10F8D2F8C0F8095B1
S11304C0C7DFE0ECF0E0808186FFFDCF1BB87894B5
S11304D0DF91CF911F910F91FF90EF90CF900895EE
S11304E09B01AC01A8EEB3E00E9434352091560183
S11304F030915701A901440F551F240F351F220FB6
S1130500331F442737FD4095542F0E941235223063
S11305103105410551052CF462E070E080E090E083
S11305200895622F732F842F952F08954F925F9211
S11305306F927F928F929F92AF92BF92CF92DF92EF
S1130540EF92FF920F931F93CF93DF93EC01680117
S113055079014D3281E0580761057105E0F5AFEF8F
S1130560B3E09A01AB010E9434352CE231E040E063
S113057050E00E94123549015A019924AA24BB244F
S1130580432E512C82E7C816D104E104F104A4F4EB
S1130590AFEFB3E0A70196010E94343522E730E0C3
S11305A040E050E00E94123579018A01FF240027BF
S11305B01127432F50E006C040E050E0BA01E12C7F
S11305C0F12C87016A01820194014EE150E063E05D
S11305D070E0CE0145DFDF91CF911F910F91FF9025
S11305E0EF90DF90CF90BF90AF909F908F907F90CF
S11305F06F905F904F9008954F925F926F927F92A9
S11306008F929F92AF92BF92CF92DF92EF92FF921E
S11306100F931F93CF93DF93CDB7DEB760970FB6D9
S1130620F894DEBF0FBECDBF2B013C0149015A0136
S1130630E982FA820B831C83860190580E949432CB
S11306406D877E878F87988B29813A814B815C8166
S1130650CA01B9010E9455346B017C01A3019201C6
S1130660C301B2010E9455342B013C01A501940140
S1130670C501B4010E9455349B01AC01C301B20110
S11306800E9421322B013C010E94BC3420E030E066
S113069048E452E40E9420324B015C019B01AC010E
S11306A00E9455346D837E838F8398879B01AC01B0
S11306B0C701B6010E94213269877A878B879C879C
S11306C00E94BC349B01AC0169817A818B819C813D
S11306D090580E94E7320E94123269837A838B8396
S11306E09C8320E030E048E452E4C301B2010E945C
S11306F020320E94BC349B01AC01C501B4010E94AC
S113070055349B01AC01C701B6010E9421320E94FD
S1130710BC342B013C0120E038E44CE855E4698505
S11307207A858B859C850E94213220E038E044E85C
S113073056E40E9420324B015C01A3019201C301E3
S1130740B2010E94213220E030E046E852E40E94E7
S113075055349B01AC01C501B4010E94E7320E94EB
S113076012322B013C01A701960160E07AE187EA8D
S113077096E40E9420322D813E814F8158850E944B
S1130780203220E038E148E856E40E94E7320E9433
S113079012324B015C016801EE24D7FCE094FE2C7C
S11307A020E030E044E353E46D857E858F859889AD
S11307B00E94553428ED3FE049E450E40E94E732BA
S11307C00E944F33AB01BC0147595F4F6F4F7F4FBE
S11307D09701860182E090E0A9DEA301920169817C
S11307E07A818B819C810E94213224EE3EE245E68F
S11307F052E40E9455340E944F33AB01BC01455B67
S11308005F4F6F4F7F4F9701860184E090E08EDE4B
S113081020E030E044E353E4C501B4010E945534C0
S113082028ED3FE049E450E40E94E7320E944F3350
S1130830AB01BC014F5F5F4F6F4F7F4F9701860144
S113084086E090E073DE60960FB6F894DEBF0FBECC
S1130850CDBFDF91CF911F910F91FF90EF90DF906B
S1130860CF90BF90AF909F908F907F906F905F904C
S11308704F9008954F925F926F927F928F929F92C2
S1130880AF92BF92CF92DF92EF92FF920F931F939A
S1130890CF93DF93CDB7DEB760970FB6F894DEBF82
S11308A00FBECDBF2B013C0149015A01E982FA82F6
S11308B00B831C83860190580E9494326D877E8737
S11308C08F87988B29813A814B815C81CA01B90158
S11308D00E9455346B017C01A3019201C301B20152
S11308E00E9455342B013C01A5019401C501B401BA
S11308F00E9455349B01AC01C301B2010E94213214
S11309002B013C010E94BC3420E030E048E452E476
S11309100E9420324B015C019B01AC010E945534C2
S11309206D837E838F8398879B01AC01C701B601D9
S11309300E94213269877A878B879C870E94BC3406
S11309409B01AC0169817A818B819C8190580E94C2
S1130950E7320E94123269837A838B839C8320E07E
S113096030E048E452E4C301B2010E9420320E9404
S1130970BC349B01AC01C501B4010E9455349B01F8
S1130980AC01C701B6010E9421320E94BC342B0184
S11309903C0120E038E44CE855E469857A858B8590
S11309A09C850E94213220E038E044E856E40E940D
S11309B020324B015C01A3019201C301B2010E94E8
S11309C0213220E030E046E852E40E9455349B0195
S11309D0AC01C501B4010E94E7320E9412322B011E
S11309E03C01A701960160E07AE187EA96E40E945F
S11309F020322D813E814F8158850E94203220E093
S1130A0038E148E856E40E94E7320E9412324B0172
S1130A105C016801EE24D7FCE094FE2C20E030E079
S1130A2044E353E46D857E858F8598890E9455340F
S1130A3028ED3FE049E450E40E94E7320E944F333E
S1130A40AB01BC014F535F4F6F4F7F4F970186013E
S1130A5088E090E06BDDA301920169817A818B814A
S1130A609C810E94213224EE3EE245E652E40E943B
S1130A7055340E944F33AB01BC01455B5F4F6F4F50
S1130A807F4F970186018AE090E050DD20E030E05E
S1130A9044E353E4C501B4010E94553428ED3FE01A
S1130AA049E450E40E94E7320E944F33AB01BC0199
S1130AB04D5F5F4F6F4F7F4F970186018CE090E051
S1130AC035DD60960FB6F894DEBF0FBECDBFDF9163
S1130AD0CF911F910F91FF90EF90DF90CF90BF9037
S1130AE0AF909F908F907F906F905F904F900895FC
S1130AF04F925F926F927F928F929F92AF92BF922A
S1130B00CF92DF92EF92FF920F931F93CF93DF93D5
S1130B10CDB7DEB760970FB6F894DEBF0FBECDBF7A
S1130B202B013C0149015A01E982FA820B831C839F
S1130B30860150580E9494326D877E878F87988BE8
S1130B4029813A814B815C81CA01B9010E945534E3
S1130B506B017C01A3019201C301B2010E945534CF
S1130B602B013C01A5019401C501B4010E94553437
S1130B709B01AC01C301B2010E9421322B013C0153
S1130B800E94BC3420E030E048E452E40E94203269
S1130B904B015C019B01AC010E9455346D837E8343
S1130BA08F8398879B01AC01C701B6010E94213253
S1130BB069877A878B879C870E94BC349B01AC0130
S1130BC069817A818B819C8190580E94E7320E94CE
S1130BD0123269837A838B839C8320E030E048E47B
S1130BE052E4C301B2010E9420320E94BC349B0132
S1130BF0AC01C501B4010E9455349B01AC01C7018D
S1130C00B6010E9421320E94BC342B013C0120E039
S1130C1038E44CE855E469857A858B859C850E9487
S1130C20213220E038E044E856E40E9420324B01AF
S1130C305C01A3019201C301B2010E94213220E0B0
S1130C4030E046E852E40E9455349B01AC01C501F2
S1130C50B4010E94E7320E9412322B013C01A70129
S1130C60960160E07AE187EA96E40E9420322D81C1
S1130C703E814F8158850E94203220E038E148E8C7
S1130C8056E40E94E7320E9412324B015C01680173
S1130C90EE24D7FCE094FE2C20E030E044E353E45F
S1130CA06D857E858F8598890E94553428ED3FE0B7
S1130CB049E450E40E94E7320E944F33AB01BC0187
S1130CC04D535F4F6F4F7F4F9701860181E090E056
S1130CD02DDCA301920169817A818B819C810E9420
S1130CE0213224EE3EE245E652E40E9455340E944D
S1130CF04F330F2EF1EE4F2E512C612C712CF02D11
S1130D0093018201061B170B280B390BB901A801AB
S1130D109701860183E090E009DC20E030E044E3C1
S1130D2053E4C501B4010E94553428ED3FE049E481
S1130D3050E40E94E7320E944F330F2EFCE28F2EC4
S1130D4099249394A12CB12CF02D95018401061BB8
S1130D50170B280B390BB901A8019701860185E00F
S1130D6090E0E4DB60960FB6F894DEBF0FBECDBF13
S1130D70DF91CF911F910F91FF90EF90DF90CF9073
S1130D80BF90AF909F908F907F906F905F904F90A7
S1130D9008954F925F926F927F928F929F92AF923B
S1130DA0BF92CF92DF92EF92FF920F931F93CF9354
S1130DB0DF93CDB7DEB760970FB6F894DEBF0FBEF2
S1130DC0CDBF2B013C0149015A01E982FA820B8310
S1130DD01C83860150580E9494326D877E878F87CA
S1130DE0988B29813A814B815C81CA01B9010E94A7
S1130DF055346B017C01A3019201C301B2010E942D
S1130E0055342B013C01A5019401C501B4010E9494
S1130E1055349B01AC01C301B2010E9421322B0164
S1130E203C010E94BC3420E030E048E452E40E94DB
S1130E3020324B015C019B01AC010E9455346D834F
S1130E407E838F8398879B01AC01C701B6010E9402
S1130E50213269877A878B879C870E94BC349B01E7
S1130E60AC0169817A818B819C8190580E94E73220
S1130E700E94123269837A838B839C8320E030E062
S1130E8048E452E4C301B2010E9420320E94BC34FF
S1130E909B01AC01C501B4010E9455349B01AC0116
S1130EA0C701B6010E9421320E94BC342B013C01CF
S1130EB020E038E44CE855E469857A858B859C8587
S1130EC00E94213220E038E044E856E40E942032B7
S1130ED04B015C01A3019201C301B2010E942132C2
S1130EE020E030E046E852E40E9455349B01AC0116
S1130EF0C501B4010E94E7320E9412322B013C0169
S1130F00A701960160E07AE187EA96E40E94203224
S1130F102D813E814F8158850E94203220E038E1A6
S1130F2048E856E40E94E7320E9412324B015C0109
S1130F306801EE24D7FCE094FE2C20E030E044E38A
S1130F4053E46D857E858F8598890E94553428EDFC
S1130F503FE049E450E40E94E7320E944F33AB0182
S1130F60BC0147595F4F6F4F7F4F9701860187E060
S1130F7090E0DCDAA301920169817A818B819C8102
S1130F800E94213224EE3EE245E652E40E945534AA
S1130F900E944F330F2EF1EE4F2E512C612C712CE9
S1130FA0F02D93018201061B170B280B390BB90195
S1130FB0A8019701860189E090E0B8DA20E030E0EA
S1130FC044E353E4C501B4010E94553428ED3FE0E5
S1130FD049E450E40E94E7320E944F330F2EFCE2B2
S1130FE08F2E99249394A12CB12CF02D950184017A
S1130FF0061B170B280B390BB901A80197018601B1
S11310008BE090E093DA60960FB6F894DEBF0FBEE3
S1131010CDBFDF91CF911F910F91FF90EF90DF90A3
S1131020CF90BF90AF909F908F907F906F905F9084
S11310304F9008954F925F926F927F928F929F92FA
S1131040AF92BF92CF92DF92EF92FF920F931F93D2
S1131050C0902C01D0902D0160913B0170913C0116
S1131060882777FD8095982F0E9482332B013C01BD
S113107060913D0170913E01882777FD8095982FFE
S11310800E9482334B015C0160913F0170914001E9
S1131090719561957109882777FD8095982F0E9435
S11310A0823383017201A5019401A6DAC0902C0158
S11310B0D0902D0160913B0170913C01882777FD10
S11310C08095982F0E9482332B013C0160913D0151
S11310D070913E01882777FD8095982F0E94823376
S11310E04B015C0160913F0170914001882777FDBD
S11310F08095982F0E94823383017201A501940187
S1131100B9DBC0902C01D0902D0160913B0170910E
S11311103C01882777FD8095982F0E9482332B010C
S11311203C0160913D0170913E0171956195710999
S1131130882777FD8095982F0E9482334B015C01AC
S113114060913F0170914001719561957109882703
S113115077FD8095982F0E94823383017201A50147
S11311609401C6DCC0902C01D0902D0160913B010C
S113117070913C01882777FD8095982F0E948233D7
S11311802B013C0160913D0170913E017195619587
S11311907109882777FD8095982F0E9482334B012F
S11311A05C0160913F0170914001882777FD809533
S11311B0982F0E94823383017201A5019401E9DD15
S11311C01F910F91FF90EF90DF90CF90BF90AF9061
S11311D09F908F907F906F905F904F900895809133
S11311E046019091470120912801309129018217ED
S11311F093075CF0109247011092460181E090E061
S113120090932B0180932A010895AC014F5F5F4FA7
S11312105093470140934601421753072CF0109214
S11312202B0110922A010895029690932B0180932A
S11312302A0108952F923F924F925F926F927F926C
S11312408F929F92AF92BF92CF92DF92EF92FF92D2
S11312500F931F93CF93DF93CDB7DEB7E6970FB607
S1131260F894DEBF0FBECDBF29833A834B835C83E2
S11312706D837E838F83988717012F964CAC5DAC6A
S11312806EAC7FAC2F9729813A813E8B2D8B4B819D
S11312905C81588F4F8B8D809E80EF80F884C901CC
S11312A00197029788F4D7FAD094D7F8D094679628
S11312B08CAD9DADAEADBFAD6797B05867968CAFA2
S11312C09DAFAEAFBFAF67978D899E890397029795
S11312D088F477FA709477F870946B962CAD3DADE2
S11312E04EAD5FAD6B9750586B962CAF3DAF4EAF84
S11312F05FAF6B97B801882777FD8095982F0E9480
S1131300823369877A878B879C87A60195016796C4
S11313106CAD7DAD8EAD9FAD67970E94203229855F
S11313203A854B855C850E94E7326BA77CA78DA725
S11313309EA7A30192016B966CAD7DAD8EAD9FAD62
S11313406B970E94203229853A854B855C850E94E3
S1131350E7326FA778AB89AB9AAB63962CAD3DAD02
S11313604EAD5FAD63976F966CAD7DAD8EAD9FADA9
S11313706F970E94203229853A854B855C850E94AF
S1131380E7326BAB7CAB8DAB9EABA101400F511F21
S11313905AA749A7241635060CF0B8C224E1AF8930
S11313A0B88D2A9FC0012B9F900D1124820D931D8F
S11313B0880F991F880F991FFC01E159FA4FFAA36E
S11313C0E9A3289DC001299D900D1124820D931D30
S11313D0880F991F880F991FAC0141595A4F58A380
S11313E04F8F2E9DC0012F9D900D1124820D931DB2
S11313F0880F991F880F991FDC01A159BA4FBCA30C
S1131400ABA38101000F111F000F111F07551E4FC1
S1131410A986BA86CB86DC864D865E866F86788AF8
S11314202BA53CA54DA55EA569857A858B859C85F4
S11314300E94213269877A878B879C872FA538A9D8
S113144049A95AA96D857E858F8598890E94213284
S11314506D877E878F87988B2BA93CA94DA95EA9A0
S113146063966CAD7DAD8EAD9FAD63970E942132C6
S113147063966CAF7DAF8EAF9FAF63972D853E852E
S11314804F85588969857A858B859C850E9494321D
S113149020E030E044E353E40E94553428ED3FE07B
S11314A049E450E40E94E7320E944F336DA37EA3C7
S11314B08FA398A763962CAD3DAD4EAD5FAD6397FA
S11314C0CA01B9010E945534698B7A8B8B8B9C8B32
S11314D029853A854B855C85CA01B9010E9455343A
S11314E06B017C012D853E854F855889CA01B90160
S11314F00E9455349B01AC01C701B6010E94213200
S11315006F8B788F898F9A8F0E94BC3420E030E0F3
S113151048E452E40E9420326B017C019B01AC013F
S11315200E9455346B8F7C8F8D8F9E8F9B01AC01F5
S113153069897A898B899C890E9421324B015C01DB
S11315400E94BC349B01AC0163966CAD7DAD8EAD45
S11315509FAD639790580E94E7320E9412322B018C
S11315603C0120E030E048E452E46F89788D898DB5
S11315709A8D0E9420320E94BC349B01AC01C701A9
S1131580B6010E9455349B01AC0169897A898B8923
S11315909C890E9421320E94BC346B017C0120E0B2
S11315A038E44CE855E4C501B4010E94213220E03E
S11315B038E044E856E40E9420324B015C01A70164
S11315C09601C701B6010E94213220E030E046E8CE
S11315D052E40E9455349B01AC01C501B4010E9440
S11315E0E7320E9412329B01AC01C301B2010E9496
S11315F0213224EE3EE245E652E40E9455340E9434
S11316004F336B017C0129893A894B895C8960E0FD
S11316107AE187EA96E40E9420322B8D3C8D4D8D31
S11316205E8D0E94203220E038E148E856E40E94B2
S1131630E7320E94123220E030E044E353E40E9497
S1131640553428ED3FE049E450E40E94E7320E941B
S11316504F33ED89FE89E230F10509F457C01CF4DB
S1131660319761F038C12D893E892330310509F461
S113167096C02430310509F4E1C02DC18DA09EA08F
S1131680AFA0B8A439E6830E911CA11CB11CA9A17A
S1131690BAA18D929D92AD92BC921397BBE4CB0EEE
S11316A0D11CE11CF11CEF8DF8A1C082D182E28231
S11316B0F382DC01CB010196A11DB11DEBA1FCA1BC
S11316C080839183A283B38329853A854B855C8586
S11316D0D8012D933D934D935C931397F801E05BF0
S11316E0FF4F2D853E854F85588920833183428362
S11316F05383E05BFF4F63968CAD9DADAEADBFAD44
S1131700639780839183A283B383E5C08DA09EA059
S1131710AFA0B8A4A1EC8A0E911CA11CB11CE9A134
S1131720FAA180829182A282B382FBE4CF0ED11C03
S1131730E11CF11CAF8DB8A1CD92DD92ED92FC922B
S11317401397DC01CB010396A11DB11DEBA1FCA1F4
S113175080839183A283B383F801E051FF4F89858D
S11317609A85AB85BC85B05880839183A283B3836B
S1131770E05BFF4F2D853E854F855889208331835B
S113178042835383E05BFF4F63968CAD9DADAEAD5A
S1131790BFAD639780839183A283B3839CC08DA0E4
S11317A09EA0AFA0B8A4A3EC8A0E911CA11CB11CEE
S11317B0E9A1FAA180829182A282B38221EE30E073
S11317C040E050E02C193D094E095F09AF8DB8A1E6
S11317D02D933D934D935C9313972CE231E040E0BD
S11317E050E0261B370B480B590BEBA1FCA12083BF
S11317F0318342835383F801E052FE4F89859A85F1
S1131800AB85BC85B05880839183A283B383E05BAE
S1131810FF4F2D853E854F85588920833183428330
S11318205383E05BFF4F63968CAD9DADAEADBFAD12
S1131830639780839183A283B3834DC08DA09EA0C0
S1131840AFA0B8A4A9E68A0E911CA11CB11CE9A101
S1131850FAA180829182A282B38221EE30E040E03C
S113186050E02C193D094E095F09AF8DB8A12D93A5
S11318703D934D935C9313972CE231E040E050E0AC
S1131880261B370B480B590BEBA1FCA1208331839A
S113189042835383F801E053FD4F29853A854B85F4
S11318A05C852083318342835383E05BFF4F8D85C6
S11318B09E85AF85B88980839183A283B383E05BDF
S11318C0FF4F63962CAD3DAD4EAD5FAD6397208366
S11318D03183428353833FEF231A330A49A15AA128
S11318E04C5F5F4F5AA349A38F8D98A1049698A388
S11318F08F8FABA1BCA11496BCA3ABA30C5F1F4FED
S1131900E9A5FAA52E163F0609F08ACDE6960FB68C
S1131910F894DEBF0FBECDBFDF91CF911F910F9121
S1131920FF90EF90DF90CF90BF90AF909F908F90FB
S11319307F906F905F904F903F902F9008952F92DB
S11319403F924F925F926F927F928F929F92AF924B
S1131950BF92CF92DF92EF92FF920F931F93CF9398
S1131960DF93CDB7DEB7CA54D1090FB6F894DEBF02
S11319700FBECDBF29833A834B835C836D837E8303
S11319808F83988725961FAF0EAF2597FCAAEBAAE5
S1131990A7964CAC5DAC6EAC7FACA79729803A801F
S11319A02B813C8127963FAF2EAF27974D815E81D7
S11319B029965FAF4EAF29978F8198852B969FAF5D
S11319C08EAF2B97112314F40F5F1F4F15950795B6
S11319D0ABA9BCA9A00FB11FBAA7A9A71197BAAF09
S11319E0A9AFC1010197029788F4D7FAD094D7F828
S11319F0D094AB962CAD3DAD4EAD5FADAB9750588A
S1131A00AB962CAF3DAF4EAF5FAFAB97C101039721
S1131A100297D0F4A3968CAD9DADAEADBFADA397A8
S1131A20B058A3968CAF9DAFAEAFBFAFA397AF96A0
S1131A302CAD3DAD4EAD5FADAF975058AF962CAFCA
S1131A403DAF4EAF5FAFAF9725964EAD5FAD2597D7
S1131A50BA01882777FD8095982F0E948233698781
S1131A607A878B879C87A6019501AB966CAD7DAD7B
S1131A708EAD9FADAB970E94203229853A854B8568
S1131A805C850E94E7326BA77CA78DA79EA7A396CF
S1131A902CAD3DAD4EAD5FADA397AF966CAD7DADB6
S1131AA08EAD9FADAF970E94203229853A854B8534
S1131AB05C850E94E7326FA778AB89AB9AAB6091E3
S1131AC0390170913A01882777FD8095982F0E94FB
S1131AD0823369877A878B879C87B801882777FD4B
S1131AE08095982F0E9482336D877E878F87988B8D
S1131AF0E3962CAD3DAD4EAD5FADE39769857A8538
S1131B008B859C850E942132A30192010E94203280
S1131B102D853E854F8558890E94E7326BAF7CAF97
S1131B208DAF9EAFA3019201E3966CAD7DAD8EADFA
S1131B309FADE3970E94203229853A854B855C85C9
S1131B400E9420322D853E854F8558890E94E732B8
S1131B5023966CAF7DAF8EAF9FAF23978BA99CA9C3
S1131B60A9ADBAADA817B9070CF4D3C224E12796DE
S1131B70EEADFFAD27972E9FC0012F9F900D11242E
S1131B804BA95CA9840F951F880F991F880F991F73
S1131B90DC01A159BA4FBAA3A9A32996EEADFFADB2
S1131BA029972E9FC0012F9F900D1124840F951FFC
S1131BB0880F991F880F991FAC0141595A4F5CA394
S1131BC04BA32B96AEADBFAD2B972A9FC0012B9F85
S1131BD0900D1124EBA9FCA98E0F9F1F880F991F4C
S1131BE0880F991F9C0121593A4F8F01000F111F33
S1131BF0000F111F07551E4F3E8A2D8A1F013EA359
S1131C002DA3A986BA86CB86DC864D865E866F8632
S1131C10788A2BA53CA54DA55EA569857A858B851B
S1131C209C850E94213269877A878B879C872FA5A0
S1131C3038A949A95AA9A3966CAD7DAD8EAD9FADC7
S1131C40A3970E942132A3966CAF7DAF8EAF9FAF56
S1131C50A3972BAD3CAD4DAD5EAD6D857E858F8577
S1131C6098890E9421326D877E878F87988BA396EF
S1131C702CAD3DAD4EAD5FADA39769857A858B855F
S1131C809C850E94943220E030E044E353E40E94B7
S1131C90553428ED3FE049E450E40E94E7320E94C5
S1131CA04F336DAB7EAB8FAB98AF2D853E854F85A3
S1131CB05889CA01B9010E945534698B7A8B8B8B80
S1131CC09C8B29853A854B855C85CA01B9010E94A4
S1131CD055346B017C01A3962CAD3DAD4EAD5FAD8B
S1131CE0A397CA01B9010E9455349B01AC01C701F5
S1131CF0B6010E942132698F7A8F8B8F9C8F0E944C
S1131D00BC3420E030E048E452E40E9420326B010D
S1131D107C019B01AC010E9455346D8F7E8F8F8FA7
S1131D2098A39B01AC0169897A898B899C890E945B
S1131D3021324B015C010E94BC349B01AC016D85D6
S1131D407E858F85988990580E94E7320E941232CE
S1131D502B013C0120E030E048E452E4698D7A8DA7
S1131D608B8D9C8D0E9420320E94BC349B01AC015F
S1131D70C701B6010E9455349B01AC0169897A8977
S1131D808B899C890E9421320E94BC346B017C01A6
S1131D9020E038E44CE855E4C501B4010E94213246
S1131DA020E038E044E856E40E9420324B015C0114
S1131DB0A7019601C701B6010E94213220E030E05C
S1131DC046E852E40E9455349B01AC01C501B401BC
S1131DD00E94E7320E9412329B01AC01C301B2019E
S1131DE00E94213224EE3EE245E652E40E9455343C
S1131DF00E944F336B017C0129893A894B895C89A4
S1131E0060E07AE187EA96E40E9420322D8D3E8DCF
S1131E104F8D58A10E94203220E038E148E856E472
S1131E200E94E7320E94123220E030E044E353E49F
S1131E300E94553428ED3FE049E450E40E94E73223
S1131E400E944F334D895E894230510509F457C0D1
S1131E5024F44130510559F037C1AD89BE89A3300E
S1131E60B10509F495C0149709F4E1C02DC18DA8FA
S1131E709EA8AFA8B8ACB9E68B0E911CA11CB11CEE
S1131E80E9A1FAA180829182A282B382FBE4CF0EFF
S1131E90D11CE11CF11CABA1BCA1CD92DD92ED9251
S1131EA0FC921397DC01CB010196A11DB11DEDA19C
S1131EB0FEA180839183A283B38329853A854B85D0
S1131EC05C85D8012D933D934D935C931397F80152
S1131ED0E05BFF4FA3962CAD3DAD4EAD5FADA39738
S1131EE02083318342835383E05BFF4F8D859E853E
S1131EF0AF85B88980839183A283B383E5C08DA81D
S1131F009EA8AFA8B8ACA1EC8A0E911CA11CB11C70
S1131F10E9A1FAA180829182A282B382FBE4CF0E6E
S1131F20D11CE11CF11CABA1BCA1CD92DD92ED92C0
S1131F30FC921397DC01CB010396A11DB11DEDA109
S1131F40FEA180839183A283B383F801E051FF4F04
S1131F5089859A85AB85BC85B05880839183A2839B
S1131F60B383E05BFF4FA3962CAD3DAD4EAD5FADAB
S1131F70A3972083318342835383E05BFF4F8D8596
S1131F809E85AF85B88980839183A283B3839CC0E7
S1131F908DA89EA8AFA8B8ACA3EC8A0E911CA11C76
S1131FA0B11CE9A1FAA180829182A282B38221EEBE
S1131FB030E040E050E02C193D094E095F09ABA127
S1131FC0BCA12D933D934D935C9313972CE231E088
S1131FD040E050E0261B370B480B590BEDA1FEA146
S1131FE02083318342835383F801E052FE4F898575
S1131FF09A85AB85BC85B05880839183A283B383D3
S1132000E05BFF4FA3962CAD3DAD4EAD5FADA39706
S11320102083318342835383E05BFF4F8D859E850C
S1132020AF85B88980839183A283B3834DC08DA883
S11320309EA8AFA8B8ACA9E68A0E911CA11CB11C3D
S1132040E9A1FAA180829182A282B38221EE30E0DA
S113205040E050E02C193D094E095F09ABA1BCA139
S11320602D933D934D935C9313972CE231E040E024
S113207050E0261B370B480B590BEDA1FEA1208322
S1132080318342835383F801E053FD4F29853A8518
S11320904B855C852083318342835383E05BFF4F10
S11320A0A3968CAD9DADAEADBFADA3978083918358
S11320B0A283B383E05BFF4F2D853E854F8558890E
S11320C020833183428353833FEF231A330A49A188
S11320D05AA14C5F5F4F5AA349A38BA19CA10496BC
S11320E09CA38BA3ADA1BEA11496BEA3ADA30C5F0C
S11320F01F4FE9ADFAADE215F3050CF08ACD2D883A
S11321003E88A984BA84CB84DC844D845E846F8445
S113211078882BA93CA925964EAD5FAD2597240F51
S1132120351F3CAB2BAB89A59AA5821793070CF0FE
S1132130CCC224E12796AEADBFAD27972A9FC0013C
S11321402B9F900D1124E9A5FAA58E0F9F1F880FD0
S1132150991F880F991FAC0141595A4F7A0129964A
S1132160AEADBFAD29972A9FC0012B9F900D1124BE
S11321708E0F9F1F880F991F880F991FFC01E1592B
S1132180FA4FFE8FED8F2B964EAD5FAD2B97249FAC
S1132190C001259F900D1124A9A5BAA58A0F9B1FE4
S11321A0880F991F880F991FFC01E159FA4FFAA370
S11321B0E9A38D01000F111F000F111F07551E4FBA
S11321C0FCA2EBA2A986BA86CB86DC864D865E8607
S11321D06F86788A2BA53CA54DA55EA569857A8571
S11321E08B859C850E94213269877A878B879C879F
S11321F02FA538A949A95AA9A3966CAD7DAD8EAD7A
S11322009FADA3970E942132A3966CAF7DAF8EAF92
S11322109FAFA39723962CAD3DAD4EAD5FAD2397F5
S11322206D857E858F8598890E9421326D877E8792
S11322308F87988BA3962CAD3DAD4EAD5FADA39724
S113224069857A858B859C850E94943220E030E0F4
S113225044E353E40E94553428ED3FE049E450E45C
S11322600E94E7320E944F336DA37EA38FA398A7E9
S11322702D853E854F855889CA01B9010E94553480
S1132280698B7A8B8B8B9C8B29853A854B855C85F6
S1132290CA01B9010E9455346B017C01A3962CAD8F
S11322A03DAD4EAD5FADA397CA01B9010E9455344F
S11322B09B01AC01C701B6010E9421326D8B7E8B5C
S11322C08F8B988F0E94BC3420E030E048E452E4C5
S11322D00E9420326B017C019B01AC010E945534A9
S11322E0698F7A8F8B8F9C8F9B01AC0169897A8966
S11322F08B899C890E9421324B015C010E94BC3471
S11323009B01AC016D857E858F85988990580E94CC
S1132310E7320E9412322B013C0120E030E048E415
S113232052E46D897E898F89988D0E9420320E94A3
S1132330BC349B01AC01C701B6010E9455349B011A
S1132340AC0169897A898B899C890E9421320E9417
S1132350BC346B017C0120E038E44CE855E4C50151
S1132360B4010E94213220E038E044E856E40E949F
S113237020324B015C01A7019601C701B6010E94FE
S1132380213220E030E046E852E40E9455349B01BB
S1132390AC01C501B4010E94E7320E9412329B01D4
S11323A0AC01C301B2010E94213224EE3EE245E6B3
S11323B052E40E9455340E944F336B017C012989F9
S11323C03A894B895C8960E07AE187EA96E40E9465
S11323D02032298D3A8D4B8D5C8D0E94203220E075
S11323E038E148E856E40E94E7320E94123220E0C5
S11323F030E044E353E40E94553428ED3FE049E4DF
S113240050E40E94E7320E944F33F2E02F16310469
S113241009F459C02CF431E02316310461F038C1B9
S113242043E02416310409F497C054E0251631041E
S113243009F4E1C02DC18DA09EA0AFA0B8A4A9E667
S11324408A0E911CA11CB11CEBA1FCA1808291827B
S1132450A282B382FBE4CF0ED11CE11CF11CAD8D32
S1132460BE8DCD92DD92ED92FC921397DC01CB01EF
S11324700196A11DB11DE9A1FAA180839183A283D4
S1132480B38329853A854B855C85D8012D933D938B
S11324904D935C931397F801E05BFF4FA3962CAD2B
S11324A03DAD4EAD5FADA39720833183428353830B
S11324B0E05BFF4F8D859E85AF85B88980839183CE
S11324C0A283B383E5C08DA09EA0AFA0B8A4A1EC65
S11324D08A0E911CA11CB11CEBA1FCA180829182EB
S11324E0A282B382FBE4CF0ED11CE11CF11CAD8DA2
S11324F0BE8DCD92DD92ED92FC921397DC01CB015F
S11325000396A11DB11DE9A1FAA180839183A28341
S1132510B383F801E051FF4F89859A85AB85BC856B
S1132520B05880839183A283B383E05BFF4FA3966B
S11325302CAD3DAD4EAD5FADA39720833183428377
S11325405383E05BFF4F8D859E85AF85B88980837B
S11325509183A283B3839CC08DA09EA0AFA0B8A496
S1132560A3EC8A0E911CA11CB11CEBA1FCA18082DE
S11325709182A282B38221EE30E040E050E02C1937
S11325803D094E095F09AD8DBE8D2D933D934D934D
S11325905C9313972CE231E040E050E0261B370BAC
S11325A0480B590BE9A1FAA1208331834283538359
S11325B0F801E052FE4F89859A85AB85BC85B058F9
S11325C080839183A283B383E05BFF4FA3962CADFA
S11325D03DAD4EAD5FADA3972083318342835383DA
S11325E0E05BFF4F8D859E85AF85B889808391839D
S11325F0A283B3834DC08DA09EA0AFA0B8A4A9E6CA
S11326008A0E911CA11CB11CEBA1FCA180829182B9
S1132610A282B38221EE30E040E050E02C193D0963
S11326204E095F09AD8DBE8D2D933D934D935C9303
S113263013972CE231E040E050E0261B370B480BA7
S1132640590BE9A1FAA12083318342835383F80112
S1132650E053FD4F29853A854B855C852083318382
S113266042835383E05BFF4FA3968CAD9DADAEAD2B
S1132670BFADA39780839183A283B383E05BFF4FB5
S11326802D853E854F85588920833183428353832A
S113269049A55AA54F5F5F4F5AA749A78BA19CA193
S11326A004969CA38BA3AD8DBE8D1496BE8FAD8F67
S11326B0E9A1FAA13496FAA3E9A30C5F1F4F2BA951
S11326C03CA94217530709F085CDC65BDF4F0FB60F
S11326D0F894DEBF0FBECDBFDF91CF911F910F9154
S11326E0FF90EF90DF90CF90BF90AF909F908F902E
S11326F07F906F905F904F903F902F9008954F92EE
S11327005F926F927F928F929F92AF92BF92CF927D
S1132710DF92EF92FF920F931F93CF93DF93CDB786
S1132720DEB728970FB6F894DEBF0FBECDBF4B833C
S11327305C836D837E838F839887EB80FC808D80A0
S11327409E80AF80B88424E12E9DC0012F9D900D02
S11327501124E0912A01F0912B01E80FF91FEE0FEB
S1132760FF1FEE0FFF1FE159FA4F40805180628036
S11327707380E0914601F09147018E0F9F1FFC0189
S1132780EE0FFF1FEE0FFF1FE159FA4F8081918179
S113279084199509BC0122F466277727681B790BF5
S11327A0882777FD8095982F0E9470028B019C01E9
S11327B0B301A201C7010E94960224E1289DC00131
S11327C0299D900D1124E0912A01F0912B01E80F2D
S11327D0F91FEE0FFF1FEE0FFF1FE159FA4FC080E4
S11327E0D180E280F380E0914601F09147018E0FA1
S11327F09F1FFC01EE0FFF1FEE0FFF1FE159FA4F61
S1132800808191818C199D09BC0122F46627772768
S1132810681B790B882777FD8095982F0E9470029A
S11328208B019C01B701A601C4010E94960224E118
S11328302A9DC0012B9D900D1124E0912A01F09155
S11328402B01E80FF91FEE0FFF1FEE0FFF1FE159D9
S1132850FA4FC080D180E280F380E0914601F0918C
S113286047018E0F9F1FFC01EE0FFF1FEE0FFF1F8E
S1132870E159FA4F808191818C199D09BC0122F4A0
S113288066277727681B790B882777FD8095982F13
S11328900E9470028B019C01B701A601C5010E9430
S11328A0960228960FB6F894DEBF0FBECDBFDF9117
S11328B0CF911F910F91FF90EF90DF90CF90BF9039
S11328C0AF909F908F907F906F905F904F900895FE
S11328D02091200130912101409122015091230146
S11328E06091240170912501809126019091270126
S11328F006DF209118013091190140911A0150917D
S11329001B0160911C0170911D0180911E01909129
S11329101F01F5DE20911001309111014091120147
S11329205091130160911401709115018091160169
S113293090911701E4DE2091080130910901409142
S11329400A0150910B0160910C0170910D0180916D
S11329500E0190910F01D3DE0C94EF0808951F929D
S11329600F920FB60F9211240BB60F922F933F9331
S11329704F935F936F937F938F939F93AF93BF9383
S1132980EF93FF9388EB0E94DA018091580188232A
S1132990E4F0282F2F7030E0309351012093500140
S11329A0807F90E0959587959595879595958795E2
S11329B09595879590934F0180934E0181E090E027
S11329C090934501809344010BC021E030E03093A3
S11329D04B0120934A0190E090934D0180934C0168
S11329E0FF91EF91BF91AF919F918F917F916F91E3
S11329F05F914F913F912F910F900BBE0F900FBE9F
S1132A000F901F9018951F920F920FB60F921124DA
S1132A100BB60F922F933F934F935F936F937F93D4
S1132A208F939F93AF93BF93EF93FF938AEC90E0C0
S1132A300E940002BC018AEC90E00E94E80180ED53
S1132A4090E00E940002BC0180ED90E00E94E80149
S1132A5088ED90E00E940002BC0188ED90E00E94A5
S1132A60E80180EE90E00E940002BC0180EE90E05C
S1132A700E94E80181E090E0909345018093440135
S1132A8080912E018230C9F028F4882341F08130EE
S1132A9069F027C08330C1F08430E9F022C084E0BB
S1132AA090E090935101809350011BC082E090E02C
S1132AB0909351018093500114C088E090E090936A
S1132AC05101809350010DC081E090E09093510139
S1132AD08093500106C081E090E09093510180936F
S1132AE05001FF91EF91BF91AF919F918F917F9191
S1132AF06F915F914F913F912F910F900BBE0F906B
S1132B000FBE0F901F9018958AEC90E00E9400026F
S1132B10BC018AEC90E00E94E80180ED90E00E9404
S1132B200002BC0180ED90E00E94E80188ED90E095
S1132B300E940002BC0188ED90E00E94E80180EE52
S1132B4090E00E940002BC0180EE90E00E94E80147
S1132B506CE97FEF88EE90E00E94E8016CE97FEF7A
S1132B6080EF90E00E94E8016CE97FEF88EF90E04D
S1132B700E94E8016CE97FEF88E890E00E94E80198
S1132B8088E990E00E940002BC0188E990E00E947C
S1132B90E8016CE97FEF80E990E00C94E801089586
S1132BA02F923F924F925F926F927F928F929F9259
S1132BB0AF92BF92CF92DF92EF92FF920F931F9347
S1132BC0CF93DF93CDB7DEB7CC54D1090FB6F894C9
S1132BD0DEBF0FBECDBF8BE090E0909329018093C0
S1132BE028019093800980937F09209146013091B8
S1132BF04701220F331F220F331F275A3E4FFE0176
S1132C003196AE014B5C5F4FB9019F01FB0180819E
S1132C109181A281B381F90181939193A193B1939D
S1132C209F01605B7F4FE417F50781F7F9852696CE
S1132C30FFAF26972A8527962FAF27973B8528969F
S1132C403FAF28974C8529964FAF29978D819E8158
S1132C50AF81B8859C01AD01505821962CAF3DAF92
S1132C604EAF5FAF219760913B0170913C01882783
S1132C7077FD8095982F0E9482339F938F937F9343
S1132C806F9329963FAD29973F9328964FAD289788
S1132C904F9327965FAD27975F9326968FAD269720
S1132CA08F9321969FAD21979F93EFADEF93FEAD48
S1132CB0FF932DAD2F9388898F938F858F938E8566
S1132CC08F938D858F933F934F935F9326963FAD5C
S1132CD026973F932196ACACBDACCEACDFAC21972C
S1132CE0E12CF12C04E010E020912001309121012D
S1132CF0409122015091230160912401709125019A
S1132D0080912601909127010E941A092D883E88FE
S1132D108F88988C498922964FAF22975A89239697
S1132D205FAF23978B8924968FAF24979C89259630
S1132D309FAF259760913B0170913C01882777FDF7
S1132D408095982F0E9482339F938F937F936F93E4
S1132D509F928F923F922F922596EFAD2597EF93F6
S1132D602496FFAD2497FF9323962FAD23972F939B
S1132D7022963FAD22973F938C8D8F938B8D8F93AB
S1132D808A8D8F93898D8F939F928F923F922F92EA
S1132D9022963FAD229723962FAD239724969FAD7D
S1132DA0249725968FAD2597A32EB22EC92ED82E03
S1132DB0209118013091190140911A0150911B0181
S1132DC060911C0170911D0180911E0190911F0161
S1132DD00E941A0989A19AA1ABA1BCA19C01AD01D1
S1132DE050582DAB3EAB4FAB58AF4D8C5E8C6F8CB7
S1132DF078A077FA709477F870940FB6F894DEBFE1
S1132E000FBECDBF60913B0170913C01882777FDD7
S1132E108095982F0E9482339F938F937F936F9313
S1132E2058AD5F938FA98F939EA99F93EDA9EF93BC
S1132E307F926F925F924F9288A58F938FA18F9309
S1132E408EA18F938DA18F935F93FFA9FF939F937F
S1132E50EF936301520120911001309111014091CF
S1132E601201509113016091140170911501809128
S1132E701601909117010E941A098DA59EA5AFA570
S1132E80B8A99C01AD01505829AF3AAF4BAF5CAF24
S1132E9039A52A963FAF2A974AA52B964FAF2B9771
S1132EA05BA52C965FAF2C978CA52D968FAF2D9795
S1132EB060913B0170913C01882777FD8095982FA4
S1132EC00E9482339F938F937F936F939CAD9F93C4
S1132ED0EBADEF93FAADFF9329AD2F932D963FAD54
S1132EE02D973F932C964FAD2C974F932B965FAD18
S1132EF02B975F932A968FAD2A978F938CA98F93E4
S1132F008BA98F938AA98F9389A98F939F93EF930A
S1132F10FF932F932A963FAD2A972B962FAD2B978D
S1132F202C969FAD2C972D968FAD2D97A32EB22E58
S1132F30C92ED82E209108013091090140910A012F
S1132F4050910B0160910C0170910D0180910E0163
S1132F5090910F010E941A0960913B0170913C010C
S1132F60882777FD8095982F0E948233162F072F8C
S1132F70F82EE92E0FB6F894DEBF0FBECDBF9F9397
S1132F808F937F936F9360913D0170913E018827E9
S1132F9077FD8095982F0E9482339F938F937F9320
S1132FA06F9360913F017091400171956195710932
S1132FB0882777FD8095982F0E9482339F938F9363
S1132FC07F936F93EF92FF920F931F932996FFAD18
S1132FD02997FF9328962FAD28972F9327963FADD7
S1132FE027973F9326964FAD26974F932196ACACE7
S1132FF0BDACCEACDFAC21976894EE24E2F8F12CA2
S113300004E010E02091200130912101409122013F
S11330105091230160912401709125018091260132
S1133020909127010E949F0C60913B0170913C019B
S1133030882777FD8095982F0E9482339F938F93E2
S11330407F936F939F928F923F922F9225965FADBD
S113305025975F932496EFAD2497EF932396FFADC6
S11330602397FF9322962FAD22972F939F938F93AD
S11330707F936F939F928F923F922F9222963FADB0
S1133080229723962FAD239724969FAD24972596B8
S11330908FAD2597A32EB22EC92ED82E20911801BC
S11330A03091190140911A0150911B0160911C014A
S11330B070911D0180911E0190911F010E941A09B7
S11330C060913B0170913C01882777FD8095982F92
S11330D00E9482330FB6F894DEBF0FBECDBF9F931C
S11330E08F937F936F9358AD5F93EFA9EF93FEA9EE
S11330F0FF932DA92F937F926F925F924F929F938C
S11331008F937F936F935F93EF93FF932F93630159
S113311052012091100130911101409112015091FE
S11331201301609114017091150180911601909121
S113313017010E941A0960913B0170913C01882794
S113314077FD8095982F0E948233162F072FF82E33
S1133150E92E9F938F937F936F9360913D017091BC
S11331603E01719561957109882777FD8095982FA7
S11331700E9482339F938F937F936F9360913F015B
S113318070914001882777FD8095982F0E948233A3
S11331909F938F937F936F93EF92FF920F931F935D
S11331A03CAD3F934BAD4F935AAD5F9389AD8F9335
S11331B02A963FAD2A972B962FAD2B972C969FAD31
S11331C02C972D968FAD2D97A32EB22EC92ED82EC7
S11331D06894EE24E2F8F12C04E010E02091080158
S11331E03091090140910A0150910B0160910C0149
S11331F070910D0180910E0190910F010E949F0C1E
S113320060913B0170913C01882777FD8095982F50
S11332100E948233162F072FF82EE92E60913D016C
S113322070913E01882777FD8095982F0E94823304
S1133230D62EC72EB82EA92E60913F017091400161
S1133240719561957109882777FD8095982F0E9463
S113325082330FB6F894DEBF0FBECDBFEF92FF925C
S11332600F931F93AF92BF92CF92DF929F938F934E
S11332707F936F93EF92FF920F931F93AF92BF923E
S1133280CF92DF92A62EB72EC82ED92E6894EE24A4
S1133290E3F8F12C04E010E02091200130912101A9
S11332A040912201509123016091240170912501E4
S11332B080912601909127010E941A0960913B0197
S11332C070913C01882777FD8095982F0E94823366
S11332D0D62EC72EB82EA92E9F938F937F936F93CC
S11332E060913D0170913E01882777FD8095982F6C
S11332F00E9482339F938F937F936F9360913F01DA
S113330070914001882777FD8095982F0E94823321
S11333109F938F937F936F93AF92BF92CF92DF92DD
S11333209F928F923F922F9222963FAD229723969F
S11333302FAD239724969FAD249725968FAD25977F
S1133340A32EB22EC92ED82E209118013091190126
S113335040911A0150911B0160911C0170911D0153
S113336080911E0190911F010E949F0C60913B016E
S113337070913C01882777FD8095982F0E948233B5
S1133380D62EC72EB82EA92E0FB6F894DEBF0FBEC8
S1133390CDBF9F938F937F936F9360913D01709105
S11333A03E01719561957109882777FD8095982F65
S11333B00E9482339F938F937F936F9360913F0119
S11333C070914001719561957109882777FD809509
S11333D0982F0E9482339F938F937F936F93AF9222
S11333E0BF92CF92DF9238AD3F934FA94F935EA91E
S11333F05F938DA98F936301520120911001309145
S113340011014091120150911301609114017091C6
S1133410150180911601909117010E949F0C6091F3
S11334203B0170913C01882777FD8095982F0E947D
S11334308233162F072FF82EE92E60913D017091EB
S11334403E01719561957109882777FD8095982FC4
S11334500E948233D62EC72EB82EA92E60913F012A
S113346070914001882777FD8095982F0E948233C0
S1133470EF92FF920F931F93AF92BF92CF92DF927E
S11334809F938F937F936F93EF92FF920F931F936A
S1133490AF92BF92CF92DF92A62EB72EC82ED92E0E
S11334A06894EE24E3F8F12C04E010E02091080184
S11334B03091090140910A0150910B0160910C0176
S11334C070910D0180910E0190910F010E941A09D3
S11334D0109247011092460181E090E090932B01F5
S11334E080932A010FB6F894DEBF0FBECDBFC45B34
S11334F0DF4F0FB6F894DEBF0FBECDBFDF91CF9183
S11335001F910F91FF90EF90DF90CF90BF90AF90FD
S11335109F908F907F906F905F904F903F902F90EF
S113352008958F929F92AF92BF92CF92DF92EF92C3
S1133530FF920F931F93CF93DF9380913701909164
S11335403801EC0199230CF42396D595C795D595AC
S1133550C79501979093290180932801CE01019783
S11335609093800980937F0900913B0110913C0165
S113357060913D0170913E01882777FD8095982FD9
S11335800E948233B62EA72E982E892E60913F0179
S113359070914001719561957109882777FD809537
S11335A0982F0E948233C62ED72EE82EF92E6091D2
S11335B0390170913A01600F711F882777FD80955A
S11335C0982F0E9482339F938F937F936F938F9250
S11335D09F92AF92BF92FF92EF92DF92CF92B80187
S11335E0882777FD8095982F0E9482339F938F932D
S11335F07F936F938F929F92AF92BF92AC2CBD2C0E
S1133600CE2CDF2CE12CF12C8E0120912001309165
S11336102101409122015091230160912401709174
S1133620250180912601909127010E941A09609139
S11336303B0170913C01882777FD8095982F0E946B
S11336408233162F072FF82EE92E60913D017091D9
S11336503E01882777FD8095982F0E948233D62ECD
S1133660C72EB82EA92E60913F0170914001882782
S113367077FD8095982F0E948233EF92FF920F93EB
S11336801F93AF92BF92CF92DF929F938F937F93BA
S11336906F93EF92FF920F931F93AF92BF92CF92CB
S11336A0DF92A62EB72EC82ED92EE12CF12C8E0136
S11336B0209118013091190140911A0150911B0178
S11336C060911C0170911D0180911E0190911F0158
S11336D00E941A0960913B0170913C01882777FD93
S11336E08095982F0E948233162F072FF82EE92EEB
S11336F060913D0170913E01719561957109882732
S113370077FD8095982F0E948233D62EC72EB82E2F
S1133710A92E20913F013091400166277727621B33
S1133720730B882777FD8095982F0E9482332DB7DD
S11337303EB7285D3F4F0FB6F8943EBF0FBE2DBF76
S1133740EF92FF920F931F93AF92BF92CF92DF92AB
S11337509F938F937F936F93EF92FF920F931F9397
S1133760AF92BF92CF92DF92A62EB72EC82ED92E3B
S1133770E12CF12C8E012091100130911101409126
S113378012015091130160911401709115018091FF
S11337901601909117010E941A09C0903B01D09024
S11337A03C0160913D0170913E01719561957109F3
S11337B0882777FD8095982F0E948233F62EE72E76
S11337C0982E892E60913F0170914001882777FDE2
S11337D08095982F0E948233062F172FA82EB92E7A
S11337E06091390170913A016C0D7D1D882777FD38
S11337F08095982F0E9482339F938F937F936F932A
S11338008F929F92EF92FF92BF92AF921F930F936A
S1133810B601882777FD8095982F0E9482339F9365
S11338208F937F936F938F929F92EF92FF929A2D33
S11338308B2DA02EB12EC92ED82EE12CF12C8E0169
S1133840209108013091090140910A0150910B0126
S113385060910C0170910D0180910E0190910F0106
S11338600E941A09109247011092460181E090E0EB
S113387090932B0180932A018DB79EB788960FB63B
S1133880F8949EBF0FBE8DBFDF91CF911F910F9112
S1133890FF90EF90DF90CF90BF90AF909F908F906C
S11338A00895AF92BF92CF92DF92EF92FF920F935F
S11338B01F93CF93DF9382E090E09093290180934C
S11338C028019093800980937F0960913B01709156
S11338D03C01882777FD8095982F0E948233C62F5C
S11338E0D72F182F092F60913D0170913E01882731
S11338F077FD8095982F0E948233D62EC72EB82E3E
S1133900A92E20913F013091400166277727621B41
S1133910730B882777FD8095982F0E9482330F932D
S11339201F93DF93CF93AF92BF92CF92DF929F9377
S11339308F937F936F930F931F93DF93CF93AF92E4
S1133940BF92CF92DF92A62EB72EC82ED92EE12C8D
S1133950F12C03E010E020912001309121014091ED
S113396022015091230160912401709125018091DD
S11339702601909127010E941A0960913B017091E0
S11339803C01882777FD8095982F0E948233162F5B
S1133990072FD82EC92E60913D0170913E018827D2
S11339A077FD8095982F0E948233C62FD72FB82E8B
S11339B0A92E60913F0170914001882777FD809581
S11339C0982F0E948233CF92DF920F931F93AF926E
S11339D0BF92DF93CF939F938F937F936F93CF92F5
S11339E0DF920F931F93AF92BF92DF93CF93A62ED4
S11339F0B72EC82ED92E03E010E020911801309183
S1133A00190140911A0150911B0160911C017091A0
S1133A101D0180911E0190911F010E941A0960915D
S1133A203B0170913C01882777FD8095982F0E9477
S1133A308233D62EC72EB82EA92E60913D017091E7
S1133A403E01719561957109882777FD8095982FBE
S1133A500E948233C62FD72F182F092F20913F01A0
S1133A603091400166277727621B730B882777FD07
S1133A708095982F0E9482332DB73EB7285D3F4F23
S1133A800FB6F8943EBF0FBE2DBFAF92BF92CF9238
S1133A90DF920F931F93DF93CF939F938F937F9323
S1133AA06F93AF92BF92CF92DF920F931F93DF93E6
S1133AB0CF93A62EB72EC82ED92E03E010E0209166
S1133AC01001309111014091120150911301609144
S1133AD014017091150180911601909117010E94B3
S1133AE01A0960913B0170913C01882777FD80950C
S1133AF0982F0E948233D62EC72EB82EA92E20913D
S1133B003D0130913E0166277727621B730B88279E
S1133B1077FD8095982F0E948233C62FD72F182FB8
S1133B20092F60913F0170914001882777FD8095AE
S1133B30982F0E948233AF92BF92CF92DF920F935D
S1133B401F93DF93CF939F938F937F936F93AF9242
S1133B50BF92CF92DF920F931F93DF93CF93A62E42
S1133B60B72EC82ED92E03E010E020910801309121
S1133B70090140910A0150910B0160910C0170916F
S1133B800D0180910E0190910F010E941A0910926B
S1133B9047011092460181E090E090932B018093BD
S1133BA02A018DB79EB788960FB6F8949EBF0FBEB4
S1133BB08DBFDF91CF911F910F91FF90EF90DF9018
S1133BC0CF90BF90AF9008952F923F924F925F9203
S1133BD06F927F928F929F92AF92BF92CF92DF9219
S1133BE0EF92FF920F931F93CF93DF9300D000D0F7
S1133BF0CDB7DEB79C01992314F42F5F3F4FA90181
S1133C00559547955C834B839C0121503109309332
S1133C102901209328019C01992314F42D5F3F4F1F
S1133C20359527953595279521503109309380098D
S1133C3020937F098091690590916A0520916B0515
S1133C4030916C0580906D0590906E0560904101F7
S1133C50709042012301420E531E680C791C10928D
S1133C6045011092440140912E01423009F436C7B7
S1133C7038F4442379F0413009F49FC30C949E2F07
S1133C80433011F40C940029443011F40C94872C23
S1133C900C949E2F9201552014F42F5F3F4F29015D
S1133CA05594479400913D0110913E014C01992394
S1133CB01CF45FEF851A950A9594879420903F0130
S1133CC03090400160913B0170913C01882777FD61
S1133CD08095982F0E94823369837A83E82EF92E87
S1133CE0662777276219730968197909882777FD88
S1133CF08095982F0E9482335B016C01FF92EF92B2
S1133D008A818F9399819F93C201800F911FBC0177
S1133D10882777FD8095982F0E9482339F938F93F5
S1133D207F936F93C40182199309BC01882777FD9F
S1133D308095982F0E9482339F938F937F936F93E4
S1133D40FF92EF92EA81EF93F981FF93B80164192E
S1133D507509882777FD8095982F0E9482339F9359
S1133D608F937F936F93E12CF12C0B811C81209115
S1133D702001309121014091220150912301609151
S1133D8024017091250180912601909127010E94C0
S1133D909F0C20903D0130903E0100913F01109115
S1133DA0400160913B0170913C01882777FD80952B
S1133DB0982F0E94823369837A83E82EF92EB40106
S1133DC0601B710B882777FD8095982F0E948233A2
S1133DD05B016C01FF92EF922A812F9339813F930B
S1133DE0C10184199509BC01882777FD8095982F16
S1133DF00E9482339F938F937F936F9311950195C4
S1133E00110908191909B801882777FD8095982F99
S1133E100E9482339F938F937F936F93FF92EF92CD
S1133E204A814F9359815F93B201620D731D8827B4
S1133E3077FD8095982F0E9482339F938F937F9371
S1133E406F93EB80FC808701209120013091210148
S1133E504091220150912301609124017091250128
S1133E6080912601909127010E941A09C3010FB67F
S1133E70F894DEBF0FBECDBF99230CF401963C012C
S1133E807594679420903D0130903E0100913F016C
S1133E901091400160913B0170913C01882777FDAE
S1133EA08095982F0E94823369837A83E82EF92EB5
S1133EB0B80168197909882777FD8095982F0E94A1
S1133EC082335B016C01FF92EF92FA81FF932981A7
S1133ED02F93C30182199309BC01882777FD80952C
S1133EE0982F0E9482339F938F937F936F93080D33
S1133EF0191DB801882777FD8095982F0E94823379
S1133F009F938F937F936F93FF92EF923A813F93A6
S1133F1049814F93662777276219730966197709D0
S1133F20882777FD8095982F0E9482339F938F93E3
S1133F307F936F93E12CF12C0B811C81209108015C
S1133F403091090140910A0150910B0160910C01DB
S1133F5070910D0180910E0190910F010E949F0CB0
S1133F6020903D0130903E0100913F0110914001AD
S1133F7060913B0170913C01882777FD8095982FD3
S1133F800E94823369837A83E82EF92EB401600F8C
S1133F90711F882777FD8095982F0E9482335B01DB
S1133FA06C01FF92EF925A815F9389818F938827E6
S1133FB099278219930986199709BC01882777FDE7
S1133FC08095982F0E9482339F938F937F936F9352
S1133FD008191909B801882777FD8095982F0E9440
S1133FE082339F938F937F936F93FF92EF929A8183
S1133FF09F93E981EF93B30162197309882777FDD1
S11340008095982F0E9482339F938F937F936F9311
S1134010EB80FC80870120910801309109014091D7
S11340200A0150910B0160910C0170910D01809176
S11340300E0190910F010E941A0920903D013090C9
S11340403E0100913F011091400160913B0170914C
S11340503C01882777FD8095982F0E9482336983DD
S11340607A83E82EF92E0FB6F894DEBF0FBECDBFCB
S1134070B401601B710B882777FD8095982F0E94EF
S113408082335B016C01FF92EF923A813F93498145
S11340904F93882799278219930984199509BC019C
S11340A0882777FD8095982F0E9482339F938F9362
S11340B07F936F9311950195110908191909B80196
S11340C0882777FD8095982F0E9482339F938F9342
S11340D07F936F93FF92EF925A815F9389818F93BD
S11340E0B20162197309882777FD8095982F0E9481
S11340F082339F938F937F936F93E12CF12C0B81E9
S11341001C812091100130911101409112015091B4
S11341101301609114017091150180911601909121
S113412017010E941A0920903D0130903E01009130
S11341303F011091400160913B0170913C0188273F
S113414077FD8095982F0E94823369837A83E82EC5
S1134150F92E66277727601B710B68197909882760
S113416077FD8095982F0E9482335B016C01FF924A
S1134170EF929A819F93E981EF93C2018219930987
S1134180BC01882777FD8095982F0E9482339F93E6
S11341908F937F936F93C401801B910BBC0188277D
S11341A077FD8095982F0E9482339F938F937F93FE
S11341B06F93FF92EF92FA81FF9329812F936627E1
S11341C077276219730964197509882777FD809523
S11341D0982F0E9482339F938F937F936F93EB80EA
S11341E0FC8087012091100130911101409112014E
S11341F05091130160911401709115018091160181
S1134200909117010E949F0C40903D0150903E01F7
S113421000913F011091400160913B0170913C017C
S1134220882777FD8095982F0E948233262E372E7B
S1134230F82EE92E0FB6F894DEBF0FBECDBFB40141
S1134240600F711F882777FD8095982F0E94823315
S11342505B016C01EF92FF923F922F92920126191B
S11342603709B901882777FD8095982F0E948233FA
S11342709F938F937F936F93B80168197909882767
S113428077FD8095982F0E9482339F938F937F931D
S11342906F93EF92FF923F922F92B301640D751DBD
S11342A0882777FD8095982F0E9482339F938F9360
S11342B07F936F93E12CF12C0B811C8120911801C9
S11342C03091190140911A0150911B0160911C0118
S11342D070911D0180911E0190911F010E941A0985
S11342E040903D0150903E0100913F0110914001EA
S11342F060913B0170913C01882777FD8095982F50
S11343000E948233262E372EF82EE92EB801681922
S11343107909882777FD8095982F0E9482335B0165
S11343206C01EF92FF923F922F929301240D351D61
S1134330B901882777FD8095982F0E9482339F9337
S11343408F937F936F93B401600F711F882777FD5C
S11343508095982F0E9482339F938F937F936F93BE
S1134360EF92FF923F922F92B20166197709882744
S113437077FD8095982F0E9482339F938F937F932C
S11343806F93EB80FC808701209118013091190113
S113439040911A0150911B0160911C0170911D0103
S11343A080911E0190911F010E949F0C0FB6F894FA
S11343B0DEBF0FBECDBF0C949E2F20903D013090E8
S11343C03E014C0199231CF4EFEF8E1A9E0A95943A
S11343D08794C20199230CF401962C0155944794B7
S11343E000913F011091400160913B0170913C01AB
S11343F0882777FD8095982F0E94823369837A837A
S1134400E82EF92E66277727601B710B641975094E
S1134410882777FD8095982F0E9482335B016C0179
S1134420FF92EF92FA81FF9329812F93C10188199A
S11344309909BC01882777FD8095982F0E948233C3
S11344409F938F937F936F93C201801B910BBC0149
S1134450882777FD8095982F0E9482339F938F93AE
S11344607F936F93FF92EF923A813F9349814F93E9
S1134470B101680D791D882777FD8095982F0E94DA
S113448082339F938F937F936F93E12CF12C0B8155
S11344901C812091200130912101409122015091F1
S11344A0230160912401709125018091260190914E
S11344B027010E949F0C20903D0130903E01009105
S11344C03F011091400160913B0170913C018827AC
S11344D077FD8095982F0E94823369837A83E82E32
S11344E0F92EB201601B710B882777FD8095982FF8
S11344F00E9482335B016C01FF92EF925A815F93B9
S113450089818F93C401820D931DBC01882777FD97
S11345108095982F0E9482339F938F937F936F93FC
S113452011950195110904191509B801882777FD1A
S11345308095982F0E9482339F938F937F936F93DC
S1134540FF92EF929A819F93E981EF93B1016819E9
S11345507909882777FD8095982F0E9482339F934D
S11345608F937F936F93EB80FC80870120912001D0
S11345703091210140912201509123016091240145
S11345807091250180912601909127010E941A09BA
S113459020903D0130903E01C3010FB6F894DEBF78
S11345A00FBECDBF99230CF401963C01759467941A
S11345B000913F011091400160913B0170913C01D9
S11345C0882777FD8095982F0E94823369837A83A8
S11345D0E82EF92EB80166197709882777FD8095AA
S11345E0982F0E9482335B016C01FF92EF923A8113
S11345F03F9349814F9388279927821993098819F2
S11346009909BC01882777FD8095982F0E948233F1
S11346109F938F937F936F93060D171DB80188277F
S113462077FD8095982F0E9482339F938F937F9379
S11346306F93FF92EF925A815F9389818F93B401B4
S113464062197309882777FD8095982F0E94823319
S11346509F938F937F936F93E12CF12C0B811C819B
S1134660209108013091090140910A0150910B01F8
S113467060910C0170910D0180910E0190910F01D8
S11346800E949F0C20903D0130903E0100913F011B
S11346901091400160913B0170913C01882777FDA6
S11346A08095982F0E94823369837A83E82EF92EAD
S11346B0B301600F711F882777FD8095982F0E94A2
S11346C082335B016C01FF92EF929A819F93E9819F
S11346D0EF93C40182199309BC01882777FD809563
S11346E0982F0E9482339F938F937F936F93061921
S11346F01709B801882777FD8095982F0E94823387
S11347009F938F937F936F93FF92EF92FA81FF931E
S113471029812F9366277727621973096819790904
S1134720882777FD8095982F0E9482339F938F93DB
S11347307F936F93EB80FC80870120910801309177
S1134740090140910A0150910B0160910C01709193
S11347500D0180910E0190910F010E941A09209081
S11347603D0130903E0100913F0110914001609164
S11347703B0170913C01882777FD8095982F0E941A
S1134780823369837A83E82EF92E0FB6F894DEBF5C
S11347900FBECDBFB301601B710B882777FD8095D9
S11347A0982F0E9482335B016C01FF92EF925A8131
S11347B05F9389818F93C40182199309BC0188276F
S11347C077FD8095982F0E9482339F938F937F93D8
S11347D06F9311950195110906191709B8018827D6
S11347E077FD8095982F0E9482339F938F937F93B8
S11347F06F93FF92EF929A819F93E981EF936627DB
S113480077276219730968197909882777FD8095D4
S1134810982F0E9482339F938F937F936F93E12C01
S1134820F12C0B811C8120911001309111014091D8
S1134830120150911301609114017091150180913E
S11348401601909117010E941A0920903D013090A1
S11348503E0100913F011091400160913B01709134
S11348603C01882777FD8095982F0E9482336983C5
S11348707A83E82EF92E66277727601B710B661959
S11348807709882777FD8095982F0E9482335B01F2
S11348906C01FF92EF92FA81FF9329812F9388276D
S11348A099278219930988199909BC01882777FDEA
S11348B08095982F0E9482339F938F937F936F9359
S11348C0B301601B710B882777FD8095982F0E9498
S11348D082339F938F937F936F93FF92EF923A81EA
S11348E03F9349814F93B40162197309882777FD77
S11348F08095982F0E9482339F938F937F936F9319
S1134900EB80FC80870120911001309111014091CE
S1134910120150911301609114017091150180915D
S11349201601909117010E949F0C60903D017090B8
S11349303E0100913F011091400160913B01709153
S11349403C01882777FD8095982F0E948233262E7C
S1134950372EF82EE92E0FB6F894DEBF0FBECDBF6A
S1134960B201600F711F882777FD8095982F0E94F0
S113497082335B016C01EF92FF923F922F9294017C
S1134980260D371DB901882777FD8095982F0E9441
S113499082339F938F937F936F93B8016419750942
S11349A0882777FD8095982F0E9482339F938F9359
S11349B07F936F93EF92FF923F922F92B301681906
S11349C07909882777FD8095982F0E9482339F93D9
S11349D08F937F936F93E12CF12C0B811C81209199
S11349E018013091190140911A0150911B016091F5
S11349F01C0170911D0180911E0190911F010E9464
S1134A001A0960903D0170903E0100913F011091A0
S1134A10400160913B0170913C01882777FD8095AE
S1134A20982F0E948233262E372EF82EE92EB801B5
S1134A3064197509882777FD8095982F0E94823321
S1134A405B016C01EF92FF923F922F929301281920
S1134A503909B901882777FD8095982F0E94823300
S1134A609F938F937F936F93B201600F711F882779
S1134A7077FD8095982F0E9482339F938F937F9325
S1134A806F93EF92FF923F922F92B401660D771DC0
S1134A90882777FD8095982F0E9482339F938F9368
S1134AA07F936F93EB80FC808701209118013091F4
S1134AB0190140911A0150911B0160911C017091E0
S1134AC01D0180911E0190911F010E949F0C0FB641
S1134AD0F894DEBF0FBECDBF0C949E2F20903D01F5
S1134AE030903E019301772014F42F5F3F4F39013A
S1134AF07594679400913F01109140014C019923F2
S1134B001CF4FFEF8F1A9F0A9594879460913B01E0
S1134B1070913C01882777FD8095982F0E948233FD
S1134B2069837A83E82EF92EB401601B710B882700
S1134B3077FD8095982F0E9482335B016C01FF9270
S1134B40EF922A812F9339813F93C10186199709E6
S1134B50BC01882777FD8095982F0E9482339F930C
S1134B608F937F936F931195019511090819190972
S1134B70B801882777FD8095982F0E9482339F93F0
S1134B808F937F936F93FF92EF924A814F93598152
S1134B905F93B101660D771D882777FD8095982F67
S1134BA00E9482339F938F937F936F93E12CF12C18
S1134BB00B811C812091200130912101409122011F
S1134BC05091230160912401709125018091260167
S1134BD0909127010E949F0C20903D0130903E014E
S1134BE000913F011091400160913B0170913C01A3
S1134BF0882777FD8095982F0E94823369837A8372
S1134C00E82EF92E66277727601B710B681979093E
S1134C10882777FD8095982F0E9482335B016C0171
S1134C20FF92EF928A818F9399819F93C301820DA2
S1134C30931DBC01882777FD8095982F0E948233AD
S1134C409F938F937F936F93C401801B910BBC013F
S1134C50882777FD8095982F0E9482339F938F93A6
S1134C607F936F93FF92EF92EA81EF93F981FF9321
S1134C70B10166197709882777FD8095982F0E94DE
S1134C8082339F938F937F936F93EB80FC80870194
S1134C902091200130912101409122015091230162
S1134CA06091240170912501809126019091270142
S1134CB00E941A0920903D0130903E01C2010FB6B6
S1134CC0F894DEBF0FBECDBF99230CF401962C01DE
S1134CD05594479400913F011091400160913B012C
S1134CE070913C01882777FD8095982F0E9482332C
S1134CF069837A83E82EF92EB401600F711F882727
S1134D0077FD8095982F0E9482335B016C01FF929E
S1134D10EF923A813F9349814F93882799278219CB
S1134D20930984199509BC01882777FD8095982FEC
S1134D300E9482339F938F937F936F93081919096D
S1134D40B801882777FD8095982F0E9482339F931E
S1134D508F937F936F93FF92EF925A815F93898130
S1134D608F93B20162197309882777FD8095982F74
S1134D700E9482339F938F937F936F93E12CF12C46
S1134D800B811C81209108013091090140910A0195
S1134D9050910B0160910C0170910D0180910E01F5
S1134DA090910F010E949F0C20903D0130903E0194
S1134DB000913F011091400160913B0170913C01D1
S1134DC0882777FD8095982F0E94823369837A83A0
S1134DD0E82EF92EB80168197909882777FD80959E
S1134DE0982F0E9482335B016C01FF92EF929A81AB
S1134DF09F93E981EF93C20182199309BC0188272B
S1134E0077FD8095982F0E9482339F938F937F9391
S1134E106F93080D191DB801882777FD8095982F89
S1134E200E9482339F938F937F936F93FF92EF92AD
S1134E30FA81FF9329812F936627772762197309D3
S1134E4064197509882777FD8095982F0E9482330D
S1134E509F938F937F936F93EB80FC8087012091C6
S1134E6008013091090140910A0150910B016091B0
S1134E700C0170910D0180910E0190910F010E941F
S1134E801A0920903D0130903E0100913F0110919C
S1134E90400160913B0170913C01882777FD80952A
S1134EA0982F0E94823369837A83E82EF92E0FB6F5
S1134EB0F894DEBF0FBECDBF66277727601B710B4A
S1134EC068197909882777FD8095982F0E94823385
S1134ED05B016C01FF92EF925A815F9389818F93FA
S1134EE0C30182199309BC01882777FD8095982F07
S1134EF00E9482339F938F937F936F93C401801B8F
S1134F00910BBC01882777FD8095982F0E948233EE
S1134F109F938F937F936F93FF92EF929A819F93C6
S1134F20E981EF9366277727621973096619770970
S1134F30882777FD8095982F0E9482339F938F93C3
S1134F407F936F93E12CF12C0B811C812091100134
S1134F50309111014091120150911301609114019B
S1134F607091150180911601909117010E941A0900
S1134F7020903D0130903E0100913F01109140018D
S1134F8060913B0170913C01882777FD8095982FB3
S1134F900E94823369837A83E82EF92EB401601B60
S1134FA0710B882777FD8095982F0E9482335B01CF
S1134FB06C01FF92EF92FA81FF9329812F93882746
S1134FC099278219930986199709BC01882777FDC7
S1134FD08095982F0E9482339F938F937F936F9332
S1134FE011950195110908191909B801882777FD48
S1134FF08095982F0E9482339F938F937F936F9312
S1135000FF92EF923A813F9349814F93B301621922
S11350107309882777FD8095982F0E9482339F9388
S11350208F937F936F93EB80FC8087012091100115
S113503030911101409112015091130160911401BA
S11350407091150180911601909117010E949F0C97
S113505060903D0170903E0100913F01109140012C
S113506060913B0170913C01882777FD8095982FD2
S11350700E948233262E372EF82EE92E0FB6F8948E
S1135080DEBF0FBECDBFB80168197909882777FD47
S11350908095982F0E9482335B016C01EF92FF92FE
S11350A03F922F929201260D371DB901882777FD73
S11350B08095982F0E9482339F938F937F936F9351
S11350C0B401600F711F882777FD8095982F0E9487
S11350D082339F938F937F936F93EF92FF923F92CC
S11350E02F92B30164197509882777FD8095982F4D
S11350F00E9482339F938F937F936F93E12CF12CC3
S11351000B811C81209118013091190140911A01E1
S113511050911B0160911C0170911D0180911E0131
S113512090911F010E941A0960903D0170903E0108
S113513000913F011091400160913B0170913C014D
S1135140882777FD8095982F0E948233262E372E4C
S1135150F82EE92EB401600F711F882777FD809522
S1135160982F0E9482335B016C01EF92FF923F9271
S11351702F92930124193509B901882777FD809569
S1135180982F0E9482339F938F937F936F93B801DC
S113519068197909882777FD8095982F0E948233B2
S11351A09F938F937F936F93EF92FF923F922F92EF
S11351B0B201660D771D882777FD8095982F0E9490
S11351C082339F938F937F936F93EB80FC8087014F
S11351D0209118013091190140911A0150911B013D
S11351E060911C0170911D0180911E0190911F011D
S11351F00E949F0C0FB6F894DEBF0FBECDBF9EC6B3
S11352004C0199231CF4FFEF8F1A9F0A95948794FD
S1135210E0903D01F0903E0100913F01109140016A
S1135220130177201CF42FEF221A320A35942794A5
S113523060913B0170913C01882777FD8095982F00
S11352400E94823369837A83682E792EB101601BB0
S1135250710B882777FD8095982F0E9482335B011C
S11352606C017F926F923A813F9349814F93C401BD
S11352708E0D9F1DBC01882777FD8095982F0E9475
S113528082339F938F937F936F93119501951109A7
S113529002191309B801882777FD8095982F0E9479
S11352A082339F938F937F936F937F926F925A81F0
S11352B05F9389818F93B70168197909882777FDEE
S11352C08095982F0E9482339F938F937F936F933F
S11352D0E12CF12C0B811C812091200130912101C2
S11352E04091220150912301609124017091250184
S11352F080912601909127010E949F0CE0903D012E
S1135300F0903E0100913F011091400160913B01FA
S113531070913C01882777FD8095982F0E948233F5
S113532069837A83682E792E66277727601B710B31
S113533062197309882777FD8095982F0E9482331C
S11353405B016C017F926F929A819F93E981EF9345
S1135350C70188199909BC01882777FD8095982F82
S11353600E9482339F938F937F936F93C101801B1D
S1135370910BBC01882777FD8095982F0E9482337A
S11353809F938F937F936F937F926F92FA81FF9392
S113539029812F93B4016E0D7F1D882777FD809599
S11353A0982F0E9482339F938F937F936F93EB8008
S11353B0FC8087012091200130912101409122013C
S11353C0509123016091240170912501809126015F
S11353D0909127010E941A09E0903D01F0903E014E
S11353E000913F011091400132010FB6F894DEBFE5
S11353F00FBECDBF55201CF45FEF651A750A759476
S1135400679460913B0170913C01882777FD8095FA
S1135410982F0E94823369837A83482E592EB801CB
S1135420660D771D882777FD8095982F0E9482331B
S11354305B016C015F924F928A818F9399819F9354
S1135440C4018E199F09BC01882777FD8095982F88
S11354500E9482339F938F937F936F93061917094A
S1135460B801882777FD8095982F0E9482339F93F7
S11354708F937F936F935F924F92EA81EF93F981B9
S1135480FF93662777276E197F096819790988279A
S113549077FD8095982F0E9482339F938F937F93FB
S11354A06F93E12CF12C0B811C8120910801309128
S11354B0090140910A0150910B0160910C01709116
S11354C00D0180910E0190910F010E949F0CE090BC
S11354D03D01F0903E0100913F0110914001609127
S11354E03B0170913C01882777FD8095982F0E949D
S11354F0823369837A83482E592EB8016619770955
S1135500882777FD8095982F0E9482335B016C0178
S11355105F924F922A812F9339813F93882799274D
S11355208E199F0988199909BC01882777FD8095F0
S1135530982F0E9482339F938F937F936F93060DCE
S1135540171DB801882777FD8095982F0E94823314
S11355509F938F937F936F935F924F924A814F9360
S113556059815F93B4016E197F09882777FD80956F
S1135570982F0E9482339F938F937F936F93EB8036
S1135580FC808701209108013091090140910A01B2
S113559050910B0160910C0170910D0180910E01ED
S11355A090910F010E941A09E0903D01F0903E0194
S11355B000913F011091400160913B0170913C01C9
S11355C0882777FD8095982F0E94823369837A8398
S11355D0482E592E0FB6F894DEBF0FBECDBF6627F6
S11355E07727601B710B66197709882777FD8095EB
S11355F0982F0E9482335B016C015F924F929A81D3
S11356009F93E981EF93882799278E199F09881919
S11356109909BC01882777FD8095982F0E948233D1
S11356209F938F937F936F93C301801B910BBC0156
S1135630882777FD8095982F0E9482339F938F93BC
S11356407F936F935F924F92FA81FF9329812F93F7
S1135650B4016E197F09882777FD8095982F0E94E1
S113566082339F938F937F936F93E12CF12C0B8163
S11356701C8120911001309111014091120150912F
S1135680130160911401709115018091160190919C
S113569017010E941A09E0903D01F0903E0100912B
S11356A03F011091400160913B0170913C018827BA
S11356B077FD8095982F0E94823369837A83482EE0
S11356C0592EB301601B710B882777FD8095982FA5
S11356D00E9482335B016C015F924F923A813F9347
S11356E049814F93C4018E199F09BC01882777FD16
S11356F08095982F0E9482339F938F937F936F930B
S1135700119501951109B80166197709882777FD64
S11357108095982FF7D79F938F937F936F935F9282
S11357204F925A815F9389818F93662777276E19E9
S11357307F0968197909882777FD8095982FE2D722
S11357409F938F937F936F93EB80FC8087012091CD
S11357501001309111014091120150911301609197
S113576014017091150180911601909117010E9406
S11357709F0CE0903D01F0903E0100913F0110919B
S1135780400160913B0170913C01882777FD809531
S1135790982FB8D7462E572E782E692E0FB6F89428
S11357A0DEBF0FBECDBFB80162197309882777FD2C
S11357B08095982FA7D75B016C016F927F925F92BF
S11357C04F92970128193909B901882777FD8095E7
S11357D0982F98D79F938F937F936F93B101600F06
S11357E0711F882777FD8095982F8CD79F938F936F
S11357F07F936F936F927F925F924F92B4016E0D7D
S11358007F1D882777FD8095982F7CD79F938F9352
S11358107F936F93E12CF12C0B811C812091180153
S11358203091190140911A0150911B0160911C01A2
S113583070911D0180911E0190911F010E941A090F
S1135840E0903D01F0903E0100913F011091400134
S113585060913B0170913C01882777FD8095982FDA
S113586051D7462E572E782E692EB101600F711F25
S1135870882777FD8095982F45D75B016C016F923F
S11358807F925F924F9294012E0D3F1DB90188279C
S113589077FD8095982F36D79F938F937F936F933F
S11358A0B80162197309882777FD8095982F2AD744
S11358B09F938F937F936F936F927F925F924F9298
S11358C0B70168197909882777FD8095982F1AD729
S11358D09F938F937F936F93EB80FC80870120913C
S11358E018013091190140911A0150911B016091E6
S11358F01C0170911D0180911E0190911F010E9455
S11359009F0C0FB6F894DEBF0FBECDBF17C339018D
S113591033231CF44FEF641A740A7594679400914E
S11359203D0110913E0160913B0170913C0188273B
S113593077FD8095982FE6D6B62EA72E582E492EA1
S113594060913F01709140017195619571098827BB
S113595077FD8095982FD6D6C62ED72EE82EF92E11
S11359604F925F92AF92BF92B301600F711F88276D
S113597077FD8095982FC6D69F938F937F936F93CF
S1135980FF92EF92DF92CF924F925F92AF92BF92CB
S1135990B80166197709882777FD8095982FB2D6C4
S11359A09F938F937F936F93AC2CBD2CCE2CDF2CC5
S11359B0E12CF12C0B811C812091200130912101DB
S11359C0409122015091230160912401709125019D
S11359D080912601909127010E949F0C00913D0126
S11359E010913E0160913B0170913C01882777FD45
S11359F08095982F87D6B62EA72E582E492E6091C3
S1135A003F0170914001719561957109882777FD77
S1135A108095982F77D6C62ED72EE82EF92E4F9242
S1135A205F92AF92BF92B80166197709882777FD14
S1135A308095982F67D69F938F937F936F93FF9250
S1135A40EF92DF92CF924F925F92AF92BF92B301E7
S1135A50600F711F882777FD8095982F53D69F93E9
S1135A608F937F936F93AC2CBD2CCE2CDF2CEB80CB
S1135A70FC80870120912001309121014091220175
S1135A805091230160912401709125018091260198
S1135A90909127010E941A09C4010FB6F894DEBF41
S1135AA00FBECDBF99230CF401964C0195948794B5
S1135AB000913D0110913E0160913B0170913C01C8
S1135AC0882777FD8095982F1DD6B62EA72E582EA1
S1135AD0492E60913F0170914001882777FD8095A0
S1135AE0982F10D6C62ED72EE82EF92E4F925F92FD
S1135AF0AF92BF92B401601B710B882777FD80952C
S1135B00982F00D69F938F937F936F93FF92EF927A
S1135B10DF92CF924F925F92AF92BF926627772720
S1135B20601B710B68197909882777FD8095982F78
S1135B30E9D59F938F937F936F93AC2CBD2CCE2C80
S1135B40DF2CE12CF12C0B811C8120910801309178
S1135B50090140910A0150910B0160910C0170916F
S1135B600D0180910E0190910F010E949F0C0091F4
S1135B703D0110913E0160913B0170913C018827E9
S1135B8077FD8095982FBED5B62EA72E582E492E78
S1135B9060913F0170914001882777FD8095982F8F
S1135BA0B1D5C62ED72EE82EF92E4F925F92AF9222
S1135BB0BF9266277727601B710B681979098827BC
S1135BC077FD8095982F9ED59F938F937F936F93A6
S1135BD0FF92EF92DF92CF924F925F92AF92BF9279
S1135BE0B401601B710B882777FD8095982F8AD5A7
S1135BF09F938F937F936F93AC2CBD2CCE2CDF2C73
S1135C00EB80FC80870120910801309109014091CB
S1135C100A0150910B0160910C0170910D0180916A
S1135C200E0190910F010E941A0900913D011091FB
S1135C303E0160913B0170913C01882777FD80957E
S1135C40982F60D5B62EA72E582E492E60913F016D
S1135C5070914001719561957109882777FD809550
S1135C60982F50D5C62ED72EE82EF92E0FB6F894BD
S1135C70DEBF0FBECDBF4F925F92AF92BF92662739
S1135C807727601B710B66197709882777FD809544
S1135C90982F38D59F938F937F936F93FF92EF92B2
S1135CA0DF92CF924F925F92AF92BF92B301601B8B
S1135CB0710B882777FD8095982F24D59F938F9318
S1135CC07F936F93AC2CBD2CCE2CDF2CE12CF12CCC
S1135CD00B811C812091100130911101409112011E
S1135CE05091130160911401709115018091160176
