:100000007BC000000C94B20E0C94D41594C0000078
:1000100092C0000090C000008EC000008CC00000A4
:100020008AC0000088C0000086C0000091C10000A6
:1000300082C0000080C000007EC000007CC00000C4
:100040007AC0000078C0000072C1000074C00000D7
:1000500072C0000070C000006EC000006CC00000E4
:100060006AC0000068C0000066C0000064C00000F4
:1000700062C0000060C000005EC000005CC0000004
:100080005AC0000058C0000056C00000B02A2A2AFA
:100090006C2AC42A4A2A382A592AC42A8E2A9D2A16
:1000A0007B2A084AD73B3BCE016E84BCBFFDC12FE3
:1000B0003D6C74319ABD56833DDA3D00C77F11BE59
:1000C000D9E4BB4C3E916BAAAABE000000803F075A
:1000D0002C7AA5BA6CC590DA3B9365FC8BBC53F8BF
:1000E00010FD3C5692834DBD879D3AB63DCBC9BFAE
:1000F0005BBE73DA0FC93F0011241FBECFEFD0E4FF
:10010000DEBFCDBF11E0A0E0B1E0E6ECFCE500E031
:100110000BBF02C007900D92AE33B107D9F729E0AB
:10012000AEE3B1E001C01D92AA39B207E1F70E9427
:10013000C52A0C94612E64CF85B5846085BD16BC3C
:10014000EEE6F0E080818160808310924E01089598
:10015000E1EBF0E08081866080831092B200E0E7FE
:10016000F0E080818160808310924D0108956634B3
:10017000710509F453C0B4F46E317105D9F144F43A
:100180006A30710509F472C06431710571F128C0DB
:1001900062337105C9F16C337105D9F168327105AB
:1001A000F9F42DC0683C710509F44CC05CF46A3563
:1001B0007105F1F16436710509F43FC060357105D0
:1001C00079F431C0603921E0720709F445C0643F19
:1001D00021E0720709F445C06C3221E07207B9F1E1
:1001E00042E350E024E630E045C044E050E022EE37
:1001F00030E040C047E050E023E530E03BC049E05C
:1002000050E024EC30E036C04CE050E025E330E034
:1002100031C04EE050E026EA30E02CC041E150E031
:1002200027E130E027C043E150E028E830E022C079
:1002300045E150E029EF30E01DC048E150E02AE6FA
:1002400030E018C040E350E024ED30E013C049E452
:1002500050E02EE330E00EC041E650E028EA30E006
:1002600009C04AE750E022E130E004C042E050E03B
:1002700021E730E0009719F0029771F0089570932C
:10028000500160934F015093070140930601309352
:10029000050120930401089570934C0160934B0174
:1002A0005093030140930201309301012093000118
:1002B000089520914E0130E0809106019091070150
:1002C000281739076CF046B550E081E090E02091A6
:1002D0000401309105014217530724F480E008958A
:1002E00080E090E0089520914D0130E0809102017E
:1002F000909103012817390774F04091B20050E043
:1003000081E090E0209100013091010142175307F4
:1003100024F480E0089580E090E0089516BC1092E7
:100320004E0108951092B20010924D0108951F924F
:100330000F920FB60F9211248F9380914E018F5F11
:1003400080934E018F910F900FBE0F901F901895C4
:100350001F920F920FB60F9211248F9380914D012F
:100360008F5F80934D018F910F900FBE0F901F9064
:10037000189586E081B984E082B980EA84B981E584
:100380008CBD0895F89494E092B98EBD0DB407FE2B
:10039000FDCF8EB58093510186E082B9789408959F
:1003A000F89492E092B98EBD0DB407FEFDCF8EB5E4
:1003B0008093510186E082B978940895CF93DF93BA
:1003C000C62FD72FEDDF8AE18A95F1F700C08D2F78
:1003D000E7DF8AE18A95F1F700C08C2FE1DF8AE13F
:1003E0008A95F1F700C0DF91CF910895CF93CADFCE
:1003F0008AE18A95F1F700C088EBC4DFC091510112
:100400008AE18A95F1F700C088EBBCDF20915101A9
:100410008C2F90E0982F8827820F911DCF910895FF
:1004200080E18AB91BB81092C5001092C40088E11F
:100430008093C10086E08093C2000895E0ECF0E074
:10044000908195FFFDCF8093C6000895CF92EF92E3
:10045000FF920F931F93CF93DF93C82FD62F142FA4
:10046000F22E80E18BB9E0ECF0E0808180838FEFA9
:10047000E5DF8FEFE3DF8C2FE1DF87E0DFDF8D2F1C
:10048000DDDF812FDBDF8F2DD9DF802FD7DF8E2DB2
:10049000D5DF8C2DD3DFF89487E08C0DE80E0E0DA0
:1004A000F00E1F0DD10F8D2F8C0F8095C7DFE0EC64
:1004B000F0E0808186FFFDCF1BB87894DF91CF916B
:1004C0001F910F91FF90EF90CF9008959B01AC0189
:1004D000A8EEB3E00E94262E20914F0130915001EA
:1004E000A901440F551F240F351F220F331F442726
:1004F00037FD4095542F0E94042E223031054105CE
:1005000051052CF462E070E080E090E00895622FE5
:10051000732F842F952F08954F925F926F927F9241
:100520008F929F92AF92BF92CF92DF92EF92FF9203
:100530000F931F93CF93DF93EC01680179014D3244
:1005400081E0580761057105E0F5AFEFB3E09A016E
:10055000AB010E94262E2CE231E040E050E00E94E8
:10056000042E49015A019924AA24BB24432E512C5C
:1005700082E7C816D104E104F104A4F4AFEFB3E0BC
:10058000A70196010E94262E22E730E040E050E0CD
:100590000E94042E79018A01FF2400271127432F8E
:1005A00050E006C040E050E0BA01E12CF12C870198
:1005B0006A01820194014EE150E063E070E0CE01F7
:1005C00045DFDF91CF911F910F91FF90EF90DF906A
:1005D000CF90BF90AF909F908F907F906F905F90E3
:1005E0004F900895809142019091430120912801FC
:1005F00030912901821793075CF010924301109209
:10060000420181E090E090932B0180932A010895AC
:10061000AC014F5F5F4F509343014093420142173B
:1006200053072CF010922B0110922A010895029684
:1006300090932B0180932A0108952F923F924F921D
:100640005F926F927F928F929F92AF92BF92CF9262
:10065000DF92EF92FF920F931F93CF93DF93CDB76B
:10066000DEB7E6970FB6F894DEBF0FBECDBF298385
:100670003A834B835C836D837E838F8398871701D6
:100680002F964CAC5DAC6EAC7FAC2F9729813A8134
:100690003E8B2D8B4B815C81588F4F8B8D809E8044
:1006A000EF80F884C9010197029788F4D7FAD094B3
:1006B000D7F8D09467968CAD9DADAEADBFAD6797C2
:1006C000B05867968CAF9DAFAEAFBFAF67978D89BF
:1006D0009E890397029788F477FA709477F870945C
:1006E0006B962CAD3DAD4EAD5FAD6B9750586B9694
:1006F0002CAF3DAF4EAF5FAF6B97B801882777FD4A
:100700008095982F0E94742C69877A878B879C87A5
:10071000A601950167966CAD7DAD8EAD9FAD6797D7
:100720000E94122B29853A854B855C850E94D92B26
:100730006BA77CA78DA79EA7A30192016B966CADBA
:100740007DAD8EAD9FAD6B970E94122B29853A85AA
:100750004B855C850E94D92B6FA778AB89AB9AAB90
:1007600063962CAD3DAD4EAD5FAD63976F966CADAE
:100770007DAD8EAD9FAD6F970E94122B29853A8576
:100780004B855C850E94D92B6BAB7CAB8DAB9EAB54
:10079000A101400F511F5AA749A7241635060CF096
:1007A000B8C224E1AF89B88D2A9FC0012B9F900D5C
:1007B0001124820D931D880F991F880F991FFC012A
:1007C000E858FA4FFAA3E9A3289DC001299D900D8E
:1007D0001124820D931D880F991F880F991FAC015A
:1007E00048585A4F58A34F8F2E9DC0012F9D900DF2
:1007F0001124820D931D880F991F880F991FDC010A
:10080000A858BA4FBCA3ABA38101000F111F000F62
:10081000111F0E551E4FA986BA86CB86DC864D86E3
:100820005E866F86788A2BA53CA54DA55EA5698559
:100830007A858B859C850E94132B69877A878B87A5
:100840009C872FA538A949A95AA96D857E858F85D2
:1008500098890E94132B6D877E878F87988B2BA991
:100860003CA94DA95EA963966CAD7DAD8EAD9FADE3
:1008700063970E94132B63966CAF7DAF8EAF9FAFD3
:1008800063972D853E854F85588969857A858B8547
:100890009C850E94862B20E030E044E353E40E94D4
:1008A000472D28ED3FE049E450E40E94D92B0E94F7
:1008B000412C6DA37EA38FA398A763962CAD3DAD6D
:1008C0004EAD5FAD6397CA01B9010E94472D698B98
:1008D0007A8B8B8B9C8B29853A854B855C85CA01ED
:1008E000B9010E94472D6B017C012D853E854F8506
:1008F0005889CA01B9010E94472D9B01AC01C7016B
:10090000B6010E94132B6F8B788F898F9A8F0E946C
:10091000AE2D20E030E048E452E40E94122B6B013F
:100920007C019B01AC010E94472D6B8F7C8F8D8FCA
:100930009E8F9B01AC0169897A898B899C890E9471
:10094000132B4B015C010E94AE2D9B01AC01639601
:100950006CAD7DAD8EAD9FAD639790580E94D92B45
:100960000E94042B2B013C0120E030E048E452E4DB
:100970006F89788D898D9A8D0E94122B0E94AE2DE1
:100980009B01AC01C701B6010E94472D9B01AC0140
:1009900069897A898B899C890E94132B0E94AE2DCC
:1009A0006B017C0120E038E44CE855E4C501B4015A
:1009B0000E94132B20E038E044E856E40E94122BFA
:1009C0004B015C01A7019601C701B6010E94132BE0
:1009D00020E030E046E852E40E94472D9B01AC0144
:1009E000C501B4010E94D92B0E94042B9B01AC01CC
:1009F000C301B2010E94132B24EE3EE245E652E40D
:100A00000E94472D0E94412C6B017C0129893A8963
:100A10004B895C8960E07AE187EA96E40E94122BB8
:100A20002B8D3C8D4D8D5E8D0E94122B20E038E188
:100A300048E856E40E94D92B0E94042B20E030E0C5
:100A400044E353E40E94472D28ED3FE049E450E49D
:100A50000E94D92B0E94412CED89FE89E230F105DC
:100A600009F457C01CF4319761F038C12D893E89D3
:100A70002330310509F496C02430310509F4E1C072
:100A80002DC18DA09EA0AFA0B8A439E6830E911C05
:100A9000A11CB11CA9A1BAA18D929D92AD92BC924C
:100AA0001397BBE4CB0ED11CE11CF11CEF8DF8A118
:100AB000C082D182E282F382DC01CB010196A11DCA
:100AC000B11DEBA1FCA180839183A283B38329850F
:100AD0003A854B855C85D8012D933D934D935C936E
:100AE0001397F801E05BFF4F2D853E854F855889B0
:100AF0002083318342835383E05BFF4F63968CAD49
:100B00009DADAEADBFAD639780839183A283B38368
:100B1000E5C08DA09EA0AFA0B8A4A1EC8A0E911C48
:100B2000A11CB11CE9A1FAA180829182A282B382A8
:100B3000FBE4CF0ED11CE11CF11CAF8DB8A1CD920E
:100B4000DD92ED92FC921397DC01CB010396A11D7F
:100B5000B11DEBA1FCA180839183A283B383F80133
:100B6000E051FF4F89859A85AB85BC85B05880835D
:100B70009183A283B383E05BFF4F2D853E854F8534
:100B800058892083318342835383E05BFF4F639610
:100B90008CAD9DADAEADBFAD639780839183A283D5
:100BA000B3839CC08DA09EA0AFA0B8A4A3EC8A0E76
:100BB000911CA11CB11CE9A1FAA180829182A282A0
:100BC000B38221EE30E040E050E02C193D094E099F
:100BD0005F09AF8DB8A12D933D934D935C9313970F
:100BE0002CE231E040E050E0261B370B480B590B5C
:100BF000EBA1FCA12083318342835383F801E052AF
:100C0000FE4F89859A85AB85BC85B05880839183DA
:100C1000A283B383E05BFF4F2D853E854F855889C6
:100C20002083318342835383E05BFF4F63968CAD17
:100C30009DADAEADBFAD639780839183A283B38337
:100C40004DC08DA09EA0AFA0B8A4A9E68A0E911CAD
:100C5000A11CB11CE9A1FAA180829182A282B38277
:100C600021EE30E040E050E02C193D094E095F09CB
:100C7000AF8DB8A12D933D934D935C9313972CE2C8
:100C800031E040E050E0261B370B480B590BEBA13D
:100C9000FCA12083318342835383F801E053FD4F4D
:100CA00029853A854B855C85208331834283538334
:100CB000E05BFF4F8D859E85AF85B88980839183EA
:100CC000A283B383E05BFF4F63962CAD3DAD4EAD89
:100CD0005FAD639720833183428353833FEF231AB1
:100CE000330A49A15AA14C5F5F4F5AA349A38F8D84
:100CF00098A1049698A38F8FABA1BCA11496BCA316
:100D0000ABA30C5F1F4FE9A5FAA52E163F0609F00D
:100D10008ACDE6960FB6F894DEBF0FBECDBFDF9149
:100D2000CF911F910F91FF90EF90DF90CF90BF90E8
:100D3000AF909F908F907F906F905F904F903F907B
:100D40002F9008952F923F924F925F926F927F92D1
:100D50008F929F92AF92BF92CF92DF92EF92FF92CB
:100D60000F931F93CF93DF93CDB7DEB7CA54D1094A
:100D70000FB6F894DEBF0FBECDBF29833A834B83F5
:100D80005C836D837E838F83988725961FAF0EAF1C
:100D90002597FCAAEBAAA7964CAC5DAC6EAC7FACD9
:100DA000A79729803A802B813C8127963FAF2EAFB1
:100DB00027974D815E8129965FAF4EAF29978F812E
:100DC00098852B969FAF8EAF2B97112314F40F5F4E
:100DD0001F4F15950795ABA9BCA9A00FB11FBAA7C6
:100DE000A9A71197BAAFA9AFC1010197029788F4DB
:100DF000D7FAD094D7F8D094AB962CAD3DAD4EAD8C
:100E00005FADAB975058AB962CAF3DAF4EAF5FAFD9
:100E1000AB97C10103970297D0F4A3968CAD9DAD1B
:100E2000AEADBFADA397B058A3968CAF9DAFAEAF9C
:100E3000BFAFA397AF962CAD3DAD4EAD5FADAF97B5
:100E40005058AF962CAF3DAF4EAF5FAFAF972596E2
:100E50004EAD5FAD2597BA01882777FD8095982F15
:100E60000E94742C69877A878B879C87A6019501DD
:100E7000AB966CAD7DAD8EAD9FADAB970E94122B46
:100E800029853A854B855C850E94D92B6BA77CA769
:100E90008DA79EA7A3962CAD3DAD4EAD5FADA3979C
:100EA000AF966CAD7DAD8EAD9FADAF970E94122B0E
:100EB00029853A854B855C850E94D92B6FA778AB35
:100EC00089AB9AAB6091340170913501882777FD29
:100ED0008095982F0E94742C69877A878B879C87CE
:100EE000B801882777FD8095982F0E94742C6D8714
:100EF0007E878F87988BE3962CAD3DAD4EAD5FAD71
:100F0000E39769857A858B859C850E94132BA301C5
:100F100092010E94122B2D853E854F8558890E9493
:100F2000D92B6BAF7CAF8DAF9EAFA3019201E3963F
:100F30006CAD7DAD8EAD9FADE3970E94122B2985E0
:100F40003A854B855C850E94122B2D853E854F8509
:100F500058890E94D92B23966CAF7DAF8EAF9FAF7F
:100F600023978BA99CA9A9ADBAADA817B9070CF412
:100F7000D3C224E12796EEADFFAD27972E9FC00187
:100F80002F9F900D11244BA95CA9840F951F880FEA
:100F9000991F880F991FDC01A858BA4FBAA3A9A3BB
:100FA0002996EEADFFAD29972E9FC0012F9F900D82
:100FB0001124840F951F880F991F880F991FAC016A
:100FC00048585A4F5CA34BA32B96AEADBFAD2B97A1
:100FD0002A9FC0012B9F900D1124EBA9FCA98E0F15
:100FE0009F1F880F991F880F991F9C0128583A4FFF
:100FF0008F01000F111F000F111F0E551E4F3E8A4B
:101000002D8A1F013EA32DA3A986BA86CB86DC8636
:101010004D865E866F86788A2BA53CA54DA55EA57C
:1010200069857A858B859C850E94132B69877A87D1
:101030008B879C872FA538A949A95AA9A3966CAD7F
:101040007DAD8EAD9FADA3970E94132BA3966CAF81
:101050007DAF8EAF9FAFA3972BAD3CAD4DAD5EADD9
:101060006D857E858F8598890E94132B6D877E877D
:101070008F87988BA3962CAD3DAD4EAD5FADA397FA
:1010800069857A858B859C850E94862B20E030E0DF
:1010900044E353E40E94472D28ED3FE049E450E447
:1010A0000E94D92B0E94412C6DAB7EAB8FAB98AFC9
:1010B0002D853E854F855889CA01B9010E94472D6B
:1010C000698B7A8B8B8B9C8B29853A854B855C85CC
:1010D000CA01B9010E94472D6B017C01A3962CAD7A
:1010E0003DAD4EAD5FADA397CA01B9010E94472D3A
:1010F0009B01AC01C701B6010E94132B698F7A8F47
:101100008B8F9C8F0E94AE2D20E030E048E452E4AB
:101110000E94122B6B017C019B01AC010E94472DA8
:101120006D8F7E8F8F8F98A39B01AC0169897A891F
:101130008B899C890E94132B4B015C010E94AE2D70
:101140009B01AC016D857E858F85988990580E94A2
:10115000D92B0E94042B2B013C0120E030E048E415
:1011600052E4698D7A8D8B8D9C8D0E94122B0E948A
:10117000AE2D9B01AC01C701B6010E94472D9B011A
:10118000AC0169897A898B899C890E94132B0E9402
:10119000AE2D6B017C0120E038E44CE855E4C5013C
:1011A000B4010E94132B20E038E044E856E40E948A
:1011B000122B4B015C01A7019601C701B6010E94E9
:1011C000132B20E030E046E852E40E94472D9B01BB
:1011D000AC01C501B4010E94D92B0E94042B9B01D4
:1011E000AC01C301B2010E94132B24EE3EE245E69E
:1011F00052E40E94472D0E94412C6B017C012989F9
:101200003A894B895C8960E07AE187EA96E40E943A
:10121000122B2D8D3E8D4F8D58A10E94122B20E058
:1012200038E148E856E40E94D92B0E94042B20E0C4
:1012300030E044E353E40E94472D28ED3FE049E4C9
:1012400050E40E94D92B0E94412C4D895E89423086
:10125000510509F457C024F44130510559F037C104
:10126000AD89BE89A330B10509F495C0149709F47E
:10127000E1C02DC18DA89EA8AFA8B8ACB9E68B0E71
:10128000911CA11CB11CE9A1FAA180829182A282C9
:10129000B382FBE4CF0ED11CE11CF11CABA1BCA1BD
:1012A000CD92DD92ED92FC921397DC01CB01019679
:1012B000A11DB11DEDA1FEA180839183A283B38303
:1012C00029853A854B855C85D8012D933D934D93B7
:1012D0005C931397F801E05BFF4FA3962CAD3DADF7
:1012E0004EAD5FADA3972083318342835383E05B90
:1012F000FF4F8D859E85AF85B88980839183A283BA
:10130000B383E5C08DA89EA8AFA8B8ACA1EC8A0EA7
:10131000911CA11CB11CE9A1FAA180829182A28238
:10132000B382FBE4CF0ED11CE11CF11CABA1BCA12C
:10133000CD92DD92ED92FC921397DC01CB010396E6
:10134000A11DB11DEDA1FEA180839183A283B38372
:10135000F801E051FF4F89859A85AB85BC85B0586F
:1013600080839183A283B383E05BFF4FA3962CAD70
:101370003DAD4EAD5FADA397208331834283538350
:10138000E05BFF4F8D859E85AF85B8898083918313
:10139000A283B3839CC08DA89EA8AFA8B8ACA3ECD1
:1013A0008A0E911CA11CB11CE9A1FAA18082918234
:1013B000A282B38221EE30E040E050E02C193D09DA
:1013C0004E095F09ABA1BCA12D933D934D935C9356
:1013D00013972CE231E040E050E0261B370B480B1E
:1013E000590BEDA1FEA12083318342835383F80181
:1013F000E052FE4F89859A85AB85BC85B0588083C5
:101400009183A283B383E05BFF4FA3962CAD3DADE8
:101410004EAD5FADA3972083318342835383E05B5E
:10142000FF4F8D859E85AF85B88980839183A28388
:10143000B3834DC08DA89EA8AFA8B8ACA9E68A0E0C
:10144000911CA11CB11CE9A1FAA180829182A28207
:10145000B38221EE30E040E050E02C193D094E0906
:101460005F09ABA1BCA12D933D934D935C93139762
:101470002CE231E040E050E0261B370B480B590BC3
:10148000EDA1FEA12083318342835383F801E05311
:10149000FD4F29853A854B855C85208331834283C6
:1014A0005383E05BFF4FA3968CAD9DADAEADBFAD5A
:1014B000A39780839183A283B383E05BFF4F2D8545
:1014C0003E854F85588920833183428353833FEF84
:1014D000231A330A49A15AA14C5F5F4F5AA349A36B
:1014E0008BA19CA104969CA38BA3ADA1BEA1149635
:1014F000BEA3ADA30C5F1F4FE9ADFAADE215F30536
:101500000CF08ACD2D883E88A984BA84CB84DC84F3
:101510004D845E846F8478882BA93CA925964EADB6
:101520005FAD2597240F351F3CAB2BAB89A59AA542
:10153000821793070CF0CCC224E12796AEADBFAD65
:1015400027972A9FC0012B9F900D1124E9A5FAA58A
:101550008E0F9F1F880F991F880F991FAC01485845
:101560005A4F7A012996AEADBFAD29972A9FC00187
:101570002B9F900D11248E0F9F1F880F991F880F8E
:10158000991FFC01E858FA4FFE8FED8F2B964EAD58
:101590005FAD2B97249FC001259F900D1124A9A515
:1015A000BAA58A0F9B1F880F991F880F991FFC01EE
:1015B000E858FA4FFAA3E9A38D01000F111F000F9D
:1015C000111F0E551E4FFCA2EBA2A986BA86CB8630
:1015D000DC864D865E866F86788A2BA53CA54DA558
:1015E0005EA569857A858B859C850E94132B69870A
:1015F0007A878B879C872FA538A949A95AA9A396D2
:101600006CAD7DAD8EAD9FADA3970E94132BA396BD
:101610006CAF7DAF8EAF9FAFA39723962CAD3DAD42
:101620004EAD5FAD23976D857E858F8598890E942D
:10163000132B6D877E878F87988BA3962CAD3DAD3E
:101640004EAD5FADA39769857A858B859C850E9499
:10165000862B20E030E044E353E40E94472D28ED40
:101660003FE049E450E40E94D92B0E94412C6DA335
:101670007EA38FA398A72D853E854F855889CA01E3
:10168000B9010E94472D698B7A8B8B8B9C8B2985A6
:101690003A854B855C85CA01B9010E94472D6B01D3
:1016A0007C01A3962CAD3DAD4EAD5FADA397CA01B5
:1016B000B9010E94472D9B01AC01C701B6010E94F0
:1016C000132B6D8B7E8B8F8B988F0E94AE2D20E01D
:1016D00030E048E452E40E94122B6B017C019B0134
:1016E000AC010E94472D698F7A8F8B8F9C8F9B0155
:1016F000AC0169897A898B899C890E94132B4B01E3
:101700005C010E94AE2D9B01AC016D857E858F85AD
:10171000988990580E94D92B0E94042B2B013C01E0
:1017200020E030E048E452E46D897E898F89988D0D
:101730000E94122B0E94AE2D9B01AC01C701B60185
:101740000E94472D9B01AC0169897A898B899C890C
:101750000E94132B0E94AE2D6B017C0120E038E427
:101760004CE855E4C501B4010E94132B20E038E099
:1017700044E856E40E94122B4B015C01A70196013C
:10178000C701B6010E94132B20E030E046E852E486
:101790000E94472D9B01AC01C501B4010E94D92BC9
:1017A0000E94042B9B01AC01C301B2010E94132BC8
:1017B00024EE3EE245E652E40E94472D0E94412C71
:1017C0006B017C0129893A894B895C8960E07AE167
:1017D00087EA96E40E94122B298D3A8D4B8D5C8D01
:1017E0000E94122B20E038E148E856E40E94D92BF1
:1017F0000E94042B20E030E044E353E40E94472D94
:1018000028ED3FE049E450E40E94D92B0E94412C8E
:10181000F2E02F16310409F459C02CF431E02316FC
:10182000310461F038C143E02416310409F497C053
:1018300054E02516310409F4E1C02DC18DA09EA00D
:10184000AFA0B8A4A9E68A0E911CA11CB11CEBA103
:10185000FCA180829182A282B382FBE4CF0ED11CD4
:10186000E11CF11CAD8DBE8DCD92DD92ED92FC920E
:101870001397DC01CB010196A11DB11DE9A1FAA1CD
:1018800080839183A283B38329853A854B855C85C8
:10189000D8012D933D934D935C931397F801E05B32
:1018A000FF4FA3962CAD3DAD4EAD5FADA39720830A
:1018B000318342835383E05BFF4F8D859E85AF85E7
:1018C000B88980839183A283B383E5C08DA09EA055
:1018D000AFA0B8A4A1EC8A0E911CA11CB11CEBA175
:1018E000FCA180829182A282B382FBE4CF0ED11C44
:1018F000E11CF11CAD8DBE8DCD92DD92ED92FC927E
:101900001397DC01CB010396A11DB11DE9A1FAA13A
:1019100080839183A283B383F801E051FF4F8985CF
:101920009A85AB85BC85B05880839183A283B383AD
:10193000E05BFF4FA3962CAD3DAD4EAD5FADA397E1
:101940002083318342835383E05BFF4F8D859E85E7
:10195000AF85B88980839183A283B3839CC08DA017
:101960009EA0AFA0B8A4A3EC8A0E911CA11CB11C30
:10197000EBA1FCA180829182A282B38221EE30E0B1
:1019800040E050E02C193D094E095F09AD8DBE8D38
:101990002D933D934D935C9313972CE231E040E0FF
:1019A00050E0261B370B480B590BE9A1FAA1208305
:1019B000318342835383F801E052FE4F89859A8533
:1019C000AB85BC85B05880839183A283B383E05BF1
:1019D000FF4FA3962CAD3DAD4EAD5FADA3972083D9
:1019E000318342835383E05BFF4F8D859E85AF85B6
:1019F000B88980839183A283B3834DC08DA09EA0BC
:101A0000AFA0B8A4A9E68A0E911CA11CB11CEBA141
:101A1000FCA180829182A282B38221EE30E040E07C
:101A200050E02C193D094E095F09AD8DBE8D2D93F7
:101A30003D934D935C9313972CE231E040E050E0EE
:101A4000261B370B480B590BE9A1FAA120833183E0
:101A500042835383F801E053FD4F29853A854B8536
:101A60005C852083318342835383E05BFF4FA396E1
:101A70008CAD9DADAEADBFADA39780839183A283A6
:101A8000B383E05BFF4F2D853E854F8558892083CA
:101A900031834283538349A55AA54F5F5F4F5AA7AD
:101AA00049A78BA19CA104969CA38BA3AD8DBE8D51
:101AB0001496BE8FAD8FE9A1FAA13496FAA3E9A3DB
:101AC0000C5F1F4F2BA93CA94217530709F085CD86
:101AD000C65BDF4F0FB6F894DEBF0FBECDBFDF9100
:101AE000CF911F910F91FF90EF90DF90CF90BF901B
:101AF000AF909F908F907F906F905F904F903F90AE
:101B00002F9008954F925F926F927F928F929F9243
:101B1000AF92BF92CF92DF92EF92FF920F931F93FB
:101B2000CF93DF93CDB7DEB728970FB6F894DEBF1B
:101B30000FBECDBF4B835C836D837E838F8398877D
:101B4000EB80FC808D809E80AF80B88424E12E9D48
:101B5000C0012F9D900D1124E0912A01F0912B01DD
:101B6000E80FF91FEE0FFF1FEE0FFF1FE858FA4FA7
:101B70004080518062807380E0914201F091430186
:101B80008E0F9F1FFC01EE0FFF1FEE0FFF1FE85887
:101B9000FA4F8081918184199509BC0122F466274E
:101BA0007727681B790B882777FD8095982F0E94EF
:101BB00066028B019C01B301A201C7010E948C0245
:101BC00024E1289DC001299D900D1124E0912A0156
:101BD000F0912B01E80FF91FEE0FFF1FEE0FFF1F13
:101BE000E858FA4FC080D180E280F380E091420152
:101BF000F09143018E0F9F1FFC01EE0FFF1FEE0FB0
:101C0000FF1FE858FA4F808191818C199D09BC0112
:101C100022F466277727681B790B882777FD809544
:101C2000982F0E9466028B019C01B701A601C40196
:101C30000E948C0224E12A9DC0012B9D900D11244D
:101C4000E0912A01F0912B01E80FF91FEE0FFF1F21
:101C5000EE0FFF1FE858FA4FC080D180E280F3807A
:101C6000E0914201F09143018E0F9F1FFC01EE0FA6
:101C7000FF1FEE0FFF1FE858FA4F808191818C19EA
:101C80009D09BC0122F466277727681B790B8827FA
:101C900077FD8095982F0E9466028B019C01B70109
:101CA000A601C5010E948C0228960FB6F894DEBFEB
:101CB0000FBECDBFDF91CF911F910F91FF90EF909D
:101CC000DF90CF90BF90AF909F908F907F906F905C
:101CD0005F904F9008952091200130912101409113
:101CE000220150912301609124017091250180917E
:101CF00026019091270106DF2091180130911901EA
:101D000040911A0150911B0160911C0170911D01BD
:101D100080911E0190911F01F5DE209110013091FC
:101D200011014091120150911301609114017091C1
:101D300015018091160190911701E4DE20910801B0
:101D40003091090140910A0150910B0160910C0101
:101D500070910D0180910E0190910F01D3DE0C94D2
:101D6000F20208951F920F920FB60F9211240BB634
:101D70000F922F933F934F935F936F937F938F9324
:101D80009F93AF93BF93EF93FF9388EB0E94D00193
:101D900080915101282F2F7030E030934A01209319
:101DA0004901807F90E095958795959587959595C4
:101DB000879595958795909348018093470181E099
:101DC00090E09093410180934001FF91EF91BF918A
:101DD000AF919F918F917F916F915F914F913F91C3
:101DE0002F910F900BBE0F900FBE0F901F90189564
:101DF0008AEC90E00E94F601BC018AEC90E00E941F
:101E0000DE0180ED90E00E94F601BC0180ED90E0E3
:101E10000E94DE0188ED90E00E94F601BC0188ED91
:101E200090E00E94DE0180EE90E00E94F601BC018D
:101E300080EE90E00E94DE0188EE90E00E94F601C4
:101E4000BC0188EE90E00E94DE0180EF90E00E94ED
:101E5000F601BC0180EF90E00E94DE0188EF90E087
:101E60000E94F601BC0188EF90E00E94DE0188E844
:101E700090E00E94F601BC0188E890E00E94DE013B
:101E800088E990E00E94F601BC0188E990E00E9498
:101E9000DE0180E990E00E94F601BC0180E990E05B
:101EA0000C94DE0108952F923F924F925F926F92B1
:101EB0007F928F929F92AF92BF92CF92DF92EF92DA
:101EC000FF920F931F93CF93DF93CDB7DEB7CC5420
:101ED000D1090FB6F894DEBF0FBECDBF8BE090E006
:101EE0009093290180932801909389098093880910
:101EF0002091420130914301220F331F220F331FE3
:101F00002E5A3E4FFE013196AE014B5C5F4FB90138
:101F10009F01FB0180819181A281B381F9018193AD
:101F20009193A193B1939F01605B7F4FE417F507F5
:101F300081F7F9852696FFAF26972A8527962FAF3A
:101F400027973B8528963FAF28974C8529964FAF1A
:101F500029978D819E81AF81B8859C01AD01505834
:101F600021962CAF3DAF4EAF5FAF21976091360108
:101F700070913701882777FD8095982F0E94742CE7
:101F80009F938F937F936F9329963FAD29973F93AC
:101F900028964FAD28974F9327965FAD27975F936D
:101FA00026968FAD26978F9321969FAD21979F936D
:101FB000EFADEF93FEADFF932DAD2F9388898F93F7
:101FC0008F858F938E858F938D858F933F934F93BE
:101FD0005F9326963FAD26973F932196ACACBDAC60
:101FE000CEACDFAC2197E12CF12C04E010E0209185
:101FF00020013091210140912201509123016091F3
:1020000024017091250180912601909127010E9461
:102010001D032D883E888F88988C498922964FAF62
:1020200022975A8923965FAF23978B8924968FAF87
:1020300024979C8925969FAF2597609136017091D2
:102040003701882777FD8095982F0E94742C9F93E5
:102050008F937F936F939F928F923F922F922596AB
:10206000EFAD2597EF932496FFAD2497FF9323962A
:102070002FAD23972F9322963FAD22973F938C8DC0
:102080008F938B8D8F938A8D8F93898D8F939F9252
:102090008F923F922F9222963FAD229723962FAD9B
:1020A000239724969FAD249725968FAD2597A32E31
:1020B000B22EC92ED82E20911801309119014091CD
:1020C0001A0150911B0160911C0170911D018091BA
:1020D0001E0190911F010E941D0389A19AA1ABA12D
:1020E000BCA19C01AD0150582DAB3EAB4FAB58AFDE
:1020F0004D8C5E8C6F8C78A077FA709477F8709422
:102100000FB6F894DEBF0FBECDBF6091360170915F
:102110003701882777FD8095982F0E94742C9F9314
:102120008F937F936F9358AD5F938FA98F939EA9E1
:102130009F93EDA9EF937F926F925F924F9288A544
:102140008F938FA18F938EA18F938DA18F935F9388
:10215000FFA9FF939F93EF93630152012091100118
:1021600030911101409112015091130160911401BD
:102170007091150180911601909117010E941D0325
:102180008DA59EA5AFA5B8A99C01AD01505829AF5A
:102190003AAF4BAF5CAF39A52A963FAF2A974AA515
:1021A0002B964FAF2B975BA52C965FAF2C978CA5EA
:1021B0002D968FAF2D97609136017091370188274A
:1021C00077FD8095982F0E94742C9F938F937F9317
:1021D0006F939CAD9F93EBADEF93FAADFF9329AD59
:1021E0002F932D963FAD2D973F932C964FAD2C9767
:1021F0004F932B965FAD2B975F932A968FAD2A97BF
:102200008F938CA98F938BA98F938AA98F9389A978
:102210008F939F93EF93FF932F932A963FAD2A9727
:102220002B962FAD2B972C969FAD2C972D968FAD7F
:102230002D97A32EB22EC92ED82E209108013091B1
:10224000090140910A0150910B0160910C017091BC
:102250000D0180910E0190910F010E941D0360916C
:10226000360170913701882777FD8095982F0E945D
:10227000742C162F072FF82EE92E0FB6F894DEBF18
:102280000FBECDBF9F938F937F936F936091380163
:1022900070913901882777FD8095982F0E94742CC2
:1022A0009F938F937F936F9360913A0170913B015D
:1022B000719561957109882777FD8095982F0E9407
:1022C000742C9F938F937F936F93EF92FF920F9352
:1022D0001F932996FFAD2997FF9328962FAD289736
:1022E0002F9327963FAD27973F9326964FAD26977E
:1022F0004F932196ACACBDACCEACDFAC21976894CB
:10230000EE24E2F8F12C04E010E02091200130915D
:10231000210140912201509123016091240170918B
:10232000250180912601909127010E94A2066091CB
:10233000360170913701882777FD8095982F0E948C
:10234000742C9F938F937F936F939F928F923F9262
:102350002F9225965FAD25975F932496EFAD249736
:10236000EF932396FFAD2397FF9322962FAD2297ED
:102370002F939F938F937F936F939F928F923F9210
:102380002F9222963FAD229723962FAD2397249626
:102390009FAD249725968FAD2597A32EB22EC92EDB
:1023A000D82E209118013091190140911A015091B5
:1023B0001B0160911C0170911D0180911E01909183
:1023C0001F010E941D03609136017091370188271B
:1023D00077FD8095982F0E94742C0FB6F894DEBF7D
:1023E0000FBECDBF9F938F937F936F9358AD5F9335
:1023F000EFA9EF93FEA9FF932DA92F937F926F92E0
:102400005F924F929F938F937F936F935F93EF931E
:10241000FF932F936301520120911001309111011C
:1024200040911201509113016091140170911501B6
:1024300080911601909117010E941D036091360151
:1024400070913701882777FD8095982F0E94742C12
:10245000162F072FF82EE92E9F938F937F936F935C
:1024600060913801709139017195619571098827E2
:1024700077FD8095982F0E94742C9F938F937F9364
:102480006F9360913A0170913B01882777FD8095A9
:10249000982F0E94742C9F938F937F936F93EF924A
:1024A000FF920F931F933CAD3F934BAD4F935AADAB
:1024B0005F9389AD8F932A963FAD2A972B962FADC8
:1024C0002B972C969FAD2C972D968FAD2D97A32EE5
:1024D000B22EC92ED82E6894EE24E2F8F12C04E036
:1024E00010E0209108013091090140910A015091BA
:1024F0000B0160910C0170910D0180910E01909182
:102500000F010E94A2066091360170913701882761
:1025100077FD8095982F0E94742C162F072FF82E88
:10252000E92E6091380170913901882777FD8095F7
:10253000982F0E94742CD62EC72EB82EA92E6091EB
:102540003A0170913B01719561957109882777FD7A
:102550008095982F0E94742C0FB6F894DEBF0FBEA2
:10256000CDBFEF92FF920F931F93AF92BF92CF9286
:10257000DF929F938F937F936F93EF92FF920F93CE
:102580001F93AF92BF92CF92DF92A62EB72EC82E86
:10259000D92E6894EE24E3F8F12C04E010E02091A9
:1025A000200130912101409122015091230160913D
:1025B00024017091250180912601909127010E94AC
:1025C0001D036091360170913701882777FD809552
:1025D000982F0E94742CD62EC72EB82EA92E9F930A
:1025E0008F937F936F9360913801709139018827A1
:1025F00077FD8095982F0E94742C9F938F937F93E3
:102600006F9360913A0170913B01882777FD809527
:10261000982F0E94742C9F938F937F936F93AF9208
:10262000BF92CF92DF929F928F923F922F922296EB
:102630003FAD229723962FAD239724969FAD2497E5
:1026400025968FAD2597A32EB22EC92ED82E209178
:1026500018013091190140911A0150911B016091AC
:102660001C0170911D0180911E0190911F010E941B
:10267000A2066091360170913701882777FD809519
:10268000982F0E94742CD62EC72EB82EA92E0FB6C6
:10269000F894DEBF0FBECDBF9F938F937F936F9350
:1026A00060913801709139017195619571098827A0
:1026B00077FD8095982F0E94742C9F938F937F9322
:1026C0006F9360913A0170913B0171956195710929
:1026D000882777FD8095982F0E94742C9F938F9365
:1026E0007F936F93AF92BF92CF92DF9238AD3F93BB
:1026F0004FA94F935EA95F938DA98F9363015201F8
:10270000209110013091110140911201509113015B
:10271000609114017091150180911601909117013B
:102720000E94A2066091360170913701882777FDDB
:102730008095982F0E94742C162F072FF82EE92EC3
:1027400060913801709139017195619571098827FF
:1027500077FD8095982F0E94742CD62EC72EB82E08
:10276000A92E60913A0170913B01882777FD8095F1
:10277000982F0E94742CEF92FF920F931F93AF92A9
:10278000BF92CF92DF929F938F937F936F93EF923D
:10279000FF920F931F93AF92BF92CF92DF92A62E1C
:1027A000B72EC82ED92E6894EE24E3F8F12C04E05D
:1027B00010E0209108013091090140910A015091E7
:1027C0000B0160910C0170910D0180910E019091AF
:1027D0000F010E941D03109243011092420181E0FB
:1027E00090E090932B0180932A010FB6F894DEBFFE
:1027F0000FBECDBFC45BDF4F0FB6F894DEBF0FBE78
:10280000CDBFDF91CF911F910F91FF90EF90DF909F
:10281000CF90BF90AF909F908F907F906F905F9080
:102820004F903F902F9008958F929F92AF92BF92BA
:10283000CF92DF92EF92FF920F931F93CF93DF938C
:102840008091320190913301EC0199230CF423968D
:10285000D595C795D595C7950197909329018093F4
:102860002801CE01019790938909809388090091EE
:102870003601109137016091380170913901882734
:1028800077FD8095982F0E94742CB62EA72E982E37
:10289000892E60913A0170913B01719561957109A2
:1028A000882777FD8095982F0E94742CC62ED72EEE
:1028B000E82EF92E6091340170913501600F711F7F
:1028C000882777FD8095982F0E94742C9F938F9373
:1028D0007F936F938F929F92AF92BF92FF92EF92EE
:1028E000DF92CF92B801882777FD8095982F0E94BC
:1028F000742C9F938F937F936F938F929F92AF923D
:10290000BF92AC2CBD2CCE2CDF2CE12CF12C8E01F7
:102910002091200130912101409122015091230109
:1029200060912401709125018091260190912701E9
:102930000E941D036091360170913701882777FD51
:102940008095982F0E94742C162F072FF82EE92EB1
:102950006091380170913901882777FD8095982F13
:102960000E94742CD62EC72EB82EA92E60913A0143
:1029700070913B01882777FD8095982F0E94742CD9
:10298000EF92FF920F931F93AF92BF92CF92DF927D
:102990009F938F937F936F93EF92FF920F931F9369
:1029A000AF92BF92CF92DF92A62EB72EC82ED92E0D
:1029B000E12CF12C8E0120911801309119014091E8
:1029C0001A0150911B0160911C0170911D018091B1
:1029D0001E0190911F010E941D03609136017091AC
:1029E0003701882777FD8095982F0E94742C162F29
:1029F000072FF82EE92E60913801709139017195F9
:102A000061957109882777FD8095982F0E94742C15
:102A1000D62EC72EB82EA92E20913A0130913B0117
:102A200066277727621B730B882777FD8095982F81
:102A30000E94742C2DB73EB7285D3F4F0FB6F89417
:102A40003EBF0FBE2DBFEF92FF920F931F93AF9229
:102A5000BF92CF92DF929F938F937F936F93EF926A
:102A6000FF920F931F93AF92BF92CF92DF92A62E49
:102A7000B72EC82ED92EE12CF12C8E0120911001F9
:102A80003091110140911201509113016091140194
:102A90007091150180911601909117010E941D03FC
:102AA000C0903601D09037016091380170913901A2
:102AB000719561957109882777FD8095982F0E94FF
:102AC000742CF62EE72E982E892E60913A01709183
:102AD0003B01882777FD8095982F0E94742C062F44
:102AE000172FA82EB92E60913401709135016C0D0D
:102AF0007D1D882777FD8095982F0E94742C9F93C9
:102B00008F937F936F938F929F92EF92FF92BF92DA
:102B1000AF921F930F93B601882777FD8095982F6A
:102B20000E94742C9F938F937F936F938F929F92A9
:102B3000EF92FF929A2D8B2DA02EB12EC92ED82E5A
:102B4000E12CF12C8E012091080130910901409176
:102B50000A0150910B0160910C0170910D0180915F
:102B60000E0190910F010E941D03109243011092DB
:102B7000420181E090E090932B0180932A018DB770
:102B80009EB788960FB6F8949EBF0FBE8DBFDF919B
:102B9000CF911F910F91FF90EF90DF90CF90BF905A
:102BA000AF909F908F9008951F920F920FB60F9243
:102BB00011240BB60F922F933F934F935F936F9314
:102BC0007F938F939F93AF93BF93EF93FF938AEC81
:102BD00090E00E94F601BC018AEC90E00E94DE01C8
:102BE00080ED90E00E94F601BC0180ED90E00E9433
:102BF000DE0188ED90E00E94F601BC0188ED90E0D6
:102C00000E94DE0180EE90E00E94F601BC0180EEA1
:102C100090E00E94DE0180913E0190913F0101977A
:102C200049F410923F0110923E01FEDD81E0809355
:102C3000440109C081E090E090933F0180933E0100
:102C400032D910924401FF91EF91BF91AF919F91C2
:102C50008F917F916F915F914F913F912F910F9045
:102C60000BBE0F900FBE0F901F901895AF92BF92A2
:102C7000CF92DF92EF92FF920F931F93CF93DF9348
:102C800082E090E090932901809328019093890934
:102C9000809388096091360170913701882777FD0C
:102CA0008095982F0E94742CC62FD72F182F092F8C
:102CB0006091380170913901882777FD8095982FB0
:102CC0000E94742CD62EC72EB82EA92E20913A0120
:102CD00030913B0166277727621B730B882777FDAE
:102CE0008095982F0E94742C0F931F93DF93CF939E
:102CF000AF92BF92CF92DF929F938F937F936F9308
:102D00000F931F93DF93CF93AF92BF92CF92DF9237
:102D1000A62EB72EC82ED92EE12CF12C03E010E000
:102D200020912001309121014091220150912301F5
:102D300060912401709125018091260190912701D5
:102D40000E941D036091360170913701882777FD3D
:102D50008095982F0E94742C162F072FD82EC92EDD
:102D60006091380170913901882777FD8095982FFF
:102D70000E94742CC62FD72FB82EA92E60913A012D
:102D800070913B01882777FD8095982F0E94742CC5
:102D9000CF92DF920F931F93AF92BF92DF93CF93A7
:102DA0009F938F937F936F93CF92DF920F931F9395
:102DB000AF92BF92DF93CF93A62EB72EC82ED92EF7
:102DC00003E010E0209118013091190140911A019F
:102DD00050911B0160911C0170911D0180911E0199
:102DE00090911F010E941D0360913601709137017F
:102DF000882777FD8095982F0E94742CD62EC72E99
:102E0000B82EA92E609138017091390171956195A4
:102E10007109882777FD8095982F0E94742CC62F02
:102E2000D72F182F092F20913A0130913B016627A7
:102E30007727621B730B882777FD8095982F0E9458
:102E4000742C2DB73EB7285D3F4F0FB6F8943EBFA8
:102E50000FBE2DBFAF92BF92CF92DF920F931F9301
:102E6000DF93CF939F938F937F936F93AF92BF9294
:102E7000CF92DF920F931F93DF93CF93A62EB72E9F
:102E8000C82ED92E03E010E02091100130911101DD
:102E9000409112015091130160911401709115013C
:102EA00080911601909117010E941D0360913601D7
:102EB00070913701882777FD8095982F0E94742C98
:102EC000D62EC72EB82EA92E209138013091390167
:102ED00066277727621B730B882777FD8095982FCD
:102EE0000E94742CC62FD72F182F092F60913A01FA
:102EF00070913B01882777FD8095982F0E94742C54
:102F0000AF92BF92CF92DF920F931F93DF93CF9335
:102F10009F938F937F936F93AF92BF92CF92DF92E5
:102F20000F931F93DF93CF93A62EB72EC82ED92EC3
:102F300003E010E0209108013091090140910A015D
:102F400050910B0160910C0170910D0180910E0167
:102F500090910F010E941D031092430110924201B3
:102F600081E090E090932B0180932A018DB79EB76A
:102F700088960FB6F8949EBF0FBE8DBFDF91CF919C
:102F80001F910F91FF90EF90DF90CF90BF90AF9087
:102F900008952F923F924F925F926F927F928F92FD
:102FA0009F92AF92BF92CF92DF92EF92FF920F93D8
:102FB0001F93CF93DF9300D000D0CDB7DEB79C0135
:102FC000992314F42F5F3F4FA901559547955C83D2
:102FD0004B839C0121503109309329012093280112
:102FE0009C01992314F42D5F3F4F35952795359516
:102FF00027952150310930938909209388098091C0
:10300000620590916305209164053091650580907B
:1030100066059090670560903C0170903D0123012A
:10302000420E531E680C791C10924101109240010F
:1030300040914501423009F4A5C340F4442311F402
:103040000C946126413059F00C947829433009F4EE
:103050002AC7443011F40C94E5220C94782992018B
:10306000552014F42F5F3F4F290155944794009148
:103070003801109139014C0199231CF45FEF851A36
:10308000950A9594879420903A0130903B01609185
:10309000360170913701882777FD8095982F0E941F
:1030A000742C69837A83E82EF92E662777276219B4
:1030B000730968197909882777FD8095982F0E94F0
:1030C000742C5B016C01FF92EF928A818F9399813E
:1030D0009F93C201800F911FBC01882777FD8095C7
:1030E000982F0E94742C9F938F937F936F93C401AA
:1030F00082199309BC01882777FD8095982F0E943B
:10310000742C9F938F937F936F93FF92EF92EA813A
:10311000EF93F981FF93B80164197509882777FD4A
:103120008095982F0E94742C9F938F937F936F9319
:10313000E12CF12C0B811C81209120013091210187
:103140004091220150912301609124017091250149
:1031500080912601909127010E94A20620903801BB
:103160003090390100913A0110913B016091360194
:1031700070913701882777FD8095982F0E94742CD5
:1031800069837A83E82EF92EB401601B710B8827BE
:1031900077FD8095982F0E94742C5B016C01FF9243
:1031A000EF922A812F9339813F93C10184199509A8
:1031B000BC01882777FD8095982F0E94742C9F93DF
:1031C0008F937F936F931195019511090819190930
:1031D000B801882777FD8095982F0E94742C9F93C3
:1031E0008F937F936F93FF92EF924A814F93598110
:1031F0005F93B201620D731D882777FD8095982F2C
:103200000E94742C9F938F937F936F93EB80FC802D
:10321000870120912001309121014091220150919C
:1032200023016091240170912501809126019091E4
:1032300027010E941D03C3010FB6F894DEBF0FBE25
:10324000CDBF99230CF401963C01759467942090AE
:1032500038013090390100913A0110913B016091A1
:10326000360170913701882777FD8095982F0E944D
:10327000742C69837A83E82EF92EB80168197909CC
:10328000882777FD8095982F0E94742C5B016C0134
:10329000FF92EF92FA81FF9329812F93C301821944
:1032A0009309BC01882777FD8095982F0E94742C84
:1032B0009F938F937F936F93080D191DB8018827F3
:1032C00077FD8095982F0E94742C9F938F937F9306
:1032D0006F93FF92EF923A813F9349814F93662714
:1032E00077276219730966197709882777FD809512
:1032F000982F0E94742C9F938F937F936F93E12C50
:10330000F12C0B811C812091080130910901409121
:103310000A0150910B0160910C0170910D01809197
:103320000E0190910F010E94A2062090380130906A
:10333000390100913A0110913B0160913601709181
:103340003701882777FD8095982F0E94742C698318
:103350007A83E82EF92EB401600F711F882777FD5C
:103360008095982F0E94742C5B016C01FF92EF9264
:103370005A815F9389818F938827992782199309AE
:1033800086199709BC01882777FD8095982F0E94A0
:10339000742C9F938F937F936F9308191909B80129
:1033A000882777FD8095982F0E94742C9F938F9388
:1033B0007F936F93FF92EF929A819F93E981EF93AE
:1033C000B30162197309882777FD8095982F0E94B1
:1033D000742C9F938F937F936F93EB80FC80870176
:1033E000209108013091090140910A0150910B018F
:1033F00060910C0170910D0180910E0190910F016F
:103400000E941D03209038013090390100913A014B
:1034100010913B016091360170913701882777FD4B
:103420008095982F0E94742C69837A83E82EF92E58
:103430000FB6F894DEBF0FBECDBFB401601B710B99
:10344000882777FD8095982F0E94742C5B016C0172
:10345000FF92EF923A813F9349814F9388279927B2
:103460008219930984199509BC01882777FD8095F5
:10347000982F0E94742C9F938F937F936F93119535
:103480000195110908191909B801882777FD809558
:10349000982F0E94742C9F938F937F936F93FF922A
:1034A000EF925A815F9389818F93B20162197309F8
:1034B000882777FD8095982F0E94742C9F938F9377
:1034C0007F936F93E12CF12C0B811C8120911001D3
:1034D000309111014091120150911301609114013A
:1034E0007091150180911601909117010E941D03A2
:1034F000209038013090390100913A0110913B0140
:103500006091360170913701882777FD8095982F5B
:103510000E94742C69837A83E82EF92E6627772718
:10352000601B710B68197909882777FD8095982FA2
:103530000E94742C5B016C01FF92EF929A819F9321
:10354000E981EF93C20182199309BC01882777FDB5
:103550008095982F0E94742C9F938F937F936F93E5
:10356000C401801B910BBC01882777FD8095982FA3
:103570000E94742C9F938F937F936F93FF92EF928F
:10358000FA81FF9329812F936627772762197309A0
:1035900064197509882777FD8095982F0E94742CEF
:1035A0009F938F937F936F93EB80FC808701209193
:1035B000100130911101409112015091130160915D
:1035C00014017091150180911601909117010E94CC
:1035D000A206409038015090390100913A011091B3
:1035E0003B016091360170913701882777FD809506
:1035F000982F0E94742C262E372EF82EE92E0FB607
:10360000F894DEBF0FBECDBFB401600F711F8827D5
:1036100077FD8095982F0E94742C5B016C01EF92CE
:10362000FF923F922F92920126193709B9018827FC
:1036300077FD8095982F0E94742C9F938F937F9392
:103640006F93B80168197909882777FD8095982FBD
:103650000E94742C9F938F937F936F93EF92FF92AE
:103660003F922F92B301640D751D882777FD8095D9
:10367000982F0E94742C9F938F937F936F93E12CCC
:10368000F12C0B811C81209118013091190140917E
:103690001A0150911B0160911C0170911D018091D4
:1036A0001E0190911F010E941D034090380150900F
:1036B000390100913A0110913B01609136017091FE
:1036C0003701882777FD8095982F0E94742C262E2D
:1036D000372EF82EE92EB80168197909882777FD69
:1036E0008095982F0E94742C5B016C01EF92FF92E1
:1036F0003F922F929301240D351DB901882777FD44
:103700008095982F0E94742C9F938F937F936F9333
:10371000B401600F711F882777FD8095982F0E9454
:10372000742C9F938F937F936F93EF92FF923F92AE
:103730002F92B20166197709882777FD8095982F17
:103740000E94742C9F938F937F936F93EB80FC80E8
:103750008701209118013091190140911A0150916F
:103760001B0160911C0170911D0180911E019091BF
:103770001F010E94A2060FB6F894DEBF0FBECDBF98
:103780000C94782920903801309039014C0199230C
:103790001CF4EFEF8E1A9E0A95948794C201992328
:1037A0000CF401962C015594479400913A01109124
:1037B0003B016091360170913701882777FD809534
:1037C000982F0E94742C69837A83E82EF92E66273D
:1037D0007727601B710B64197509882777FD809521
:1037E000982F0E94742C5B016C01FF92EF92FA817A
:1037F000FF9329812F93C10188199909BC0188275A
:1038000077FD8095982F0E94742C9F938F937F93C0
:103810006F93C201801B910BBC01882777FD8095B7
:10382000982F0E94742C9F938F937F936F93FF9296
:10383000EF923A813F9349814F93B101680D791D11
:10384000882777FD8095982F0E94742C9F938F93E3
:103850007F936F93E12CF12C0B811C81209120012F
:103860003091210140912201509123016091240166
:103870007091250180912601909127010E94A20656
:10388000209038013090390100913A0110913B01AC
:103890006091360170913701882777FD8095982FC8
:1038A0000E94742C69837A83E82EF92EB201601B82
:1038B000710B882777FD8095982F0E94742C5B01EF
:1038C0006C01FF92EF925A815F9389818F93C401BB
:1038D000820D931DBC01882777FD8095982F0E944B
:1038E000742C9F938F937F936F931195019511097A
:1038F00004191509B801882777FD8095982F0E9433
:10390000742C9F938F937F936F93FF92EF929A8182
:103910009F93E981EF93B10168197909882777FDB1
:103920008095982F0E94742C9F938F937F936F9311
:10393000EB80FC8087012091200130912101409192
:103940002201509123016091240170912501809101
:103950002601909127010E941D032090380130908C
:103960003901C3010FB6F894DEBF0FBECDBF992356
:103970000CF401963C017594679400913A01109102
:103980003B016091360170913701882777FD809562
:10399000982F0E94742C69837A83E82EF92EB8013F
:1039A00066197709882777FD8095982F0E94742CD7
:1039B0005B016C01FF92EF923A813F9349814F93F3
:1039C000882799278219930988199909BC018827A2
:1039D00077FD8095982F0E94742C9F938F937F93EF
:1039E0006F93060D171DB801882777FD8095982FD6
:1039F0000E94742C9F938F937F936F93FF92EF920B
:103A00005A815F9389818F93B40162197309882762
:103A100077FD8095982F0E94742C9F938F937F93AE
:103A20006F93E12CF12C0B811C81209108013091C6
:103A3000090140910A0150910B0160910C017091B4
:103A40000D0180910E0190910F010E94A20620901D
:103A500038013090390100913A0110913B01609199
:103A6000360170913701882777FD8095982F0E9445
:103A7000742C69837A83E82EF92EB301600F711FCD
:103A8000882777FD8095982F0E94742C5B016C012C
:103A9000FF92EF929A819F93E981EF93C40182197B
:103AA0009309BC01882777FD8095982F0E94742C7C
:103AB0009F938F937F936F9306191709B8018827F7
:103AC00077FD8095982F0E94742C9F938F937F93FE
:103AD0006F93FF92EF92FA81FF9329812F936627CC
:103AE00077276219730968197909882777FD809506
:103AF000982F0E94742C9F938F937F936F93EB80EA
:103B0000FC808701209108013091090140910A0150
:103B100050910B0160910C0170910D0180910E018B
:103B200090910F010E941D032090380130903901BF
:103B300000913A0110913B0160913601709137017B
:103B4000882777FD8095982F0E94742C69837A834B
:103B5000E82EF92E0FB6F894DEBF0FBECDBFB3012D
:103B6000601B710B882777FD8095982F0E94742C1D
:103B70005B016C01FF92EF925A815F9389818F9371
:103B8000C40182199309BC01882777FD8095982F7D
:103B90000E94742C9F938F937F936F93119501953F
:103BA000110906191709B801882777FD8095982F04
:103BB0000E94742C9F938F937F936F93FF92EF9249
:103BC0009A819F93E981EF9366277727621973099A
:103BD00068197909882777FD8095982F0E94742CA1
:103BE0009F938F937F936F93E12CF12C0B811C811A
:103BF0002091100130911101409112015091130157
:103C00006091140170911501809116019091170136
:103C10000E941D03209038013090390100913A0133
:103C200010913B016091360170913701882777FD33
:103C30008095982F0E94742C69837A83E82EF92E40
:103C400066277727601B710B66197709882777FD30
:103C50008095982F0E94742C5B016C01FF92EF926B
:103C6000FA81FF9329812F93882799278219930935
:103C700088199909BC01882777FD8095982F0E94A3
:103C8000742C9F938F937F936F93B301601B710B81
:103C9000882777FD8095982F0E94742C9F938F938F
:103CA0007F936F93FF92EF923A813F9349814F93B5
:103CB000B40162197309882777FD8095982F0E94B7
:103CC000742C9F938F937F936F93EB80FC8087017D
:103CD0002091100130911101409112015091130176
:103CE0006091140170911501809116019091170156
:103CF0000E94A206609038017090390100913A014B
:103D000010913B016091360170913701882777FD52
:103D10008095982F0E94742C262E372EF82EE92E8F
:103D20000FB6F894DEBF0FBECDBFB201600F711F9A
:103D3000882777FD8095982F0E94742C5B016C0179
:103D4000EF92FF923F922F929401260D371DB901F9
:103D5000882777FD8095982F0E94742C9F938F93CE
:103D60007F936F93B80164197509882777FD809553
:103D7000982F0E94742C9F938F937F936F93EF9251
:103D8000FF923F922F92B30168197909882777FD36
:103D90008095982F0E94742C9F938F937F936F939D
:103DA000E12CF12C0B811C8120911801309119011B
:103DB00040911A0150911B0160911C0170911D01ED
:103DC00080911E0190911F010E941D036090380197
:103DD0007090390100913A0110913B0160913601D8
:103DE00070913701882777FD8095982F0E94742C59
:103DF000262E372EF82EE92EB8016419750988276A
:103E000077FD8095982F0E94742C5B016C01EF92D6
:103E1000FF923F922F92930128193909B9018827FF
:103E200077FD8095982F0E94742C9F938F937F939A
:103E30006F93B201600F711F882777FD8095982FCF
:103E40000E94742C9F938F937F936F93EF92FF92B6
:103E50003F922F92B401660D771D882777FD8095DC
:103E6000982F0E94742C9F938F937F936F93EB8076
:103E7000FC808701209118013091190140911A01AD
:103E800050911B0160911C0170911D0180911E01D8
:103E900090911F010E94A2060FB6F894DEBF0FBEDC
:103EA000CDBF0C94782920903801309039019301CE
:103EB000772014F42F5F3F4F390175946794009178
:103EC0003A0110913B014C0199231CF4FFEF8F1A2A
:103ED0009F0A9594879460913601709137018827E5
:103EE00077FD8095982F0E94742C69837A83E82E41
:103EF000F92EB401601B710B882777FD8095982FF0
:103F00000E94742C5B016C01FF92EF922A812F9327
:103F100039813F93C10186199709BC01882777FD34
:103F20008095982F0E94742C9F938F937F936F930B
:103F300011950195110908191909B801882777FD0C
:103F40008095982F0E94742C9F938F937F936F93EB
:103F5000FF92EF924A814F9359815F93B101660DB1
:103F6000771D882777FD8095982F0E94742C9F934A
:103F70008F937F936F93E12CF12C0B811C81209107
:103F80002001309121014091220150912301609143
:103F900024017091250180912601909127010E94B2
:103FA000A206209038013090390100913A01109119
:103FB0003B016091360170913701882777FD80952C
:103FC000982F0E94742C69837A83E82EF92E662735
:103FD0007727601B710B68197909882777FD809511
:103FE000982F0E94742C5B016C01FF92EF928A81E2
:103FF0008F9399819F93C301820D931DBC018827E4
:1040000077FD8095982F0E94742C9F938F937F93B8
:104010006F93C401801B910BBC01882777FD8095AD
:10402000982F0E94742C9F938F937F936F93FF928E
:10403000EF92EA81EF93F981FF93B1016619770955
:10404000882777FD8095982F0E94742C9F938F93DB
:104050007F936F93EB80FC8087012091200130914A
:10406000210140912201509123016091240170911E
:10407000250180912601909127010E941D03209027
:10408000380130903901C2010FB6F894DEBF0FBE7F
:10409000CDBF99230CF401962C01559447940091BF
:1040A0003A0110913B0160913601709137018827E8
:1040B00077FD8095982F0E94742C69837A83E82E6F
:1040C000F92EB401600F711F882777FD8095982F16
:1040D0000E94742C5B016C01FF92EF923A813F9336
:1040E00049814F9388279927821993098419950943
:1040F000BC01882777FD8095982F0E94742C9F9390
:104100008F937F936F9308191909B801882777FD5A
:104110008095982F0E94742C9F938F937F936F9319
:10412000FF92EF925A815F9389818F93B201621956
:104130007309882777FD8095982F0E94742C9F9390
:104140008F937F936F93E12CF12C0B811C81209135
:1041500008013091090140910A0150910B016091D1
:104160000C0170910D0180910E0190910F010E9440
:10417000A206209038013090390100913A01109147
:104180003B016091360170913701882777FD80955A
:10419000982F0E94742C69837A83E82EF92EB80137
:1041A00068197909882777FD8095982F0E94742CCB
:1041B0005B016C01FF92EF929A819F93E981EF93EB
:1041C000C20182199309BC01882777FD8095982F39
:1041D0000E94742C9F938F937F936F93080D191DEA
:1041E000B801882777FD8095982F0E94742C9F93A3
:1041F0008F937F936F93FF92EF92FA81FF932981C0
:104200002F93662777276219730964197509882720
:1042100077FD8095982F0E94742C9F938F937F93A6
:104220006F93EB80FC808701209108013091090198
:1042300040910A0150910B0160910C0170910D01A8
:1042400080910E0190910F010E941D032090380172
:104250003090390100913A0110913B016091360193
:1042600070913701882777FD8095982F0E94742CD4
:1042700069837A83E82EF92E0FB6F894DEBF0FBE5D
:10428000CDBF66277727601B710B681979098827CE
:1042900077FD8095982F0E94742C5B016C01FF9232
:1042A000EF925A815F9389818F93C3018219930999
:1042B000BC01882777FD8095982F0E94742C9F93CE
:1042C0008F937F936F93C401801B910BBC01882750
:1042D00077FD8095982F0E94742C9F938F937F93E6
:1042E0006F93FF92EF929A819F93E981EF936627F4
:1042F00077276219730966197709882777FD8095F2
:10430000982F0E94742C9F938F937F936F93E12C2F
:10431000F12C0B811C8120911001309111014091F1
:104320001201509113016091140170911501809157
:104330001601909117010E941D03209038013090C2
:10434000390100913A0110913B0160913601709161
:104350003701882777FD8095982F0E94742C6983F8
:104360007A83E82EF92EB401601B710B882777FD44
:104370008095982F0E94742C5B016C01FF92EF9244
:10438000FA81FF9329812F9388279927821993090E
:1043900086199709BC01882777FD8095982F0E9480
:1043A000742C9F938F937F936F93119501951109AF
:1043B00008191909B801882777FD8095982F0E9460
:1043C000742C9F938F937F936F93FF92EF923A8118
:1043D0003F9349814F93B30162197309882777FD91
:1043E0008095982F0E94742C9F938F937F936F9347
:1043F000EB80FC80870120911001309111014091E8
:104400001201509113016091140170911501809176
:104410001601909117010E94A206609038017090D9
:10442000390100913A0110913B0160913601709180
:104430003701882777FD8095982F0E94742C262EAF
:10444000372EF82EE92E0FB6F894DEBF0FBECDBF83
:10445000B80168197909882777FD8095982F0E94FF
:10446000742C5B016C01EF92FF923F922F929201AC
:10447000260D371DB901882777FD8095982F0E945A
:10448000742C9F938F937F936F93B401600F711F70
:10449000882777FD8095982F0E94742C9F938F9387
:1044A0007F936F93EF92FF923F922F92B301641923
:1044B0007509882777FD8095982F0E94742C9F930B
:1044C0008F937F936F93E12CF12C0B811C812091B2
:1044D00018013091190140911A0150911B0160910E
:1044E0001C0170911D0180911E0190911F010E947D
:1044F0001D03609038017090390100913A011091CC
:104500003B016091360170913701882777FD8095D6
:10451000982F0E94742C262E372EF82EE92EB401E7
:10452000600F711F882777FD8095982F0E94742C4B
:104530005B016C01EF92FF923F922F92930124193D
:104540003509B901882777FD8095982F0E94742C32
:104550009F938F937F936F93B80168197909882788
:1045600077FD8095982F0E94742C9F938F937F9353
:104570006F93EF92FF923F922F92B201660D771DDB
:10458000882777FD8095982F0E94742C9F938F9396
:104590007F936F93EB80FC8087012091180130910D
:1045A000190140911A0150911B0160911C017091F9
:1045B0001D0180911E0190911F010E94A2060FB65D
:1045C000F894DEBF0FBECDBF93C64C0199231CF4F7
:1045D000FFEF8F1A9F0A95948794E0903801F0902E
:1045E000390100913A0110913B01130177201CF42D
:1045F0002FEF221A320A3594279460913601709178
:104600003701882777FD8095982F0E94742C698345
:104610007A83682E792EB101601B710B882777FD94
:104620008095982F0E94742C5B016C017F926F9291
:104630003A813F9349814F93C4018E0D9F1DBC0168
:10464000882777FD8095982F0E94742C9F938F93D5
:104650007F936F9311950195110902191309B80100
:10466000882777FD8095982F0E94742C9F938F93B5
:104670007F936F937F926F925A815F9389818F931B
:10468000B70168197909882777FD8095982F0E94CE
:10469000742C9F938F937F936F93E12CF12C0B815C
:1046A0001C812091200130912101409122015091E3
:1046B0002301609124017091250180912601909140
:1046C00027010E94A206E0903801F0903901009184
:1046D0003A0110913B0160913601709137018827B2
:1046E00077FD8095982F0E94742C69837A83682EB9
:1046F000792E66277727601B710B6219730988274B
:1047000077FD8095982F0E94742C5B016C017F923D
:104710006F929A819F93E981EF93C7018819990954
:10472000BC01882777FD8095982F0E94742C9F9359
:104730008F937F936F93C101801B910BBC018827DE
:1047400077FD8095982F0E94742C9F938F937F9371
:104750006F937F926F92FA81FF9329812F93B40117
:104760006E0D7F1D882777FD8095982F0E94742CF1
:104770009F938F937F936F93EB80FC8087012091B1
:10478000200130912101409122015091230160913B
:1047900024017091250180912601909127010E94AA
:1047A0001D03E0903801F090390100913A01109119
:1047B0003B0132010FB6F894DEBF0FBECDBF5520CE
:1047C0001CF45FEF651A750A759467946091360161
:1047D00070913701882777FD8095982F0E94742C5F
:1047E00069837A83482E592EB801660D771D882774
:1047F00077FD8095982F0E94742C5B016C015F926D
:104800004F928A818F9399819F93C4018E199F093A
:10481000BC01882777FD8095982F0E94742C9F9368
:104820008F937F936F9306191709B801882777FD37
:104830008095982F0E94742C9F938F937F936F93F2
:104840005F924F92EA81EF93F981FF936627772772
:104850006E197F0968197909882777FD8095982F47
:104860000E94742C9F938F937F936F93E12CF12C74
:104870000B811C81209108013091090140910A01AE
:1048800050910B0160910C0170910D0180910E010E
:1048900090910F010E94A206E0903801F09039013A
:1048A00000913A0110913B016091360170913701FE
:1048B000882777FD8095982F0E94742C69837A83CE
:1048C000482E592EB80166197709882777FD8095FB
:1048D000982F0E94742C5B016C015F924F922A8189
:1048E0002F9339813F93882799278E199F0988191B
:1048F0009909BC01882777FD8095982FF5D79F935C
:104900008F937F936F93060D171DB801882777FD4E
:104910008095982FE9D79F938F937F936F935F92A2
:104920004F924A814F9359815F93B4016E197F0969
:10493000882777FD8095982FD7D79F938F937F9364
:104940006F93EB80FC808701209108013091090171
:1049500040910A0150910B0160910C0170910D0181
:1049600080910E0190910F010E941D03E09038018B
:10497000F090390100913A0110913B0160913601AC
:1049800070913701882777FD8095982FADD769837F
:104990007A83482E592E0FB6F894DEBF0FBECDBFD6
:1049A00066277727601B710B66197709882777FDC3
:1049B0008095982F99D75B016C015F924F929A81F5
:1049C0009F93E981EF93882799278E199F0988196A
:1049D0009909BC01882777FD8095982F85D79F93EB
:1049E0008F937F936F93C301801B910BBC0188272A
:1049F00077FD8095982F78D79F938F937F936F93B0
:104A00005F924F92FA81FF9329812F93B4016E191F
:104A10007F09882777FD8095982F66D79F938F937E
:104A20007F936F93E12CF12C0B811C81209110015D
:104A300030911101409112015091130160911401C4
:104A40007091150180911601909117010E941D032C
:104A5000E0903801F090390100913A0110913B014A
:104A60006091360170913701882777FD8095982FE6
:104A70003BD769837A83482E592EB301601B710B93
:104A8000882777FD8095982F2FD75B016C015F9267
:104A90004F923A813F9349814F93C4018E199F09E8
:104AA000BC01882777FD8095982F1ED79F938F9301
:104AB0007F936F93119501951109B80166197709D4
:104AC000882777FD8095982F0FD79F938F937F939B
:104AD0006F935F924F925A815F9389818F9366277C
:104AE00077276E197F0968197909882777FD8095DE
:104AF000982FFAD69F938F937F936F93EB80FC80D0
:104B000087012091100130911101409112015091C3
:104B1000130160911401709115018091160190911B
:104B200017010E94A206E0903801F090390100912F
:104B30003A0110913B01609136017091370188274D
:104B400077FD8095982FD0D6462E572E782E692E39
:104B50000FB6F894DEBF0FBECDBFB801621973095E
:104B6000882777FD8095982FBFD65B016C016F92E7
:104B70007F925F924F92970128193909B9018827CE
:104B800077FD8095982FB0D69F938F937F936F93E7
:104B9000B101600F711F882777FD8095982FA4D6EB
:104BA0009F938F937F936F936F927F925F924F92B9
:104BB000B4016E0D7F1D882777FD8095982F94D6C0
:104BC0009F938F937F936F93E12CF12C0B811C812A
:104BD000209118013091190140911A0150911B0147
:104BE00060911C0170911D0180911E0190911F0127
:104BF0000E941D03E0903801F090390100913A01C4
:104C000010913B016091360170913701882777FD43
:104C10008095982F69D6462E572E782E692EB10191
:104C2000600F711F882777FD8095982F5DD65B01F7
:104C30006C016F927F925F924F9294012E0D3F1DF7
:104C4000B901882777FD8095982F4ED69F938F9333
:104C50007F936F93B80162197309882777FD809558
:104C6000982F42D69F938F937F936F936F927F92EB
:104C70005F924F92B70168197909882777FD80956F
:104C8000982F32D69F938F937F936F93EB80FC8006
:104C90008701209118013091190140911A0150911A
:104CA0001B0160911C0170911D0180911E0190916A
:104CB0001F010E94A2060FB6F894DEBF0FBECDBF43
:104CC00017C3390133231CF44FEF641A740A759427
:104CD000679400913801109139016091360170910B
:104CE0003701882777FD8095982FFED5B62EA72E01
:104CF000582E492E60913A0170913B017195619552
:104D00007109882777FD8095982FEED5C62ED72E6E
:104D1000E82EF92E4F925F92AF92BF92B301600FCF
:104D2000711F882777FD8095982FDED59F938F93ED
:104D30007F936F93FF92EF92DF92CF924F925F92A9
:104D4000AF92BF92B80166197709882777FD8095E1
:104D5000982FCAD59F938F937F936F93AC2CBD2CC4
:104D6000CE2CDF2CE12CF12C0B811C812091200119
:104D70003091210140912201509123016091240141
:104D80007091250180912601909127010E94A20631
:104D9000009138011091390160913601709137010D
:104DA000882777FD8095982F9FD5B62EA72E582E51
:104DB000492E60913A0170913B017195619571099D
:104DC000882777FD8095982F8FD5C62ED72EE82E71
:104DD000F92E4F925F92AF92BF92B8016619770990
:104DE000882777FD8095982F7FD59F938F937F930A
:104DF0006F93FF92EF92DF92CF924F925F92AF92BA
:104E0000BF92B301600F711F882777FD8095982F9F
:104E10006BD59F938F937F936F93AC2CBD2CCE2C2F
:104E2000DF2CEB80FC808701209120013091210153
:104E3000409122015091230160912401709125013C
:104E400080912601909127010E941D03C4010FB695
:104E5000F894DEBF0FBECDBF99230CF401964C0130
:104E60009594879400913801109139016091360131
:104E700070913701882777FD8095982F35D5B62E0C
:104E8000A72E582E492E60913A0170913B01882738
:104E900077FD8095982F28D5C62ED72EE82EF92E8F
:104EA0004F925F92AF92BF92B401601B710B882743
:104EB00077FD8095982F18D59F938F937F936F934D
:104EC000FF92EF92DF92CF924F925F92AF92BF929A
:104ED00066277727601B710B68197909882777FD8A
:104EE0008095982F01D59F938F937F936F93AC2CD0
:104EF000BD2CCE2CDF2CE12CF12C0B811C812091C0
:104F000008013091090140910A0150910B01609113
:104F10000C0170910D0180910E0190910F010E9482
:104F2000A20600913801109139016091360170910B
:104F30003701882777FD8095982FD6D4B62EA72ED7
:104F4000582E492E60913A0170913B01882777FDD8
:104F50008095982FC9D4C62ED72EE82EF92E4F92C1
:104F60005F92AF92BF9266277727601B710B68191B
:104F70007909882777FD8095982FB6D49F938F93D2
:104F80007F936F93FF92EF92DF92CF924F925F9257
:104F9000AF92BF92B401601B710B882777FD80959B
:104FA000982FA2D49F938F937F936F93AC2CBD2C9B
:104FB000CE2CDF2CEB80FC80870120910801309102
:104FC000090140910A0150910B0160910C0170910F
:104FD0000D0180910E0190910F010E941D0300911F
:104FE000380110913901609136017091370188279D
:104FF00077FD8095982F78D4B62EA72E582E492E5F
:1050000060913A0170913B01719561957109882712
:1050100077FD8095982F68D4C62ED72EE82EF92ECE
:105020000FB6F894DEBF0FBECDBF4F925F92AF9226
:10503000BF9266277727601B710B6619770988274F
:1050400077FD8095982F50D49F938F937F936F9384
:10505000FF92EF92DF92CF924F925F92AF92BF9208
:10506000B301601B710B882777FD8095982F3CD486
:105070009F938F937F936F93AC2CBD2CCE2CDF2C02
:10508000E12CF12C0B811C81209110013091110138
:10509000409112015091130160911401709115011A
:1050A00080911601909117010E941D030091380113
:1050B000109139016091360170913701882777FD91
:1050C0008095982F11D4B62EA72E582E492E609178
:1050D0003A0170913B01719561957109882777FDBF
:1050E0008095982F01D4C62ED72EE82EF92E4F92F8
:1050F0005F92AF92BF92B301601B710B882777FD5F
:105100008095982FF1D39F938F937F936F93FF9206
:10511000EF92DF92CF924F925F92AF92BF9266274B
:105120007727601B710B66197709882777FD8095B3
:10513000982FDAD39F938F937F936F93AC2CBD2CD2
:10514000CE2CDF2CEB80FC80870120911001309168
:10515000110140911201509113016091140170915D
:10516000150180911601909117010E94A2060091ED
:10517000380110913901609136017091370188270B
:1051800077FD8095982FB0D3B62EA72E782E692E56
:1051900060913A0170913B01882777FD8095982FA7
:1051A000A3D3C62ED72EE82EF92E0FB6F894DEBF65
:1051B0000FBECDBF6F927F92AF92BF92B8016819B8
:1051C0007909882777FD8095982F8ED39F938F93A9
:1051D0007F936F93FF92EF92DF92CF926F927F92C5
:1051E000AF92BF92B401600F711F882777FD809541
:1051F000982F7AD39F938F937F936F93AC2CBD2C72
:10520000CE2CDF2CE12CF12C0B811C81209118017C
:105210003091190140911A0150911B0160911C01BC
:1052200070911D0180911E0190911F010E941D032C
:105230000091380110913901609136017091370168
:10524000882777FD8095982F4FD3B62EA72E782EDE
:10525000692E60913A0170913B01882777FD809516
:10526000982F42D3C62ED72EE82EF92E6F927F921A
:10527000AF92BF92B401600F711F882777FD8095B0
:10528000982F32D39F938F937F936F93FF92EF92D8
:10529000DF92CF926F927F92AF92BF92B80168195E
:1052A0007909882777FD8095982F1ED39F938F9338
:1052B0007F936F93AC2CBD2CCE2CDF2CEB80FC802D
:1052C0008701209118013091190140911A015091E4
:1052D0001B0160911C0170911D0180911E01909134
:1052E0001F010E94A2060FB6F894DEBF0FBECDBF0D
:1052F0000F900F900F900F90DF91CF911F910F9112
:10530000FF90EF90DF90CF90BF90AF909F908F90E5
:105310007F906F905F904F903F902F9008952091D5
:1053200042013091430180918809909189092817A1
:10533000390781F480914401882319F0813021F0EC
:1053400009C00E94361606C0809132019091330147
:105350000E94C91780914601811116C180914001B8
:1053600090914101892B09F40FC1809147019091DF
:1053700048018130910539F08230910529F1892B5E
:1053800009F05CC043C080914501811109C0809142
:105390004401811105C00E94141481E080934401EE
:1053A000809130019091310190936505809364055F
:1053B0009195819591099093670580936605109268
:1053C0004101109240013AC080914501811109C00C
:1053D00080914401811105C00E94141481E08093E2
:1053E0004401809130019091310122273327281BFD
:1053F000390B30936505209364059093670580937E
:105400006605109241011092400118C0809145013B
:10541000811108C080914401813021F40E94530F12
:105420001092440110926505109264051092670570
:10543000109266051092410110924001809149013D
:1054400090914A018B30910508F09EC0FC01EA5B07
:10545000FF4FF6C381E08093440180934501109291
:105460006305109262051092410110924001089567
:1054700081E0809344018093450180913C019091AB
:105480003D01909363058093620510924101109253
:105490004001089581E08093440182E080934501BA
:1054A0001092630510926205109241011092400122
:1054B000089581E08093440182E0809345018091CA
:1054C0003C0190913D019093630580936205109299
:1054D000410110924001089581E08093440183E0EE
:1054E000809345011092630510926205109241016C
:1054F00010924001089581E08093440183E08093FD
:10550000450180913C0190913D019093630580930A
:1055100062051092410110924001089581E080934C
:10552000440184E080934501109263051092620566
:105530001092410110924001089581E0809344014E
:1055400084E08093450180913C0190913D019093CE
:105550006305809362051092410110924001089505
:105560008091470190914801892B21F40E94530FAB
:105570001092440110924501109263051092620549
:10558000109241011092400108950E9410020E9461
:10559000B9018FE0809369008DB383608DBB109259
:1055A00043011092420181E090E090932B0180939F
:1055B0002A010E949C000E94A80078940E9436163E
:1055C0001092450160912E0170912F0180E090E0D2
:1055D0000E94B70060912C0170912D0182E090E053
:1055E0000E94B7000E945901892B21F00E946B0E86
:1055F0000E948E010E947301892B21F00E94F80EF7
:105600000E9492018CDEEECF9F939F77A8D10F90DE
:1056100000203AF49058A2EA2AED3FE049E450E431
:1056200013D0F4C15058BB27AA270ED0EFC1E0D148
:1056300030F0E5D120F031F49F3F11F41EF4B0C1F9
:105640000EF4E095E7FBA6C1E92FF1D180F3BA177C
:10565000620773078407950718F071F49EF509C275
:105660000EF4E0950B2EBA2FA02D0B01B90190017D
:105670000C01CA01A0011124FF27591B99F0593FC1
:1056800050F4503E68F11A16F040A22F232F342F09
:105690004427585FF3CF469537952795A795F04057
:1056A0005395C9F77EF41F16BA0B620B730B840B6C
:1056B000BAF09150A1F0FF0FBB1F661F771F881F24
:1056C000C2F70EC0BA0F621F731F841F48F487957C
:1056D00077956795B795F7959E3F08F0B3CF93956B
:1056E000880F08F09927EE0F97958795089580D138
:1056F00058F080E891E009F49EEF81D128F040E86D
:1057000051E059F45EEF09C04BC1B3C1E92FE07815
:105710008ED168F3092E052AC1F3261737074807EB
:10572000590738F00E2E07F8E02569F0E025E0640F
:105730000AC0EF6307F8009407FADB01B9019D0185
:10574000DC01CA01AD01EF9343D060D10AD05F9173
:10575000552331F02BED3FE049E450FD49EC63CF98
:105760000895DF93DD27B92FBF7740E85FE3161672
:10577000170648075B0710F4D92F82D19F938F93A8
:105780007F936F9329D2E2EAF0E00DD13FD12F91C0
:105790003F914F915F9187D1DD2349F09058A2EA64
:1057A0002AED3FE049EC5FE3D0785D274DDFDF91E4
:1057B0002DC10CD02BC123D140F01AD130F021F4EF
:1057C0005F3F19F0E7C0511155C1EAC030D198F3DD
:1057D0009923C9F35523B1F3951B550BBB27AA2772
:1057E00062177307840738F09F5F5F4F220F331FE4
:1057F000441FAA1FA9F333D00E2E3AF0E0E830D0B0
:1058000091505040E695001CCAF729D0FE2F27D0B2
:10581000660F771F881FBB1F261737074807AB0780
:10582000B0E809F0BB0B802DBF01FF2793585F4FF5
:105830002AF09E3F510568F0ADC01CC15F3FECF3FC
:10584000983EDCF3869577956795B795F7959F5FBA
:10585000C9F7880F911D9695879597F90895E1E00E
:10586000660F771F881FBB1F621773078407BA076D
:1058700020F0621B730B840BBA0BEE1F88F7E095C8
:10588000089504D06894B111F5C00895D8D088F077
:105890009F5790F0B92F9927B751A0F0D1F0660F1C
:1058A000771F881F991F1AF0BA95C9F712C0B13037
:1058B00081F0DFD0B1E00895DCC0672F782F882712
:1058C000B85F39F0B93FCCF3869577956795B39576
:1058D000D9F73EF490958095709561957F4F8F4FE5
:1058E0009F4F0895E89409C097FB3EF490958095EA
:1058F000709561957F4F8F4F9F4F9923A9F0F92F96
:1059000096E9BB279395F695879577956795B79513
:10591000F111F8CFFAF4BB0F11F460FF1BC06F5FF9
:105920007F4F8F4F9F4F16C0882311F096E911C00B
:10593000772321F09EE8872F762F05C0662371F02C
:1059400096E8862F70E060E02AF09A95660F771F40
:10595000881FDAF7880F9695879597F90895DF9352
:10596000CF931F930F938B01EC01EFECF0E01BD072
:105970004DD09801AE018B01EC0160E070E080E851
:105980009FE350DEEBD09801AE010F911F91CF91B4
:10599000DF9189C097F99F6780E870E060E0089523
:1059A0009FEF80EC0895DF93CF931F930F93FF92A7
:1059B000EF92DF927B018C01689405C0DA2EEF0133
:1059C00072D0FE01E894A5912591359145915591AC
:1059D000AEF3EF0139DEFE019701A801DA9479F701
:1059E000DF90EF90FF900F911F91CF91DF9108957D
:1059F00000240A94161617061806090608950024AE
:105A00000A9412161306140605060895092E039427
:105A1000000C11F4882352F0BB0F40F4BF2B11F49B
:105A200060FF04C06F5F7F4F8F4F9F4F089557FDFA
:105A30009058440F551F59F05F3F71F04795880FFC
:105A400097FB991F61F09F3F79F087950895121693
:105A500013061406551FF2CF4695F1DF08C016163F
:105A600017061806991FF1CF8695710561050894F0
:105A70000895E894BB2766277727CB0197F9089507
:105A80009B01AC0160E070E080E89FE392CE0BD018
:105A9000BDCFAEDF28F0B3DF18F0952309F07ACF41
:105AA0007FCF1124E7CFC3DFA0F3959FD1F3950FEC
:105AB00050E0551F629FF001729FBB27F00DB11D92
:105AC000639FAA27F00DB11DAA1F649F6627B00D22
:105AD000A11D661F829F2227B00DA11D621F739F0B
