:1000000089C000000C947D1B0C94E11BA2C0000071
:10001000A0C000009EC000009CC000009AC000006C
:1000200098C0000096C0000094C000000C9419080D
:1000300090C000008EC000008CC000008AC000008C
:1000400088C0000086C00000E3C7000082C0000036
:1000500080C000007EC000007CC000007AC00000AC
:1000600078C0000076C0000074C0000072C00000BC
:1000700070C000006EC000006CC000006AC00000CC
:1000800068C0000066C0000064C000005B4DC74C43
:100090000F4DA64DEB4CD74CFB4CA64D354D464D68
:1000A000204DCC4DC44DDC4DD44DEC4DE44DFC4DBC
:1000B000F44D0C4E044E1C4E144E2C4E244E084A49
:1000C000D73B3BCE016E84BCBFFDC12F3D6C74316C
:1000D0009ABD56833DDA3D00C77F11BED9E4BB4CC3
:1000E0003E916BAAAABE000000803F072C7AA5BAF9
:1000F0006CC590DA3B9365FC8BBC53F810FD3C5605
:1001000092834DBD879D3AB63DCBC9BF5BBE73DAC6
:100110000FC93F0011241FBECFEFD0E4DEBFCDBF1B
:1001200011E0A0E0B1E0EEE4F6EA00E00BBF02C0AF
:1001300007900D92A236B107D9F724E1A2E6B1E00B
:1001400001C01D92A436B207E1F70E94D34E0C9471
:10015000255356CFFC0122853385220F331F220FF2
:10016000331F220F331F84859585880F991F880FB1
:10017000991F822B932B20893189822B932B2685E3
:100180003785220F331F822B932B20853185A901C0
:100190004370552742955295507F5427407F5427EE
:1001A000842B952B24703327322F2227822B932BDD
:1001B000428153814F715527542F4427550F842B6B
:1001C000952B089580919F01811109C080912A0C7F
:1001D00090912B0C90936901809368011EC081302F
:1001E00049F480912C0C90912D0C9093690180938F
:1001F000680113C0823049F480912E0C90912F0C2D
:10020000909369018093680108C08091300C9091AF
:10021000310C909369018093680180912A0C909130
:100220002B0C813E91403CF081E090E090930101E5
:100230008093000104C0109201011092000180918E
:100240002C0C90912D0C813E91403CF081E090E08F
:10025000909379018093780104C0109279011092F3
:10026000780180912E0C90912F0C813E91403CF0B2
:1002700081E090E0909377018093760104C0109222
:100280007701109276018091300C9091310C813E73
:1002900091403CF081E090E090937501809374016F
:1002A0000895109275011092740108958091280CA0
:1002B0009091290C019779F48091720190917301CA
:1002C0008230910579F001969093730180937201C9
:1002D00080E090E00895109273011092720180E026
:1002E00090E0089581E090E00895E0DF0197B9F58E
:1002F00080917A0190917B0126E1289FF001299F4E
:10030000F00D1124E854FE4F22893389232B39F54F
:1003100026E1289FF001299FF00D1124E854FE4F9B
:10032000208131812250310922303105C0F02091E5
:100330006E0130916F012F5F3F4F30936F0120931B
:100340006E0146E1489FF001499FF00D1124E854E9
:10035000FE4F81E090E0938B828B358B248B089548
:1003600080916C0190916D01892B09F46CC02091F2
:100370007A0130917B0186E1829FF001839FF00D2D
:100380001124E854FE4F8081918182309105F1F46F
:1003900020910001309101018091780190917901C3
:1003A000280F391F8091760190917701280F391F0E
:1003B0008091740190917501280F391F81E090E0C0
:1003C0002330310509F44DC080E008950397F1F51D
:1003D00086E1829FF001839FF00D1124E854FE4FC7
:1003E000848195810297A9F5409100015091010106
:1003F0008091780190917901840F951F4091760149
:1004000050917701840F951F4091740150917501AF
:10041000840F951F039701F186E1829FF001839F6E
:10042000F00D1124E854FE4F828193810197B9F4B5
:1004300081E090E02091A0013091A10125303105AB
:1004400081F080E0089581E090E0089581E090E0FF
:10045000089581E090E0089581E090E0089580E0C3
:1004600090E008952091AA013091AB0180910001A4
:10047000909101012817390741F52091AC01309185
:10048000AD01809178019091790128173907E9F43D
:100490002091AE013091AF0180917601909177016A
:1004A0002817390791F42091B0013091B101809162
:1004B0007401909175012817390739F41092710170
:1004C0001092700180E090E0089580917001909109
:1004D00071018130910541F00196909371018093F3
:1004E000700180E090E0089581E090E008958091AF
:1004F0007A0190917B0126E1289FF001299FF00D60
:100500001124E854FE4F808191818D7F019749F538
:1005100020919F01211108C080912E0C90912F0CE9
:1005200088309240ACF438C0213041F48091300CD6
:100530009091310C88309240A4F431C0223041F4C3
:1005400080912A0C90912B0C8830924054F42AC050
:10055000233039F480912C0C90912D0C88309240EE
:1005600024F180DF8130910539F4209168013091C8
:100570006901213E3140F4F475DF0197C9F431E09F
:1005800020E080916801909169018C3291400CF0DB
:1005900030E0832F922F089580E090E0089580E06E
:1005A00090E0089580E090E0089580E090E0089564
:1005B00080E090E008954091000150910101209168
:1005C0007601309177018091780190917901840FC3
:1005D000951F820F931F6091740170917501860FB2
:1005E000971F8330910509F443C08230910549F487
:1005F00071E060E04217530709F470E0872F962FEF
:100600000895019769F540917A0150917B01141684
:100610001506BCF486E1849FF001859FF00D11243E
:10062000E654FE4FCA01208131812130310529F481
:100630002281338122303105B1F0019776970097FE
:1006400091F786E1849FF001859FF00D1124E85415
:10065000FE4F80819181029749F485E090E00895F2
:1006600084E090E0089585E090E0089582E090E0D5
:100670000895BF92CF92DF92EF92FF920F931F9354
:10068000CF93DF93039709F087C0A0916C01B091DD
:100690006D01109761F481E090E090936D0180937B
:1006A0006C0190936B0180936A0190E07AC0809115
:1006B0007A0190917B0126E1289FF001299FF00D9E
:1006C0001124E854FE4F808191818230910509F414
:1006D00066C0039709F04EC01A161B060CF05BC0EB
:1006E000C0910A0CD0910B0CBD016150710904EF4F
:1006F0001BE00F2EF7E7EF2EF02DF12C0F2EF6E179
:10070000DF2EF02D0F2EF8E7BF2EF02DC12C2AC0C2
:100710002081318124173507C1F402C08B2D9C2D17
:10072000D89EF001D99EF00D1124E854FE4F84812B
:100730009581029711F411970DC01197B0936D0137
:10074000A0936C018A2F9B2F2CC001977697813044
:100750009105F1F66150710928F4B0936D01A093F1
:100760006C0119C0AB01C617D707C1F2F8018E2D75
:100770009F2DCECF20916A0130916B012F5F3F4FAB
:1007800030936B0120936A0130936D0120936C01CB
:10079000822F932F06C005C080E090E002C08A2F10
:1007A0009B2FDF91CF911F910F91FF90EF90DF90E2
:1007B000CF90BF9008950397F1F480917A019091C2
:1007C0007B0118161906D4F4EAEBF1E026E1289F24
:1007D000A001299F500D112446545E4F80E090E007
:1007E000208131816217730709F401967696E41728
:1007F000F507B1F7089580E090E0089580E090E07B
:100800000895CF93DF93D7DEC0EAD1E09983888340
:1008100030DF9093A3018093A201BC01888199816C
:10082000CADF9093A5018093A40180919F0190E07D
:100830009093A7018093A60184E090E09093A90192
:100840008093A80180910001909101019093AB01E8
:100850008093AA0180917801909179019093AD01E4
:100860008093AC0180917601909177019093AF01D4
:100870008093AE0180917401909175019093B101C4
:100880008093B0011092B3011092B2011092B501A1
:100890001092B401DF91CF91089580917A019091E7
:1008A0007B0126E1289FF001299FF00D1124E854D7
:1008B000FE4F8091A0019091A1019183808380914E
:1008C000A2019091A301938382838091A4019091CE
:1008D000A501958384838091A6019091A7019783B8
:1008E00086838091A8019091A9019187808780914A
:1008F000AA019091AB01938782878091AC0190917E
:10090000AD01958784878091AE019091AF01978763
:1009100086878091B0019091B101918B808B8091FD
:10092000B2019091B301938B828B8091B40190912D
:10093000B501958B848B0895CF92DF92EF92FF9251
:100940000F931F93CF93DF934091660150916701FE
:10095000E8EBF1E06EE17CE0C0E0D0E090E0C12C9B
:10096000D12C04E010E00F2EF2E0EF2EF1E0FF2E8C
:10097000F02D2081318123303105B1F5248135817D
:100980002115310561F49E01220F331F2E5F3E4F6A
:1009900040855185D9014D935C93219622C0213029
:1009A000310559F49E01220F331F20503F4F4085DF
:1009B0005185D9014D935C9314C02230310589F4DF
:1009C000228133812130310521F4D7010D931C930D
:1009D00008C0DE01AA0FBB1FAE5FBE4F0D931C9374
:1009E00021974C2D5D2D11C022893389213031058D
:1009F00061F4248935892817390729F45093670150
:100A0000409366010BC04F5F5F4F7696E617F7077E
:100A100009F0AFCF5093670140936601DF91CF910A
:100A20001F910F91FF90EF90DF90CF9008958091EC
:100A3000AC019091AD0181309105A1F08091AA01A6
:100A40009091AB01019749F08091B0019091B10173
:100A5000019731F483E090E0089580E090E00895FC
:100A600082E090E008958091AE019091AF010197EE
:100A700081F08091AC019091AD018130910571F0D0
:100A80008091AA019091AB01019731F480E090E050
:100A9000089582E090E0089583E090E008958091C9
:100AA000B0019091B101019789F08091AE019091D0
:100AB000AF01019771F081E090E02091AC0130919D
:100AC000AD012130310539F080E0089583E090E0F8
:100AD000089582E090E008958091AA019091AB0181
:100AE000019779F08091B0019091B101019761F087
:100AF0008091AE019091AF01019749F482E090E0BE
:100B0000089580E090E0089583E090E0089581E00A
:100B100090E008958091A0019091A101892B21F48A
:100B200020919F0130E01BC080919F01811104C082
:100B30007EDF9C01332713C0813021F494DF9C01B8
:100B400033270DC0823021F4AADF9C01332707C070
:100B5000833021F4C1DF9C01332701C00895822F27
:100B6000932F089586E090E09093B9018093B801A7
:100B70001092BB011092BA011092BD011092BC01FB
:100B80001092BF011092BE011092C1011092C001DB
:100B900081E090E09093C3018093C2011092C5015F
:100BA0001092C4011092C7011092C6011092C9019F
:100BB0001092C8011092CB011092CA011092CD017F
:100BC0001092CC01089580919E01823009F4AEC04C
:100BD000833009F44EC0813009F00DC1F3DA85DBB2
:100BE00086DC019759F50DDE81E090E09093330C9F
:100BF0008093320C8FDF8093340CB2DB019709F5C0
:100C000080917A0190917B01019690937B01809372
:100C10007A0143DE80917A0190917B0126E1289F41
:100C2000F001299FF00D1124E854FE4F8091340CFF
:100C300090E09187808781E090E005C080E090E0BF
:100C400002C080E090E020917A0130917B0146E182
:100C5000429FF001439FF00D1124E854FE4F208184
:100C600031812530310509F0D7C023E020939E0162
:100C700008958091B6019091B701823E910529F1C6
:100C80003CF4803E910559F0813E910599F03DC0BC
:100C9000833E910529F1843E910569F136C081E0DA
:100CA00090E0909363018093620146DE82E080933E
:100CB0009E012BC082E090E09093630180936201DB
:100CC0003BDE82E080939E0120C083E090E0909321
:100CD00063018093620130DE82E080939E0115C043
:100CE00084E090E0909363018093620125DE82E0CE
:100CF00080939E010AC085E090E090936301809309
:100D000062011ADE82E080939E0180919F0184300F
:100D100009F474C081E090E09093330C8093320C1E
:100D200084E08093340C80E090E008954BDADFDBC0
:100D3000019741F566DD8091A0019091A101039793
:100D4000C1F481E090E09093330C8093320C809159
:100D5000640190916501FC01EE0FFF1FEE5FFE4FF5
:100D600020812093340C0196909365018093640157
:100D700009C0D0DE8093340C81E090E09093330C76
:100D80008093320CE0916401F0916501EE0FFF1F3A
:100D9000EE5FFE4F80819181049799F587DA019784
:100DA00099F58091B2019091B301892B81F581E091
:100DB00090E09093B3018093B2018091660190918D
:100DC0006701009781F480919F01843019F181E0DF
:100DD00090E09093330C8093320C84E08093340C39
:100DE00080E090E0089501979093670180936601F9
:100DF00080E090E0089580E090E0089580E090E049
:100E0000089580E090E0089580E090E0089580E00B
:100E100090E0089580E090E0089585B5846085BDF8
:100E200016BCEEE6F0E08081816080831092380C81
:100E30000895E1EBF0E08081866080831092B2003B
:100E4000E0E7F0E08081816080831092370C0895A4
:100E50006634710509F453C0B4F46E317105D9F1EB
:100E600044F46A30710509F472C06431710571F19E
:100E700028C062337105C9F16C337105D9F168324C
:100E80007105F9F42DC0683C710509F44CC05CF49F
:100E90006A357105F1F16436710509F43FC06035BA
:100EA000710579F431C0603921E0720709F445C059
:100EB000643F21E0720709F445C06C3221E07207FB
:100EC000B9F142E350E024E630E045C044E050E0B0
:100ED00022EE30E040C047E050E023E530E03BC088
:100EE00049E050E024EC30E036C04CE050E025E32F
:100EF00030E031C04EE050E026EA30E02CC041E165
:100F000050E027E130E027C043E150E028E830E03E
:100F100022C045E150E029EF30E01DC048E150E03B
:100F20002AE630E018C040E350E024ED30E013C082
:100F300049E450E02EE330E00EC041E650E028EAFC
:100F400030E009C04AE750E022E130E004C042E06E
:100F500050E021E730E0009719F0029771F0089512
:100F600070933A0C6093390C50931D0140931C010F
:100F700030931B0120931A0108957093360C6093EF
:100F8000350C5093190140931801309317012093A9
:100F9000160108952091380C30E080911C01909149
:100FA0001D01281739076CF046B550E081E090E04C
:100FB00020911A0130911B014217530724F480E05D
:100FC000089580E090E008952091370C30E0809102
:100FD0001801909119012817390774F04091B20057
:100FE00050E081E090E02091160130911701421706
:100FF000530724F480E0089580E090E0089516BC43
:101000001092380C08951092B2001092370C089587
:101010001F920F920FB60F9211248F938091380C6C
:101020008F5F8093380C8F910F900FBE0F901F90A1
:1010300018951F920F920FB60F9211248F938091E3
:10104000370C8F5F8093370C8F910F900FBE0F90EE
:101050001F90189586E081B984E082B980EA84B94E
:1010600081E58CBD0895F89494E092B98EBD0DB4DD
:1010700007FEFDCF8EB580933B0C86E082B9789455
:101080000895F89492E092B98EBD0DB407FEFDCF9D
:101090008EB580933B0C86E082B978940895CF9307
:1010A000DF93C62FD72FF894ECDF8AE18A95F1F70A
:1010B00000C08D2FE6DF8AE18A95F1F700C08C2F02
:1010C000E0DF8AE18A95F1F700C07894DF91CF9153
:1010D0000895CF93C8DF8AE18A95F1F700C088EBC5
:1010E000C2DFC0913B0C8AE18A95F1F700C088EB22
:1010F000BADF20913B0C8C2F90E0982F8827820F2D
:10110000911DCF91089580E18AB91BB81092C50056
:101110001092C40088E18093C10086E08093C200F1
:101120000895E0ECF0E0908195FFFDCF8093C6003C
:101130000895CF92EF92FF920F931F93CF93DF9377
:10114000C82FD62F142FF22E80E18BB9E0ECF0E0FF
:10115000808180838FEFE5DF8FEFE3DF8C2FE1DF8E
:1011600087E0DFDF8D2FDDDF812FDBDF8F2DD9DF04
:10117000802FD7DF8E2DD5DF8C2DD3DFF89487E03D
:101180008C0DE80E0E0DF00E1F0DD10F8D2F8C0F54
:101190008095C7DFE0ECF0E0808186FFFDCF1BB8D3
:1011A0007894DF91CF911F910F91FF90EF90CF90A6
:1011B00008956091390C70913A0C80E890E06FDFEF
:1011C00060915E0170915F0180E590E068DF609161
:1011D00056017091570188E490E061DF60915C01F5
:1011E00070915D0180E490E05ADF60915801709148
:1011F000590171956195710988E390E050DF20E015
:1012000030E048EC52E460914401709145018091D6
:101210004601909147010E94E4510E94B65080E33C
:1012200090E03DDF20E030E048EC52E4609148017E
:101230007091490180914A0190914B010E94E451C3
:101240000E94B65088E290E02ACF08959B01AC013D
:10125000A8EEB3E00E94D6522091390C30913A0C9E
:10126000A901440F551F240F351F220F331F442798
:1012700037FD4095542F0E94B4522230310541056C
:1012800051052CF462E070E080E090E00895622F58
:10129000732F842F952F08954F925F926F927F92B4
:1012A0008F929F92AF92BF92CF92DF92EF92FF9276
:1012B0000F931F93CF93DF93EC01680179014D32B7
:1012C00081E0580761057105E0F5AFEFB3E09A01E1
:1012D000AB010E94D6522CE231E040E050E00E9487
:1012E000B45249015A019924AA24BB24432E512CFB
:1012F00082E7C816D104E104F104A4F4AFEFB3E02F
:10130000A70196010E94D65222E730E040E050E06B
:101310000E94B45279018A01FF2400271127432F2C
:1013200050E006C040E050E0BA01E12CF12C87010A
:101330006A01820194014EE150E063E070E0CE0169
:10134000F8DEDF91CF911F910F91FF90EF90DF902A
:10135000CF90BF90AF909F908F907F906F905F9055
:101360004F9008954F925F926F927F928F929F92CB
:10137000AF92BF92CF92DF92EF92FF920F931F93A3
:10138000CF93DF93CDB7DEB760970FB6F894DEBF8B
:101390000FBECDBF2B013C0149015A01E982FA82FF
:1013A0000B831C83860190580E94F74F6D877E87C0
:1013B0008F87988B29813A814B815C81CA01B90161
:1013C0000E94E4516B017C01A3019201C301B201AF
:1013D0000E94E4512B013C01A5019401C501B40117
:1013E0000E94E4519B01AC01C301B2010E94844FF1
:1013F0002B013C010E944B5220E030E048E452E4D3
:101400000E94834F4B015C019B01AC010E94E4519F
:101410006D837E838F8398879B01AC01C701B601E2
:101420000E94844F69877A878B879C870E944B52E2
:101430009B01AC0169817A818B819C8190580E94CB
:101440004E500E94754F69837A838B839C8320E082
:1014500030E048E452E4C301B2010E94834F0E948D
:101460004B529B01AC01C501B4010E94E4519B01A8
:10147000AC01C701B6010E94844F0E944B522B0160
:101480003C0120E038E44CE855E469857A858B8599
:101490009C850E94844F20E038E044E856E40E9496
:1014A000834F4B015C01A3019201C301B2010E9471
:1014B000844F20E030E046E852E40E94E4519B0172
:1014C000AC01C501B4010E944E500E94754F2B0122
:1014D0003C01A701960160E07AE187EA96E40E9468
:1014E000834F2D813E814F8158850E94834F20E09C
:1014F00038E148E856E40E944E500E94754F4B0177
:101500005C016801EE24D7FCE094FE2C20E030E082
:1015100044E353E46D857E858F8598890E94E4516C
:1015200028ED3FE049E450E40E944E500E94B6503E
:10153000AB01BC0147595F4F6F4F7F4F9701860149
:1015400080913E0190913F01A7DEA3019201698144
:101550007A818B819C810E94844F24EE3EE245E695
:1015600052E40E94E4510E94B650AB01BC01455BBD
:101570005F4F6F4F7F4F970186018091400190919F
:1015800041018ADE20E030E044E353E4C501B401C8
:101590000E94E45128ED3FE049E450E40E944E509F
:1015A0000E94B650AB01BC014F5F5F4F6F4F7F4F42
:1015B0009701860180914201909143016DDE609612
:1015C0000FB6F894DEBF0FBECDBFDF91CF911F9154
:1015D0000F91FF90EF90DF90CF90BF90AF909F90D2
:1015E0008F907F906F905F904F9008954F925F9291
:1015F0006F927F928F929F92AF92BF92CF92DF9223
:10160000EF92FF920F931F93CF93DF93CDB7DEB787
:1016100060970FB6F894DEBF0FBECDBF2B013C0123
:1016200049015A01E982FA820B831C838601905892
:101630000E94F74F6D877E878F87988B29813A812B
:101640004B815C81CA01B9010E94E4516B017C01AC
:10165000A3019201C301B2010E94E4512B013C019C
:10166000A5019401C501B4010E94E4519B01AC01A4
:10167000C301B2010E94844F2B013C010E944B52D6
:1016800020E030E048E452E40E94834F4B015C01CB
:101690009B01AC010E94E4516D837E838F83988708
:1016A0009B01AC01C701B6010E94844F69877A870C
:1016B0008B879C870E944B529B01AC0169817A8188
:1016C0008B819C8190580E944E500E94754F698377
:1016D0007A838B839C8320E030E048E452E4C301AA
:1016E000B2010E94834F0E944B529B01AC01C50185
:1016F000B4010E94E4519B01AC01C701B6010E94F4
:10170000844F0E944B522B013C0120E038E44CE80E
:1017100055E469857A858B859C850E94844F20E0FD
:1017200038E044E856E40E94834F4B015C01A3017A
:101730009201C301B2010E94844F20E030E046E8EC
:1017400052E40E94E4519B01AC01C501B4010E9426
:101750004E500E94754F2B013C01A701960160E09D
:101760007AE187EA96E40E94834F2D813E814F8182
:1017700058850E94834F20E038E148E856E40E94F3
:101780004E500E94754F4B015C016801EE24D7FC5E
:10179000E094FE2C20E030E044E353E46D857E8548
:1017A0008F8598890E94E45128ED3FE049E450E498
:1017B0000E944E500E94B650AB01BC014F535F4F88
:1017C0006F4F7F4F970186018091360190913701CD
:1017D00063DDA301920169817A818B819C810E94E2
:1017E000844F24EE3EE245E652E40E94E4510E941A
:1017F000B650AB01BC01455B5F4F6F4F7F4F970108
:101800008601809138019091390146DD20E030E079
:1018100044E353E4C501B4010E94E45128ED3FE0E4
:1018200049E450E40E944E500E94B650AB01BC0106
:101830004D5F5F4F6F4F7F4F9701860180913A0157
:1018400090913B0129DD60960FB6F894DEBF0FBE84
:10185000CDBFDF91CF911F910F91FF90EF90DF905F
:10186000CF90BF90AF909F908F907F906F905F9040
:101870004F9008954F925F926F927F928F929F92B6
:10188000AF92BF92CF92DF92EF92FF920F931F938E
:10189000CF93DF93CDB7DEB760970FB6F894DEBF76
:1018A0000FBECDBF2B013C0149015A01E982FA82EA
:1018B0000B831C83860150580E94F74F6D877E87EB
:1018C0008F87988B29813A814B815C81CA01B9014C
:1018D0000E94E4516B017C01A3019201C301B2019A
:1018E0000E94E4512B013C01A5019401C501B40102
:1018F0000E94E4519B01AC01C301B2010E94844FDC
:101900002B013C010E944B5220E030E048E452E4BD
:101910000E94834F4B015C019B01AC010E94E4518A
:101920006D837E838F8398879B01AC01C701B601CD
:101930000E94844F69877A878B879C870E944B52CD
:101940009B01AC0169817A818B819C8190580E94B6
:101950004E500E94754F69837A838B839C8320E06D
:1019600030E048E452E4C301B2010E94834F0E9478
:101970004B529B01AC01C501B4010E94E4519B0193
:10198000AC01C701B6010E94844F0E944B522B014B
:101990003C0120E038E44CE855E469857A858B8584
:1019A0009C850E94844F20E038E044E856E40E9481
:1019B000834F4B015C01A3019201C301B2010E945C
:1019C000844F20E030E046E852E40E94E4519B015D
:1019D000AC01C501B4010E944E500E94754F2B010D
:1019E0003C01A701960160E07AE187EA96E40E9453
:1019F000834F2D813E814F8158850E94834F20E087
:101A000038E148E856E40E944E500E94754F4B0161
:101A10005C016801EE24D7FCE094FE2C20E030E06D
:101A200044E353E46D857E858F8598890E94E45157
:101A300028ED3FE049E450E40E944E500E94B65029
:101A4000AB01BC014D535F4F6F4F7F4F9701860134
:101A500080912E0190912F011FDCA30192016981D9
:101A60007A818B819C810E94844F24EE3EE245E680
:101A700052E40E94E4510E94B6500F2EF1EE4F2E18
:101A8000512C612C712CF02D93018201061B170B38
:101A9000280B390BB901A80197018601809130010B
:101AA00090913101F9DB20E030E044E353E4C501DB
:101AB000B4010E94E45128ED3FE049E450E40E9463
:101AC0004E500E94B6500F2EFCE28F2E9924939414
:101AD000A12CB12CF02D95018401061B170B280BAE
:101AE000390BB901A80197018601809132019091CB
:101AF0003301D2DB60960FB6F894DEBF0FBECDBFC8
:101B0000DF91CF911F910F91FF90EF90DF90CF90D9
:101B1000BF90AF909F908F907F906F905F904F900D
:101B200008954F925F926F927F928F929F92AF92A1
:101B3000BF92CF92DF92EF92FF920F931F93CF93BA
:101B4000DF93CDB7DEB760970FB6F894DEBF0FBE58
:101B5000CDBF2B013C0149015A01E982FA820B8376
:101B60001C83860150580E94F74F6D877E878F87B0
:101B7000988B29813A814B815C81CA01B9010E940D
:101B8000E4516B017C01A3019201C301B2010E94E7
:101B9000E4512B013C01A5019401C501B4010E944F
:101BA000E4519B01AC01C301B2010E94844F2B019F
:101BB0003C010E944B5220E030E048E452E40E9495
:101BC000834F4B015C019B01AC010E94E4516D838A
:101BD0007E838F8398879B01AC01C701B6010E9469
:101BE000844F69877A878B879C870E944B529B0121
:101BF000AC0169817A818B819C8190580E944E5002
:101C00000E94754F69837A838B839C8320E030E048
:101C100048E452E4C301B2010E94834F0E944B5238
:101C20009B01AC01C501B4010E94E4519B01AC01D0
:101C3000C701B6010E94844F0E944B522B013C0108
:101C400020E038E44CE855E469857A858B859C85ED
:101C50000E94844F20E038E044E856E40E94834F1D
:101C60004B015C01A3019201C301B2010E94844FA8
:101C700020E030E046E852E40E94E4519B01AC01D0
:101C8000C501B4010E944E500E94754F2B013C01CA
:101C9000A701960160E07AE187EA96E40E94834F0B
:101CA0002D813E814F8158850E94834F20E038E18D
:101CB00048E856E40E944E500E94754F4B015C016B
:101CC0006801EE24D7FCE094FE2C20E030E044E3F1
:101CD00053E46D857E858F8598890E94E45128EDB7
:101CE0003FE049E450E40E944E500E94B650AB01E0
:101CF000BC0147595F4F6F4F7F4F9701860180911D
:101D0000260190912701C8DAA301920169817A81A5
:101D10008B819C810E94844F24EE3EE245E652E492
:101D20000E94E4510E94B6500F2EF1EE4F2E512C1E
:101D3000612C712CF02D93018201061B170B280BCF
:101D4000390BB901A8019701860180912801909172
:101D50002901A2DA20E030E044E353E4C501B401F4
:101D60000E94E45128ED3FE049E450E40E944E50C7
:101D70000E94B6500F2EFCE28F2E99249394A12C32
:101D8000B12CF02D95018401061B170B280B390B84
:101D9000B901A8019701860180912A0190912B0138
:101DA0007BDA60960FB6F894DEBF0FBECDBFDF9131
:101DB000CF911F910F91FF90EF90DF90CF90BF9048
:101DC000AF909F908F907F906F905F904F9008950D
:101DD0004F925F926F927F928F929F92AF92BF923B
:101DE000CF92DF92EF92FF920F931F93C090220148
:101DF000D09023016091580170915901882777FD97
:101E00008095982F0E94E9502B013C0160915A0166
:101E100070915B01882777FD8095982F0E94E9508B
:101E20004B015C0160915C0170915D017195619560
:101E30007109882777FD8095982F0E94E9508301CA
:101E40007201A50194018EDAC0902201D090230185
:101E50006091580170915901882777FD8095982FDE
:101E60000E94E9502B013C0160915A0170915B0185
:101E7000882777FD8095982F0E94E9504B015C01DF
:101E800060915C0170915D01882777FD8095982FA6
:101E90000E94E95083017201A5019401A7DBC09063
:101EA0002201D09023016091580170915901882737
:101EB00077FD8095982F0E94E9502B013C0160919D
:101EC0005A0170915B01719561957109882777FDC1
:101ED0008095982F0E94E9504B015C0160915C0154
:101EE00070915D01719561957109882777FD8095E5
:101EF000982F0E94E95083017201A5019401BADC78
:101F0000C0902201D0902301609158017091590135
:101F1000882777FD8095982F0E94E9502B013C017E
:101F200060915A0170915B017195619571098827E3
:101F300077FD8095982F0E94E9504B015C016091DC
:101F40005C0170915D01882777FD8095982F0E9434
:101F5000E95083017201A5019401E3DD1F910F9106
:101F6000FF90EF90DF90CF90BF90AF909F908F90B9
:101F70007F906F905F904F90089580918101909134
:101F8000820120911E0130911F01821793075CF09E
:101F9000109282011092810181E090E090932101E2
:101FA000809320010895AC014F5F5F4F50938201F1
:101FB00040938101421753072CF010922101109297
:101FC00020010895029690932101809320010895A5
:101FD0002F923F924F925F926F927F928F929F9239
:101FE000AF92BF92CF92DF92EF92FF920F931F9327
:101FF000CF93DF93CDB7DEB7E6970FB6F894DEBF89
:102000000FBECDBF29833A834B835C836D837E8370
:102010008F83988717012F964CAC5DAC6EAC7FAC6C
:102020002F9729813A813E8B2D8B4B815C81588F74
:102030004F8B8D809E80EF80F884C90101970297B5
:1020400088F4D7FAD094D7F8D09467968CAD9DAD2C
:10205000AEADBFAD6797B05867968CAF9DAFAEAFD2
:10206000BFAF67978D899E890397029788F477FAA7
:10207000709477F870946B962CAD3DAD4EAD5FAD1E
:102080006B9750586B962CAF3DAF4EAF5FAF6B97D1
:10209000B801882777FD8095982F0E94E9506987BD
:1020A0007A878B879C87A601950167966CAD7DAD7D
:1020B0008EAD9FAD67970E94834F29853A854B85EA
:1020C0005C850E944E506BA77CA78DA79EA7A3019D
:1020D00092016B966CAD7DAD8EAD9FAD6B970E94FE
:1020E000834F29853A854B855C850E944E506FA7AA
:1020F00078AB89AB9AAB63962CAD3DAD4EAD5FAD81
:1021000063976F966CAD7DAD8EAD9FAD6F970E945E
:10211000834F29853A854B855C850E944E506BAB79
:102120007CAB8DAB9EABA101400F511F5AA749A7B5
:10213000241635060CF0B8C224E1AF89B88D2A9F69
:10214000C0012B9F900D1124820D931D880F991FA4
:10215000880F991FFC01EE5AFF4EFAA3E9A3289DB0
:10216000C001299D900D1124820D931D880F991F88
:10217000880F991FAC014E5A5F4E58A34F8F2E9D6A
:10218000C0012F9D900D1124820D931D880F991F62
:10219000880F991FDC01AE5ABF4EBCA3ABA38101CF
:1021A000000F111F000F111F0457134FA986BA8685
:1021B000CB86DC864D865E866F86788A2BA53CA50D
:1021C0004DA55EA569857A858B859C850E94844F87
:1021D00069877A878B879C872FA538A949A95AA92F
:1021E0006D857E858F8598890E94844F6D877E8757
:1021F0008F87988B2BA93CA94DA95EA963966CADDE
:102200007DAD8EAD9FAD63970E94844F63966CAF9A
:102210007DAF8EAF9FAF63972D853E854F855889E3
:1022200069857A858B859C850E94F74F20E030E098
:1022300044E353E40E94E45128ED3FE049E450E4D4
:102240000E944E500E94B6506DA37EA38FA398A704
:1022500063962CAD3DAD4EAD5FAD6397CA01B9013C
:102260000E94E451698B7A8B8B8B9C8B29853A85F4
:102270004B855C85CA01B9010E94E4516B017C0168
:102280002D853E854F855889CA01B9010E94E451C8
:102290009B01AC01C701B6010E94844F6F8B788F00
:1022A000898F9A8F0E944B5220E030E048E452E43C
:1022B0000E94834F6B017C019B01AC010E94E451A1
:1022C0006B8F7C8F8D8F9E8F9B01AC0169897A8982
:1022D0008B899C890E94844F4B015C010E944B5268
:1022E0009B01AC0163966CAD7DAD8EAD9FAD6397E8
:1022F00090580E944E500E94754F2B013C0120E0E7
:1023000030E048E452E46F89788D898D9A8D0E947F
:10231000834F0E944B529B01AC01C701B6010E9442
:10232000E4519B01AC0169897A898B899C890E945F
:10233000844F0E944B526B017C0120E038E44CE852
:1023400055E4C501B4010E94844F20E038E044E820
:1023500056E40E94834F4B015C01A7019601C7011F
:10236000B6010E94844F20E030E046E852E40E942B
:10237000E4519B01AC01C501B4010E944E500E9482
:10238000754F9B01AC01C301B2010E94844F24EE42
:102390003EE245E652E40E94E4510E94B6506B01D1
:1023A0007C0129893A894B895C8960E07AE187EA76
:1023B00096E40E94834F2B8D3C8D4D8D5E8D0E9447
:1023C000834F20E038E148E856E40E944E500E94D6
:1023D000754F20E030E044E353E40E94E45128EDDF
:1023E0003FE049E450E40E944E500E94B650ED890F
:1023F000FE89E230F10509F457C01CF4319761F011
:1024000038C12D893E892330310509F496C0243026
:10241000310509F4E1C02DC18DA09EA0AFA0B8A4E4
:1024200039E6830E911CA11CB11CA9A1BAA18D9201
:102430009D92AD92BC921397BBE4CB0ED11CE11CD4
:10244000F11CEF8DF8A1C082D182E282F382DC011F
:10245000CB010196A11DB11DEBA1FCA1808391834D
:10246000A283B38329853A854B855C85D8012D935A
:102470003D934D935C931397F801E05BFF4F2D85DF
:102480003E854F8558892083318342835383E05BA7
:10249000FF4F63968CAD9DADAEADBFAD63978083AE
:1024A0009183A283B383E5C08DA09EA0AFA0B8A402
:1024B000A1EC8A0E911CA11CB11CE9A1FAA1808299
:1024C0009182A282B382FBE4CF0ED11CE11CF11CED
:1024D000AF8DB8A1CD92DD92ED92FC921397DC0105
:1024E000CB010396A11DB11DEBA1FCA180839183BB
:1024F000A283B383F801E051FF4F89859A85AB85AC
:10250000BC85B05880839183A283B383E05BFF4F87
:102510002D853E854F85588920833183428353839F
:10252000E05BFF4F63968CAD9DADAEADBFAD6397E5
:1025300080839183A283B3839CC08DA09EA0AFA013
:10254000B8A4A3EC8A0E911CA11CB11CE9A1FAA1AC
:1025500080829182A282B38221EE30E040E050E09E
:102560002C193D094E095F09AF8DB8A12D933D93FC
:102570004D935C9313972CE231E040E050E0261B32
:10258000370B480B590BEBA1FCA12083318342830D
:102590005383F801E052FE4F89859A85AB85BC854F
:1025A000B05880839183A283B383E05BFF4F2D8576
:1025B0003E854F8558892083318342835383E05B76
:1025C000FF4F63968CAD9DADAEADBFAD639780837D
:1025D0009183A283B3834DC08DA09EA0AFA0B8A469
:1025E000A9E68A0E911CA11CB11CE9A1FAA1808266
:1025F0009182A282B38221EE30E040E050E02C19BB
:102600003D094E095F09AF8DB8A12D933D934D93C0
:102610005C9313972CE231E040E050E0261B370B2F
:10262000480B590BEBA1FCA12083318342835383D8
:10263000F801E053FD4F29853A854B855C85208361
:10264000318342835383E05BFF4F8D859E85AF8549
:10265000B88980839183A283B383E05BFF4F639645
:102660002CAD3DAD4EAD5FAD63972083318342838A
:1026700053833FEF231A330A49A15AA14C5F5F4F9E
:102680005AA349A38F8D98A1049698A38F8FABA1CD
:10269000BCA11496BCA3ABA30C5F1F4FE9A5FAA580
:1026A0002E163F0609F08ACDE6960FB6F894DEBFE7
:1026B0000FBECDBFDF91CF911F910F91FF90EF9093
:1026C000DF90CF90BF90AF909F908F907F906F9052
:1026D0005F904F903F902F9008952F923F924F928E
:1026E0005F926F927F928F929F92AF92BF92CF92A2
:1026F000DF92EF92FF920F931F93CF93DF93CDB7AB
:10270000DEB7CA54D1090FB6F894DEBF0FBECDBFF5
:1027100029833A834B835C836D837E838F83988781
:1027200025961FAF0EAF2597FCAAEBAAA7964CAC37
:102730005DAC6EAC7FACA79729803A802B813C8141
:1027400027963FAF2EAF27974D815E8129965FAFC9
:102750004EAF29978F8198852B969FAF8EAF2B9781
:10276000112314F40F5F1F4F15950795ABA9BCA952
:10277000A00FB11FBAA7A9A71197BAAFA9AFC101FE
:102780000197029788F4D7FAD094D7F8D094AB96F3
:102790002CAD3DAD4EAD5FADAB975058AB962CAF69
:1027A0003DAF4EAF5FAFAB97C10103970297D0F437
:1027B000A3968CAD9DADAEADBFADA397B058A3961B
:1027C0008CAF9DAFAEAFBFAFA397AF962CAD3DAD75
:1027D0004EAD5FADAF975058AF962CAF3DAF4EAFFB
:1027E0005FAFAF9725964EAD5FAD2597BA018827AD
:1027F00077FD8095982F0E94E95069877A878B87AB
:102800009C87A6019501AB966CAD7DAD8EAD9FAD5D
:10281000AB970E94834F29853A854B855C850E9442
:102820004E506BA77CA78DA79EA7A3962CAD3DAD60
:102830004EAD5FADA397AF966CAD7DAD8EAD9FAD48
:10284000AF970E94834F29853A854B855C850E940E
:102850004E506FA778AB89AB9AAB609156017091DF
:102860005701882777FD8095982F0E94E950698746
:102870007A878B879C87B801882777FD8095982F6A
:102880000E94E9506D877E878F87988BE3962CADE9
:102890003DAD4EAD5FADE39769857A858B859C85AF
:1028A0000E94844FA30192010E94834F2D853E8593
:1028B0004F8558890E944E506BAF7CAF8DAF9EAF55
:1028C000A3019201E3966CAD7DAD8EAD9FADE39714
:1028D0000E94834F29853A854B855C850E94834FF2
:1028E0002D853E854F8558890E944E5023966CAFAA
:1028F0007DAF8EAF9FAF23978BA99CA9A9ADBAAD31
:10290000A817B9070CF4D3C224E12796EEADFFADAA
:1029100027972E9FC0012F9F900D11244BA95CA9D2
:10292000840F951F880F991F880F991FDC01AE5ADD
:10293000BF4EBAA3A9A32996EEADFFAD29972E9F4E
:10294000C0012F9F900D1124840F951F880F991F90
:10295000880F991FAC014E5A5F4E5CA34BA32B9678
:10296000AEADBFAD2B972A9FC0012B9F900D1124B8
:10297000EBA9FCA98E0F9F1F880F991F880F991F25
:102980009C012E5A3F4E8F01000F111F000F111F87
:102990000457134F3E8A2D8A1F013EA32DA3A986FB
:1029A000BA86CB86DC864D865E866F86788A2BA5B6
:1029B0003CA54DA55EA569857A858B859C850E9481
:1029C000844F69877A878B879C872FA538A949A967
:1029D0005AA9A3966CAD7DAD8EAD9FADA3970E9415
:1029E000844FA3966CAF7DAF8EAF9FAFA3972BADF7
:1029F0003CAD4DAD5EAD6D857E858F8598890E941D
:102A0000844F6D877E878F87988BA3962CAD3DADC5
:102A10004EAD5FADA39769857A858B859C850E94B5
:102A2000F74F20E030E044E353E40E94E45128ED06
:102A30003FE049E450E40E944E500E94B6506DAB16
:102A40007EAB8FAB98AF2D853E854F855889CA01E7
:102A5000B9010E94E451698B7A8B8B8B9C8B298501
:102A60003A854B855C85CA01B9010E94E4516B012E
:102A70007C01A3962CAD3DAD4EAD5FADA397CA01D1
:102A8000B9010E94E4519B01AC01C701B6010E944B
:102A9000844F698F7A8F8B8F9C8F0E944B5220E0DE
:102AA00030E048E452E40E94834F6B017C019B01BB
:102AB000AC010E94E4516D8F7E8F8F8F98A39B0194
:102AC000AC0169897A898B899C890E94844F4B016A
:102AD0005C010E944B529B01AC016D857E858F8508
:102AE000988990580E944E500E94754F2B013C01CE
:102AF00020E030E048E452E4698D7A8D8B8D9C8D26
:102B00000E94834F0E944B529B01AC01C701B6014A
:102B10000E94E4519B01AC0169897A898B899C8967
:102B20000E94844F0E944B526B017C0120E038E4EC
:102B30004CE855E4C501B4010E94844F20E038E020
:102B400044E856E40E94834F4B015C01A7019601C3
:102B5000C701B6010E94844F20E030E046E852E40D
:102B60000E94E4519B01AC01C501B4010E944E508A
:102B70000E94754F9B01AC01C301B2010E94844FBA
:102B800024EE3EE245E652E40E94E4510E94B65033
:102B90006B017C0129893A894B895C8960E07AE183
:102BA00087EA96E40E94834F2D8D3E8D4F8D58A16C
:102BB0000E94834F20E038E148E856E40E944E50DE
:102BC0000E94754F20E030E044E353E40E94E4515A
:102BD00028ED3FE049E450E40E944E500E94B65078
:102BE0004D895E894230510509F457C024F44130C3
:102BF000510559F037C1AD89BE89A330B10509F43B
:102C000095C0149709F4E1C02DC18DA89EA8AFA866
:102C1000B8ACB9E68B0E911CA11CB11CE9A1FAA1BC
:102C200080829182A282B382FBE4CF0ED11CE11C90
:102C3000F11CABA1BCA1CD92DD92ED92FC92139759
:102C4000DC01CB010196A11DB11DEDA1FEA1808388
:102C50009183A283B38329853A854B855C85D8010E
:102C60002D933D934D935C931397F801E05BFF4FD9
:102C7000A3962CAD3DAD4EAD5FADA39720833183C0
:102C800042835383E05BFF4F8D859E85AF85B88976
:102C900080839183A283B383E5C08DA89EA8AFA84B
:102CA000B8ACA1EC8A0E911CA11CB11CE9A1FAA13F
:102CB00080829182A282B382FBE4CF0ED11CE11C00
:102CC000F11CABA1BCA1CD92DD92ED92FC921397C9
:102CD000DC01CB010396A11DB11DEDA1FEA18083F6
:102CE0009183A283B383F801E051FF4F89859A85D0
:102CF000AB85BC85B05880839183A283B383E05BAE
:102D0000FF4FA3962CAD3DAD4EAD5FADA397208395
:102D1000318342835383E05BFF4F8D859E85AF8572
:102D2000B88980839183A283B3839CC08DA89EA819
:102D3000AFA8B8ACA3EC8A0E911CA11CB11CE9A1F0
:102D4000FAA180829182A282B38221EE30E040E03B
:102D500050E02C193D094E095F09ABA1BCA12D9390
:102D60003D934D935C9313972CE231E040E050E0AB
:102D7000261B370B480B590BEDA1FEA12083318395
:102D800042835383F801E052FE4F89859A85AB85D3
:102D9000BC85B05880839183A283B383E05BFF4FEF
:102DA000A3962CAD3DAD4EAD5FADA397208331838F
:102DB00042835383E05BFF4F8D859E85AF85B88945
:102DC00080839183A283B3834DC08DA89EA8AFA8B2
:102DD000B8ACA9E68A0E911CA11CB11CE9A1FAA10C
:102DE00080829182A282B38221EE30E040E050E006
:102DF0002C193D094E095F09ABA1BCA12D933D9350
:102E00004D935C9313972CE231E040E050E0261B99
:102E1000370B480B590BEDA1FEA120833183428370
:102E20005383F801E053FD4F29853A854B855C8536
:102E30002083318342835383E05BFF4FA3968CADA5
:102E40009DADAEADBFADA39780839183A283B383C5
:102E5000E05BFF4F2D853E854F8558892083318368
:102E6000428353833FEF231A330A49A15AA14C5F8F
:102E70005F4F5AA349A38BA19CA104969CA38BA34B
:102E8000ADA1BEA11496BEA3ADA30C5F1F4FE9ADCB
:102E9000FAADE215F3050CF08ACD2D883E88A984A1
:102EA000BA84CB84DC844D845E846F8478882BA9BB
:102EB0003CA925964EAD5FAD2597240F351F3CAB41
:102EC0002BAB89A59AA5821793070CF0CCC224E1FD
:102ED0002796AEADBFAD27972A9FC0012B9F900DBF
:102EE0001124E9A5FAA58E0F9F1F880F991F880F3F
:102EF000991FAC014E5A5F4E7A012996AEADBFAD17
:102F000029972A9FC0012B9F900D11248E0F9F1F80
:102F1000880F991F880F991FFC01EE5AFF4EFE8FF4
:102F2000ED8F2B964EAD5FAD2B97249FC001259F53
:102F3000900D1124A9A5BAA58A0F9B1F880F991F70
:102F4000880F991FFC01EE5AFF4EFAA3E9A38D01E9
:102F5000000F111F000F111F0457134FFCA2EBA20B
:102F6000A986BA86CB86DC864D865E866F86788A91
:102F70002BA53CA54DA55EA569857A858B859C858D
:102F80000E94844F69877A878B879C872FA538A9F1
:102F900049A95AA9A3966CAD7DAD8EAD9FADA397FF
:102FA0000E94844FA3966CAF7DAF8EAF9FAFA39767
:102FB00023962CAD3DAD4EAD5FAD23976D857E85DF
:102FC0008F8598890E94844F6D877E878F87988B25
:102FD000A3962CAD3DAD4EAD5FADA39769857A85C7
:102FE0008B859C850E94F74F20E030E044E353E45A
:102FF0000E94E45128ED3FE049E450E40E944E5025
:103000000E94B6506DA37EA38FA398A72D853E8501
:103010004F855889CA01B9010E94E451698B7A8BA6
:103020008B8B9C8B29853A854B855C85CA01B901C0
:103030000E94E4516B017C01A3962CAD3DAD4EADD9
:103040005FADA397CA01B9010E94E4519B01AC0195
:10305000C701B6010E94844F6D8B7E8B8F8B988F3A
:103060000E944B5220E030E048E452E40E94834F3B
:103070006B017C019B01AC010E94E451698F7A8F46
:103080008B8F9C8F9B01AC0169897A898B899C8984
:103090000E94844F4B015C010E944B529B01AC018A
:1030A0006D857E858F85988990580E944E500E942C
:1030B000754F2B013C0120E030E048E452E46D897B
:1030C0007E898F89988D0E94834F0E944B529B016D
:1030D000AC01C701B6010E94E4519B01AC016989B2
:1030E0007A898B899C890E94844F0E944B526B0184
:1030F0007C0120E038E44CE855E4C501B4010E94AD
:10310000844F20E038E044E856E40E94834F4B01AE
:103110005C01A7019601C701B6010E94844F20E01F
:1031200030E046E852E40E94E4519B01AC01C50145
:10313000B4010E944E500E94754F9B01AC01C30127
:10314000B2010E94844F24EE3EE245E652E40E9422
:10315000E4510E94B6506B017C0129893A894B8960
:103160005C8960E07AE187EA96E40E94834F298DCA
:103170003A8D4B8D5C8D0E94834F20E038E148E80A
:1031800056E40E944E500E94754F20E030E044E328
:1031900053E40E94E45128ED3FE049E450E40E94EA
:1031A0004E500E94B650F2E02F16310409F459C077
:1031B0002CF431E02316310461F038C143E02416C9
:1031C000310409F497C054E02516310409F4E1C034
:1031D0002DC18DA09EA0AFA0B8A4A9E68A0E911C17
:1031E000A11CB11CEBA1FCA180829182A282B382BE
:1031F000FBE4CF0ED11CE11CF11CAD8DBE8DCD9238
:10320000DD92ED92FC921397DC01CB010196A11D9A
:10321000B11DE9A1FAA180839183A283B38329859B
:103220003A854B855C85D8012D933D934D935C93F6
:103230001397F801E05BFF4FA3962CAD3DAD4EAD6B
:103240005FADA3972083318342835383E05BFF4FBD
:103250008D859E85AF85B88980839183A283B38352
:10326000E5C08DA09EA0AFA0B8A4A1EC8A0E911CD1
:10327000A11CB11CEBA1FCA180829182A282B3822D
:10328000FBE4CF0ED11CE11CF11CAD8DBE8DCD92A7
:10329000DD92ED92FC921397DC01CB010396A11D08
:1032A000B11DE9A1FAA180839183A283B383F801C0
:1032B000E051FF4F89859A85AB85BC85B0588083E6
:1032C0009183A283B383E05BFF4FA3962CAD3DAD0A
:1032D0004EAD5FADA3972083318342835383E05B80
:1032E000FF4F8D859E85AF85B88980839183A283AA
:1032F000B3839CC08DA09EA0AFA0B8A4A3EC8A0EFF
:10330000911CA11CB11CEBA1FCA180829182A28224
:10331000B38221EE30E040E050E02C193D094E0927
:103320005F09AD8DBE8D2D933D934D935C931397A7
:103330002CE231E040E050E0261B370B480B590BE4
:10334000E9A1FAA12083318342835383F801E0523B
:10335000FE4F89859A85AB85BC85B0588083918363
:10336000A283B383E05BFF4FA3962CAD3DAD4EAD82
:103370005FADA3972083318342835383E05BFF4F8C
:103380008D859E85AF85B88980839183A283B38321
:103390004DC08DA09EA0AFA0B8A4A9E68A0E911C36
:1033A000A11CB11CEBA1FCA180829182A282B382FC
:1033B00021EE30E040E050E02C193D094E095F0954
:1033C000AD8DBE8D2D933D934D935C9313972CE261
:1033D00031E040E050E0261B370B480B590BE9A1C8
:1033E000FAA12083318342835383F801E053FD4FD8
:1033F00029853A854B855C852083318342835383BD
:10340000E05BFF4FA3968CAD9DADAEADBFADA39776
:1034100080839183A283B383E05BFF4F2D853E853C
:103420004F855889208331834283538349A55AA508
:103430004F5F5F4F5AA749A78BA19CA104969CA3FD
:103440008BA3AD8DBE8D1496BE8FAD8FE9A1FAA171
:103450003496FAA3E9A30C5F1F4F2BA93CA942178E
:10346000530709F085CDC65BDF4F0FB6F894DEBF7A
:103470000FBECDBFDF91CF911F910F91FF90EF90C5
:10348000DF90CF90BF90AF909F908F907F906F9084
:103490005F904F903F902F9008954F925F926F9260
:1034A0007F928F929F92AF92BF92CF92DF92EF92D4
:1034B000FF920F931F93CF93DF93CDB7DEB728977B
:1034C0000FB6F894DEBF0FBECDBF4B835C836D8318
:1034D0007E838F839887EB80FC808D809E80AF8079
:1034E000B88424E12E9DC0012F9D900D1124E09100
:1034F0002001F0912101E80FF91FEE0FFF1FEE0FE1
:10350000FF1FEE5AFF4E4080518062807380E09131
:103510008101F09182018E0F9F1FFC01EE0FFF1FB2
:10352000EE0FFF1FEE5AFF4E80819181841995099D
:10353000BC0122F466277727681B790B882777FD63
:103540008095982F0E9426098B019C01B301A2014E
:10355000C7010E944C0924E1289DC001299D900DBE
:103560001124E0912001F0912101E80FF91FEE0FE5
:10357000FF1FEE0FFF1FEE5AFF4EC080D180E2808A
:10358000F380E0918101F09182018E0F9F1FFC0179
:10359000EE0FFF1FEE0FFF1FEE5AFF4E808191814D
:1035A0008C199D09BC0122F466277727681B790BCB
:1035B000882777FD8095982F0E9426098B019C0112
:1035C000B701A601C4010E944C0924E12A9DC00153
:1035D0002B9D900D1124E0912001F0912101E80F25
:1035E000F91FEE0FFF1FEE0FFF1FEE5AFF4EC080B8
:1035F000D180E280F380E0918101F09182018E0F11
:103600009F1FFC01EE0FFF1FEE0FFF1FEE5AFF4E34
:10361000808191818C199D09BC0122F4662777274E
:10362000681B790B882777FD8095982F0E942609C3
:103630008B019C01B701A601C5010E944C09289687
:103640000FB6F894DEBF0FBECDBFDF91CF911F91B3
:103650000F91FF90EF90DF90CF90BF90AF909F9031
:103660008F907F906F905F904F90089520913C01D4
:1036700030913D0140913E0150913F0160914001E8
:1036800070914101809142019091430106DF2091A8
:1036900034013091350140913601509137016091EC
:1036A00038017091390180913A0190913B01F5DE2A
:1036B00020912C0130912D0140912E0150912F012C
:1036C000609130017091310180913201909133010C
:1036D000E4DE209124013091250140912601509192
:1036E0002701609128017091290180912A01909110
:1036F0002B01D3DE0C94BD0F08951F920F920FB6CD
:103700000F9211240BB60F922F933F934F935F9319
:103710006F937F938F939F93AF93BF93EF93FF9399
:1037200088EB0E94410880913B0C982F907CE1F43B
:10373000282F2F7030E030939B0120939A01807FD7
:1037400090E095958795959587959595879595950D
:103750008795909399018093980181E090E09093F0
:10376000330C8093320C1AC0903861F421E030E0C1
:10377000309397012093960190E09093B701809346
:10378000B6010CC0903C51F4883C31F0803D31F4DE
:1037900081E080939E0102C010929E01FF91EF9103
:1037A000BF91AF919F918F917F916F915F914F9159
:1037B0003F912F910F900BBE0F900FBE0F901F9057
:1037C00018951F920F920FB60F9211248F939F930B
:1037D00080917F0190918001892B69F010929E0168
:1037E00081E090E090937E0180937D0110928001B2
:1037F00010927F0109C081E080939E0181E090E0FA
:103800009093800180937F019F918F910F900FBEC5
:103810000F901F90189560912A0C70912B0C8AECD8
:1038200090E00E944F0860912C0C70912D0C80ED5F
:1038300090E00E944F0860912E0C70912F0C88ED43
:1038400090E00E944F086091300C7091310C80EE36
:1038500090E00E944F0860911E0C70911F0C88EE42
:1038600090E00E944F086091200C7091210C80EF35
:1038700090E00E944F086091220C7091230C88EF19
:1038800090E00E944F086091240C7091250C88E80C
:1038900090E00E944F0888E990E00E946908BC010E
:1038A00088E990E00E944F0880E990E00E94690852
:1038B000BC0180E990E00C944F0808958AEC90E0F8
:1038C0000E94690890932B0C80932A0C80ED90E065
:1038D0000E94690890932D0C80932C0C88ED90E049
:1038E0000E94690890932F0C80932E0C80EE90E03C
:1038F0000E9469089093310C8093300C089580E900
:1039000090E00E9469089093270C8093260C0895FC
:10391000CF92DF92EF92FF92CF93DF939B01909132
:103920009F01913031F138F0923009F440C093306A
:1039300009F45BC078C0813019F0833071F076C033
:1039400060912C0C70912D0C645C7F4F8091600114
:1039500090916101681B790B74C08091300C90913B
:10396000310CCC966091600170916101681B790BFC
:1039700068C0882381F0823009F05BC060912E0C12
:1039800070912F0C645C7F4F809160019091610178
:10399000681B790B56C080912A0C90912B0CCC9609
:1039A0006091600170916101681B790B4AC08130A0
:1039B00081F0833009F040C06091300C7091310C7F
:1039C000645C7F4F8091600190916101681B790B6D
:1039D00038C080912C0C90912D0CCC966091600198
:1039E00070916101681B790B2CC0882319F082301B
:1039F00071F025C060912A0C70912B0C645C7F4F94
:103A00008091600190916101681B790B1AC08091CF
:103A10002E0C90912F0CCC966091600170916101F9
:103A2000681B790B0EC060E070E00BC060E070E0D6
:103A300008C060E070E005C060E070E002C060E0D7
:103A400070E0232B29F0C091260CD091270C02C0E6
:103A5000C0E0D0E0882777FD8095982F0E94E9503C
:103A6000209148013091490140914A0150914B0108
:103A70000E94E4510E94B6506B017C01BE01882770
:103A800077FD8095982F0E94E95020914401309154
:103A9000450140914601509147010E94E45120E0C8
:103AA00030E040E05FE30E94E4510E94B65096018E
:103AB0002D33310514F02CE330E0CB016D3371056B
:103AC00014F08CE390E0843C4FEF940714F484EC02
:103AD0009FEF243C4FEF340714F424EC3FEF309376
:103AE0004D1020934C1090934F1080934E10909354
:103AF00051108093501081E090E090934F0180939B
:103B00004E01DF91CF91FF90EF90DF90CF9008951D
:103B10004091AA015091AB018091AC019091AD010F
:103B20002091AE013091AF016091B0017091B1016F
:103B3000E0919F01E13061F028F0E23079F0E3306C
:103B400099F018C0892BC1F0672BC1F084E023C025
:103B5000232BB1F0452BB1F084E01DC0892BA1F0DF
:103B6000672BA1F084E017C0452B91F0232B91F037
:103B700084E011C084E00FC081E00DC083E00BC081
:103B800082E009C080E007C081E005C083E003C097
:103B900080E001C082E090E0089580917C01813056
:103BA000D1F48091940190919501019690939501A3
:103BB0008093940120919201309193018217930791
:103BC00054F08091340C80939F0110927C011092EC
:103BD00095011092940180917C01823059F5E09119
:103BE0009F01F0E0EE0FFF1FE65DF34F80915E0155
:103BF00090915F0199230CF40196959587952091FA
:103C0000600130916101280F391F81E090E040810F
:103C100051814217530714F080E090E090939D018A
:103C200080939C01892B31F010927C018091340C9F
:103C300080939F0108952F923F924F925F926F92CF
:103C40007F928F929F92AF92BF92CF92DF92EF922C
:103C5000FF920F931F93CF93DF93CDB7DEB7CC5472
:103C6000D1090FB6F894DEBF0FBECDBF8BE090E058
:103C700090931F0180931E019093631480936214AC
:103C80002091810130918201220F331F220F331FB7
:103C9000245C334FFE013196AE014B5C5F4FB9019E
:103CA0009F01FB0180819181A281B381F901819300
:103CB0009193A193B1939F01605B7F4FE417F50748
:103CC00081F7F9852696FFAF26972A8527962FAF8D
:103CD00027973B8528963FAF28974C8529964FAF6D
:103CE00029978D819E81AF81B8859C01AD01505887
:103CF00021962CAF3DAF4EAF5FAF21976091580139
:103D000070915901882777FD8095982F0E94E9507E
:103D10009F938F937F936F9329963FAD29973F93FE
:103D200028964FAD28974F9327965FAD27975F93BF
:103D300026968FAD26978F9321969FAD21979F93BF
:103D4000EFADEF93FEADFF932DAD2F9388898F9349
:103D50008F858F938E858F938D858F933F934F9310
:103D60005F9326963FAD26973F932196ACACBDACB2
:103D7000CEACDFAC2197E12CF12C04E010E02091D7
:103D80003C0130913D0140913E0150913F016091D5
:103D900040017091410180914201909143010E9444
:103DA000E80F2D883E888F88988C498922964FAFDE
:103DB00022975A8923965FAF23978B8924968FAFDA
:103DC00024979C8925969FAF259760915801709103
:103DD0005901882777FD8095982F0E94E9509F937D
:103DE0008F937F936F939F928F923F922F922596FE
:103DF000EFAD2597EF932496FFAD2497FF9323967D
:103E00002FAD23972F9322963FAD22973F938C8D12
:103E10008F938B8D8F938A8D8F93898D8F939F92A4
:103E20008F923F922F9222963FAD229723962FADED
:103E3000239724969FAD249725968FAD2597A32E83
:103E4000B22EC92ED82E20913401309135014091E7
:103E5000360150913701609138017091390180919C
:103E60003A0190913B010E94E80F89A19AA1ABA170
:103E7000BCA19C01AD0150582DAB3EAB4FAB58AF30
:103E80004D8C5E8C6F8C78A077FA709477F8709474
:103E90000FB6F894DEBF0FBECDBF60915801709190
:103EA0005901882777FD8095982F0E94E9509F93AC
:103EB0008F937F936F9358AD5F938FA98F939EA934
:103EC0009F93EDA9EF937F926F925F924F9288A597
:103ED0008F938FA18F938EA18F938DA18F935F93DB
:103EE000FFA9FF939F93EF936301520120912C014F
:103EF00030912D0140912E0150912F0160913001A0
:103F00007091310180913201909133010E94E80F4C
:103F10008DA59EA5AFA5B8A99C01AD01505829AFAC
:103F20003AAF4BAF5CAF39A52A963FAF2A974AA567
:103F30002B964FAF2B975BA52C965FAF2C978CA53C
:103F40002D968FAF2D976091580170915901882758
:103F500077FD8095982F0E94E9509F938F937F93D0
:103F60006F939CAD9F93EBADEF93FAADFF9329ADAB
:103F70002F932D963FAD2D973F932C964FAD2C97B9
:103F80004F932B965FAD2B975F932A968FAD2A9711
:103F90008F938CA98F938BA98F938AA98F9389A9CB
:103FA0008F939F93EF93FF932F932A963FAD2A977A
:103FB0002B962FAD2B972C969FAD2C972D968FADD2
:103FC0002D97A32EB22EC92ED82E209124013091E8
:103FD000250140912601509127016091280170919F
:103FE000290180912A0190912B010E94E80F609194
:103FF000580170915901882777FD8095982F0E946C
:10400000E950162F072FF82EE92E0FB6F894DEBFD1
:104010000FBECDBF9F938F937F936F9360915A0193
:1040200070915B01882777FD8095982F0E94E95059
:104030009F938F937F936F9360915C0170915D016B
:10404000719561957109882777FD8095982F0E9459
:10405000E9509F938F937F936F93EF92FF920F930B
:104060001F932996FFAD2997FF9328962FAD289788
:104070002F9327963FAD27973F9326964FAD2697D0
:104080004F932196ACACBDACCEACDFAC219768941D
:10409000EE24E2F8F12C04E010E020913C01309194
:1040A0003D0140913E0150913F016091400170916E
:1040B000410180914201909143010E946D136091F2
:1040C000580170915901882777FD8095982F0E949B
:1040D000E9509F938F937F936F939F928F923F921C
:1040E0002F9225965FAD25975F932496EFAD249789
:1040F000EF932396FFAD2397FF9322962FAD229740
:104100002F939F938F937F936F939F928F923F9262
:104110002F9222963FAD229723962FAD2397249678
:104120009FAD249725968FAD2597A32EB22EC92E2D
:10413000D82E2091340130913501409136015091B3
:104140003701609138017091390180913A01909165
:104150003B010E94E80F6091580170915901882736
:1041600077FD8095982F0E94E9500FB6F894DEBF36
:104170000FBECDBF9F938F937F936F9358AD5F9387
:10418000EFA9EF93FEA9FF932DA92F937F926F9232
:104190005F924F929F938F937F936F935F93EF9371
:1041A000FF932F936301520120912C0130912D0137
:1041B00040912E0150912F01609130017091310199
:1041C00080913201909133010E94E80F6091580173
:1041D00070915901882777FD8095982F0E94E950AA
:1041E000162F072FF82EE92E9F938F937F936F93AF
:1041F00060915A0170915B017195619571098827F1
:1042000077FD8095982F0E94E9509F938F937F931D
:104210006F9360915C0170915D01882777FD8095B7
:10422000982F0E94E9509F938F937F936F93EF9203
:10423000FF920F931F933CAD3F934BAD4F935AADFD
:104240005F9389AD8F932A963FAD2A972B962FAD1A
:104250002B972C969FAD2C972D968FAD2D97A32E37
:10426000B22EC92ED82E6894EE24E2F8F12C04E088
:1042700010E02091240130912501409126015091B8
:104280002701609128017091290180912A01909164
:104290002B010E946D13609158017091590188277C
:1042A00077FD8095982F0E94E950162F072FF82E42
:1042B000E92E60915A0170915B01882777FD809506
:1042C000982F0E94E950D62EC72EB82EA92E6091A5
:1042D0005C0170915D01719561957109882777FD89
:1042E0008095982F0E94E9500FB6F894DEBF0FBE5C
:1042F000CDBFEF92FF920F931F93AF92BF92CF92D9
:10430000DF929F938F937F936F93EF92FF920F9320
:104310001F93AF92BF92CF92DF92A62EB72EC82ED8
:10432000D92E6894EE24E3F8F12C04E010E02091FB
:104330003C0130913D0140913E0150913F0160911F
:1043400040017091410180914201909143010E948E
:10435000E80F6091580170915901882777FD809589
:10436000982F0E94E950D62EC72EB82EA92E9F93C3
:104370008F937F936F9360915A0170915B018827AF
:1043800077FD8095982F0E94E9509F938F937F939C
:104390006F9360915C0170915D01882777FD809536
:1043A000982F0E94E9509F938F937F936F93AF92C2
:1043B000BF92CF92DF929F928F923F922F9222963E
:1043C0003FAD229723962FAD239724969FAD249738
:1043D00025968FAD2597A32EB22EC92ED82E2091CB
:1043E000340130913501409136015091370160918F
:1043F00038017091390180913A0190913B010E94FE
:104400006D136091580170915901882777FD80954F
:10441000982F0E94E950D62EC72EB82EA92E0FB67F
:10442000F894DEBF0FBECDBF9F938F937F936F93A2
:1044300060915A0170915B017195619571098827AE
:1044400077FD8095982F0E94E9509F938F937F93DB
:104450006F9360915C0170915D0171956195710937
:10446000882777FD8095982F0E94E9509F938F931E
:104470007F936F93AF92BF92CF92DF9238AD3F930D
:104480004FA94F935EA95F938DA98F93630152014A
:1044900020912C0130912D0140912E0150912F013E
:1044A000609130017091310180913201909133011E
:1044B0000E946D136091580170915901882777FD12
:1044C0008095982F0E94E950162F072FF82EE92E7D
:1044D00060915A0170915B0171956195710988270E
:1044E00077FD8095982F0E94E950D62EC72EB82EC2
:1044F000A92E60915C0170915D01882777FD809500
:10450000982F0E94E950EF92FF920F931F93AF9262
:10451000BF92CF92DF929F938F937F936F93EF928F
:10452000FF920F931F93AF92BF92CF92DF92A62E6E
:10453000B72EC82ED92E6894EE24E3F8F12C04E0AF
:1045400010E02091240130912501409126015091E5
:104550002701609128017091290180912A01909191
:104560002B010E94E80F109282011092810181E0DC
:1045700090E090932101809320010FB6F894DEBF64
:104580000FBECDBFC45BDF4F0FB6F894DEBF0FBECA
:10459000CDBFDF91CF911F910F91FF90EF90DF90F2
:1045A000CF90BF90AF909F908F907F906F905F90D3
:1045B0004F903F902F9008958F929F92AF92BF920D
:1045C000CF92DF92EF92FF920F931F93CF93DF93DF
:1045D0008091540190915501EC0199230CF423969C
:1045E000D595C795D595C795019790931F01809351
:1045F0001E01CE0101979093631480936214009181
:1046000058011091590160915A0170915B018827FE
:1046100077FD8095982F0E94E950B62EA72E982EF0
:10462000892E60915C0170915D01719561957109B0
:10463000882777FD8095982F0E94E950C62ED72EA7
:10464000E82EF92E6091560170915701600F711F8D
:10465000882777FD8095982F0E94E9509F938F932C
:104660007F936F938F929F92AF92BF92FF92EF9240
:10467000DF92CF92B801882777FD8095982F0E940E
:10468000E9509F938F937F936F938F929F92AF92F6
:10469000BF92AC2CBD2CCE2CDF2CE12CF12C8E014A
:1046A00020913C0130913D0140913E0150913F01EC
:1046B00060914001709141018091420190914301CC
:1046C0000E94E80F6091580170915901882777FD89
:1046D0008095982F0E94E950162F072FF82EE92E6B
:1046E00060915A0170915B01882777FD8095982F22
:1046F0000E94E950D62EC72EB82EA92E60915C01DB
:1047000070915D01882777FD8095982F0E94E95070
:10471000EF92FF920F931F93AF92BF92CF92DF92CF
:104720009F938F937F936F93EF92FF920F931F93BB
:10473000AF92BF92CF92DF92A62EB72EC82ED92E5F
:10474000E12CF12C8E012091340130913501409102
:104750003601509137016091380170913901809193
:104760003A0190913B010E94E80F609158017091CD
:104770005901882777FD8095982F0E94E950162FC0
:10478000072FF82EE92E60915A0170915B01719507
:1047900061957109882777FD8095982F0E94E950CF
:1047A000D62EC72EB82EA92E20915C0130915D0126
:1047B00066277727621B730B882777FD8095982FD4
:1047C0000E94E9502DB73EB7285D3F4F0FB6F894D1
:1047D0003EBF0FBE2DBFEF92FF920F931F93AF927C
:1047E000BF92CF92DF929F938F937F936F93EF92BD
:1047F000FF920F931F93AF92BF92CF92DF92A62E9C
:10480000B72EC82ED92EE12CF12C8E0120912C012F
:1048100030912D0140912E0150912F016091300176
:104820007091310180913201909133010E94E80F23
:10483000C0905801D090590160915A0170915B016C
:10484000719561957109882777FD8095982F0E9451
:10485000E950F62EE72E982E892E60915C0170911A
:104860005D01882777FD8095982F0E94E950062FDB
:10487000172FA82EB92E60915601709157016C0D1B
:104880007D1D882777FD8095982F0E94E9509F9382
:104890008F937F936F938F929F92EF92FF92BF922D
:1048A000AF921F930F93B601882777FD8095982FBD
:1048B0000E94E9509F938F937F936F938F929F9263
:1048C000EF92FF929A2D8B2DA02EB12EC92ED82EAD
:1048D000E12CF12C8E012091240130912501409191
:1048E0002601509127016091280170912901809142
:1048F0002A0190912B010E94E80F109282011092E0
:10490000810181E090E090932101809320018DB797
:104910009EB788960FB6F8949EBF0FBE8DBFDF91ED
:10492000CF911F910F91FF90EF90DF90CF90BF90AC
:10493000AF909F908F9008952F923F924F925F92E9
:104940006F927F928F929F92AF92BF92CF92DF929F
:10495000EF92FF920F931F93CF93DF93CDB7DEB704
:104960002E970FB6F894DEBF0FBECDBF9C019923E2
:1049700014F42D5F3F4FA9015595479555954795DF
:104980005E874D87019790931F0180931E0190933E
:1049900063148093621440905E0150905F01C201E5
:1049A00066E070E00E94A152CB01AA2797FDA09576
:1049B000BA2F88879987AA87BB87C20199230CF4ED
:1049C00001962C0155944794662457FC6094762CEC
:1049D00080919F01813009F45FC450F0823011F45E
:1049E0000C94EA2D833011F40C943D320C94D9369A
:1049F00080905A0190905B01919481949108AA242F
:104A000097FCA094BA2C60915801709159018827A5
:104A100077FD8095982F0E94E950F62EE72ED82E2C
:104A2000C92E60915C0170915D01882777FD8095AA
:104A3000982F0E94E950362E272E182F092FCF923B
:104A4000DF92EF92FF92C501B401640D751D861DC2
:104A5000971D0E94E9509F938F937F936F930F93BD
:104A60001F932F923F92CF92DF92EF92FF92C50158
:104A7000B40164197509860997090E94E9509F934A
:104A80008F937F936F93A32CB22CC12ED02EE12C49
:104A9000F12C0D851E852091240130912501409136
:104AA0002601509127016091280170912901809180
:104AB0002A0190912B010E946D13C0905A01D09051
:104AC0005B01D194C194D108EE24D7FCE094FE2C74
:104AD0006091580170915901882777FD8095982F32
:104AE0000E94E950A62EB72E082F192F60915C0165
:104AF00070915D01882777FD8095982F0E94E9507D
:104B000069837D838E839F838D849E84880C991C0A
:104B10002D843E84280C391C1F930F93BF92AF92B3
:104B2000C701B60164197509860997090E94E95001
:104B30009F938F937F936F939F819F93AE81AF934A
:104B4000BD81BF93E981EF931F930F93BF92AF9203
:104B5000C301B2016C0D7D1D8E1D9F1D0E94E95089
:104B60009F938F937F936F9339812D819E818F8146
:104B7000A32EB22EC92ED82EED84FE848101209161
:104B80002401309125014091260150912701609127
:104B900028017091290180912A0190912B010E9496
:104BA000E80FC0905A01D0905B01EE24D7FCE0944E
:104BB000FE2C6091580170915901882777FD8095EE
:104BC000982F0E94E950A62EB72E082F192F60911A
:104BD0005C0170915D01882777FD8095982F0E9478
:104BE000E95069837D838E839F830FB6F894DEBF7F
:104BF0000FBECDBF1F930F93BF92AF92C701B601F7
:104C000064197509860997090E94E9509F938F934B
:104C10007F936F933F813F934E814F935D815F936D
:104C200089818F931F930F93BF92AF92C701B601F3
:104C3000288539854A855B85621B730B840B950B30
:104C40000E94E9509F938F937F936F9339812D81B9
:104C50009E818F81A32EB22EC92ED82EE12CF12C4D
:104C60000D851E852091340130913501409136012A
:104C700050913701609138017091390180913A016A
:104C800090913B010E94E80FC0905A01D0905B01C7
:104C9000EE24D7FCE094FE2C6091580170915901EC
:104CA000882777FD8095982F0E94E950A62EB72E71
:104CB000082F192F60915C0170915D01882777FDA5
:104CC0008095982F0E94E95069837D838E839F830E
:104CD0001F930F93BF92AF92C701B601640D751D6C
:104CE000861D971D0E94E9509F938F937F936F932A
:104CF0003F813F934E814F935D815F9389818F9375
:104D00001F930F93BF92AF92C701B6016419750943
:104D1000860997090E94E9509F938F937F936F9321
:104D200039812D819E818F81A32EB22EC92ED82E3E
:104D3000ED84FE848701209134013091350140914A
:104D4000360150913701609138017091390180919D
:104D50003A0190913B010E946D13C0905A01D0908E
:104D60005B01EE24D7FCE094FE2C60915801709119
:104D70005901882777FD8095982F0E94E950A62E2B
:104D8000B72E082F192F60915C0170915D01882763
:104D900077FD8095982F0E94E95069837D838E83EB
:104DA0009F830FB6F894DEBF0FBECDBF1F930F9346
:104DB000BF92AF92C701B601288539854A855B85C8
:104DC000621B730B840B950B0E94E9509F938F938A
:104DD0007F936F933F813F934E814F935D815F93AC
:104DE00089818F931F930F93BF92AF92C301B2013A
:104DF0006C0D7D1D8E1D9F1D0E94E9509F938F930A
:104E00007F936F9339812D819E818F81A32EB22E46
:104E1000C92ED82E740184012091340130913501BE
:104E200040913601509137016091380170913901FC
:104E300080913A0190913B010E94E80FC0905A0185
:104E4000D0905B01D194C194D108EE24D7FCE094BA
:104E5000FE2C6091580170915901882777FD80954B
:104E6000982F0E94E950A62EB72E082F192F609177
:104E70005C0170915D01719561957109882777FDDD
:104E80008095982F0E94E95069837D838E839F834C
:104E90001F930F93BF92AF92C701B60164197509B2
:104EA000860997090E94E9509F938F937F936F9390
:104EB0009F819F93AE81AF93BD81BF93E981EF93B3
:104EC0001F930F93BF92AF92688579858A859B85E2
:104ED0006C0D7D1D8E1D9F1D0E94E9509F938F9329
:104EE0007F936F9339812D819E818F81A32EB22E66
:104EF000C92ED82EE12CF12C840120912C01309167
:104F00002D0140912E0150912F016091300170913F
:104F1000310180913201909133010E94E80FC090DD
:104F20005A01D0905B01D194C194D108EE24D7FCF2
:104F3000E094FE2C6091580170915901882777FD0B
:104F40008095982F0E94E950A62EB72E082F192F72
:104F500060915C0170915D0171956195710988277F
:104F600077FD8095982F0E94E95069837D838E8319
:104F70009F830FB6F894DEBF0FBECDBF1F930F9374
:104F8000BF92AF92C701B601640D751D861D971DB6
:104F90000E94E9509F938F937F936F933F813F933C
:104FA0004E814F935D815F9389818F931F930F9300
:104FB000BF92AF92C701B6016419750986099709B6
:104FC0000E94E9509F938F937F936F9339812D8136
:104FD0009E818F81A32EB22EC92ED82E74010D85ED
:104FE0001E8520912C0130912D0140912E01509170
:104FF0002F016091300170913101809132019091C7
:1050000033010E946D13C0905A01D0905B01D1947E
:10501000C194D108EE24D7FCE094FE2C6091580195
:1050200070915901882777FD8095982F0E94E9504B
:10503000A62EB72E182F092F60915C0170915D018B
:10504000719561957109882777FD8095982F0E9449
:10505000E950962E872E89839D830F931F93BF92CD
:10506000AF92688579858A859B856C0D7D1D8E1D27
:105070009F1D0E94E9509F938F937F936F939D8113
:105080009F93A981AF938F929F920F931F93BF928B
:10509000AF92C301B2016C0D7D1D8E1D9F1D0E943C
:1050A000E9509F938F937F936F9399818D81A92C62
:1050B000B82CC92ED82E71010D851E8520912C018A
:1050C00030912D0140912E0150912F0160913001BE
:1050D0007091310180913201909133010E94E80F6B
:1050E000C0905A01D0905B01EE24D7FCE094FE2CD6
:1050F0006091580170915901882777FD8095982F0C
:105100000E94E950B62EA72E982E892E60915C0140
:1051100070915D01719561957109882777FD809582
:10512000982F0E94E950062F172F888799830FB672
:10513000F894DEBF0FBECDBF8F929F92AF92BF9209
:10514000C701B60164197509860997090E94E950DB
:105150009F938F937F936F93F981FF9328852F936C
:105160001F930F938F929F92AF92BF92C301B20190
:105170006C0D7D1D8E1D9F1D0E94E9509F938F9386
:105180007F936F9398858981A02EB12EC92ED82E3A
:10519000E12CF12C810120913C0130913D014091A5
:1051A0003E0150913F016091400170914101809119
:1051B0004201909143010E94E80FC0905A01D090A3
:1051C0005B01EE24D7FCE094FE2C609158017091B5
:1051D0005901882777FD8095982F0E94E950B62EB7
:1051E000A72E982E892E60915C0170915D017195BA
:1051F00061957109882777FD8095982F0E94E95065
:10520000062F172F888799838F929F92AF92BF9214
:10521000C701B601640D751D861D971D0E94E950DA
:105220009F938F937F936F9339813F9348854F93DB
:105230001F930F938F929F92AF92BF92C701B601B7
:1052400064197509860997090E94E9509F938F9305
:105250007F936F9398858981A02EB12EC92ED82E69
:1052600071010D851E8520913C0130913D014091D9
:105270003E0150913F016091400170914101809148
:105280004201909143010E946D130FB6F894DEBF66
:105290000FBECDBF0C94D93680915C0190915D0119
:1052A0009195819591099C01442737FD4095542F94
:1052B00029833A834B835C83609158017091590133
:1052C000882777FD8095982F0E94E950E62E172FAA
:1052D000082FF92E60915A0170915B0171956195CB
:1052E0007109882777FD8095982F0E94E950262E16
:1052F000372E882E992E69817A818B819C81641941
:105300007509860997090E94E9505B016C01FF92BB
:105310000F931F93EF929F928F923F922F926981EA
:105320007A818B819C81640D751D861D971D0E945D
:10533000E9509F938F937F936F93FF920F931F93E7
:10534000EF929F928F923F922F92E12CF12C0D853C
:105350001E8520912C0130912D0140912E015091FC
:105360002F01609130017091310180913201909153
:1053700033010E946D1380915C0190915D019195C4
:10538000819591099C01442737FD4095542F29832D
:105390003A834B835C83609158017091590188274F
:1053A00077FD8095982F0E94E950E62EF72E082F62
:1053B000192F60915A0170915B0171956195710986
:1053C000882777FD8095982F0E94E9506D837E8312
:1053D0008F839C878D849E84880C991C2D843E84A9
:1053E000280C391C69817A818B819C81640D751D23
:1053F000861D971D0E94E9505B016C011F930F935E
:10540000FF92EF923C853F934F814F935E815F9374
:105410008D818F9369817A818B819C816419750953
:10542000860997090E94E9509F938F937F936F930A
:105430001F930F93FF92EF929C859F93AF81AF9341
:10544000BE81BF93ED81EF93ED84FE8481012091B5
:105450002C0130912D0140912E0150912F0160912E
:1054600030017091310180913201909133010E949D
:10547000E80F80915C0190915D019C01442737FD0C
:105480004095542F29833A834B835C836091580164
:1054900070915901882777FD8095982F0E94E950D7
:1054A000E62EF72E082F192F60915A0170915B019B
:1054B000719561957109882777FD8095982F0E94D5
:1054C000E9506D837E838F839C870FB6F894DEBF8F
:1054D0000FBECDBF69817A818B819C8128853985FA
:1054E0004A855B85621B730B840B950B0E94E95008
:1054F0005B016C011F930F93FF92EF923C853F93EA
:105500004F814F935E815F938D818F9369817A8103
:105510008B819C8164197509860997090E94E9505D
:105520009F938F937F936F931F930F93FF92EF92AD
:105530009C859F93AF81AF93BE81BF93ED81EF9325
:10554000E12CF12C0D851E8520912401309125013F
:105550004091260150912701609128017091290105
:1055600080912A0190912B010E94E80F80915C01AB
:1055700090915D019C01442737FD4095542F29836C
:105580003A834B835C83609158017091590188275D
:1055900077FD8095982F0E94E950E62EF72E082F70
:1055A000192F60915A0170915B0171956195710994
:1055B000882777FD8095982F0E94E9506D837E8320
:1055C0008F839C8769817A818B819C81641975099D
:1055D000860997090E94E9505B016C011F930F93A4
:1055E000FF92EF923C853F934F814F935E815F9393
:1055F0008D818F9369817A818B819C81640D751D6A
:10560000861D971D0E94E9509F938F937F936F9300
:105610001F930F93FF92EF929C859F93AF81AF935F
:10562000BE81BF93ED81EF93ED84FE8487012091CD
:10563000240130912501409126015091270160916C
:1056400028017091290180912A0190912B010E94DB
:105650006D1380915C0190915D019C01442737FDA1
:105660004095542F29833A834B835C836091580182
:1056700070915901882777FD8095982F0E94E950F5
:10568000E62EF72E082F192F60915A0170915B01B9
:10569000719561957109882777FD8095982F0E94F3
:1056A000E9506D837E838F839C870FB6F894DEBFAD
:1056B0000FBECDBF69817A818B819C81640D751D80
:1056C000861D971D0E94E9505B016C011F930F938B
:1056D000FF92EF925C855F938F818F939E819F9362
:1056E000AD81AF9369817A818B819C8128853985D1
:1056F0004A855B85621B730B840B950B0E94E950F6
:105700009F938F937F936F931F930F93FF92EF92CB
:105710003C853F934F814F935E815F938D818F9343
:1057200074018401209124013091250140912601CA
:1057300050912701609128017091290180912A01DF
:1057400090912B010E94E80F80915C0190915D0186
:105750009195819591099C01442737FD4095542FDF
:1057600029833A834B835C8360915801709159017E
:10577000882777FD8095982F0E94E950E62EF72E16
:10578000082F192F60915A0170915B01882777FDCE
:105790008095982F0E94E9506D837E838F839C872C
:1057A000688579858A859B8529813A814B815C81D1
:1057B000620F731F841F951F0E94E9505B016C01EB
:1057C0001F930F93FF92EF923C853F934F814F932E
:1057D0005E815F938D818F9369817A818B819C81BA
:1057E00064197509860997090E94E9509F938F9360
:1057F0007F936F931F930F93FF92EF929C859F93DC
:10580000AF81AF93BE81BF93ED81EF93E12CF12C7B
:10581000840120913C0130913D0140913E01509125
:105820003F0160914001709141018091420190914E
:1058300043010E94E80F80915C0190915D01919578
:10584000819591099C01442737FD4095542F298368
:105850003A834B835C83609158017091590188278A
:1058600077FD8095982F0E94E950E62EF72E082F9D
:10587000192F60915A0170915B01882777FD8095FF
:10588000982F0E94E9506D837E838F839C870FB68B
:10589000F894DEBF0FBECDBF69817A818B819C8178
:1058A00064197509860997090E94E9505B016C012A
:1058B0001F930F93FF92EF925C855F938F818F937D
:1058C0009E819F93AD81AF9369817A818B819C8109
:1058D000640D751D861D971D0E94E9509F938F933F
:1058E0007F936F931F930F93FF92EF92BC85BF93AB
:1058F000EF81EF93FE81FF932D812F9374010D852E
:105900001E8520913C0130913D0140913E01509116
:105910003F0160914001709141018091420190915D
:1059200043010E946D1380915C0190915D019195FE
:10593000819591099C01442737FD4095542F298377
:105940003A834B835C836091580170915901882799
:1059500077FD8095982F0E94E950E62EF72E082FAC
:10596000192F60915A0170915B01882777FD80950E
:10597000982F0E94E9506D837E83882E992E69812D
:105980007A818B819C81640D751D861D971D0E94F7
:10599000E9505B016C011F930F93FF92EF929F926E
:1059A0008F923E813F934D814F9369817A818B81A4
:1059B0009C81288539854A855B85620F731F841F0A
:1059C000951F0E94E9509F938F937F936F931F932E
:1059D0000F93FF92EF929F928F923E813F934D8162
:1059E0004F9371010D851E8520913C0130913D0141
:1059F00040913E0150913F01609140017091410101
:105A000080914201909143010E94E80F80915C01D6
:105A100090915D019C01442737FD4095542F2887C4
:105A200039874A875B8760915801709159018827AF
:105A300077FD8095982F0E94E950E62EF72E182FBB
:105A4000092F60915A0170915B01882777FD80953D
:105A5000982F0E94E95069837D83882E992E0FB676
:105A6000F894DEBF0FBECDBF688579858A859B859A
:105A7000640D751D861D971D0E94E9505B016C0128
:105A80000F931F93FF92EF929F928F925D815F938E
:105A900089818F93688579858A859B8564197509C5
:105AA000860997090E94E9509F938F937F936F9384
:105AB0000F931F93FF92EF929F928F929D819F93DE
:105AC000A981AF93E12CF12C810120913401309117
:105AD0003501409136015091370160913801709144
