:1000000089C000000C94B41B0C94081CA2C0000012
:10001000A0C000009EC000009CC000009AC000006C
:1000200098C0000096C0000094C000000C949F0887
:1000300090C000008EC000008CC000008AC000008C
:1000400088C0000086C000000C948E0882C00000AA
:1000500080C000007EC000007CC000007AC00000AC
:1000600078C0000076C0000074C0000072C00000BC
:1000700070C000006EC000006CC000006AC00000CC
:1000800068C0000066C0000064C00000424DAE4C75
:10009000F64CAD4DD24CBE4CE24CAD4D1C4D2D4DF1
:1000A000074DD34DCB4DE34DDB4DF34DEB4D034EA3
:1000B000FB4D134E0B4E234E1B4E334E2B4E084A18
:1000C000D73B3BCE016E84BCBFFDC12F3D6C74316C
:1000D0009ABD56833DDA3D00C77F11BED9E4BB4CC3
:1000E0003E916BAAAABE000000803F072C7AA5BAF9
:1000F0006CC590DA3B9365FC8BBC53F810FD3C5605
:1001000092834DBD879D3AB63DCBC9BF5BBE73DAC6
:100110000FC93F0011241FBECFEFD0E4DEBFCDBF1B
:1001200011E0A0E0B1E0E4E1F6EA00E00BBF02C0BC
:1001300007900D92A236B107D9F724E1A2E6B1E00B
:1001400001C01D92AD35B207E1F70E94C74E0C9475
:10015000085356CFFC0122853385220F331F220F0F
:10016000331F220F331F84859585880F991F880FB1
:10017000991F822B932B20893189822B932B2685E3
:100180003785220F331F822B932B20853185A901C0
:100190004370552742955295507F5427407F5427EE
:1001A000842B952B24703327322F2227822B932BDD
:1001B000428153814F715527542F4427550F842B6B
:1001C000952B08958091230C9091240C83379140B6
:1001D0003CF081E090E0909301018093000108954C
:1001E000109201011092000108958091250C9091C8
:1001F000260C833791403CF081E090E090937901A8
:1002000080937801089510927901109278010895F1
:100210008091270C9091280C833791403CF081E02D
:1002200090E0909377018093760108951092770182
:100230001092760108958091290C90912A0C8337B1
:1002400091403CF081E090E09093750180937401BF
:10025000089510927501109274010895809198018B
:10026000811145C08091230C9091240C90936901D9
:10027000809368018D3D910584F18091250C9091CA
:10028000260C833721E0920734F0209178013091D9
:100290007901232B11F18237914034F48091780158
:1002A000909179010197C9F08091290C90912A0CC5
:1002B000833721E0920734F0209174013091750169
:1002C000232B59F0823791400CF0E3C080917401E8
:1002D00090917501019709F0DCC087DF73DFABDF18
:1002E00081E090E0909377018093760108958130CA
:1002F00009F045C08091250C9091260C90936901DE
:10030000809368018D3D910584F18091270C909137
:10031000280C833721E0920734F020917601309148
:100320007701232B11F18237914034F480917601CB
:10033000909177010197C9F08091230C9091240C42
:10034000833721E0920734F02091000130910101C0
:10035000232B59F0823791400CF09BC08091000113
:1003600090910101019709F094C03FDF2BDF50DF2E
:1003700081E090E09093750180937401089582303C
:1003800009F045C08091270C9091280C9093690149
:10039000809368018D3D910584F18091250C9091A9
:1003A000260C833721E0920734F0209178013091B8
:1003B0007901232B11F18237914034F48091780137
:1003C000909179010197C9F08091290C90912A0CA4
:1003D000833721E0920734F0209174013091750148
:1003E000232B59F0823791400CF053C08091740157
:1003F00090917501019709F04CC0F7DE09DF1BDF12
:1004000081E090E090930101809300010895809134
:10041000290C90912A0C90936901809368018D3D7D
:10042000910574F18091270C9091280C833721E07D
:10043000920734F02091760130917701232B01F15E
:100440008237914034F48091760190917701019741
:10045000B9F08091230C9091240C833721E092070E
:1004600034F02091000130910101232B49F08237B3
:1004700091407CF48091000190910101019749F431
:10048000DADEA0DEC5DE81E090E090937901809312
:100490007801089580917A0190917B01019779F418
:1004A00080917201909173018230910579F00196EB
:1004B000909373018093720180E090E00895109210
:1004C00073011092720180E090E0089581E090E065
:1004D0000895E0DF0197B9F58091AF019091B001E7
:1004E00026E1289FF001299FF00D1124ED54FE4FC5
:1004F00022893389232B39F526E1289FF001299F92
:10050000F00D1124ED54FE4F20813181225031092C
:1005100022303105C0F020916E0130916F012F5FC4
:100520003F4F30936F0120936E0146E1489FF001E9
:10053000499FF00D1124ED54FE4F81E090E0938B24
:10054000828B358B248B089580916C0190916D0185
:10055000892B09F46CC02091AF013091B00186E184
:10056000829FF001839FF00D1124ED54FE4F808196
:10057000918182309105F1F42091000130910101C7
:100580008091780190917901280F391F809176012F
:1005900090917701280F391F809174019091750116
:1005A000280F391F81E090E02330310509F44DC058
:1005B00080E008950397F1F586E1829FF001839F23
:1005C000F00D1124ED54FE4F848195810297A9F519
:1005D0004091000150910101809178019091790141
:1005E000840F951F4091760150917701840F951FDC
:1005F0004091740150917501840F951F039701F18B
:1006000086E1829FF001839FF00D1124ED54FE4F8F
:10061000828193810197B9F481E090E02091990162
:1006200030919A012530310581F080E0089581E014
:1006300090E0089581E090E0089581E090E00895D1
:1006400081E090E0089580E090E008952091A3017A
:100650003091A40180910001909101012817390780
:1006600041F52091A5013091A601809178019091EA
:10067000790128173907E9F42091A7013091A801E1
:1006800080917601909177012817390791F4209194
:10069000A9013091AA0180917401909175012817E8
:1006A000390739F4109271011092700180E090E0E6
:1006B000089580917001909171018130910541F010
:1006C0000196909371018093700180E090E008950D
:1006D00081E090E008954091000150910101209146
:1006E0007601309177018091780190917901840FA2
:1006F000951F820F931F6091740170917501860F91
:10070000971F83309105B9F18230910549F471E06A
:1007100060E04217530709F470E0872F962F089581
:100720000197F1F48091AF019091B001181619066C
:10073000D4F426E1289FF001299FF00D1124EB54F9
:10074000FE4F208131812130310529F4228133810E
:100750002230310559F001977697009791F709C03B
:1007600084E090E0089582E090E0089585E090E0D4
:10077000089582E090E00895BF92CF92DF92EF92C9
:10078000FF920F931F93CF93DF93039709F087C0D6
:10079000A0916C01B0916D01109761F481E090E03F
:1007A00090936D0180936C0190936B0180936A012B
:1007B00090E07AC08091AF019091B00126E1289F2E
:1007C000F001299FF00D1124ED54FE4F808191819D
:1007D0008230910509F466C0039709F04EC01A16DD
:1007E0001B060CF05BC0C091050CD091060CBD013E
:1007F000615071090FEE1BE00F2EF7E7EF2EF02D81
:10080000F12C0F2EF6E1DF2EF02D0F2EF8E7BF2E84
:10081000F02DC12C2AC02081318124173507C1F465
:1008200002C08B2D9C2DD89EF001D99EF00D112475
:10083000ED54FE4F84819581029711F411970DC0FC
:100840001197B0936D01A0936C018A2F9B2F2CC040
:100850000197769781309105F1F66150710928F47E
:10086000B0936D01A0936C0119C0AB01C617D707F7
:10087000C1F2F8018E2D9F2DCECF20916A013091CB
:100880006B012F5F3F4F30936B0120936A013093D0
:100890006D0120936C01822F932F06C005C080E06C
:1008A00090E002C08A2F9B2FDF91CF911F910F9173
:1008B000FF90EF90DF90CF90BF9008950397F1F4F1
:1008C0008091AF019091B00118161906D4F4E5EBB0
:1008D000F1E026E1289FA001299F500D11244B54DF
:1008E0005E4F80E090E0208131816217730709F448
:1008F00001967696E417F507B1F7089580E090E049
:10090000089580E090E00895CF93DF93E4DEC9E995
:10091000D1E09983888330DF90939C0180939B0181
:10092000BC0188819981CADF90939E0180939D01CB
:100930008091980190E09093A00180939F0184E0C2
:1009400090E09093A2018093A10180910001909189
:1009500001019093A4018093A3018091780190916B
:1009600079019093A6018093A501809176019091E1
:1009700077019093A8018093A701809174019091D1
:1009800075019093AA018093A9011092AC01109275
:10099000AB011092AE011092AD01DF91CF9108959D
:1009A0008091AF019091B00126E1289FF001299F2D
:1009B000F00D1124ED54FE4F8091990190919A0110
:1009C0009183808380919B0190919C01938382838A
:1009D00080919D0190919E019583848380919F01D8
:1009E0009091A001978386838091A1019091A201AB
:1009F000918780878091A3019091A401938782873A
:100A00008091A5019091A601958784878091A70187
:100A10009091A801978786878091A9019091AA015A
:100A2000918B808B8091AB019091AC01938B828BE9
:100A30008091AD019091AE01958B848B0895CF92FA
:100A4000DF92EF92FF920F931F93CF93DF9340912A
:100A5000660150916701E3EBF1E069E17CE0C0E001
:100A6000D0E090E0C12CD12C04E010E00F2EF2E099
:100A7000EF2EF1E0FF2EF02D208131812330310562
:100A8000B1F5248135812115310561F49E01220FD4
:100A9000331F2E5F3E4F40855185D9014D935C93A6
:100AA000219622C02130310559F49E01220F331FB7
:100AB00020503F4F40855185D9014D935C9314C020
:100AC0002230310589F4228133812130310521F42E
:100AD000D7010D931C9308C0DE01AA0FBB1FAE5FA8
:100AE000BE4F0D931C9321974C2D5D2D11C0228973
:100AF00033892130310561F4248935892817390774
:100B000029F450936701409366010BC04F5F5F4F1C
:100B10007696E617F70709F0AFCF50936701409339
:100B20006601DF91CF911F910F91FF90EF90DF90C1
:100B3000CF9008958091A5019091A60181309105F3
:100B4000A1F08091A3019091A401019749F08091B7
:100B5000A9019091AA01019731F483E090E00895F2
:100B600080E090E0089582E090E008958091A701F0
:100B70009091A801019781F08091A5019091A60123
:100B80008130910571F08091A3019091A4010197AA
:100B900031F480E090E0089582E090E0089583E0F1
:100BA00090E008958091A9019091AA01019789F0A0
:100BB0008091A7019091A801019771F081E090E0E8
:100BC0002091A5013091A6012130310539F080E056
:100BD000089583E090E0089582E090E00895809188
:100BE000A3019091A401019779F08091A9019091BE
:100BF000AA01019761F08091A7019091A801019746
:100C000049F482E090E0089580E090E0089583E068
:100C100090E0089581E090E008958091990190918D
:100C20009A01892B21F42091980130E01BC080911A
:100C30009801811104C07EDF9C01332713C08130ED
:100C400021F494DF9C0133270DC0823021F4AADF08
:100C50009C01332707C0833021F4C1DF9C01332777
:100C600001C00895822F932F08951092B001109221
:100C7000AF0186E090E09093B4018093B3011092AD
:100C8000B6011092B5011092B8011092B7011092FE
:100C9000BA011092B9011092BC011092BB0181E01F
:100CA00090E09093BE018093BD011092C00110921C
:100CB000BF011092C2011092C1011092C4011092A2
:100CC000C3011092C6011092C5011092C801109282
:100CD000C701089580919701813009F4ADC020F0DB
:100CE000823009F44CC00DC1B9DAF3DBAFDC0197F7
:100CF00059F50ADE81E090E090932C0C80932B0C48
:100D00008CDF80932D0C20DC019709F58091AF01D9
:100D10009091B00101969093B0018093AF0140DEB5
:100D20008091AF019091B00126E1289FF001299FA9
:100D3000F00D1124ED54FE4F80912D0C90E0918721
:100D4000808781E090E005C080E090E002C080E014
:100D500090E02091AF013091B00146E1429FF00157
:100D6000439FF00D1124ED54FE4F20813181253039
:100D7000310509F0D7C022E02093970108958091B2
:100D8000B1019091B201823E910529F13CF4803E7F
:100D9000910559F0813E910599F03DC0833E910542
:100DA00029F1843E910569F136C081E090E090938D
:100DB00063018093620143DE81E0809397012BC041
:100DC00082E090E0909363018093620138DE81E0DD
:100DD0008093970120C083E090E09093630180931B
:100DE00062012DDE81E08093970115C084E090E0E0
:100DF000909363018093620122DE81E080939701EA
:100E00000AC085E090E0909363018093620117DE51
:100E100081E08093970180919801843009F474C037
:100E200081E090E090932C0C80932B0C84E08093D5
:100E30002D0C80E090E0089511DA08DC019741F56F
:100E400063DD8091990190919A010397C1F481E04B
:100E500090E090932C0C80932B0C809164019091E6
:100E60006501FC01EE0FFF1FEE5FFE4F2081209316
:100E70002D0C0196909365018093640109C0CDDE2D
:100E800080932D0C81E090E090932C0C80932B0CA0
:100E9000E0916401F0916501EE0FFF1FEE5FFE4FE0
:100EA00080819181049799F5F5DA019799F5809100
:100EB000AB019091AC01892B81F581E090E090939A
:100EC000AC018093AB01809166019091670100971E
:100ED00081F480919801843019F181E090E0909341
:100EE0002C0C80932B0C84E080932D0C80E090E000
:100EF00008950197909367018093660180E090E0E8
:100F0000089580E090E0089580E090E0089580E00A
:100F100090E0089580E090E0089580E090E00895EA
:100F200080E090E0089585B5846085BD16BCEEE64E
:100F3000F0E08081816080831092310C0895E1EBB4
:100F4000F0E08081866080831092B200E0E7F0E0FC
:100F50008081816080831092300C08956634710521
:100F600009F453C0B4F46E317105D9F144F46A3018
:100F7000710509F472C06431710571F128C06233E2
:100F80007105C9F16C337105D9F168327105F9F455
:100F90002DC0683C710509F44CC05CF46A357105DC
:100FA000F1F16436710509F43FC06035710579F4DB
:100FB00031C0603921E0720709F445C0643F21E087
:100FC000720709F445C06C3221E07207B9F142E3BF
:100FD00050E024E630E045C044E050E022EE30E04E
:100FE00040C047E050E023E530E03BC049E050E03E
:100FF00024EC30E036C04CE050E025E330E031C076
:101000004EE050E026EA30E02CC041E150E027E11C
:1010100030E027C043E150E028E830E022C045E15D
:1010200050E029EF30E01DC048E150E02AE630E012
:1010300018C040E350E024ED30E013C049E450E034
:101040002EE330E00EC041E650E028EA30E009C06F
:101050004AE750E022E130E004C042E050E021E7FE
:1010600030E0009719F0029771F008957093330CF7
:101070006093320C50931D0140931C0130931B016F
:1010800020931A01089570932F0C60932E0C5093A7
:101090001901409318013093170120931601089508
:1010A0002091310C30E080911C0190911D01281796
:1010B00039076CF046B550E081E090E020911A01CC
:1010C00030911B014217530724F480E0089580E01B
:1010D00090E008952091300C30E0809118019091BB
:1010E00019012817390774F04091B20050E081E0EF
:1010F00090E020911601309117014217530724F414
:1011000080E0089580E090E0089516BC1092310CC4
:1011100008951092B2001092300C08951F920F9211
:101120000FB60F9211248F938091310C8F5F8093B3
:10113000310C8F910F900FBE0F901F9018951F923A
:101140000F920FB60F9211248F938091300C8F5F06
:101150008093300C8F910F900FBE0F901F901895B9
:1011600086E081B984E082B980EA84B981E58CBDEA
:101170000895F89494E092B98EBD0DB407FEFDCFAA
:101180008EB58093340C86E082B978940895F894F3
:1011900092E092B98EBD0DB407FEFDCF8EB580935F
:1011A000340C86E082B978940895CF93DF93C62FEC
:1011B000D72FEDDF8AE18A95F1F700C08D2FE7DFA9
:1011C0008AE18A95F1F700C08C2FE1DF8AE18A95E8
:1011D000F1F700C0DF91CF910895CF93CADF8AE184
:1011E0008A95F1F700C088EBC4DFC091340C8AE126
:1011F0008A95F1F700C088EBBCDF2091340C8C2F6E
:1012000090E0982F8827820F911DCF91089580E15B
:101210008AB91BB81092C5001092C40088E180936F
:10122000C10086E08093C2000895E0ECF0E0908178
:1012300095FFFDCF8093C6000895CF92EF92FF9265
:101240000F931F93CF93DF93C82FD62F142FF22E17
:1012500080E18BB9E0ECF0E0808180838FEFE5DF07
:101260008FEFE3DF8C2FE1DF87E0DFDF8D2FDDDF26
:10127000812FDBDF8F2DD9DF802FD7DF8E2DD5DFBC
:101280008C2DD3DFF89487E08C0DE80E0E0DF00E58
:101290001F0DD10F8D2F8C0F8095C7DFE0ECF0E094
:1012A000808186FFFDCF1BB87894DF91CF911F918D
:1012B0000F91FF90EF90CF9008959B01AC01A8EEA5
:1012C000B3E00E94B9522091320C3091330CA90145
:1012D000440F551F240F351F220F331F442737FD9E
:1012E0004095542F0E9497522230310541055105F7
:1012F0002CF462E070E080E090E00895622F732F9C
:10130000842F952F08954F925F926F927F928F92C4
:101310009F92AF92BF92CF92DF92EF92FF920F9384
:101320001F93CF93DF93EC01680179014D3281E087
:10133000580761057105E0F5AFEFB3E09A01AB0125
:101340000E94B9522CE231E040E050E00E949752F6
:1013500049015A019924AA24BB24432E512C82E727
:10136000C816D104E104F104A4F4AFEFB3E0A7017F
:1013700096010E94B95222E730E040E050E00E941E
:10138000975279018A01FF2400271127432F50E04B
:1013900006C040E050E0BA01E12CF12C87016A015F
:1013A000820194014EE150E063E070E0CE0145DF40
:1013B000DF91CF911F910F91FF90EF90DF90CF9031
:1013C000BF90AF909F908F907F906F905F904F9065
:1013D00008954F925F926F927F928F929F92AF92F9
:1013E000BF92CF92DF92EF92FF920F931F93CF9312
:1013F000DF93CDB7DEB760970FB6F894DEBF0FBEB0
:10140000CDBF2B013C0149015A01E982FA820B83CD
:101410001C83860190580E94DA4F6D877E878F87E4
:10142000988B29813A814B815C81CA01B9010E9464
:10143000C7516B017C01A3019201C301B2010E945B
:10144000C7512B013C01A5019401C501B4010E94C3
:10145000C7519B01AC01C301B2010E94674F2B0130
:101460003C010E942E5220E030E048E452E40E9409
:10147000664F4B015C019B01AC010E94C7516D831B
:101480007E838F8398879B01AC01C701B6010E94C0
:10149000674F69877A878B879C870E942E529B01B2
:1014A000AC0169817A818B819C8190580E94315076
:1014B0000E94584F69837A838B839C8320E030E0BD
:1014C00048E452E4C301B2010E94664F0E942E52CA
:1014D0009B01AC01C501B4010E94C7519B01AC0145
:1014E000C701B6010E94674F0E942E522B013C019A
:1014F00020E038E44CE855E469857A858B859C8545
:101500000E94674F20E038E044E856E40E94664FAE
:101510004B015C01A3019201C301B2010E94674F1C
:1015200020E030E046E852E40E94C7519B01AC0144
:10153000C501B4010E9431500E94584F2B013C015B
:10154000A701960160E07AE187EA96E40E94664F7F
:101550002D813E814F8158850E94664F20E038E101
:1015600048E856E40E9431500E94584F4B015C01FC
:101570006801EE24D7FCE094FE2C20E030E044E348
:1015800053E46D857E858F8598890E94C75128ED2B
:101590003FE049E450E40E9431500E949950AB0171
:1015A000BC0147595F4F6F4F7F4F97018601809174
:1015B000400190914101A7DEA301920169817A81E6
:1015C0008B819C810E94674F24EE3EE245E652E407
:1015D0000E94C7510E949950AB01BC01455B5F4F0F
:1015E0006F4F7F4F97018601809142019091430197
:1015F0008ADE20E030E044E353E4C501B4010E94F8
:10160000C75128ED3FE049E450E40E9431500E9468
:101610009950AB01BC014F5F5F4F6F4F7F4F9701F8
:10162000860180914401909145016DDE60960FB670
:10163000F894DEBF0FBECDBFDF91CF911F910F9108
:10164000FF90EF90DF90CF90BF90AF909F908F90E2
:101650007F906F905F904F9008954F925F926F923E
:101660007F928F929F92AF92BF92CF92DF92EF9232
:10167000FF920F931F93CF93DF93CDB7DEB76097A1
:101680000FB6F894DEBF0FBECDBF2B013C01490160
:101690005A01E982FA820B831C83860190580E94CA
:1016A000DA4F6D877E878F87988B29813A814B81AE
:1016B0005C81CA01B9010E94C7516B017C01A30181
:1016C0009201C301B2010E94C7512B013C01A50147
:1016D0009401C501B4010E94C7519B01AC01C30133
:1016E000B2010E94674F2B013C010E942E5220E064
:1016F00030E048E452E40E94664F4B015C019B01DC
:10170000AC010E94C7516D837E838F8398879B01B4
:10171000AC01C701B6010E94674F69877A878B8742
:101720009C870E942E529B01AC0169817A818B813A
:101730009C8190580E9431500E94584F69837A834F
:101740008B839C8320E030E048E452E4C301B20183
:101750000E94664F0E942E529B01AC01C501B4014C
:101760000E94C7519B01AC01C701B6010E94674F9F
:101770000E942E522B013C0120E038E44CE855E455
:1017800069857A858B859C850E94674F20E038E0CB
:1017900044E856E40E94664F4B015C01A3019201AC
:1017A000C301B2010E94674F20E030E046E852E4F6
:1017B0000E94C7519B01AC01C501B4010E94315088
:1017C0000E94584F2B013C01A701960160E07AE18D
:1017D00087EA96E40E94664F2D813E814F815885AD
:1017E0000E94664F20E038E148E856E40E943150FC
:1017F0000E94584F4B015C016801EE24D7FCE09435
:10180000FE2C20E030E044E353E46D857E858F8537
:1018100098890E94C75128ED3FE049E450E40E94B6
:1018200031500E949950AB01BC014F535F4F6F4F35
:101830007F4F97018601809138019091390163DDD6
:10184000A301920169817A818B819C810E94674FFB
:1018500024EE3EE245E652E40E94C7510E949950B0
:10186000AB01BC01455B5F4F6F4F7F4F9701860116
:1018700080913A0190913B0146DD20E030E044E365
:1018800053E4C501B4010E94C75128ED3FE049E48B
:1018900050E40E9431500E949950AB01BC014D5F51
:1018A0005F4F6F4F7F4F9701860180913C01909170
:1018B0003D0129DD60960FB6F894DEBF0FBECDBFA7
:1018C000DF91CF911F910F91FF90EF90DF90CF901C
:1018D000BF90AF909F908F907F906F905F904F9050
:1018E00008954F925F926F927F928F929F92AF92E4
:1018F000BF92CF92DF92EF92FF920F931F93CF93FD
:10190000DF93CDB7DEB760970FB6F894DEBF0FBE9A
:10191000CDBF2B013C0149015A01E982FA820B83B8
:101920001C83860150580E94DA4F6D877E878F870F
:10193000988B29813A814B815C81CA01B9010E944F
:10194000C7516B017C01A3019201C301B2010E9446
:10195000C7512B013C01A5019401C501B4010E94AE
:10196000C7519B01AC01C301B2010E94674F2B011B
:101970003C010E942E5220E030E048E452E40E94F4
:10198000664F4B015C019B01AC010E94C7516D8306
:101990007E838F8398879B01AC01C701B6010E94AB
:1019A000674F69877A878B879C870E942E529B019D
:1019B000AC0169817A818B819C8190580E94315061
:1019C0000E94584F69837A838B839C8320E030E0A8
:1019D00048E452E4C301B2010E94664F0E942E52B5
:1019E0009B01AC01C501B4010E94C7519B01AC0130
:1019F000C701B6010E94674F0E942E522B013C0185
:101A000020E038E44CE855E469857A858B859C852F
:101A10000E94674F20E038E044E856E40E94664F99
:101A20004B015C01A3019201C301B2010E94674F07
:101A300020E030E046E852E40E94C7519B01AC012F
:101A4000C501B4010E9431500E94584F2B013C0146
:101A5000A701960160E07AE187EA96E40E94664F6A
:101A60002D813E814F8158850E94664F20E038E1EC
:101A700048E856E40E9431500E94584F4B015C01E7
:101A80006801EE24D7FCE094FE2C20E030E044E333
:101A900053E46D857E858F8598890E94C75128ED16
:101AA0003FE049E450E40E9431500E949950AB015C
:101AB000BC014D535F4F6F4F7F4F9701860180915F
:101AC0003001909131011FDCA301920169817A817B
:101AD0008B819C810E94674F24EE3EE245E652E4F2
:101AE0000E94C7510E9499500F2EF1EE4F2E512C9B
:101AF000612C712CF02D93018201061B170B280B12
:101B0000390BB901A80197018601809132019091AA
:101B10003301F9DB20E030E044E353E4C501B401D4
:101B20000E94C75128ED3FE049E450E40E94315043
:101B30000E9499500F2EFCE28F2E99249394A12C91
:101B4000B12CF02D95018401061B170B280B390BC6
:101B5000B901A80197018601809134019091350166
:101B6000D2DB60960FB6F894DEBF0FBECDBFDF911B
:101B7000CF911F910F91FF90EF90DF90CF90BF908A
:101B8000AF909F908F907F906F905F904F9008954F
:101B90004F925F926F927F928F929F92AF92BF927D
:101BA000CF92DF92EF92FF920F931F93CF93DF9329
:101BB000CDB7DEB760970FB6F894DEBF0FBECDBFCE
:101BC0002B013C0149015A01E982FA820B831C83F3
:101BD000860150580E94DA4F6D877E878F87988BD9
:101BE00029813A814B815C81CA01B9010E94C751A8
:101BF0006B017C01A3019201C301B2010E94C75194
:101C00002B013C01A5019401C501B4010E94C751FB
:101C10009B01AC01C301B2010E94674F2B013C0143
:101C20000E942E5220E030E048E452E40E94664FC9
:101C30004B015C019B01AC010E94C7516D837E8307
:101C40008F8398879B01AC01C701B6010E94674F43
:101C500069877A878B879C870E942E529B01AC01F3
:101C600069817A818B819C8190580E9431500E94B9
:101C7000584F69837A838B839C8320E030E048E46B
:101C800052E4C301B2010E94664F0E942E529B0192
:101C9000AC01C501B4010E94C7519B01AC01C70151
:101CA000B6010E94674F0E942E522B013C0120E09A
:101CB00038E44CE855E469857A858B859C850E94DB
:101CC000674F20E038E044E856E40E94664F4B013D
:101CD0005C01A3019201C301B2010E94674F20E0A1
:101CE00030E046E852E40E94C7519B01AC01C501B7
:101CF000B4010E9431500E94584F2B013C01A701B2
:101D0000960160E07AE187EA96E40E94664F2D81B1
:101D10003E814F8158850E94664F20E038E148E8B7
:101D200056E40E9431500E94584F4B015C016801FB
:101D3000EE24D7FCE094FE2C20E030E044E353E4B2
:101D40006D857E858F8598890E94C75128ED3FE07B
:101D500049E450E40E9431500E949950AB01BC010B
:101D600047595F4F6F4F7F4F970186018091280140
:101D700090912901C8DAA301920169817A818B814E
:101D80009C810E94674F24EE3EE245E652E40E94A9
:101D9000C7510E9499500F2EF1EE4F2E512C612CFD
:101DA000712CF02D93018201061B170B280B390BA8
:101DB000B901A8019701860180912A0190912B0118
:101DC000A2DA20E030E044E353E4C501B4010E940C
:101DD000C75128ED3FE049E450E40E9431500E9491
:101DE00099500F2EFCE28F2E99249394A12CB12CA4
:101DF000F02D95018401061B170B280B390BB90137
:101E0000A8019701860180912C0190912D017BDA28
:101E100060960FB6F894DEBF0FBECDBFDF91CF91B5
:101E20001F910F91FF90EF90DF90CF90BF90AF90F8
:101E30009F908F907F906F905F904F9008954F92FA
:101E40005F926F927F928F929F92AF92BF92CF924A
:101E5000DF92EF92FF920F931F93C0902401D090D6
:101E6000250160915A0170915B01882777FD80956B
:101E7000982F0E94CC502B013C0160915C01709125
:101E80005D01882777FD8095982F0E94CC504B01EB
:101E90005C0160915E0170915F01719561957109BE
:101EA000882777FD8095982F0E94CC50830172017E
:101EB000A50194018EDAC0902401D0902501609193
:101EC0005A0170915B01882777FD8095982F0E94B9
:101ED000CC502B013C0160915C0170915D01882721
:101EE00077FD8095982F0E94CC504B015C0160914A
:101EF0005E0170915F01882777FD8095982F0E9481
:101F0000CC5083017201A5019401A7DBC09024018C
:101F1000D090250160915A0170915B01882777FD6F
:101F20008095982F0E94CC502B013C0160915C0160
:101F300070915D01719561957109882777FD809594
:101F4000982F0E94CC504B015C0160915E01709112
:101F50005F01719561957109882777FD8095982FAC
:101F60000E94CC5083017201A5019401BADCC0909B
:101F70002401D090250160915A0170915B0188275E
:101F800077FD8095982F0E94CC502B013C016091E9
:101F90005C0170915D01719561957109882777FDEC
:101FA0008095982F0E94CC504B015C0160915E019E
:101FB00070915F01882777FD8095982F0E94CC5003
:101FC00083017201A5019401E3DD1F910F91FF9040
:101FD000EF90DF90CF90BF90AF909F908F907F90C9
:101FE0006F905F904F900895809180019091810152
:101FF0002091200130912101821793075CF010920B
:1020000081011092800181E090E090932301809300
:1020100022010895AC014F5F5F4F509381014093BF
:102020008001421753072CF01092230110922201D5
:1020300008950296909323018093220108952F9290
:102040003F924F925F926F927F928F929F92AF9248
:10205000BF92CF92DF92EF92FF920F931F93CF9395
:10206000DF93CDB7DEB7E6970FB6F894DEBF0FBEAD
:10207000CDBF29833A834B835C836D837E838F83BB
:10208000988717012F964CAC5DAC6EAC7FAC2F9748
:1020900029813A813E8B2D8B4B815C81588F4F8BF0
:1020A0008D809E80EF80F884C9010197029788F4A3
:1020B000D7FAD094D7F8D09467968CAD9DADAEADDD
:1020C000BFAD6797B05867968CAF9DAFAEAFBFAF4F
:1020D00067978D899E890397029788F477FA7094A1
:1020E00077F870946B962CAD3DAD4EAD5FAD6B97B0
:1020F00050586B962CAF3DAF4EAF5FAF6B97B801AA
:10210000882777FD8095982F0E94CC5069877A8721
:102110008B879C87A601950167966CAD7DAD8EADD2
:102120009FAD67970E94664F29853A854B855C85F0
:102130000E9431506BA77CA78DA79EA7A301920197
:102140006B966CAD7DAD8EAD9FAD6B970E94664F6B
:1021500029853A854B855C850E9431506FA778AB05
:1021600089AB9AAB63962CAD3DAD4EAD5FAD639739
:102170006F966CAD7DAD8EAD9FAD6F970E94664F33
:1021800029853A854B855C850E9431506BAB7CABD1
:102190008DAB9EABA101400F511F5AA749A7241632
:1021A00035060CF0B8C224E1AF89B88D2A9FC00172
:1021B0002B9F900D1124820D931D880F991F880F5E
:1021C000991FFC01E55BFF4EFAA3E9A3289DC0011E
:1021D000299D900D1124820D931D880F991F880F42
:1021E000991FAC01455B5F4E58A34F8F2E9DC001D8
:1021F0002F9D900D1124820D931D880F991F880F1C
:10220000991FDC01A55BBF4EBCA3ABA38101000FEE
:10221000111F000F111F0B57134FA986BA86CB86CB
:10222000DC864D865E866F86788A2BA53CA54DA5FB
:102230005EA569857A858B859C850E94674F698735
:102240007A878B879C872FA538A949A95AA96D85BC
:102250007E858F8598890E94674F6D877E878F87DF
:10226000988B2BA93CA94DA95EA963966CAD7DAD59
:102270008EAD9FAD63970E94674F63966CAF7DAF45
:102280008EAF9FAF63972D853E854F8558896985B1
:102290007A858B859C850E94DA4F20E030E044E30C
:1022A00053E40E94C75128ED3FE049E450E40E9406
:1022B00031500E9499506DA37EA38FA398A7639677
:1022C0002CAD3DAD4EAD5FAD6397CA01B9010E9423
:1022D000C751698B7A8B8B8B9C8B29853A854B8573
:1022E0005C85CA01B9010E94C7516B017C012D8533
:1022F0003E854F855889CA01B9010E94C7519B018B
:10230000AC01C701B6010E94674F6F8B788F898F30
:102310009A8F0E942E5220E030E048E452E40E945E
:10232000664F6B017C019B01AC010E94C7516B8F12
:102330007C8F8D8F9E8F9B01AC0169897A898B89F7
:102340009C890E94674F4B015C010E942E529B01A9
:10235000AC0163966CAD7DAD8EAD9FAD639790582B
:102360000E9431500E94584F2B013C0120E030E088
:1023700048E452E46F89788D898D9A8D0E94664F6A
:102380000E942E529B01AC01C701B6010E94C751A9
:102390009B01AC0169897A898B899C890E94674F6E
:1023A0000E942E526B017C0120E038E44CE855E499
:1023B000C501B4010E94674F20E038E044E856E4CC
:1023C0000E94664F4B015C01A7019601C701B6014F
:1023D0000E94674F20E030E046E852E40E94C75177
:1023E0009B01AC01C501B4010E9431500E94584FBD
:1023F0009B01AC01C301B2010E94674F24EE3EE293
:1024000045E652E40E94C7510E9499506B017C013D
:1024100029893A894B895C8960E07AE187EA96E408
:102420000E94664F2B8D3C8D4D8D5E8D0E94664FB8
:1024300020E038E148E856E40E9431500E94584FAD
:1024400020E030E044E353E40E94C75128ED3FE030
:1024500049E450E40E9431500E949950ED89FE8970
:10246000E230F10509F457C01CF4319761F038C12E
:102470002D893E892330310509F496C02430310579
:1024800009F4E1C02DC18DA09EA0AFA0B8A439E68B
:10249000830E911CA11CB11CA9A1BAA18D929D9281
:1024A000AD92BC921397BBE4CB0ED11CE11CF11C86
:1024B000EF8DF8A1C082D182E282F382DC01CB01F0
:1024C0000196A11DB11DEBA1FCA180839183A28384
:1024D000B38329853A854B855C85D8012D933D933F
:1024E0004D935C931397F801E05BFF4F2D853E857C
:1024F0004F8558892083318342835383E05BFF4FAC
:1025000063968CAD9DADAEADBFAD63978083918377
:10251000A283B383E5C08DA09EA0AFA0B8A4A1EC18
:102520008A0E911CA11CB11CE9A1FAA180829182A2
:10253000A282B382FBE4CF0ED11CE11CF11CAF8D53
:10254000B8A1CD92DD92ED92FC921397DC01CB0104
:102550000396A11DB11DEBA1FCA180839183A283F1
:10256000B383F801E051FF4F89859A85AB85BC851F
:10257000B05880839183A283B383E05BFF4F2D85A6
:102580003E854F8558892083318342835383E05BA6
:10259000FF4F63968CAD9DADAEADBFAD63978083AD
:1025A0009183A283B3839CC08DA09EA0AFA0B8A44A
:1025B000A3EC8A0E911CA11CB11CE9A1FAA1808296
:1025C0009182A282B38221EE30E040E050E02C19EB
:1025D0003D094E095F09AF8DB8A12D933D934D93F1
:1025E0005C9313972CE231E040E050E0261B370B60
:1025F000480B590BEBA1FCA1208331834283538309
:10260000F801E052FE4F89859A85AB85BC85B058AC
:1026100080839183A283B383E05BFF4F2D853E854A
:102620004F8558892083318342835383E05BFF4F7A
:1026300063968CAD9DADAEADBFAD63978083918346
:10264000A283B3834DC08DA09EA0AFA0B8A4A9E67D
:102650008A0E911CA11CB11CE9A1FAA18082918271
:10266000A282B38221EE30E040E050E02C193D0917
:102670004E095F09AF8DB8A12D933D934D935C93A7
:1026800013972CE231E040E050E0261B370B480B5B
:10269000590BEBA1FCA12083318342835383F801C2
:1026A000E053FD4F29853A854B855C852083318336
:1026B00042835383E05BFF4F8D859E85AF85B8894C
:1026C00080839183A283B383E05BFF4F63962CAD3D
:1026D0003DAD4EAD5FAD639720833183428353831D
:1026E0003FEF231A330A49A15AA14C5F5F4F5AA307
:1026F00049A38F8D98A1049698A38F8FABA1BCA1FD
:102700001496BCA3ABA30C5F1F4FE9A5FAA52E1628
:102710003F0609F08ACDE6960FB6F894DEBF0FBEED
:10272000CDBFDF91CF911F910F91FF90EF90DF9080
:10273000CF90BF90AF909F908F907F906F905F9061
:102740004F903F902F9008952F923F924F925F921B
:102750006F927F928F929F92AF92BF92CF92DF92B1
:10276000EF92FF920F931F93CF93DF93CDB7DEB716
:10277000CA54D1090FB6F894DEBF0FBECDBF29836E
:102780003A834B835C836D837E838F839887259602
:102790001FAF0EAF2597FCAAEBAAA7964CAC5DAC79
:1027A0006EAC7FACA79729803A802B813C8127961D
:1027B0003FAF2EAF27974D815E8129965FAF4EAF19
:1027C00029978F8198852B969FAF8EAF2B971123DA
:1027D00014F40F5F1F4F15950795ABA9BCA9A00F67
:1027E000B11FBAA7A9A71197BAAFA9AFC1010197A5
:1027F000029788F4D7FAD094D7F8D094AB962CAD42
:102800003DAD4EAD5FADAB975058AB962CAF3DAFE5
:102810004EAF5FAFAB97C10103970297D0F4A39679
:102820008CAD9DADAEADBFADA397B058A3968CAFA8
:102830009DAFAEAFBFAFA397AF962CAD3DAD4EAD44
:102840005FADAF975058AF962CAF3DAF4EAF5FAF77
:10285000AF9725964EAD5FAD2597BA01882777FDD6
:102860008095982F0E94CC5069877A878B879C87A8
:10287000A6019501AB966CAD7DAD8EAD9FADAB97CE
:102880000E94664F29853A854B855C850E943150B0
:102890006BA77CA78DA79EA7A3962CAD3DAD4EAD93
:1028A0005FADA397AF966CAD7DAD8EAD9FADAF978D
:1028B0000E94664F29853A854B855C850E94315080
:1028C0006FA778AB89AB9AAB6091580170915901B1
:1028D000882777FD8095982F0E94CC5069877A874A
:1028E0008B879C87B801882777FD8095982F0E9459
:1028F000CC506D877E878F87988BE3962CAD3DAD4E
:102900004EAD5FADE39769857A858B859C850E9486
:10291000674FA30192010E94664F2D853E854F852A
:1029200058890E9431506BAF7CAF8DAF9EAFA30131
:102930009201E3966CAD7DAD8EAD9FADE3970E94A5
:10294000664F29853A854B855C850E94664F2D85AB
:102950003E854F8558890E94315023966CAF7DAFDC
:102960008EAF9FAF23978BA99CA9A9ADBAADA8172D
:10297000B9070CF4D3C224E12796EEADFFAD27973B
:102980002E9FC0012F9F900D11244BA95CA9840F8D
:10299000951F880F991F880F991FDC01A55BBF4EFB
:1029A000BAA3A9A32996EEADFFAD29972E9FC0012A
:1029B0002F9F900D1124840F951F880F991F880F4A
:1029C000991FAC01455B5F4E5CA34BA32B96AEAD4C
:1029D000BFAD2B972A9FC0012B9F900D1124EBA90F
:1029E000FCA98E0F9F1F880F991F880F991F9C01AC
:1029F000255B3F4E8F01000F111F000F111F0B575A
:102A0000134F3E8A2D8A1F013EA32DA3A986BA86A5
:102A1000CB86DC864D865E866F86788A2BA53CA5A4
:102A20004DA55EA569857A858B859C850E94674F3B
:102A300069877A878B879C872FA538A949A95AA9C6
:102A4000A3966CAD7DAD8EAD9FADA3970E94674FF1
:102A5000A3966CAF7DAF8EAF9FAFA3972BAD3CAD70
:102A60004DAD5EAD6D857E858F8598890E94674FDF
:102A70006D877E878F87988BA3962CAD3DAD4EAD2D
:102A80005FADA39769857A858B859C850E94DA4F17
:102A900020E030E044E353E40E94C75128ED3FE0DA
:102AA00049E450E40E9431500E9499506DAB7EABD6
:102AB0008FAB98AF2D853E854F855889CA01B901E6
:102AC0000E94C751698B7A8B8B8B9C8B29853A85A9
:102AD0004B855C85CA01B9010E94C7516B017C011D
:102AE000A3962CAD3DAD4EAD5FADA397CA01B90124
:102AF0000E94C7519B01AC01C701B6010E94674FFC
:102B0000698F7A8F8B8F9C8F0E942E5220E030E04D
:102B100048E452E40E94664F6B017C019B01AC01CA
:102B20000E94C7516D8F7E8F8F8F98A39B01AC0140
:102B300069897A898B899C890E94674F4B015C0166
:102B40000E942E529B01AC016D857E858F859889F0
:102B500090580E9431500E94584F2B013C0120E0B8
:102B600030E048E452E4698D7A8D8B8D9C8D0E9413
:102B7000664F0E942E529B01AC01C701B6010E9414
:102B8000C7519B01AC0169897A898B899C890E9414
:102B9000674F0E942E526B017C0120E038E44CE824
:102BA00055E4C501B4010E94674F20E038E044E8D5
:102BB00056E40E94664F4B015C01A7019601C701D4
:102BC000B6010E94674F20E030E046E852E40E94E0
:102BD000C7519B01AC01C501B4010E9431500E9454
:102BE000584F9B01AC01C301B2010E94674F24EE14
:102BF0003EE245E652E40E94C7510E9499506B01A3
:102C00007C0129893A894B895C8960E07AE187EA0D
:102C100096E40E94664F2D8D3E8D4F8D58A10E94E7
:102C2000664F20E038E148E856E40E9431500E94A7
:102C3000584F20E030E044E353E40E94C75128EDB0
:102C40003FE049E450E40E9431500E9499504D8980
:102C50005E894230510509F457C024F441305105D2
:102C600059F037C1AD89BE89A330B10509F495C0CB
:102C7000149709F4E1C02DC18DA89EA8AFA8B8ACE7
:102C8000B9E68B0E911CA11CB11CE9A1FAA18082AE
:102C90009182A282B382FBE4CF0ED11CE11CF11C15
:102CA000ABA1BCA1CD92DD92ED92FC921397DC0119
:102CB000CB010196A11DB11DEDA1FEA180839183E1
:102CC000A283B38329853A854B855C85D8012D93F2
:102CD0003D934D935C931397F801E05BFF4FA396F0
:102CE0002CAD3DAD4EAD5FADA397208331834283C4
:102CF0005383E05BFF4F8D859E85AF85B8898083C8
:102D00009183A283B383E5C08DA89EA8AFA8B8AC79
:102D1000A1EC8A0E911CA11CB11CE9A1FAA1808230
:102D20009182A282B382FBE4CF0ED11CE11CF11C84
:102D3000ABA1BCA1CD92DD92ED92FC921397DC0188
:102D4000CB010396A11DB11DEDA1FEA1808391834E
:102D5000A283B383F801E051FF4F89859A85AB8543
:102D6000BC85B05880839183A283B383E05BFF4F1F
:102D7000A3962CAD3DAD4EAD5FADA39720833183BF
:102D800042835383E05BFF4F8D859E85AF85B88975
:102D900080839183A283B3839CC08DA89EA8AFA893
:102DA000B8ACA3EC8A0E911CA11CB11CE9A1FAA13C
:102DB00080829182A282B38221EE30E040E050E036
:102DC0002C193D094E095F09ABA1BCA12D933D9380
:102DD0004D935C9313972CE231E040E050E0261BCA
:102DE000370B480B590BEDA1FEA1208331834283A1
:102DF0005383F801E052FE4F89859A85AB85BC85E7
:102E0000B05880839183A283B383E05BFF4FA39686
:102E10002CAD3DAD4EAD5FADA39720833183428392
:102E20005383E05BFF4F8D859E85AF85B889808396
:102E30009183A283B3834DC08DA89EA8AFA8B8ACE0
:102E4000A9E68A0E911CA11CB11CE9A1FAA18082FD
:102E50009182A282B38221EE30E040E050E02C1952
:102E60003D094E095F09ABA1BCA12D933D934D9344
:102E70005C9313972CE231E040E050E0261B370BC7
:102E8000480B590BEDA1FEA120833183428353836C
:102E9000F801E053FD4F29853A854B855C852083F9
:102EA000318342835383E05BFF4FA3968CAD9DAD8E
:102EB000AEADBFADA39780839183A283B383E05B64
:102EC000FF4F2D853E854F8558892083318342836E
:102ED00053833FEF231A330A49A15AA14C5F5F4F36
:102EE0005AA349A38BA19CA104969CA38BA3ADA13B
:102EF000BEA11496BEA3ADA30C5F1F4FE9ADFAAD02
:102F0000E215F3050CF08ACD2D883E88A984BA8499
:102F1000CB84DC844D845E846F8478882BA93CA9A3
:102F200025964EAD5FAD2597240F351F3CAB2BABDF
:102F300089A59AA5821793070CF0CCC224E12796A5
:102F4000AEADBFAD27972A9FC0012B9F900D1124D6
:102F5000E9A5FAA58E0F9F1F880F991F880F991F4B
:102F6000AC01455B5F4E7A012996AEADBFAD2997A6
:102F70002A9FC0012B9F900D11248E0F9F1F880F39
:102F8000991F880F991FFC01E55BFF4EFE8FED8FA7
:102F90002B964EAD5FAD2B97249FC001259F900DC2
:102FA0001124A9A5BAA58A0F9B1F880F991F880F06
:102FB000991FFC01E55BFF4EFAA3E9A38D01000F09
:102FC000111F000F111F0B57134FFCA2EBA2A98674
:102FD000BA86CB86DC864D865E866F86788A2BA580
:102FE0003CA54DA55EA569857A858B859C850E944B
:102FF000674F69877A878B879C872FA538A949A94E
:103000005AA9A3966CAD7DAD8EAD9FADA3970E94DE
:10301000674FA3966CAF7DAF8EAF9FAFA3972396FC
:103020002CAD3DAD4EAD5FAD23976D857E858F8513
:1030300098890E94674F6D877E878F87988BA396AC
:103040002CAD3DAD4EAD5FADA39769857A858B857F
:103050009C850E94DA4F20E030E044E353E40E9474
:10306000C75128ED3FE049E450E40E9431500E94EE
:1030700099506DA37EA38FA398A72D853E854F857C
:103080005889CA01B9010E94C751698B7A8B8B8B11
:103090009C8B29853A854B855C85CA01B9010E94C4
:1030A000C7516B017C01A3962CAD3DAD4EAD5FAD1C
:1030B000A397CA01B9010E94C7519B01AC01C70186
:1030C000B6010E94674F6D8B7E8B8F8B988F0E940D
:1030D0002E5220E030E048E452E40E94664F6B013B
:1030E0007C019B01AC010E94C751698F7A8F8B8F45
:1030F0009C8F9B01AC0169897A898B899C890E948C
:10310000674F4B015C010E942E529B01AC016D8503
:103110007E858F85988990580E9431500E94584F23
:103120002B013C0120E030E048E452E46D897E89C7
:103130008F89988D0E94664F0E942E529B01AC0190
:10314000C701B6010E94C7519B01AC0169897A8908
:103150008B899C890E94674F0E942E526B017C01D3
:1031600020E038E44CE855E4C501B4010E94674F03
:1031700020E038E044E856E40E94664F4B015C01D1
:10318000A7019601C701B6010E94674F20E030E019
:1031900046E852E40E94C7519B01AC01C501B4014D
:1031A0000E9431500E94584F9B01AC01C301B201F3
:1031B0000E94674F24EE3EE245E652E40E94C7516A
:1031C0000E9499506B017C0129893A894B895C895D
:1031D00060E07AE187EA96E40E94664F298D3A8D95
:1031E0004B8D5C8D0E94664F20E038E148E856E444
:1031F0000E9431500E94584F20E030E044E353E4F5
:103200000E94C75128ED3FE049E450E40E9431504C
:103210000E949950F2E02F16310409F459C02CF4A1
:1032200031E02316310461F038C143E02416310443
:1032300009F497C054E02516310409F4E1C02DC10A
:103240008DA09EA0AFA0B8A4A9E68A0E911CA11CD7
:10325000B11CEBA1FCA180829182A282B382FBE42B
:10326000CF0ED11CE11CF11CAD8DBE8DCD92DD9237
:10327000ED92FC921397DC01CB010196A11DB11DCB
:10328000E9A1FAA180839183A283B38329853A853A
:103290004B855C85D8012D933D934D935C9313979B
:1032A000F801E05BFF4FA3962CAD3DAD4EAD5FAD99
:1032B000A3972083318342835383E05BFF4F8D8547
:1032C0009E85AF85B88980839183A283B383E5C04F
:1032D0008DA09EA0AFA0B8A4A1EC8A0E911CA11C49
:1032E000B11CEBA1FCA180829182A282B382FBE49B
:1032F000CF0ED11CE11CF11CAD8DBE8DCD92DD92A7
:10330000ED92FC921397DC01CB010396A11DB11D38
:10331000E9A1FAA180839183A283B383F801E051EC
:10332000FF4F89859A85AB85BC85B0588083918392
:10333000A283B383E05BFF4FA3962CAD3DAD4EADB2
:103340005FADA3972083318342835383E05BFF4FBC
:103350008D859E85AF85B88980839183A283B38351
:103360009CC08DA09EA0AFA0B8A4A3EC8A0E911C17
:10337000A11CB11CEBA1FCA180829182A282B3822C
:1033800021EE30E040E050E02C193D094E095F0984
:10339000AD8DBE8D2D933D934D935C9313972CE291
:1033A00031E040E050E0261B370B480B590BE9A1F8
:1033B000FAA12083318342835383F801E052FE4F08
:1033C00089859A85AB85BC85B05880839183A2831B
:1033D000B383E05BFF4FA3962CAD3DAD4EAD5FAD2B
:1033E000A3972083318342835383E05BFF4F8D8516
:1033F0009E85AF85B88980839183A283B3834DC0B6
:103400008DA09EA0AFA0B8A4A9E68A0E911CA11C15
:10341000B11CEBA1FCA180829182A282B38221EE39
:1034200030E040E050E02C193D094E095F09AD8DB8
:10343000BE8D2D933D934D935C9313972CE231E019
:1034400040E050E0261B370B480B590BE9A1FAA1CD
:103450002083318342835383F801E053FD4F298554
:103460003A854B855C852083318342835383E05BBF
:10347000FF4FA3968CAD9DADAEADBFADA39780833E
:103480009183A283B383E05BFF4F2D853E854F85FB
:103490005889208331834283538349A55AA54F5FBE
:1034A0005F4F5AA749A78BA19CA104969CA38BA30D
:1034B000AD8DBE8D1496BE8FAD8FE9A1FAA1349665
:1034C000FAA3E9A30C5F1F4F2BA93CA9421753078E
:1034D00009F085CDC65BDF4F0FB6F894DEBF0FBE97
:1034E000CDBFDF91CF911F910F91FF90EF90DF90B3
:1034F000CF90BF90AF909F908F907F906F905F9094
:103500004F903F902F9008954F925F926F927F92CD
:103510008F929F92AF92BF92CF92DF92EF92FF92E3
:103520000F931F93CF93DF93CDB7DEB728970FB6D6
:10353000F894DEBF0FBECDBF4B835C836D837E836B
:103540008F839887EB80FC808D809E80AF80B884CD
:1035500024E12E9DC0012F9D900D1124E0912201A8
:10356000F0912301E80FF91FEE0FFF1FEE0FFF1F71
:10357000E55BFF4E4080518062807380E091800166
:10358000F09181018E0F9F1FFC01EE0FFF1FEE0FC8
:10359000FF1FE55BFF4E8081918184199509BC0175
:1035A00022F466277727681B790B882777FD80959B
:1035B000982F0E945D098B019C01B301A201C701F4
:1035C0000E94830924E1289DC001299D900D1124AA
:1035D000E0912201F0912301E80FF91FEE0FFF1F88
:1035E000EE0FFF1FE55BFF4EC080D180E280F380CD
:1035F000E0918001F09181018E0F9F1FFC01EE0F81
:10360000FF1FEE0FFF1FE55BFF4E808191818C193C
:103610009D09BC0122F466277727681B790B882750
:1036200077FD8095982F0E945D098B019C01B70161
:10363000A601C4010E94830924E12A9DC0012B9D9B
:10364000900D1124E0912201F0912301E80FF91F60
:10365000EE0FFF1FEE0FFF1FE55BFF4EC080D18016
:10366000E280F380E0918001F09181018E0F9F1F35
:10367000FC01EE0FFF1FEE0FFF1FE55BFF4E808189
:1036800091818C199D09BC0122F466277727681B5C
:10369000790B882777FD8095982F0E945D098B0113
:1036A0009C01B701A601C5010E94830928960FB6A7
:1036B000F894DEBF0FBECDBFDF91CF911F910F9168
:1036C000FF90EF90DF90CF90BF90AF909F908F9042
:1036D0007F906F905F904F90089520913E013091C0
:1036E0003F01409140015091410160914201709130
:1036F0004301809144019091450106DF20913601FC
:1037000030913701409138015091390160913A016F
:1037100070913B0180913C0190913D01F5DE20913B
:103720002E0130912F014091300150913101609173
:103730003201709133018091340190913501E4DEC2
:1037400020912601309127014091280150912901B3
:1037500060912A0170912B0180912C0190912D0193
:10376000D3DE0C94F40F08951F920F920FB60F92B0
:1037700011240BB60F922F933F934F935F936F9348
:103780007F938F939F93AF93BF93EF93FF9388EBB8
:103790000E94C7088091340C8823E4F0282F2F70F2
:1037A00030E03093960120939501807F90E09595CD
:1037B00087959595879595958795959587959093F8
:1037C00094018093930181E090E090932C0C80937E
:1037D0002B0C0BC021E030E030939201209391013B
:1037E00090E09093B2018093B101FF91EF91BF916E
:1037F000AF919F918F917F916F915F914F913F9189
:103800002F910F900BBE0F900FBE0F901F90189529
:103810001F920F920FB60F9211248F939F93809156
:103820007E0190917F01892B69F01092970181E0D0
:1038300090E090937D0180937C0110927F01109223
:103840007E0109C081E08093970181E090E0909330
:103850007F0180937E019F918F910F900FBE0F90FB
:103860001F9018956091230C7091240C8AEC90E0C5
:103870000E94D5086091250C7091260C80ED90E097
:103880000E94D5086091270C7091280C88ED90E07B
:103890000E94D5086091290C70912A0C80EE90E06E
:1038A0000E94D5086091190C70911A0C88EE90E076
:1038B0000E94D50860911B0C70911C0C80EF90E069
:1038C0000E94D50860911D0C70911E0C88EF90E04D
:1038D0000E94D50860911F0C7091200C88E890E040
:1038E0000E94D50888E990E00E94ED08BC0188E9B3
:1038F00090E00E94D50880E990E00E94ED08BC01AC
:1039000080E990E00C94D50808958AEC90E00E943C
:10391000ED089093240C8093230C80ED90E00E949E
:10392000ED089093260C8093250C88ED90E00E9482
:10393000ED089093280C8093270C80EE90E00E9475
:10394000ED0890932A0C8093290C089580E990E06B
:103950000E94ED089093220C8093210C08954F92C1
:103960005F926F927F928F929F92AF92BF92CF920F
:10397000DF92EF92FF92CF93DF939B01909198019A
:10398000913031F138F0923009F440C0933009F4AD
:103990005BC078C0813019F0833071F076C06091DF
:1039A000250C7091260C645C7F4F80911E019091D4
:1039B0001F01681B790B74C08091290C90912A0C0F
:1039C000CC9660911E0170911F01681B790B68C035
:1039D000882381F0823009F05BC06091270C7091E0
:1039E000280C645C7F4F80911E0190911F01681B21
:1039F000790B56C08091230C9091240CCC96609149
:103A00001E0170911F01681B790B4AC0813081F043
:103A1000833009F040C06091290C70912A0C645CDD
:103A20007F4F80911E0190911F01681B790B38C058
:103A30008091250C9091260CCC9660911E0170917E
:103A40001F01681B790B2CC0882319F0823071F09C
:103A500025C06091230C7091240C645C7F4F809191
:103A60001E0190911F01681B790B1AC08091270CD1
:103A70009091280CCC9660911E0170911F01681BDB
:103A8000790B0EC060E070E00BC060E070E008C031
:103A900060E070E005C060E070E002C060E070E0EF
:103AA000232B29F0C091210CD091220C02C0C0E040
:103AB000D0E0882777FD8095982F0E94CC502091E8
:103AC0004A0130914B0140914C0150914D010E94AF
:103AD000C7510E9499502B013C01C0904601D090E3
:103AE0004701E0904801F0904901BE01882777FD29
:103AF0008095982F0E94CC50A70196010E94C75133
:103B000020E030E040E05FE30E94C7510E949950FE
:103B10004B015C01662777276C1B7D0B882777FD9F
:103B20008095982F0E94CC509B01AC01C701B60133
:103B30000E94C75120E030E040E05FE30E94C7519F
:103B40000E949950A2014D33510514F04CE350E00E
:103B500094012D33310514F02CE330E06D33710501
:103B600014F06CE370E0CA01843C4FEF940714F446
:103B700084EC9FEF9093461080934510C901843CDC
:103B80002FEF920714F484EC9FEF909348108093EA
:103B90004710643C4FEF740714F464EC7FEF7093AC
:103BA0004A106093491081E090E090935101809316
:103BB0005001DF91CF91FF90EF90DF90CF90BF90B9
:103BC000AF909F908F907F906F905F904F900895EF
:103BD0004091A3015091A4018091A5019091A6016B
:103BE0002091A7013091A8016091A9017091AA01CB
:103BF000E0919801E13061F028F0E23079F0E330B3
:103C000099F018C0892BC1F0672BC1F084E023C064
:103C1000232BB1F0452BB1F084E01DC0892BA1F01E
:103C2000672BA1F084E017C0452B91F0232B91F076
:103C300084E011C084E00FC081E00DC083E00BC0C0
:103C400082E009C080E007C081E005C083E003C0D6
:103C500080E001C082E090E008952F923F924F9261
:103C60005F926F927F928F929F92AF92BF92CF920C
:103C7000DF92EF92FF920F931F93CF93DF93CDB715
:103C8000DEB7CC54D1090FB6F894DEBF0FBECDBF5E
:103C90008BE090E0909321018093200190935C143D
:103CA00080935B142091800130918101220F331F9A
:103CB000220F331F2B5C334FFE013196AE014B5C5C
:103CC0005F4FB9019F01FB0180819181A281B38186
:103CD000F90181939193A193B1939F01605B7F4F11
:103CE000E417F50781F7F9852696FFAF26972A8511
:103CF00027962FAF27973B8528963FAF28974C856F
:103D000029964FAF29978D819E81AF81B8859C01FF
:103D1000AD01505821962CAF3DAF4EAF5FAF21970C
:103D200060915A0170915B01882777FD8095982FEB
:103D30000E94CC509F938F937F936F9329963FADB2
:103D400029973F9328964FAD28974F9327965FADBD
:103D500027975F9326968FAD26978F9321969FADD9
:103D600021979F93EFADEF93FEADFF932DAD2F9372
:103D700088898F938F858F938E858F938D858F9371
:103D80003F934F935F9326963FAD26973F9321969F
:103D9000ACACBDACCEACDFAC2197E12CF12C04E097
:103DA00010E020913E0130913F014091400150913F
:103DB00041016091420170914301809144019091D1
:103DC00045010E941F102D883E888F88988C498954
:103DD00022964FAF22975A8923965FAF23978B89FC
:103DE00024968FAF24979C8925969FAF2597609145
:103DF0005A0170915B01882777FD8095982F0E946A
:103E0000CC509F938F937F936F939F928F923F920B
:103E10002F922596EFAD2597EF932496FFAD24972B
:103E2000FF9323962FAD23972F9322963FAD229792
:103E30003F938C8D8F938B8D8F938A8D8F93898DEC
:103E40008F939F928F923F922F9222963FAD22970F
:103E500023962FAD239724969FAD249725968FAD5B
:103E60002597A32EB22EC92ED82E2091360130913F
:103E70003701409138015091390160913A017091B8
:103E80003B0180913C0190913D010E941F1089A14E
:103E90009AA1ABA1BCA19C01AD0150582DAB3EAB8A
:103EA0004FAB58AF4D8C5E8C6F8C78A077FA7094C6
:103EB00077F870940FB6F894DEBF0FBECDBF609157
:103EC0005A0170915B01882777FD8095982F0E9499
:103ED000CC509F938F937F936F9358AD5F938FA92F
:103EE0008F939EA99F93EDA9EF937F926F925F921C
:103EF0004F9288A58F938FA18F938EA18F938DA1C1
:103F00008F935F93FFA9FF939F93EF9363015201F8
:103F100020912E0130912F014091300150913101BB
:103F2000609132017091330180913401909135019B
:103F30000E941F108DA59EA5AFA5B8A99C01AD013B
:103F4000505829AF3AAF4BAF5CAF39A52A963FAF77
:103F50002A974AA52B964FAF2B975BA52C965FAF60
:103F60002C978CA52D968FAF2D9760915A0170914B
:103F70005B01882777FD8095982F0E94CC509F93F6
:103F80008F937F936F939CAD9F93EBADEF93FAADBF
:103F9000FF9329AD2F932D963FAD2D973F932C96F0
:103FA0004FAD2C974F932B965FAD2B975F932A962F
:103FB0008FAD2A978F938CA98F938BA98F938AA902
:103FC0008F9389A98F939F93EF93FF932F932A96B3
:103FD0003FAD2A972B962FAD2B972C969FAD2C9704
:103FE0002D968FAD2D97A32EB22EC92ED82E2091AF
:103FF00026013091270140912801509129016091BB
:104000002A0170912B0180912C0190912D010E9429
:104010001F1060915A0170915B01882777FD809590
:10402000982F0E94CC50162F072FF82EE92E0FB68E
:10403000F894DEBF0FBECDBF9F938F937F936F9396
:1040400060915C0170915D01882777FD8095982FC4
:104050000E94CC509F938F937F936F9360915E01EA
:1040600070915F01719561957109882777FD809541
:10407000982F0E94CC509F938F937F936F93EF92D2
:10408000FF920F931F932996FFAD2997FF932896D0
:104090002FAD28972F9327963FAD27973F932696CE
:1040A0004FAD26974F932196ACACBDACCEACDFACF8
:1040B00021976894EE24E2F8F12C04E010E02091BE
:1040C0003E0130913F01409140015091410160918A
:1040D00042017091430180914401909145010E94F9
:1040E000A41360915A0170915B01882777FD809538
:1040F000982F0E94CC509F938F937F936F939F92A2
:104100008F923F922F9225965FAD25975F932496CD
:10411000EFAD2497EF932396FFAD2397FF9322965D
:104120002FAD22972F939F938F937F936F939F929F
:104130008F923F922F9222963FAD229723962FADDA
:10414000239724969FAD249725968FAD2597A32E70
:10415000B22EC92ED82E20913601309137014091D0
:1041600038015091390160913A0170913B01809181
:104170003C0190913D010E941F1060915A01709185
:104180005B01882777FD8095982F0E94CC500FB651
:10419000F894DEBF0FBECDBF9F938F937F936F9335
:1041A00058AD5F93EFA9EF93FEA9FF932DA92F932D
:1041B0007F926F925F924F929F938F937F936F93B3
:1041C0005F93EF93FF932F936301520120912E0190
:1041D00030912F01409130015091310160913201B5
:1041E0007091330180913401909135010E941F102C
:1041F00060915A0170915B01882777FD8095982F17
:104200000E94CC50162F072FF82EE92E9F938F93E4
:104210007F936F9360915C0170915D0171956195E1
:104220007109882777FD8095982F0E94CC509F9325
:104230008F937F936F9360915E0170915F018827E8
:1042400077FD8095982F0E94CC509F938F937F93FA
:104250006F93EF92FF920F931F933CAD3F934BAD43
:104260004F935AAD5F9389AD8F932A963FAD2A97AE
:104270002B962FAD2B972C969FAD2C972D968FAD0F
:104280002D97A32EB22EC92ED82E6894EE24E2F8D4
:10429000F12C04E010E0209126013091270140919B
:1042A00028015091290160912A0170912B01809180
:1042B0002C0190912D010E94A41360915A017091DC
:1042C0005B01882777FD8095982F0E94CC50162F90
:1042D000072FF82EE92E60915C0170915D0188270F
:1042E00077FD8095982F0E94CC50D62EC72EB82EE1
:1042F000A92E60915E0170915F01719561957109C0
:10430000882777FD8095982F0E94CC500FB6F8949F
:10431000DEBF0FBECDBFEF92FF920F931F93AF9200
:10432000BF92CF92DF929F938F937F936F93EF9281
:10433000FF920F931F93AF92BF92CF92DF92A62E60
:10434000B72EC82ED92E6894EE24E3F8F12C04E0A1
:1043500010E020913E0130913F0140914001509189
:10436000410160914201709143018091440190911B
:1043700045010E941F1060915A0170915B018827CE
:1043800077FD8095982F0E94CC50D62EC72EB82E40
:10439000A92E9F938F937F936F9360915C0170918F
:1043A0005D01882777FD8095982F0E94CC509F93C0
:1043B0008F937F936F9360915E0170915F01882767
:1043C00077FD8095982F0E94CC509F938F937F9379
:1043D0006F93AF92BF92CF92DF929F928F923F9254
:1043E0002F9222963FAD229723962FAD23972496A6
:1043F0009FAD249725968FAD2597A32EB22EC92E5B
:10440000D82E2091360130913701409138015091DA
:10441000390160913A0170913B0180913C0190918A
:104420003D010E94A41360915A0170915B0188279D
:1044300077FD8095982F0E94CC50D62EC72EB82E8F
:10444000A92E0FB6F894DEBF0FBECDBF9F938F93FA
:104450007F936F9360915C0170915D01719561959F
:104460007109882777FD8095982F0E94CC509F93E3
:104470008F937F936F9360915E0170915F0171954F
:1044800061957109882777FD8095982F0E94CC50FF
:104490009F938F937F936F93AF92BF92CF92DF9250
:1044A00038AD3F934FA94F935EA95F938DA98F932A
:1044B0006301520120912E0130912F014091300172
:1044C000509131016091320170913301809134013A
:1044D000909135010E94A41360915A0170915B0183
:1044E000882777FD8095982F0E94CC50162F072F94
:1044F000F82EE92E60915C0170915D0171956195D6
:104500007109882777FD8095982F0E94CC50D62E70
:10451000C72EB82EA92E60915E0170915F01882789
:1045200077FD8095982F0E94CC50EF92FF920F93C9
:104530001F93AF92BF92CF92DF929F938F937F93FF
:104540006F93EF92FF920F931F93AF92BF92CF9210
:10455000DF92A62EB72EC82ED92E6894EE24E3F84B
:10456000F12C04E010E020912601309127014091C8
:1045700028015091290160912A0170912B018091AD
:104580002C0190912D010E941F1010928101109218
:10459000800181E090E090932301809322010FB687
:1045A000F894DEBF0FBECDBFC45BDF4F0FB6F894EB
:1045B000DEBF0FBECDBFDF91CF911F910F91FF9056
:1045C000EF90DF90CF90BF90AF909F908F907F90B3
:1045D0006F905F904F903F902F9008958F929F9291
:1045E000AF92BF92CF92DF92EF92FF920F931F9301
:1045F000CF93DF938091560190915701EC0199235D
:104600000CF42396D595C795D595C79501979093AA
:10461000210180932001CE01019790935C14809337
:104620005B1400915A0110915B0160915C017091E3
:104630005D01882777FD8095982F0E94CC50B62E7B
:10464000A72E982E892E60915E0170915F01719561
:1046500061957109882777FD8095982F0E94CC502D
:10466000C62ED72EE82EF92E60915801709159016F
:10467000600F711F882777FD8095982F0E94CC507E
:104680009F938F937F936F938F929F92AF92BF92DE
:10469000FF92EF92DF92CF92B801882777FD809545
:1046A000982F0E94CC509F938F937F936F938F92FC
:1046B0009F92AF92BF92AC2CBD2CCE2CDF2CE12C64
:1046C000F12C8E0120913E0130913F01409140013B
:1046D00050914101609142017091430180914401E8
:1046E000909145010E941F1060915A0170915B01E9
:1046F000882777FD8095982F0E94CC50162F072F82
:10470000F82EE92E60915C0170915D01882777FD9C
:104710008095982F0E94CC50D62EC72EB82EA92E49
:1047200060915E0170915F01882777FD8095982FD9
:104730000E94CC50EF92FF920F931F93AF92BF92C3
:10474000CF92DF929F938F937F936F93EF92FF921D
:104750000F931F93AF92BF92CF92DF92A62EB72EE8
:10476000C82ED92EE12CF12C8E01209136013091EA
:104770003701409138015091390160913A017091AF
:104780003B0180913C0190913D010E941F1060917E
:104790005A0170915B01882777FD8095982F0E94C0
:1047A000CC50162F072FF82EE92E60915C017091E6
:1047B0005D01719561957109882777FD8095982F26
:1047C0000E94CC50D62EC72EB82EA92E20915E0165
:1047D00030915F0166277727621B730B882777FD6F
:1047E0008095982F0E94CC502DB73EB7285D3F4F43
:1047F0000FB6F8943EBF0FBE2DBFEF92FF920F93FE
:104800001F93AF92BF92CF92DF929F938F937F932C
:104810006F93EF92FF920F931F93AF92BF92CF923D
:10482000DF92A62EB72EC82ED92EE12CF12C8E01A8
:1048300020912E0130912F01409130015091310192
:104840006091320170913301809134019091350172
:104850000E941F10C0905A01D0905B0160915C01D2
:1048600070915D01719561957109882777FD80953B
:10487000982F0E94CC50F62EE72E982E892E60910C
:104880005E0170915F01882777FD8095982F0E94C7
:10489000CC50062F172FA82EB92E60915801709179
:1048A00059016C0D7D1D882777FD8095982F0E94FA
:1048B000CC509F938F937F936F938F929F92EF92A1
:1048C000FF92BF92AF921F930F93B601882777FD97
:1048D0008095982F0E94CC509F938F937F936F93D6
:1048E0008F929F92EF92FF929A2D8B2DA02EB12E38
:1048F000C92ED82EE12CF12C8E0120912601309169
:104900002701409128015091290160912A0170915D
:104910002B0180912C0190912D010E941F1010926B
:1049200081011092800181E090E0909323018093B7
:1049300022018DB79EB788960FB6F8949EBF0FBE22
:104940008DBFDF91CF911F910F91FF90EF90DF907E
:10495000CF90BF90AF909F908F9008952F923F92ED
:104960004F925F926F927F928F929F92AF92BF927F
:10497000CF92DF92EF92FF920F931F93CF93DF932B
:10498000CDB7DEB72E970FB6F894DEBF0FBECDBF02
:104990009C01992314F42D5F3F4FA901559547952C
:1049A000559547955E874D87019790932101809398
:1049B000200190935C1480935B14409060015090B0
:1049C0006101C20166E070E00E948452CB01AA2717
:1049D00097FDA095BA2F88879987AA87BB87C201C0
:1049E00099230CF401962C0155944794662457FCA6
:1049F0006094762C80919801813009F45FC450F066
:104A0000823011F40C94FC2D833011F40C944F324D
:104A10000C94EB3680905C0190905D0191948194B0
:104A20009108AA2497FCA094BA2C60915A01709125
:104A30005B01882777FD8095982F0E94CC50F62E39
:104A4000E72ED82EC92E60915E0170915F018827F4
:104A500077FD8095982F0E94CC50362E272E182F48
:104A6000092FCF92DF92EF92FF92C501B401640D3E
:104A7000751D861D971D0E94CC509F938F937F9329
:104A80006F930F931F932F923F92CF92DF92EF92EB
:104A9000FF92C501B40164197509860997090E943E
:104AA000CC509F938F937F936F93A32CB22CC12EE6
:104AB000D02EE12CF12C0D851E8520912601309100
:104AC0002701409128015091290160912A0170919C
:104AD0002B0180912C0190912D010E94A413C09074
:104AE0005C01D0905D01D194C194D108EE24D7FC33
:104AF000E094FE2C60915A0170915B01882777FD4C
:104B00008095982F0E94CC50A62EB72E082F192FD3
:104B100060915E0170915F01882777FD8095982FE5
:104B20000E94CC5069837D838E839F838D849E8475
:104B3000880C991C2D843E84280C391C1F930F93DC
:104B4000BF92AF92C701B60164197509860997092A
:104B50000E94CC509F938F937F936F939F819F93DD
:104B6000AE81AF93BD81BF93E981EF931F930F9304
:104B7000BF92AF92C301B2016C0D7D1D8E1D9F1DB2
:104B80000E94CC509F938F937F936F9339812D8197
:104B90009E818F81A32EB22EC92ED82EED84FE8445
:104BA00081012091260130912701409128015091E7
:104BB000290160912A0170912B0180912C01909123
:104BC0002D010E941F10C0905C01D0905D01EE2469
:104BD000D7FCE094FE2C60915A0170915B0188270C
:104BE00077FD8095982F0E94CC50A62EB72E082FC7
:104BF000192F60915E0170915F01882777FD809584
:104C0000982F0E94CC5069837D838E839F830FB63B
:104C1000F894DEBF0FBECDBF1F930F93BF92AF922C
:104C2000C701B60164197509860997090E94CC501D
:104C30009F938F937F936F933F813F934E814F93C9
:104C40005D815F9389818F931F930F93BF92AF9282
:104C5000C701B601288539854A855B85621B730BC0
:104C6000840B950B0E94CC509F938F937F936F93EF
:104C700039812D819E818F81A32EB22EC92ED82EEF
:104C8000E12CF12C0D851E852091360130913701E4
:104C9000409138015091390160913A0170913B0186
:104CA00080913C0190913D010E941F10C0905C01D9
:104CB000D0905D01EE24D7FCE094FE2C60915A0167
:104CC00070915B01882777FD8095982F0E94CC50CA
:104CD000A62EB72E082F192F60915E0170915F01EB
:104CE000882777FD8095982F0E94CC5069837D831B
:104CF0008E839F831F930F93BF92AF92C701B6011C
:104D0000640D751D861D971D0E94CC509F938F9337
:104D10007F936F933F813F934E814F935D815F936C
:104D200089818F931F930F93BF92AF92C701B601F2
:104D300064197509860997090E94CC509F938F9337
:104D40007F936F9339812D819E818F81A32EB22E07
:104D5000C92ED82EED84FE84870120913601309132
:104D60003701409138015091390160913A017091B9
:104D70003B0180913C0190913D010E94A413C090A1
:104D80005C01D0905D01EE24D7FCE094FE2C609194
:104D90005A0170915B01882777FD8095982F0E94BA
:104DA000CC50A62EB72E082F192F60915E0170915E
:104DB0005F01882777FD8095982F0E94CC506983EA
:104DC0007D838E839F830FB6F894DEBF0FBECDBF69
:104DD0001F930F93BF92AF92C701B6012885398503
:104DE0004A855B85621B730B840B950B0E94CC502C
:104DF0009F938F937F936F933F813F934E814F9308
:104E00005D815F9389818F931F930F93BF92AF92C0
:104E1000C301B2016C0D7D1D8E1D9F1D0E94CC50E3
:104E20009F938F937F936F9339812D819E818F8183
:104E3000A32EB22EC92ED82E7401840120913601E2
:104E400030913701409138015091390160913A0118
:104E500070913B0180913C0190913D010E941F1097
:104E6000C0905C01D0905D01D194C194D108EE2432
:104E7000D7FCE094FE2C60915A0170915B01882769
:104E800077FD8095982F0E94CC50A62EB72E082F24
:104E9000192F60915E0170915F01719561957109A3
:104EA000882777FD8095982F0E94CC5069837D8359
:104EB0008E839F831F930F93BF92AF92C701B6015A
:104EC00064197509860997090E94CC509F938F93A6
:104ED0007F936F939F819F93AE81AF93BD81BF936B
:104EE000E981EF931F930F93BF92AF926885798505
:104EF0008A859B856C0D7D1D8E1D9F1D0E94CC504B
:104F00009F938F937F936F9339812D819E818F81A2
:104F1000A32EB22EC92ED82EE12CF12C8401209183
:104F20002E0130912F01409130015091310160915B
:104F300032017091330180913401909135010E94CA
:104F40001F10C0905C01D0905D01D194C194D10834
:104F5000EE24D7FCE094FE2C60915A0170915B0125
:104F6000882777FD8095982F0E94CC50A62EB72ECB
:104F7000082F192F60915E0170915F017195619505
:104F80007109882777FD8095982F0E94CC506983FE
:104F90007D838E839F830FB6F894DEBF0FBECDBF97
:104FA0001F930F93BF92AF92C701B601640D751D99
:104FB000861D971D0E94CC509F938F937F936F9374
:104FC0003F813F934E814F935D815F9389818F93A2
:104FD0001F930F93BF92AF92C701B6016419750971
:104FE000860997090E94CC509F938F937F936F936C
:104FF00039812D819E818F81A32EB22EC92ED82E6C
:1050000074010D851E8520912E0130912F01409154
:1050100030015091310160913201709133018091E2
:105020003401909135010E94A413C0905C01D0908E
:105030005D01D194C194D108EE24D7FCE094FE2CFC
:1050400060915A0170915B01882777FD8095982FB8
:105050000E94CC50A62EB72E182F092F60915E010A
:1050600070915F01719561957109882777FD809531
:10507000982F0E94CC50962E872E89839D830F9364
:105080001F93BF92AF92688579858A859B856C0D49
:105090007D1D8E1D9F1D0E94CC509F938F937F93EB
:1050A0006F939D819F93A981AF938F929F920F934E
:1050B0001F93BF92AF92C301B2016C0D7D1D8E1D77
:1050C0009F1D0E94CC509F938F937F936F939981E4
:1050D0008D81A92CB82CC92ED82E71010D851E8565
:1050E00020912E0130912F014091300150913101DA
:1050F00060913201709133018091340190913501BA
:105100000E941F10C0905C01D0905D01EE24D7FC7E
:10511000E094FE2C60915A0170915B01882777FD25
:105120008095982F0E94CC50B62EA72E982E892EAF
:1051300060915E0170915F01719561957109882799
:1051400077FD8095982F0E94CC50062F172F8887C7
:1051500099830FB6F894DEBF0FBECDBF8F929F929A
:10516000AF92BF92C701B601641975098609970904
:105170000E94CC509F938F937F936F93F981FF93FD
:1051800028852F931F930F938F929F92AF92BF9278
:10519000C301B2016C0D7D1D8E1D9F1D0E94CC5060
:1051A0009F938F937F936F9398858981A02EB12EC3
:1051B000C92ED82EE12CF12C810120913E01309195
:1051C0003F01409140015091410160914201709135
:1051D000430180914401909145010E941F10C090AD
:1051E0005C01D0905D01EE24D7FCE094FE2C609130
:1051F0005A0170915B01882777FD8095982F0E9456
:10520000CC50B62EA72E982E892E60915E017091FB
:105210005F01719561957109882777FD8095982FB9
:105220000E94CC50062F172F888799838F929F92C8
:10523000AF92BF92C701B601640D751D861D971D03
:105240000E94CC509F938F937F936F9339813F93AC
:1052500048854F931F930F938F929F92AF92BF9267
:10526000C701B60164197509860997090E94CC50D7
:105270009F938F937F936F9398858981A02EB12EF2
:10528000C92ED82E71010D851E8520913E013091C9
:105290003F01409140015091410160914201709164
:1052A000430180914401909145010E94A4130FB6DF
:1052B000F894DEBF0FBECDBF0C94EB3680915E013B
:1052C00090915F019195819591099C01442737FD4B
:1052D0004095542F29833A834B835C8360915A0114
:1052E00070915B01882777FD8095982F0E94CC50A4
:1052F000E62E172F082FF92E60915C0170915D0149
:10530000719561957109882777FD8095982F0E9486
:10531000CC50262E372E882E992E69817A818B814A
:105320009C8164197509860997090E94CC505B011C
:105330006C01FF920F931F93EF929F928F923F9277
:105340002F9269817A818B819C81640D751D861DE8
:10535000971D0E94CC509F938F937F936F93FF92E2
:105360000F931F93EF929F928F923F922F92E12C77
:10537000F12C0D851E8520912E0130912F01409139
:10538000300150913101609132017091330180916F
:105390003401909135010E94A41380915E01909197
:1053A0005F019195819591099C01442737FD4095B6
:1053B000542F29833A834B835C8360915A01709107
:1053C0005B01882777FD8095982F0E94CC50E62EB0
:1053D000F72E082F192F60915C0170915D01719576
:1053E00061957109882777FD8095982F0E94CC5090
:1053F0006D837E838F839C878D849E84880C991C0B
:105400002D843E84280C391C69817A818B819C8192
:10541000640D751D861D971D0E94CC505B016C01AB
:105420001F930F93FF92EF923C853F934F814F93D1
:105430005E815F938D818F9369817A818B819C815D
:1054400064197509860997090E94CC509F938F9320
:105450007F936F931F930F93FF92EF929C859F937F
:10546000AF81AF93BE81BF93ED81EF93ED84FE8456
:10547000810120912E0130912F01409130015091F6
:10548000310160913201709133018091340190912A
:1054900035010E941F1080915E0190915F019C0177
:1054A000442737FD4095542F29833A834B835C83EF
:1054B00060915A0170915B01882777FD8095982F44
:1054C0000E94CC50E62EF72E082F192F60915C0118
:1054D00070915D01719561957109882777FD8095BF
:1054E000982F0E94CC506D837E838F839C870FB64C
:1054F000F894DEBF0FBECDBF69817A818B819C811C
:10550000288539854A855B85621B730B840B950B57
:105510000E94CC505B016C011F930F93FF92EF929E
:105520003C853F934F814F935E815F938D818F9335
:1055300069817A818B819C81641975098609970933
:105540000E94CC509F938F937F936F931F930F93E1
:10555000FF92EF929C859F93AF81AF93BE81BF93E3
:10556000ED81EF93E12CF12C0D851E852091260114
:1055700030912701409128015091290160912A0121
:1055800070912B0180912C0190912D010E941F1090
:1055900080915E0190915F019C01442737FD409509
:1055A000542F29833A834B835C8360915A01709115
:1055B0005B01882777FD8095982F0E94CC50E62EBE
:1055C000F72E082F192F60915C0170915D01719584
:1055D00061957109882777FD8095982F0E94CC509E
:1055E0006D837E838F839C8769817A818B819C8187
:1055F00064197509860997090E94CC505B016C01FA
:105600001F930F93FF92EF923C853F934F814F93EF
:105610005E815F938D818F9369817A818B819C817B
:10562000640D751D861D971D0E94CC509F938F930E
:105630007F936F931F930F93FF92EF929C859F939D
:10564000AF81AF93BE81BF93ED81EF93ED84FE8474
:105650008701209126013091270140912801509126
:10566000290160912A0170912B0180912C01909168
:105670002D010E94A41380915E0190915F019C0115
:10568000442737FD4095542F29833A834B835C830D
:1056900060915A0170915B01882777FD8095982F62
:1056A0000E94CC50E62EF72E082F192F60915C0136
:1056B00070915D01719561957109882777FD8095DD
:1056C000982F0E94CC506D837E838F839C870FB66A
:1056D000F894DEBF0FBECDBF69817A818B819C813A
:1056E000640D751D861D971D0E94CC505B016C01D9
:1056F0001F930F93FF92EF925C855F938F818F933F
:105700009E819F93AD81AF9369817A818B819C81CA
:10571000288539854A855B85621B730B840B950B45
:105720000E94CC509F938F937F936F931F930F93FF
:10573000FF92EF923C853F934F814F935E815F9341
:105740008D818F937401840120912601309127016E
:10575000409128015091290160912A0170912B01FB
:1057600080912C0190912D010E941F1080915E016B
:1057700090915F019195819591099C01442737FD96
:105780004095542F29833A834B835C8360915A015F
:1057900070915B01882777FD8095982F0E94CC50EF
:1057A000E62EF72E082F192F60915C0170915D0194
:1057B000882777FD8095982F0E94CC506D837E833B
:1057C0008F839C87688579858A859B8529813A8125
:1057D0004B815C81620F731F841F951F0E94CC5008
:1057E0005B016C011F930F93FF92EF923C853F93F7
:1057F0004F814F935E815F938D818F9369817A8111
:105800008B819C8164197509860997090E94CC5087
:105810009F938F937F936F931F930F93FF92EF92BA
:105820009C859F93AF81AF93BE81BF93ED81EF9332
:10583000E12CF12C840120913E0130913F014091F7
:10584000400150914101609142017091430180916A
:105850004401909145010E941F1080915E0190913A
:105860005F019195819591099C01442737FD4095F1
:10587000542F29833A834B835C8360915A01709142
:105880005B01882777FD8095982F0E94CC50E62EEB
:10589000F72E082F192F60915C0170915D01882708
:1058A00077FD8095982F0E94CC506D837E838F83E7
:1058B0009C870FB6F894DEBF0FBECDBF69817A8199
:1058C0008B819C8164197509860997090E94CC50C7
:1058D0005B016C011F930F93FF92EF925C855F93C6
:1058E0008F818F939E819F93AD81AF9369817A81E0
:1058F0008B819C81640D751D861D971D0E94CC5067
:105900009F938F937F936F931F930F93FF92EF92C9
:10591000BC85BF93EF81EF93FE81FF932D812F9381
:1059200074010D851E8520913E0130913F0140910B
:105930004001509141016091420170914301809179
:105940004401909145010E94A41380915E019091C1
:105950005F019195819591099C01442737FD409500
:10596000542F29833A834B835C8360915A01709151
:105970005B01882777FD8095982F0E94CC50E62EFA
:10598000F72E082F192F60915C0170915D01882717
:1059900077FD8095982F0E94CC506D837E83882E52
:1059A000992E69817A818B819C81640D751D861D7C
:1059B000971D0E94CC505B016C011F930F93FF92C7
:1059C000EF929F928F923E813F934D814F936981D9
:1059D0007A818B819C81288539854A855B85620F18
:1059E000731F841F951F0E94CC509F938F937F93AA
:1059F0006F931F930F93FF92EF929F928F923E812E
:105A00003F934D814F9371010D851E8520913E017D
:105A100030913F014091400150914101609142011C
:105A20007091430180914401909145010E941F10A3
:105A300080915E0190915F019C01442737FD409564
:105A4000542F288739874A875B8760915A01709164
:105A50005B01882777FD8095982F0E94CC50E62E19
:105A6000F72E182F092F60915C0170915D01882736
:105A700077FD8095982F0E94CC5069837D83882E76
:105A8000992E0FB6F894DEBF0FBECDBF688579851D
:105A90008A859B85640D751D861D971D0E94CC50BF
:105AA0005B016C010F931F93FF92EF929F928F9275
:105AB0005D815F9389818F93688579858A859B85D0
:105AC00064197509860997090E94CC509F938F939A
:105AD0007F936F930F931F93FF92EF929F928F92FA
