:1000000089C000000C94A11A0C94F51AA2C000003B
:10001000A0C000009EC000009CC000009AC000006C
:1000200098C0000096C0000094C000008DC700007A
:1000300090C000008EC000008CC000008AC000008C
:1000400088C0000086C000006EC7000082C00000AB
:1000500080C000007EC000007CC000007AC00000AC
:1000600078C0000076C0000074C0000072C00000BC
:1000700070C000006EC000006CC000006AC00000CC
:1000800068C0000066C0000064C000000A4C764BE7
:10009000BE4B754C9A4B864BAA4B754CE44BF54BBB
:1000A000CF4B944C924C984C964C9C4C9A4CA04CF8
:1000B0009E4CA44CA24CA84CA64CAC4CAA4C084A52
:1000C000D73B3BCE016E84BCBFFDC12F3D6C74316C
:1000D0009ABD56833DDA3D00C77F11BED9E4BB4CC3
:1000E0003E916BAAAABE000000803F072C7AA5BAF9
:1000F0006CC590DA3B9365FC8BBC53F810FD3C5605
:1001000092834DBD879D3AB63DCBC9BF5BBE73DAC6
:100110000FC93F0011241FBECFEFD0E4DEBFCDBF1B
:1001200011E0A0E0B1E0EEEBF1EA00E00BBF02C0AD
:1001300007900D92A236B107D9F724E1A2E6B1E00B
:1001400001C01D92AD34B207E1F70E94AE4C0C9491
:10015000DD5056CFFC0122853385220F331F220F3D
:10016000331F220F331F84859585880F991F880FB1
:10017000991F822B932B20893189822B932B2685E3
:100180003785220F331F822B932B20853185A901C0
:100190004370552742955295507F5427407F5427EE
:1001A000842B952B24703327322F2227822B932BDD
:1001B000428153814F715527542F4427550F842B6B
:1001C000952B089580918801811109C08091110CAF
:1001D0009091120C90936901809368011EC0813048
:1001E00049F48091130C9091140C909369018093C1
:1001F000680113C0823049F48091150C9091160C5F
:10020000909369018093680108C08091170C9091C8
:10021000180C90936901809368018091110C909162
:10022000120C8B3392403CF081E090E090930101FE
:100230008093000104C0109201011092000180918E
:10024000130C9091140C8B3392403CF081E090E0C1
:1002500090937B0180937A0104C010927B011092ED
:100260007A018091150C9091160C8B3392403CF0E2
:1002700081E090E0909379018093780104C010921E
:100280007901109278018091170C9091180C8B33A2
:1002900092403CF081E090E090937701809376016A
:1002A00008951092770110927601089580917C0153
:1002B00090917D01019779F4809172019091730181
:1002C0008230910579F001969093730180937201C9
:1002D00080E090E00895109273011092720180E026
:1002E00090E0089581E090E00895E0DF0197B9F58E
:1002F000809174019091750126E1289FF001299F5A
:10030000F00D1124EF55FE4F22893389232B39F547
:1003100026E1289FF001299FF00D1124EF55FE4F93
:10032000208131812250310922303105C0F02091E5
:100330006E0130916F012F5F3F4F30936F0120931B
:100340006E0146E1489FF001499FF00D1124EF55E1
:10035000FE4F81E090E0938B828B358B248B089548
:1003600080916C0190916D01892B09F46CC02091F2
:1003700074013091750186E1829FF001839FF00D39
:100380001124EF55FE4F8081918182309105F1F467
:10039000209100013091010180917A0190917B01BF
:1003A000280F391F8091780190917901280F391F0A
:1003B0008091760190917701280F391F81E090E0BC
:1003C0002330310509F44DC080E008950397F1F51D
:1003D00086E1829FF001839FF00D1124EF55FE4FBF
:1003E000848195810297A9F5409100015091010106
:1003F00080917A0190917B01840F951F4091780143
:1004000050917901840F951F4091760150917701A9
:10041000840F951F039701F186E1829FF001839F6E
:10042000F00D1124EF55FE4F828193810197B9F4AD
:1004300081E090E02091890130918A0125303105D9
:1004400081F080E0089581E090E0089581E090E0FF
:10045000089581E090E0089581E090E0089580E0C3
:1004600090E00895209193013091940180910001D2
:10047000909101012817390741F52091950130919C
:10048000960180917A0190917B0128173907E9F450
:100490002091970130919801809178019091790194
:1004A0002817390791F42091990130919A01809190
:1004B0007601909177012817390739F4109271016C
:1004C0001092700180E090E0089580917001909109
:1004D00071018130910541F00196909371018093F3
:1004E000700180E090E0089581E090E00895BADF27
:1004F0008130910539F420916801309169012B33E5
:10050000324094F4AFDF019769F431E020E080914C
:10051000680190916901803491400CF030E0832FA4
:10052000922F089580E090E008954091000150914D
:100530000101209178013091790180917A019091A7
:100540007B01840F951F820F931F6091760170913C
:100550007701860F971F83309105B9F1823091059D
:1005600049F471E060E04217530709F470E0872F07
:10057000962F08950197F1F480917401909175017F
:1005800018161906D4F426E1289FF001299FF00DD2
:100590001124ED55FE4F208131812130310529F4A0
:1005A000228133812230310559F0019776970097E7
:1005B00091F709C084E090E0089582E090E008950A
:1005C00085E090E0089582E090E00895BF92CF9298
:1005D000DF92EF92FF920F931F93CF93DF930397D6
:1005E00009F087C0A0916C01B0916D01109761F482
:1005F00081E090E090936D0180936C0190936B018A
:1006000080936A0190E07AC08091740190917501A5
:1006100026E1289FF001299FF00D1124EF55FE4F90
:10062000808191818230910509F466C0039709F0B9
:100630004EC01A161B060CF05BC0C091F30BD09194
:10064000F40BBD01615071090DED1BE00F2EF7E7B2
:10065000EF2EF02DF12C0F2EF6E1DF2EF02D0F2EC8
:10066000F8E7BF2EF02DC12C2AC02081318124173C
:100670003507C1F402C08B2D9C2DD89EF001D99E68
:10068000F00D1124EF55FE4F84819581029711F4EE
:1006900011970DC01197B0936D01A0936C018A2F33
:1006A0009B2F2CC00197769781309105F1F6615010
:1006B000710928F4B0936D01A0936C0119C0AB01CE
:1006C000C617D707C1F2F8018E2D9F2DCECF2091EE
:1006D0006A0130916B012F5F3F4F30936B01209384
:1006E0006A0130936D0120936C01822F932F06C015
:1006F00005C080E090E002C08A2F9B2FDF91CF9150
:100700001F910F91FF90EF90DF90CF90BF900895D1
:100710000397F1F4809174019091750118161906F0
:10072000D4F4E3EAF1E026E1289FA001299F500DCF
:1007300011244D555E4F80E090E020813181621799
:10074000730709F401967696E417F507B1F7089553
:1007500080E090E0089580E090E00895CF93DF93EB
:10076000E4DEC9E8D1E09983888330DF90938C017F
:1007700080938B01BC0188819981CADF90938E019F
:1007800080938D018091880190E0909390018093F7
:100790008F0184E090E09093920180939101809189
:1007A00000019091010190939401809393018091B5
:1007B0007A0190917B0190939601809395018091AD
:1007C000780190917901909398018093970180919D
:1007D00076019091770190939A01809399011092FC
:1007E0009C0110929B0110929E0110929D01DF913D
:1007F000CF910895809174019091750126E1289F11
:10080000F001299FF00D1124EF55FE4F80918901D1
:1008100090918A019183808380918B0190918C01CA
:100820009383828380918D0190918E01958384833F
:1008300080918F019091900197838683809191019F
:10084000909192019187808780919301909194017A
:1008500093878287809195019091960195878487EF
:10086000809197019091980197878687809199014F
:1008700090919A01918B808B80919B0190919C012A
:10088000938B828B80919D0190919E01958B848B9F
:100890000895CF92DF92EF92FF920F931F93CF9321
:1008A000DF934091660150916701E1EAF1E067E072
:1008B0007CE0C0E0D0E090E0C12CD12C04E010E05E
:1008C0000F2EF2E0EF2EF1E0FF2EF02D208131818E
:1008D00023303105B1F5248135812115310561F4CD
:1008E0009E01220F331F2E5F3E4F40855185D90157
:1008F0004D935C93219622C02130310559F49E011D
:10090000220F331F20503F4F40855185D9014D9311
:100910005C9314C02230310589F422813381213067
:10092000310521F4D7010D931C9308C0DE01AA0FF5
:10093000BB1FAE5FBE4F0D931C9321974C2D5D2DB9
:1009400011C0228933892130310561F42489358928
:100950002817390729F450936701409366010BC0AB
:100960004F5F5F4F7696E617F70709F0AFCF5093CA
:10097000670140936601DF91CF911F910F91FF9026
:10098000EF90DF90CF90089580919501909196011E
:1009900081309105A1F0809193019091940101978C
:1009A00049F08091990190919A01019731F483E087
:1009B00090E0089580E090E0089582E090E008954E
:1009C0008091970190919801019781F08091950114
:1009D000909196018130910571F0809193019091F1
:1009E0009401019731F480E090E0089582E090E076
:1009F000089583E090E008958091990190919A0183
:100A0000019789F08091970190919801019771F079
:100A100081E090E0209195013091960121303105DF
:100A200039F080E0089583E090E0089582E090E05E
:100A300008958091930190919401019779F08091AC
:100A4000990190919A01019761F08091970190919D
:100A50009801019749F482E090E0089580E090E0E9
:100A6000089583E090E0089581E090E008958091FA
:100A7000890190918A01892B21F42091880130E02D
:100A80001BC080918801811104C07EDF9C01332747
:100A900013C0813021F494DF9C0133270DC08230D4
:100AA00021F4AADF9C01332707C0833021F4C1DF82
:100AB0009C01332701C00895822F932F089586E06B
:100AC00090E09093A2018093A1011092A401109252
:100AD000A3011092A6011092A5011092A8011092F4
:100AE000A7011092AA011092A90181E090E09093D1
:100AF000AC018093AB011092AE011092AD01109247
:100B0000B0011092AF011092B2011092B101109297
:100B1000B4011092B3011092B6011092B50108957C
:100B200080918701813009F4A2C020F0823009F45D
:100B300043C0089547DBD9DBDADC019741F50EDECF
:100B400081E090E090931A0C8093190C90DF8093D1
:100B50001B0C06DC0197D9F480917401909175010A
:100B60000196909375018093740144DE8091740125
:100B70009091750126E1289FF001299FF00D112425
:100B8000EF55FE4F80911B0C90E0918780878091FC
:100B900074019091750126E1289FF001299FF00DC5
:100BA0001124EF55FE4F80819181059709F0BFC058
:100BB00082E080938701089580919F019091A00128
:100BC000823E910529F13CF4803E910559F0813E29
:100BD000910599F03DC0833E910529F1843E910530
:100BE00069F136C081E090E09093630180936201E7
:100BF00050DE81E0809387012BC082E090E09093EB
:100C000063018093620145DE81E08093870120C00B
:100C100083E090E090936301809362013ADE81E08B
:100C20008093870115C084E090E0909363018093E6
:100C300062012FDE81E0809387010AC085E090E0A9
:100C4000909363018093620124DE81E080938701A9
:100C500080918801843009F46AC081E090E090932B
:100C60001A0C8093190C84E080931B0C0895AADA67
:100C70003EDC019741F572DD8091890190918A01F6
:100C80000397C1F481E090E090931A0C8093190CC3
:100C90008091640190916501FC01EE0FFF1FEE5FF2
:100CA000FE4F208120931B0C019690936501809349
:100CB000640109C0DCDE80931B0C81E090E090931E
:100CC0001A0C8093190CE0916401F0916501EE0F0C
:100CD000FF1FEE5FFE4F80819181049741F5E6DAB8
:100CE000019729F580919B0190919C01892BF9F442
:100CF00081E090E090939C0180939B01809166013C
:100D000090916701009771F480918801843079F0A7
:100D100081E090E090931A0C8093190C84E080930A
:100D20001B0C0895019790936701809366010895C5
:100D300085B5846085BD16BCEEE6F0E080818160FB
:100D4000808310921F0C0895E1EBF0E080818660B3
:100D500080831092B200E0E7F0E0808181608083C0
:100D600010921E0C08956634710509F453C0B4F452
:100D70006E317105D9F144F46A30710509F472C01D
:100D80006431710571F128C062337105C9F16C33AA
:100D90007105D9F168327105F9F42DC0683C71050F
:100DA00009F44CC05CF46A357105F1F164367105E3
:100DB00009F43FC06035710579F431C0603921E034
:100DC000720709F445C0643F21E0720709F445C089
:100DD0006C3221E07207B9F142E350E024E630E0E2
:100DE00045C044E050E022EE30E040C047E050E033
:100DF00023E530E03BC049E050E024EC30E036C071
:100E00004CE050E025E330E031C04EE050E026EA0F
:100E100030E02CC041E150E027E130E027C043E161
:100E200050E028E830E022C045E150E029EF30E012
:100E30001DC048E150E02AE630E018C040E350E031
:100E400024ED30E013C049E450E02EE330E00EC062
:100E500041E650E028EA30E009C04AE750E022E1EC
:100E600030E004C042E050E021E730E0009719F0A4
:100E7000029771F008957093210C6093200C5093A9
:100E80001D0140931C0130931B0120931A0108950A
:100E900070931D0C60931C0C509319014093180122
:100EA0003093170120931601089520911F0C30E014
:100EB00080911C0190911D01281739076CF046B5EF
:100EC00050E081E090E020911A0130911B0142171F
:100ED000530724F480E0089580E090E00895209185
:100EE0001E0C30E0809118019091190128173907E4
:100EF00074F04091B20050E081E090E02091160142
:100F0000309117014217530724F480E0089580E0E0
:100F100090E0089516BC10921F0C08951092B20034
:100F200010921E0C08951F920F920FB60F9211246B
:100F30008F9380911F0C8F5F80931F0C8F910F9068
:100F40000FBE0F901F9018951F920F920FB60F9221
:100F500011248F9380911E0C8F5F80931E0C8F91B4
:100F60000F900FBE0F901F90189586E081B984E016
:100F700082B980EA84B981E58CBD0895F89494E043
:100F800092B98EBD0DB407FEFDCF8EB58093220CB5
:100F900086E082B978940895F89492E092B98EBD73
:100FA0000DB407FEFDCF8EB58093220C86E082B98A
:100FB00078940895CF93DF93C62FD72FEDDF8AE182
:100FC0008A95F1F700C08D2FE7DF8AE18A95F1F766
:100FD00000C08C2FE1DF8AE18A95F1F700C0DF9134
:100FE000CF910895CF93CADF8AE18A95F1F700C0C7
:100FF00088EBC4DFC091220C8AE18A95F1F700C02A
:1010000088EBBCDF2091220C8C2F90E0982F882752
:10101000820F911DCF91089580E18AB91BB810927B
:10102000C5001092C40088E18093C10086E08093DF
:10103000C2000895E0ECF0E0908195FFFDCF809331
:10104000C6000895CF92EF92FF920F931F93CF9314
:10105000DF93C82FD62F142FF22E80E18BB9E0EC4E
:10106000F0E0808180838FEFE5DF8FEFE3DF8C2F6F
:10107000E1DF87E0DFDF8D2FDDDF812FDBDF8F2DED
:10108000D9DF802FD7DF8E2DD5DF8C2DD3DFF894DD
:1010900087E08C0DE80E0E0DF00E1F0DD10F8D2F79
:1010A0008C0F8095C7DFE0ECF0E0808186FFFDCFFC
:1010B0001BB87894DF91CF911F910F91FF90EF9023
:1010C000CF9008959B01AC01A8EEB3E00E948E5032
:1010D0002091200C3091210CA901440F551F240FA1
:1010E000351F220F331F442737FD4095542F0E9490
:1010F0006C5022303105410551052CF462E070E05E
:1011000080E090E00895622F732F842F952F08952B
:101110004F925F926F927F928F929F92AF92BF9207
:10112000CF92DF92EF92FF920F931F93CF93DF93B3
:10113000EC01680179014D3281E0580761057105C4
:10114000E0F5AFEFB3E09A01AB010E948E502CE2C4
:1011500031E040E050E00E946C5049015A0199246E
:10116000AA24BB24432E512C82E7C816D104E104E3
:10117000F104A4F4AFEFB3E0A70196010E948E50F2
:1011800022E730E040E050E00E946C5079018A0193
:10119000FF2400271127432F50E006C040E050E015
:1011A000BA01E12CF12C87016A01820194014EE120
:1011B00050E063E070E0CE0145DFDF91CF911F91F9
:1011C0000F91FF90EF90DF90CF90BF90AF909F90E6
:1011D0008F907F906F905F904F9008954F925F92A5
:1011E0006F927F928F929F92AF92BF92CF92DF9237
:1011F000EF92FF920F931F93CF93DF93CDB7DEB79C
:1012000060970FB6F894DEBF0FBECDBF2B013C0137
:1012100049015A01E982FA820B831C8386019058A6
:101220000E94AF4D6D877E878F87988B29813A8189
:101230004B815C81CA01B9010E949C4F6B017C010A
:10124000A3019201C301B2010E949C4F2B013C01FA
:10125000A5019401C501B4010E949C4F9B01AC0102
:10126000C301B2010E943C4D2B013C010E9403507E
:1012700020E030E048E452E40E943B4D4B015C0129
:101280009B01AC010E949C4F6D837E838F83988766
:101290009B01AC01C701B6010E943C4D69877A876A
:1012A0008B879C870E9403509B01AC0169817A81E6
:1012B0008B819C8190580E94064E0E942D4D69831F
:1012C0007A838B839C8320E030E048E452E4C301BE
:1012D000B2010E943B4D0E9403509B01AC01C5012D
:1012E000B4010E949C4F9B01AC01C701B6010E9452
:1012F0003C4D0E9403502B013C0120E038E44CE8B7
:1013000055E469857A858B859C850E943C4D20E05B
:1013100038E044E856E40E943B4D4B015C01A301D8
:101320009201C301B2010E943C4D20E030E046E84A
:1013300052E40E949C4F9B01AC01C501B4010E9484
:10134000064E0E942D4D2B013C01A701960160E045
:101350007AE187EA96E40E943B4D2D813E814F81E0
:1013600058850E943B4D20E038E148E856E40E9451
:10137000064E0E942D4D4B015C016801EE24D7FC06
:10138000E094FE2C20E030E044E353E46D857E855C
:101390008F8598890E949C4F28ED3FE049E450E4F6
:1013A0000E94064E0E946E4EAB01BC0147595F4F32
:1013B0006F4F7F4F9701860182E090E0A9DEA30185
:1013C000920169817A818B819C810E943C4D24EE3F
:1013D0003EE245E652E40E949C4F0E946E4EAB01F5
:1013E000BC01455B5F4F6F4F7F4F9701860184E0E3
:1013F00090E08EDE20E030E044E353E4C501B40128
:101400000E949C4F28ED3FE049E450E40E94064EC4
:101410000E946E4EAB01BC014F5F5F4F6F4F7F4F1D
:101420009701860186E090E073DE60960FB6F8942F
:10143000DEBF0FBECDBFDF91CF911F910F91FF9007
:10144000EF90DF90CF90BF90AF909F908F907F9064
:101450006F905F904F9008954F925F926F927F923E
:101460008F929F92AF92BF92CF92DF92EF92FF92B4
:101470000F931F93CF93DF93CDB7DEB760970FB66F
:10148000F894DEBF0FBECDBF2B013C0149015A01CC
:10149000E982FA820B831C83860190580E94AF4D2B
:1014A0006D877E878F87988B29813A814B815C81FC
:1014B000CA01B9010E949C4F6B017C01A3019201FA
:1014C000C301B2010E949C4F2B013C01A501940174
:1014D000C501B4010E949C4F9B01AC01C301B20144
:1014E0000E943C4D2B013C010E94035020E030E063
:1014F00048E452E40E943B4D4B015C019B01AC016E
:101500000E949C4F6D837E838F8398879B01AC01E3
:10151000C701B6010E943C4D69877A878B879C87FB
:101520000E9403509B01AC0169817A818B819C816F
:1015300090580E94064E0E942D4D69837A838B83BA
:101540009C8320E030E048E452E4C301B2010E94F1
:101550003B4D0E9403509B01AC01C501B4010E94A8
:101560009C4F9B01AC01C701B6010E943C4D0E94FB
:1015700003502B013C0120E038E44CE855E4698538
:101580007A858B859C850E943C4D20E038E044E8BC
:1015900056E40E943B4D4B015C01A3019201C30143
:1015A000B2010E943C4D20E030E046E852E40E9447
:1015B0009C4F9B01AC01C501B4010E94064E0E94E4
:1015C0002D4D2B013C01A701960160E07AE187EAED
:1015D00096E40E943B4D2D813E814F8158850E94AB
:1015E0003B4D20E038E148E856E40E94064E0E9458
:1015F0002D4D4B015C016801EE24D7FCE094FE2CDC
:1016000020E030E044E353E46D857E858F85988942
:101610000E949C4F28ED3FE049E450E40E94064EB2
:101620000E946E4EAB01BC014F535F4F6F4F7F4F17
:101630009701860188E090E06BDDA301920169814A
:101640007A818B819C810E943C4D24EE3EE245E6EE
:1016500052E40E949C4F0E946E4EAB01BC01455B60
:101660005F4F6F4F7F4F970186018AE090E050DD1A
:1016700020E030E044E353E4C501B4010E949C4FF4
:1016800028ED3FE049E450E40E94064E0E946E4E71
:10169000AB01BC014D5F5F4F6F4F7F4F97018601DC
:1016A0008CE090E035DD60960FB6F894DEBF0FBE9B
:1016B000CDBFDF91CF911F910F91FF90EF90DF9001
:1016C000CF90BF90AF909F908F907F906F905F90E2
:1016D0004F9008954F925F926F927F928F929F9258
:1016E000AF92BF92CF92DF92EF92FF920F931F9330
:1016F000CF93DF93CDB7DEB760970FB6F894DEBF18
:101700000FBECDBF2B013C0149015A01E982FA828B
:101710000B831C83860150580E94AF4D6D877E87D6
:101720008F87988B29813A814B815C81CA01B901ED
:101730000E949C4F6B017C01A3019201C301B20185
:101740000E949C4F2B013C01A5019401C501B401ED
:101750000E949C4F9B01AC01C301B2010E943C4D11
:101760002B013C010E94035020E030E048E452E4A9
:101770000E943B4D4B015C019B01AC010E949C4FC0
:101780006D837E838F8398879B01AC01C701B6016F
:101790000E943C4D69877A878B879C870E94035003
:1017A0009B01AC0169817A818B819C8190580E9458
:1017B000064E0E942D4D69837A838B839C8320E0A3
:1017C00030E048E452E4C301B2010E943B4D0E9464
:1017D00003509B01AC01C501B4010E949C4F9B01C9
:1017E000AC01C701B6010E943C4D0E9403502B0181
:1017F0003C0120E038E44CE855E469857A858B8526
:101800009C850E943C4D20E038E044E856E40E946C
:101810003B4D4B015C01A3019201C301B2010E9447
:101820003C4D20E030E046E852E40E949C4F9B0192
:10183000AC01C501B4010E94064E0E942D4D2B0142
:101840003C01A701960160E07AE187EA96E40E94F4
:101850003B4D2D813E814F8158850E943B4D20E0BC
:1018600038E148E856E40E94064E0E942D4D4B0197
:101870005C016801EE24D7FCE094FE2C20E030E00F
:1018800044E353E46D857E858F8598890E949C4F43
:1018900028ED3FE049E450E40E94064E0E946E4E5F
:1018A000AB01BC014D535F4F6F4F7F4F97018601D6
:1018B00081E090E02DDCA301920169817A818B8126
:1018C0009C810E943C4D24EE3EE245E652E40E949B
:1018D0009C4F0E946E4E0F2EF1EE4F2E512C612C1C
:1018E000712CF02D93018201061B170B280B390B6D
:1018F000B901A8019701860183E090E009DC20E0AE
:1019000030E044E353E4C501B4010E949C4F28ED4C
:101910003FE049E450E40E94064E0E946E4E0F2EB6
:10192000FCE28F2E99249394A12CB12CF02D9501DB
:101930008401061B170B280B390BB901A80197016D
:10194000860185E090E0E4DB60960FB6F894DEBF98
:101950000FBECDBFDF91CF911F910F91FF90EF9000
:10196000DF90CF90BF90AF909F908F907F906F90BF
:101970005F904F9008954F925F926F927F928F92F7
:101980009F92AF92BF92CF92DF92EF92FF920F930E
:101990001F93CF93DF93CDB7DEB760970FB6F89460
:1019A000DEBF0FBECDBF2B013C0149015A01E982C8
:1019B000FA820B831C83860150580E94AF4D6D87BD
:1019C0007E878F87988B29813A814B815C81CA0100
:1019D000B9010E949C4F6B017C01A3019201C301DC
:1019E000B2010E949C4F2B013C01A5019401C5014D
:1019F000B4010E949C4F9B01AC01C301B2010E9443
:101A00003C4D2B013C010E94035020E030E048E4B3
:101A100052E40E943B4D4B015C019B01AC010E94D2
:101A20009C4F6D837E838F8398879B01AC01C70198
:101A3000B6010E943C4D69877A878B879C870E94FC
:101A400003509B01AC0169817A818B819C81905804
:101A50000E94064E0E942D4D69837A838B839C835E
:101A600020E030E048E452E4C301B2010E943B4D63
:101A70000E9403509B01AC01C501B4010E949C4F20
:101A80009B01AC01C701B6010E943C4D0E9403506E
:101A90002B013C0120E038E44CE855E469857A8567
:101AA0008B859C850E943C4D20E038E044E856E45C
:101AB0000E943B4D4B015C01A3019201C301B201A5
:101AC0000E943C4D20E030E046E852E40E949C4FEA
:101AD0009B01AC01C501B4010E94064E0E942D4D30
:101AE0002B013C01A701960160E07AE187EA96E4C8
:101AF0000E943B4D2D813E814F8158850E943B4D78
:101B000020E038E148E856E40E94064E0E942D4D40
:101B10004B015C016801EE24D7FCE094FE2C20E030
:101B200030E044E353E46D857E858F8598890E947B
:101B30009C4F28ED3FE049E450E40E94064E0E948D
:101B40006E4EAB01BC0147595F4F6F4F7F4F9701FE
:101B5000860187E090E0DCDAA301920169817A8155
:101B60008B819C810E943C4D24EE3EE245E652E48E
:101B70000E949C4F0E946E4E0F2EF1EE4F2E512C64
:101B8000612C712CF02D93018201061B170B280B81
:101B9000390BB901A8019701860189E090E0B8DA14
:101BA00020E030E044E353E4C501B4010E949C4FBF
:101BB00028ED3FE049E450E40E94064E0E946E4E3C
:101BC0000F2EFCE28F2E99249394A12CB12CF02D92
:101BD00095018401061B170B280B390BB901A801CD
:101BE000970186018BE090E093DA60960FB6F89447
:101BF000DEBF0FBECDBFDF91CF911F910F91FF9040
:101C0000EF90DF90CF90BF90AF909F908F907F909C
:101C10006F905F904F9008954F925F926F927F9276
:101C20008F929F92AF92BF92CF92DF92EF92FF92EC
:101C30000F931F93C0904401D090450160915A01C9
:101C400070915B01882777FD8095982F0E94A14EA7
:101C50002B013C0160915C0170915D01882777FD4B
:101C60008095982F0E94A14E4B015C0160915E010E
:101C700070915F01719561957109882777FD809555
:101C8000982F0E94A14E83017201A5019401A6DA4A
:101C9000C0904401D090450160915A0170915B0160
:101CA000882777FD8095982F0E94A14E2B013C013B
:101CB00060915C0170915D01882777FD8095982F78
:101CC0000E94A14E4B015C0160915E0170915F0129
:101CD000882777FD8095982F0E94A14E830172017D
:101CE000A5019401B9DBC0904401D09045016091F9
:101CF0005A0170915B01882777FD8095982F0E948B
:101D0000A14E2B013C0160915C0170915D017195C8
:101D100061957109882777FD8095982F0E94A14EC3
:101D20004B015C0160915E0170915F01719561955D
:101D30007109882777FD8095982F0E94A14E830115
:101D40007201A5019401C6DCC0904401D090450108
:101D500060915A0170915B01882777FD8095982FDB
:101D60000E94A14E2B013C0160915C0170915D01CC
:101D7000719561957109882777FD8095982F0E944C
:101D8000A14E4B015C0160915E0170915F0188275B
:101D900077FD8095982F0E94A14E83017201A501C5
:101DA0009401E9DD1F910F91FF90EF90DF90CF90AC
:101DB000BF90AF909F908F907F906F905F904F906B
:101DC000089580917E0190917F0120914001309192
:101DD0004101821793075CF010927F0110927E01FF
:101DE00081E090E090934301809342010895AC011B
:101DF0004F5F5F4F50937F0140937E01421753071F
:101E00002CF0109243011092420108950296909393
:101E100043018093420108952F923F924F925F9227
:101E20006F927F928F929F92AF92BF92CF92DF92EA
:101E3000EF92FF920F931F93CF93DF93CDB7DEB74F
:101E4000E6970FB6F894DEBF0FBECDBF29833A8365
:101E50004B835C836D837E838F83988717012F96D6
:101E60004CAC5DAC6EAC7FAC2F9729813A813E8B38
:101E70002D8B4B815C81588F4F8B8D809E80EF80A6
:101E8000F884C9010197029788F4D7FAD094D7F85B
:101E9000D09467968CAD9DADAEADBFAD6797B05891
:101EA00067968CAF9DAFAEAFBFAF67978D899E89A8
:101EB0000397029788F477FA709477F870946B968A
:101EC0002CAD3DAD4EAD5FAD6B9750586B962CAFC2
:101ED0003DAF4EAF5FAF6B97B801882777FD809518
:101EE000982F0E94A14E69877A878B879C87A601CD
:101EF000950167966CAD7DAD8EAD9FAD67970E94E5
:101F00003B4D29853A854B855C850E94064E6BA723
:101F10007CA78DA79EA7A30192016B966CAD7DADAA
:101F20008EAD9FAD6B970E943B4D29853A854B85C1
:101F30005C850E94064E6FA778AB89AB9AAB63961F
:101F40002CAD3DAD4EAD5FAD63976F966CAD7DAD85
:101F50008EAD9FAD6F970E943B4D29853A854B858D
:101F60005C850E94064E6BAB7CAB8DAB9EABA1013A
:101F7000400F511F5AA749A7241635060CF0B8C2C6
:101F800024E1AF89B88D2A9FC0012B9F900D1124A9
:101F9000820D931D880F991F880F991FFC01E75C24
:101FA000FF4EFAA3E9A3289DC001299D900D11249D
:101FB000820D931D880F991F880F991FAC01475CF4
:101FC0005F4E58A34F8F2E9DC0012F9D900D112461
:101FD000820D931D880F991F880F991FDC01A75C44
:101FE000BF4EBCA3ABA38101000F111F000F111F37
:101FF0000D58134FA986BA86CB86DC864D865E8641
:102000006F86788A2BA53CA54DA55EA569857A8546
:102010008B859C850E943C4D69877A878B879C873E
:102020002FA538A949A95AA96D857E858F859889DC
:102030000E943C4D6D877E878F87988B2BA93CA98A
:102040004DA95EA963966CAD7DAD8EAD9FAD6397D6
:102050000E943C4D63966CAF7DAF8EAF9FAF639790
:102060002D853E854F85588969857A858B859C8528
:102070000E94AF4D20E030E044E353E40E949C4FC7
:1020800028ED3FE049E450E40E94064E0E946E4E67
:102090006DA37EA38FA398A763962CAD3DAD4EADE7
:1020A0005FAD6397CA01B9010E949C4F698B7A8B1F
:1020B0008B8B9C8B29853A854B855C85CA01B90140
:1020C0000E949C4F6B017C012D853E854F85588970
:1020D000CA01B9010E949C4F9B01AC01C701B60126
:1020E0000E943C4D6F8B788F898F9A8F0E9403508E
:1020F00020E030E048E452E40E943B4D6B017C015B
:102100009B01AC010E949C4F6B8F7C8F8D8F9E8FAB
:102110009B01AC0169897A898B899C890E943C4D1D
:102120004B015C010E9403509B01AC0163966CADB6
:102130007DAD8EAD9FAD639790580E94064E0E9474
:102140002D4D2B013C0120E030E048E452E46F8942
:10215000788D898D9A8D0E943B4D0E9403509B0182
:10216000AC01C701B6010E949C4F9B01AC0169897B
:102170007A898B899C890E943C4D0E9403506B0197
:102180007C0120E038E44CE855E4C501B4010E942C
:102190003C4D20E038E044E856E40E943B4D4B01C2
:1021A0005C01A7019601C701B6010E943C4D20E0E9
:1021B00030E046E852E40E949C4F9B01AC01C5010F
:1021C000B4010E94064E0E942D4D9B01AC01C3013B
:1021D000B2010E943C4D24EE3EE245E652E40E94EC
:1021E0009C4F0E946E4E6B017C0129893A894B8974
:1021F0005C8960E07AE187EA96E40E943B4D2B8D92
:102200003C8D4D8D5E8D0E943B4D20E038E148E8CD
:1022100056E40E94064E0E942D4D20E030E044E33B
:1022200053E40E949C4F28ED3FE049E450E40E94B3
:10223000064E0E946E4EED89FE89E230F10509F4EA
:1022400057C01CF4319761F038C12D893E89233085
:10225000310509F496C02430310509F4E1C02DC1DF
:102260008DA09EA0AFA0B8A439E6830E911CA11C3E
:10227000B11CA9A1BAA18D929D92AD92BC92139767
:10228000BBE4CB0ED11CE11CF11CEF8DF8A1C08288
:10229000D182E282F382DC01CB010196A11DB11D46
:1022A000EBA1FCA180839183A283B38329853A8526
:1022B0004B855C85D8012D933D934D935C9313978B
:1022C000F801E05BFF4F2D853E854F8558892083BF
:1022D000318342835383E05BFF4F63968CAD9DADAA
:1022E000AEADBFAD639780839183A283B383E5C016
:1022F0008DA09EA0AFA0B8A4A1EC8A0E911CA11C39
:10230000B11CE9A1FAA180829182A282B382FBE48E
:10231000CF0ED11CE11CF11CAF8DB8A1CD92DD9286
:10232000ED92FC921397DC01CB010396A11DB11D28
:10233000EBA1FCA180839183A283B383F801E051D8
:10234000FF4F89859A85AB85BC85B0588083918382
:10235000A283B383E05BFF4F2D853E854F8558896F
:102360002083318342835383E05BFF4F63968CADC0
:102370009DADAEADBFAD639780839183A283B383E0
:102380009CC08DA09EA0AFA0B8A4A3EC8A0E911C07
:10239000A11CB11CE9A1FAA180829182A282B38220
:1023A00021EE30E040E050E02C193D094E095F0974
:1023B000AF8DB8A12D933D934D935C9313972CE271
:1023C00031E040E050E0261B370B480B590BEBA1E6
:1023D000FCA12083318342835383F801E052FE4FF6
:1023E00089859A85AB85BC85B05880839183A2830B
:1023F000B383E05BFF4F2D853E854F855889208351
:10240000318342835383E05BFF4F63968CAD9DAD78
:10241000AEADBFAD639780839183A283B3834DC07C
:102420008DA09EA0AFA0B8A4A9E68A0E911CA11C05
:10243000B11CE9A1FAA180829182A282B38221EE2D
:1024400030E040E050E02C193D094E095F09AF8DA6
:10245000B8A12D933D934D935C9313972CE231E0FB
:1024600040E050E0261B370B480B590BEBA1FCA1B9
:102470002083318342835383F801E053FD4F298544
:102480003A854B855C852083318342835383E05BAF
:10249000FF4F8D859E85AF85B88980839183A28308
:1024A000B383E05BFF4F63962CAD3DAD4EAD5FADAA
:1024B000639720833183428353833FEF231A330A88
:1024C00049A15AA14C5F5F4F5AA349A38F8D98A190
:1024D000049698A38F8FABA1BCA11496BCA3ABA309
:1024E0000C5F1F4FE9A5FAA52E163F0609F08ACD0D
:1024F000E6960FB6F894DEBF0FBECDBFDF91CF9149
:102500001F910F91FF90EF90DF90CF90BF90AF9011
:102510009F908F907F906F905F904F903F902F9003
:1025200008952F923F924F925F926F927F928F9277
:102530009F92AF92BF92CF92DF92EF92FF920F9352
:102540001F93CF93DF93CDB7DEB7CA54D1090FB62F
:10255000F894DEBF0FBECDBF29833A834B835C83E3
:102560006D837E838F83988725961FAF0EAF259747
:10257000FCAAEBAAA7964CAC5DAC6EAC7FACA7975F
:1025800029803A802B813C8127963FAF2EAF279739
:102590004D815E8129965FAF4EAF29978F819885D7
:1025A0002B969FAF8EAF2B97112314F40F5F1F4F05
:1025B00015950795ABA9BCA9A00FB11FBAA7A9A7EC
:1025C0001197BAAFA9AFC1010197029788F4D7FA62
:1025D000D094D7F8D094AB962CAD3DAD4EAD5FAD59
:1025E000AB975058AB962CAF3DAF4EAF5FAFAB97AC
:1025F000C10103970297D0F4A3968CAD9DADAEAD0B
:10260000BFADA397B058A3968CAF9DAFAEAFBFAF91
:10261000A397AF962CAD3DAD4EAD5FADAF97505883
:10262000AF962CAF3DAF4EAF5FAFAF9725964EAD97
:102630005FAD2597BA01882777FD8095982F0E9476
:10264000A14E69877A878B879C87A6019501AB96F7
:102650006CAD7DAD8EAD9FADAB970E943B4D298596
:102660003A854B855C850E94064E6BA77CA78DA79B
:102670009EA7A3962CAD3DAD4EAD5FADA397AF9693
:102680006CAD7DAD8EAD9FADAF970E943B4D298562
:102690003A854B855C850E94064E6FA778AB89AB67
:1026A0009AAB6091580170915901882777FD809508
:1026B000982F0E94A14E69877A878B879C87B801E3
:1026C000882777FD8095982F0E94A14E6D877E8781
:1026D0008F87988BE3962CAD3DAD4EAD5FADE39704
:1026E00069857A858B859C850E943C4DA30192016A
:1026F0000E943B4D2D853E854F8558890E94064E90
:102700006BAF7CAF8DAF9EAFA3019201E3966CAD32
:102710007DAD8EAD9FADE3970E943B4D29853A85F7
:102720004B855C850E943B4D2D853E854F855889A4
:102730000E94064E23966CAF7DAF8EAF9FAF23975E
:102740008BA99CA9A9ADBAADA817B9070CF4D3C23F
:1027500024E12796EEADFFAD27972E9FC0012F9F56
:10276000900D11244BA95CA9840F951F880F991F08
:10277000880F991FDC01A75CBF4EBAA3A9A32996B5
:10278000EEADFFAD29972E9FC0012F9F900D112414
:10279000840F951F880F991F880F991FAC01475C04
:1027A0005F4E5CA34BA32B96AEADBFAD2B972A9F7C
:1027B000C0012B9F900D1124EBA9FCA98E0F9F1F28
:1027C000880F991F880F991F9C01275C3F4E8F012E
:1027D000000F111F000F111F0D58134F3E8A2D8A35
:1027E0001F013EA32DA3A986BA86CB86DC864D8623
:1027F0005E866F86788A2BA53CA54DA55EA569856A
:102800007A858B859C850E943C4D69877A878B876A
:102810009C872FA538A949A95AA9A3966CAD7DAD6F
:102820008EAD9FADA3970E943C4DA3966CAF7DAF3C
:102830008EAF9FAFA3972BAD3CAD4DAD5EAD6D851B
:102840007E858F8598890E943C4D6D877E878F8716
:10285000988BA3962CAD3DAD4EAD5FADA39769852A
:102860007A858B859C850E94AF4D20E030E044E363
:1028700053E40E949C4F28ED3FE049E450E40E945D
:10288000064E0E946E4E6DAB7EAB8FAB98AF2D8522
:102890003E854F855889CA01B9010E949C4F698BBA
:1028A0007A8B8B8B9C8B29853A854B855C85CA01FD
:1028B000B9010E949C4F6B017C01A3962CAD3DADEC
:1028C0004EAD5FADA397CA01B9010E949C4F9B0119
:1028D000AC01C701B6010E943C4D698F7A8F8B8F86
:1028E0009C8F0E94035020E030E048E452E40E94B4
:1028F0003B4D6B017C019B01AC010E949C4F6D8F95
:102900007E8F8F8F98A39B01AC0169897A898B890F
:102910009C890E943C4D4B015C010E9403509B012D
:10292000AC016D857E858F85988990580E94064EF2
:102930000E942D4D2B013C0120E030E048E452E4A0
:10294000698D7A8D8B8D9C8D0E943B4D0E9403502A
:102950009B01AC01C701B6010E949C4F9B01AC01D9
:1029600069897A898B899C890E943C4D0E94035019
:102970006B017C0120E038E44CE855E4C501B4016A
:102980000E943C4D20E038E044E856E40E943B4D74
:102990004B015C01A7019601C701B6010E943C4DA5
:1029A00020E030E046E852E40E949C4F9B01AC01DD
:1029B000C501B4010E94064E0E942D4D9B01AC0141
:1029C000C301B2010E943C4D24EE3EE245E652E4D2
:1029D0000E949C4F0E946E4E6B017C0129893A89AE
:1029E0004B895C8960E07AE187EA96E40E943B4D7E
:1029F0002D8D3E8D4F8D58A10E943B4D20E038E13A
:102A000048E856E40E94064E0E942D4D20E030E03A
:102A100044E353E40E949C4F28ED3FE049E450E436
:102A20000E94064E0E946E4E4D895E8942305105CD
:102A300009F457C024F44130510559F037C1AD892C
:102A4000BE89A330B10509F495C0149709F4E1C01B
:102A50002DC18DA89EA8AFA8B8ACB9E68B0E911C6D
:102A6000A11CB11CE9A1FAA180829182A282B38249
:102A7000FBE4CF0ED11CE11CF11CABA1BCA1CD929B
:102A8000DD92ED92FC921397DC01CB010196A11D22
:102A9000B11DEDA1FEA180839183A283B38329851B
:102AA0003A854B855C85D8012D933D934D935C937E
:102AB0001397F801E05BFF4FA3962CAD3DAD4EADF3
:102AC0005FADA3972083318342835383E05BFF4F45
:102AD0008D859E85AF85B88980839183A283B383DA
:102AE000E5C08DA89EA8AFA8B8ACA1EC8A0E911C39
:102AF000A11CB11CE9A1FAA180829182A282B382B9
:102B0000FBE4CF0ED11CE11CF11CABA1BCA1CD920A
:102B1000DD92ED92FC921397DC01CB010396A11D8F
:102B2000B11DEDA1FEA180839183A283B383F8013F
:102B3000E051FF4F89859A85AB85BC85B05880836D
:102B40009183A283B383E05BFF4FA3962CAD3DAD91
:102B50004EAD5FADA3972083318342835383E05B07
:102B6000FF4F8D859E85AF85B88980839183A28331
:102B7000B3839CC08DA89EA8AFA8B8ACA3EC8A0E66
:102B8000911CA11CB11CE9A1FAA180829182A282B0
:102B9000B38221EE30E040E050E02C193D094E09AF
:102BA0005F09ABA1BCA12D933D934D935C9313970B
:102BB0002CE231E040E050E0261B370B480B590B6C
:102BC000EDA1FEA12083318342835383F801E052BB
:102BD000FE4F89859A85AB85BC85B05880839183EB
:102BE000A283B383E05BFF4FA3962CAD3DAD4EAD0A
:102BF0005FADA3972083318342835383E05BFF4F14
:102C00008D859E85AF85B88980839183A283B383A8
:102C10004DC08DA89EA8AFA8B8ACA9E68A0E911C9D
:102C2000A11CB11CE9A1FAA180829182A282B38287
:102C300021EE30E040E050E02C193D094E095F09DB
:102C4000ABA1BCA12D933D934D935C9313972CE2C4
:102C500031E040E050E0261B370B480B590BEDA14B
:102C6000FEA12083318342835383F801E053FD4F5B
:102C700029853A854B855C85208331834283538344
:102C8000E05BFF4FA3968CAD9DADAEADBFADA397FE
:102C900080839183A283B383E05BFF4F2D853E85C4
:102CA0004F85588920833183428353833FEF231A12
:102CB000330A49A15AA14C5F5F4F5AA349A38BA184
:102CC0009CA104969CA38BA3ADA1BEA11496BEA308
:102CD000ADA30C5F1F4FE9ADFAADE215F3050CF0A3
:102CE0008ACD2D883E88A984BA84CB84DC844D8427
:102CF0005E846F8478882BA93CA925964EAD5FAD84
:102D00002597240F351F3CAB2BAB89A59AA58217BD
:102D100093070CF0CCC224E12796AEADBFAD279748
:102D20002A9FC0012B9F900D1124E9A5FAA58E0FB3
:102D30009F1F880F991F880F991FAC01475C5F4E3A
:102D40007A012996AEADBFAD29972A9FC0012B9F6E
:102D5000900D11248E0F9F1F880F991F880F991FA8
:102D6000FC01E75CFF4EFE8FED8F2B964EAD5FAD05
:102D70002B97249FC001259F900D1124A9A5BAA5CA
:102D80008A0F9B1F880F991F880F991FFC01E75C12
:102D9000FF4EFAA3E9A38D01000F111F000F111FB1
:102DA0000D58134FFCA2EBA2A986BA86CB86DC860F
:102DB0004D865E866F86788A2BA53CA54DA55EA5BF
:102DC00069857A858B859C850E943C4D69877A87C9
:102DD0008B879C872FA538A949A95AA9A3966CADC2
:102DE0007DAD8EAD9FADA3970E943C4DA3966CAF79
:102DF0007DAF8EAF9FAFA39723962CAD3DAD4EAD6B
:102E00005FAD23976D857E858F8598890E943C4DA7
:102E10006D877E878F87988BA3962CAD3DAD4EAD89
:102E20005FADA39769857A858B859C850E94AF4DA0
:102E300020E030E044E353E40E949C4F28ED3FE063
:102E400049E450E40E94064E0E946E4E6DA37EA39C
:102E50008FA398A72D853E854F855889CA01B90152
:102E60000E949C4F698B7A8B8B8B9C8B29853A8532
:102E70004B855C85CA01B9010E949C4F6B017C01A6
:102E8000A3962CAD3DAD4EAD5FADA397CA01B90180
:102E90000E949C4F9B01AC01C701B6010E943C4DB2
:102EA0006D8B7E8B8F8B988F0E94035020E030E0DB
:102EB00048E452E40E943B4D6B017C019B01AC0154
:102EC0000E949C4F698F7A8F8B8F9C8F9B01AC01E6
:102ED00069897A898B899C890E943C4D4B015C01F0
:102EE0000E9403509B01AC016D857E858F8598897A
:102EF00090580E94064E0E942D4D2B013C0120E06F
:102F000030E048E452E46D897E898F89988D0E9473
:102F10003B4D0E9403509B01AC01C701B6010E94CA
:102F20009C4F9B01AC0169897A898B899C890E949D
:102F30003C4D0E9403506B017C0120E038E44CE8DA
:102F400055E4C501B4010E943C4D20E038E044E85E
:102F500056E40E943B4D4B015C01A7019601C7015D
:102F6000B6010E943C4D20E030E046E852E40E9469
:102F70009C4F9B01AC01C501B4010E94064E0E940A
:102F80002D4D9B01AC01C301B2010E943C4D24EECA
:102F90003EE245E652E40E949C4F0E946E4E6B0159
:102FA0007C0129893A894B895C8960E07AE187EA6A
:102FB00096E40E943B4D298D3A8D4B8D5C8D0E948D
:102FC0003B4D20E038E148E856E40E94064E0E945E
:102FD0002D4D20E030E044E353E40E949C4F28ED67
:102FE0003FE049E450E40E94064E0E946E4EF2E03B
:102FF0002F16310409F459C02CF431E023163104A2
:1030000061F038C143E02416310409F497C054E05C
:103010002516310409F4E1C02DC18DA09EA0AFA0FA
:10302000B8A4A9E68A0E911CA11CB11CEBA1FCA1BD
:1030300080829182A282B382FBE4CF0ED11CE11C7C
:10304000F11CAD8DBE8DCD92DD92ED92FC92139769
:10305000DC01CB010196A11DB11DE9A1FAA180837C
:103060009183A283B38329853A854B855C85D801FA
:103070002D933D934D935C931397F801E05BFF4FC5
:10308000A3962CAD3DAD4EAD5FADA39720833183AC
:1030900042835383E05BFF4F8D859E85AF85B88962
:1030A00080839183A283B383E5C08DA09EA0AFA04F
:1030B000B8A4A1EC8A0E911CA11CB11CEBA1FCA12F
:1030C00080829182A282B382FBE4CF0ED11CE11CEC
:1030D000F11CAD8DBE8DCD92DD92ED92FC921397D9
:1030E000DC01CB010396A11DB11DE9A1FAA18083EA
:1030F0009183A283B383F801E051FF4F89859A85BC
:10310000AB85BC85B05880839183A283B383E05B99
:10311000FF4FA3962CAD3DAD4EAD5FADA397208381
:10312000318342835383E05BFF4F8D859E85AF855E
:10313000B88980839183A283B3839CC08DA09EA015
:10314000AFA0B8A4A3EC8A0E911CA11CB11CEBA1EA
:10315000FCA180829182A282B38221EE30E040E025
:1031600050E02C193D094E095F09AD8DBE8D2D93A0
:103170003D934D935C9313972CE231E040E050E097
:10318000261B370B480B590BE9A1FAA12083318389
:1031900042835383F801E052FE4F89859A85AB85BF
:1031A000BC85B05880839183A283B383E05BFF4FDB
:1031B000A3962CAD3DAD4EAD5FADA397208331837B
:1031C00042835383E05BFF4F8D859E85AF85B88931
:1031D00080839183A283B3834DC08DA09EA0AFA0B6
:1031E000B8A4A9E68A0E911CA11CB11CEBA1FCA1FC
:1031F00080829182A282B38221EE30E040E050E0F2
:103200002C193D094E095F09AD8DBE8D2D933D935F
:103210004D935C9313972CE231E040E050E0261B85
:10322000370B480B590BE9A1FAA120833183428364
:103230005383F801E053FD4F29853A854B855C8522
:103240002083318342835383E05BFF4FA3968CAD91
:103250009DADAEADBFADA39780839183A283B383B1
:10326000E05BFF4F2D853E854F8558892083318354
:103270004283538349A55AA54F5F5F4F5AA749A779
:103280008BA19CA104969CA38BA3AD8DBE8D14969F
:10329000BE8FAD8FE9A1FAA13496FAA3E9A30C5F22
:1032A0001F4F2BA93CA94217530709F085CDC65BD8
:1032B000DF4F0FB6F894DEBF0FBECDBFDF91CF91C9
:1032C0001F910F91FF90EF90DF90CF90BF90AF9044
:1032D0009F908F907F906F905F904F903F902F9036
:1032E00008954F925F926F927F928F929F92AF92CA
:1032F000BF92CF92DF92EF92FF920F931F93CF93E3
:10330000DF93CDB7DEB728970FB6F894DEBF0FBEB8
:10331000CDBF4B835C836D837E838F839887EB80E7
:10332000FC808D809E80AF80B88424E12E9DC001FA
:103330002F9D900D1124E0914201F0914301E80F7F
:10334000F91FEE0FFF1FEE0FFF1FE75CFF4E4080DF
:10335000518062807380E0917E01F0917F018E0F39
:103360009F1FFC01EE0FFF1FEE0FFF1FE75CFF4EDC
:103370008081918184199509BC0122F46627772701
:10338000681B790B882777FD8095982F0E9462082B
:103390008B019C01B301A201C7010E94880824E1AE
:1033A000289DC001299D900D1124E0914201F091CA
:1033B0004301E80FF91FEE0FFF1FEE0FFF1FE75C41
:1033C000FF4EC080D180E280F380E0917E01F091D9
:1033D0007F018E0F9F1FFC01EE0FFF1FEE0FFF1FDF
:1033E000E75CFF4E808191818C199D09BC0122F41C
:1033F00066277727681B790B882777FD8095982F9C
:103400000E9462088B019C01B701A601C4010E94C1
:10341000880824E12A9DC0012B9D900D1124E09184
:103420004201F0914301E80FF91FEE0FFF1FEE0F6D
:10343000FF1FE75CFF4EC080D180E280F380E09107
:103440007E01F0917F018E0F9F1FFC01EE0FFF1F89
:10345000EE0FFF1FE75CFF4E808191818C199D0963
:10346000BC0122F466277727681B790B882777FD34
:103470008095982F0E9462088B019C01B701A601DC
:10348000C5010E94880828960FB6F894DEBF0FBECB
:10349000CDBFDF91CF911F910F91FF90EF90DF9003
:1034A000CF90BF90AF909F908F907F906F905F90E4
:1034B0004F900895209138013091390140913A019F
:1034C00050913B0160913C0170913D0180913E0122
:1034D00090913F0106DF2091300130913101409100
:1034E0003201509133016091340170913501809126
:1034F000360190913701F5DE2091280130912901A4
:1035000040912A0150912B0160912C0170912D0165
:1035100080912E0190912F01E4DE209120013091C5
:103520002101409122015091230160912401709169
:1035300025018091260190912701D3DE0C94E10EA4
:1035400008951F920F920FB60F9211240BB60F928F
:103550002F933F934F935F936F937F938F939F939B
:10356000AF93BF93EF93FF9388EB0E94CC078091BA
:10357000220C8823E4F0282F2F7030E0309386014E
:1035800020938501807F90E0959587959595879507
:103590009595879595958795909384018093830160
:1035A00081E090E090931A0C8093190C0BC021E0FD
:1035B00030E0309382012093810190E09093A0014C
:1035C00080939F01FF91EF91BF91AF919F918F9158
:1035D0007F916F915F914F913F912F910F900BBE13
:1035E0000F900FBE0F901F9018951F920F920FB65D
:1035F0000F9211248F9381E0809387018F910F9018
:103600000FBE0F901F9018956091110C7091120CC5
:103610008AEC90E00E94DA076091130C7091140C10
:1036200080ED90E00E94DA076091150C7091160C05
:1036300088ED90E00E94DA076091170C7091180CE9
:1036400080EE90E00E94DA076091070C7091080C00
:1036500088EE90E00E94DA076091090C70910A0CE4
:1036600080EF90E00E94DA0760910B0C70910C0CD7
:1036700088EF90E00E94DA0760910D0C70910E0CBB
:1036800088E890E00E94DA0788E990E00E94F2075B
:10369000BC0188E990E00E94DA0780E990E00E948E
:1036A000F207BC0180E990E00C94DA0708958AECF7
:1036B00090E00E94F2079093120C8093110C80ED21
:1036C00090E00E94F2079093140C8093130C88ED05
:1036D00090E00E94F2079093160C8093150C80EEF8
:1036E00090E00E94F2079093180C8093170C0895B5
:1036F00080E990E00E94F2079093100C80930F0CE9
:1037000008954F925F926F927F928F929F92AF92A5
:10371000BF92CF92DF92EF92FF92CF93DF939B0104
:1037200090918801913031F138F0923009F440C025
:10373000933009F45BC078C0813019F0833071F0A8
:1037400076C06091130C7091140C645C7F4F809173
:103750001E0190911F01681B790B74C08091170C9A
:103760009091180CCC9660911E0170911F01681BFE
:10377000790B68C0882381F0823009F05BC06091CA
:10378000150C7091160C645C7F4F80911E01909116
:103790001F01681B790B56C08091110C9091120C7F
:1037A000CC9660911E0170911F01681B790B4AC075
:1037B000813081F0833009F040C06091170C709126
:1037C000180C645C7F4F80911E0190911F01681B53
:1037D000790B38C08091130C9091140CCC966091A9
:1037E0001E0170911F01681B790B2CC0882319F0F2
:1037F000823071F025C06091110C7091120C645CE4
:103800007F4F80911E0190911F01681B790B1AC098
:103810008091150C9091160CCC9660911E017091C0
:103820001F01681B790B0EC060E070E00BC060E008
:1038300070E008C060E070E005C060E070E002C0C9
:1038400060E070E0232B29F0C0910F0CD091100C98
:1038500002C0C0E0D0E0882777FD8095982F0E94B5
:10386000A14E20914A0130914B0140914C01509161
:103870004D010E949C4F0E946E4E2B013C01C09056
:103880004601D0904701E0904801F0904901BE0107
:10389000882777FD8095982F0E94A14EA701960159
:1038A0000E949C4F20E030E040E05FE30E949C4F8C
:1038B0000E946E4E4B015C01662777276C1B7D0BC7
:1038C000882777FD8095982F0E94A14E9B01AC011F
:1038D000C701B6010E949C4F20E030E040E05FE36A
:1038E0000E949C4F0E946E4EA2014D33510514F070
:1038F0004CE350E094012D33310514F02CE330E01B
:103900006D33710514F06CE370E0CA01843C4FEF35
:10391000940714F484EC9FEF909334108093331049
:10392000C901843C2FEF920714F484EC9FEF90932D
:10393000361080933510643C4FEF740714F464EC38
:103940007FEF709338106093371081E090E0909390
:10395000510180935001DF91CF91FF90EF90DF9064
:10396000CF90BF90AF909F908F907F906F905F901F
:103970004F90089540919301509194018091950149
:103980009091960120919701309198016091990151
:1039900070919A01E0918801E13061F028F0E23005
:1039A00079F0E33099F018C0892BC1F0672BC1F092
:1039B00084E023C0232BB1F0452BB1F084E01DC07F
:1039C000892BA1F0672BA1F084E017C0452B91F063
:1039D000232B91F084E011C084E00FC081E00DC082
:1039E00083E00BC082E009C080E007C081E005C031
:1039F00083E003C080E001C082E090E008952F9250
:103A00003F924F925F926F927F928F929F92AF926E
:103A1000BF92CF92DF92EF92FF920F931F93CF93BB
:103A2000DF93CDB7DEB7CC54D1090FB6F894DEBF23
:103A30000FBECDBF8BE090E0909341018093400199
:103A400090934C1480934B1420917E0130917F0110
:103A5000220F331F220F331F2D5D334FFE0131968E
:103A6000AE014B5C5F4FB9019F01FB0180819181E9
:103A7000A281B381F90181939193A193B1939F01A5
:103A8000605B7F4FE417F50781F7F9852696FFAF56
:103A900026972A8527962FAF27973B8528963FAFF5
:103AA00028974C8529964FAF29978D819E81AF81AC
:103AB000B8859C01AD01505821962CAF3DAF4EAF5B
:103AC0005FAF219760915A0170915B01882777FD64
:103AD0008095982F0E94A14E9F938F937F936F9311
:103AE00029963FAD29973F9328964FAD28974F933E
:103AF00027965FAD27975F9326968FAD26978F9376
:103B000021969FAD21979F93EFADEF93FEADFF936D
:103B10002DAD2F9388898F938F858F938E858F936B
:103B20008D858F933F934F935F9326963FAD269756
:103B30003F932196ACACBDACCEACDFAC2197E12C71
:103B4000F12C04E010E020913801309139014091CE
:103B50003A0150913B0160913C0170913D0180918F
:103B60003E0190913F010E940C0F2D883E888F8866
:103B7000988C498922964FAF22975A8923965FAF36
:103B800023978B8924968FAF24979C8925969FAF86
:103B9000259760915A0170915B01882777FD809588
:103BA000982F0E94A14E9F938F937F936F939F9224
:103BB0008F923F922F922596EFAD2597EF93249603
:103BC000FFAD2497FF9323962FAD23972F93229633
:103BD0003FAD22973F938C8D8F938B8D8F938A8DE2
:103BE0008F93898D8F939F928F923F922F922296DF
:103BF0003FAD229723962FAD239724969FAD249710
:103C000025968FAD2597A32EB22EC92ED82E2091A2
:103C10003001309131014091320150913301609176
:103C200034017091350180913601909137010E94E5
:103C30000C0F89A19AA1ABA1BCA19C01AD01505868
:103C40002DAB3EAB4FAB58AF4D8C5E8C6F8C78A0DC
:103C500077FA709477F870940FB6F894DEBF0FBEC1
:103C6000CDBF60915A0170915B01882777FD8095E7
:103C7000982F0E94A14E9F938F937F936F9358AD7F
:103C80005F938FA98F939EA99F93EDA9EF937F9246
:103C90006F925F924F9288A58F938FA18F938EA181
:103CA0008F938DA18F935F93FFA9FF939F93EF93C2
:103CB00063015201209128013091290140912A018C
:103CC00050912B0160912C0170912D0180912E015A
:103CD00090912F010E940C0F8DA59EA5AFA5B8A9AC
:103CE0009C01AD01505829AF3AAF4BAF5CAF39A53D
:103CF0002A963FAF2A974AA52B964FAF2B975BA5E5
:103D00002C965FAF2C978CA52D968FAF2D97609139
:103D10005A0170915B01882777FD8095982F0E944A
:103D2000A14E9F938F937F936F939CAD9F93EBAD29
:103D3000EF93FAADFF9329AD2F932D963FAD2D97BD
:103D40003F932C964FAD2C974F932B965FAD2B97AF
:103D50005F932A968FAD2A978F938CA98F938BA907
:103D60008F938AA98F9389A98F939F93EF93FF9342
:103D70002F932A963FAD2A972B962FAD2B972C96F3
:103D80009FAD2C972D968FAD2D97A32EB22EC92EB9
:103D9000D82E209120013091210140912201509193
:103DA0002301609124017091250180912601909159
:103DB00027010E940C0F60915A0170915B018827C6
:103DC00077FD8095982F0E94A14E162F072FF82E71
:103DD000E92E0FB6F894DEBF0FBECDBF9F938F9331
:103DE0007F936F9360915C0170915D01882777FDEF
:103DF0008095982F0E94A14E9F938F937F936F93EE
:103E000060915E0170915F017195619571098827DC
:103E100077FD8095982F0E94A14E9F938F937F935B
:103E20006F93EF92FF920F931F932996FFAD2997FF
:103E3000FF9328962FAD28972F9327963FAD27976E
:103E40003F9326964FAD26974F932196ACACBDACD1
:103E5000CEACDFAC21976894EE24E2F8F12C04E0BC
:103E600010E0209138013091390140913A01509190
:103E70003B0160913C0170913D0180913E01909128
:103E80003F010E94911260915A0170915B01882755
:103E900077FD8095982F0E94A14E9F938F937F93DB
:103EA0006F939F928F923F922F9225965FAD2597A9
:103EB0005F932496EFAD2497EF932396FFAD23975E
:103EC000FF9322962FAD22972F939F938F937F93EB
:103ED0006F939F928F923F922F9222963FAD22979F
:103EE00023962FAD239724969FAD249725968FADCB
:103EF0002597A32EB22EC92ED82E209130013091B5
:103F0000310140913201509133016091340170913F
:103F1000350180913601909137010E940C0F60911C
:103F20005A0170915B01882777FD8095982F0E9438
:103F3000A14E0FB6F894DEBF0FBECDBF9F938F93F7
:103F40007F936F9358AD5F93EFA9EF93FEA9FF9313
:103F50002DA92F937F926F925F924F929F938F9391
:103F60007F936F935F93EF93FF932F9363015201BE
:103F7000209128013091290140912A0150912B0173
:103F800060912C0170912D0180912E0190912F0153
:103F90000E940C0F60915A0170915B01882777FD98
:103FA0008095982F0E94A14E162F072FF82EE92EEC
:103FB0009F938F937F936F9360915C0170915D01EC
:103FC000719561957109882777FD8095982F0E94DA
:103FD000A14E9F938F937F936F9360915E01709139
:103FE0005F01882777FD8095982F0E94A14E9F93AF
:103FF0008F937F936F93EF92FF920F931F933CAD3C
:104000003F934BAD4F935AAD5F9389AD8F932A96F3
:104010003FAD2A972B962FAD2B972C969FAD2C97C3
:104020002D968FAD2D97A32EB22EC92ED82E689423
:10403000EE24E2F8F12C04E010E020912001309110
:10404000210140912201509123016091240170913E
:10405000250180912601909127010E949112609183
:104060005A0170915B01882777FD8095982F0E94F7
:10407000A14E162F072FF82EE92E60915C0170914A
:104080005D01882777FD8095982F0E94A14ED62E3E
:10409000C72EB82EA92E60915E0170915F017195B7
:1040A00061957109882777FD8095982F0E94A14E10
:1040B0000FB6F894DEBF0FBECDBFEF92FF920F9305
:1040C0001F93AF92BF92CF92DF929F938F937F9374
:1040D0006F93EF92FF920F931F93AF92BF92CF9285
:1040E000DF92A62EB72EC82ED92E6894EE24E3F8C0
:1040F000F12C04E010E02091380130913901409119
:104100003A0150913B0160913C0170913D018091D9
:104110003E0190913F010E940C0F60915A017091F5
:104120005B01882777FD8095982F0E94A14ED62E9F
:10413000C72EB82EA92E9F938F937F936F93609174
:104140005C0170915D01882777FD8095982F0E9412
:10415000A14E9F938F937F936F9360915E017091B7
:104160005F01882777FD8095982F0E94A14E9F932D
:104170008F937F936F93AF92BF92CF92DF929F9274
:104180008F923F922F9222963FAD229723962FAD8A
:10419000239724969FAD249725968FAD2597A32E20
:1041A000B22EC92ED82E209130013091310140918C
:1041B0003201509133016091340170913501809149
:1041C0003601909137010E94911260915A017091CD
:1041D0005B01882777FD8095982F0E94A14ED62EEF
:1041E000C72EB82EA92E0FB6F894DEBF0FBECDBFD6
:1041F0009F938F937F936F9360915C0170915D01AA
:10420000719561957109882777FD8095982F0E9497
:10421000A14E9F938F937F936F9360915E017091F6
:104220005F01719561957109882777FD8095982FB9
:104230000E94A14E9F938F937F936F93AF92BF92F3
:10424000CF92DF9238AD3F934FA94F935EA95F9312
:104250008DA98F936301520120912801309129018A
:1042600040912A0150912B0160912C0170912D01F8
:1042700080912E0190912F010E94911260915A011C
:1042800070915B01882777FD8095982F0E94A14E41
:10429000162F072FF82EE92E60915C0170915D01B9
:1042A000719561957109882777FD8095982F0E94F7
:1042B000A14ED62EC72EB82EA92E60915E01709108
:1042C0005F01882777FD8095982F0E94A14EEF927D
:1042D000FF920F931F93AF92BF92CF92DF929F9363
:1042E0008F937F936F93EF92FF920F931F93AF92F1
:1042F000BF92CF92DF92A62EB72EC82ED92E6894E9
:10430000EE24E3F8F12C04E010E02091200130913C
:10431000210140912201509123016091240170916B
:10432000250180912601909127010E940C0F109287
:104330007F0110927E0181E090E090934301809391
:1043400042010FB6F894DEBF0FBECDBFC45BDF4F96
:104350000FB6F894DEBF0FBECDBFDF91CF911F9196
:104360000F91FF90EF90DF90CF90BF90AF909F9014
:104370008F907F906F905F904F903F902F90089517
:104380008F929F92AF92BF92CF92DF92EF92FF9265
:104390000F931F93CF93DF93809156019091570114
:1043A000EC0199230CF42396D595C795D595C7951F
:1043B00001979093410180934001CE010197909322
:1043C0004C1480934B1400915A0110915B01609141
:1043D0005C0170915D01882777FD8095982F0E9480
:1043E000A14EB62EA72E982E892E60915E01709157
:1043F0005F01719561957109882777FD8095982FE8
:104400000E94A14EC62ED72EE82EF92E609158019B
:1044100070915901600F711F882777FD8095982F43
:104420000E94A14E9F938F937F936F938F929F9241
:10443000AF92BF92FF92EF92DF92CF92B80188279E
:1044400077FD8095982F0E94A14E9F938F937F9325
:104450006F938F929F92AF92BF92AC2CBD2CCE2CBB
:10446000DF2CE12CF12C8E012091380130913901A3
:1044700040913A0150913B0160913C0170913D01A6
:1044800080913E0190913F010E940C0F60915A0172
:1044900070915B01882777FD8095982F0E94A14E2F
:1044A000162F072FF82EE92E60915C0170915D01A7
:1044B000882777FD8095982F0E94A14ED62EC72E73
:1044C000B82EA92E60915E0170915F01882777FD5B
:1044D0008095982F0E94A14EEF92FF920F931F9309
:1044E000AF92BF92CF92DF929F938F937F936F9300
:1044F000EF92FF920F931F93AF92BF92CF92DF92F2
:10450000A62EB72EC82ED92EE12CF12C8E0120918B
:10451000300130913101409132015091330160916D
:1045200034017091350180913601909137010E94DC
:104530000C0F60915A0170915B01882777FD80957F
:10454000982F0E94A14E162F072FF82EE92E60916A
:104550005C0170915D01719561957109882777FD06
:104560008095982F0E94A14ED62EC72EB82EA92E28
:1045700020915E0130915F0166277727621B730BE4
:10458000882777FD8095982F0E94A14E2DB73EB7C2
:10459000285D3F4F0FB6F8943EBF0FBE2DBFEF9280
:1045A000FF920F931F93AF92BF92CF92DF929F9390
:1045B0008F937F936F93EF92FF920F931F93AF921E
:1045C000BF92CF92DF92A62EB72EC82ED92EE12C05
:1045D000F12C8E01209128013091290140912A016E
:1045E00050912B0160912C0170912D0180912E0131
:1045F00090912F010E940C0FC0905A01D0905B0146
:1046000060915C0170915D017195619571098827D8
:1046100077FD8095982F0E94A14EF62EE72E982EBA
:10462000892E60915E0170915F01882777FD8095EA
:10463000982F0E94A14E062F172FA82EB92E6091F9
:104640005801709159016C0D7D1D882777FD80956B
:10465000982F0E94A14E9F938F937F936F938F9279
:104660009F92EF92FF92BF92AF921F930F93B6016A
:10467000882777FD8095982F0E94A14E9F938F9356
:104680007F936F938F929F92EF92FF929A2D8B2D33
:10469000A02EB12EC92ED82EE12CF12C8E01209106
:1046A000200130912101409122015091230160911C
:1046B00024017091250180912601909127010E948B
:1046C0000C0F10927F0110927E0181E090E0909398
:1046D0004301809342018DB79EB788960FB6F89438
:1046E0009EBF0FBE8DBFDF91CF911F910F91FF90A5
:1046F000EF90DF90CF90BF90AF909F908F900895F4
:104700002F923F924F925F926F927F928F929F92E1
:10471000AF92BF92CF92DF92EF92FF920F931F93CF
:10472000CF93DF93CDB7DEB72E970FB6F894DEBFE9
:104730000FBECDBF9C01992314F42D5F3F4FA901FB
:1047400055954795559547955E874D870197909369
:1047500041018093400190934C1480934B144090FE
:10476000600150906101C20166E070E00E94595002
:10477000CB01AA2797FDA095BA2F88879987AA878A
:10478000BB87C20199230CF401962C0155944794E0
:10479000662457FC6094762C80918801813009F45E
:1047A0005FC450F0823011F40C94CE2C833011F49D
:1047B0000C9421310C94BD3580905C0190905D018A
:1047C000919481949108AA2497FCA094BA2C6091AA
:1047D0005A0170915B01882777FD8095982F0E9480
:1047E000A14EF62EE72ED82EC92E60915E01709153
:1047F0005F01882777FD8095982F0E94A14E362E65
:10480000272E182F092FCF92DF92EF92FF92C5012A
:10481000B401640D751D861D971D0E94A14E9F93C6
:104820008F937F936F930F931F932F923F92CF920B
:10483000DF92EF92FF92C501B401641975098609F0
:1048400097090E94A14E9F938F937F936F93A32C00
:10485000B22CC12ED02EE12CF12C0D851E8520917D
:10486000200130912101409122015091230160915A
:1048700024017091250180912601909127010E94C9
:104880009112C0905C01D0905D01D194C194D10887
:10489000EE24D7FCE094FE2C60915A0170915B01EC
:1048A000882777FD8095982F0E94A14EA62EB72EBF
:1048B000082F192F60915E0170915F01882777FDA5
:1048C0008095982F0E94A14E69837D838E839F835C
:1048D0008D849E84880C991C2D843E84280C391C60
:1048E0001F930F93BF92AF92C701B6016419750968
:1048F000860997090E94A14E9F938F937F936F9390
:104900009F819F93AE81AF93BD81BF93E981EF9368
:104910001F930F93BF92AF92C301B2016C0D7D1D27
:104920008E1D9F1D0E94A14E9F938F937F936F9327
:1049300039812D819E818F81A32EB22EC92ED82E32
:10494000ED84FE848101209120013091210140916C
:1049500022015091230160912401709125018091E1
:104960002601909127010E940C0FC0905C01D0900D
:104970005D01EE24D7FCE094FE2C60915A01709109
:104980005B01882777FD8095982F0E94A14EA62E67
:10499000B72E082F192F60915E0170915F01882753
:1049A00077FD8095982F0E94A14E69837D838E8329
:1049B0009F830FB6F894DEBF0FBECDBF1F930F933A
:1049C000BF92AF92C701B6016419750986099709AC
:1049D0000E94A14E9F938F937F936F933F813F934C
:1049E0004E814F935D815F9389818F931F930F93C6
:1049F000BF92AF92C701B601288539854A855B858C
:104A0000621B730B840B950B0E94A14E9F938F9397
:104A10007F936F9339812D819E818F81A32EB22E3A
:104A2000C92ED82EE12CF12C0D851E852091300148
:104A30003091310140913201509133016091340144
:104A40007091350180913601909137010E940C0FD1
:104A5000C0905C01D0905D01EE24D7FCE094FE2C68
:104A600060915A0170915B01882777FD8095982F9E
:104A70000E94A14EA62EB72E082F192F60915E011D
:104A800070915F01882777FD8095982F0E94A14E35
:104A900069837D838E839F831F930F93BF92AF9211
:104AA000C701B601640D751D861D971D0E94A14E9C
:104AB0009F938F937F936F933F813F934E814F934B
:104AC0005D815F9389818F931F930F93BF92AF9204
:104AD000C701B60164197509860997090E94A14E9C
:104AE0009F938F937F936F9339812D819E818F81C7
:104AF000A32EB22EC92ED82EED84FE8487012091DC
:104B00003001309131014091320150913301609177
:104B100034017091350180913601909137010E94E6
:104B20009112C0905C01D0905D01EE24D7FCE0941E
:104B3000FE2C60915A0170915B01882777FD80956A
:104B4000982F0E94A14EA62EB72E082F192F6091E4
:104B50005E0170915F01882777FD8095982F0E94F4
:104B6000A14E69837D838E839F830FB6F894DEBF49
:104B70000FBECDBF1F930F93BF92AF92C701B60177
:104B8000288539854A855B85621B730B840B950BE1
:104B90000E94A14E9F938F937F936F933F813F938A
:104BA0004E814F935D815F9389818F931F930F9304
:104BB000BF92AF92C301B2016C0D7D1D8E1D9F1D72
:104BC0000E94A14E9F938F937F936F9339812D8184
:104BD0009E818F81A32EB22EC92ED82E74018401FE
:104BE00020913001309131014091320150913301D7
:104BF00060913401709135018091360190913701B7
:104C00000E940C0FC0905C01D0905D01D194C194C2
:104C1000D108EE24D7FCE094FE2C60915A017091EB
:104C20005B01882777FD8095982F0E94A14EA62EC4
:104C3000B72E082F192F60915E0170915F01719559
:104C400061957109882777FD8095982F0E94A14E64
:104C500069837D838E839F831F930F93BF92AF924F
:104C6000C701B60164197509860997090E94A14E0A
:104C70009F938F937F936F939F819F93AE81AF9309
:104C8000BD81BF93E981EF931F930F93BF92AF92C2
:104C9000688579858A859B856C0D7D1D8E1D9F1D80
:104CA0000E94A14E9F938F937F936F9339812D81A3
:104CB0009E818F81A32EB22EC92ED82EE12CF12CED
:104CC0008401209128013091290140912A015091BD
:104CD0002B0160912C0170912D0180912E019091FA
:104CE0002F010E940C0FC0905C01D0905D01D19407
:104CF000C194D108EE24D7FCE094FE2C60915A01B7
:104D000070915B01882777FD8095982F0E94A14EB6
:104D1000A62EB72E082F192F60915E0170915F01AA
:104D2000719561957109882777FD8095982F0E946C
:104D3000A14E69837D838E839F830FB6F894DEBF77
:104D40000FBECDBF1F930F93BF92AF92C701B601A5
:104D5000640D751D861D971D0E94A14E9F938F9314
:104D60007F936F933F813F934E814F935D815F931C
:104D700089818F931F930F93BF92AF92C701B601A2
:104D800064197509860997090E94A14E9F938F9314
:104D90007F936F9339812D819E818F81A32EB22EB7
:104DA000C92ED82E74010D851E85209128013091C1
:104DB000290140912A0150912B0160912C017091A1
:104DC0002D0180912E0190912F010E949112C0908F
:104DD0005C01D0905D01D194C194D108EE24D7FC40
:104DE000E094FE2C60915A0170915B01882777FD59
:104DF0008095982F0E94A14EA62EB72E182F092F0E
:104E000060915E0170915F017195619571098827CC
:104E100077FD8095982F0E94A14E962E872E89832C
:104E20009D830F931F93BF92AF92688579858A8582
:104E30009B856C0D7D1D8E1D9F1D0E94A14E9F9315
:104E40008F937F936F939D819F93A981AF938F924F
:104E50009F920F931F93BF92AF92C301B2016C0D4B
:104E60007D1D8E1D9F1D0E94A14E9F938F937F934A
:104E70006F9399818D81A92CB82CC92ED82E7101E0
:104E80000D851E85209128013091290140912A012C
:104E900050912B0160912C0170912D0180912E0178
:104EA00090912F010E940C0FC0905C01D0905D0189
:104EB000EE24D7FCE094FE2C60915A0170915B01C6
:104EC000882777FD8095982F0E94A14EB62EA72E99
:104ED000982E892E60915E0170915F0171956195A8
:104EE0007109882777FD8095982F0E94A14E062F83
:104EF000172F888799830FB6F894DEBF0FBECDBFFA
:104F00008F929F92AF92BF92C701B6016419750943
:104F1000860997090E94A14E9F938F937F936F9369
:104F2000F981FF9328852F931F930F938F929F9260
:104F3000AF92BF92C301B2016C0D7D1D8E1D9F1DEE
:104F40000E94A14E9F938F937F936F939885898141
:104F5000A02EB12EC92ED82EE12CF12C810120914A
:104F600038013091390140913A0150913B016091F3
:104F70003C0170913D0180913E0190913F010E9462
:104F80000C0FC0905C01D0905D01EE24D7FCE09442
:104F9000FE2C60915A0170915B01882777FD809506
:104FA000982F0E94A14EB62EA72E982E892E609182
:104FB0005E0170915F01719561957109882777FD98
:104FC0008095982F0E94A14E062F172F88879983CE
:104FD0008F929F92AF92BF92C701B601640D751D6B
:104FE000861D971D0E94A14E9F938F937F936F9371
:104FF00039813F9348854F931F930F938F929F92D0
:10500000AF92BF92C701B601641975098609970965
:105010000E94A14E9F938F937F936F939885898170
:10502000A02EB12EC92ED82E71010D851E8520917E
:1050300038013091390140913A0150913B01609122
:105040003C0170913D0180913E0190913F010E9491
:1050500091120FB6F894DEBF0FBECDBF0C94BD35D4
:1050600080915E0190915F019195819591099C01DC
:10507000442737FD4095542F29833A834B835C8323
:1050800060915A0170915B01882777FD8095982F78
:105090000E94A14EE62E172F082FF92E60915C0179
:1050A00070915D01719561957109882777FD8095F3
:1050B000982F0E94A14E262E372E882E992E698178
:1050C0007A818B819C8164197509860997090E94F0
:1050D000A14E5B016C01FF920F931F93EF929F9281
:1050E0008F923F922F9269817A818B819C81640D8E
:1050F000751D861D971D0E94A14E9F938F937F93D0
:105100006F93FF920F931F93EF929F928F923F9214
:105110002F92E12CF12C0D851E85209128013091D4
:10512000290140912A0150912B0160912C0170912D
:105130002D0180912E0190912F010E94911280915A
:105140005E0190915F019195819591099C014427A1
:1051500037FD4095542F29833A834B835C836091BC
:105160005A0170915B01882777FD8095982F0E94E6
:10517000A14EE62EF72E082F192F60915C01709139
:105180005D01719561957109882777FD8095982F4C
:105190000E94A14E6D837E838F839C878D849E8425
:1051A000880C991C2D843E84280C391C69817A81D5
:1051B0008B819C81640D751D861D971D0E94A14EDB
:1051C0005B016C011F930F93FF92EF923C853F931D
:1051D0004F814F935E815F938D818F9369817A8137
:1051E0008B819C8164197509860997090E94A14EDB
:1051F0009F938F937F936F931F930F93FF92EF92E1
:105200009C859F93AF81AF93BE81BF93ED81EF9358
:10521000ED84FE8481012091280130912901409183
:105220002A0150912B0160912C0170912D018091E8
:105230002E0190912F010E940C0F80915E019091A0
:105240005F019C01442737FD4095542F29833A8301
:105250004B835C8360915A0170915B01882777FDD5
:105260008095982F0E94A14EE62EF72E082F192F19
:1052700060915C0170915D0171956195710988275C
:1052800077FD8095982F0E94A14E6D837E838F833A
:105290009C870FB6F894DEBF0FBECDBF69817A81BF
:1052A0008B819C81288539854A855B85621B730BC0
:1052B000840B950B0E94A14E5B016C011F930F9311
:1052C000FF92EF923C853F934F814F935E815F93B6
:1052D0008D818F9369817A818B819C816419750995
:1052E000860997090E94A14E9F938F937F936F9396
:1052F0001F930F93FF92EF929C859F93AF81AF9383
:10530000BE81BF93ED81EF93E12CF12C0D851E85BD
:1053100020912001309121014091220150912301DF
:1053200060912401709125018091260190912701BF
:105330000E940C0F80915E0190915F019C014427B7
:1053400037FD4095542F29833A834B835C836091CA
:105350005A0170915B01882777FD8095982F0E94F4
:10536000A14EE62EF72E082F192F60915C01709147
:105370005D01719561957109882777FD8095982F5A
:105380000E94A14E6D837E838F839C8769817A8181
:105390008B819C8164197509860997090E94A14E29
:1053A0005B016C011F930F93FF92EF923C853F933B
:1053B0004F814F935E815F938D818F9369817A8155
:1053C0008B819C81640D751D861D971D0E94A14EC9
:1053D0009F938F937F936F931F930F93FF92EF92FF
:1053E0009C859F93AF81AF93BE81BF93ED81EF9377
:1053F000ED84FE84870120912001309121014091AC
:105400002201509123016091240170912501809126
:105410002601909127010E94911280915E01909146
:105420005F019C01442737FD4095542F29833A831F
:105430004B835C8360915A0170915B01882777FDF3
:105440008095982F0E94A14EE62EF72E082F192F37
:1054500060915C0170915D0171956195710988277A
:1054600077FD8095982F0E94A14E6D837E838F8358
:105470009C870FB6F894DEBF0FBECDBF69817A81DD
:105480008B819C81640D751D861D971D0E94A14E08
:105490005B016C011F930F93FF92EF925C855F930A
:1054A0008F818F939E819F93AD81AF9369817A8124
:1054B0008B819C81288539854A855B85621B730BAE
:1054C000840B950B0E94A14E9F938F937F936F93B4
:1054D0001F930F93FF92EF923C853F934F814F9321
:1054E0005E815F938D818F937401840120912001EF
:1054F00030912101409122015091230160912401BA
:105500007091250180912601909127010E940C0F36
:1055100080915E0190915F019195819591099C0127
:10552000442737FD4095542F29833A834B835C836E
:1055300060915A0170915B01882777FD8095982FC3
:105540000E94A14EE62EF72E082F192F60915C01C4
:1055500070915D01882777FD8095982F0E94A14E5C
:105560006D837E838F839C87688579858A859B85FB
:1055700029813A814B815C81620F731F841F951FC3
:105580000E94A14E5B016C011F930F93FF92EF925B
:105590003C853F934F814F935E815F938D818F93C5
:1055A00069817A818B819C816419750986099709C3
:1055B0000E94A14E9F938F937F936F931F930F939E
:1055C000FF92EF929C859F93AF81AF93BE81BF9373
:1055D000ED81EF93E12CF12C840120913801309181
:1055E000390140913A0150913B0160913C01709129
:1055F0003D0180913E0190913F010E940C0F8091EE
:105600005E0190915F019195819591099C014427DC
:1056100037FD4095542F29833A834B835C836091F7
:105620005A0170915B01882777FD8095982F0E9421
:10563000A14EE62EF72E082F192F60915C01709174
:105640005D01882777FD8095982F0E94A14E6D837C
:105650007E838F839C870FB6F894DEBF0FBECDBFCD
:1056600069817A818B819C81641975098609970902
:105670000E94A14E5B016C011F930F93FF92EF926A
:105680005C855F938F818F939E819F93AD81AF9354
:1056900069817A818B819C81640D751D861D971DA2
:1056A0000E94A14E9F938F937F936F931F930F93AD
:1056B000FF92EF92BC85BF93EF81EF93FE81FF9342
:1056C0002D812F9374010D851E8520913801309115
:1056D000390140913A0150913B0160913C01709138
:1056E0003D0180913E0190913F010E949112809175
:1056F0005E0190915F019195819591099C014427EC
:1057000037FD4095542F29833A834B835C83609106
:105710005A0170915B01882777FD8095982F0E9430
:10572000A14EE62EF72E082F192F60915C01709183
:105730005D01882777FD8095982F0E94A14E6D838B
:105740007E83882E992E69817A818B819C81640D5C
:10575000751D861D971D0E94A14E5B016C011F9354
:105760000F93FF92EF929F928F923E813F934D81D4
:105770004F9369817A818B819C81288539854A85FF
:105780005B85620F731F841F951F0E94A14E9F931C
:105790008F937F936F931F930F93FF92EF929F923C
:1057A0008F923E813F934D814F9371010D851E85F0
:1057B000209138013091390140913A0150913B01DB
:1057C00060913C0170913D0180913E0190913F01BB
:1057D0000E940C0F80915E0190915F019C01442713
:1057E00037FD4095542F288739874A875B8760911A
:1057F0005A0170915B01882777FD8095982F0E9450
:10580000A14EE62EF72E182F092F60915C017091A2
:105810005D01882777FD8095982F0E94A14E6983AE
:105820007D83882E992E0FB6F894DEBF0FBECDBFB4
:10583000688579858A859B85640D751D861D971DF4
:105840000E94A14E5B016C010F931F93FF92EF9298
:105850009F928F925D815F9389818F93688579850F
:105860008A859B8564197509860997090E94A14E4E
:105870009F938F937F936F930F931F93FF92EF925A
:105880009F928F929D819F93A981AF93E12CF12CE0
:1058900081012091300130913101409132015091CC
:1058A00033016091340170913501809136019091FE
:1058B00037010E940C0F80915E0190915F019C0165
:1058C000442737FD4095542F288739874A875B87BF
:1058D00060915A0170915B01882777FD8095982F20
:1058E0000E94A14EE62EF72E182F092F60915C0121
:1058F00070915D01882777FD8095982F0E94A14EB9
:1059000069837D83882E992E688579858A859B8514
:1059100064197509860997090E94A14E5B016C0103
:105920000F931F93FF92EF929F928F923D813F932F
:1059300049814F93688579858A859B85640D751D9E
:10594000861D971D0E94A14E9F938F937F936F9307
:105950000F931F93FF92EF929F928F925D815F93BF
:1059600089818F9371010D851E85209130013091C1
:1059700031014091320150913301609134017091B5
:10598000350180913601909137010E9491120FB636
:10599000F894DEBF0FBECDBF0C94BD35C0905C0146
:1059A000D0905D01EE24D7FCE094FE2C60915A016A
:1059B00070915B01882777FD8095982F0E94A14EFA
:1059C000162F072FB82EA92E60915E0170915F01EE
:1059D000719561957109882777FD8095982F0E94B0
:1059E000A14E962E872E382E292EAF92BF920F935E
:1059F0001F93C701B60164197509860997090E94AA
:105A0000A14E9F938F937F936F932F923F928F928C
:105A10009F92AF92BF920F931F93C301B2016C0D7F
:105A20007D1D8E1D9F1D0E94A14E9F938F937F937E
:105A30006F93A92CB82CC32CD22CE12CF12C0D8502
:105A40001E85209138013091390140913A015091E1
:105A50003B0160913C0170913D0180913E0190912C
:105A60003F010E949112C0905C01D0905D01EE2434
:105A7000D7FCE094FE2C60915A0170915B0188275D
:105A800077FD8095982F0E94A14EA62EB72E082F45
:105A9000192F60915E0170915F0171956195710997
:105AA000882777FD8095982F0E94A14E69837D837A
:105AB0008E839F838D849E84880C991C2D843E84C4
:105AC000280C391C1F930F93BF92AF92C701B601E8
:105AD000640D751D861D971D0E94A14E9F938F9387
