S0150000546573745F736572766F5F76312E73726563DB
S11300007BC000000C9425150C946B1594C0000063
S113001092C0000090C000008EC000008CC00000A0
S11300208AC0000088C0000086C0000091C10000A2
S113003082C0000080C000007EC000007CC00000C0
S11300407AC0000078C0000072C1000074C00000D3
S113005072C0000070C000006EC000006CC00000E0
S11300606AC0000068C0000066C0000064C00000F0
S113007062C0000060C000005EC000005CC0000000
S11300805AC0000058C0000056C00000772A072A52
S11300903F2A812A232A132A2F2A812A5B2A672AA4
S11300A04B2A084AD73B3BCE016E84BCBFFDC12F0F
S11300B03D6C74319ABD56833DDA3D00C77F11BE55
S11300C0D9E4BB4C3E916BAAAABE000000803F0756
S11300D02C7AA5BA6CC590DA3B9365FC8BBC53F8BB
S11300E010FD3C5692834DBD879D3AB63DCBC9BFAA
S11300F05BBE73DA0FC93F0011241FBECFEFD0E4FB
S1130100DEBFCDBF11E0A0E0B1E0ECE4FCE500E02F
S11301100BBF02C007900D92A034B107D9F729E0B4
S1130120A0E4B1E001C01D92A939B207E1F70E9431
S1130130882A0C94242E64CF85B5846085BD16BCB2
S1130140EEE6F0E080818160808310924D01089595
S1130150E1EBF0E08081866080831092B200E0E7FA
S1130160F0E080818160808310924C0108956634B0
S1130170710509F453C0B4F46E317105D9F144F436
S11301806A30710509F472C06431710571F128C0D7
S113019062337105C9F16C337105D9F168327105A7
S11301A0F9F42DC0683C710509F44CC05CF46A355F
S11301B07105F1F16436710509F43FC060357105CC
S11301C079F431C0603921E0720709F445C0643F15
S11301D021E0720709F445C06C3221E07207B9F1DD
S11301E042E350E024E630E045C044E050E022EE33
S11301F030E040C047E050E023E530E03BC049E058
S113020050E024EC30E036C04CE050E025E330E030
S113021031C04EE050E026EA30E02CC041E150E02D
S113022027E130E027C043E150E028E830E022C075
S113023045E150E029EF30E01DC048E150E02AE6F6
S113024030E018C040E350E024ED30E013C049E44E
S113025050E02EE330E00EC041E650E028EA30E002
S113026009C04AE750E022E130E004C042E050E037
S113027021E730E0009719F0029771F00895709328
S11302804F0160934E015093070140930601309350
S1130290050120930401089570934B0160934A0172
S11302A05093030140930201309301012093000114
S11302B0089520914D0130E080910601909107014D
S11302C0281739076CF046B550E081E090E02091A2
S11302D00401309105014217530724F480E0089586
S11302E080E090E0089520914C0130E0809102017B
S11302F0909103012817390774F04091B20050E03F
S113030081E090E0209100013091010142175307F0
S113031024F480E0089580E090E0089516BC1092E3
S11303204D0108951092B20010924C0108951F924D
S11303300F920FB60F9211248F9380914D018F5F0E
S113034080934D018F910F900FBE0F901F901895C1
S11303501F920F920FB60F9211248F9380914C012C
S11303608F5F80934C018F910F900FBE0F901F9061
S1130370189586E081B984E082B980EA84B981E580
S11303808CBD0895F89494E092B98EBD0DB407FE27
S1130390FDCF8EB58093500186E082B9789408959C
S11303A0F89492E092B98EBD0DB407FEFDCF8EB5E0
S11303B08093500186E082B978940895CF93DF93B7
S11303C0C62FD72FEDDF8AE18A95F1F700C08D2F74
S11303D0E7DF8AE18A95F1F700C08C2FE1DF8AE13B
S11303E08A95F1F700C0DF91CF910895CF93CADFCA
S11303F08AE18A95F1F700C088EBC4DFC09150010F
S11304008AE18A95F1F700C088EBBCDF20915001A6
S11304108C2F90E0982F8827820F911DCF910895FB
S113042080E18AB91BB81092C5001092C40088E11B
S11304308093C10086E08093C2000895E0ECF0E070
S1130440908195FFFDCF8093C6000895CF92EF92DF
S1130450FF920F931F93CF93DF93C82FD62F142FA0
S1130460F22E80E18BB9E0ECF0E0808180838FEFA5
S1130470E5DF8FEFE3DF8C2FE1DF87E0DFDF8D2F18
S1130480DDDF812FDBDF8F2DD9DF802FD7DF8E2DAE
S1130490D5DF8C2DD3DFF89487E08C0DE80E0E0D9C
S11304A0F00E1F0DD10F8D2F8C0F8095C7DFE0EC60
S11304B0F0E0808186FFFDCF1BB87894DF91CF9167
S11304C01F910F91FF90EF90CF9008959B01AC0185
S11304D0A8EEB3E00E94E92D20914E0130914F0126
S11304E0A901440F551F240F351F220F331F442722
S11304F037FD4095542F0E94C72D22303105410508
S113050051052CF462E070E080E090E00895622FE1
S1130510732F842F952F08954F925F926F927F923D
S11305208F929F92AF92BF92CF92DF92EF92FF92FF
S11305300F931F93CF93DF93EC01680179014D3240
S113054081E0580761057105E0F5AFEFB3E09A016A
S1130550AB010E94E92D2CE231E040E050E00E9422
S1130560C72D49015A019924AA24BB24432E512C96
S113057082E7C816D104E104F104A4F4AFEFB3E0B8
S1130580A70196010E94E92D22E730E040E050E007
S11305900E94C72D79018A01FF2400271127432FC8
S11305A050E006C040E050E0BA01E12CF12C870194
S11305B06A01820194014EE150E063E070E0CE01F3
S11305C045DFDF91CF911F910F91FF90EF90DF9066
S11305D0CF90BF90AF909F908F907F906F905F90DF
S11305E04F9008954F925F926F927F928F929F9255
S11305F0AF92BF92CF92DF92EF92FF920F931F932D
S1130600CF93DF93CDB7DEB760970FB6F894DEBF14
S11306100FBECDBF2B013C0149015A01E982FA8288
S11306200B831C83860190580E94492B6D877E871B
S11306308F87988B29813A814B815C81CA01B901EA
S11306400E940A2D6B017C01A3019201C301B20136
S11306500E940A2D2B013C01A5019401C501B4019E
S11306600E940A2D9B01AC01C301B2010E94D62A4B
S11306702B013C010E94712D20E030E048E452E45B
S11306800E94D52A4B015C019B01AC010E940A2DFA
S11306906D837E838F8398879B01AC01C701B6016C
S11306A00E94D62A69877A878B879C870E94712D3E
S11306B09B01AC0169817A818B819C8190580E9455
S11306C09C2B0E94C72A69837A838B839C8320E0B6
S11306D030E048E452E4C301B2010E94D52A0E94EA
S11306E0712D9B01AC01C501B4010E940A2D9B012F
S11306F0AC01C701B6010E94D62A0E94712D2B01BC
S11307003C0120E038E44CE855E469857A858B8522
S11307109C850E94D62A20E038E044E856E40E94F2
S1130720D52A4B015C01A3019201C301B2010E94CD
S1130730D62A20E030E046E852E40E940A2D9B01CC
S1130740AC01C501B4010E949C2B0E94C72A2B0155
S11307503C01A701960160E07AE187EA96E40E94F1
S1130760D52A2D813E814F8158850E94D52A20E0CB
S113077038E148E856E40E949C2B0E94C72A4B01AA
S11307805C016801EE24D7FCE094FE2C20E030E00C
S113079044E353E46D857E858F8598890E940A2DF4
S11307A028ED3FE049E450E40E949C2B0E94042C75
S11307B0AB01BC0147595F4F6F4F7F4F97018601D3
S11307C082E090E0A9DEA301920169817A818B81A4
S11307D09C810E94D62A24EE3EE245E652E40E9421
S11307E00A2D0E94042CAB01BC01455B5F4F6F4F87
S11307F07F4F9701860184E090E08EDE20E030E0B8
S113080044E353E4C501B4010E940A2D28ED3FE0FE
S113081049E450E40E949C2B0E94042CAB01BC01CF
S11308204F5F5F4F6F4F7F4F9701860186E090E0E7
S113083073DE60960FB6F894DEBF0FBECDBFDF91B6
S1130840CF911F910F91FF90EF90DF90CF90BF90C9
S1130850AF909F908F907F906F905F904F9008958E
S11308604F925F926F927F928F929F92AF92BF92BC
S1130870CF92DF92EF92FF920F931F93CF93DF9368
S1130880CDB7DEB760970FB6F894DEBF0FBECDBF0D
S11308902B013C0149015A01E982FA820B831C8332
S11308A0860190580E94492B6D877E878F87988B8D
S11308B029813A814B815C81CA01B9010E940A2DC8
S11308C06B017C01A3019201C301B2010E940A2DB4
S11308D02B013C01A5019401C501B4010E940A2D1C
S11308E09B01AC01C301B2010E94D62A2B013C0139
S11308F00E94712D20E030E048E452E40E94D52AA1
S11309004B015C019B01AC010E940A2D6D837E8327
S11309108F8398879B01AC01C701B6010E94D62A38
S113092069877A878B879C870E94712D9B01AC0114
S113093069817A818B819C8190580E949C2B0E94B2
S1130940C72A69837A838B839C8320E030E048E460
S113095052E4C301B2010E94D52A0E94712D9B0169
S1130960AC01C501B4010E940A2D9B01AC01C70171
S1130970B6010E94D62A0E94712D2B013C0120E071
S113098038E44CE855E469857A858B859C850E941A
S1130990D62A20E038E044E856E40E94D52A4B01E8
S11309A05C01A3019201C301B2010E94D62A20E096
S11309B030E046E852E40E940A2D9B01AC01C501D7
S11309C0B4010E949C2B0E94C72A2B013C01A70161
S11309D0960160E07AE187EA96E40E94D52A2D81A7
S11309E03E814F8158850E94D52A20E038E148E8AD
S11309F056E40E949C2B0E94C72A4B015C016801AB
S1130A00EE24D7FCE094FE2C20E030E044E353E4F1
S1130A106D857E858F8598890E940A2D28ED3FE09B
S1130A2049E450E40E949C2B0E94042CAB01BC01BD
S1130A304F535F4F6F4F7F4F9701860188E090E0DF
S1130A406BDDA301920169817A818B819C810E9473
S1130A50D62A24EE3EE245E652E40E940A2D0E9484
S1130A60042CAB01BC01455B5F4F6F4F7F4F970177
S1130A7086018AE090E050DD20E030E044E353E476
S1130A80C501B4010E940A2D28ED3FE049E450E479
S1130A900E949C2B0E94042CAB01BC014D5F5F4F54
S1130AA06F4F7F4F970186018CE090E035DD6096B3
S1130AB00FB6F894DEBF0FBECDBFDF91CF911F916B
S1130AC00F91FF90EF90DF90CF90BF90AF909F90E9
S1130AD08F907F906F905F904F9008954F925F92A8
S1130AE06F927F928F929F92AF92BF92CF92DF923A
S1130AF0EF92FF920F931F93CF93DF93CDB7DEB79F
S1130B0060970FB6F894DEBF0FBECDBF2B013C013A
S1130B1049015A01E982FA820B831C8386015058E9
S1130B200E94492B6D877E878F87988B29813A8114
S1130B304B815C81CA01B9010E940A2D6B017C01C1
S1130B40A3019201C301B2010E940A2D2B013C01B1
S1130B50A5019401C501B4010E940A2D9B01AC01B9
S1130B60C301B2010E94D62A2B013C010E94712DBF
S1130B7020E030E048E452E40E94D52A4B015C01B5
S1130B809B01AC010E940A2D6D837E838F8398871D
S1130B909B01AC01C701B6010E94D62A69877A87F6
S1130BA08B879C870E94712D9B01AC0169817A819E
S1130BB08B819C8190580E949C2B0E94C72A698338
S1130BC07A838B839C8320E030E048E452E4C301C1
S1130BD0B2010E94D52A0E94712D9B01AC01C5016E
S1130BE0B4010E940A2D9B01AC01C701B6010E9409
S1130BF0D62A0E94712D2B013C0120E038E44CE8F8
S1130C0055E469857A858B859C850E94D62A20E0E7
S1130C1038E044E856E40E94D52A4B015C01A30164
S1130C209201C301B2010E94D62A20E030E046E8D6
S1130C3052E40E940A2D9B01AC01C501B4010E943B
S1130C409C2B0E94C72A2B013C01A701960160E05E
S1130C507AE187EA96E40E94D52A2D813E814F816C
S1130C6058850E94D52A20E038E148E856E40E94DD
S1130C709C2B0E94C72A4B015C016801EE24D7FC1F
S1130C80E094FE2C20E030E044E353E46D857E855F
S1130C908F8598890E940A2D28ED3FE049E450E4AD
S1130CA00E949C2B0E94042CAB01BC014D535F4F4E
S1130CB06F4F7F4F9701860181E090E02DDCA30107
S1130CC0920169817A818B819C810E94D62A24EECB
S1130CD03EE245E652E40E940A2D0E94042C0F2EA7
S1130CE0F1EE4F2E512C612C712CF02D93018201C9
S1130CF0061B170B280B390BB901A80197018601B4
S1130D0083E090E009DC20E030E044E353E4C501F3
S1130D10B4010E940A2D28ED3FE049E450E40E940A
S1130D209C2B0E94042C0F2EFCE28F2E992493946A
S1130D30A12CB12CF02D95018401061B170B280B57
S1130D40390BB901A8019701860185E090E0E4DB45
S1130D5060960FB6F894DEBF0FBECDBFDF91CF9182
S1130D601F910F91FF90EF90DF90CF90BF90AF90C5
S1130D709F908F907F906F905F904F9008954F92C7
S1130D805F926F927F928F929F92AF92BF92CF9217
S1130D90DF92EF92FF920F931F93CF93DF93CDB720
S1130DA0DEB760970FB6F894DEBF0FBECDBF2B0140
S1130DB03C0149015A01E982FA820B831C838601B2
S1130DC050580E94492B6D877E878F87988B298185
S1130DD03A814B815C81CA01B9010E940A2D6B01E1
S1130DE07C01A3019201C301B2010E940A2D2B01CF
S1130DF03C01A5019401C501B4010E940A2D9B0187
S1130E00AC01C301B2010E94D62A2B013C010E940D
S1130E10712D20E030E048E452E40E94D52A4B01D1
S1130E205C019B01AC010E940A2D6D837E838F833C
S1130E3098879B01AC01C701B6010E94D62A698735
S1130E407A878B879C870E94712D9B01AC016981F5
S1130E507A818B819C8190580E949C2B0E94C72A86
S1130E6069837A838B839C8320E030E048E452E4F6
S1130E70C301B2010E94D52A0E94712D9B01AC01CD
S1130E80C501B4010E940A2D9B01AC01C701B60142
S1130E900E94D62A0E94712D2B013C0120E038E4E7
S1130EA04CE855E469857A858B859C850E94D62A11
S1130EB020E038E044E856E40E94D52A4B015C0166
S1130EC0A3019201C301B2010E94D62A20E030E0BE
S1130ED046E852E40E940A2D9B01AC01C501B4010D
S1130EE00E949C2B0E94C72A2B013C01A70196015A
S1130EF060E07AE187EA96E40E94D52A2D813E815A
S1130F004F8158850E94D52A20E038E148E856E40C
S1130F100E949C2B0E94C72A4B015C016801EE24AD
S1130F20D7FCE094FE2C20E030E044E353E46D85EC
S1130F307E858F8598890E940A2D28ED3FE049E43B
S1130F4050E40E949C2B0E94042CAB01BC01475925
S1130F505F4F6F4F7F4F9701860187E090E0DCDAA7
S1130F60A301920169817A818B819C810E94D62A96
S1130F7024EE3EE245E652E40E940A2D0E94042C2F
S1130F800F2EF1EE4F2E512C612C712CF02D93016C
S1130F908201061B170B280B390BB901A801970115
S1130FA0860189E090E0B8DA20E030E044E353E4DD
S1130FB0C501B4010E940A2D28ED3FE049E450E444
S1130FC00E949C2B0E94042C0F2EFCE28F2E99244D
S1130FD09394A12CB12CF02D95018401061B170BC1
S1130FE0280B390BB901A801970186018BE090E029
S1130FF093DA60960FB6F894DEBF0FBECDBFDF91D3
S1131000CF911F910F91FF90EF90DF90CF90BF9001
S1131010AF909F908F907F906F905F904F900895C6
S11310204F925F926F927F928F929F92AF92BF92F4
S1131030CF92DF92EF92FF920F931F93C0902C01F7
S1131040D0902D016091380170913901882777FD86
S11310508095982F0E94372C2B013C0160913A0116
S113106070913B01882777FD8095982F0E94372C3B
S11310704B015C0160913C0170913D01719561955A
S11310807109882777FD8095982F0E94372C83015A
S11310907201A5019401A6DAC0902C01D0902D0113
S11310A06091380170913901882777FD8095982FD8
S11310B00E94372C2B013C0160913A0170913B0155
S11310C0882777FD8095982F0E94372C4B015C016F
S11310D060913C0170913D01882777FD8095982FA0
S11310E00E94372C83017201A5019401B9DBC090E1
S11310F02C01D0902D01609138017091390188271D
S113110077FD8095982F0E94372C2B013C0160912C
S11311103A0170913B01719561957109882777FDBA
S11311208095982F0E94372C4B015C0160913C0103
S113113070913D01719561957109882777FD8095BE
S1131140982F0E94372C83017201A5019401C6DCFB
S1131150C0902C01D0902D0160913801709139011B
S1131160882777FD8095982F0E94372C2B013C010E
S113117060913A0170913B017195619571098827DD
S113118077FD8095982F0E94372C4B015C0160916C
S11311903C0170913D01882777FD8095982F0E942E
S11311A0372C83017201A5019401E9DD1F910F9190
S11311B0FF90EF90DF90CF90BF90AF909F908F9073
S11311C07F906F905F904F9008958091420190912D
S11311D043012091280130912901821793075CF083
S11311E0109243011092420181E090E090932B0110
S11311F080932A010895AC014F5F5F4F50934301E0
S113120040934201421753072CF010922B01109285
S11312102A010895029690932B0180932A01089540
S11312202F923F924F925F926F927F928F929F92F2
S1131230AF92BF92CF92DF92EF92FF920F931F93E0
S1131240CF93DF93CDB7DEB7E8970FB6F894DEBF40
S11312500FBECDBF29833A834B835C836D837E832A
S11312608F839887170161964CAC5DAC6EAC7FACF4
S1131270619729813A81388F2F8B4B815C815E8BFA
S11312804D8B8D809E80EF80F884C9010197029771
S113129088F4D7FAD094D7F8D09469968CAD9DADE4
S11312A0AEADBFAD6997B05869968CAF9DAFAEAF88
S11312B0BFAF69978F89988D0397029788F477FA5F
S11312C0709477F870946D962CAD3DAD4EAD5FADD6
S11312D06D9750586D962CAF3DAF4EAF5FAF6D9785
S11312E0B801882777FD8095982F0E94372C69874D
S11312F07A878B879C87A601950169966CAD7DAD35
S11313008EAD9FAD69970E94D52A29853A854B8574
S11313105C850E949C2B6DA77EA78FA798ABA30129
S113132092016D966CAD7DAD8EAD9FAD6D970E94B3
S1131330D52A29853A854B855C850E949C2B69AB0F
S11313407AAB8BAB9CAB65962CAD3DAD4EAD5FAD32
S11313506597A1966CAD7DAD8EAD9FADA1970E94B2
S1131360D52A29853A854B855C850E949C2B6DABDB
S11313707EAB8FAB98AFA101400F511F5CA74BA769
S1131380241635060CF0E3C224E1AD89BE892A9FF8
S1131390C0012B9F900D1124820D931D880F991F5E
S11313A0880F991FFC01E958FA4FFCA3EBA3289D71
S11313B0C001299D900D1124820D931D880F991F42
S11313C0880F991FAC0149585A4F5AA349A32E9D1F
S11313D0C0012F9D900D1124820D931D880F991F1C
S11313E0880F991FDC01A958BA4FBEA3ADA3810190
S11313F0000F111F000F111F0F551E4F3E8A2D8A1B
S11314001801A986BA86CB86DC864D865E866F86F1
S1131410788A2DA53EA54FA558A969857A858B851F
S11314209C850E94D62A69877A878B879C8729A9FD
S11314303AA94BA95CA96D857E858F8598890E9400
S1131440D62A6D877E878F87988B2DA93EA94FA9B1
S113145058AD65966CAD7DAD8EAD9FAD65970E9420
S1131460D62A65966CAF7DAF8EAF9FAF65972D85FD
S11314703E854F85588969857A858B859C850E9430
S1131480492B20E030E044E353E40E940A2D28ED88
S11314903FE049E450E40E949C2B0E94042C6FA37B
S11314A078A789A79AA765962CAD3DAD4EAD5FADE3
S11314B06597CA01B9010E940A2D698B7A8B8B8BBF
S11314C09C8B29853A854B855C85CA01B9010E94AC
S11314D00A2D6B017C012D853E854F855889CA01F3
S11314E0B9010E940A2D9B01AC01C701B6010E94FB
S11314F0D62A698F7A8F8B8F9C8F0E94712D20E062
S113150030E048E452E40E94D52A6B017C019B013F
S1131510AC010E940A2D6D8F7E8F8F8F98A39B0143
S1131520AC0169897A898B899C890E94D62A4B01EE
S11315305C010E94712D9B01AC0165966CAD7DAD83
S11315408EAD9FAD659790580E949C2B0E94C72A30
S11315502B013C0120E030E048E452E4698D7A8DAF
S11315608B8D9C8D0E94D52A0E94712D9B01AC010C
S1131570C701B6010E940A2D9B01AC0169897A89D1
S11315808B899C890E94D62A0E94712D6B017C0153
S113159020E038E44CE855E4C501B4010E94D62AA1
S11315A020E038E044E856E40E94D52A4B015C016F
S11315B0A7019601C701B6010E94D62A20E030E0B7
S11315C046E852E40E940A2D9B01AC01C501B40116
S11315D00E949C2B0E94C72A9B01AC01C301B2014B
S11315E00E94D62A24EE3EE245E652E40E940A2DE9
S11315F00E94042C6B017C0129893A894B895C89FE
S113160060E07AE187EA96E40E94D52A2D8D3E8D2A
S11316104F8D58A10E94D52A20E038E148E856E4CD
S11316200E949C2B0E94C72A20E030E044E353E44C
S11316300E940A2D28ED3FE049E450E40E949C2BCF
S11316400E94042CEF89F88DE230F10509F45FC0A3
S11316501CF4319761F05CC12F89388D233031053A
S113166009F4A7C02430310509F4FBC051C10FA10E
S113167018A529A53AA507591F4F2F4F3F4FABA1D6
S1131680BCA10D931D932D933C931397BBE4CB0EF8
S1131690D11CE11CF11CE9A1FAA1C082D182E28231
S11316A0F382DC01CB010196A11DB11DEDA1FEA1C8
S11316B080839183A283B38369857A858B859C8596
S11316C00E94042CD1016D937D938D939C93139769
S11316D08101005B1F4F6D857E858F8598890E94EF
S11316E0042CF8016083718382839383005B1F4F12
S11316F065966CAD7DAD8EAD9FAD65970E94042C53
S1131700D8016D937D938D939C93139701C10FA181
S113171018A529A53AA50F531F4F2F4F3F4FEBA1F3
S1131720FCA10083118322833383FBE4CF0ED11CFD
S1131730E11CF11CA9A1BAA1CD92DD92ED92FC921B
S11317401397DC01CB010396A11DB11DEDA1FEA1F0
S113175080839183A283B383810100511F4F6985E4
S11317607A858B859C850E94042CD8016D937D938A
S11317708D939C931397005B1F4F6D857E858F859A
S113178098890E94042CF801608371838283938377
S1131790005B1F4F65966CAD7DAD8EAD9FAD6597BB
S11317A00E94042CD8016D937D938D939C93139781
S11317B0AFC00FA118A529A53AA50D531F4F2F4F50
S11317C03F4FEBA1FCA1008311832283338301EEFD
S11317D010E020E030E00C191D092E093F09A9A1F1
S11317E0BAA10D931D932D933C9313972CE231E0F2
S11317F040E050E0261B370B480B590BEDA1FEA12E
S11318002083318342835383810100521E4F6985B3
S11318107A858B859C850E94042CD8016D937D93D9
S11318208D939C931397005B1F4F6D857E858F85E9
S113183098890E94042CF8016083718382839383C6
S1131840005B1F4F65966CAD7DAD8EAD9FAD65970A
S11318500E94042CD8016D937D938D939C931397D0
S113186057C00FA118A529A53AA507591F4F2F4FF7
S11318703F4FEBA1FCA1008311832283338301EE4C
S113188010E020E030E00C191D092E093F09A9A140
S1131890BAA10D931D932D933C9313972CE231E041
S11318A040E050E0261B370B480B590BEDA1FEA17D
S11318B02083318342835383810100531D4F698503
S11318C07A858B859C850E94042CD8016D937D9329
S11318D08D939C931397005B1F4F6D857E858F8539
S11318E098890E94042CF801608371838283938316
S11318F0005B1F4F65966CAD7DAD8EAD9FAD65975A
S11319000E94042CD8016D937D938D939C9313971F
S1131910ED89FE893196FE8BED8B2BA13CA12C5FCA
S11319203F4F3CA32BA349A15AA14C5F5F4F5AA33D
S113193049A38DA19EA104969EA38DA394E0290E94
S1131940311CABA5BCA5EA17FB0709F062CDE896EC
S11319500FB6F894DEBF0FBECDBFDF91CF911F91BC
S11319600F91FF90EF90DF90CF90BF90AF909F903A
S11319708F907F906F905F904F903F902F9008953D
S11319802F923F924F925F926F927F928F929F928B
S1131990AF92BF92CF92DF92EF92FF920F931F9379
S11319A0CF93DF93CDB7DEB7CE54D1090FB6F894F9
S11319B0DEBF0FBECDBF29833A834B835C836D8327
S11319C07E838F83988729961FAF0EAF2997F8AE31
S11319D0EFAAAB964CAC5DAC6EAC7FACAB972980F8
S11319E03A802B813C812B963FAF2EAF2B974D81B4
S11319F05E812D965FAF4EAF2D978F8198852F9680
S1131A009FAF8EAF2F97112314F40F5F1F4F1595BF
S1131A100795AFA9B8ADA00FB11FBEA7ADA7119789
S1131A20BEAFADAFC1010197029788F4D7FAD09445
S1131A30D7F8D094AF962CAD3DAD4EAD5FADAF971A
S1131A405058AF962CAF3DAF4EAF5FAFAF97C101CB
S1131A5003970297D0F4A7968CAD9DADAEADBFAD04
S1131A60A797B058A7968CAF9DAFAEAFBFAFA7975F
S1131A70E3962CAD3DAD4EAD5FADE3975058E39684
S1131A802CAF3DAF4EAF5FAFE39729964EAD5FAD40
S1131A902997BA01882777FD8095982F0E94372CC3
S1131AA069877A878B879C87A6019501AF966CAD71
S1131AB07DAD8EAD9FADAF970E94D52A29853A851D
S1131AC04B855C850E949C2B6FA778AB89AB9AAB46
S1131AD0A7962CAD3DAD4EAD5FADA797E3966CAD2B
S1131AE07DAD8EAD9FADE3970E94D52A29853A85B9
S1131AF04B855C850E949C2B6BAB7CAB8DAB9EAB0A
S1131B006091360170913701882777FD8095982F71
S1131B100E94372C69877A878B879C87B80188272E
S1131B2077FD8095982F0E94372C6D877E878F874D
S1131B30988BE7962CAD3DAD4EAD5FADE7976985CB
S1131B407A858B859C850E94D62AA30192010E94E6
S1131B50D52A2D853E854F8558890E949C2B239636
S1131B606CAF7DAF8EAF9FAF2397A3019201E79631
S1131B706CAD7DAD8EAD9FADE7970E94D52A2985CA
S1131B803A854B855C850E94D52A2D853E854F85F7
S1131B9058890E949C2B27966CAF7DAF8EAF9FAF68
S1131BA027978FA998ADADADBEADA817B9070CF4B2
S1131BB0FFC224E12B96EEADFFAD2B972E9FC00103
S1131BC02F9F900D11244FA958AD840F951F880F96
S1131BD0991F880F991FDC01A958BA4FBEA3ADA362
S1131BE02D96EEADFFAD2D972E9FC0012F9F900D2A
S1131BF01124840F951F880F991F880F991FAC011A
S1131C0049585A4F58A74FA32F96AEADBFAD2F9743
S1131C102A9FC0012B9F900D1124EFA9F8AD8E0FC0
S1131C209F1F880F991F880F991F9C0129583A4FAD
S1131C303AA729A78F01000F111F000F111F0F557D
S1131C401E4FFE8BED8B3A8E298E1801A986BA861B
S1131C50CB86DC864D865E866F86788A2FA538A96A
S1131C6049A95AA969857A858B859C850E94D62ABB
S1131C7069877A878B879C872BA93CA94DA95EA984
S1131C80A7966CAD7DAD8EAD9FADA7970E94D62A69
S1131C90A7966CAF7DAF8EAF9FAFA79723962CAD61
S1131CA03DAD4EAD5FAD23976D857E858F8598895B
S1131CB00E94D62A6D877E878F87988BA7962CAD36
S1131CC03DAD4EAD5FADA79769857A858B859C85C3
S1131CD00E94492B20E030E044E353E40E940A2DA3
S1131CE028ED3FE049E450E40E949C2B0E94042C20
S1131CF069AF7AAF8BAF9CAF2D853E854F855889F0
S1131D00CA01B9010E940A2D698B7A8B8B8B9C8B3B
S1131D1029853A854B855C85CA01B9010E940A2D43
S1131D206B017C01A7962CAD3DAD4EAD5FADA79781
S1131D30CA01B9010E940A2D9B01AC01C701B60179
S1131D400E94D62A6D8F7E8F8F8F98A30E94712D4B
S1131D5020E030E048E452E40E94D52A6B017C0183
S1131D609B01AC010E940A2D69A37AA38BA39CA3B7
S1131D709B01AC0169897A898B899C890E94D62A46
S1131D804B015C010E94712D9B01AC016D857E8528
S1131D908F85988990580E949C2B0E94C72A2B01FA
S1131DA03C0120E030E048E452E46D8D7E8D8F8D5F
S1131DB098A10E94D52A0E94712D9B01AC01C701F4
S1131DC0B6010E940A2D9B01AC0169897A898B892D
S1131DD09C890E94D62A0E94712D6B017C0120E00F
S1131DE038E44CE855E4C501B4010E94D62A20E049
S1131DF038E044E856E40E94D52A4B015C01A7016F
S1131E009601C701B6010E94D62A20E030E046E8D8
S1131E1052E40E940A2D9B01AC01C501B4010E9449
S1131E209C2B0E94C72A9B01AC01C301B2010E94F2
S1131E30D62A24EE3EE245E652E40E940A2D0E9490
S1131E40042C6B017C0129893A894B895C8960E007
S1131E507AE187EA96E40E94D52A29A13AA14BA106
S1131E605CA10E94D52A20E038E148E856E40E94AB
S1131E709C2B0E94C72A20E030E044E353E40E94F4
S1131E800A2D28ED3FE049E450E40E949C2B0E9477
S1131E90042C498D5A8D4230510509F45FC024F455
S1131EA04130510559F05BC1A98DBA8DA330B105FC
S1131EB009F4A6C0149709F4FBC051C109AD1AADC9
S1131EC02BAD3CAD07591F4F2F4F3F4FEDA1FEA146
S1131ED00083118322833383FBE4CF0ED11CE11CE6
S1131EE0F11CAFA1B8A5CD92DD92ED92FC921397AF
S1131EF0DC01CB010196A11DB11DE9A5FAA58083E2
S1131F009183A283B38369857A858B859C850E949E
S1131F10042CD1016D937D938D939C931397810130
S1131F20005B1F4FA7966CAD7DAD8EAD9FADA7979F
S1131F300E94042CF8016083718382839383005B85
S1131F401F4F6D857E858F8598890E94042CD8014A
S1131F506D937D938D939C93139701C109AD1AAD35
S1131F602BAD3CAD0F531F4F2F4F3F4FEDA1FEA1A3
S1131F700083118322833383FBE4CF0ED11CE11C45
S1131F80F11CAFA1B8A5CD92DD92ED92FC9213970E
S1131F90DC01CB010396A11DB11DE9A5FAA580833F
S1131FA09183A283B383810100511F4F69857A8590
S1131FB08B859C850E94042CD8016D937D938D9311
S1131FC09C931397005B1F4FA7966CAD7DAD8EADB0
S1131FD09FADA7970E94042CF801608371838283CC
S1131FE09383005B1F4F6D857E858F8598890E9442
S1131FF0042CD8016D937D938D939C931397AFC05C
S113200009AD1AAD2BAD3CAD0D531F4F2F4F3F4FB4
S1132010EDA1FEA1008311832283338301EE10E03E
S113202020E030E00C191D092E093F09AFA1B8A525
S11320300D931D932D933C9313972CE231E040E0D4
S113204050E0261B370B480B590BE9A5FAA5208352
S1132050318342835383810100521E4F69857A85FF
S11320608B859C850E94042CD8016D937D938D9360
S11320709C931397005B1F4FA7966CAD7DAD8EADFF
S11320809FADA7970E94042CF8016083718382831B
S11320909383005B1F4F6D857E858F8598890E9491
S11320A0042CD8016D937D938D939C93139757C003
S11320B009AD1AAD2BAD3CAD07591F4F2F4F3F4F04
S11320C0EDA1FEA1008311832283338301EE10E08E
S11320D020E030E00C191D092E093F09AFA1B8A575
S11320E00D931D932D933C9313972CE231E040E024
S11320F050E0261B370B480B590BE9A5FAA52083A2
S1132100318342835383810100531D4F69857A854E
S11321108B859C850E94042CD8016D937D938D93AF
S11321209C931397005B1F4FA7966CAD7DAD8EAD4E
S11321309FADA7970E94042CF8016083718382836A
S11321409383005B1F4F6D857E858F8598890E94E0
S1132150042CD8016D937D938D939C931397ED89F3
S1132160FE893196FE8BED8B2DA13EA12C5F3F4F56
S11321703EA32DA34FA158A54C5F5F4F58A74FA373
S113218089A59AA504969AA789A794E0290E311CDB
S1132190ADADBEADAE17BF070CF060CD298C3A8C47
S11321A0A984BA84CB84DC844D845E846F8478886B
S11321B0EFA9F8AD29962EAD3FAD2997E20FF31F95
S11321C0F8AFEFAB4DA55EA54E175F070CF0F3C259
S11321D024E12B96AEADBFAD2B972A9FC0012B9F58
S11321E0900D1124840F951F880F991F880F991F34
S11321F0FC01E958FA4F4F012D964EAD5FAD2D9776
S1132200249FC001259F900D1124ADA5BEA58A0F62
S11322109B1F880F991F880F991FFC01E958FA4FDB
S1132220FAA3E9A32F964EAD5FAD2F97249FC0016B
S1132230259F900D11248A0F9B1F880F991F880FCB
S1132240991FDC01A958BA4FBEA3ADA30DA51EA5C5
S1132250000F111F000F111F0F551E4F3E8E2D8EA4
S1132260180198A68FA2A986BA86CB86DC864D86ED
S11322705E866F86788A2FA538A949A95AA96985E7
S11322807A858B859C850E94D62A69877A878B8775
S11322909C872BA93CA94DA95EA9A7966CAD7DADE1
S11322A08EAD9FADA7970E94D62AA7966CAF7DAF3F
S11322B08EAF9FAFA79727962CAD3DAD4EAD5FADCA
S11322C027976D857E858F8598890E94D62A6D878C
S11322D07E878F87988BA7962CAD3DAD4EAD5FADB5
S11322E0A79769857A858B859C850E94492B20E078
S11322F030E044E353E40E940A2D28ED3FE049E432
S113230050E40E949C2B0E94042C69A77AA78BA7F7
S11323109CA72D853E854F855889CA01B9010E9425
S11323200A2D698B7A8B8B8B9C8B29853A854B85FF
S11323305C85CA01B9010E940A2D6B017C01A79634
S11323402CAD3DAD4EAD5FADA797CA01B9010E945A
S11323500A2D9B01AC01C701B6010E94D62A6D8BE0
S11323607E8B8F8B988F0E94712D20E030E048E4A3
S113237052E40E94D52A6B017C019B01AC010E94AE
S11323800A2D698F7A8F8B8F9C8F9B01AC01698991
S11323907A898B899C890E94D62A4B015C010E9410
S11323A0712D9B01AC016D857E858F859889905830
S11323B00E949C2B0E94C72A2B013C0120E030E0A4
S11323C048E452E46D897E898F89988D0E94D52ACC
S11323D00E94712D9B01AC01C701B6010E940A2D18
S11323E09B01AC0169897A898B899C890E94D62AD0
S11323F00E94712D6B017C0120E038E44CE855E427
S1132400C501B4010E94D62A20E038E044E856E42D
S11324100E94D52A4B015C01A7019601C701B601B0
S11324200E94D62A20E030E046E852E40E940A2DB9
S11324309B01AC01C501B4010E949C2B0E94C72AD8
S11324409B01AC01C301B2010E94D62A24EE3EE2F4
S113245045E652E40E940A2D0E94042C6B017C0183
S113246029893A894B895C8960E07AE187EA96E4B4
S11324700E94D52A298D3A8D4B8D5C8D0E94D52AD8
S113248020E038E148E856E40E949C2B0E94C72AC9
S113249020E030E044E353E40E940A2D28ED3FE0BD
S11324A049E450E40E949C2B0E94042CED8DFE8D87
S11324B0E230F10509F45FC01CF4319761F05CC1AE
S11324C02D8D3E8D2330310509F4A7C0243031050C
S11324D009F4FBC051C109A51AA52BA53CA50759B0
S11324E01F4F2F4F3F4FAFA1B8A50D931D932D93B1
S11324F03C931397BBE4CB0ED11CE11CF11CE9A166
S1132500FAA1C082D182E282F382DC01CB0101967E
S1132510A11DB11DEDA1FEA180839183A283B3838C
S113252069857A858B859C850E94042CD1016D93E5
S11325307D938D939C9313978101005B1F4FA79606
S11325406CAD7DAD8EAD9FADA7970E94042CF801B4
S11325506083718382839383005B1F4F6D857E85C7
S11325608F8598890E94042CD8016D937D938D9357
S11325709C93139701C109A51AA52BA53CA50F533C
S11325801F4F2F4F3F4FEFA1F8A5008311832283E4
S11325903383FBE4CF0ED11CE11CF11CA9A1BAA129
S11325A0CD92DD92ED92FC921397DC01CB01039660
S11325B0A11DB11DEDA1FEA180839183A283B383EC
S11325C0810100511F4F69857A858B859C850E9406
S11325D0042CD8016D937D938D939C931397005B8A
S11325E01F4FA7966CAD7DAD8EAD9FADA7970E9492
S11325F0042CF8016083718382839383005B1F4FF3
S11326006D857E858F8598890E94042CD8016D93F1
S11326107D938D939C931397AFC009A51AA52BA501
S11326203CA50D531F4F2F4F3F4FEFA1F8A500833B
S113263011832283338301EE10E020E030E00C1993
S11326401D092E093F09A9A1BAA10D931D932D932C
S11326503C9313972CE231E040E050E0261B370B0B
S1132660480B590BEDA1FEA1208331834283538390
S1132670810100521E4F69857A858B859C850E9455
S1132680042CD8016D937D938D939C931397005BD9
S11326901F4FA7966CAD7DAD8EAD9FADA7970E94E1
S11326A0042CF8016083718382839383005B1F4F42
S11326B06D857E858F8598890E94042CD8016D9341
S11326C07D938D939C93139757C009A51AA52BA5A9
S11326D03CA507591F4F2F4F3F4FEFA1F8A500838B
S11326E011832283338301EE10E020E030E00C19E3
S11326F01D092E093F09A9A1BAA10D931D932D937C
S11327003C9313972CE231E040E050E0261B370B5A
S1132710480B590BEDA1FEA12083318342835383DF
S1132720810100531D4F69857A858B859C850E94A4
S1132730042CD8016D937D938D939C931397005B28
S11327401F4FA7966CAD7DAD8EAD9FADA7970E9430
S1132750042CF8016083718382839383005B1F4F91
S11327606D857E858F8598890E94042CD8016D9390
S11327707D938D939C931397EDA5FEA53196FEA7AB
S1132780EDA72FA138A52C5F3F4F38A72FA349A150
S11327905AA14C5F5F4F5AA349A38DA19EA10496F1
S11327A09EA38DA394E0290E311CAFA9B8ADEA17FE
S11327B0FB0709F060CDC25BDF4F0FB6F894DEBFB4
S11327C00FBECDBFDF91CF911F910F91FF90EF907E
S11327D0DF90CF90BF90AF909F908F907F906F903D
S11327E05F904F903F902F9008954F925F926F9219
S11327F07F928F929F92AF92BF92CF92DF92EF928D
S1132800FF920F931F93CF93DF93CDB7DEB7289733
S11328100FB6F894DEBF0FBECDBF4B835C836D83D0
S11328207E838F839887EB80FC808D809E80AF8031
S1132830B88424E12E9DC0012F9D900D1124E091B8
S11328402A01F0912B01E80FF91FEE0FFF1FEE0F85
S1132850FF1FE958FA4F4080518062807380E091F5
S11328604201F09143018E0F9F1FFC01EE0FFF1FE9
S1132870EE0FFF1FE958FA4F808191818419950961
S1132880BC0122F466277727681B790B882777FD1C
S11328908095982F0E9466028B019C01B301A201CE
S11328A0C7010E948C0224E1289DC001299D900D3E
S11328B01124E0912A01F0912B01E80FF91FEE0F8A
S11328C0FF1FEE0FFF1FE958FA4FC080D180E2804E
S11328D0F380E0914201F09143018E0F9F1FFC01B0
S11328E0EE0FFF1FEE0FFF1FE958FA4F8081918111
S11328F08C199D09BC0122F466277727681B790B84
S1132900882777FD8095982F0E9466028B019C0191
S1132910B701A601C4010E948C0224E12A9DC001D2
S11329202B9D900D1124E0912A01F0912B01E80FC9
S1132930F91FEE0FFF1FEE0FFF1FE958FA4FC0807B
S1132940D180E280F380E0914201F09143018E0F47
S11329509F1FFC01EE0FFF1FEE0FFF1FE958FA4FF8
S1132960808191818C199D09BC0122F46627772707
S1132970681B790B882777FD8095982F0E94660243
S11329808B019C01B701A601C5010E948C02289607
S11329900FB6F894DEBF0FBECDBFDF91CF911F916C
S11329A00F91FF90EF90DF90CF90BF90AF909F90EA
S11329B08F907F906F905F904F90089520912001A9
S11329C03091210140912201509123016091240111
S11329D070912501809126019091270106DF2091B5
S11329E018013091190140911A0150911B01609115
S11329F01C0170911D0180911E0190911F01F5DE53
S1132A002091100130911101409112015091130154
S1132A106091140170911501809116019091170134
S1132A20E4DE209108013091090140910A0150919E
S1132A300B0160910C0170910D0180910E01909138
S1132A400F01D3DE0C94E50808951F920F920FB680
S1132A500F9211240BB60F922F933F934F935F93D2
S1132A606F937F938F939F93AF93BF93EF93FF9352
S1132A7088EB0E94D00180915001282F2F7030E004
S1132A803093490120934801807F90E09595879584
S1132A9095958795959587959595879590934701F5
S1132AA08093460181E090E090934101809340013E
S1132AB0FF91EF91BF91AF919F918F917F916F9112
S1132AC05F914F913F912F910F900BBE0F900FBECE
S1132AD00F901F9018951F920F920FB60F9211240A
S1132AE00BB60F922F933F934F935F936F937F9304
S1132AF08F939F93AF93BF93EF93FF938AEC90E0F0
S1132B000E94F601BC018AEC90E00E94DE0180ED97
S1132B1090E00E94F601BC0180ED90E00E94DE018D
S1132B2088ED90E00E94F601BC0188ED90E00E94DF
S1132B30DE0180EE90E00E94F601BC0180EE90E0A0
S1132B400E94DE0181E090E0909341018093400176
S1132B5080914401823091F028F4882321F181305E
S1132B6031F027C0833089F08430B1F022C084E092
S1132B7090E090934901809348011BC082E090E06B
S1132B80909349018093480114C088E090E09093A9
S1132B904901809348010DC081E090E09093490180
S1132BA08093480106C081E090E0909349018093AE
S1132BB04801FF91EF91BF91AF919F918F917F91C8
S1132BC06F915F914F913F912F910F900BBE0F909A
S1132BD00FBE0F901F9018958AEC90E00E94F601AA
S1132BE0BC018AEC90E00E94DE0180ED90E00E943E
S1132BF0F601BC0180ED90E00E94DE0188ED90E0DA
S1132C000E94F601BC0188ED90E00E94DE0180EE96
S1132C1090E00E94F601BC0180EE90E00E94DE018B
S1132C2088EE90E00E94F601BC0188EE90E00E94DC
S1132C30DE0180EF90E00E94F601BC0180EF90E09D
S1132C400E94DE0188EF90E00E94F601BC0188EF4B
S1132C5090E00E94DE0188E890E00E94F601BC0149
S1132C6088E890E00E94DE0188E990E00E94F60185
S1132C70BC0188E990E00E94DE0180E990E00E94B6
S1132C80F601BC0180E990E00C94DE0108951092F5
S1132C906405109263051092660510926505109202
S1132CA06205109261050895AF92BF92CF92DF92B0
S1132CB0EF92FF920F931F93CF93DF9381E090E005
S1132CC09093290180932801909388098093870920
S1132CD06091380170913901882777FD8095982F8C
S1132CE00E94372CC62FD72F182F092F60913A0135
S1132CF070913B01882777FD8095982F0E94372C8F
S1132D00D62EC72EB82EA92E20913C0130913D011C
S1132D1066277727621B730B882777FD8095982F8A
S1132D200E94372C0F931F93DF93CF93AF92BF92E0
S1132D30CF92DF929F938F937F936F930F931F9301
S1132D40DF93CF93AF92BF92CF92DF92A62EB72E8E
S1132D50C82ED92EE12CF12C02E010E020912001A4
S1132D60309121014091220150912301609124016D
S1132D707091250180912601909127010E941009EC
S1132D806091380170913901882777FD8095982FDB
S1132D900E94372C162F072FD82EC92E60913A0186
S1132DA070913B01882777FD8095982F0E94372CDE
S1132DB0C62FD72FB82EA92E60913C0170913D01EA
S1132DC0882777FD8095982F0E94372CCF92DF9229
S1132DD00F931F93AF92BF92DF93CF939F938F93E1
S1132DE07F936F93CF92DF920F931F93AF92BF9213
S1132DF0DF93CF93A62EB72EC82ED92E02E010E073
S1132E00209118013091190140911A0150911B0130
S1132E1060911C0170911D0180911E0190911F0110
S1132E200E9410096091380170913901882777FD5B
S1132E308095982F0E94372CD62EC72EB82EA92EF7
S1132E4060913A0170913B017195619571098827F0
S1132E5077FD8095982F0E94372CC62FD72F182FD7
S1132E60092F20913C0130913D0166277727621B91
S1132E70730B882777FD8095982F0E94372C2DB7E8
S1132E803EB7285D3F4F0FB6F8943EBF0FBE2DBF2F
S1132E90AF92BF92CF92DF920F931F93DF93CF93A2
S1132EA09F938F937F936F93AF92BF92CF92DF9252
S1132EB00F931F93DF93CF93A62EB72EC82ED92E30
S1132EC002E010E0209110013091110140911201B3
S1132ED050911301609114017091150180911601B4
S1132EE0909117010E941009609138017091390185
S1132EF0882777FD8095982F0E94372CD62EC72ED1
S1132F00B82EA92E20913A0130913B0166277727EC
S1132F10621B730B882777FD8095982F0E94372CAE
S1132F20C62FD72F182F092F60913C0170913D01B6
S1132F30882777FD8095982F0E94372CAF92BF92F7
S1132F40CF92DF920F931F93DF93CF939F938F932F
S1132F507F936F93AF92BF92CF92DF920F931F93A1
S1132F60DF93CF93A62EB72EC82ED92E02E010E001
S1132F70209108013091090140910A0150910B01FF
S1132F8060910C0170910D0180910E0190910F01DF
S1132F900E9410098DB79EB788960FB6F8949EBF0D
S1132FA00FBE8DBFDF91CF911F910F91FF90EF90D6
S1132FB0DF90CF90BF90AF9008952F923F924F92A1
S1132FC05F926F927F928F929F92AF92BF92CF92B5
S1132FD0DF92EF92FF920F931F93CF93DF9300D072
S1132FE000D0CDB7DEB79C01992314F42F5F3F4F77
S1132FF0A901559547955C834B839C012150310968
S113300030932901209328019C01992314F42D5F06
S11330103F4F3595279535952795215031093093A4
S11330208809209387098091610590916205209118
S11330306305309164058090650590906605609005
S11330403E0170903F012301420E531E680C791C0F
S1133050109241011092400140914401423009F420
S1133060A5C340F4442311F40C947226413059F062
S11330700C948929433009F42AC7443011F40C9480
S1133080F9220C9489299201552014F42F5F3F4FA3
S113309029015594479400913A0110913B014C0148
S11330A099231CF45FEF851A950A959487942090D0
S11330B03C0130903D0160913801709139018827BD
S11330C077FD8095982F0E94372C69837A83E82EA8
S11330D0F92E6627772762197309681979098827F1
S11330E077FD8095982F0E94372C5B016C01FF922D
S11330F0EF928A818F9399819F93C201800F911FD0
S1133100BC01882777FD8095982F0E94372C9F93C8
S11331108F937F936F93C40182199309BC0188270D
S113312077FD8095982F0E94372C9F938F937F93E0
S11331306F93FF92EF92EA81EF93F981FF93B801C5
S113314064197509882777FD8095982F0E94372C7C
S11331509F938F937F936F93E12CF12C0B811C81B0
S113316020912001309121014091220150912301AD
S1133170609124017091250180912601909127018D
S11331800E94C00C20903A0130903B0100913C0118
S113319010913D016091380170913901882777FDC4
S11331A08095982F0E94372C69837A83E82EF92E14
S11331B0B401601B710B882777FD8095982F0E94BE
S11331C0372C5B016C01FF92EF922A812F93398196
S11331D03F93C10184199509BC01882777FD809527
S11331E0982F0E94372C9F938F937F936F93119501
S11331F00195110908191909B801882777FD8095E7
S1133200982F0E94372C9F938F937F936F93FF92F5
S1133210EF924A814F9359815F93B201620D731DFE
S1133220882777FD8095982F0E94372C9F938F9342
S11332307F936F93EB80FC80870120912001309174
S11332402101409122015091230160912401709148
S1133250250180912601909127010E941009C30144
S11332600FB6F894DEBF0FBECDBF99230CF40196C0
S11332703C017594679420903A0130903B01009191
S11332803C0110913D01609138017091390188270A
S113329077FD8095982F0E94372C69837A83E82ED6
S11332A0F92EB80168197909882777FD8095982F38
S11332B00E94372C5B016C01FF92EF92FA81FF931D
S11332C029812F93C30182199309BC01882777FDB3
S11332D08095982F0E94372C9F938F937F936F93A1
S11332E0080D191DB801882777FD8095982F0E9435
S11332F0372C9F938F937F936F93FF92EF923A8132
S11333003F9349814F93662777276219730966199A
S11333107709882777FD8095982F0E94372C9F93F3
S11333208F937F936F93E12CF12C0B811C8120915F
S113333008013091090140910A0150910B016091FB
S11333400C0170910D0180910E0190910F010E946A
S1133350C00C20903A0130903B0100913C01109147
S11333603D016091380170913901882777FD80957E
S1133370982F0E94372C69837A83E82EF92EB401A2
S1133380600F711F882777FD8095982F0E94372C36
S11333905B016C01FF92EF925A815F9389818F9355
S11333A0882799278219930986199709BC018827C8
S11333B077FD8095982F0E94372C9F938F937F934E
S11333C06F9308191909B801882777FD8095982FFC
S11333D00E94372C9F938F937F936F93FF92EF926A
S11333E09A819F93E981EF93B30162197309882746
S11333F077FD8095982F0E94372C9F938F937F930E
S11334006F93EB80FC8087012091080130910901C2
S113341040910A0150910B0160910C0170910D01D2
S113342080910E0190910F010E94100920903A01A1
S113343030903B0100913C0110913D0160913801B5
S113344070913901882777FD8095982F0E94372C39
S113345069837A83E82EF92E0FB6F894DEBF0FBE87
S1133460CDBFB401601B710B882777FD8095982F21
S11334700E94372C5B016C01FF92EF923A813F93DB
S113348049814F93882799278219930984199509AB
S1133490BC01882777FD8095982F0E94372C9F9335
S11334A08F937F936F931195019511090819190949
S11334B0B801882777FD8095982F0E94372C9F9319
S11334C08F937F936F93FF92EF925A815F938981D9
S11334D08F93B20162197309882777FD8095982F1D
S11334E00E94372C9F938F937F936F93E12CF12C41
S11334F00B811C8120911001309111014091120126
S1133500509113016091140170911501809116017D
S1133510909117010E94100920903A0130903B01CC
S113352000913C0110913D01609138017091390185
S1133530882777FD8095982F0E94372C69837A839A
S1133540E82EF92E66277727601B710B6819790915
S1133550882777FD8095982F0E94372C5B016C019A
S1133560FF92EF929A819F93E981EF93C2018219AE
S11335709309BC01882777FD8095982F0E94372CEA
S11335809F938F937F936F93C401801B910BBC0116
S1133590882777FD8095982F0E94372C9F938F93CF
S11335A07F936F93FF92EF92FA81FF9329812F9378
S11335B0662777276219730964197509882777FDC7
S11335C08095982F0E94372C9F938F937F936F93AE
S11335D0EB80FC8087012091100130911101409112
S11335E012015091130160911401709115018091A1
S11335F01601909117010E94C00C40903A0150901E
S11336003B0100913C0110913D01609138017091A2
S11336103901882777FD8095982F0E94372C262E14
S1133620372EF82EE92E0FB6F894DEBF0FBECDBFAD
S1133630B401600F711F882777FD8095982F0E9431
S1133640372C5B016C01EF92FF923F922F92920113
S113365026193709B901882777FD8095982F0E948C
S1133660372C9F938F937F936F93B80168197909CF
S1133670882777FD8095982F0E94372C9F938F93EE
S11336807F936F93EF92FF923F922F92B301640D59
S1133690751D882777FD8095982F0E94372C9F935E
S11336A08F937F936F93E12CF12C0B811C812091DC
S11336B018013091190140911A0150911B01609138
S11336C01C0170911D0180911E0190911F010E94A7
S11336D0100940903A0150903B0100913C01109137
S11336E03D016091380170913901882777FD8095FB
S11336F0982F0E94372C262E372EF82EE92EB8014B
S113370068197909882777FD8095982F0E94372CAE
S11337105B016C01EF92FF923F922F929301240D73
S1133720351DB901882777FD8095982F0E94372C85
S11337309F938F937F936F93B401600F711F8827BA
S113374077FD8095982F0E94372C9F938F937F93BA
S11337506F93EF92FF923F922F92B201661977090D
S1133760882777FD8095982F0E94372C9F938F93FD
S11337707F936F93EB80FC80870120911801309137
S1133780190140911A0150911B0160911C01709123
S11337901D0180911E0190911F010E94C00C0FB663
S11337A0F894DEBF0FBECDBF0C94892920903A0156
S11337B030903B014C0199231CF4EFEF8E1A9E0AC2
S11337C095948794C20199230CF401962C01559485
S11337D0479400913C0110913D0160913801709132
S11337E03901882777FD8095982F0E94372C6983AB
S11337F07A83E82EF92E66277727601B710B6419EC
S11338007509882777FD8095982F0E94372C5B01D6
S11338106C01FF92EF92FA81FF9329812F93C101EA
S113382088199909BC01882777FD8095982F0E94F3
S1133830372C9F938F937F936F93C201801B910BBF
S1133840BC01882777FD8095982F0E94372C9F9381
S11338508F937F936F93FF92EF923A813F934981C5
S11338604F93B101680D791D882777FD8095982FB6
S11338700E94372C9F938F937F936F93E12CF12CAD
S11338800B811C8120912001309121014091220162
S113389050912301609124017091250180912601AA
S11338A0909127010E94C00C20903A0130903B0176
S11338B000913C0110913D016091380170913901F2
S11338C0882777FD8095982F0E94372C69837A8307
S11338D0E82EF92EB201601B710B882777FD8095C5
S11338E0982F0E94372C5B016C01FF92EF925A8152
S11338F05F9389818F93C401820D931DBC01882736
S113390077FD8095982F0E94372C9F938F937F93F8
S11339106F9311950195110904191509B8018827A8
S113392077FD8095982F0E94372C9F938F937F93D8
S11339306F93FF92EF929A819F93E981EF93B10184
S113394068197909882777FD8095982F0E94372C6C
S11339509F938F937F936F93EB80FC8087012091DB
S11339602001309121014091220150912301609165
S113397024017091250180912601909127010E94D4
S1133980100920903A0130903B01C3010FB6F8941E
S1133990DEBF0FBECDBF99230CF401963C01759494
S11339A0679400913C0110913D0160913801709140
S11339B03901882777FD8095982F0E94372C6983D9
S11339C07A83E82EF92EB80166197709882777FDDE
S11339D08095982F0E94372C5B016C01FF92EF9227
S11339E03A813F9349814F938827992782199309F4
S11339F088199909BC01882777FD8095982F0E9422
S1133A00372C9F938F937F936F93060D171DB801E7
S1133A10882777FD8095982F0E94372C9F938F934A
S1133A207F936F93FF92EF925A815F9389818F9373
S1133A30B40162197309882777FD8095982F0E9435
S1133A40372C9F938F937F936F93E12CF12C0B81F1
S1133A501C81209108013091090140910A01509183
S1133A600B0160910C0170910D0180910E019091F8
S1133A700F010E94C00C20903A0130903B0100914C
S1133A803C0110913D016091380170913901882702
S1133A9077FD8095982F0E94372C69837A83E82ECE
S1133AA0F92EB301600F711F882777FD8095982F39
S1133AB00E94372C5B016C01FF92EF929A819F93D5
S1133AC0E981EF93C40182199309BC01882777FD2A
S1133AD08095982F0E94372C9F938F937F936F9399
S1133AE006191709B801882777FD8095982F0E9439
S1133AF0372C9F938F937F936F93FF92EF92FA816A
S1133B00FF9329812F936627772762197309681910
S1133B107909882777FD8095982F0E94372C9F93E9
S1133B208F937F936F93EB80FC8087012091080132
S1133B303091090140910A0150910B0160910C01EF
S1133B4070910D0180910E0190910F010E94100956
S1133B5020903A0130903B0100913C0110913D01CD
S1133B606091380170913901882777FD8095982FED
S1133B700E94372C69837A83E82EF92E0FB6F894C5
S1133B80DEBF0FBECDBFB301601B710B882777FD6D
S1133B908095982F0E94372C5B016C01FF92EF9265
S1133BA05A815F9389818F93C40182199309BC015F
S1133BB0882777FD8095982F0E94372C9F938F93A9
S1133BC07F936F9311950195110906191709B8018F
S1133BD0882777FD8095982F0E94372C9F938F9389
S1133BE07F936F93FF92EF929A819F93E981EF9372
S1133BF0662777276219730968197909882777FD79
S1133C008095982F0E94372C9F938F937F936F9367
S1133C10E12CF12C0B811C812091100130911101B8
S1133C20409112015091130160911401709115019A
S1133C3080911601909117010E94100920903A0179
S1133C4030903B0100913C0110913D01609138019D
S1133C5070913901882777FD8095982F0E94372C21
S1133C6069837A83E82EF92E66277727601B710B08
S1133C7066197709882777FD8095982F0E94372C3D
S1133C805B016C01FF92EF92FA81FF9329812F93DC
S1133C90882799278219930988199909BC018827CB
S1133CA077FD8095982F0E94372C9F938F937F9355
S1133CB06F93B301601B710B882777FD8095982F54
S1133CC00E94372C9F938F937F936F93FF92EF9271
S1133CD03A813F9349814F93B4016219730988274C
S1133CE077FD8095982F0E94372C9F938F937F9315
S1133CF06F93EB80FC8087012091100130911101BA
S1133D0040911201509113016091140170911501B9
S1133D1080911601909117010E94C00C60903A01A5
S1133D2070903B0100913C0110913D01609138017C
S1133D3070913901882777FD8095982F0E94372C40
S1133D40262E372EF82EE92E0FB6F894DEBF0FBEBE
S1133D50CDBFB201600F711F882777FD8095982F22
S1133D600E94372C5B016C01EF92FF923F922F92DD
S1133D709401260D371DB901882777FD8095982F6A
S1133D800E94372C9F938F937F936F93B80164198C
S1133D907509882777FD8095982F0E94372C9F936B
S1133DA08F937F936F93EF92FF923F922F92B30181
S1133DB068197909882777FD8095982F0E94372CF8
S1133DC09F938F937F936F93E12CF12C0B811C8134
S1133DD0209118013091190140911A0150911B0151
S1133DE060911C0170911D0180911E0190911F0131
S1133DF00E94100960903A0170903B0100913C01CF
S1133E0010913D016091380170913901882777FD47
S1133E108095982F0E94372C262E372EF82EE92EC7
S1133E20B80164197509882777FD8095982F0E9439
S1133E30372C5B016C01EF92FF923F922F9293011A
S1133E4028193909B901882777FD8095982F0E9490
S1133E50372C9F938F937F936F93B201600F711FE1
S1133E60882777FD8095982F0E94372C9F938F93F6
S1133E707F936F93EF92FF923F922F92B401660D5E
S1133E80771D882777FD8095982F0E94372C9F9364
S1133E908F937F936F93EB80FC80870120911801AF
S1133EA03091190140911A0150911B0160911C013C
S1133EB070911D0180911E0190911F010E94C00C00
S1133EC00FB6F894DEBF0FBECDBF0C9489292090A5
S1133ED03A0130903B019301772014F42F5F3F4F58
S1133EE039017594679400913C0110913D014C0196
S1133EF099231CF4FFEF8F1A9F0A9594879460917D
S1133F00380170913901882777FD8095982F0E9498
S1133F10372C69837A83E82EF92EB401601B710B68
S1133F20882777FD8095982F0E94372C5B016C01C0
S1133F30FF92EF922A812F9339813F93C101861911
S1133F409709BC01882777FD8095982F0E94372C0C
S1133F509F938F937F936F9311950195110908197E
S1133F601909B801882777FD8095982F0E94372C6E
S1133F709F938F937F936F93FF92EF924A814F9316
S1133F8059815F93B101660D771D882777FD809570
S1133F90982F0E94372C9F938F937F936F93E12CDC
S1133FA0F12C0B811C812091200130912101409141
S1133FB02201509123016091240170912501809187
S1133FC02601909127010E94C00C20903A01309064
S1133FD03B0100913C0110913D01609138017091C9
S1133FE03901882777FD8095982F0E94372C6983A3
S1133FF07A83E82EF92E66277727601B710B6819E0
S11340007909882777FD8095982F0E94372C5B01CA
S11340106C01FF92EF928A818F9399819F93C301E0
S1134020820D931DBC01882777FD8095982F0E94EF
S1134030372C9F938F937F936F93C401801B910BB5
S1134040BC01882777FD8095982F0E94372C9F9379
S11340508F937F936F93FF92EF92EA81EF93F981AD
S1134060FF93B10166197709882777FD8095982F0A
S11340700E94372C9F938F937F936F93EB80FC80E8
S1134080870120912001309121014091220150911A
S11340902301609124017091250180912601909162
S11340A027010E94100920903A0130903B01C2017F
S11340B00FB6F894DEBF0FBECDBF99230CF4019662
S11340C02C015594479400913C0110913D0160915D
S11340D0380170913901882777FD8095982F0E94C7
S11340E0372C69837A83E82EF92EB401600F711F8F
S11340F0882777FD8095982F0E94372C5B016C01EF
S1134100FF92EF923A813F9349814F9388279927F1
S11341108219930984199509BC01882777FD809534
S1134120982F0E94372C9F938F937F936F93081936
S11341301909B801882777FD8095982F0E94372C9C
S11341409F938F937F936F93FF92EF925A815F9324
S113415089818F93B20162197309882777FD80954D
S1134160982F0E94372C9F938F937F936F93E12C0A
S1134170F12C0B811C81209108013091090140919F
S11341800A0150910B0160910C0170910D01809115
S11341900E0190910F010E94C00C20903A013090C2
S11341A03B0100913C0110913D01609138017091F7
S11341B03901882777FD8095982F0E94372C6983D1
S11341C07A83E82EF92EB80168197909882777FDD2
S11341D08095982F0E94372C5B016C01FF92EF921F
S11341E09A819F93E981EF93C20182199309BC01DB
S11341F0882777FD8095982F0E94372C9F938F9363
S11342007F936F93080D191DB801882777FD80955A
S1134210982F0E94372C9F938F937F936F93FF92D5
S1134220EF92FA81FF9329812F93662777276219EA
S1134230730964197509882777FD8095982F0E9462
S1134240372C9F938F937F936F93EB80FC80870130
S1134250209108013091090140910A0150910B010C
S113426060910C0170910D0180910E0190910F01EC
S11342700E94100920903A0130903B0100913C01CA
S113428010913D016091380170913901882777FDC3
S11342908095982F0E94372C69837A83E82EF92E13
S11342A00FB6F894DEBF0FBECDBF66277727601B1D
S11342B0710B68197909882777FD8095982F0E94DA
S11342C0372C5B016C01FF92EF925A815F938981D5
S11342D08F93C30182199309BC01882777FD8095C8
S11342E0982F0E94372C9F938F937F936F93C401D1
S11342F0801B910BBC01882777FD8095982F0E9425
S1134300372C9F938F937F936F93FF92EF929A81B1
S11343109F93E981EF9366277727621973096619DA
S11343207709882777FD8095982F0E94372C9F93D3
S11343308F937F936F93E12CF12C0B811C8120913F
S113434010013091110140911201509113016091BB
S113435014017091150180911601909117010E942A
S1134360100920903A0130903B0100913C011091DA
S11343703D016091380170913901882777FD80955E
S1134380982F0E94372C69837A83E82EF92EB40182
S1134390601B710B882777FD8095982F0E94372C1E
S11343A05B016C01FF92EF92FA81FF9329812F93B5
S11343B0882799278219930986199709BC018827A8
S11343C077FD8095982F0E94372C9F938F937F932E
S11343D06F9311950195110908191909B8018827D6
S11343E077FD8095982F0E94372C9F938F937F930E
S11343F06F93FF92EF923A813F9349814F93B301B8
S113440062197309882777FD8095982F0E94372CAD
S11344109F938F937F936F93EB80FC808701209110
S113442010013091110140911201509113016091DA
S113443014017091150180911601909117010E9449
S1134440C00C60903A0170903B0100913C011091C6
S11344503D016091380170913901882777FD80957D
S1134460982F0E94372C262E372EF82EE92E0FB6C1
S1134470F894DEBF0FBECDBFB8016819790988274B
S113448077FD8095982F0E94372C5B016C01EF9289
S1134490FF923F922F929201260D371DB901882772
S11344A077FD8095982F0E94372C9F938F937F934D
S11344B06F93B401600F711F882777FD8095982F43
S11344C00E94372C9F938F937F936F93EF92FF9269
S11344D03F922F92B30164197509882777FD80955F
S11344E0982F0E94372C9F938F937F936F93E12C87
S11344F0F12C0B811C8120911801309119014091FC
S11345001A0150911B0160911C0170911D01809151
S11345101E0190911F010E94100960903A01709051
S11345203B0100913C0110913D0160913801709173
S11345303901882777FD8095982F0E94372C262EE5
S1134540372EF82EE92EB401600F711F882777FDEE
S11345508095982F0E94372C5B016C01EF92FF929B
S11345603F922F92930124193509B901882777FDC9
S11345708095982F0E94372C9F938F937F936F93EE
S1134580B80168197909882777FD8095982F0E94CA
S1134590372C9F938F937F936F93EF92FF923F9269
S11345A02F92B201660D771D882777FD8095982F8D
S11345B00E94372C9F938F937F936F93EB80FC80A3
S11345C08701209118013091190140911A015091ED
S11345D01B0160911C0170911D0180911E0190913D
S11345E01F010E94C00C0FB6F894DEBF0FBECDBFF2
S11345F090C64C0199231CF4FFEF8F1A9F0A9594DF
S11346008794E0903A01F0903B0100913C011091B5
S11346103D01130177201CF42FEF221A320A35943E
S113462027946091380170913901882777FD80952E
S1134630982F0E94372C69837A83682E792EB101D2
S1134640601B710B882777FD8095982F0E94372C6B
S11346505B016C017F926F923A813F9349814F9342
S1134660C4018E0D9F1DBC01882777FD8095982F6E
S11346700E94372C9F938F937F936F93119501958D
S1134680110902191309B801882777FD8095982F1D
S11346900E94372C9F938F937F936F937F926F9297
S11346A05A815F9389818F93B701681979098827A3
S11346B077FD8095982F0E94372C9F938F937F933B
S11346C06F93E12CF12C0B811C81209120013091FE
S11346D021014091220150912301609124017091A4
S11346E0250180912601909127010E94C00CE09041
S11346F03A01F0903B0100913C0110913D01609121
S1134700380170913901882777FD8095982F0E9490
S1134710372C69837A83682E792E66277727601B66
S1134720710B62197309882777FD8095982F0E9471
S1134730372C5B016C017F926F929A819F93E98180
S1134740EF93C70188199909BC01882777FD8095E3
S1134750982F0E94372C9F938F937F936F93C1015F
S1134760801B910BBC01882777FD8095982F0E94B0
S1134770372C9F938F937F936F937F926F92FA81DD
S1134780FF9329812F93B4016E0D7F1D882777FD38
S11347908095982F0E94372C9F938F937F936F93CC
S11347A0EB80FC8087012091200130912101409110
S11347B0220150912301609124017091250180917F
S11347C02601909127010E941009E0903A01F0908F
S11347D03B0100913C0110913D0132010FB6F89468
S11347E0DEBF0FBECDBF55201CF45FEF651A750AFE
S11347F0759467946091380170913901882777FD29
S11348008095982F0E94372C69837A83482E592EDD
S1134810B801660D771D882777FD8095982F0E9433
S1134820372C5B016C015F924F928A818F9399813F
S11348309F93C4018E199F09BC01882777FD809539
S1134840982F0E94372C9F938F937F936F93061911
S11348501709B801882777FD8095982F0E94372C77
S11348609F938F937F936F935F924F92EA81EF931D
S1134870F981FF93662777276E197F0968197909EB
S1134880882777FD8095982FF2D79F938F937F93F6
S11348906F93E12CF12C0B811C8120910801309144
S11348A0090140910A0150910B0160910C01709132
S11348B00D0180910E0190910F010E94C00CE090B7
S11348C03A01F0903B0100913C0110913D0160914F
S11348D0380170913901882777FD8095982FC7D7C3
S11348E069837A83482E592EB80166197709882777
S11348F077FD8095982FBBD75B016C015F924F9237
S11349002A812F9339813F93882799278E199F09EC
S113491088199909BC01882777FD8095982FA7D716
S11349209F938F937F936F93060D171DB80188276C
S113493077FD8095982F9BD79F938F937F936F9349
S11349405F924F924A814F9359815F93B4016E19DC
S11349507F09882777FD8095982F89D79F938F9318
S11349607F936F93EB80FC80870120910801309145
S1134970090140910A0150910B0160910C01709161
S11349800D0180910E0190910F010E941009E09099
S11349903A01F0903B0100913C0110913D0160917E
S11349A0380170913901882777FD8095982F5FD75A
S11349B069837A83482E592E0FB6F894DEBF0FBE52
S11349C0CDBF66277727601B710B66197709882787
S11349D077FD8095982F4BD75B016C015F924F92C6
S11349E09A819F93E981EF93882799278E199F09CC
S11349F088199909BC01882777FD8095982F37D7A6
S1134A009F938F937F936F93C301801B910BBC0182
S1134A10882777FD8095982F2AD79F938F937F932C
S1134A206F935F924F92FA81FF9329812F93B40180
S1134A306E197F09882777FD8095982F18D79F9343
S1134A408F937F936F93E12CF12C0B811C81209128
S1134A5010013091110140911201509113016091A4
S1134A6014017091150180911601909117010E9413
S1134A701009E0903A01F0903B0100913C01109143
S1134A803D016091380170913901882777FD809547
S1134A90982FEDD669837A83482E592EB301601B73
S1134AA0710B882777FD8095982FE1D65B016C0107
S1134AB05F924F923A813F9349814F93C4018E197B
S1134AC09F09BC01882777FD8095982FD0D69F93A6
S1134AD08F937F936F93119501951109B80166190E
S1134AE07709882777FD8095982FC1D69F938F9358
S1134AF07F936F935F924F925A815F9389818F93D3
S1134B00662777276E197F0968197909882777FD41
S1134B108095982FACD69F938F937F936F93EB8060
S1134B20FC80870120911001309111014091120104
S1134B305091130160911401709115018091160137
S1134B40909117010E94C00CE0903A01F0903B0153
S1134B5000913C0110913D0160913801709139013F
S1134B60882777FD8095982F82D6462E572E782E4B
S1134B70692E0FB6F894DEBF0FBECDBFB80162191F
S1134B807309882777FD8095982F71D65B016C0196
S1134B906F927F925F924F92970128193909B90158
S1134BA0882777FD8095982F62D69F938F937F9364
S1134BB06F93B101600F711F882777FD8095982F3F
S1134BC056D69F938F937F936F936F927F925F924A
S1134BD04F92B4016E0D7F1D882777FD8095982F25
S1134BE046D69F938F937F936F93E12CF12C0B8187
S1134BF01C81209118013091190140911A015091A2
S1134C001B0160911C0170911D0180911E01909106
S1134C101F010E941009E0903A01F0903B010091BD
S1134C203C0110913D016091380170913901882750
S1134C3077FD8095982F1BD6462E572E782E692EF9
S1134C40B101600F711F882777FD8095982F0FD6CB
S1134C505B016C016F927F925F924F9294012E0DD3
S1134C603F1DB901882777FD8095982F00D69F9323
S1134C708F937F936F93B80162197309882777FD27
S1134C808095982FF4D59F938F937F936F936F9212
S1134C907F925F924F92B70168197909882777FD4F
S1134CA08095982FE4D59F938F937F936F93EB8098
S1134CB0FC808701209118013091190140911A015B
S1134CC050911B0160911C0170911D0180911E0186
S1134CD090911F010E94C00C0FB6F894DEBF0FBE66
S1134CE0CDBF17C3390133231CF44FEF641A740A80
S1134CF07594679400913A0110913B0160913801D9
S1134D0070913901882777FD8095982FB0D5B62EFC
S1134D10A72E582E492E60913C0170913D0171954A
S1134D2061957109882777FD8095982FA0D5C62EA7
S1134D30D72EE82EF92E4F925F92AF92BF92B30115
S1134D40600F711F882777FD8095982F90D59F93CA
S1134D508F937F936F93FF92EF92DF92CF924F9254
S1134D605F92AF92BF92B80166197709882777FDE1
S1134D708095982F7CD59F938F937F936F93AC2CC2
S1134D80BD2CCE2CDF2CE12CF12C0B811C8120912D
S1134D902001309121014091220150912301609121
S1134DA024017091250180912601909127010E9490
S1134DB0C00C00913A0110913B016091380170914F
S1134DC03901882777FD8095982F51D5B62EA72EC7
S1134DD0582E492E60913C0170913D017195619569
S1134DE07109882777FD8095982F41D5C62ED72E37
S1134DF0E82EF92E4F925F92AF92BF92B8016619D6
S1134E007709882777FD8095982F31D59F938F93C5
S1134E107F936F93FF92EF92DF92CF924F925F92C4
S1134E20AF92BF92B301600F711F882777FD809501
S1134E30982F1DD59F938F937F936F93AC2CBD2C8C
S1134E40CE2CDF2CEB80FC80870120912001309157
S1134E50210140912201509123016091240170911C
S1134E60250180912601909127010E941009C40117
S1134E700FB6F894DEBF0FBECDBF99230CF4019694
S1134E804C019594879400913A0110913B016091F3
S1134E90380170913901882777FD8095982FE7D4E0
S1134EA0B62EA72E582E492E60913C0170913D01DB
S1134EB0882777FD8095982FDAD4C62ED72EE82E32
S1134EC0F92E4F925F92AF92BF92B401601B710BA7
S1134ED0882777FD8095982FCAD49F938F937F93CB
S1134EE06F93FF92EF92DF92CF924F925F92AF92C5
S1134EF0BF9266277727601B710B68197909882789
S1134F0077FD8095982FB3D49F938F937F936F935E
S1134F10AC2CBD2CCE2CDF2CE12CF12C0B811C8174
S1134F20209108013091090140910A0150910B012F
S1134F3060910C0170910D0180910E0190910F010F
S1134F400E94C00C00913A0110913B01609138011C
S1134F5070913901882777FD8095982F88D4B62ED3
S1134F60A72E582E492E60913C0170913D0188274F
S1134F7077FD8095982F7BD4C62ED72EE82EF92E58
S1134F804F925F92AF92BF9266277727601B710B97
S1134F9068197909882777FD8095982F68D49F939D
S1134FA08F937F936F93FF92EF92DF92CF924F9202
S1134FB05F92AF92BF92B401601B710B882777FD9B
S1134FC08095982F54D49F938F937F936F93AC2C99
S1134FD0BD2CCE2CDF2CEB80FC80870120910801B6
S1134FE03091090140910A0150910B0160910C012B
S1134FF070910D0180910E0190910F010E94100992
S113500000913A0110913B0160913801709139018E
S1135010882777FD8095982F2AD4B62EA72E582E50
S1135020492E60913C0170913D0171956195710922
S1135030882777FD8095982F1AD4C62ED72EE82E70
S1135040F92E0FB6F894DEBF0FBECDBF4F925F921C
S1135050AF92BF9266277727601B710B6619770999
S1135060882777FD8095982F02D49F938F937F9301
S11350706F93FF92EF92DF92CF924F925F92AF9233
S1135080BF92B301601B710B882777FD8095982F21
S1135090EED39F938F937F936F93AC2CBD2CCE2C28
S11350A0DF2CE12CF12C0B811C812091100130911B
S11350B011014091120150911301609114017091FA
S11350C0150180911601909117010E941009009119
S11350D03A0110913B0160913801709139018827A0
S11350E077FD8095982FC3D3B62EA72E582E492E20
S11350F060913C0170913D0171956195710988271A
S113510077FD8095982FB3D3C62ED72EE82EF92E8F
S11351104F925F92AF92BF92B301601B710B8827CD
S113512077FD8095982FA3D39F938F937F936F934D
S1135130FF92EF92DF92CF924F925F92AF92BF9223
S113514066277727601B710B66197709882777FD17
S11351508095982F8CD39F938F937F936F93AC2CD0
S1135160BD2CCE2CDF2CEB80FC808701209110011C
S11351703091110140911201509113016091140179
S11351807091150180911601909117010E94C00C35
S113519000913A0110913B016091380170913901FD
S11351A0882777FD8095982F62D3B62EA72E782E68
S11351B0692E60913C0170913D01882777FD8095AF
S11351C0982F55D3C62ED72EE82EF92E0FB6F89465
S11351D0DEBF0FBECDBF6F927F92AF92BF92B80178
S11351E068197909882777FD8095982F40D39F9374
S11351F08F937F936F93FF92EF92DF92CF926F9290
S11352007F92AF92BF92B401600F711F882777FD20
S11352108095982F2CD39F938F937F936F93AC2C6F
S1135220BD2CCE2CDF2CE12CF12C0B811C81209188
S113523018013091190140911A0150911B0160919C
S11352401C0170911D0180911E0190911F010E940B
S1135250100900913A0110913B016091380170915D
S11352603901882777FD8095982F01D3B62EA72E74
S1135270782E692E60913C0170913D01882777FD5D
S11352808095982FF4D2C62ED72EE82EF92E6F9241
S11352907F92AF92BF92B401600F711F882777FD90
S11352A08095982FE4D29F938F937F936F93FF926F
S11352B0EF92DF92CF926F927F92AF92BF92B8013A
S11352C068197909882777FD8095982FD0D29F9304
S11352D08F937F936F93AC2CBD2CCE2CDF2CEB8063
S11352E0FC808701209118013091190140911A0125
S11352F050911B0160911C0170911D0180911E0150
S113530090911F010E94C00C0FB6F894DEBF0FBE2F
S1135310CDBF0F900F900F900F90DF91CF911F9101
S11353200F91FF90EF90DF90CF90BF90AF909F9040
S11353308F907F906F905F904F903F902F90089543
S113534080914501813011F40E9447162091420159
S11353503091430180918709909188092817390772
S113536009F0D5C08091400190914101892B09F445
S1135370CEC080914601909147018130910531F072
S113538082309105B9F0892BB1F529C080913201A1
S11353909091330190936405809363059195819571
S11353A091099093660580936505109241011092CE
S11353B0400121C08091320190913301222733278B
S11353C0281B390B3093640520936305909366057D
S11353D08093650510924101109240010CC0109217
S11353E0640510926305109266051092650510928B
S11353F041011092400180914801909149018B3004
S1135400910508F07EC0FC01EA5BFF4FDCC381E03C
S1135410809344011092620510926105109241013B
S1135420109240016EC081E08093440180913E015E
S113543090913F0190936205809361051092410120
S1135440109240015EC082E0809344011092620594
S113545010926105109241011092400152C082E005
S11354608093440180913E0190913F0190936205A5
S113547080936105109241011092400142C083E083
S113548080934401109262051092610510924101CB
S11354901092400136C083E08093440180913E0124
S11354A090913F01909362058093610510924101B0
S11354B01092400126C084E080934401109262055A
S11354C01092610510924101109240011AC084E0CB
S11354D08093440180913E0190913F019093620535
S11354E08093610510924101109240010AC010920C
S11354F044011092620510926105109241011092CC
S1135500400180913401909135010C94DD17089588
S11355100E9410020E94B9018FE0809369008DB34C
S113552083608DBB109243011092420181E090E0B0
S113553090932B0180932A010E949C000E94A80052
S113554078940E9454160E94100860913001709162
S1135550310180E090E00E94B70060912E017091CB
S11355602F0182E090E00E94B7000E945901892B2C
S113557021F00E94DE140E948E010E947301892B87
S113558021F00E94EC150E949201DADEEECF9F9387
S11355909F77A8D10F9000203AF49058A2EA2AED00
S11355A03FE049E450E413D0F4C15058BB27AA2784
S11355B00ED0EFC1E0D130F0E5D120F031F49F3FBF
S11355C011F41EF4B0C10EF4E095E7FBA6C1E92F77
S11355D0F1D180F3BA17620773078407950718F0AF
S11355E071F49EF509C20EF4E0950B2EBA2FA02D8E
S11355F00B01B90190010C01CA01A0011124FF277C
S1135600591B99F0593F50F4503E68F11A16F04076
S1135610A22F232F342F4427585FF3CF4695379575
S11356202795A795F0405395C9F77EF41F16BA0B3A
S1135630620B730B840BBAF09150A1F0FF0FBB1FE8
S1135640661F771F881FC2F70EC0BA0F621F731F31
S1135650841F48F4879577956795B795F7959E3F8E
S113566008F0B3CF9395880F08F09927EE0F97951C
S11356708795089580D158F080E891E009F49EEF71
S113568081D128F040E851E059F45EEF09C04BC1E4
S1135690B3C1E92FE0788ED168F3092E052AC1F34E
S11356A0261737074807590738F00E2E07F8E02564
S11356B069F0E025E0640AC0EF6307F8009407FA94
S11356C0DB01B9019D01DC01CA01AD01EF9343D0B7
S11356D060D10AD05F91552331F02BED3FE049E4CE
S11356E050FD49EC63CF0895DF93DD27B92FBF77D1
S11356F040E85FE31616170648075B0710F4D92F36
S113570082D19F938F937F936F9329D2E2EAF0E043
S11357100DD13FD12F913F914F915F9187D1DD23DF
S113572049F09058A2EA2AED3FE049EC5FE3D078D3
S11357305D274DDFDF912DC10CD02BC123D140F06B
S11357401AD130F021F45F3F19F0E7C0511155C16F
S1135750EAC030D198F39923C9F35523B1F3951BCB
S1135760550BBB27AA2762177307840738F09F5F7E
S11357705F4F220F331F441FAA1FA9F333D00E2EED
S11357803AF0E0E830D091505040E695001CCAF75A
S113579029D0FE2F27D0660F771F881FBB1F26171F
S11357A037074807AB07B0E809F0BB0B802DBF01F2
S11357B0FF2793585F4F2AF09E3F510568F0ADC014
S11357C01CC15F3FECF3983EDCF3869577956795B3
S11357D0B795F7959F5FC9F7880F911D96958795A3
S11357E097F90895E1E0660F771F881FBB1F6217C2
S11357F073078407BA0720F0621B730B840BBA0B80
S1135800EE1F88F7E095089504D06894B111F5C0AF
S11358100895D8D088F09F5790F0B92F9927B751A1
S1135820A0F0D1F0660F771F881F991F1AF0BA9560
S1135830C9F712C0B13081F0DFD0B1E00895DCC007
S1135840672F782F8827B85F39F0B93FCCF3869556
S113585077956795B395D9F73EF4909580957095B3
S113586061957F4F8F4F9F4F0895E89409C097FB30
S11358703EF490958095709561957F4F8F4F9F4F23
S11358809923A9F0F92F96E9BB279395F695879567
S113589077956795B795F111F8CFFAF4BB0F11F42A
S11358A060FF1BC06F5F7F4F8F4F9F4F16C08823D1
S11358B011F096E911C0772321F09EE8872F762F07
S11358C005C0662371F096E8862F70E060E02AF048
S11358D09A95660F771F881FDAF7880F9695879534
S11358E097F90895DF93CF931F930F938B01EC01E6
S11358F0EFECF0E01BD04DD09801AE018B01EC0130
S113590060E070E080E89FE350DEEBD09801AE01E8
S11359100F911F91CF91DF9189C097F99F6780E81C
S113592070E060E008959FEF80EC0895DF93CF93DB
S11359301F930F93FF92EF92DF927B018C01689487
S113594005C0DA2EEF0172D0FE01E894A5912591ED
S1135950359145915591AEF3EF0139DEFE01970182
S1135960A801DA9479F7DF90EF90FF900F911F91DF
S1135970CF91DF91089500240A941616170618068D
S11359800906089500240A9412161306140605063F
S11359900895092E0394000C11F4882352F0BB0FD0
S11359A040F4BF2B11F460FF04C06F5F7F4F8F4F33
S11359B09F4F089557FD9058440F551F59F05F3F6E
S11359C071F04795880F97FB991F61F09F3F79F01D
S11359D087950895121613061406551FF2CF46959F
S11359E0F1DF08C0161617061806991FF1CF869521
S11359F07105610508940895E894BB276627772705
S1135A00CB0197F908959B01AC0160E070E080E858
S1135A109FE392CE0BD0BDCFAEDF28F0B3DF18F0FA
S1135A20952309F07ACF7FCF1124E7CFC3DFA0F30A
S1135A30959FD1F3950F50E0551F629FF001729F1F
S1135A40BB27F00DB11D639FAA27F00DB11DAA1F3E
S1135A50649F6627B00DA11D661F829F2227B00D8B
S1135A60A11D621F739FB00DA11D621F839FA00D16
S1135A70611D221F749F3327A00D611D231F849F66
S1135A80600D211D822F762F6A2F11249F575040BD
S1135A908AF0E1F088234AF0EE0FFF1FBB1F661F58
S1135AA0771F881F91505040A9F79E3F510570F011
S1135AB034CFA3CF5F3FECF3983EDCF38695779524
S1135AC06795B795F795E7959F5FC1F7FE2B880F0C
S1135AD0911D9695879597F9089511F40EF423CFA7
S1135AE041C070DFD0F39923D9F3CEF39F57550B00
S1135AF087FF46D00024A0E640EA900180585695DE
S1135B00979528F4805C660F771F881F20F026176E
S1135B103707480730F4621B730B840B20293129A3
S1135B204A2BA69517940794202531254A2758F720
S1135B30660F771F881F20F026173707480730F4B1
S1135B40620B730B840B200D311D411DA09581F751
S1135B50B901842F9158880F9695879508959B01D4
S1135B60AC0158CF9F3F31F0915020F48795779541
S1135B706795B795880F911D9695879597F9089520
S1135B8091505040660F771F881FD2F70895052E55
S1135B9097FB16F400940FD057FD05D024D007FCD2
S1135BA002D046F408C050954095309521953F4F5A
S1135BB04F4F5F4F089590958095709561957F4FF5
S1135BC08F4F9F4F0895EE0FFF1F0590F491E02D26
S1135BD009942BD0A59F900DB49F900DA49F800D88
S1135BE0911D11240895A1E21A2EAA1BBB1BFD01CD
S1135BF00DC0AA1FBB1FEE1FFF1FA217B307E407A8
S1135C00F50720F0A21BB30BE40BF50B661F771FFF
S1135C10881F991F1A9469F76095709580959095DF
S1135C209B01AC01BD01CF010895A29FB001B39FB8
S1135C30C001A39F700D811D1124911DB29F700D91
S10F5C40811D1124911D0895F894FFCFDC
S1135C4C3E0049003E0049000400070009000B0017
S1135C5C0300010003000500020008000A000C0008
S1135C6C0100020004000600010001001400F4010C
S1135C7C32001E000C00280088FF640064005A00E7
S9030000FC
