:100000000C942A000C9447000C9447000C94470071
:100010000C9447000C9447000C9447000C94470044
:100020000C9447000C9447000C94D8000C94C40026
:100030000C9447000C9447000C9447000C94470024
:100040000C9447000C9447000C9447000C94470014
:100050000C94470011241FBECFE5D4E0DEBFCDBF16
:1000600020E0A6E6B0E001C01D92AE36B207E1F78F
:1000700010E0A0E6B0E0E4E5F4E002C005900D92E7
:10008000A636B107D9F70E94A4000C9428020C945C
:10009000000087E089B988E98AB986E880BD85E0F3
:1000A0008ABB82E08BBB089580E487BB80EC8DB96E
:1000B00008955D9BFECF8CB90895CF93DF93809117
:1000C000660090916700009749F0FC01C181D281E0
:1000D0000E949901D0936700C0936600DF91CF9191
:1000E0000895E0916600F0916700309729F08081D3
:1000F0000E9459000E945D000895CF93C82FF89484
:1001000083E090E00E940101FC010097D9F0C083D8
:10011000128211828091660090916700892B29F4E8
:10012000F0936700E093660008C0A0916800B0916A
:1001300069001296FC93EE931197F0936900E09397
:1001400068007894CF91089510926700109266002D
:1001500010926900109268000E9449000E945400A9
:100160007894C0E402C00E94710080916800909170
:100170006900892BC1F7C5BF85B7806485BF8895A5
:1001800085B78F7B85BFF1CF1F920F920FB60F926D
:1001900011248F9315BE1BBA8CB18FB984E08BBB31
:1001A00080E485BF8F910F900FBE0F901F90189520
:1001B0001F920F920FB60F9211242F933F934F93DC
:1001C0005F936F937F938F939F93AF93BF93EF93BF
:1001D000FF9315BE8FB10E947D001FB880E485BFDC
:1001E000FF91EF91BF91AF919F918F917F916F910F
:1001F0005F914F913F912F910F900FBE0F901F90E5
:100200001895CF93DF938230910510F482E090E04F
:10021000E0916C00F0916D0020E030E0A0E0B0E0F3
:10022000309739F14081518148175907B8F0481784
:10023000590771F482819381109729F013969C934A
:100240008E9312972CC090936D0080936C0027C002
:100250002115310531F04217530718F0A901DB01D0
:1002600001C0EF019A01BD01DF010280F381E02DA1
:10027000D7CF21153105F9F0281B390B2430310572
:1002800080F48A819B816115710521F0FB019383C4
:10029000828304C090936D0080936C00FE013296BF
:1002A00044C0FE01E20FF31F819391932250310964
:1002B000398328833AC020916A0030916B00232B48
:1002C00041F4209162003091630030936B002093E1
:1002D0006A0020916000309161002115310541F4E0
:1002E0002DB73EB74091640050916500241B350B3B
:1002F000E0916A00F0916B00E217F307A0F42E1B67
:100300003F0B2817390778F0AC014E5F5F4F241779
:10031000350748F04E0F5F1F50936B0040936A0003
:100320008193919302C0E0E0F0E0CF01DF91CF91A3
:100330000895CF93DF93009709F487C0FC013297AB
:1003400013821282C0916C00D0916D00209781F4CD
:1003500020813181280F391F80916A0090916B00B4
:100360008217930779F5F0936B00E0936A006DC0F4
:10037000DE0120E030E0AE17BF0750F412964D9139
:100380005C9113979D014115510509F1DA01F3CFF5
:10039000B383A28340815181840F951F8A179B07E5
:1003A00071F48D919C911197840F951F0296918302
:1003B000808312968D919C9113979383828321154C
:1003C000310529F4F0936D00E0936C003EC0D90133
:1003D0001396FC93EE9312974D915D91A40FB51F68
:1003E000EA17FB0779F480819181840F951F0296AB
:1003F000D90111969C938E938281938113969C933D
:100400008E931297E0E0F0E08A819B81009719F0CB
:10041000FE01EC01F9CFCE01029628813981820FCD
:10042000931F20916A0030916B002817390769F4F7
:10043000309729F410926D0010926C0002C0138264
:100440001282D0936B00C0936A00DF91CF91089520
:04045000F894FFCF4E
:0604540000006E00200014
:00000001FF
