:100000000C942A000C9447000C9447000C94470071
:100010000C9447000C9447000C9447000C94470044
:100020000C9447000C9447000C94A6000C94970085
:100030000C9447000C9447000C9447000C94470024
:100040000C9447000C9447000C9447000C94470014
:100050000C94470011241FBECFE5D4E0DEBFCDBF16
:1000600020E0A6E6B0E001C01D92A237B207E1F79A
:1000700010E0A0E6B0E0E8EFF3E002C005900D92DA
:10008000A636B107D9F70E9480000C94FA010C94AF
:100090000000CF93C82F83E090E00E94CE00FC01C7
:1000A000009711F40E94F501C083128211828091A1
:1000B000680090916900892B29F4F0936900E0931E
:1000C000680008C0A0916C00B0916D001296FC937E
:1000D000EE931197F0936D00E0936C00CF9108952B
:1000E00087E089B988E98AB986E880BD81E08ABB62
:1000F00082E08BBB089580E487BB80EC8DB90895C6
:10010000109269001092680010926D0010926C00BD
:100110000E9470000E947B00789490E495BF85B7A0
:10012000806485BF889585B78F7B85BFF7CF1F9289
:100130000F920FB60F9211248F9315BE8CB18FB909
:100140008F910F900FBE0F901F9018951F920F92D6
:100150000FB60F9211242F933F934F935F936F939A
:100160007F938F939F93AF93BF93EF93FF9315BEAE
:100170008FB10E94490084E48FB9FF91EF91BF9144
:10018000AF919F918F917F916F915F914F913F912F
:100190002F910F900FBE0F901F901895CF93DF9364
:1001A0008230910510F482E090E0E0917000F091CF
:1001B000710020E030E0A0E0B0E0309739F14081FC
:1001C000518148175907B8F04817590771F48281CF
:1001D0009381109729F013969C938E9312972CC0BD
:1001E000909371008093700027C02115310531F084
:1001F0004217530718F0A901DB0101C0EF019A0172
:10020000BD01DF010280F381E02DD7CF211531053B
:10021000F9F0281B390B2430310580F48A819B8149
:100220006115710521F0FB019383828304C09093D3
:10023000710080937000FE01329644C0FE01E20F0F
:10024000F31F8193919322503109398328833AC057
:1002500020916E0030916F00232B41F420916200B9
:100260003091630030936F0020936E002091600006
:10027000309161002115310541F42DB73EB7409111
:10028000640050916500241B350BE0916E00F091E5
:100290006F00E217F307A0F42E1B3F0B2817390756
:1002A00078F0AC014E5F5F4F2417350748F04E0FD2
:1002B0005F1F50936F0040936E008193919302C033
:1002C000E0E0F0E0CF01DF91CF910895CF93DF938D
:1002D000009709F487C0FC01329713821282C09103
:1002E0007000D0917100209781F420813181280F16
:1002F000391F80916E0090916F008217930779F5F6
:10030000F0936F00E0936E006DC0DE0120E030E0FE
:10031000AE17BF0750F412964D915C9113979D0153
:100320004115510509F1DA01F3CFB383A28340816E
:100330005181840F951F8A179B0771F48D919C91B1
:100340001197840F951F02969183808312968D9149
:100350009C911397938382832115310529F4F0939F
:100360007100E09370003EC0D9011396FC93EE93A8
:1003700012974D915D91A40FB51FEA17FB0779F411
:1003800080819181840F951F0296D90111969C93CB
:100390008E938281938113969C938E931297E0E0C3
:1003A000F0E08A819B81009719F0FE01EC01F9CF02
:1003B000CE01029628813981820F931F20916E0011
:1003C00030916F002817390769F4309729F410929B
:1003D00071001092700002C013821282D0936F00DD
:1003E000C0936E00DF91CF91089581E090E0F89482
:0803F0000C94FA01F894FFCF10
:0603F8000000720020006D
:00000001FF
