:100000000C942A000C943C000C943C000C943C0092
:100010000C943C000C943C000C943C000C943C0070
:100020000C943C000C943C000C9470000C94610007
:100030000C943C000C943C000C943C000C943C0050
:100040000C943C000C943C000C943C000C943C0040
:100050000C943C0011241FBECFE5D4E0DEBFCDBF21
:1000600020E0A0E6B0E001C01D92A036B207E1F7A3
:100070000E9452000C9498000C94000087E089B90B
:1000800088E98AB986E880BD81E08ABB82E08BBBC3
:10009000089580E487BB80EC8DB908955D9BFECF09
:1000A0008CB908950E943E000E944900789490E423
:1000B00095BF85B7806485BF889585B78F7B85BFE1
:1000C000F7CF1F920F920FB60F9211248F9315BE88
:1000D0008CB18FB98F910F900FBE0F901F90189514
:1000E0001F920F920FB60F9211242F933F934F93AD
:1000F0005F936F937F938F939F93AF93BF93EF9390
:10010000FF9315BE8FB10E944E0084E48FB9FF911A
:10011000EF91BF91AF919F918F917F916F915F917F
:100120004F913F912F910F900FBE0F901F901895F8
:04013000F894FFCF71
:00000001FF
