S01000005350492D746573742E737265633B
S11300000C942A000C943F000C943F000C943F0085
S11300100C943F000C943F000C943F000C943F0060
S11300200C943F000C943F000C943F000C943F0050
S11300300C943F000C943F000C943F000C943F0040
S11300400C943F000C943F000C943F000C943F0030
S11300500C943F0011241FBECFE5D4E0DEBFCDBF1A
S113006010E0A0E6B0E0E0EFF0E002C005900D92F1
S1130070A236B107D9F70E9450000C9476000C9474
S1130080000084E08ABB8BBB80EB87BB81E58DB924
S113009008958FB9779BFECF8FB180936000089548
S11300A00E9441001BBAC0EADFE014E08FE891E04F
S11300B00197F1F700C000001BBA809160000E9414
S11300C049001BBB2197209789F7C4E09FEF23EDDC
S11300D080E3915020408040E1F700C000001BBA4B
S11300E0809160000E944900CBBBF0CFF894FFCF11
S10500F04400C6
S9030000FC
