S01700004763634170706C69636174696F6E332E7372656359
S11300000C9458050C9475050C9475050C947505A1
S11300100C9475050C9475050C9475050C94750574
S11300200C9475050C9475050C9436090C9475059F
S11300300C9475050C9475050C9475050C94750554
S11300400C9475050C9475050C9490090C94750525
S11300500C9475052E0736073E0746074E075607CC
S11300605E076607036EDB363D9A9999993DABAA04
S1130070AA2A3E000000803F072C7AA5BA6CC590DE
S1130080DA3B9365FC8BBC53F810FD3C5692834DD0
S1130090BD879D3AB63DCBC9BF5BBE73DA0FC93F7E
S11300A02003200320032003200320032003200334
S11300B02003200320032003200320032003200324
S11300C02003200320032003200320032003200314
S11300D00C03EE02DF02D002B2029E028A02580230
S11300E0440230021C020802FE01F401EA01CC01C0
S11300F0B801AE01A4019A0186017C017201680174
S11301005E0154014A0140013601300129012301F5
S1130110160110010E010C010201FF00FC00EE00AB
S11301208700E800E400E100DF00DC00D700D00035
S1130130CD00CB00C900C700C200C000BE00B8009B
S1130140B600B400B200AF00AD00AB00A900A70038
S1130150A400A100A0009E009D009B0099009800AF
S11301609500930091008F008D008C008B00890016
S113017087008600850084008200810080007F0063
S11301807D007B007A0079007800770077007600A4
S1130190740073007200710070006F006E006D00D7
S11301A06C006B006A006900680067006600650007
S11301B0640063006200610060005F005E005E0036
S11301C05D005C005B005B005A005A005900590056
S11301D05700560056005500550054005300520075
S11301E052002003200320032003200320032003C4
S11301F020032003200320032003200320032003E3
S113020020032003200320032003200320032003D2
S11302102003200316030203EE02B202A302940297
S113022062024E023A0226021202FE01F401EA01BF
S1130230CC01B801AE01A4019A0186017C017701C9
S113024072015E0154014F014A014001360132013D
S11302502C011E011A01150110010701FA00010108
S1130260F400F100EF00EB00E700E300E100E00040
S1130270D700D500CF00CD00CC00C700C400C1001A
S1130280BC00B900B800B600B300B000AF00AD00C8
S1130290AB00A800A500A300A100A0009E009D0043
S11302A09B009700960094009200910090008F00AC
S11302B08C008B008A0089008800860085008400F9
S11302C0830081007F007E007D007C007B007A003B
S11302D07900770076007500750073007200710074
S11302E070006F006E006D006C006B006A006900A6
S11302F067006600650065006400640063006200D6
S113030060005F005E005E005D005C005B005B00FF
S11303105A00590058005700570056005400530023
S11303205300530020032003200320032003200351
S113033020032003200320032003200320032003A1
S11303402003200320032003200320032003200391
S1130350200320032003F802EE02D002B2029E0220
S11303608A0258024402300226020802F401EA0119
S1130370E001C201B801AE01A4019A0186017C0129
S1130380720168015E0154014A01400136013101E4
S11303902E0128011C01160113011101070104019A
S11303A00201F100F000EF00EB00E800E400E100DE
S11303B0DD00D600D300D000CF00CD00C800C600B9
S11303C0C500BD00BB00B900B700B400B200B00066
S11303D0AF00AD00AA00A600A500A400A0009F00E5
S11303E09E009D009A009700950094009200910051
S11303F090008D008C008B008900880087008600A7
S113040085008400810080007F007E007D007C00E8
S11304107B007A0077007600760075007400720025
S1130420710070006F006E006D006B006A0069005F
S1130430680068006700660065006400630062008D
S1130440610060005F005F005E005E005C005B00B6
S11304505B005A00590058005700570055005500DA
S113046054005400540020032003200320032003DD
S11304702003200320032003200320032003200360
S11304802003200320032003200320032003200350
S11304902003200320032003F802EE02E402BC023E
S11304A0AD029E02620258023A0235021C020802A0
S11304B0F401EA01D601C201AE01A401950186014D
S11304C081017C016D015E0154014A014001360144
S11304D031012D0129011E011501130110010A0129
S11304E00501FF00F000EB00EA00E800E300DF0094
S11304F0DB00D800D100CE00CB00C800C500C2008C
S1130500C000BD00B700B600B400B100AF00AE003B
S1130510AC00A900A600A300A0009E009D009B00C3
S11305209A00980097009300910090008F008D002E
S11305308C008A0088008600850084008400830083
S113054081007F007E007C007A00790078007800CA
S11305507700760075007200710070006F006E0005
S11305606D006C006B006A0069006800670067003A
S113057066006500640063006200610061005F0062
S11305805E005D005C005B005B005A00590058008F
S113059058005700560055005400540053005200B0
S11305A05200520052005200200320032003200373
S11305B0200320032003200320032003200320031F
S11305C0200320032003200320032003200320030F
S11305D0200320032003200320030C03F802EE026F
S11305E0BC029E02940258024E0230022102120200
S11305F0F401EA01E001C201B801A4019F019A01DA
S113060086017C01720168015E0154014A014001C6
S11306103601340131012A011E01160113010F01B3
S113062006010301FF00F200F000EE00EC00E70019
S1130630E300E200DE00D700D500D100CF00CD00FA
S1130640C700C500C200BC00BA00B800B600B300C1
S1130650B100AF00AE00AC00A800A500A400A30048
S1130660A0009F009D009C009900970096009300B5
S11306709200910090008D008C008B008A0089000C
S11306808800870085008400820080007F007E004F
S11306907D007C007B007A007A007700760075008C
S11306A074007300720071006F006E006D006C00C6
S11306B06B006A00690068006700660065006400FA
S11306C064006300620060005F005E005D005D0026
S11306D05C005B005B005A0059005800570057004B
S11306E055005400530053005300200320032003FB
S11306F020032003200320032003200320032003DE
S113070020032003200320032003200320032003CD
S1130710200320032003200320030C03F802EE022D
S1130720DA02C602B2029E026C025802440230028D
S11307301C020802FE01F401CC01C201AE01A901B0
S1130740A401860181017C0172015E0154014F0103
S11307504A0140013601310129011C01170113012D
S11307600E0107010301FE00EF00ED00EA00E600C0
S1130770E300E000DE00DC00D300D000CC00CB00BE
S1130780C800C300C100BE00B700B500B300B1008B
S1130790AE00AC00AB00A900A700A300A0009F001E
S11307A09E009B009A00990098009400920091008A
S11307B08E008D008C008B008800870086008500E9
S11307C08400820081007F007E007D007B007A002F
S11307D0790078007700760075007300720072006B
S11307E0710070006E006D006D006C006B006A009B
S11307F069006800670066006500640063006200C9
S11308006200610060005F005F005E005E005D00EA
S11308105C005B005B005A005A0059005800570006
S11308205600550054005300530053002003200386
S1130830200320032003200320032003200320039C
S1130840200320032003200320032003200320038C
S1130850200320032003200320032003200320037C
S113086016030C03E402D002BC02800267025302A6
S11308704902300212020802FE01E001CC01BD016E
S1130880B801AE019F01900186017C016D015E01FA
S113089054014A0140013B0136012E0125011B018F
S11308A0180115010A0108010401F500F200EF0026
S11308B0EE00E900E300E200E000D700D400CE003F
S11308C0CD00CB00C600C300C100BC00B800B60018
S11308D0B400B100AF00AD00AC00AA00A600A400B3
S11308E0A200A1009E009D009C009A009700950024
S11308F09300910090008E008D008A00890087008B
S11309008600850084008300820080007E007D00D4
S11309107C007B007A007900780077007500730012
S113092072007200710070006F006E006C006A004B
S11309306A0069006800670066006500640063007F
S113094063006200600060005F005E005D005C00A8
S11309505C005B005A005A005900580056005500CC
S1130960550054005200510050004E004E00200328
S1130970200320032003200320032003200320035B
S1130980200320032003200320032003200320034B
S11309902003200320032003200320030C03DA0296
S11309A0D002C6029E02940280026C023002260229
S11309B012020802F401E001D601C201B801A40147
S11309C09A0190018601720168015E0154014A0195
S11309D040013B0136012C01290124011E011301B0
S11309E00C0108010601FE00FB00F700ED00E70022
S11309F0E600E300E100DB00D800D500CD00CB0029
S1130A00C700C600C400C000BE00BC00B700B400EC
S1130A10B200B000AC00AB00AA00A800A600A2007F
S1130A20A0009F009D009B009A00980097009300EF
S1130A30920091008F008E008D008B00890087004A
S1130A408600850084008200810080007F007E0093
S1130A507C007B007A0079007800760076007400D0
S1130A6073007200710070006F006E006D006B0007
S1130A706A00690069006800680067006500640036
S1130A806300630062006100600060005E005D005E
S1130A905D005C005B005B005A005A005800570080
S1130AA056005500550054005300530053005300A2
S1130AB011241FBECFE5D4E0DEBFCDBF10E0A0E619
S1130AC0B0E0E8EDFFE102C005900D92A236B10757
S1130AD0D9F722E0A2E6B0E001C01D92AD30B20722
S1130AE0E1F70E94A7090C94EA0F0C940000FC01A2
S1130AF080819181FB0120813181821B930B0895B8
S1130B00CF92DF92EF92FF920F931F93CF93DF93D5
S1130B100BE910E0C0E0D0E0CC9FB001CD9F700D98
S1130B20700D11246C59794C80E090E00E946C0B9C
S1130B300E94D20C6B017C01BE01882777FD809551
S1130B40982F0E946E0BA70196010E94D30A0E945F
S1130B50BC0A2EE43DE34FE054E40E944B0C0E9497
S1130B60AE0C0E943B0BF801619371938F012196A7
S1130B70C639D10589F6DF91CF911F910F91FF906E
S1130B80EF90DF90CF90089593E098BB82BB18BAA2
S1130B908FE99FE00197F1F700C0000008958FEFFF
S1130BA081BB83E487BB80EC8DB92FEF86E791E0AE
S1130BB0215080409040E1F700C0000082E088BBF3
S1130BC088E382BB18BA8FE99FE00197F1F700C070
S1130BD0000082E088BB8CE082BB18BA8FE99FE0FA
S1130BE00197F1F700C0000082E088BB81E082BB7E
S1130BF018BA8FE39FE10197F1F700C0000082E08B
S1130C0088BB86E082BB18BA8FE99FE00197F1F7B1
S1130C1000C0000082E088BB82BB18BA8FE39FE16A
S1130C200197F1F700C000000895EF92FF920F932F
S1130C301F93CF93DF93EC0199232CF080E290E093
S1130C400E94C40504C08DE290E00E94C4059E0188
S1130C50DD2324F4222733272C1B3D0BE4E6F0E0AC
S1130C60C901BF010E94A50D7C010AE010E0B80192
S1130C700E94A50DEC01C7018C1B9D0BB8010E94BD
S1130C80A50D8B0146EF4603C001479F900D11242B
S1130C90280F391FC9018C1B9D0BBF010E94A50D94
S1130CA0CB01C0960E94C405C801C0960E94C40529
S1130CB0CE01C0960E94C405DF91CF911F910F9180
S1130CC0FF90EF900895CF93DF93EC0127E735E091
S1130CD042E050E065E070E00E94130E2C813D81FB
S1130CE0EA81FB8188859985AF01421B530BBA01C8
S1130CF022F466277727641B750BDC01A21BB30B58
S1130D00AD0122F4442755274A1B5B0B46175707AE
S1130D1064F44E815F81240F351F820F931F63E0BB
S1130D2070E00E94A50DCB012DC0AE81BF818881EA
S1130D309981AD01421B530BBA0122F46627772730
S1130D40641B750BEC01C21BD30BAE0122F44427C8
S1130D5055274C1B5D0B4617570754F48E0F9F1FE6
S1130D60820F931F63E070E00E94A50DCB010AC0BF
S1130D702E0F3F1FCD01820F931F63E070E00E948E
S1130D80A50DCB01DF91CF910895AC01461B570B04
S1130D909A0122F422273327241B350B25363105EB
S1130DA02CF0681779074CF4CB010895860F971F30
S1130DB099230CF401969595879508958C3221E03A
S1130DC0920744F56C3241E074073CF5861B970B9F
S1130DD09C012B563F4F2B32314010F5992344F0A0
S1130DE0FC01EE0FFF1FE556FF4F808191810895AE
S1130DF09C01992324F422273327281B390BF9015A
S1130E00EE0FFF1FE556FF4F8081918191958195EB
S1130E109109089580E090E0089580E090E00895BD
S1130E2080E090E00895349BFECF80E287B985B1DD
S1130E3090E09093F0018093EF0180E186B90895EA
S1130E40813A91050CF04AC0FB013197E830F10575
S1130E5008F047C0E65DFF4F0C94B90DFC01EE0F9E
S1130E60FF1FE259F64F859194910895FC01EE0F0E
S1130E70FF1FE45DF74F859194910895FC01EE0FF7
S1130E80FF1FE651F94F859194910895FC01EE0FEF
S1130E90FF1FE855FA4F859194910895FC01EE0FD8
S1130EA0FF1FEA59FB4F859194910895FC01EE0FC1
S1130EB0FF1FEC5DFC4F859194910895FC01EE0FAA
S1130EC0FF1FEE51FE4F859194910895FC01EE0FA2
S1130ED0FF1FE056FF4F85919491089580E590E0BF
S1130EE0089580E090E00895CF93DF9383EE91E03E
S1130EF00E94630661E070E00E942007909308025C
S1130F00809307028BEF91E00E94630662E070E039
S1130F100E94200790937C0080937B008FE890E0F0
S1130F200E94630663E070E00E94200790939A0099
S1130F308093990089ED91E00E94630664E070E07B
S1130F400E94200790930C0280930B028DEC91E099
S1130F500E94630665E070E00E9420079093D80128
S1130F608093D70185E890E00E94630666E070E014
S1130F700E94200790938400809383008FE690E082
S1130F800E94630667E070E00E942007909382004D
S1130F908093810081EF91E00E94630668E070E035
S1130FA00E942007EC0190936E0080936D00609185
S1130FB081007091820080910B0290910C020E943A
S1130FC0C5069093C8018093C70160910702709190
S1130FD0080280918300909184000E94C50690933A
S1130FE00602809305026091990070919A00CE01E7
S1130FF00E94C5069093EE018093ED016091D701A4
S11310007091D80180917B0090917C000E94C5066C
S11310109093CC018093CB01DF91CF910895EF920F
S1131020FF920F931F93CF93DF9360910B02709104
S11310300C0280918100909182000E94DE067C0166
S113104090937E0080937D00609183007091840072
S113105080910702909108020E94DE068C01909311
S11310600A028093090260916D0070916E00809174
S1131070990090919A000E94DE06EC019093800002
S113108080937F0060917B0070917C008091D701F8
S11310909091D8010E94DE069093CA018093C90101
S11310A021E030E0E114F10411F420E030E0B90172
S11310B00115110511F06F5F7F4F209711F06F5FDD
S11310C07F4F009711F06F5F7F4F6115710569F0D5
S11310D00E0D1F1DC00FD11F8C0F9D1F0E94A50D4B
S11310E070937A006093790004C010927A00109291
S11310F07900DF91CF911F910F91FF90EF900895A8
S1131100883B91050CF051C0883891055CF5883610
S11311109105C9F03CF48835910559F08036910564
S113112069F094C08037910599F088379105A9F04A
S11311308DC080916D0090916E0093C0809181006C
S1131140909182008EC0809183009091840089C028
S11311508091D7019091D80184C080910B02909125
S11311600C027FC08039910589F024F488389105F8
S113117041F06FC08839910571F0883A910581F08A
S113118068C08091C9019091CA016BC080917900B7
S113119090917A0066C0809164009091650061C06E
S11311A08091990090919A005CC0883D91051CF54E
S11311B0883C910589F024F4803C910541F04CC0B1
S11311C08A3C910571F0803D910581F045C0809184
S11311D07B0090917C0045C08091070290910802A9
S11311E040C08091C7019091C8013BC08091050225
S11311F09091060236C0883E9105C9F03CF4883DC2
S1131200910559F0803E910569F029C0803F910510
S113121099F0883F9105A9F022C08091ED01909149
S1131220EE011FC08091CB019091CC011AC0809136
S11312307D0090917E0015C08091090290910A0270
S113124010C080917F00909180000BC080E090E0FE
S113125008C080E090E005C080E090E002C080E03B
S113126090E0909367008093660008951F920F9218
S11312700FB60F9211242F933F934F935F936F9365
S11312807F938F939F93AF93BF93EF93FF9380913B
S113129068009091690081309105F1F082309105E8
S11312A029F1892B41F58FB190E090936B008093E5
S11312B06A008FB1883B71F08FB190E00E94800882
S11312C081E090E0909369008093680080916700CA
S11312D08FB915C01FB813C0809166008FB982E022
S11312E090E0909369008093680009C010926900AF
S11312F01092680004C01092690010926800FF9177
S1131300EF91BF91AF919F918F917F916F915F9179
S11313104F913F912F910F900FBE0F901F901895F2
S11313201F920F920FB60F9211248F939F93809167
S11313306200909163000196909363008093620031
S11313409F918F910F900FBE0F901F9018950E9440
S1131350CF058BB780628BBF0E948005789400E034
S113136010E0EE24E394F12C0F2EF3ECDF2EF02D9D
S1131370662463946894CC24C1F80F2EF3E07F2E86
S1131380F02D6894882482F80F2EF5E09F2EF02D1E
S11313900F2EF6E0AF2EF02D0F2EF7E0BF2EF02D1E
S11313A00F2EF0EC4F2EF02D6894552457F8209111
S11313B06200309163008091600090916100821717
S11313C093072CF4F0926500E092640004C010923C
S11313D06500109264001092630010926200043061
S11313E011051CF40F5F1F4F02C000E010E017B896
S11313F0D6B80E941307E801CC0FDD1FFE01ED51A2
S1131400FE4F8091EF019091F0019183808367B842
S1131410D6B80E941307FE01E550FE4F8091EF01FC
S11314209091F00191838083C7B8D6B80E941307C6
S1131430FE01E157FF4F8091EF019091F0019183FC
S1131440808377B8D6B80E941307FE01E752FE4F97
S11314508091EF019091F0019183808387B8D6B891
S11314600E941307FE01E353FE4F8091EF01909118
S1131470F0019183808397B8D6B80E941307FE01C8
S1131480EB57FF4F8091EF019091F001918380839E
S1131490A7B8D6B80E941307FE01E159FF4F809107
S11314A0EF019091F00191838083B7B8D6B80E9480
S11314B01307CF50DE4F8091EF019091F001998393
S11314C088830430110509F04DC00E9474070E94FE
S11314D00F088091C7019091C8010E941506809160
S11314E00502909106020E9415068091ED019091EB
S11314F0EE010E9415068091CB019091CC010E94CF
S11315001506C8BA42BA18BA8FE99FE00197F1F7F5
S113151000C0000080917D0090917E000E9415061D
S11315208091090290910A020E94150680917F0021
S1131530909180000E94150680916400909165004E
S11315400E941506C8BA52BA18BA8FE99FE00197EB
S1131550F1F700C000008FEB9DE50197F1F700C0A3
S1131560000025CF9FEF23EF81E091502040804081
S1131570E1F700C000001BCF9F939F77EEE389370C
S11315809E0720F4E4E6F0E02DD109C0E2D09058A3
S1131590A2EA2AED3FE049EC5FE354D242D10F9036
S11315A007FC905808950CD03CC134D140F02BD1A5
S11315B030F021F45F3F19F0E7C0511166C1EAC071
S11315C041D198F39923C9F35523B1F3951B550BD6
S11315D0BB27AA2762177307840738F09F5F5F4F02
S11315E0220F331F441FAA1FA9F333D00E2E3AF043
S11315F0E0E830D091505040E695001CCAF729D05D
S1131600FE2F27D0660F771F881FBB1F26173707AB
S11316104807AB07B0E809F0BB0B802DBF01FF27DB
S113162093585F4F2AF09E3F510568F0ADC02DC11D
S11316305F3FECF3983EDCF3869577956795B79515
S1131640F7959F5FC9F7880F911D9695879597F930
S11316500895E1E0660F771F881FBB1F62177307A9
S11316608407BA0720F0621B730B840BBA0BEE1FBE
S113167088F7E095089504D06894B11106C10895DF
S1131680E9D088F09F5790F0B92F9927B751A0F06F
S1131690D1F0660F771F881F991F1AF0BA95C9F702
S11316A012C0B13081F0F0D0B1E00895EDC0672FE1
S11316B0782F8827B85F39F0B93FCCF386957795B2
S11316C06795B395D9F73EF490958095709561959B
S11316D07F4F8F4F9F4F0895E89409C097FB3EF4C6
S11316E090958095709561957F4F8F4F9F4F99236B
S11316F0A9F0F92F96E9BB279395F69587957795E9
S11317006795B795F111F8CFFAF4BB0F11F460FFA8
S11317101BC06F5F7F4F8F4F9F4F16C0882311F000
S113172096E911C0772321F09EE8872F762F05C014
S1131730662371F096E8862F70E060E02AF09A95AF
S1131740660F771F881FDAF7880F9695879597F9A4
S11317500895DF93CF931F930F938B01EC01E8E778
S1131760F0E01BD05ED09801AE018B01EC0160E08B
S113177070E080E89FE354D115D19801AE010F9138
S11317801F91CF91DF9193C097F99F6780E870E034
S113179060E008959FEF80EC0895DF93CF931F934B
S11317A00F93FF92EF92DF927B018C01689405C046
S11317B0DA2EEF017CD0FE01E894A59125913591B4
S11317C045915591AEF3EF013DD1FE019701A8017A
S11317D0DA9479F7DF90EF90FF900F911F91CF91FA
S11317E0DF9108959F938F937F936F93FF93EF936C
S11317F09B01AC0150D0EF91FF91CFDF2F913F912E
S11318004F915F9148C000240A94161617061806D3
S11318100906089500240A941216130614060506F0
S11318200895092E0394000C11F4882352F0BB0F81
S113183040F4BF2B11F460FF04C06F5F7F4F8F4FE4
S11318409F4F089557FD9058440F551F59F05F3F1F
S113185071F04795880F97FB991F61F09F3F79F0CE
S113186087950895121613061406551FF2CF469550
S1131870F1DF08C0161617061806991FF1CF8695D2
S11318807105610508940895E894BB2766277727B6
S1131890CB0197F908950BD0C4CFB5DF28F0BADF98
S11318A018F0952309F070CF75CF1124EECFCADF5D
S11318B0A0F3959FD1F3950F50E0551F629FF0015F
S11318C0729FBB27F00DB11D639FAA27F00DB11DB8
S11318D0AA1F649F6627B00DA11D661F829F222741
S11318E0B00DA11D621F739FB00DA11D621F839FC8
S11318F0A00D611D221F749F3327A00D611D231F9E
S1131900849F600D211D822F762F6A2F11249F57EB
S113191050408AF0E1F088234AF0EE0FFF1FBB1F0E
S1131920661F771F881F91505040A9F79E3F5105AD
S113193070F02ACFAACF5F3FECF3983EDCF3869594
S113194077956795B795F795E7959F5FC1F7FE2B58
S1131950880F911D9695879597F908957BDFE0F0A0
S11319609E37D8F09639B8F49E3848F4672F782F0C
S11319708827985FF9CF86957795679593959539DC
S1131980D0F3B62FB1706B0F711D811D20F48795B4
S1131990779567959395A9C0C3C077CF11F40EF4DA
S11319A0F9CEBEC057DFD0F39923D9F3CEF39F57B6
S11319B0550B87FFC3D00024A0E640EA900180586D
S11319C05695979528F4805C660F771F881F20F042
S11319D026173707480730F4621B730B840B202942
S11319E031294A2BA69517940794202531254A2797
S11319F058F7660F771F881F20F026173707480708
S1131A0030F4620B730B840B200D311D411DA09526
S1131A1081F7B901842F9158880F96958795089579
S1131A205058BB27AA270ED0FCCEEDDE30F0F2DEF4
S1131A3020F031F49F3F11F41EF4ACCE0EF4E09587
S1131A40E7FBA2CEE92FFEDE80F3BA176207730725
S1131A508407950718F071F49EF516CF0EF4E095FF
S1131A600B2EBA2FA02D0B01B90190010C01CA0154
S1131A70A0011124FF27591B99F0593F50F4503EFF
S1131A8068F11A16F040A22F232F342F4427585FF1
S1131A90F3CF469537952795A795F0405395C9F709
S1131AA07EF41F16BA0B620B730B840BBAF09150C1
S1131AB0A1F0FF0FBB1F661F771F881FC2F70EC060
S1131AC0BA0F621F731F841F48F487957795679533
S1131AD0B795F7959E3F08F0B3CF9395880F08F01C
S1131AE09927EE0F979587950895882371F47723A6
S1131AF021F09850872B762F07C0662311F499277D
S1131B000DC09051862B70E060E02AF09A95660F24
S1131B10771F881FDAF7880F9695879597F90895A8
S1131B209F3F31F0915020F4879577956795B7954D
S1131B30880F911D9695879597F908959150504077
S1131B40660F771F881FD2F7089597FB072E16F4A8
S1131B50009407D077FD09D00E94BF0D07FC05D083
S1131B603EF4909581959F4F0895709561957F4FB0
S1131B700895EE0FFF1F0590F491E02D0994AA1B20
S1131B80BB1B51E107C0AA1FBB1FA617B70710F064
S1131B90A61BB70B881F991F5A95A9F78095909596
S1131BA0BC01CD010895DC01FB018C9190819D93D2
S1131BB081934150510914161506BCF30895A0E011
S1131BC0B0E0E5EEFDE00C94BD0F6C017B018A01F1
S1131BD0E901F9010995B80197FF0FC0C701FE019A
S1131BE0099597FD08C0B801C601FE01099597FD46
S1131BF014C0860112C0870110C0C701FE010995F7
S1131C001816190644F0B801C601FE01099597FF9C
S1131C1004C0C60103C0C70101C0C801CDB7DEB707
S1131C20E8E00C94D90FACE0B0E0E9E1FEE00C94FC
S1131C30B30F8C016B015C874B87790151954195FA
S1131C40510958874F832B853C85200F311F3A83D8
S1131C50298337E0C316D10470F589809A804B85B7
S1131C605C85C49E5001C59EB00CD49EB00C11245A
S1131C70A00EB11E8A149B0408F071C1340106152C
S1131C801705A0F463018B859C85C81AD90AB30192
S1131C90C601F70109951816190644F44B855C85AD
S1131CA0B601C3010E94D30D3601E9CF2B853C85D3
S1131CB0820E931EDFCFC601969587954B855C8572
S1131CC0849F5001859FB00C949FB00C1124A00EEA
S1131CD0B11EC60101979E838D8397E0C916D10476
S1131CE009F44CC0ED81FE81E49F3001E59F700C46
S1131CF0F49F700C1124600E711EF9E2CF16D1040A
S1131D00A8F1C60123E0969587952A95E1F7849F6B
S1131D104001859F900C949F900C11241401220C77
S1131D20331CA801420D531DB801680D791D97019C
S1131D30C8010E94DF0D2C01A501480D591D919485
S1131D40819491089701B501C501880D991D0E94E0
S1131D50DF0D5C01B301680D791D9701A301C30177
S1131D60821993090E94DF0D3C0101C028019701EB
S1131D70A301B501C2010E94DF0D5C014B855C85A6
S1131D80B501C8010E94D30D89809A804D815E817E
S1131D908B859C85489F9001499F300D589F300D3D
S1131DA011243C832B833901600E711E13015401ED
S1131DB020E030E06A147B0408F441C0B801C50196
S1131DC029873A87F701099529853A85181619064E
S1131DD0B4F1892B89F44B855C85B50189819A819D
S1131DE00E94D30D29813A814B855C85240F351FD0
S1131DF03A83298321E030E08B859C85A80EB91EA7
S1131E00D9CFB801C30129873A87F701099523017E
S1131E104B855C85441A550A29853A8597FD13C07C
S1131E20892B61F44B855C85B101C3010E94D30DFC
S1131E302B853C85221A330A21E030E032016A14F2
S1131E407B04F8F60EC04B855C85B301C5010E9486
S1131E50D30D4B855C85A40EB51E320121E030E024
S1131E60A9CF232B09F450C04B805C804F81588547
S1131E70441A550A400E511E650129813A81C21A3D
S1131E80D30AA901401B510BC416D5060CF4A601B4
S1131E901416150634F4B501641B750BC8010E94B1
S1131EA0D30D410186189708A201421953098B8565
S1131EB09C85481B590B8416950608F4A401141636
S1131EC0150634F4B201641B750BC5010E94D30DD1
S1131ED0EB85FC85EC15FD0548F4C601BF010E94A5
S1131EE0BF0D9701AF01C8010E94130E2B853C85DD
S1131EF028153905A0F5820108191909C401B90189
S1131F000E94BF0D6B019FCE8B859C85C89E50019E
S1131F10C99EB00CD89EB00C1124A00EB11E8A1418
S1131F209B04E8F4340106151705A0F463018B85BE
S1131F309C85C81AD90AB301C601F7010995181678
S1131F40190644F44B855C85B601C3010E94D30D88
S1131F503601E9CF2B853C85820E931EE0CF2C966B
S1131F60E2E10C94CF0F2F923F924F925F926F92C7
S1131F707F928F929F92AF92BF92CF92DF92EF9215
S1131F80FF920F931F93CF93DF93CDB7DEB7CA1B96
S1131F90DB0B0FB6F894DEBF0FBECDBF09942A88C1
S1131FA0398848885F846E847D848C849B84AA8469
S1131FB0B984C884DF80EE80FD800C811B81AA81F6
S1131FC0B981CE0FD11D0FB6F894DEBF0FBECDBFC1
S10B1FD0ED010895F894FFCF20
S1051FD80600FD
S9030000FC
